:100000000C94600C0C94880C0C94880C0C94880C48
:100010000C94880C0C94880C0C94880C0C94880C10
:100020000C94880C0C94880C0C94CD1C0C943C1DE6
:100030000C94880C0C94880C0C94880C0C94880CF0
:100040000C94880C0C94880C0C94880C0C94880CE0
:100050000C94880C0C94880C0C94880C0C946E1FD7
:100060000C94880C0C94880C0C94880C0C94880CC0
:100070000C94880C0C94880C0C94880C0C94880CB0
:100080000C94B81F0C94880C0C94880C0C94880C5D
:100090000C94880C0C94880C0C94880C0C94880C90
:1000A0000C94880C0C94880C0C94880C0808080696
:1000B00006070707070A0A0A0301010101010101F6
:1000C00001010808080707070707070A0A0A0301CA
:1000D000010010001010101108080703030707079C
:1000E000070A070703000222001222111222080841
:1000F000070101070707070A070703000222011289
:10010000221112220808080707070707070A0A0A28
:10011000031111100001011111010808070107075F
:100120000707070A0A070301012211012210112201
:100130000808070407070707070A0A070310102221
:100140000001220110220808080707070707070A0D
:100150000A0A03010001101110110011080807011B
:1001600007070707070A0A070301012211012210E6
:1001700010220808070307070707070A0A070310E2
:1001800010220100220111220808070706070707AD
:10019000070A0A07031010000001221101220808B3
:1001A000070703070707070A0A07031110220001C0
:1001B000221000220808070606070707070A070794
:1001C0000310122201022210022208080707070763
:1001D0000707070A07070301022201122210122251
:1001E0000808070707070707070A0A07031110226D
:1001F0000001221100220808080707070707070A5D
:10020000070703111212000202001202080707007A
:1002100007030707070A0A07021120220021220804
:1002200007070707070707070A0A07021120220026
:1002300021220807070107070707070A0707020126
:1002400022221022220808070707070707070A07C4
:1002500007030102220012221112220808070707D1
:10026000070707070A0707030102220012221012DC
:10027000220808070707070707070A0707030002FE
:100280002201122210122208080707070707070792
:100290000A0707030002220012221112220808078F
:1002A0000707070707070A070703010222011222AF
:1002B0001012220808070707070707070A0707039E
:1002C000000222011222111222080707070707075E
:1002D00007070A0707020122221022224E4F54006C
:1002E000584E4F5200584F52004E4F52004F52003E
:1002F0004E414E4400414E44000000000001000108
:1003000000000101010000010001010100010101E3
:1003100000000000000101010001010101000001D5
:1003200000010001000001010000000000010101C6
:1003300000010101000000010001000100000101B5
:1003400001000201010200020202020202FFFFFF9D
:10035000FFFFFFFFFFFFFF3F3F3F3F3F3F3F3F3F6D
:100360003F0A0E00FEC2C202C2DE1EFE00001F10C7
:100370001616101E1E1F0000FEC2DA1AC2DE1EFE76
:1003800000001F101010101E1E1F0000FEC2DA1AFF
:10039000021E1EFE00001F101616101E1E1F00005B
:1003A000FE0E0E0E8EBE3EFE00001F1F1F1C1D1DEA
:1003B0001C1F000000000000000000000000000002
:1003C0000000000000000000FE0E6E6E0E3E3EFEBD
:1003D00000001F1F1F1C1C1C1C1F000A0E00FEBE5D
:1003E0008EB6B68EBEFE00001F1A1A1A1A1A1A1FEF
:1003F00000FFFFFFFFFFFFFFFFFFFF3F3F3F3F3FCC
:100400003F3F3F3F3F0A0E00FEEEE6E2E6EEFEFE15
:1004100000001F1D1911191D1F1F000504060909E1
:1004200009060E040406040F02040906060904095D
:100430000604040F0506070807010F060907010651
:10044000020204080F060906090603040A09060544
:1004500016EE226222E2C848D452D21D04040405DA
:1004600005051F1B1B1B1F05051F1B111B1F101440
:100470000000000000F02040802010048C4010306C
:100480000808080808FF00008041221C0808080826
:100490000000000000070201000000000000000052
:1004A0000000000000F0E0C080000000804010303C
:1004B0000808080808FFFFFFFF7F3E1C080808081F
:1004C0000000000000070301000000000000000021
:1004D0000000000000F0E0C0802010040C000000CC
:1004E0000808080808FFFFFFFF7F3E1C08080808EF
:1004F00000000000000703010000000000000000F1
:100500003EFFAB55AB55AB55AB55AB56ACF8E0E049
:100510003E7F6A556A556A556A556A351A0F030354
:100520003EFFAB55AB55AB55AB55AB56ACF8E0E029
:100530003E7F6A556A556A556A556A351A0F030334
:100540003E3F0DFB55AB55AB55AB55AB56AC78E0CC
:100550003E7E586F556A556A556A556A351A0F03BB
:100560003E3F1DFB55AB55AB55AB55AA54B8E0E02B
:100570003E7E5C6F556A556A556A552A150E03030F
:100580003C3F0CF0030DFB55AB55AB55AA54F8E0BE
:100590001E7E180760586F556A556A552A150F0355
:1005A0003E3F0CF0030DFB55AB55AB56ACF8E0E00D
:1005B0003E7E180760586F556A556A351A0F030357
:1005C00080C0C0FFAB56AC58B0E0C0C08080808017
:1005D0000001017F6A351A0D0603010100000000C9
:1005E000000000000000000000000000000000000B
:1005F00000000000000000000000000000000000FB
:1006000011098282C745C70404040808101038285D
:10061000381010000001010100000000000000007F
:10062000000000008282C745C740404020201010D3
:1006300038283810100000010101000000000000FF
:10064000000000000000061AFFBDB9B139BDFF8BE4
:10065000EBCAE98BFF36D6D2D4D6030302020202DC
:100660000513D151D55BD125A4B4ACA50304040472
:1006700004151355000100010001000100010001F3
:1006800000010001000100555500000000000000BD
:1006900000000000000000000000000055050004FC
:1006A000000400040004000400040004000400042A
:1006B000000504083E09093E3F25251A1E21211286
:1006C0003F21211E3F2525213F0505011E21293AF5
:1006D0003F04043F213F21001021211F3F040A3124
:1006E0003F2020203F02023F3F02043F1E21211EE7
:1006F0003F0909061E21112E3F0909362225251919
:10070000013F01011F20201F0F10201F3F10103F2D
:100710003B04043B03043807312D2321102A2A3CD3
:100720003F2424181C2222141824243F1C2A2A2C7B
:10073000047E05014C52523E3F040438243D200003
:100740004040443D3F081422213F20003E04043E27
:100750003E04023C1C22221C7E22221C1C22227EE1
:100760003E040204242A2A12021F22201E20201ED8
:100770000E10201E3E10103E360808364E50503ED9
:10078000322A26221E29251E223F20003229292610
:100790001221251A0C0A3F08172525191E25251890
:1007A000013905031A25251A0629291E002F0000E4
:1007B000002000000229050200000000003E5B4FFF
:1007C0005B3E3E6B4F6B3E1C3E7C3E1C183C7E3CB1
:1007D000181C577D571C1C5E7F5E1C00183C1800BF
:1007E000FFE7C3E7FF0018241800FFE7DBE7FF304F
:1007F000483A060E2629792926407F050507407FBD
:1008000005253F5A3CE73C5A7F3E1C1C08081C1C2F
:100810003E7F14227F22145F5F005F5F06097F0125
:100820007F006689956A606060606094A2FFA29410
:1008300008047E040810207E201008082A1C0808DE
:100840001C2A08081E101010100C1E0C1E0C30382C
:100850003E3830060E3E0E06000000000000005F2D
:1008600000000007000700147F147F14242A7F2A49
:10087000122313086462364956205000080703000B
:10088000001C2241000041221C002A1C7F1C2A0857
:10089000083E0808008070300008080808080000BA
:1008A00060600020100804023E5149453E00427F2E
:1008B000400072494949462141494D331814127F7D
:1008C0001027454545393C4A49493141211109071D
:1008D0003649494936464949291E0000140000009E
:1008E0004034000000081422411414141414004170
:1008F00022140802015909063E415D594E7C12112D
:10090000127C7F494949363E414141227F41414164
:100910003E7F494949417F090909013E41415173DF
:100920007F0808087F00417F41002040413F017F50
:10093000081422417F404040407F021C027F7F0418
:1009400008107F3E4141413E7F090909063E415161
:10095000215E7F09192946264949493203017F0151
:10096000033F4040403F1F2040201F3F4038403F52
:10097000631408146303047804036159494D430068
:100980007F4141410204081020004141417F04029F
:100990000102044040404040000307080020545436
:1009A00078407F2844443838444444283844442814
:1009B0007F385454541800087E090218A4A49C7867
:1009C0007F0804047800447D40002040403D007FC3
:1009D0001028440000417F40007C047804787C08A3
:1009E0000404783844444438FC1824241818242477
:1009F00018FC7C08040408485454542404043F445C
:100A0000243C4040207C1C2040201C3C4030403C8A
:100A100044281028444C9090907C4464544C4400EA
:100A2000083641000000770000004136080002014E
:100A30000204023C2623263C1EA1A161123A40403A
:100A4000207A3854545559215555794121545478B8
:100A500041215554784020545579400C1E52721251
:100A600039555555593954545459395554545800D9
:100A700000457C410002457D420001457C40F02953
:100A80002429F0F0282528F07C54554500205454A2
:100A90007C547C0A097F49324949493232484848E6
:100AA00032324A4848303A4141217A3A424020782D
:100AB000009DA0A07D39444444393D4040403D3C28
:100AC00024FF2424487E4943662B2FFC2F2BFF094B
:100AD00029F620C0887E090320545479410000443F
:100AE0007D413048484A32384040227A007A0A0A2A
:100AF000727D0D19317D2629292F2826292929269D
:100B000030484D4020380808080808080808382FE1
:100B100010C8ACBA2F102834FA00007B000008146B
:100B20002A142222142A14089500220095AA00559E
:100B300000AAAA55AA55AA000000FF00101010FF35
:100B400000141414FF001010FF00FF1010F010F03C
:100B5000141414FC001414F700FF0000FF00FF142D
:100B600014F404FC141417101F10101F101F141479
:100B7000141F00101010F0000000001F10101010C3
:100B80001F10101010F010000000FF1010101010B7
:100B900010101010FF10000000FF140000FF00FFF5
:100BA00000001F10170000FC04F414141710171491
:100BB00014F404F40000FF00F714141414141414B3
:100BC000F700F7141414171410101F101F14141426
:100BD000F4141010F010F000001F101F0000001F90
:100BE00014000000FC140000F010F01010FF10FFC3
:100BF000141414FF141010101F00000000F010FF58
:100C0000FFFFFFFFF0F0F0F0F0FFFFFF000000003B
:100C100000FFFF0F0F0F0F0F38444438447C2A2A7F
:100C20003E147E02020606027E027E0263554941A0
:100C3000633844443C04407E201E2006027E0202AB
:100C400099A5E7A5991C2A492A1C4C7201724C30BF
:100C50004A4D4D303048784830BC625A463D3E4996
:100C60004949007E0101017E2A2A2A2A2A44445F3A
:100C7000444440514A444040444A51400000FF012E
:100C800003E080FF000008086B6B0836123624363C
:100C9000060F090F060000181800000010100030A1
:100CA00040FF0101001F01011E00191D1712003C29
:100CB0003C3C3C0000000000D5F08D14A1C881CF61
:100CC000D9F1AF200031007D0000003200210090FA
:100CD0000100800B027D00000032009302F401004D
:100CE00000320000804F004100412020204F004191
:100CF0000A4200412042204F00F502F002ED02E9D5
:100D000002E502E002DC02101008FF01010101010E
:100D1000010102020418E08080087F40404040400A
:100D200040402020100C03000008FF0101010101D8
:100D3000010102020418E040C0087F4040404040EA
:100D400040402020100C030101080B0DF1010101AE
:100D500001010102020418608008685847404040C1
:100D60004040402020100C0300080B0DF101010150
:100D7000010102020418E040C008685847404040A2
:100D800040402020100C030101080B0CF0030DF172
:100D900001010102020418608008681807605847C2
:100DA0004040402020100C0300080B0CF0030DF114
:100DB000010102020418E040C008681807605847A3
:100DC00040402020100C030101808080FF020408B5
:100DD0001020C040C0808080800000007F2010086C
:100DE00004020101010000000000000000000000FA
:100DF00000000000000000000000000000000000F3
:100E00000000000000000000000508DF9F1F9FDFBA
:100E10000508FBF9F8F9FB0A0AFC0201894141893E
:100E20000102FC000102020202020201000A0AFCA5
:100E30000201498181490102FC0001020202020211
:100E4000020100517569740048656C700003051F4C
:100E50000E04496E666F0054657374004261636BE3
:100E60000006075456555556545175697400426131
:100E7000636B0A546573740A496E666F0A48656C41
:100E8000700008083C7E83EDED837E3C4C766C2040
:100E90000000FEFEFEFEFEFEFEFEFE000000000064
:100EA000000000000000000080C0E0F0F8F8FCFC4A
:100EB000FEFEFEFEFEFEFEFEFEFEFEFCFCF8F8F070
:100EC000E0C08000000000000000C0E0F0F0F8FC8E
:100ED000FCFCFEFEFEFEFEFEFEFEFEFCFCFCF8F050
:100EE000E0C0800000FEFEFCF8F2E6CE9E3E7EFEF4
:100EF000FEFEFEFEFEFEE0C080000000000080C09E
:100F0000E0FEFEFEFEFEFEFE7E3E1E000000FFFF37
:100F1000FFFFFFFFFFFFFF000000000000000000D8
:100F200000F0FCFFFFFFFFFFFFFF7F1F0F0707031E
:100F30000303030307070F1F7FFFFFFFFFFFFFFFF1
:100F4000FCF0C0FCFEFFFFFFFFFFFFFF1F0F0707C6
:100F500003E3E3E3E3E7E7E7EFEFEFE7E3E1E0E015
:100F600060FFFFFFFFFFFFFFFFFF000003071F3FC2
:100F70007FFFFFFFFFFFFCF8FCFFFFFFFFFF7F1F6E
:100F80000F070300000000000000FFFFFFFFFFFF4E
:100F90007F3F1F000000000000000000007FFFFFF7
:100FA000FFFFFFFFFFFFF0C0800000000000000017
:100FB000000080C0F0FFFFFFFFFFFFFFFF7F1FFF6C
:100FC000FFFFFFFFFFFFFFF880000000003F3F3FF3
:100FD0003F3F3F3FBFBFFFFF9F0F070100FFFFFFE6
:100FE000FFFFFFFFFFFF0000000080E0F0F8FFFFC1
:100FF000FFFFFFFFFFFFFFFFFFF8F0E080000000B2
:101000000000000000001F0F87C3E1F0F8FCFEFEA7
:10101000FEFEFEFEFEFEFEFEFEFEFFFFFF1F3F7F0A
:10102000FFFFFFFFFFFFFFFEFEFEFEFEFFFFFFFFD5
:10103000FFFFFF7F3F1F0F0701000001030F1F3F4E
:101040007FFFFFFFFFFFFFFEFEFEFEFEFEFEFFFF37
:10105000FFFFFF7F7F1F0E0000FFFFFFFFFF7FBF2F
:10106000DFEFF0FCFEFFFFFFFFFF3F1F0F07010058
:1010700001070F1F3FFFFFFFFFFFFEFCF0E0C080F6
:101080000000020303030303030303030303030337
:101090000303030303030303030000000000010133
:1010A000030303030303030303030301010000001D
:1010B000000000000000000000000000000000012F
:1010C00001030303030303030303030301010000FC
:1010D00000000000000303030100000303030303F7
:1010E00003030303030300000000000000000000EE
:1010F000000303030303030303030303007C24002F
:101100000000F8F8F8F8F800000000000000000007
:1011100000000000000000000080C0E0E0F0F0F0FF
:10112000F8F8F8F8F8F8F8F0F0F0E0E0C080000027
:101130000000000000000000000080C0C0E0F0F0EF
:10114000F0F8F8F8F8F8F8F8F0F0F0E0E0C0800017
:101150000000000000F8E0C080000008183878F8AF
:10116000F8F8E0C08000000000000000000080C02F
:10117000E0F8F8F878381800000000000000FFFFE1
:10118000FFFFFF0000000000000000000000000062
:1011900000E0F8FEFFFF3F0F070301010000000021
:1011A000000000010103070F3FFFFFFEF8E0000011
:1011B000000080F8FCFEFF7F0F0703010100000024
:1011C000008080808181838783818080000000008F
:1011D00000FFFFFFFFFF00000000000003070F3FBC
:1011E0007FFFFCF8600070F8FCFF7F3F0F070300F3
:1011F00000000000000000000000FFFF7F3F1F0014
:10120000000000000000000000000000003FFFFFA1
:10121000FFFFE08000000000000000000000000070
:1012200000000080E0FFFFFFFF3F000000000FFF15
:10123000FFFFFFF08000000000000000000F0F0F14
:101240000F0F0F0F0F0703000000000000FFFFFF4C
:10125000FFFF000000000000000080E0F0F8FDF853
:10126000700070F8FDF8F0E0800000000000000061
:101270000000000000000180C0E0F0F8F8F8F8F885
:10128000F8F8F8F8F8F8F8F8F8000003070F1F3F2F
:101290003F7E7CFCF8F8F8F8F8F8F8FC7C7E3F3FDD
:1012A0001F0F0703000000000000000001070F1FD0
:1012B0003F3F7E7CFCF8F8F8F8F8F8F8F87C7E3EC2
:1012C0003F1F0E040000000000FF7F3F1F0700804B
:1012D000C0E0F0FCFEFF3F1F0F0701000000000010
:1012E00001070F1F3FFFFEFCF0E0C0800000000080
:1012F00000000000000000000000000000000000EE
:1013000000000000000000000000000000000000DD
:1013100000000000000000000000000000000000CD
:1013200000000000000000000000000000000000BD
:1013300000000000000000000000000000000000AD
:10134000000000000000000000000000000000009D
:10135000000000000000000000000000000000008D
:10136000000000000000000000000080409191910A
:101370009193969496939090909090909090909056
:1013800090909090909090909E8282F21212121201
:1013900012929292921212129292F282020202829D
:1013A0008282820202028282FE80000000808080AF
:1013B00080000000808080800000008080808000AD
:1013C000FF000080F0888402010080F08884020120
:1013D0000080F09888040202828282820202020265
:1013E0000202020202020202020202020291919130
:1013F00091919191919191919191919191919191DD
:1014000091911111111111111111111110101010D0
:1014100010FFFFFFFF000000FFFFFFFF000000FFC5
:10142000FFFFFF000000FFFFFFFF000000FFFFFFC6
:10143000FF000000FFFFFFFF000000FFFFFFFF00B5
:10144000FF0000FFFFFFFF000000FFFFFFFF0000A5
:1014500000FFFFFFFF000000FFFFFFFF1010101054
:10146000101010101010101010101010101D372335
:10147000371D01010101010101010101010101010A
:1014800001FF00000000000000000000000000005C
:10149000000F0F0F0F0000000F0F0F0F0080C06F25
:1014A0003F0F0F0000000F0F0F0F0080C06F3F1F96
:1014B0000F0000000F0F0F0F0000000FFF0F8FC075
:1014C0007FC0800F0F0F0F0000000F0F0F0F0000E5
:1014D000000F0F0F0F0000000F0F0F0F0000000094
:1014E00000000000000000000000000000000000FC
:1014F00000000000000000000000000000000000EC
:10150000000F089E9E9E9E9E9E9E9E9E9E9E9E005C
:1015100000000000000000386C446C3E83C1603065
:10152000180808080808C8682C66C30100000000F5
:10153000000000000000000000000000FF000306A3
:10154000040603000000000000000000000000008E
:1015500000000000000000000000000000008F8F6D
:101560008F8F8F8F8F8F8F8F8F040404041212122E
:10157000121212121212121212121212121212124B
:10158000121212D7D7D7D7D7D7D7D7D7D7D7D71001
:101590001090909090909090988C86C3612060C03D
:1015A000000000000000010302030101010101012C
:1015B000010101C1612161C18181818181818181BB
:1015C000818181818181818181818181818181810B
:1015D000C1612161C101011D3722361C0000C7C74E
:1015E000C7C7C7C7C7C7C7C7C702020202C0C0C0B4
:1015F000C0C0C0C0C0C0C0C0C0C0C0C0C0C0C0604B
:10160000301808EBEBEBEBEBEBEBEBEBEBEBEB89FD
:1016100089848484848484848E9B919B8F8283813B
:1016200080808080808080808080808080808080BA
:10163000808080C1632263C18080808080808080C0
:10164000808080808080808080808080000000009A
:101650000103FE0301000000000000000000E3E3BE
:10166000E3E3E3E3E3E3E3E3E381818181808080FB
:101670008080808080808080808080C0602060C08A
:10168000000000F1F1F1F1F1F1F1F1F1F1F1F160AE
:101690003018080808080808080808080808080892
:1016A00008080808080808080808080808080808BA
:1016B000080808090B0A0B090808081C3622361C02
:1016C0000000000000000000000000FF000000001B
:1016D00000007F4040404040404040404040F1F1E9
:1016E000F1F1F1F1F1F1F1F1F10000000000000081
:1016F0000000000000000010001000110312131180
:10170000101E027A7A7A7A7A7A7A7A7A7A7A7A02EF
:10171000020202020202020202020202020202C2E9
:10172000623E68C808080808080808080808080889
:101730000808080808080808080808080808080829
:1017400008080808081C3622361C000F080008008C
:101750000800000000000000000000000000787891
:101760007878787878787878780000000029003BDD
:101770000029009C00000007002900D80000004656
:10178000053100D800000007003100D8000000C774
:10179000012500D800000007002500D8000000C780
:1017A000012900D800000007002900D800000046E9
:1017B000054100D800000007004100D8000000C724
:1017C000013100D800000007003100D8000000C738
:1017D000012900D800000007002900D800000046B9
:1017E000053100D800000007003100D8000000C714
:1017F000012500D00025000700000007002500D8C3
:10180000000000C90000000E000000F2002900DB0B
:1018100000000007002900DB0000005B054100DB41
:1018200000000007004100DB000000CE013E00DBAD
:1018300000000007003E00DB000000CE012900DBB5
:1018400000000007002900DB0000005B05008008A5
:101850000B00020202000009040000010202000065
:1018600005240010010524010101042402060524B9
:101870000600010705810310004009040100020A67
:101880000000000705020240000007058302400037
:10189000000403090412010002EF02014041233653
:1018A0008000010102030141726475696E6F204C72
:1018B0004C43006D6963726F6361646500004C2086
:1018C00011241FBECFEFDAE0DEBFCDBF11E0A0E0F4
:1018D000B1E0E2E0FDE502C005900D92A83EB1073F
:1018E000D9F728E0A8EEB1E001C01D92A931B207F6
:1018F000E1F71CE0C0E6DCE004C02197FE010E9495
:10190000792ECF35D107C9F70E948E200C947F2EF7
:101910000C940000809104020895909110019A3F68
:10192000C1F19F3FB1F126E0929FF0011124E75BE6
:10193000F84F2181263051F020911101211106C06C
:10194000993020F481E080931101089530910E01C7
:101950002BEA329F312D112436959C30D8F09B3FD5
:1019600049F52FEF230F9FEF9F5F422F440F420F48
:1019700066E0542F590F569FF0011124E75BF84F92
:1019800071817730E1F0509310013217B4F4109266
:1019900011010895929F212D11242695422F440F65
:1019A000420F941B923001F7882399F38AEF8093BA
:1019B0001001EDCF20E090E0D7CF82E0C4CF9F5F51
:1019C0009330B9F6F1CF90911001292F2B7F2B3F47
:1019D00079F026E0929FF0011124E75BF84F218116
:1019E000263039F020911101213019F410921101A3
:1019F000089530910E012BEA329F312D1124369536
:101A00009C3000F19A3F39F52FEF230F93E091506E
:101A1000422F440F420F66E0542F590F569FF0019A
:101A20001124E75BF84F71817730D9F050931001A2
:101A300082E0321724F481E023300CF080E08093C0
:101A400011010895929F212D11242695422F440FB4
:101A5000420F941BE1F6882359F28BEF809310011B
:101A6000C5CF9150C8F6F7CF2091100190910E018B
:101A70002F3F09F4292F10921101263048F423300A
:101A800060F020916E07273009F448C026E00AC0B4
:101A9000293008F44FC02F3F39F420915C072730DC
:101AA00081F123E0209310013BEA939F912D1124B3
:101AB000969520911001239F212D11242695921394
:101AC00003C02FEF2093100180FF0CC02091100164
:101AD0003BEA239F212D11242695291718F42FEF77
:101AE0002093100181FF0CC0809110012BEA829F8E
:101AF000812D11248695981718F48FEF809310018B
:101B0000089520916207273011F024E0CBCF209177
:101B10006807273009F4B5CF25E0C4CF20917407BA
:101B2000273011F027E0BECF20917A07273011F03F
:101B300028E0B8CF209180072A3011F429E0B2CFF5
:101B4000209186072A3011F42AE0ACCF20918C072F
:101B50002A3009F0A9CF2BE0A5CF20911001909158
:101B60000E012F3F09F4292F10921101293090F511
:101B7000263008F04DC02330A8F53BEA939F912D05
:101B80001124969520911001239F212D1124269533
:101B9000921303C02FEF2093100180FF0CC02091FF
:101BA00010013BEA239F212D11242695291718F4B3
:101BB0002FEF2093100181FF0CC0809110012BEAC0
:101BC000829F812D11248695981718F48FEF8093AA
:101BD000100108952C3088F620916E07273051F1BE
:101BE00026E00CC020914A07273019F0109210010E
:101BF000C4CF20915007273021F021E0209310011D
:101C0000BCCF20915607273009F4B7CF22E0F6CF9A
:101C100020915C07273011F023E0F0CF209162077C
:101C2000273011F024E0EACF209168072730D1F265
:101C300025E0E4CF30917407373001F720917A071F
:101C4000273031F328E0DACF9C01CB018770992748
:101C500091E001C0990F8A95EAF777FF02C0695FAA
:101C60007F4FFB0183E0F595E7958A95E1F7F695BF
:101C7000FE2FEE27F795E795E20FF31FEC5BFD4F84
:101C8000415030F08191DF011197892B8C93F8CF6F
:101C90000895FC0180914302882311F13FB7F89425
:101CA00082E08093E9002091F200822F90E01816E4
:101CB000190614F481E090E0882339F0289844E66E
:101CC000409342024091F1004083222339F0209159
:101CD000F200211103C02BE62093E8003FBF0895D6
:101CE0008FEF9FEF08952FB7F89483E08093E9007A
:101CF0009091E800892F807295FF04C09091F200C6
:101D000080E4891B2FBF089580913A0281110DC094
:101D100082E08093360284E0809337021092390289
:101D20001092380281E080933A0286E392E00895AF
:101D3000CF93DF931F92CDB7DEB76983DC01ED91BE
:101D4000FC910280F381E02D41E050E0BE016F5F25
:101D50007F4F09950F90DF91CF91089583E0809395
:101D6000E9008091F200882319F08AE38093E8006B
:101D700008950E94730E90E00895CF93DF931F9211
:101D8000CDB7DEB7FC018485958597FD08C02FEFA0
:101D90003FEF358724870F90DF91CF910895CE01D3
:101DA00001960E94490E019719F4898190E0F3CFC2
:101DB0008FEF9FEFF0CF0F931F93CF93DF931F927F
:101DC000CDB7DEB78C01FC018485958597FF0BC0EC
:101DD000CE0101960E94490E019771F4898190E02D
:101DE000F80195878487F801848595850F90DF91A8
:101DF000CF911F910F9108958FEF9FEFF1CFFC01CD
:101E00008485958597FD0BC09FB7F89482E08093F9
:101E1000E9008091F2009FBF90E0019608959FB77E
:101E2000F89482E08093E9008091F2009FBF90E0F7
:101E30000895409130025091310220912E0230914C
:101E40002F0242175307B4F49091E8009570E1F324
:101E50009091E80092FD19C08093F10080913002CA
:101E60009091310201968F739927892B19F48EEF87
:101E70008093E80080913002909131020196909316
:101E800031028093300281E0089580E00895DF926E
:101E9000EF92FF920F931F93CF93DF93D82E8A0177
:101EA000EB017B01E40EF51ECE15DF0559F0D7FEE0
:101EB00012C0FE0184910E94190F21968111F4CF66
:101EC0000FEF1FEFC801DF91CF911F910F91FF908E
:101ED000EF90DF9008958881EECF0F931F93CF93FB
:101EE000DF931F92CDB7DEB782E0898342E450E0F2
:101EF0006FE478E180E80E94470F0E94840EDC01C5
:101F000012960D911C910115110589F0D801ED91E2
:101F1000FC910280F381E02DBE016F5F7F4FC8010D
:101F2000099597FD04C0F80100851185ECCF8981E2
:101F30000F90DF91CF911F910F910895615030F074
:101F40002091F100FC0120830196F8CF289884E6C7
:101F5000809342020895AF92BF92CF92DF92EF92A8
:101F6000FF920F931F93CF93DF936C017B018B0143
:101F7000040F151FEB015E01AE18BF08C017D10793
:101F800059F06991D601ED91FC910190F081E02D1D
:101F9000C6010995892B79F7C501DF91CF911F9172
:101FA0000F91FF90EF90DF90CF90BF90AF9008958A
:101FB000FC010E946F10319728F068517C4F8F4FC1
:101FC0009F4FF9CFAB01FC010E946F10641775079A
:101FD0008E079F07C8F308958F929F92AF92BF928A
:101FE000CF92DF92EF92FF920F931F93CF93DF93E5
:101FF0006C017B018A0180910D01882309F45AC08C
:1020000080914302882309F455C08091350280FFF6
:1020100005C08091E00082608093E000E801B12C6F
:102020008AEFA82E93E0892E2AE3922E209711F4AE
:10203000BB20C9F10E94730E811108C0AA94AA2086
:10204000C9F181E090E00E94D80FF0CF8C171D06F7
:1020500011F00CF08C2F9FB7F8948092E90020913A
:10206000E80025FD02C09FBFE1CF282F30E0C21B52
:10207000D30BF701815020F041914093F100FACF4A
:10208000E20EF31EBB2021F09092E800B12CEBCFC2
:102090008091E80085FDE7CF9092E800BB24B394DF
:1020A000209709F3F3CF5D9884E6809334021016ED
:1020B00011063CF081E090E0F6019383828310E00A
:1020C00000E0C801DF91CF911F910F91FF90EF9039
:1020D000DF90CF90BF90AF909F908F900895AFEF1B
:1020E000B1E02FB7F8947D918D919C9166B52FBF8B
:1020F000A89B05C06F3F18F47F5F8F4F9F4F22E072
:10210000660F771F881F991F2A95D1F70895209190
:102110002702E0912502F0912602CF0102969093CA
:10212000260280932502222319F085919491089527
:10213000808191810895E1E7F0E080818D7F808347
:1021400010929100469847981092F6010895CF9208
:10215000DF92EF92FF92CF93DF930E948710811559
:1021600020E8920741F4DF91CF91FF90EF90DF904C
:10217000CF900C949B1021E02093F601813020E851
:10218000920751F4809123029091240290932602A9
:10219000809325020E94871097FD05C02091F501CC
:1021A000222309F45BC02091F401211157C021E0E2
:1021B0002093F701EC01DF77209709F052C081E00E
:1021C0008093F80146983FE9C32E3FE0D32EE12CDF
:1021D000F12CCAEFD0E0E0910608F09107080995CC
:1021E000811103C081E08093F8018091F701882379
:1021F00029F08091F801882309F446C047980E948D
:102200008710009709F444C09C01DE010E94362E1D
:10221000DC01CB0129E0B595A795979587952A957F
:10222000D1F7109290002AE020939100D09299006B
:10223000C09298008093F9019093FA01A093FB015A
:10224000B093FC0180917100826080937100DF91F6
:10225000CF91FF90EF90DF90CF9008951092F7010B
:10226000A9CF9E0150E040E060E472E48FE090E08E
:102270000E94E22D69017A0181E0C81AD108E108C3
:10228000F1081092F801A7CF4699B8CF479AB7CF77
:102290008FEF9FEFDC01C5CF6F927F928F929F925D
:1022A000AF92BF92CF92DF92EF92FF920F931F9364
:1022B000CF93DF934C01CB013A017C2DFA0164915D
:1022C00031965491F2E06F0E711CC62FD0E02111AF
:1022D00002C0EE2009F1E1E0F0E0352F377011F493
:1022E000F0E0E0E0A52FA695A695A695AE0FBF2F2E
:1022F000B11DAC9FF001AD9FF00DBC9FF00D1124FE
:10230000733009F08BC0EE0FFF1F2E9FD0012F9F5F
:10231000B00D11246A0E7B1ED401AC0FBD1F1A161E
:102320001B060CF06CC020E8821691040CF067C00C
:102330009C01250F311D121613060CF060C080346D
:1023400091050CF05CC06114710409F458C0382F79
:102350003770FC0197FD379623E0F595E7952A95B0
:10236000E1F72E2F97FF04C0332311F02FEF2E0F2C
:10237000EE27FF27E819F90997FC02C0F0E0E0E03A
:1023800090E89819A038B1050CF4962F9E1BA22F47
:10239000022E000CBB0B4A2F40952F3F0CF040E063
:1023A000DD24D394852F877009F4D12C569556954A
:1023B0005695D50EAD0DB11D19971CF058E0D52ED0
:1023C000D21AD41A240F50E82503D0011124A80DE5
:1023D000B91DAE0FBF1F649FE00DF11D11246E0EDD
:1023E0007F1EE32E032E000CFF08733009F423C177
:1023F00008F5713009F4D6C0723009F484C0DF9159
:10240000CF911F910F91FF90EF90DF90CF90BF90F1
:10241000AF909F908F907F906F9008950115110558
:1024200009F473CFEE9ED001EF9EB00D11240A0F78
:102430001B1F6BCF7A3FB1F10D2D020F7B3FF9F6D9
:102440002017E9F2BD016C5B7D4FD12CC12CC91660
:1024500008F0A2C0F301EC0DFD1DE491F0E0AF0126
:102460000E2C02C0440F551F0A94E2F727FD06C048
:10247000FB018081142F109581238083332361F029
:10248000273054F45B01F0E8AF0EB11C452F4095A6
:10249000F501808184238083FFEFCF1ADF0A6F5F0D
:1024A0007F4FD5CF0D2D020F201709F4A8CFBD0106
:1024B0006C5B7D4FD12CC12CC91608F067C0F301AD
:1024C000EC0DFD1DE491F0E0AF010E2C02C0440FB5
:1024D000551F0A94E2F727FD04C0FB018081842B7D
:1024E0008083332351F0273044F45B01F0E8AF0ED2
:1024F000B11CF5018081852B8083FFEFCF1ADF0AA5
:102500006F5F7F4FD9CF6FEF70E0032E02C0660F71
:10251000771F0A94E2F760957095972E8D2C820EA6
:10252000281509F46CCF8D010C5B1D4FD12CC12CEB
:10253000C91630F5F301EC0DFD1DE491F0E0AF019B
:102540000E2C02C0440F551F0A94E2F727FD05C068
:10255000F80180818623842B8083332359F0273030
:102560004CF45801F0E8AF0EB11CF50180818921CF
:10257000852B8083FFEFCF1ADF0A0F5F1F4FD8CF65
:102580002F5F6C0E7D1EA058BF4FCACF2F5F6C0E01
:102590007D1EA058BF4F88CF2F5F6C0E7D1EA058A8
:1025A000BF4F4ECF0E0F1F1F8D2D820F281709F41E
:1025B00026CFBD016C5B7D4FD12CC12CC91698F57F
:1025C000F801EC0DFD1DA490B12C0E2C02C0AA0C3C
:1025D000BB1C0A94E2F7A094B094F301EC0DFD1D2E
:1025E0008490912C0E2C02C0880C991C0A94E2F75E
:1025F00027FD08C0FB014081E42FEA214E2F482926
:10260000FB014083332349F027303CF4FB01E058C1
:10261000FF4FA080BA20B928B082FFEFCF1ADF0A9F
:102620006F5F7F4FCBCF2F5F6C0E7D1E0C0F1D1F7A
:10263000A058BF4FBBCFE92EF12CE60DF71DAC5BC8
:10264000BD4F60E870E06E197F09CE19DF09AE0159
:10265000440F551FC1E0D0E07E01032E01C0EE0CF7
:102660000A94EAF7192F0D2D892E932ECF93DF931D
:10267000ED01EF96EF962296A590C590992059F01E
:10268000AE9C5001CE9C600127302CF4F880D09491
:10269000FD20FB28F99222233AF0FC90C094FC2004
:1026A000FA28FD920C94551311961A9529F70A955C
:1026B00051F0182D23951124E40FF11DA60FB11D23
:1026C000C60FD11DD9CFDF91CF91112498CECF92D3
:1026D000EF920F931F933AEFC32EE12C10E000E02E
:1026E0000E944C111F910F91EF90CF900895CF92BF
:1026F000EF920F931F9332E0C32EE12C10E000E025
:102700000E944C111F910F91EF90CF90089590E08F
:102710000C94D80F8FB18095807F669B88601C9B3E
:1027200084600895962F942B982B19F44FEF6FEF38
:102730008FEF93E294BD609568BD91EF9093800018
:102740004093880080938A000895909128029823EE
:1027500029F090912902982381E009F080E0089502
:1027600090912802982329F490912902982381E0DE
:1027700009F480E00895CF93C82F0E948A13982F00
:102780009C2381E09C1380E0CF91089580389105CF
:10279000B8F460347105A0F490E121E061FD24E01B
:1027A00060FD220F62FD2295687F969FD001112463
:1027B000A80FAC5BBD4F0C90022A40FF02260C9282
:1027C0000895FF920F931F93CF93DF93C82FD62FB7
:1027D000F22E681710F4C62FD82F042F10E0DC1744
:1027E00040F04F2DB8018C2F90E00E94C613CE5FB1
:1027F000F6CFDF91CF911F910F91FF900895FF9237
:102800000F931F93CF93DF93C82FD62FF22E681705
:1028100010F4C62FD82F042F10E0DC1740F06C2FD7
:1028200070E04F2DC8010E94C613CE5FF6CFDF9136
:10283000CF911F910F91FF9008952F923F924F9249
:102840005F926F927F928F929F92AF92BF92CF9240
:10285000DF92EF92FF920F931F93CF93DF93EC01E0
:102860008B017A016901C61AD70AD7FE03C0D19439
:10287000C194D10847018C1A9D0A97FE03C0919418
:10288000819491088C149D0454F49E2D8F2D790110
:10289000292F382F9C2F8D2FE801092F182FEC1688
:1028A000FD0654F4902F812F8901292F382F9C2F5A
:1028B0008D2FE701E92EF82E17012C1A3D0A290168
:1028C000401A510A57FE03C05194419451083101F6
:1028D00037FE03C08FEF681A780A759467948FEFFC
:1028E000021713070CF481E0A82E880FBB08EC1622
:1028F000FD06A4F041E0BE01C8018C149D0414F053
:10290000B801CE010E94C6136418750877FE04C092
:102910000A0D1B1D620C731C2196E9CFDF91CF912C
:102920001F910F91FF90EF90DF90CF90BF90AF90ED
:102930009F908F907F906F905F904F903F902F90DF
:102940000895DF92EF92FF920F931F93CF93DF933F
:102950007C01EB01D22E8B01040F111DC801013443
:10296000110514F080E490E0C817D9073CF44D2D10
:10297000BE01C7010E94C6132196F0CFDF91CF910F
:102980001F910F91FF90EF90DF900895EF92FF92CB
:102990000F931F93CF93DF937C018B01C42FD22F12
:1029A0000E94240EB8016D0F711D615071094C2FEA
:1029B000C7010E94240E21E04D2FB801C7010E94DB
:1029C000A114C7018C0F911D21E04D2FB801019773
:1029D000DF91CF911F910F91FF90EF900C94A11474
:1029E000CF92DF92EF92FF920F931F93CF93DF93DB
:1029F0006B01122FEC017C01E40EF11CCE15DF05FA
:102A000044F4202F412FB601CE010E94A11421963B
:102A1000F5CFDF91CF911F910F91FF90EF90DF9055
:102A2000CF9008956F927F928F929F92AF92BF92B4
:102A3000CF92DF92EF92FF920F931F93CF93DF938A
:102A40006A3039F5DC0116962C9116974091F20107
:102A50005091F301240F352F311D3093F301209352
:102A6000F20114968C9190E09093F1018093F00123
:102A700081E090E0DF91CF911F910F91FF90EF9057
:102A8000DF90CF90BF90AF909F908F907F906F908E
:102A900008956D3069F38C01C090F201D090F3017C
:102AA000E090F001F090F101B5E06B9FE00111249E
:102AB000C854D84F4701712CE5E0612C7E1629F0EF
:102AC000CE010196FE016490EC01B12CA12C462DA3
:102AD0004170B6016A0D7B1DC4010E94C613669445
:102AE000FFEFAF1ABF0A88E0A816B10481F773940C
:102AF000AFEF8A1A9A0AB6E07B12DECFE6E0EE0E5E
:102B0000F11CF092F101E092F00180910302882320
:102B100009F4AECFD80115968C9115978650990B74
:102B20008E159F050CF0A4CFED91FC910190F081E2
:102B3000E02D6AE0C80109959BCFCF92EF920F93E9
:102B40001F93CF93DF93EC019E816A3071F48D81E6
:102B50008C836985960F9E8381E090E0DF91CF9111
:102B60001F910F91EF90CF900895262F6F3361F151
:102B700008F56E3279F140F4613251F198859C5F2D
:102B80008C81890F8C83E8CF80ED860F2C5F8A3093
:102B9000A8F761E0690F062E000C770B8C81082ED8
:102BA000000C990B3F813130B9F442EB56E00E94A2
:102BB0006713E4CF613410F36B3540F08FE9860F73
:102BC00027548A3130F3DACF20E4E3CF2154E1CF28
:102BD0002EE3DFCF2FE3DDCF3BEFC32EE12C10E060
:102BE00000E042EB56E00E944C11C8CF0F931F93B8
:102BF000CF93DF938C01D0E0C0E0F801EC0FFD1F14
:102C00006491662341F088E098E00E949D15892B2D
:102C100011F02196F2CFCE01DF91CF911F910F914C
:102C20000895089590E080E008951F93CF93DF9377
:102C3000C82FDFE3D81BC03288F41C2F117020E0AE
:102C40004C2F60E8812F0E94E11320E04D2F60E8B7
:102C5000812F0E94E113CF5FD150EDCFDF91CF9153
:102C60001F910895EBEA8E9FE12D1124E695E43043
:102C700028F4F0E0EA5DFE4F808108958FEF08951B
:102C8000FC018081883030F08A3068F4883051F45B
:102C900089E003C0811103C087E0808303C09FEFF8
:102CA000980F908380810895FC018081883038F0EE
:102CB0008A3048F4893031F488E0808303C087305B
:102CC00019F410828081089591E0980F9083FACFD3
:102CD000DC011196EC911197E63021F148F0E930D2
:102CE00031F1EA3039F1E830D9F414968C91089535
:102CF00014968C911497811182E015969C91890FFE
:102D00009CE0E99FE02D1124F0E093E0899FE00D25
:102D1000F11D1124E550FD4FE49181E0E13009F00F
:102D200080E0089514968C9191E089270895159676
:102D30008C91089514969C91149715968C91892BDB
:102D400008957F928F929F92AF92BF92CF92DF921F
:102D5000EF92FF920F931F93CF93DF936C017C014F
:102D600010E086E0782EF7018181A12CB12C87300C
:102D700009F450C0C4E4D6E0A12CB12C2C81998177
:102D80002223C9F08A81811316C081E03B81311171
:102D900080E041E09B3F09F040E0842309F052C00D
:102DA00081E0313009F080E031E09B3F09F030E014
:102DB000832309F0A82E86E0890F823028F146018E
:102DC000979D800C911C1124222369F08A81811324
:102DD0000AC001E08B81811100E0C4010E946816E5
:102DE000802309F0B82E8C81882371F08A818113A9
:102DF0000BC001E08B81813009F000E0C4010E942A
:102E00006816802309F0A82E2D96F7E0C834DF0756
:102E100009F0B4CFF701B482A5821F5FF6E0EF0E90
:102E2000F11C1C3009F09FCFDF91CF911F910F91C2
:102E3000FF90EF90DF90CF90BF90AF909F908F90DA
:102E40007F900895B82EACCFFC01148215821682B3
:102E500017821086118612861386148608950F93A2
:102E60001F93CF93DF93E82FF0E0EE0FFF1FE65D97
:102E7000FE4F408151818F5F80934807A8E4B7E0FF
:102E800030E020E0FA01E20FF31FE49111962C9359
:102E900011971296EC931297233008F461C081E0E9
:102EA000E73009F080E014968C9314972F5F3F4F22
:102EB00016962C30310531F7FA013C96E491E093F7
:102EC0009107CA010D96A2E9B7E0FC012491422FB7
:102ED00050E034E0559547953A95E1F74C932F70C3
:102EE00013962C9313973196E4912E2F30E044E003
:102EF000359527954A95E1F711962C931197EF7028
:102F00001496EC931497FC013296E4912E2F30E046
:102F100054E0359527955A95E1F712962C93129720
:102F2000EF701596EC93159703961796F7E0A73A6E
:102F3000BF0759F6C4E4D6E008E417E0CE010E94CA
:102F400024172D960C171D07C9F783E080932D02D7
:102F500088E280932C02DF91CF911F910F91089509
:102F600081E0A1CF8F929F92AF92BF920F931F9358
:102F7000CF93DF93CDB7DEB7A1970FB6F894DEBF3E
:102F80000FBECDBF19A2423008F44AE08E010F5D9A
:102F90001F4F842E912CB12CA12CA50194010E94CD
:102FA000142EE62FB901CA01EA3044F5E05DD801DC
:102FB000EE938D01232B242B252B79F790E080E0D5
:102FC000109769F0FD0101900020E9F73197AF01FA
:102FD0004A1B5B0BBD0188E098E00E94AB0FA196F5
:102FE0000FB6F894DEBF0FBECDBFDF91CF911F911A
:102FF0000F91BF90AF909F908F900895E95CD7CFCD
:10300000FC0101900020E9F73197AF01481B590BF3
:10301000BC0188E098E00C94AB0FCF92EF92FF9246
:103020000F931F93CF93DF93CDB7DEB760970FB6A3
:10303000F894DEBF0FBECDBF8091160190911701AD
:10304000A0911801B09119018D879E87AF87B88B29
:103050008CE0EAE1F1E0DE01119601900D928A9593
:10306000E1F7E0910E01EC3008F45CC2EC3009F4B9
:103070007AC204E416E088E4E82E87E0F82EF8012E
:103080008481882361F18581882359F04781442315
:1030900041F0208530E050E0668170E090E00E94D1
:1030A0001D14F8018781882359F04185442341F09C
:1030B000228530E050E0608570E090E00E941D14B1
:1030C000F8018185882359F04385442341F0248504
:1030D00030E050E0628570E090E00E941D14035FD4
:1030E0001F4FE016F10659F680911F0290912002C1
:1030F0008F71992711E0409708F010E04091150278
:10310000442369F080911702882349F0481307C0CF
:10311000212F60911802809116020E94FF13809166
:103120001502882369F060911702662349F04091E7
:10313000160290911802491303C0212F0E94E11337
:1031400040911702442369F080911902882349F0C5
:10315000481307C0212F60911A02809118020E9423
:10316000FF1380911702882369F06091190266238A
:1031700049F04091180290911A02491303C0212F7F
:103180000E94E11340911902442369F080911B02CF
:10319000882349F0481307C0212F60911C028091B9
:1031A0001A020E94FF1380911902882369F060912E
:1031B0001B02662349F040911A0290911C024913A8
:1031C00003C0212F0E94E11320914A07285022308A
:1031D00040F440E056E068E070E08DE090E00E944E
:1031E0006713209150072850223040F440E056E009
:1031F0006AE170E08DE090E00E946713209156072D
:103200002850223040F440E056E06CE270E08DE05F
:1032100090E00E94671320915C07CC24C394E22EB7
:1032200000E015E047E05DE067E070E08AE290E0F2
:103230000E944C1120916207E22E47E05DE069E1B7
:1032400070E08AE290E00E944C1120916807E22E23
:1032500047E05DE06BE270E08AE290E00E944C1192
:1032600020916E07E22E47E05DE065E070E086E4C5
:1032700090E00E944C1120917407E22E47E05DE03F
:1032800067E170E086E490E00E944C1120917A079B
:10329000E22E47E05DE069E270E086E490E00E94A3
:1032A0004C11809180078A3069F58FE797E00E9482
:1032B000681620E0882351F080911F02909120022F
:1032C0008F71992721E0409708F022E04EE654E004
:1032D00063E070E081E690E00E9467132EE030E04A
:1032E00046E750E06EE070E081E790E00E941D1438
:1032F0002FE330E046E750E06EE070E086E790E0D4
:103300000E941D14809186078A3069F585E897E050
:103310000E94681620E0882351F080911F0290914E
:1033200020028F71992721E0409708F022E04EE6B5
:1033300054E065E170E081E690E00E94671320E2CE
:1033400030E046E750E060E270E081E790E00E9404
:103350001D142FE330E046E750E060E270E086E7BE
:1033600090E00E941D1480918C078A3069F58BE8EB
:1033700097E00E94681620E0882351F080911F0298
:10338000909120028F71992721E0409708F022E068
:103390004EE654E067E270E081E690E00E94671339
:1033A00022E330E046E750E062E370E081E790E03E
:1033B0000E941D142FE330E046E750E062E370E026
:1033C00086E790E00E941D1430E020E046E750E0E0
:1033D00070E060E090E080E00E941D1427E330E0A0
:1033E00050E040E065E070E090E080E00E941D1455
:1033F0002AE330E044E050E067E070E084E090E0F1
:103400000E941D142FE330E046E750E06FE370E0C8
:1034100090E080E00E941D1421E048E76FE380E027
:103420000E94FF1320E047E654E070E060E090E087
:1034300080E00E94671320E040E654E06AE370E019
:1034400090E080E00E94671380911E02F0901D02C0
:10345000811196C0F110ABC020E04FE454E070E061
:1034600060E08BE790E00E947713809148071AE0B4
:10347000612F0E94452E282F4BE154E068E170E057
:103480008BE790E00E94771380914807612F0E949C
:10349000452E292F4BE154E06DE170E08BE790E081
:1034A0000E9477138091A707882309F406C18091B1
:1034B0002D02843009F001C180912A0200E028E148
:1034C0008A3109F0A4C046E564E170E08FE090E045
:1034D0000E94F01421E047E164E682E10E94E113DA
:1034E00021E046E264E682E10E94E11385E18093F7
:1034F0000D0880930C088BE180930E0881E0809387
:103500000F0888E991E060960FB6F894DEBF0FBE11
:10351000CDBFDF91CF911F910F91FF90EF90CF9092
:103520000C940018A1E0B0E0AC0FBD1FAE0FB11DB0
:103530006C9170E08BEAE89FE12D1124E695EC0F89
:10354000FD2FF11D858520E041E756E090E00E94C7
:10355000671320E040E656E06CE270E08BE790E015
:103560000E94771386CD80912D02843009F081CDA1
:1035700020E046E456E066E270E08AE790E0F0CFB3
:103580008130B1F580910E01893070F4CC24C39460
:10359000E12C01EF13E020E045E054E06FEF7FEF16
:1035A00087E790E00E944C11FF2009F47BCFE09167
:1035B0000E01EC3008F076CF20910F0186E0E89FF5
:1035C000F0011124E85BF84F8281863011F08A30D7
:1035D00009F42D5FCC24C394E12C0DE413E041E603
:1035E00053E06FEF7FEF87E790E00E944C115ACFD6
:1035F0008230D1F680910E018930B0F6CC24C3948C
:10360000E12C01EF13E020E04BED53E0C7CF42E5A2
:1036100064E170E081E190E00E94F01421E047E174
:1036200060E684E10E94E11321E047E260E684E184
:103630000E94E11386E180930D0880930C088BE1D2
:1036400080930E0811E010930F0889EA91E00E9420
:10365000001880910101882349F101E028E046E04B
:103660006BE170E081E590E00E94F01410920F0889
:1036700086EB91E00E9400188AE580930D08809304
:103680000C088BE180930E0880910101811111C01B
:1036900001E028E046E06BE170E089E590E00E94FF
:1036A000F01410920F0888EB91E02DCF10930F08C3
:1036B000DFCF81E080930F08F6CF60960FB6F894C5
:1036C000DEBF0FBECDBFDF91CF911F910F91FF9055
:1036D000EF90CF900895682F70E090E080E04AE08E
:1036E0000C94B217BF92CF92DF92EF92FF920F939A
:1036F0001F93CF93DF93082FE62EF12C8BE0D82E6B
:10370000D60E17E094E2C92EC60E2CE0B22EB60EED
:1037100080919107F81608F0ABC0823009F493C08D
:1037200080E0800F80930D0880930C08E0920E08D3
:103730008AEB91E00E94001880919107823009F491
:1037400084C080E0800F80930D0880930C08D09295
:103750000E08CF2DD0E01C9FF0011D9FF00D11240D
:10376000EE56F84F8081823008F071C00E946B1BCA
:1037700085EE91E00E9400181C9FF0011D9FF00D46
:103780001124EB56F84F8081823010F40E946B1B9D
:103790008EEB91E00E9400181C9FF0011D9FF00D20
:1037A0001124ED56F84F8081823008F055C00E94F8
:1037B0006B1B85EE91E00E9400181C9FF0011D9F7D
:1037C000F00D1124EA56F84F8081823010F40E94E7
:1037D0006B1B8EEB91E00E9400181C9FF0011D9F57
:1037E000F00D1124EC56F84F80818230D0F50E9404
:1037F0006B1B85EE91E00E9400181C9FF0011D9F3D
:10380000F00D1124E956F84F8081823010F40E94A7
:103810006B1B8EEB91E00E94001880919107482F5E
:103820004150550BC417D5075CF48230F9F080E0A5
:1038300043E1400F480F21E06C2D8B2D0E94FF13B8
:10384000F394075E65CF8CE06CCF8CE07BCF85EE88
:1038500091E00E9400188CCF85EE91E00E94001844
:10386000A8CF85EE91E00E940018C3CF8CE0E0CF96
:10387000DF91CF911F910F91FF90EF90DF90CF904C
:10388000BF900895CF93DF93EC01E88181E08E0F24
:103890008883F0E0E750FD4F84910E946B1B85EE1A
:1038A00091E00E940018E88181E08E0F8883F0E0AB
:1038B000E750FD4F8491823090F40E946B1B85EE9F
:1038C00091E00E940018E88181E08E0F8883F0E08B
:1038D000E750FD4F8491DF91CF910C946B1B85EEE7
:1038E00091E00E940018EBCFBC01990F880B990B57
:1038F0004AE00C94B217FF920F931F93CF93DF937C
:10390000EC01F62E08811981C8010E94BA2DF81623
:1039100021F06F2DC8010E94D42DCE01DF91CF91EF
:103920001F910F91FF9008950F931F93CF93DF93F3
:1039300000D0CDB7DEB7082F80EA91E00E94BA2D03
:10394000182F81EA91E00E94BA2D011104C01C34A5
:1039500011F48835D9F080EA91E09A8389836CE488
:10396000CE0101960E947B1C81EA91E09A838983B3
:1039700068E5CE0101960E947B1C82EA91E09A8361
:10398000898360E0CE0101960E947B1C0F900F900E
:10399000DF91CF911F910F9108951F920F920FB653
:1039A0000F9211248F939F938091E1009091E100F9
:1039B000937F9093E10083FF0FC01092E90091E0A4
:1039C0009093EB001092EC0092E39093ED00109234
:1039D000430298E09093F00082FF22C093E090931E
:1039E000E9009091F200992319F09AE39093E8008E
:1039F00090913402992341F0909134029150909328
:103A00003402911101C05D9A90914202992341F0D4
:103A100090914202915090934202911101C0289AD4
:103A200084FF18C08091E2008E7E81608093E20066
:103A30008091E1008F7E8093E100809135028E7E3F
:103A40008061809335029F918F910F900FBE0F90F0
:103A50001F90189580FFF7CF8091E2008E7E8061E5
:103A60008093E2008091E1008E7E8093E10080915E
:103A700035028E7E8160E5CF1F920F920FB60F92B6
:103A80001124CF92DF92EF92FF920F931F932F9307
:103A90003F934F935F936F937F938F939F93AF93D6
:103AA000BF93EF93FF93CF93DF93CDB7DEB76C97C0
:103AB000DEBFCDBF1092E9008091E80083FF25C0F2
:103AC00068E0CE0145960E949E0F82EF8093E80049
:103AD0008D8987FF39C09091E80090FFFCCF982F27
:103AE000907609F034C19E894F89588D2F89F88CC2
:103AF000911131C0803861F5809133028093F100DB
:103B00001092F1008EEF8093E8006C960FB6F89457
:103B1000DEBF0FBECDBFDF91CF91FF91EF91BF917F
:103B2000AF919F918F917F916F915F914F913F9155
:103B30002F911F910F91FF90EF90DF90CF900F90FA
:103B40000FBE0F901F9018959EEF9093E800C7CF7F
:103B50001092F100D5CF913059F48111D3CF41307B
:103B6000510581F6809133028D7F80933302CACF55
:103B7000933049F48111C6CF4130510519F6809137
:103B800033028260F2CF953041F48091E80080FFEB
:103B9000FCCF20682093E300B5CF963009F0A9C090
:103BA0000B8D1C8D22E01092E900109231021092D0
:103BB0003002F2122EC010922F0210922E020E949A
:103BC0006D0F1F8299E09983FA8291E09E8390EABB
:103BD00098879AEF99872091300230913102275FC0
:103BE0003F4F3C832B838D831092E900109231026A
:103BF0001092300210932F0200932E0249E050E001
:103C0000BE016F5F7F4F80E00E94470F0E946D0FE3
:103C100079CF10932F0200932E020E94840EDC01B4
:103C200012960D911C910115110509F451C1D8018D
:103C3000ED91FC910480F581E02DBE016B5E7F4F1C
:103C4000C8010995009709F03EC1F801008511856A
:103C5000EACFF3E0FF120EC08F89882309F440C039
:103C6000823061F440E869E083EB98E10E9419201A
:103C7000811148CF81E28093EB0047CF813029F456
:103C800040E86BE087EA98E1F1CF833099F70E9432
:103C9000840EDC011296ED90FC908E010F5F1F4F99
:103CA0006801E114F10479F0D701ED91FC910680EF
:103CB000F781E02DB801C7010995080F111DF70123
:103CC000E084F184EECFD8011C92F601019000202F
:103CD000E9F73197BF016C197D0940E0C601C6CFF5
:103CE00061E978E1FB01449150E080E80E94470FD0
:103CF00009CF973009F4BECF983021F481E080934A
:103D0000F10000CF993009F0FDCE837009F0B2CFF9
:103D1000E8E6F1E081E031E096E32191222371F0C1
:103D20008093E9003093EB00DF0111972C912093F1
:103D3000EC009093ED008F5F873079F78EE78093EA
:103D4000EA001092EA008F8980934302DBCE8B8DCC
:103D50009C8D1092E90010923102109230029093E3
:103D60002F0280932E02898D811192C08E899D89A8
:103D7000913A49F4813209F07DCF47E050E066E0A6
:103D800071E080E0B3CF913209F074CF833269F4EF
:103D90008F89988DB0E0A0E0809302019093030199
:103DA000A0930401B0930501ADCE803269F48091F7
:103DB000E80082FFFCCF67E086E091E00E949E0F62
:103DC0008BEF8093E8009ECE823209F09BCE8F89E4
:103DD00080930D01EEEFFFE7859194918B3F9C4D11
:103DE00051F1E0E0F8E08091060190910701A09187
:103DF0000801B0910901803B9440A105B105F1F49F
:103E000080910D0180FD1AC0EE3F8AE0F80789F528
:103E100087E797E7918380838091600080933202E7
:103E200088E19BE00FB6F894A895809360000FBEE0
:103E30009093600067CEEEEFFAE0D5CF808191815C
:103E40008737974709F05ECEA8958091600088611A
:103E5000809360008091320280936000EE3F2AE000
:103E6000F20789F08091FE0A9091FF0A9183808386
:103E700049CE808191818737980751F29093FF0A4C
:103E80008093FE0AC5CF1092FF0A1092FE0A3ACE26
:103E90000E94840EDC0112960D911C9101151105F2
:103EA00009F4E8CED801ED91FC910190F081E02D6C
:103EB000BE016B5E7F4FC8010995811123CEF801C9
:103EC00000851185EBCF181619060CF41BCED2CE47
:103ED000F1E0FF12BECE65E978E104CF0F920FB694
:103EE0008F939F93EF93FF938091FE018D5F8D37AA
:103EF00008F08D578093FE01E7E0F2E080818E4F5D
:103F0000808391819F4F918382818F4F82838381B0
:103F10008F4F8383EFEFF1E080818F5F808381811A
:103F20008F4F818382818F4F828383818F4F8383E1
:103F30008FB18F6066991C9B88278F3681F48091A2
:103F4000FD01981B963068F0E0E0F8E087E7808399
:103F5000818388E180936000F0936000FFCF9093AD
:103F6000FD01FF91EF919F918F910FBE0F901895DA
:103F70001F920F920FB60F9211242F933F934F93DE
:103F80005F936F937F938F939F93AF93BF93EF93C1
:103F9000FF938091F9019091FA01A091FB01B091FA
:103FA000FC01892B8A2B8B2B09F440C08091F801EE
:103FB00081110BC088B190E4892788B98091F701FD
:103FC000882319F088B1805888B98091F9019091BF
:103FD000FA01A091FB01B091FC01181619061A060E
:103FE0001B069CF48091F9019091FA01A091FB01CC
:103FF000B091FC010197A109B1098093F901909357
:10400000FA01A093FB01B093FC01FF91EF91BF91E6
:10401000AF919F918F917F916F915F914F913F9160
:104020002F910F900FBE0F901F9018950E94A71010
:10403000ECCFEF92FF920F931F93CF93DF93F82E65
:10404000192FE62E042F81E0860F880F0E94190F8A
:1040500083E00E94190FCF2DD12FEC0EFD2EF11C05
:10406000CE15DF05B9F007FF13C0FE0184910E9451
:10407000190F182F80E00E94190F812321968111BA
:10408000EFCFDF91CF911F910F91FF90EF900895A7
:104090008881EDCF81E0F5CFE8EAF7E01382128264
:1040A00088EE93E0A0E0B0E084839583A683B78395
:1040B00082E791E0918380838FEF9FEF95878487DC
:1040C000E2E1F8E01382128280E991E0918380833B
:1040D000148280E885838CE086838AE89CE0909354
:1040E00007088093060880E090E890930508809385
:1040F000040846983E9A47983F9AE8E0F8E0138211
:10410000128284E891E09183808389E0818781E055
:1041100080871582168214828783089500D0CDB7D8
:10412000DEB7789483E084BD83E085BD81E0809331
:104130006E00E1E8F0E083E08083E0E881E08083E6
:10414000E1E983E08083E0E981E08083E1EC87E0DE
:104150008083E3EC81E08083E0EC82E08083E2EC2A
:1041600081E08083EAE787E0808380688083109223
:10417000430210923302109235028091D700816081
:104180008093D70080EA8093D80089B5806189BD8B
:1041900089B5826089BD09B400FEFDCF81E090E061
:1041A0000E94D80F8091D8008F7C80618093D800C6
:1041B0008091E000807F8093E0008091E1008E7E1E
:1041C0008093E1008DE08093E200559A209A81EC83
:1041D00080937C0081E185B987E684B984E38BB95B
:1041E0008FE38AB9769A6E9880EF81BB10BA80E52A
:1041F0008CBD81E08DBD85E00E948713599A85E0D2
:104200000E9487135C98E8EBFCE085918EBD00006E
:104210000DB407FEFDCFE53CC1F75C9A81E88093C1
:10422000640081E08093650080E10E94BB138823D5
:10423000A9F05C9885EA8EBD00000DB407FEFDCFA5
:104240005C9A2E9858982D98809164008062809393
:10425000640081E083BF889513BEFCCF84E00E9498
:10426000BB138823C9F12E9A589A2D9884E10E9495
:10427000BB138823A1F02D9A88EC0E9487135898CD
:104280006FEF82E090E00E94C22D84EF91E00E94E7
:10429000D80F589A84E10E94BB138111FBCF84E8A8
:1042A0000E94BB138823A1F02D9A88EC0E948713EB
:1042B0002E9860E082E090E00E94C22D84EF91E0B1
:1042C0000E94D80F2E9A84E80E94BB138111FBCF65
:1042D00088EC0E948713C2CF2E9858982D9880E1C1
:1042E00080930001809164008E7F809364008091B0
:1042F0007A00806480937A0080917A0086FDFCCFFA
:1043000000917800109179000E946F10AB01BC0100
:10431000C801B0E0A0E0DC01992788278C019D014D
:10432000040F151F261F371FC901B8012091640013
:10433000216020936400611571058105910511F0DC
:104340000E94B12D11E01093030289E080931808B8
:1043500082E090E00E94BA2D882341F13E9A579A5C
:104360001093040280E00E94941C82EA91E00E9473
:10437000BA2D80932A02B8E42B2EB7E03B2E12EA26
:10438000A12EBB24B394F7E0FF2EADE64A2EA7E1A1
:104390005A2ED0900502DD2071F01092050280E0C7
:1043A00090E0892BB1F30E940000EDCF109204023F
:1043B0003E985798D7CF9091070280910602192F07
:1043C000181B812F20910001121740F48F5F821774
:1043D00030F781E083BF889513BEE1CF11E01093E1
:1043E000050290930602EFE1F2E08081918101964F
:1043F0008083918380912902809328020E948A13EE
:104400008093290280912D02823009F477C2B0F4A2
:10441000882309F454C1813009F467C1E4E4F2E06F
:1044200081E0A0E0B8E000800EBC8111012C119762
:10443000A0FDFDCF0192B9F70DB4B1CF843009F4DE
:10444000E8C208F46AC2853049F780912B028111D5
:1044500038C0A8E4B7E040E012969C9112979730DC
:1044600051F12DEF280F263008F441E0963009F481
:104470009EC721E09A3009F49BC720E090E0E4E475
:10448000F6E050E03481332361F06181681301C0AC
:10449000232F6281681305C0638161110C940F2D75
:1044A000532F3D962E163F0669F7552351F0992359
:1044B00041F0222331F08F5F16968C3069F641115E
:1044C00079C780910E02813011F410920E020E9481
:1044D0000D1800E027E348E270E060E090E080E043
:1044E0000E94F01425E346E261E070E081E090E094
:1044F0000E94C61421E049E264E285E00E94E113D3
:1045000081E080930F0818E010930D0810930C08B9
:1045100084E080930E088EE69EE00E94F6151093CC
:104520000D0810930C088BE280930E0889E69EE03C
:104530000E94F61510920F08E0900E02EE2DF0E0AA
:10454000EE59FE4F608110930D0810930C08609394
:104550000E0870E001E028E040E284E090E00E9474
:10456000F014D11009C020E041E65EE06DE070E09B
:104570008EE190E00E94771312E0E11609F432C751
:104580001E1508F419C7EE2009F427C721E087E5B6
:104590009EE0E21609F423C781E080930F08809122
:1045A0000D02823011F40C94242B833011F40C94FE
:1045B0005D2B813009F077C780910C02843618F4A6
:1045C0008F5F80930C0240E060E080E00E949213D5
:1045D00010910C028FEF810F8F3070F48091910752
:1045E000882351F080919807882309F41DC760E261
:1045F00080E040E00E9492138FED810F8F3070F4C5
:1046000080919107823050F080919F07882309F4B0
:104610000EC760E280E040E00E94921311541F3008
:1046200070F480919107833050F08091A607882321
:1046300009F400C760E280E040E00E94921300E0CD
:1046400029E34EE468E070E084E290E00E94F01418
:1046500027E34CE469E070E085E290E00E94C61434
:1046600021E043E16EE688E20E94E1138AE2809352
:104670000D0880930C088AE080930E088DEC91E081
:104680000E94001808E110E09BE2E92E2DE0C22E06
:1046900050919107151708F4D0C628E437E040E0A0
:1046A00081E0541709F4F8C6F901E05BFF4F9081EF
:1046B0009111982F4F5F295F3F4F892FF2CF8BE4E5
:1046C00080932C0210932D02809171008D7F809336
:1046D00071001093270250922602409225025092B8
:1046E0002402409223020E94A71020E04BE653E1EF
:1046F00070E060E090E080E00E94771380911F02FC
:1047000080FD07C080912C02882319F0815080938E
:104710002C0210912C02103298F4812F0E94151651
:1047200011110EC0CC24C394E12C01E91EE020E05D
:104730004DEF50E16EE070E083E090E00E944C119C
:1047400080E10E94BB1310912202882351F180E87E
:104750000E94BB13882329F11F5F10932202153199
:1047600020F01D3340F11D3381F180E40E94BB1322
:1047700010912102811136C080E20E94BB13811189
:1047800031C01123E9F180E40E94A513811106C014
:1047900080E20E94A513882309F47AC010922102B6
:1047A00077C0112311F340E060E080E00E94921393
:1047B00010922202DACF80E490E0811B910940E060
:1047C00060E0880F0E949213D0CF1092220240E046
:1047D00060E080E00E94921381E00E94941C10929D
:1047E0002A021CCE1F5F109321021C3800F51636DA
:1047F00008F04EC0153650F51135E8F4103541F18A
:1048000088E00E94B013882329F010922B0282E0E6
:1048100080932D0284E00E94B013882309F4FECD1A
:1048200081E080932B0282E080932D02F7CD113A34
:1048300040F41D3868F040E260E080E00E9492138E
:1048400027C0113AE9F685E68093210240E0F4CFD3
:1048500080E40E94BB13882339F080912A028823C8
:1048600019F0815080932A0280E20E94BB138823B2
:1048700039F080912A028A3118F48F5F80932A02DE
:1048800060912A02BA82A982CE0101960E947B1C05
:1048900001E028E04EE170E060E083E690E00E94F5
:1048A000F01410920F0885E680930D0880930C0891
:1048B00010920E088CE89EE00E94F61585E7809322
:1048C0000D0880930C0810920E0880912A0290E047
:1048D00001960AE010E0B8010E94512ECB010E941F
:1048E000741C80912A0290E00196B8010E94512E1A
:1048F0000E94741C81E080930F0882CF0E949B105D
:1049000080912B02882329F08BE10E942F1784E0ED
:104910008BCF80912A020E942F1720E04BE653E1B3
:1049200070E060E090E080E00E94771380E00E94F9
:10493000151600E020E441E570E060E087E190E0DA
:104940000E94F01401E02AE04DE470E060E089E1AB
:1049500090E00E94F0148CE180930D0880930C0885
:1049600011E010930E0810920F0880EC91E00E9465
:104970000018809148070AE0602F0E94452E90E0C1
:104980000E94741C80914807602F0E94452E892F39
:1049900090E00E94741C10930F0821E049E160E44C
:1049A00080E00E94FF1321E045E660E480E00E9481
:1049B000FF1321E04FE365E689E10E94E1136DE01A
:1049C00080E20E94721B80912C02882319F0815092
:1049D00080932C0280912C02811115C089E3809371
:1049E0000D0880930C0885E380930E0887EC91E016
:1049F0000E94001820E042E85EE065E370E087E591
:104A000090E00E94671388E00E94B01381117FCF6D
:104A100005CD8091A707882309F446C08FEF8093C6
:104A20000F01809310018093110180E40E94B01364
:104A3000882331F080910101811102C0109301019E
:104A400080E20E94B013882329F080910101811136
:104A50001092010110912A021A3119F188E00E9486
:104A6000B013882399F080910101882379F061E0E7
:104A7000610F60932A02BA82A982CE0101960E9438
:104A80007B1C1092A70782E080932D0288E00E9491
:104A9000B013882331F080910101811102C010927E
:104AA000A7070E940D18BACC10921E0210921D0288
:104AB00080910E018C3049F488E00E94B013882365
:104AC00021F085E080932D02ECCF84E00E94BB139F
:104AD0008823F1F088E00E94BB13811196C088E022
:104AE0000E94A513882309F4CBC3809110018F3F46
:104AF00031F090910E019F3F11F0891351C380E175
:104B000092E00E94241789E497E00E94A116C9CF81
:104B100084E00E94A5138111DDCF88E00E94BB13C1
:104B20008111D8CF88E00E94A5138111D3CF1091B5
:104B30000E011C30A0F580E10E94B0138823A1F083
:104B4000812F63E00E94452E992371F0115010933C
:104B50000E018FEF80930F0180931001809311015C
:104B600080E192E00E94241780E80E94B01388231D
:104B7000B1F020910E01822F63E00E94452E923009
:104B800071F02F5F20930E018FEF80930F018093C0
:104B900010018093110180E192E00E94241780E4CB
:104BA0000E94B0138823A1F080910E01833080F021
:104BB0008C3039F1835080930E018FEF80930F0179
:104BC000809310018093110180E192E00E942417EC
:104BD00080E20E94B013882309F463CF80910E0114
:104BE000893088F48D5F80930E018FEF80930F01E1
:104BF000809310018093110180E192E00E942417BC
:104C000050CF89E0D8CF8CE0EECFE0910E0126E0C6
:104C1000E29FF0011124E85BF84F1281173009F48C
:104C200040CF88E00E94B0138823C9F080910F0123
:104C300090E0019663E070E00E94512E80930F0196
:104C4000163009F0A2C0813019F482E080930F0180
:104C50008FEF8093100180E192E00E94241781E0A1
:104C600080931D0290910E01993008F094C08091BC
:104C70000F01933008F40DC1823008F4E6C1823090
:104C800009F00FCF80E10E94B013882319F080E073
:104C90000E94E30C80E80E94B013882319F080E0A2
:104CA0000E948D0C80E20E94B013882319F089E0E5
:104CB0000E94340D80E40E94B013882319F089E02B
:104CC0000E94AD0D009110010F3F09F495CF8BEAC2
:104CD000089FD12C1124D69410910E01189FE12C1D
:104CE0001124E6948CE1E89EC02C11248EE18C0DF9
:104CF00080931502812F0E9432169E2D990F9E0DD2
:104D0000191B72E1972E199D800D1124845F8093E9
:104D100016029D2D9E199150EEE09E9F100D1124BC
:104D2000110FF0E2CF0EC10EC0921702809318024D
:104D3000C0921902802F0E943216382F802F63E014
:104D40000E94452E999D902C112418E0910E26E08A
:104D5000029FF0011124E85BF84F828124E0863045
:104D600009F020E0930E90911101911198E0920EBC
:104D7000990E90921A028CE1D89E802D1124835FA7
:104D800080931B0290921C028CCE1A3009F060CFE7
:104D900010920F015DCF9C3008F083CE80E10E941D
:104DA000B013882319F080E00E94E30C80E80E9491
:104DB000B013882319F080E00E948D0C80E20E94DD
:104DC000B013882319F086E00E94340D80E40E941D
:104DD000B013882319F086E00E94AD0D80E192E0C7
:104DE0000E942417D09010013FEFD31609F459CE3A
:104DF00010910E010BEA109F012D112406958CE1F4
:104E0000089FE02C11248DE08E0D80931502812FD8
:104E10000E943216902F990F900F191B92E1199F43
:104E2000902D1124985F20910F01211128E01BEA99
:104E3000D19E112D11241695980F920F9093160262
:104E4000812F880F810FCD2CC81A011B2C2D82E7D2
:104E5000089F200D1124220FE1E2EE0EE20EE092F7
:104E6000170290931802E09219028D2D0E943216BB
:104E7000F2E1CF9E800D1124845F80931A029CE1A1
:104E8000199F102D112402E00D1508F081C190E04A
:104E900080C1823008F484C0823009F002CE80E103
:104EA0000E94B013882319F080E00E94E30C80E890
:104EB0000E94B013882319F080E00E948D0C80E2DC
:104EC0000E94B013882319F089E00E94340D80E419
:104ED0000E94B013882319F089E00E94AD0DD09094
:104EE00010013FEFD31609F487CEE0900E018EE15A
:104EF000809315028E2D0E943216E2E1CE2EEC9C9C
:104F0000800D1124845F809316029BEAD99E012DA7
:104F100011240695E99E912D11249695091B002ECA
:104F2000000C110B01501109292F220F920FE91AC1
:104F30009E2DEEE00E9F900D1124990F905E9093A0
:104F4000170280931802909319028D2D0E94321639
:104F5000282F8D2D63E00E94452E9C9DC02C11248E
:104F6000F8E0CF0E36E0D39EF0011124E85BF84F55
:104F7000828194E0863009F090E0C20E80911101A8
:104F8000811188E0C90EC80EC0921A028CE1809F80
:104F9000002D1124075D00931B02C0921C0281CDDD
:104FA00080E40E94B013882349F0809110018A3F69
:104FB00091F18F3F19F48AEF8093100180E20E94F3
:104FC000B013882349F0809110018A3F31F18B3F63
:104FD00019F48AEF8093100180E192E00E94241777
:104FE000809110018B3FD9F48CE080931502809161
:104FF0000E0192E1899F802D112490910F01911152
:1050000096E0875F890F8093160291E090931702D4
:105010008093180246CD8BEFCFCF8FEFDBCF8A3F47
:1050200009F03FCD8CE08093150280910E0192E152
:10503000899F802D112490910F01911196E0875F37
:10504000890F8093160294E0E1CF80E10E94B013B3
:10505000882319F080E20E94E30C80E80E94B013DC
:10506000882319F080E10E948D0C80E20E94B01329
:10507000882319F086E00E94340D80E40E94B0136A
:10508000882319F086E00E94AD0D80E192E00E9435
:105090002417C0900E018BEAC89EE12C1124E694DF
:1050A0008CE1E89ED02C11241DE01D0D10931502FB
:1050B00086E0C89EF0011124E85BF84F82810CE085
:1050C000863009F008E08C2D0E9432169BEAC99EBA
:1050D000912D11249695292F220F920FC91A9C2DDC
:1050E000800FE2E1CE9E800D112400910F0101118D
:1050F00008E0800F80931602009110010B3F91F0A1
:105100000F3F09F4CECC0A3FC1F4990F191B12507E
:105110001093170280931802109319028EE3809364
:105120001A02BFCC990F191B1250109317028093CB
:1051300018021093190282E0F2CF1BEA019F112D91
:1051400011241695912F990F910FC02EC91AE11AAB
:105150009C2DF2E7EF9E900D1124990F21E2D20EC3
:10516000D90ED092170280931802D0921902802F84
:105170000E94321632E1C39E800D1124845F809319
:105180001A029CE1199F102D1124033008F07FCEE4
:1051900094E0165E190F10931B0280931C0281CCC1
:1051A00020910F0140911101E4E4F6E0DF0156E0A7
:1051B000580F11963C9111975230A0F4831320C0E0
:1051C00012963C91129793131BC013963C91139720
:1051D000321316C014963C911497332389F0149619
:1051E0001C928DCC9817D0F493130AC012963C9160
:1051F0001297831305C013963C911397341751F3FC
:105200001D9617E0A834B107A1F63481311133C0DF
:10521000523088F481839283238312C08313F0CFAA
:1052200012963C9112979313EBCF13963C911397E0
:105230002313E6CFCFCF981768F7918382834383F8
:1052400081E0848380911502858380911602868394
:1052500080911702878380911802808780911902BC
:10526000818780911A02828780911B0283878091B7
:105270001C02848744CC3D96AE17BF0731F63FCC65
:1052800084E00E94BB13882309F45CC084E00E9480
:10529000B013E0900E01882349F026E0E29EF00171
:1052A0001124E85BF84F828180930F028BEAE89E1D
:1052B000812D11248695833028F0833009F0F1CBBD
:1052C00082E03DC00E2D10E066E0962E909EC0015B
:1052D000919E900D1124FC01E85BF84F6F018481D1
:1052E000882371F380E10E94B013882369F0E99C60
:1052F000C0011124865B984F0E945416F6018283E8
:1053000089E497E00E94A11680E80E94B0138823E8
:10531000A9F056E0D52EED9CC0011124865B984F74
:105320000E944016D09EF001D19EF00D1124E85B42
:10533000F84F828389E497E00E94A11681E0809370
:105340001E02AFCB84E00E94A513882309F4A9CBE9
:1053500090910E019C3009F4A4CB9F3F09F4A1CB9E
:1053600020910F02273009F49CCB06E0909FF001BA
:105370001124E85BF84F8281281709F492CB26307C
:1053800038F4863038F48650823008F08ACB02C078
:105390008630C8F7E4E4F6E08181981711F0828145
:1053A000811114823D962E163F06B1F77ACB20E08C
:1053B00091E065C8D42E8BC833E0E31631F184E068
:1053C000E812EAC888E080930D0880930C088BE20D
:1053D00080930E0883E49EE002C08CE59EE00E946C
:1053E000F615DAC882E59EE00E94F6154BEFC42E52
:1053F000E12C10E000E020E04DE45EE068E170E0C8
:105400008FE190E00E944C11C7C888E49EE00E94A2
:10541000F6153BEFC32EE12C10E000E020E04DE458
:105420005EE061E270E0ECCF60E080E2E2C860E064
:1054300080E2F1C860E080E2FFC8E0920D08E092EF
:105440000C0800930E088BED91E00E940018812E4D
:10545000912CC40101960E94741C81EE91E00E947F
:1054600000181C9DB0011124695E7F4FF89CF0016B
:10547000F99CF00D1124E856F84F808120E04DE2B0
:105480005EE0811102C047E15EE080E690E00E94AC
:1054900067131F5F035FFCC8882329F081E08093B6
:1054A000A70710920E0180E10E94B013882379F0C3
:1054B00080910E02882359F090910D02911107C03E
:1054C000823009F0D9C1D110D7C110920E0280E10B
:1054D0000E94B013882371F080910D02833051F443
:1054E0008BE092E00E94541680910B02873011F4F9
:1054F00010920B0280E80E94B013882379F080910B
:105500000E02843058F490910D02911107C0811160
:10551000B7C1D110B5C182E080930E0280E80E942D
:10552000B013882379F080910D02833059F48BE019
:1055300092E00E94401680910B02873019F486E0B9
:1055400080930B0280E20E94B013882351F0809177
:105550000E02823031F490910D02911102C08093BD
:105560000D0280E20E94B013882351F080910E0258
:10557000833031F490910D02911102C080930D029D
:1055800080E40E94B013882359F080910D02882393
:1055900039F010920D0240E060E080E00E9492132A
:1055A00084E00E94B013882371F080910D02811174
:1055B0000AC08FEF80930F01809310018093110137
:1055C00084E080932D0284E00E94B013882359F078
:1055D00080910D02882339F010920D0240E060E0C6
:1055E00080E00E94921388E00E94B013E82E882386
:1055F00011F40C940E2280910E02823009F40BC239
:1056000008F040C1882309F44CC1813011F00C949A
:105610000E2210920C02712C662463944091910723
:10562000741608F446C128E437E090E0941709F4B2
:10563000D6C1F901E05BFF4F808181118E2D9F5F04
:10564000295F3F4FE82EF2CF00E029E34EE468E007
:1056500070E084E290E00E94F01427E34CE469E0FB
:1056600070E085E290E00E94C61421E043E16EE61E
:1056700088E20E94E1138AE280930D0880930C086F
:105680001AE010930E0880EC91E00E9400188091BF
:105690004807612F0E94452E90E00E94741C809163
:1056A0004807612F0E94452E892F90E00E94741CAC
:1056B00067E18BE20E94721BF6CE00E029E341E530
:1056C00068E070E084E290E00E94F01427E34FE489
:1056D00069E070E085E290E00E94C61401E027E3F3
:1056E00047E069E070E081E790E00E94F01420E07C
:1056F00040E15EE06AE070E082E790E00E947713AC
:1057000020E049E05EE066E370E082E790E00E941E
:10571000771321E043E16EE688E20E94E1132091D5
:105720000B0247E05DE061E270E083E390E00E94FD
:10573000771388E280930D0880930C081AE0109389
:105740000E08E0910B02F0E0EE0FFF1FE750F34F61
:10575000859194910E94F61580910B02863009F490
:1057600075C085E580930D0880930C0810930E0892
:1057700083EF9CE00E94F6158AE280930D088093E7
:105780000C0880E280930E088FEE9CE00E94F615D4
:1057900087E480930D0880930C0885E280930E08BF
:1057A00085EE9CE00E94F61580910B029CE0899F9B
:1057B000802D1124898315E510930D0810930C0892
:1057C00085E180930E08CE0101960E94421C21E0E3
:1057D0004EE16EE682E50E94E11310930D081093EE
:1057E0000C0880E280930E08CE0101960E94421CB4
:1057F00021E049E26EE682E50E94E11380910B020E
:10580000863009F450CE10930D0810930C088BE2EB
:1058100080930E08CE0101960E94421C21E044E3D1
:105820006EE682E50E94E11310930D0810930C08B8
:1058300086E380930E08CE0101960E94421C21E06F
:105840004FE36EE682E50E94E1132DCE85E580935D
:105850000D0880930C0810930E0889EE9CE00E94BE
:10586000F6158AE280930D0880930C0884E28093F9
:105870000E0887EE9CE08ACF815080930E0227CEDF
:105880008F5F4ACE833009F4C6C0843011F00C9487
:105890000E2210920E0210920D0210922D020C9404
:1058A0000E228FEF80930F018093100180931101DE
:1058B0002EC8072D10E0F09EC001F19E900D11241E
:1058C000885B984FFC01E05BFF4F6082865B9F4FD7
:1058D000FC018081823028F481117BC089E08093B3
:1058E0004A07F09EF001F19EF00D1124ED56F84F9D
:1058F0008081823028F481116EC089E08093500746
:10590000F09EF001F19EF00D1124EC56F84F8081CD
:10591000823028F4811161C089E08093560789E4C0
:1059200097E00E94A116F09EC001F19E900D1124F7
:105930009C01285B384F49013DE4830E911CF40122
:105940008081823060F48FE797E00E946816F4014E
:10595000208130E08217130611F033961082F09EFA
:10596000C001F19E900D11249C01285B384F490124
:105970003EE4830E911CF4018081823060F485E85E
:1059800097E00E946816F401208130E08217130628
:1059900011F032961082F09EC001F19E900D1124FC
:1059A0008C01085B184F6801FFE4CF0ED11CF60193
:1059B0008081823060F48BE897E00E946816F601DF
:1059C000208130E08217130611F031961082739413
:1059D00025CE88E084CF88E091CF88E09ECF83ED0C
:1059E0009CE0E11002C085EC9CE0209171002D7FCD
:1059F0002093710011E01093270290932602809368
:105A0000250290932402809323020E94A7101093F2
:105A10000D020C940E2280930D020C940E22613024
:105A200011F00C945122932F0C9451228F929F923B
:105A3000AF92BF92CF92DF92EF92FF92CF93DF931C
:105A4000EC01688179818A819B81611571058105ED
:105A5000910521F464E279ED8BE597E02DE133EFD8
:105A600041E050E00E94E22D49015A019B01AC0146
:105A7000A7EAB1E40E94012E6B017C01ACEEB4EF09
:105A8000A50194010E940F2EC60ED71EE81EF91E16
:105A9000F7FE06C081E0C81AD108E10880E8F80ADC
:105AA000C882D982EA82FB82C701B6019F77DF9163
:105AB000CF91FF90EF90DF90CF90BF90AF909F90ED
:105AC0008F9008958F929F92AF92BF92CF92DF9264
:105AD000EF92FF9260911201709113018091140175
