:100000000C94AE110C94D6110C94D6110C94D611FC
:100010000C94D6110C94D6110C94D6110C94D611C4
:100020000C94D6110C94D6110C94D6110C94D611B4
:100030000C94D6110C94D6110C94D6110C94D611A4
:100040000C94D6110C943D290C94D6110C94D61115
:100050000C94D6110C94D6110C94D6110C949328B0
:100060000C94D6110C94D6110C94D6110C94D61174
:100070000C94D6110C94D6110C94D6110C94D61164
:100080000C94DD280C94D6110C94D6110C94D61136
:100090000C94D6110C94D6110C94D6110C94D61144
:1000A0000C94D6110C94D6110C94D6110A7A6F7553
:1000B000722063686F696365206F662072756E6574
:1000C000730777696C6C2073656C65637420646971
:1000D00066666572656E740C636F75727365732EF8
:1000E0002E2E20736F6D65206172650D65617369D9
:1000F0006572207468616E206F7468657273210781
:10010000716F6D7065746520696E20746865207408
:100110007269616C7306746F2073656520686F7710
:100120002066617220796F752063616E0B6765745C
:1001300020616E6420796F7520636F756C64206236
:10014000651974686174206368616D70696F6E21F0
:100150000378616368207965617220746865207036
:10016000656F706C65206F66007468652076696CD9
:100170006C6167652063686F6F73652061206E65D1
:10018000770C6368616D70696F6E20746F20707298
:100190006F746563740F7468656D2066726F6D208F
:1001A0006A737461726F6B2E0E100000E0E010F045
:1001B000FCFC02FE29FF7DFF69FFB9FF01FF82FE03
:1001C0007CFC8080000002020507080F141F001F3E
:1001D0001F1F071F071F071F001F011F1C1F0707E7
:1001E0000000000080807CFC82FE01FFB9FF69FFF7
:1001F0007DFF29FF02FEFCFC10F0E0E000000000A3
:1002000007071C1F011F001F071F071F071F1F1FB6
:10021000001F141F080F050702020E100000F0F067
:1002200008F87CFC02FE29FF7DFF69FFB9FF01FF92
:1002300042FEBCBC000000000101020304071A1FBB
:10024000001F1F1F071F071F1F1F001F031F181F4F
:100250000F0F000000000000BCBC42FE01FFB9FF10
:1002600069FF7DFF29FF02FE7CFC08F8F0F000002A
:1002700000000F0F181F031F001F1F1F071F071F5E
:100280001F1F001F1A1F0407020301010E108080A8
:1002900078F804FC3CFC02FE29FF7DFF69FFB9FFF2
:1002A00001FFC2FE3C3C000000000000010102030F
:1002B0001D1F001F071F071F071F1F1F001F061FEF
:1002C000111F1E1E0000000000003C3CC2FE01FF8A
:1002D000B9FF69FF7DFF29FF02FE3CFC04FC78F8B2
:1002E000808000001E1E111F061F001F1F1F071FFA
:1002F000071F071F001F1D1F0203010100000E1032
:100300000000F0F008F87CFC02FE29FF7DFF69FF89
:10031000B9FF01FF42FEBCBC000000000101020366
:1003200004071A1F001F1F1F071F071F1F1F001F83
:10033000031F181F0F0F000000000000BCBC42FE8E
:1003400001FFB9FF69FF7DFF29FF02FE7CFC08F871
:10035000F0F0000000000F0F181F031F001F1F1FE9
:10036000071F071F1F1F001F1A1F04070203010199
:100370000E100000E0E010F0F8F804FC52FEFAFE67
:10038000D2FE72FE02FE84FC7878000000000202B9
:100390000507080F141F001F1E1F061F061F1F1F23
:1003A000001F061F111F1E1E0000000000007878AD
:1003B00084FC02FE72FED2FEFAFE52FE04FCF8F845
:1003C00010F0E0E0000000001E1E111F061F001FBD
:1003D0001F1F061F061F1E1F001F141F080F0507E3
:1003E00002020E100000F0F008F87CFC04FC52FE43
:1003F000FAFED2FE72FE02FE04FCF8F800000000D5
:100400000101020304071A1F001F1E1F061F061FFB
:100410001F1F001F031F181F0F0F00000000000008
:10042000F8F804FC02FE72FED2FEFAFE52FE04FC54
:100430007CFC08F8F0F0000000000F0F181F031FED
:10044000001F1F1F061F061F1E1F001F1A1F040765
:10045000020301010E100000F0F008F87CFC02FE1F
:1004600029FF7DFF69FFB9FF01FF42FEBCBC000010
:1004700000000101020304071A1F001F1F1F071FAE
:10048000071F1F1F001F031F181F0F0F0000000072
:100490000000BCBC42FE01FFB9FF69FF7DFF29FFE0
:1004A00002FE7CFC08F8F0F0000000000F0F181F9F
:1004B000031F001F1F1F071F071F1F1F001F1A1FDB
:1004C0000407020301010F100002000000000000F9
:1004D00000000000020400000810000000000000FE
:1004E00000000000200002050200000000000000E3
:1004F0000002050A04081428100000000000000093
:10050000002050200F100000020600000000000034
:1005100000060A0C00000C14180000000000001077
:10052000281000000002050906000000000006096E
:1005300015120C0C122A2438000000001028542830
:1005400010000F1000000C121A04000000040A1220
:10055000120C00000609110A0400000008142212FF
:100560000C00000C92AD251A0400040A152D2D1262
:100570000C0609162E150A040008142A5D2D120C0B
:100580000F10000080982424120C00081422120C72
:1005900000000304080906000C1221120C000100DF
:1005A00000805864DA5A2D120C942A5D2D920C03A7
:1005B000040B1716090E122D5E2D120D02010F10DD
:1005C00000C0201824040202020A040408F00000FB
:1005D000030408081420202021120C020100C0206E
:1005E000D8E4DAFAFDFDFDF5FAFAF408F003040B9D
:1005F00017172B5F5F5F5E2D130D02010C100000BB
:100600000000806010103020C000000000000102D7
:10061000020404020100000000806090E8E8C8D0F5
:1006200020C0000000010205050B0B0502010B10A4
:10063000000000000000C02020C0000000000000FA
:100640000000010100000000000000C020D0D02008
:10065000C0000000000000010202010002070200C9
:100660000000000000000002070E04081C38100003
:10067000000000000000002070200002070F0600AC
:1006800000000000070F1F1E1C0E1E3E3C3800001D
:10069000000010387C381000000C9EBF3F1E040084
:1006A000040E1F3F3F1E0C060F1F3F1F0E040008C5
:1006B0001C3E7F3F1E0C0080D8FCFE7E3F1E0C9C23
:1006C0003E7F3F9E0C03070F1F1F0F0E1E3F7F3FF5
:1006D0001E0D0301C0E0F8FCFEFEFFFFFFFFFEFE63
:1006E000FCF8F003070F1F1F3F7F7F7F7F3F1F0F27
:1006F000030100000080E0F0F8F8F8F0E0C000002E
:1007000000010307070F0F0703010000000000C0EE
:10071000E0F0F0E0C0000000000000010303010071
:100720000808FF81A58181A581FF0808FF8185B5A3
:10073000959D81FF0C0C7C7C82FE01FF11FF09FF5F
:1007400002FE02FE01FF01FF01FF82FE7C7C000031
:100750000000010102030407080F080F0407020349
:100760000101000000001010000000C0C0E020F0F7
:1007700010F890F808FC08FC10F808FC04FE94FE41
:1007800044FE387E023F0002001E1E3F217F4CFFC8
:1007900056FF5EFF4CFF217F247F207F103F0C1F00
:1007A000030F0003000000000C0CF8F804FCFAFE34
:1007B000CDFFBDFFCDFFFDFF7DFF7DFF3AFE04FCB9
:1007C000F8F8010102030507080F090F080F090FC8
:1007D000080F0A0F050702030101F8F804FC3AFEAE
:1007E0007DFF7DFFFDFFCDFFBDFFCDFFFAFE04FCC9
:1007F000F8F80101020305070A0F080F090F080F97
:10080000090F080F0507020301010C0C004C4CFEF8
:1008100090FC4CFEB6FF9EFF9EFFB6FF4CFE90FC88
:100820004CFE004C0000000C040F030700030207FD
:10083000020700030307040F000C00000C0C00006B
:1008400000C0C0F898FC6CFE5CFE6CFEBCFED8FCE0
:10085000C0F800C000000007070F090F060F090FBE
:10086000010F030F090F060F090F070F0007000004
:1008700000C0C0F8D8FCBCFE6CFE5CFE6CFE98FCB0
:10088000C0F800C000000007070F090F060F090F8E
:10089000030F010F090F060F090F070F0007D5F00F
:1008A0008D14A1C881CFD9F1AF20001410070387A0
:1008B000C3E244A347A347A703070387C3E244A3B4
:1008C00047050204010004020502050200050204B6
:1008D00001000402051A2400000000FEFCDC2C3696
:1008E000F616EE767AFA7A7AF2E60E16F6362CDC00
:1008F000FC00181810939716D595D694C38FC68D03
:10090000C78EC391D090D191D596D700000000FF3B
:10091000FF00FF6262626A62626A62626AE2622A7F
:10092000A2A2AAA26200000000FFFF00FFFFFFE3F7
:1009300063636341E3F7FF01FC0300000000000074
:100940000000000F0F000F0F0708050F0503040339
:100950000F000F00000000000004081E3F211E22AF
:100960003E3F203229253212253F1A0C2A3F2C17F0
:10097000253D181E3F251823393D231A252D1A061B
:100980002F291E030811000533100301FF0103FE88
:100990000101FE01FF21211E00000002012121DED4
:1009A0000000000301FF010301FF2121DE0001FF20
:1009B0000100FE2121FE00FF00001E31C7000407D8
:1009C0000400030404030407040000000000020400
:1009D00004040300000000040704000407040003EB
:1009E00004040704000700000700070404060403CA
:1009F0000808003C3C7E42FF52FF5AFF42FF3C7E0B
:100A0000003C0000003C3C7E42FF52FF3C7E003C2C
:100A1000000000000000003C00FF3CFF003C000024
:100A200000000000003C3C7E5AFF42FF3C7E003C40
:100A300000000E00000000000C0C7C7C82FE01FF18
:100A400011FF09FF02FE02FE01FF01FF01FF82FE0E
:100A50007C7C00000000010102030407080F080F5E
:100A6000040702030101000000000500010000006E
:100A700090320032903A0032904400329048003276
:100A800080F0020803032610FCFC02FEF9FF05FFBC
:100A900005FF0DFF05FF05FF05FF0DFF05FF05FF26
:100AA00005FF0DFF05FF05FF05FF0DFF0DFF0DFF06
:100AB0000DFF05FF05FF05FF0DFF05FF05FF05FF06
:100AC0000DFF05FF05FF05FF0DFF05FF05FFF9FF02
:100AD00002FEFCFC03030407090F0A0F0A0F0B0FA9
:100AE0000A0F0A0F0A0F0B0F0A0F0A0F0A0F0B0F3C
:100AF0000A0F0A0F0A0F0B0F0B0F0B0F0B0F0A0F2A
:100B00000A0F0A0F0B0F0A0F0A0F0A0F0B0F0A0F1B
:100B10000A0F0A0F0B0F0A0F0A0F090F040703032E
:100B200080C0E0E0E0F0FCFEFFFEFCE0E0E0E0E0A2
:100B3000E0E0E0E0E0E0E0C0C0E0E0E0E0E0E0E0F5
:100B4000E0E0E0E0E0E0E0C0C0E0E0E0E0E0C08065
:100B5000000080C0E0E0E0E0E0E0E0E0E0E0E0C0F5
:100B6000C0E0E0E0E0E0C0E0E0E0E0E0C0E0E0E0E5
:100B7000E0E0E0E0E0C0C0E0E0E0E0E0E0E0E0C0D5
:100B800080000003070F0FFFFFFFFFFFFF7F0F072E
:100B9000FFFFFFFFFFFFFFFFFFFFFFFFFFFFFFFF65
:100BA000FFFFFFFFFFFFFFFFFFFFFFFFFFFFFFFF55
:100BB00007000000FFFFFFFFFFFFFF0FFFFFFFFF2A
:100BC000FFFFFFFFFFFFFFFFFFFFFFFFFFFFFFFF35
:100BD000FFFFFFFFFFFFFF77FFFFFFFFFFFFFFFFAD
:100BE000FFFF7F3F0000000000FFFFFFFFFFFF004F
:100BF000000001FFFFFFFFFF7FFFFFFFE3FFFFFF9D
:100C0000FFFF1F3F7FFFFFFFFF7F3F0F071F7FFF9C
:100C1000FFFFFCE08000037FFFFFFFFFFF80FFFF7F
:100C2000FFFFFF3F070F1F3F7FFFFFFF7F3F1F0FAC
:100C300003070F1F3F7FFFFEF0E041FFFFFFFFFFB5
:100C40007FFFFFFFE080000000000000FFFFFFFFCC
:100C5000FF0000000003070F070300000103017FEE
:100C6000FFFFFF7F00000000010100000000000006
:100C700000000103070F1F0E0400030F7FFFFFFF9B
:100C8000FFFF7F0F010000000000000001000000D6
:100C90000000000000000000000001000003070F3A
:100CA0000703000001030100000000000000070F1F
:100CB0001F0F0700000000000000000000000000FF
:100CC0000000000100000000000000000000000023
:100CD0000000000000000000000000000000000014
:100CE00001030100000000000000000000000000FF
:100CF00000000000000000000000000000000000F4
:100D00000000000000000000000062280080404059
:100D10004040700C021C6040404040404040404019
:100D20004040408000C0404040C0404040404040C3
:100D300040404080804040404040800000000080B3
:100D40004040404040404040404040808040404023
:100D50004040804040404040804040404040404013
:100D600040808040404040404040408000000000C3
:100D700003040404FC0000807C04040201FF000062
:100D800000FC241880403FFF000000FF0300B02C4F
:100D9000222CB000000FFC030000F8070000000048
:100DA00000FF000000FC040404FC000000FFFE0142
:100DB0000000F00E010EF0000003FF8000001CD4C4
:100DC0005454542300FF000000FC3C0080403F00CE
:100DD000000000000000FF0000FF00000000000114
:100DE000FE00FE0718609F608003FC00F8070C10EF
:100DF0002759A1B14F30080701061860831C608095
:100E0000000000037C80007F8000807F00C03C03E6
:100E1000000608102344884423100C030001060830
:100E200010234C50A0400001FE00FE0718609F6098
:100E3000800000000000000000FF00FF0000000034
:100E40000000030403000000000100007F807F0019
:100E50000000000000000000000000000000000191
:100E600002050A04000000030C708F708F700E01E1
:100E70000000000000000000000000000000000072
:100E80000000000000000000000003040300000058
:100E9000000100000000000000000007080700003B
:100EA0000000000000000000000000000000000042
:100EB0000000000000000000000000000000000032
:100EC0000000000000000000000000000001000021
:100ED0000000000000000000000000000000000012
:100EE0000000000000000000000000000000000002
:100EF000000000000000904E0046905300469066AF
:100F0000004680F0906E00329068003290620032AD
:100F1000905C00329056003290500032904A00327D
:100F200090440032903E00320014903E0032001493
:100F3000903E00320014903E003280F09044003227
:100F400090490032904E00329053003280F090323F
:100F5000001480F0070804060706050204010307D1
:100F6000030502010508EDF6C9F6EDFDFDC0EFEF42
:100F7000FCFBC0FBFCFDC1FEC1FDF7EFC0FDFBFDAE
:100F8000FBC4FBFD0C10FC02F9FDFDFDFDFDF901AC
:100F900002FC0F10272F2F2F2F2F2720100F00FCC0
:100FA00002F90D2DFDF90102FC00000F10272E2C77
:100FB0002F2720100F000000FC02F90DF90102FCA0
:100FC000000000000F10272C2720100F0000000049
:100FD00000FC02F90102FC0000000000000F1027D5
:100FE00020100F00000000000000FE0101FE0000C4
:100FF0000000000000001F20201F00000000000073
:1010000000FC0201F902FC0000000000000F1020AB
:1010100027100F0000000000FC0201F9FDF902FC9E
:10102000000000000F1020272F27100F000000FCE9
:101030000201F9FDFDFDF902FC00000F1020272F31
:101040002F2F27100F00FC0201F9FDFDFDFDFDF91A
:1010500002FC0F1020272F2F2F2F2F27100FFC02FD
:10106000F9FDFDFDFDFDFDF902FC0F10272F2F2FCF
:101070002F2F2F27100F00FC02F9FDFDFDF90102B3
:10108000FC00000F10272F2F2F2720100F0000002B
:10109000FC02F9FDF90102FC000000000F10272FEF
:1010A0002720100F0000000000FC02F90102FC00E4
:1010B00000000000000F102720100F0000000000AB
:1010C0000000FE0101FE00000000000000001F20E3
:1010D000201F00000000000000FC0201F902FC00DB
:1010E00000000000000F102027100F00000000007B
:1010F000FC0201F90DF902FC000000000F1020278E
:101100002C27100F000000FC0201F9FD0D2DF90243
:10111000FC00000F1020272F2E2C27100F003B1053
:1011200001FF21710301FF06186081FF010301FF28
:10113000010301FF21710301FF2121DE00000000F6
:101140000001FF2121DE01FF0000FF01FF06186002
:1011500081FF01FF2171030E1121C7040704040759
:101160000407000000050704000407040004070446
:10117000040704070400030400000000040704003F
:101180000304030404030407000000050704070424
:101190000406020404030408102A2A3C3F242418ED
:1011A0001C2222141824243F1C2A2A2C047E050108
:1011B0004C52523E3F040438243D20003E09093E73
:1011C0003F081422213F20003E04043E3E04023C1E
:1011D0001C22221C7E22221C1E2121123E040204FB
:1011E000242A2A12021F22201E20201E0E10201E3A
:1011F0003E10103E3F2525214E50503E0304380737
:10120000002F0000002000000708FF0155110D010C
:101210000505010D115501FFFF80AA88B080A0A02F
:1012200080B088AA80FF090800382844FE0000002A
:10123000000038387CFE005492001C0801020202B3
:101240000202020202040200060D0F06000204025E
:10125000020202020202020103106688330608033A
:101260004F380000000000000000000000000000F7
:10127000000000000000000000008040A05028D4C2
:10128000EA723A9A9A1232F5E191E1F234129A9A9C
:101290003A72EAD42850A04080000000000000000C
:1012A000000000000000000000000000000000003E
:1012B0000000000000008040C08000000C04FC041E
:1012C0000C04FC8484FC0404FC85C40C0100010DA6
:1012D00004FD040C05FC8485780104FC0500F885F8
:1012E00084F901FC010078C51C000000F80404F832
:1012F0000004FC84C40C00008040C080000000009A
:10130000008080808081838381808080909F908016
:10131000909F90909F90909F90919C8080808090D3
:101320009F9080909F90808F90909F90809F8080D2
:101330009F809F909098908F8080808F90908F80DA
:10134000909F908180808081838381808080000154
:101350000000F8FC7C1C3CFCFCF80000008C1C1C11
:101360001C1474E4E4C40004040CFCFCFC0C040431
:101370000000F4FC3C1C1C7CFCFCC40004FCFC1CB9
:101380001C1CFCF8300000F8FC3C1C1C7CFCF80029
:101390000004FCFCFC000084FCFC040000010000D4
:1013A00000FF0700181818FFFF000000031F3F632D
:1013B000C30207070100000000FFFF0F000000004C
:1013C000000F31C30303017F0F07000001FF000C72
:1013D0003FF3000000001F3F40C040203F1F0000BF
:1013E00000FFFF7F187EFF030000000000000000E8
:1013F0000007080000807F030000000000000000DC
:1014000000000000000000000007000000000000D5
:1014100000000000000000000000000007000000C5
:1014200000030000000000000000000000000000B9
:10143000010F000000011F78C00000000000000044
:101440000000000001000000000000121509000269
:101450000F12000C121E001E020600020F120000E6
:101460000000000000000000121509000C1212001C
:101470001E121E001E0206000C1A140014120A008E
:1014800000000000000000000100004120FE0105F6
:10149000F1F1F111D1B1D111F151515151515151DC
:1014A000515151515151510000FF00007F7F0909F6
:1014B0000F06007F7F19396F46007F7F4949414100
:1014C00000266F49497B3200266F49497B32FF0075
:1014D00000FFFFFFFEFFFEFF0279CD95A5CD79014C
:1014E00011111101F9F901010000FF00007F7F09CE
:1014F000090F06007F7F40404040007C7E0B0B7E42
:101500007C00070F78780F07007F7F3E1C0800FFE4
:1015100000001F3F3F33333333333E36363E363ED3
:10152000363E36363E36363E360000FF00003E7F01
:1015300041417F3E007F7F0E1C7F7F000000000046
:10154000000000000000000000000000000000009B
:101550003F40504040407846414159594141414106
:101560005959414141414141414100007F00000141
:10157000017F7F0101007C7E0B0B7E7C007F7F0959
:10158000090F06007F7F494941410000000000002B
:10159000009034011B9140008D81008D9142008D9F
:1015A00081008D9140008D81008D9143008D8100DF
:1015B0008D9142008D81008D9140008D81008D9133
:1015C00042008D8081008D9032011B9140008D8101
:1015D000008D9142008D81008D9140008D81008DA4
:1015E0009143008D81008D9142008D81008D91404D
:1015F000008D81008D9142008D81008D91308001A0
:101600001B9040008D80008D9042008D80008D9059
:1016100040008D80008D9043008D80008D904200B1
:101620008D80008D9040008D80008D9042008D80D7
:10163000008D903281011B9140008D81008D91427F
:10164000008D81008D9140008D81008D9147008D2E
:1016500081008D9145008D81008D9143008D810029
:101660008D9142008D81008D80E006104090BA9CE3
:10167000904004000A0A00044098B8B5984004005D
:101680000A0A000440909CBA904004000A0A000430
:101690004098B5B8984004000A0A000412100010DF
:1016A00000101090100017001D18101010101010CE
:1016B0000000000000070604040404040400040001
:1016C00000000808003C3C7E42FF52FF5AFF42FFE8
:1016D0003C7E003C0000003C3C7E42FF52FF3C7ED2
:1016E000003C000000000000003C00FF3CFF003C0C
:1016F000000000000000003C3C7E5AFF42FF3C7EA0
:10170000003C00000C10F8F804FCFAFEA5FF81FF75
:10171000C3FFF1FFFDFFF5FFFAFE04FCF8F800003F
:10172000636394F7ABFFB7FFBEFFBDFFB6FFABFF30
:1017300094F763630000F8F804FCFAFEFDFF95FFE0
:10174000C3FFFDFFFDFFF5FFFAFE04FCF8F8000003
:10175000636394F7ABFFB7FFBEFFBDFFB6FFABFF00
:1017600094F7636300000C100000C6C629EFD5FF94
:10177000EDFF7DFFBDFF6DFFD5FF29EFC6C6000061
:101780001F1F203F5F7FA5FF81FFC3FF8FFFBFFFAC
:10179000AFFF5F7F203F1F1F0000C6C629EFD5FFA8
:1017A000EDFF7DFFBDFF6DFFD5FF29EFC6C6000031
:1017B0001F1F203F5F7FBFFFA9FFC3FFBFFFBFFF0A
:1017C000AFFF5F7F203F1F1FFE028C021A02A8019D
:1017D0005404E20370030E104040BCFC02FE9EFE67
:1017E00002FE19FF3DFF35FFB9FF01FF42FEBCBC01
:1017F000000000000000000001011E1F001F0F1F5D
:10180000071F071F1F1F001F031F181F0F0F0000B8
:1018100000000000BCBC42FE01FFB9FF35FF3DFFE8
:1018200019FF02FE9EFE02FEBCFC404000000F0FAE
:10183000181F031F001F1F1F071F071F0F1F001F59
:101840001E1F01010000000000000000240027000E
:101850002A002D00300000000000250028002B0089
:101860002E0031000408020110408040102040800A
:1018700040800802040180402010020110801020E6
:10188000404020040404040403040502020202048C
:10189000030202020206060606060604040202020B
:1018A000040406011501260137014A015D01720198
:1018B00088019F01B801D201EE010B022A024B02FE
:1018C0006E029302BA02E40210033F037003A40302
:1018D000DC03170455049704DD0427057505C805C6
:1018E00020067D06E0064907B8072D08A9082D093E
:1018F000B9094D0AEA0A900B400CFA0CC00D910E82
:101900006F0F5A1053115B1272139A14D4152017CB
:101910008018F519801B231DDE1EB420A622B524D5
:10192000E4263429A72B402E0031EA330037453A0C
:10193000BC3D68414C456B49C84D68524F57805C6F
:10194000006210111213151617181A1C1D1F2123DF
:101950002527292C2E3134373A3E4145494E5257DE
:101960005C62686E757B838B939CA5AFB9C4D0DC39
:10197000E9F73D200004041E1AFFE2FF02FF02FF08
:1019800002FFE2FF22FFE2FF02FF02FF04FEFCFE75
:101990001AFF02FF02FFC2FF22FFE2FF02FF02FF67
:1019A00002FFFCFEF4FE0AFF02FF02FFC2FF32FF4D
:1019B0000C7E72FF82FF02FF02FF1AFFE4FEE4FECC
:1019C0001AFF02FF02FFC2FF22FF22FFA2FFC2FF97
:1019D000A2FF1CFEFCFE02FF02FF02FFE2FF22FF4D
:1019E000E2FF02FF02FFC2FF3AFF043E00040000D4
:1019F000000000FFFFFF00FF00FFFFFF40FF38FF78
:101A000087FF40FF207F1CFFFFFF00FF00FFECFF70
:101A10004BFF84FF48FFDFFF00FF00FFC3FF3FFFD6
:101A2000187F60FF80FF1FFF60FF80F070FF0FFFD7
:101A300080FF60FF1C7F031F0F1F103F103F0A1F16
:101A400009DFC9FF3DFF80FF40FF307F0F3F077F69
:101A500078FF80FF00FF0FFFC8FF87FF4CFF4BFFA1
:101A600050FB20700020000000000000001F1FFF3E
:101A7000E0FF00FFFEFF02FF010300010000000085
:101A80000001011F1EFFE0FF1FFFE0FF00FF00FF3E
:101A9000FFFF00FFC0FF3FFF003F0000000000010C
:101AA0000103020702070207010300010000000012
:101AB00000000000000000020207050F02070103FA
:101AC000000100000000000000000003030F0C3FB5
:101AD00030FFC3FF1CFFE0FC00E00000000000003E
:101AE0000000000000000000003F3F7F40FF3F7FFC
:101AF000003F0000000000000000000000000000A7
:101B00000001010300010038387F47FF387F073F9D
:101B100000070000000000000000000000000000BE
:101B200000000000000000000000000000000000B5
:101B300000000000000000000000000000000000A5
:101B40000000000000000000000000000003030788
:101B5000040F0B1F040F00040000000004081E3FC8
:101B6000211E223E3F203229253212253F1A0C2AFF
:101B70003F2C17253D181E3F251823393D231A25D4
:101B80002D1A062F291E0708060F1F3E1F0F0606D7
:101B9000091122110906031002FC0000FF00FFFFDB
:101BA000FE50A04080000000000000000000000087
:101BB00000000000000000000000FFFFFFFDFEFD30
:101BC000FEFDFEFCFCFCFCFCFCFCFCFCFCFCFCFC50
:101BD000FCFCFCFCFCFCFFFFFFFFFFFFFFFFFFFF27
:101BE000FFFFFFFFFFFFFFFFFFFFFFFFFFFFFFFF05
:101BF000FFFFFFFFFFFFFFFFFFFFFFFFFFFFFFFFF5
:101C0000FFFFFFFFFFFFFFFFFFFFFFFFFFFF0F0FC4
:101C10000F0F0F0F0F0F0F0F0F0F0F0F0F0F0F0FD4
:101C20000F0F0F0F0F0F0F0F0F0F1C24FE0000A040
:101C300040800000000000000000000000000000E4
:101C4000000000000000000093D090DA1B9A991A5F
:101C50001800C080C080C080C080C080000000002C
:101C600000C0C000EA6262FF00FFFF000000DDCCA0
:101C7000CCCCCCCCCCCCCCCC00C0000000FFFF0046
:101C800001FF77FF00FFFF000000DDCCCCCCCCCC07
:101C9000CCCCCCCC00CC000000FFFF00000F0F0F1D
:101CA000000F0F0000000D0C0C0C0C0C0C0C0C0C9D
:101CB000000C0000000F0F000C10048E46A242869C
:101CC00042A2468E42840002070705060307050666
:101CD000070219A6BE5E3EFE7E7E6E76EE0104020F
:101CE00002040408050D050D0400FEFFFFFFFFFFC1
:101CF000FFFFFFFFFFFE0003070F0F07070F0F0790
:101D000003000C10007AB676B676BA7ABA7A360044
:101D10000000000000000000000000001808FEFFA6
:101D2000FFFFFEFEFEFCFCFCFEFEFEFFFFFFFEFED4
:101D3000FEFCFCFCFEFE2E06FC05BE0580054205F1
:101D40000405C6040A07F206D406B60698067A0603
:101D50005C061810808040C0A0E0A0E0A0E0A0E0F9
:101D600090F0A8F894FC8AFE8AFE8AFE05FF85FFA3
:101D700085FF85FF4AFE6AFE3AFE1AFE0AFEC4FC93
:101D800018F8E0E00F0F303F0E3F303F033F173FA2
:101D9000143F173F133F103F003F1E3F303F003FAF
:101DA000003F303F0E3F003F323F121F111F080F10
:101DB000040703031410C0C030F0C8F8F4FC1AFE86
:101DC00065FF6DFF6AFE6AFE2AFECAFEF2FE3AFE5B
:101DD00005FF05FF32FEC4FC08F830F0C0C01F1F2D
:101DE000607F1D7F617F077F2F7F297F2F7F277F68
:101DF000217F017F3D7F607F007F017F617F1D7FAD
:101E0000007F607F1F1F0808003C3C7E42FF52FF9E
:101E10005AFF42FF3C7E003C0000003C3C7E42FFFB
:101E200052FF3C7E003C000000000000003C00FF30
:101E30003CFF003C000000000000003C3C7E5AFFDC
:101E400042FF3C7E003C0000F0F8F8F8F8FEFFFF8F
:101E5000FEF8F8F8F8F8F8600707070707FFFFFF34
:101E6000FF070707070703001010F0084848484E0F
:101E70000D4F0E4848080898F8600704050405FD52
:101E80000DFDFC0504040407030000F0B0B0B0B081
:101E9000F2B0F0B0B0F0F060000000030203020204
:101EA000F20203020303030000000D10FC02A9DD8F
:101EB000FDFDFD7D8181010101FF00AFDFFFFFFF1F
:101EC000F004078000A0000000FFFFFEFEFEFFFF01
:101ED000FFFFFFFFFFFFFFFFFFFFFFFFFFFEFEFE15
:101EE0003C3C3CFFFFFFFFFFFFFFFFFFFFFFFFFF4B
:101EF000FFFFFFFFFFFFFFFFFFFF000000FFFFFFEF
:101F0000FFFFFFFFFFFFFFFFFFFFFFFFFFFFFFFFE1
:101F1000FFFFFFFF000000FFFFFFFFFFFFFFFFFFCE
:101F2000FFFFFFFFFFFFFFFFFFFFFFFFFFFF0000BF
:101F3000000F0F0F0F0F0F0F0F0F0F0F0F0F0F0FC0
:101F40000F0F0F0F0F0F0F0F1A2400000000FEFCE1
:101F5000DC2C36F616EE767AFA7A7AF2E60E16F679
:101F6000362CDCFC00181810939716D595D694C320
:101F70008FC68DC78EC391D090D191D596D70000D2
:101F80000000FFFF00FF6262626A62626A62626A68
:101F9000E2622AA2A2AAA26200000000FFFF00FFE4
:101FA000FFFFE363636341E3F7FF01FC030000000D
:101FB0000000000000000F0F000F0F0708050F05BD
:101FC0000304030F000F000000000000FFFFFFFFED
:101FD000FFFFFFFFFFFFFFFF0F0F0F0F0F0F0F0F91
:101FE0000F0F0F0F3C083C080A08A80766073407C4
:101FF0002A0720072A07B81C06104090BA9C904078
:1020000004000A0A00044098B8B5984004000A0A7F
:10201000000440909CBA904004000A0A00044098D2
:10202000B5B8984004000A0A00041210001000100D
:102030001090100017001D18101010101010000044
:102040000000000706040404040404000400000067
:1020500003106688330608034018AA00AA00AA01E4
:10206000AB07AF1FBF7FBF7FFFFFFF7FFF7FFF7FFC
:10207000BF1FBF1FAF07AB03AB07AF1FBF7FBF7F44
:10208000FFFFFFFFFFFFFFFFFF7FBF7FFF7FFF7FA0
:10209000BF1FBF1FAF07AB01AA00AAFDAAFDAAFD83
:1020A000AAFDAAFDAAFDAAFDAAFDAAFDAAFDAAFDF8
:1020B000AAFDAAFDAAFDAAFDAAFDAAFDAAFDAAFDE8
:1020C000AAFDABFDABFDABFDAAFDAAFDAAFDAAFDD5
:1020D000AAFDAAFDAAFDAAFDAAFDFBFFFEFFFBFFCC
:1020E000FEFFFBFFFEFFFBFFFEFFFBFFFEFFFBFF14
:1020F000FEFFFBFFFEFFFBFFFEFFFBFFFEFFFBFF04
:10210000FEFFFBFFFEFFFBFFFEFFFBFFFEFFFBFFF3
:10211000FEFFFBFFFEFFFBFFFEFF030400020207C2
:102120000002903C001480F00C0C000000C0C0F8CD
:1021300098FC6CFE5CFE6CFEBCFED8FCC0F800C0D7
:1021400000000007070F090F060F090F010F030F0B
:10215000090F060F090F070F0007000000C0C0F8A5
:10216000D8FCBCFE6CFE5CFE6CFE98FCC0F800C0A7
:1021700000000007070F090F060F090F030F010FDB
:10218000090F060F090F070F0007000000000000ED
:10219000904E001E9053001E9058001E905D001E31
:1021A00080F00C0E000070708CFC02FE09FF1DFF19
:1021B0001DFF09FF02FE8CFC707000000000000093
:1021C00001010A0B01011617020301010A0B0101AB
:1021D000000000000000808060E014F420E01AFAA3
:1021E00010F020E014F460E08080000000000303A1
:1021F0000C0F101F243F2E3F2E3F243F101F0C0FAB
:10220000030300000D00000000001010000000C0DB
:10221000C0E020F010F890F808FC08FC10F808FC6A
:1022200004FE94FE44FE387E023F0002001E1E3F64
:10223000217F4CFF56FF5EFF4CFF217F247F207FD4
:10224000103F0C1F030F00030000000004010200F8
:1022500000000C0C004C4CFE90FC4CFEB6FF9EFFA8
:102260009EFFB6FF4CFE90FC4CFE004C0000000CA4
:10227000040F030700030207020700030307040F0C
:10228000000C00000200020F0F0F0C0CF8F804FC09
:10229000FAFECDFFBDFFCDFFFDFF7DFF7DFF3AFEC6
:1022A00004FCF8F8010102030507080F090F080FE5
:1022B000090F080F0A0F050702030101F8F804FCD3
:1022C0003AFE7DFF7DFFFDFFCDFFBDFFCDFFFAFE96
:1022D00004FCF8F80101020305070A0F080F090FB3
:1022E000080F090F080F050702030101030002018F
:1022F000050D0C0C000000C0C0F898FC6CFE5CFEE4
:102300006CFEBCFED8FCC0F800C000000007070F40
:10231000090F060F090F010F030F090F060F090F11
:10232000070F0007000000C0C0F8D8FCBCFE6CFE20
:102330005CFE6CFE98FCC0F800C000000007070FB0
:10234000090F060F090F030F010F090F060F090FE1
:10235000070F0007010001030707AE2911241FBE64
:10236000CFEFDAE0DEBFCDBF11E0A0E0B1E0E4E204
:10237000FBE602C005900D92A633B107D9F729E01C
:10238000A6E3B1E001C01D92A934B207E1F711E163
:10239000CEEAD1E104C02197FE010E948335CD3AF7
:1023A000D107C9F70E94222A0C9490350C940000A2
:1023B0006F927F928F929F92AF92BF92CF92DF9255
:1023C000EF92FF920F931F93CF93DF936C01DB018A
:1023D00048017E2D4115510509F49DC0FA01649113
:1023E000319684914E5F5F4FC62FD0E0222301F1DA
:1023F000E1E0F0E0982F977011F4F0E0E0E0082FB2
:102400000695069506950E0F1F2F111D0C9FF001C6
:102410000D9FF00D1C9FF00D1124733011F4EE0F81
:10242000FF1F2E9F80012F9F100D1124400F511F61
:1024300086010C0F1D1F101611060CF06CC0F0E881
:10244000CF16D1040CF067C09D01280F311D121664
:1024500013060CF060C0A034B1050CF05CC041154F
:10246000510509F458C03A2F3770FD01B7FD379672
:1024700093E0F595E7959A95E1F72E2FB7FF04C005
:10248000332311F02FEF2E0FEE27FF27EC19FD0954
:10249000D7FC02C0F0E0E0E090E89C19003811059C
:1024A0000CF4962F9E1BA22F022E000CBB0B1A2F92
:1024B00010952F3F0CF010E0BB24B394082F077049
:1024C00009F4B12C869586958695B80EAB0DB11D95
:1024D00019971CF0A8E0BA2EB21AB11A210F00E821
:1024E0002003D0011124AC0DBD1DAE0FBF1F619F95
:1024F000E00DF11D11244E0F5F1FC32E032E000CA3
:10250000DD08733009F418C1A8F4713009F4CAC0A9
:10251000723009F478C0DF91CF911F910F91FF9035
:10252000EF90DF90CF90BF90AF909F908F907F9073
:102530006F9008957A3FB1F10B2D020F7B3F59F751
:10254000201749F3BD01675B7A4FF12CE12CE916A6
:1025500008F0A2C0FA01EE0DFF1DE491F0E04F017A
:102560000C2C02C0880C991C0A94E2F727FD06C0C7
:10257000FB018081182D109581238083332361F026
:10258000273054F45B01F0E8AF0EB11C192D109503
:10259000F501808181238083FFEFEF1AFF0A6F5FCF
:1025A0007F4FD5CF0B2D020F201709F4B4CFBD01FB
:1025B000675B7A4FF12CE12CE91608F067C0FA014D
:1025C000EE0DFF1DE491F0E04F010C2C02C0880CD1
:1025D000991C0A94E2F727FD04C0FB018081882939
:1025E0008083332351F0273044F45B01F0E8AF0ED1
:1025F000B11CF501808189298083FFEFEF1AFF0A62
:102600006F5F7F4FD9CF6FEF70E0032E02C0660F70
:10261000771F0A94E2F760957095972E8B2C820EA7
:10262000281509F478CF8D01075B1A4FF12CE12CA6
:10263000E91630F5FA01EE0DFF1DE491F0E03F01DF
:102640000C2C02C0660C771C0A94E2F727FD05C02B
:10265000F8018081862386298083332359F027302F
:102660004CF45801F0E8AF0EB11CF50180818921CE
:1026700087298083FFEFEF1AFF0A0F5F1F4FD8CF24
:102680002F5F4C0F5D1FA058BF4FCACF2F5F4C0F5D
:102690005D1FA058BF4F88CF2F5F4C0F5D1FA05804
:1026A000BF4F4ECF84010E0F1F1F8B2D820F281797
:1026B00009F431CFBD01675B7A4FF12CE12CE916AB
:1026C00098F5F801EE0DFF1DA490B12C0C2C02C062
:1026D000AA0CBB1C0A94E2F7A094B094FA01EE0D88
:1026E000FF1D8490912C0C2C02C0880C991C0A941C
:1026F000E2F727FD08C0FB017080E72DEA217E2E5E
:102700007828FB017082332349F027303CF4FB0129
:10271000E058FF4FA080BA20B928B082FFEFEF1A2F
:10272000FF0A6F5F7F4FCBCF2F5F4C0F5D1F0C0FEA
:102730001D1FA058BF4FBBCFE92EF12CE40FF51F92
:10274000A75BBA4F60E870E06E197F09CE19DF0908
:10275000AE01440F551FC1E0D0E07E01032E01C041
:10276000EE0C0A94EAF7192F0B2D892E932ECF9396
:10277000DF93ED01EF96EF962296A590C5909920F4
:1027800059F0AE9C5001CE9C600127302CF4F880AB
:10279000D094FD20FB28F99222233AF0FC90C094BB
:1027A000FC20FA28FD920C94D61311961A9529F75D
:1027B0000A9551F0182D23951124E40FF11DA60F51
:1027C000B11DC60FD11DD9CFDF91CF911124A3CE5A
:1027D0008091480580959091470589230895E9E403
:1027E000F5E0A0E0B8E000800EBC8111012C11974B
:1027F000A0FDFDCF0192B9F70DB408959C01480FDB
:10280000592F511D4138510514F040E850E0421B4A
:10281000CB018770992791E001C0990F8A95EAF75B
:10282000FB0183E0F595E7958A95E1F7F695FE2F94
:10283000EE27F795E795E20FF31FE75BFA4F41505C
:1028400030F08191DF011197892B8C93F8CF089597
:10285000FC010E943C14319728F068517C4F8F4F47
:102860009F4FF9CFAB01FC010E943C146417750720
:102870008E079F07C8F30895A5E8B1E02FB7F89435
:102880007D918D919C9166B52FBFA89B05C06F3F30
:1028900018F47F5F8F4F9F4F22E0660F771F881FCE
:1028A000991F2A95D1F70895EF920F931F9333E064
:1028B000E32E10E000E00E94D8111F910F91EF90DD
:1028C0000895EF920F931F933AEFE32E10E000E08C
:1028D0000E94D8111F910F91EF900895EF920F93DE
:1028E0001F933BEFE32E10E000E00E94D8111F91F0
:1028F0000F91EF900895EF920F931F9332E0E32E24
:1029000010E000E00E94D8111F910F91EF90089500
:1029100090E00C9428148FB18095807F669B88602E
:102920001C9B8460089580917E01089510927E0121
:102930003E98579808953E9A579A81E080937E0179
:102940000895CF92DF92EF92FF921F93CF93DF9380
:10295000E82FF0E0EB5EFE4F1081E62FF0E06033F1
:1029600098F5EE5BF64EE491CE2FD0E0F12CE12C01
:1029700060E074E284EF90E0A7019E010E94FF34C2
:10298000215031094109510991E02115310581E0BA
:10299000480751056CF060E970ED83E090E0A70115
:1029A0009E010E94FF34215031094109510993E0F1
:1029B000113089F0133039F1DF91CF911F91FF90E1
:1029C000EF90DF90CF900895EE0FFF1FEE5BF74E74
:1029D000C591D491CBCF80917D018111EDCF8091B4
:1029E0008100887F892B8093810030938900209318
:1029F0008800109285001092840080916F008260A0
:102A000080936F00D9CF80919100887F892B80932C
:102A100091003093990020939800109295001092A5
:102A20009400D0937C01C0937B0181E080937A0174
:102A300080917100826080937100BECFE82FF0E03A
:102A4000EB5EFE4F8081813019F08330A9F008954C
:102A500080917D0181110FC080916F008D7F8093E7
:102A60006F0080916C01E0916A01F0916B0190819F
:102A7000809589238083089510927A01809179014D
:102A80008111F9CF80917701E0917501F091760184
:102A9000EECFCF93DF93D1E0E0914305F091440571
:102AA000AF014F5F5F4F509344054093430524911E
:102AB000822F807FC22FCF70803821F48C2F0E940C
:102AC0001E15EACF803919F5E0916801F09169018E
:102AD00009958D2780937801E0914305F091440595
:102AE000CF010196909344058093430564918091B2
:102AF0006701C81788F6C13021F480916601811101
:102B0000CBCF67FDC9CF8C2F0E94A114C5CF87FD05
:102B10003CC03296F0934405E0934305FA0144919A
:102B2000A0917B01B0917C01322F242F0E9440356F
:102B30006C507E4F8F4F9F4F28EE33E040E050E0C7
:102B40000E941E35209371013093720140937301EE
:102B5000509374018091710190917201A091730161
:102B6000B0917401892B8A2B8B2B61F481E090E06A
:102B7000A0E0B0E08093710190937201A093730183
:102B8000B0937401DF91CF910895803E49F4809114
:102B900045059091460590934405809343057CCF6D
:102BA000803F09F079CF10924205ECCF9093460513
:102BB0008093450590934405809343050E944915F1
:102BC00081E080934205089590916701923009F465
:102BD00071C0292F30E0F901EB5EFE4F40812C5986
:102BE0003E4FF9018083913031F420916401281324
:102BF00002C0909366019F5F9093670190E0FC0193
:102C0000ED57F74E24918C59974EFC01849130E09A
:102C1000220F331FF901EA5AF74E65917491F901B9
:102C2000E85BF74EA591B4919C91982B9C93413011
:102C300019F04330D9F0089590916400977F9093F4
:102C40006400109280001092810090918100986041
:102C50009093810090918100916090938100709396
:102C60006B0160936A0180936C01089590916500F7
:102C7000977F909365001092900010929100909130
:102C80009100986090939100909191009160909341
:102C90009100709376016093750180937701809124
:102CA0006701882321F06CE380E00E94A11480E09A
:102CB0000C941E150895FC01118A11821082138A4A
:102CC0008FEF9FEF97838683918780871486158681
:102CD00014820895DC01ED91FC91309711F08491FC
:102CE000089580E00895CF93DF93EC010E946A1667
:102CF000882339F0EA81FB8131968491DF91CF916D
:102D000008958CE0FBCFCF93DF93EC010E946A160D
:102D1000882331F0EA81FB818491DF91CF9108957E
:102D20008CE0FBCFBF92CF92DF92EF92FF920F9396
:102D30001F93CF93DF9300D000D000D0CDB7DEB784
:102D40008C010E946A16F801C680D780E084F18465
:102D5000882379F08D3079F1C8010E948316B82E4E
:102D6000C8010E947316DA82C982FC82EB82BD829E
:102D700009C0C8010E947316DA82C982FC82EB8204
:102D800099E09D838E8329813A814B815C816D819D
:102D90007E8180E090E026960FB6F894DEBF0FBEED
:102DA000CDBFDF91CF911F910F91FF90EF90DF90FA
:102DB000CF90BF900895F2E0CF0ED11C82E0E80ED4
:102DC000F11CC8010E948316B82EC8010E94731618
:102DD000DA82C982FC82EB829CEF9B0D9D8384503A
:102DE000D1CFCF93DF93FC01C681D7810E94831698
:102DF0008C0F9D2F911D0197DF91CF9108950F9317
:102E00001F93FC0180819181A281B3818C019D017E
:102E10004DE0000F111F221F331F4A95D1F70827DD
:102E200019272A273B27D901C80151E1B695A79553
:102E3000979587955A95D1F7082719272A273B2771
:102E4000C901B801A5E0660F771F881F991FAA95D1
:102E5000D1F760277127822793276083718382834C
:102E600093831F910F910895FC01E65BFF4F8F52F2
:102E70009F4FE817F90771F0208131812617370736
:102E800039F4228133812417350711F484810895A0
:102E90003996EFCF80E00895FF920F931F93CF9361
:102EA000DF93F82E8B01EA014F3F540731F08DEA92
:102EB00093E00E943417811119C020917E04E9E04B
:102EC0002E9FC001112483559C4FFC01E65BFF4FF0
:102ED000118300833296D183C083825B9F4FFC01B4
:102EE000F0822F5F2F3041F020937E04DF91CF914D
:102EF0001F910F91FF90089510927E04F7CF9C01CF
:102F0000CB016CE070E00E946F35FC018D3020F544
:102F1000413110F5CB0163E070E00E946F35BC01D8
:102F20005CE0569FC001579F900D11248E0F9F1F8C
:102F30000196880F991F820F931F21E030E002C095
:102F4000220F331F4A95E2F7FC01808191812823EB
:102F5000392381E0232B09F480E00895EF92FF925A
:102F60000F931F93CF93DF93FC01CB01EA012CE079
:102F700030E0B9010E946F357B01CE01B9010E949A
:102F80006F358B01C489D589CE5DDD4FAB01B701AB
:102F9000CE010E947F1781110FC017FD0BC0A80141
:102FA000B701CE010E943417813020F08C3028F018
:102FB0008D3019F080E001C08FEFDF91CF911F912C
:102FC0000F91FF90EF9008957F928F929F92AF9212
:102FD000BF92CF92DF92EF92FF920F931F93CF9306
:102FE000DF93EC01862E0E946A168823A9F1CE0198
:102FF0000E948316D12CC12C912C9CE0792EE82EB6
:10300000F12CCE010E948316672D0E944F35981631
:1030100008F054C0A884B98481E0881679F181E071
:10302000A81AB1080E811F810C0D1D1DA501B80144
:10303000CE010E94AE17882389F081E0DF91CF9105
:103040001F910F91FF90EF90DF90CF90BF90AF90C6
:103050009F908F907F90089589E0CCCFB701600F4B
:10306000711F61507109A501CE010E94AE17811137
:10307000E4CF93948CE0C80ED11CC3CFCE010E9444
:103080007316A501480F511D6E817F816C0D7D1D4A
:10309000CE010E94AE178111D0CF08851985CE01CF
:1030A0000E947316A801480F511D6E817F816C0D1F
:1030B0007D1D6E0D7F1D61507109D6CF80E0BECFA2
:1030C000CF93DF93EC0161E00E94E417882319F0AD
:1030D0009BEF9D87188ADF91CF91089561E00E9450
:1030E000E41791E0892708950E94E813309147057D
:1030F000232F20729091AC0136FD50C021115AC08F
:1031000019161CF491509093AC019091AC0197FF6B
:1031100003C09F5F9093AC0182FF14C080EA91E0EE
:103120000E946E18811152C080EA91E00E946018DE
:10313000882309F44BC081E08093B20182E291E2DE
:103140000C94D6158091B201882359F00E948B14FB
:1031500082FF07C080EA91E00E946E18811104C0CE
:1031600008951092B20108958091B001863058F40C
:103170008F5F8093B00180FD29C08091AD018250A6
:103180008093AD0108958C3008F58F5F8093B00176
:1031900080FD1CC08091AD018150F2CF32E03093B0
:1031A000B30191509D3F0CF49DEF9093AC0122230D
:1031B00009F4B2CF23E02093B3019091AC019F5F5B
:1031C00094300CF4A7CF2093AC01A6CF08950F93B1
:1031D0001F93CF93DF93EC010E946A16833009F4AA
:1031E00078C0B0F4882331F1813009F472C0EC89E1
:1031F000FD894A815B816885798585859685681B0F
:10320000790B8E819F810384F485E02D20E075C0C9
:103210008D3009F475C08E3009F49DC0853039F7C2
:103220008C81853120F782FFE2CFDF91CF911F9112
:103230000F910895CE010E946E180C891D899B89FB
:1032400068857985AE81BF8121E08823C9F09330FC
:1032500009F020E061507109F80185859685681BA9
:10326000790B83859485AD01481B590BCA0146ED46
:1032700057E10297DF91CF911F910F910C94541455
:10328000933009F020E0E88D8C8581111CC08D857C
:10329000811119C0E33008F0188EE88DF0E0EE0FD0
:1032A000FF1FE053F84E4591549161507109F801A8
:1032B00085859685681B790B83859485FD01E81BC0
:1032C000F90BCF01D6CFF0E0EE0FFF1FE853F84E19
:1032D000EACFEC89FD8921E08B89833009F020E079
:1032E0004A815B816885798585859685681B790B20
:1032F0008E819F810384F485E02D8E1B9F0BBACFB6
:10330000EC89FD893D856885798585859685681B6D
:10331000790B8E819F8143855485841B950B218574
:1033200020FD07C021E013160CF020E04A815B81EC
:10333000A1CF4091890150918A014770552721E022
:10334000453008F420E046E657E113160CF492CF1E
:1033500044E057E18FCF8C81853110F482FD65CF39
:10336000EC89FD892091890130918A012F703327E2
:1033700026952695688579856E5F7F4F858596852C
:10338000681B790B8E819F8102960384F485E02D62
:1033900042EC56E1B2CF2F923F924F925F926F92E2
:1033A0007F928F929F92AF92BF92CF92DF92EF92D5
:1033B000FF920F931F93CF93DF93CDB7DEB7639741
:1033C0000FB6F894DEBF0FBECDBF809196019091ED
:1033D000970197FD0396959587959595879560E458
:1033E00070E00E946F359C01809198019091990145
:1033F0004091940140FF9BC06CE070E00E946F35EB
:1034000000271127021B130B80EC90E06C01C21AFD
:10341000D30A5B0126E0A21AB10820E048E550E299
:10342000B501C8010E947B14005C1F4FC016D10675
:10343000A1F780919601909197016CE070E00E9455
:103440006F351B01ACE02A1A31082CE0269FC00121
:10345000279F900D11241F821E82FC01E059F10963
:10346000F98BE88B9C012E5831093B8B2A8BBCE0F1
:10347000FB2E80919601909197016CE070E00E9484
:103480006F35605F7F4F621573050CF427C1809123
:103490009801909199016CE070E00E946F353B01BA
:1034A000488859884E815F81440E551E8A899B89C0
:1034B000840F951F9D878C87F69E5001F79EB00C58
:1034C0001124D12CC12CD5011296BF87AE87009153
:1034D000980110919901C8016CE070E00E946F356D
:1034E000685F7F4F661577050CF4EEC077FC7EC0F1
:1034F0008090960190909701A301B1018DEA93E02D
:103500000E943417EAEFE80FEB3008F06FC0F0E0EC
:10351000E457F54E0C948335DF1ADF1ADF1ADF1AF1
:10352000FD1A101B211BF61A361B4D1B591B66E09A
:1035300070E00E946F354B0140E1841A910807E06A
:1035400010E0021B130B87EC90E02C01421A530A87
:103550003B015CE1651A71085B0185E0A81AB108BE
:103560006B0199E0C91AD10820E040E550E2B301AF
:10357000C8010E947B1420E040E550E2B401C8017C
:103580000E947B1420E04AE250E2B501C801839614
:103590000E947B142091890130918A012F7033277A
:1035A0002695269548EF5FE1B601C80143960E9433
:1035B0007B14005C1F4F04151505B1F63ACFE82FB8
:1035C000F0E0EE0FFF1FEC51F04E45915491B50124
:1035D0006C0D7D1D601B710BEE24E3940CEC1FE160
:1035E00020E0C201881999090E94D811BFEF6B1A17
:1035F0007B0AECE0CE0ED11C6ACFB5016C0D7D1DAF
:10360000601B710B68517109C20188199909EE2478
:10361000E39406EC1EE120E048E45FE18497E4CF08
:10362000B5016C0D7D1D601B710B64507109C201E9
:103630008819990920E04AEA5EE10D970E947B14FF
:10364000D5CF209194012170B5016C0D7D1D601BBB
:10365000710B64507109C20188199909EE24E39431
:1036600008E41EE148E65EE10497BECF209189019F
:1036700030918A012F703327269526956E857F8598
:103680006C0D7D1D601B710B46E05EE18C859D8598
:10369000881999090E945414A9CFB5016C0D7D1D9C
:1036A000601B710B6350710920E044EB5DE1C201C6
:1036B000EFCFB5016C0D7D1D601B710B6250710960
:1036C00020E042E55DE1F3CFFFEF2F1A3F0A2E81A4
:1036D0003F81245F3F4F3F832E83CBCE59EBC52ED6
:1036E00051E0D52E65E1A62EB12C73E0872E912CEA
:1036F000D60115968C911597811104C051968C9125
:103700008131B8F0C6010E94F116209196013091E6
:103710009701821B930B181619065CF4F60186813B
:103720009781821B930B803891051CF4C6010E947F
:10373000E718D60151968C91882389F1F501E81B91
:10374000F109CF01B4010E946F35660F771FFB01AD
:10375000EC5BF24E05911491FB01EA5CF24E45914F
:103760005491209194012170D60118966D917C910D
:1037700019978091980190919901681B790B62507B
:10378000710916968D919C91E0919601F0919701A7
:103790008E1B9F0BEE24E39402970E94D811B9E18F
:1037A000CB0ED11CEDEACE16E3E0DE0609F0A0CF89
:1037B0008091940180FF23C08091890190918A01BA
:1037C00068E170E00E945B35959587950027112789
:1037D000081B190B39EBC32ED12C809198019091C5
:1037E0009901B601681B790B20E04CE15DE1C8014D
:1037F0000E946E14085E1F4F0038110574F380910B
:103800009601909197016CE070E00E946F354B013A
:10381000FCE08F1A91088CE0869F2001879F500C56
:1038200011241CE0212E312C0CE0F02E8091960109
:1038300090919701B1010E946F35605F7F4F6815CD
:1038400079050CF468C08091980190919901B101BB
:103850000E946F355B019201205931093F832E830D
:103860000091980110919901C801B1010E946F3532
:10387000685F7F4F6A157B050CF446C0A501B40153
:103880008DEA93E00E947F173FEFA31AB30A8823C3
:1038900039F3FA9C6001FB9CD00C11244CE0C41A53
:1038A000D108C01AD10A80919601909197016E803B
:1038B0007F80681A790A50E1A516B10441F0A5018C
:1038C000B4018DEA93E00E947F17882389F08091EC
:1038D0009401EE24E3940CEC1FE121E080FD05C08F
:1038E000EE24E3940CEC1FE120E048EB5CE107C020
:1038F000EE24E3940AEE1CE120E042E05DE1B60133
:10390000C3010E94D811ACCF8FEF881A980A9CE0AF
:10391000490E511C8BCF80918B01813040F0853056
:1039200058F0863021F480918C018C3048F480EA84
:1039300091E00E94E71804C080918C0180FFF7CFCE
:1039400080918B01863009F037C080918C01ECE1C9
:10395000F0E0E81BF109F7FD3396F595E795F5954D
:10396000E795CF01880F991FFC01EC5BF24E0591A2
:103970001491FC01EA5CF24E45915491209194011E
:1039800021706091A8017091A90180919801909196
:103990009901681B790B645071098091A60190917F
:1039A000A701E0919601F09197018E1B9F0BEE24E9
:1039B000E39402970E94D81180919601909197010B
:1039C0006CE070E00E946F355B018CE0869F200107
:1039D000879F500C11247CE0872E912CECE0FE2E6A
:1039E0008091960190919701B4010E946F35605FBC
:1039F0007F4F6A157B050CF46CC080919801909103
:103A00009901B4010E946F356B01F69ED001F79EBB
:103A1000B00D1124BF83AE83712C612C20909801CE
:103A200030909901C101B4010E946F35685F7F4FEA
:103A30006C157D050CF446C0A601B5018DEA93E036
:103A40000E947F17811110C0D7FC0EC00091960113
:103A500010919701A601B5018DEA93E00E943417F9
:103A60008A3049F08B30E9F0BFEFCB1ADB0AECE08B
:103A70006E0E711CD3CF6E817F81660D771D62192A
:103A8000730968517109C201801B910BEE24E39404
:103A90000EE91BE120E04AE25CE10A970E94D8119E
:103AA000E3CF6E817F81660D771D621973096450C3
:103AB000710920E046E95BE1C201801B910B0E9485
:103AC0007B14D2CFFFEFAF1ABF0A2CE0420E511C7D
:103AD00087CF8091A6019091A701B4010E946F3514
:103AE0008091920190919301FE01319625E0DF01D2
:103AF0001D922A95E9F7860F971F97FF02C090E065
:103B000080E08E010A5F1F4F2AE030E0B9010E9479
:103B10005B358193CB010E171F07C1F7809194018C
:103B2000E9E4F5E080FFF6C08DE795E02FEF219303
:103B30008E179F07E1F721E080919101811120E02C
:103B400046E85BE161E070E081E090E00E946E1485
:103B500021E080919101823008F020E046E85BE1AD
:103B600061E070E089E090E00E946E1421E08091B5
:103B70009101833008F020E046E85BE161E070E00D
:103B800081E190E00E946E1468010BE110E0F60103
:103B900022916F014CE55BE161E070E0C8010E9499
:103BA0006E140B5F1F4F0433110589F780918C044D
:103BB000882349F020E042E759E16FE070E080E2BD
:103BC00090E00E9454140EE814E032E4C32E35E075
:103BD000D32E4FE7A42EB12C50E4852E912CD80182
:103BE00016968D919C9117974E9717969C938E934E
:103BF000169714960D90BC91A02D25EF30E00E94F1
:103C00008935BB2797FDBA95A92F982F872FF801E3
:103C100095838483208131812038310544F0B1823D
:103C2000A08266277727681B790B75836483D80188
:103C30008D919C91119797FF0EC011961C921E9228
:103C400014968D919C911597919581959109159652
:103C50009C938E931497F80182819381813491050E
:103C600024F09382828217821682D80112968D9157
:103C70009C91139797FF04C017961C921E9216975B
:103C8000F80125812887220F220B29872081318185
:103C900048855985240F351F3183208327812A8742
:103CA000220F220B2B87AA85BB858A1B9B0B938334
:103CB00082838085882311F081508087F801808578
:103CC000882349F06281738120E04AE151E28081DA
:103CD00091810E945414075F1F4FC016D10609F04E
:103CE0007ECF63960FB6F894DEBF0FBECDBFDF91D7
:103CF000CF911F910F91FF90EF90DF90CF90BF90E9
:103D0000AF909F908F907F906F905F904F903F907B
:103D10002F9008958DE795E011928E179F07E1F798
:103D200021E080919101811120E046E85BE161E0B2
:103D300070E081E090E00E94611421E080919101A7
:103D4000823008F020E046E85BE161E070E089E065
:103D500090E00E94611421E080919101833008F08D
:103D600020E046E85BE161E070E081E190E00E94E4
:103D700061146BE1C62ED12CD8012E918D014CE53A
:103D80005BE161E070E0C6010E946114B5E0CB0E1A
:103D9000D11CE4E3CE16D10479F708CF9F92AF92FD
:103DA000BF92CF92DF92EF92FF920F931F93CF9328
:103DB000DF93EC01C62E0CE010E0D12C8CE0982EA5
:103DC000CE010E947316692D0E944F35D81608F057
:103DD0005CC022E0C21639F083E0C81679F1D394B2
:103DE000045F1F4FEDCFE884F984AE80BF8021E0EF
:103DF000A21AB108A8014C5051094E0D5F1DB50122
:103E0000CE010E94AE17882369F081E0DF91CF9147
:103E10001F910F91FF90EF90DF90CF90BF90AF90E8
:103E20009F900895A8014E0D5F1D41505109B501A5
:103E3000CE010E94AE17882391F2E7CF888599853D
:103E400078012CE0E21AF108E80EF91EAE80BF807E
:103E5000CE010E948316B501680F711DA701CE0126
:103E60000E94AE178111D1CFE884F984E00EF11ED3
:103E700081E0E81AF108AE80BF80CE010E9483166F
:103E8000B501680F711DA701D3CF80E0BFCFFF92AE
:103E90000F931F93CF93DF93EC01488559856E8173
:103EA0007F810E94AE178F3F21F41D82CE010E94B8
:103EB0005B16CE010E946A16813009F490C080F032
:103EC000853011F08E3021F58C81882309F18150E5
:103ED0008C8381111DC01D82CE010E945B1618C00B
:103EE0008C85811115C08D85811112C08091890149
:103EF00090918A0166E070E00E945B35892B41F465
:103F0000888D90E0019663E070E00E946F35888FA5
:103F1000CE010E946A16811118C08C85811115C0CE
:103F20008D85811112C08091890190918A0166E08E
:103F300070E00E945B35892B41F4888D90E00196FA
:103F400063E070E00E946F35888FCE010E946A1690
:103F5000853009F43EC09D858D3009F066C0892FFB
:103F60009F37A9F48C899D8984509D4F0E94FF162C
:103F700028E230E040E050E00E941E35672B682BBD
:103F8000692B11F48CEE8D878D858F37B9F02885DC
:103F90003985982F87FF02C093E0980F95959595E6
:103FA000A901490F511D97FD5A95205231096E857F
:103FB0007F855987488762177307A4F58A859B8593
:103FC000288539858217930724F42FE72D87998751
:103FD0008887DF91CF911F910F91FF9008958D8574
:103FE000811196CFCE010E946E18811191CF8C89DC
:103FF0009D8984509D4F0E94FF1624E130E040E0EF
:1040000050E00E941E35672B682B692B09F080CF8A
:104010008C899D8984509D4F0E94FF166770619521
:104020006D8776CF8F5F8D87C9CFE881F981309713
:10403000B1F03196E491E0FF14C08C852E813F8170
:10404000280F311D87FD3A953F832E8328853985BA
:10405000290F311D97FD3A9539872887BACFE0E0BF
:10406000EACF91110AC0CE010E946E18882329F070
:104070008D85863014F48F5F8D878D8518160CF52D
:1040800010E000E08D85082E000C990B0817190729
:1040900074F4CE010E946E18882341F088859985BA
:1040A0000196998788870F5F1F4FECCF1D86CE0141
:1040B0000E946E18882329F08D85863014F48F5F56
:1040C0008D878D8587FF13C08F5F8D8710E000E09F
:1040D0008D85082E000C990B8017910744F460E041
:1040E000CE010E94E417882309F44EC01D868C85FA
:1040F00018162CF510E000E090E9F92E8C85082EBA
:10410000000C990B08171907D4F4CE010E94F11680
:10411000EC89FD89EB50FD4F208130E02F5F3F4F50
:10412000F29EA001F39E500D1124841795073CF4D4
:1041300063E0CE010E94CE1E882371F11C868C851F
:1041400087FF47CF10E000E080E9F82E8C85082E2D
:10415000000C990B801791070CF03BCFEC89FD897F
:10416000EC50FD4F80818F9DC00111242E813F8135
:10417000821793070CF02DCF62E0CE010E94CE1E75
:10418000882301F11C8625CF888599850197998719
:104190008887015011099CCF8E819F8101969F8352
:1041A0008E838D8581110BC0CE010E946E18811106
:1041B00006C0888D90E0019683709927888F0F5FE5
:1041C0001F4F9CCF8E819F8101979F838E838D850A
:1041D00081110BC0CE010E946E18811106C0888D1E
:1041E00090E0019683709927888F01501109AECF16
:1041F000CF93DF93DC01ED91FC91119754960D90D4
:10420000BC91A02D19968D919C918430910520F040
:10421000079738F4349601C033968491DF91CF919B
:1042200008953596FACFEF92FF920F931F93CF9395
:10423000DF93EC010E94F82082FF67C08C899D8982
:10424000FC01E38CF48C45960E9483160E811F813D
:104250008E0D9F2D911D8017910744F482E08B8B6A
:10426000E881F9813296E491E195EC87EC89FD894A
:10427000E38CF48CCE010E948316800F912F911D48
:104280008E159F053CF483E08B8BE881F981329693
:10429000E491EC87CE010E94F82083FF2DC06B894A
:1042A000CE010E94CE1E882319F0CE010E94601814
:1042B0008B89823071F46E817F81615071094FEB7F
:1042C00050E0CE010E94AE17811103C0CE010E94C2
:1042D00060188B89833081F4CE010E94F116BC01F5
:1042E0006F5F7F4F4FEB50E0CE010E94AE17811100
:1042F00003C0CE010E946018CE01DF91CF911F91C3
:104300000F91FF90EF900C94471FCE010E94F82070
:1043100080FF0CC08B89823061F562E0CE010E9483
:10432000CE1E882301F183E08B8B1C86CE010E9478
:10433000F82081FFE1CF8B89823091F508851985BE
:10434000CE010E947316A801480F511D6E817F8116
:1043500061507109CE010E94AE1781111BC083E02C
:104360008B8B1C86C9CFE881F9813296E491E19567
:10437000EC878B898330D1F663E0CE010E94CE1E9C
:10438000882311F082E0D0CFE881F9813296E49160
:10439000EC87CCCFE881F9813296E491E195EC8706
:1043A0008B89833009F0A8CF08851985CE010E943A
:1043B0007316080F111DCE010E94F116BC016F5F2C
:1043C0007F4FA801CE010E94AE17811102C082E08A
:1043D000C7CFE881F9813296E491EC878DCF0F93B6
:1043E0001F93CF93DF93EC01F90181E08D833CE0D3
:1043F000309FC001319F900D1124798368835B83C6
:104400004A833E9FA0013F9F500D11245F834E833E
:10441000998788879B878A871C861D8683E08B8B7C
:104420001C82198ACE010E946A16853009F43FC0A9
:1044300050F4843071F18885998501979987888730
:104440001C861D862AC08D3079F18E30A1F78E81B1
:104450009F8106969F838E83888599850497998787
:1044600088878C899D8984509D4F0E94FF1625E086
:1044700030E040E050E00E941E3562506C878C892D
:104480009D8984509D4F0E94FF16637061956D87D2
:104490001AC08CEF8C8782E08D87CE01DF91CF919F
:1044A0001F910F910C9413211C868FE7F5CF8E81FD
:1044B0009F8106969F838E83888599850497998727
:1044C00088871C861D868C899D8984509D4F0E94FB
:1044D000FF162CE030E040E050E00E941E35862FB1
:1044E000880F880F680F645C6C83D7CF6F927F92C0
:1044F0008F929F92AF92BF92CF92DF92EF92FF92F4
:104500000F931F93CF93DF93CDB7DEB7A8970FB666
:10451000F894DEBF0FBECDBF6C015C01CE010196E9
:104520003C01F0E0E0E0FE2ED501D3968C918111A4
:1045300031C010E089E18E9F50018F9FB00C112493
:10454000C5018E968C0D9D1D0E94EF21BFEFEB16CD
:1045500059F0CA0CDB1CECE0EE9EC0011124D60120
:10456000DD969C938E93DC978F2DA8960FB6F894CA
:10457000DEBF0FBECDBFDF91CF911F910F91FF9096
:10458000EF90DF90CF90BF90AF909F908F907F90F3
:104590006F900895D6015B968D919C91D501D4962C
:1045A0008D909C908819990997FD3DC0D3018D93FA
:1045B0009C933196B9E1AB0EB11C82E0680E711C80
:1045C000E431F10509F0AFCF9981FE01339681E026
:1045D000F12CA191B1919A171B0614F49A2FF82E81
:1045E0008F5F8431B1F78F2C912C10E089E1B82EC8
:1045F000C601FB9C800D911D11248E960E94EF2117
:104600009FEFE91609F4B0CFB89CC001B99C900D9A
:104610001124C80ED91EACE0EA9EC0011124F60197
:1046200095AF84AFA1CF919581959109BFCF2F927E
:104630003F924F925F926F927F928F929F92AF9232
:10464000BF92CF92DF92EF92FF920F931F93CF937F
:10465000DF93CDB7DEB728970FB6F894DEBF0FBE55
:10466000CDBFF82EE091AD03F091AE036185728568
:10467000482F50E09F0124503D4F38872F839B01E6
:10468000240F351F23703327E20FF31F2281269F4B
:10469000C001279F900D1124840F951FB0E0A0E06A
:1046A000EF81F88580839183A283B3838F2D63E0AC
:1046B0000E944F35F8E19F9FC00111249C012557AE
:1046C0003E4F3D832C8390E080E0FC01EE0FFF1F06
:1046D000EC5DFD4F2C813D81E20FF31F11821082B2
:1046E00001968C30910589F78F8198850E94FF167D
:1046F00023E030E040E050E00E941E35635F6F83AE
:104700003CE0F39E50011124F11009C0862F815026
:10471000990BAC0161E070E08CE00E944C171A82AA
:1047200019821B82712C1E82612C1FEFD12CC12C8F
:1047300045E0242E312C412C512C1F3F89F561106E
:1047400056C09E81911122C2C6010397069708F0B8
:1047500051C080918004F81608F04CC08091AD03E0
:104760009091AE0384509D4F0E94FF1627E030E0E9
:1047700040E050E00E941E35672B682B692BD1F575
:104780008091AD039091AE0384509D4F0E94FF161F
:10479000A20191010E941E356983EF81EA8310E036
:1047A000898134E0839FF0011124EF5DFE4FE10F1A
:1047B000F11D80818823D9F0FA81F81B8F2FF13108
:1047C000B0F4F601EE0FFF1FEC5DFD4F2C813D8133
:1047D000E20FF31F21E030E002C0220F331F8A9561
:1047E000E2F780819181822B932B918380833E819C
:1047F0003111CCC1EF818E2F90E0F601EE0FFF1F3B
:10480000EC5DFD4F2C813D81E20FF31F2081318152
:1048100041E050E0082E02C0440F551F0A94E2F711
:10482000242B352B01968031910591F7318320831C
:10483000FF2009F4DBC180918004F81608F0D6C18E
:104840001F3F09F0CAC08091AD039091AE03845020
:104850009D4F0E94FF162AE030E040E050E00E94A9
:104860001E352091AD033091AE03672B682B692B69
:1048700009F0A0C0C90184509D4F0E94FF1623E09B
:1048800030E040E050E00E941E356E5F6E83712C78
:10489000643009F4A6C0809182048A151B040CF0D0
:1048A000F4C09F809A949A948FEF810F823060F5C4
:1048B000398124E0329FF0011124EF5DFE4FE10FBA
:1048C000F11D80819A809A94981A8091AD039091FD
:1048D000AE0384509D4F0E94FF16A20191010E94D9
:1048E0001E358091AD039091AE03613009F083C015
:1048F000EE24EA94092D95012C0D3D1D42EF52E264
:1049000064E573E20E9476228091AD039091AE033C
:1049100084509D4F0E94FF1623E030E040E050E0BD
:104920000E941E35672B682B692B09F0AEC0809161
:10493000AD039091AE03FC012185328508E224305D
:10494000310528F00EE12730310508F403E28450E8
:104950009D4F0E94FF16202F30E050E040E00E9463
:104960001E356E3171058105910508F08EC06454C5
:104970007B4DFB010C948335112511251125112543
:104980001125112511251125112511252225222555
:1049900022252225222522252D252D252D253B25A5
:1049A0003B253B253B253B253B253B254C254C25E5
:1049B000B725B725C90184509D4F0E94FF16A2015B
:1049C00091010E941E35672B682B692B41F43F81B2
:1049D0003F3061F03F5F3F83712C1E825CCF739448
:1049E000FCCF81E08B8394E09E8355CF712C1E8297
:1049F000EEE0EF8350CF84509D4F0E94FF1663700E
:104A0000772788279927672B682B692B09F07CCF9C
:104A1000492D50E0B5016C0D7D1D8EE00E944C17B4
:104A200073CFEE24EA94092D95012C0D3D1D42EF24
:104A300052E264E573E28091AD039091AE030E946F
:104A4000762223C0EE24EA94092D95012C0D3D1DFC
:104A50004AE852E26CEE72E2EECFF6E0FF15A8F4FF
:104A6000EE24EA94092D95012C0D3D1D42E552E2FC
:104A700064E872E2E0CF2F812150330BA901B50128
:104A80006C0D7D1D8EE00E944C171F3F99F11F5F3A
:104A9000143081F51FEF2EC031E03715B0F71F3FFE
:104AA000B1F78091AD039091AE03FC012185328571
:104AB0002150310905E02A30310520F4295E3E4FAE
:104AC000F901008184509D4F0E94FF16202F30E095
:104AD00050E040E00E941E35672B682B692B51F493
:104AE0002F812150330BA901B5016C0D7D1D8FE085
:104AF0000E944C179FEFC91AD90AECE0CE16D104D8
:104B000009F01BCE80918004F81211C02F81215032
:104B1000330BA901B501675F7F4FE091AD03F091C1
:104B2000AE03818580FF64C08AE00E944C178091AB
:104B300082048A151B0414F4A092820428960FB6EE
:104B4000F894DEBF0FBECDBFDF91CF911F910F91C3
:104B5000FF90EF90DF90CF90BF90AF909F908F909D
:104B60007F906F905F904F903F902F90089538E026
:104B70003F1508F08ACFEE24EA9402E095012C0D4F
:104B80003D1D4AE052E26CE472E255CF8E818150C5
:104B90008E83612C811102C06B801B828091AD03DA
:104BA0009091AE0384509D4F0E94FF16A201910187
:104BB0000E941E35672B682B692B09F066CF809009
:104BC000AD039090AE03C40184509D4F0E94FF1628
:104BD0006370EF80E394E61A00E195012C0D3D1D12
:104BE00042EA51E264E072E2C40129CF1E824DCF55
:104BF0008BE09BCF2091800430E02F5F3F4F90E906
:104C0000929FA001939F500D11244158510920916A
:104C1000810430E02F5F3F4F80EC829FB001839F83
:104C2000700D11246154710980917F04E82FF0E028
:104C3000899FC00111242091A6013091A701205421
:104C400031093093970120939601A091A801B0916A
:104C5000A90119976A177B076CF1B0939901A0938A
:104C600098014217530724F45093970140939601FB
:104C700020919601309197012817390724F49093D9
:104C8000970180939601A091AD03B091AE035B961E
:104C90008D919C9160E970E00E946F35CB01019786
:104CA00097FD0DC0E817F90754F480937F048E5FD9
:104CB0000C9417237093990160939801D2CF0895B3
:104CC000FF920F931F93CF93DF9380E991E20E94AD
:104CD000D61510927E0410927F0410928204E7EFA2
:104CE000F3E02EE734E08FEF9FEF9183808393838F
:104CF000828339962E173F07C1F70EE210E0D0E00D
:104D0000C0E089E1F82E8091AD039091AE03FC9E46
:104D1000F001FD9EF00D1124E80FF91F13AA800F7A
:104D2000911F0E945B162196075E1F4FC431D1056B
:104D300051F7E091AD03F091AE0321853285CF01AB
:104D400084509D4FA90143705527E40FF51F6281E0
:104D5000629FA001639F500D112470E060E0FC0190
:104D600040835183628373830E94FF16E091AD03F9
:104D7000F091AE032185328550E040E00E941E355F
:104D8000645F6093800480E00E94172381E00E94AA
:104D9000172382E00E9417238091940180FD32C086
:104DA00088E590E02AE831E23093A1012093A00148
:104DB00028E231E23093A3012093A20128E130E000
:104DC0003093A7012093A6019093A9018093A80195
:104DD0009093AB018093AA011092AC011092AD01A7
:104DE00083E08093B3011092A4011092B10180EA94
:104DF00091E00E946E18882339F080EA91E00E94C9
:104E0000471FF5CF80E0CDCF0E94FA2586E0809342
:104E10008B018CE180938C01DF91CF911F910F91D9
:104E2000FF90089520E04CE956E16CE070E084E0EA
:104E300090E00E947B1420E04CE956E16CE070E0C9
:104E400089E690E00E947B1420E04CE956E16BE19A
:104E500070E086EF9FEF0E947B1420E04CE956E162
:104E60006BE170E087E790E00E947B1420E04CE962
:104E700056E169E270E084E090E00E947B1420E05B
:104E80004CE956E169E270E089E690E00E947B140B
:104E90002091890130918A012F703327269526951C
:104EA0004AE656E16BE170E08BE090E00E947B14F3
:104EB0002091890130918A012F70332726952695FC
:104EC0004AE656E16BE170E08FE690E00C947B14CB
:104ED0000F931F93CF93DF938C01EB010E94D73484
:104EE0008883C80101960E94D7348983CE01DF915F
:104EF000CF911F910F910895FF920F931F93CF931E
:104F0000DF93EC01F62E08811981C8010E94D73485
:104F1000F81621F06F2DC8010E94F134CE01DF9107
:104F2000CF911F910F91FF900895CF93DF9300D001
:104F3000CDB7DEB79A838983CE0101960E947C2784
:104F40000F900F90DF91CF910895EF92FF920F9302
:104F50001F93CF93DF9300D0CDB7DEB78C017B01D9
:104F60009A838983FB016081CE0101960E947C2790
:104F70000F5F1F4F1A830983F7016181CE010196EC
:104F80000E947C27C7010F900F90DF91CF911F9156
:104F90000F91FF90EF900895BF92CF92DF92EF9222
:104FA000FF920F931F93CF93DF9300D0CDB7DEB75F
:104FB000B82E04E012E0F12CE12CCC24C394D12CC7
:104FC00000FF03C0CC24CA94DC2CC8010E94D73453
:104FD000282F2C9DC0012D9D900D1124E80EF91E47
:104FE0000F5F1F4F013282E0180739F7BB2049F0ED
:104FF000FA82E982BE016F5F7F4F81E292E00E94F8
:10500000A527C7010F900F90DF91CF911F910F91AE
:10501000FF90EF90DF90CF90BF9008950F931F9374
:10502000CF93DF9300D000D0CDB7DEB7182F84E048
:1050300092E00E94D734082F85E092E00E94D73496
:10504000013429F4843519F4112309F456C061E4BC
:1050500084E092E00E94952764E585E092E00E945A
:1050600095278EE190E09C838B8386E092E09A8383
:10507000898361E0CE0101960E947C2707E012E05F
:1050800060E0C8010E9495270F5F1F4F0C3082E03F
:105090001807B1F78B819C810A979C838B83BE0193
:1050A0006D5F7F4FC8010E94A52760E0C80102968E
:1050B0000E94952760E0C80103960E94952760E052
:1050C000C80104960E94952760E0C80105960E94D9
:1050D000952760E0C80106960E949527095F1F4F3B
:1050E000013282E01807B1F60F900F900F900F90E9
:1050F000DF91CF911F910F9108951A82198280E05C
:105100000E94CC278C01BE016F5F7F4F81E292E04D
:105110000E94682789819A818017910729F381E08D
:105120000E940E28E1CF0F920FB68F939F93EF93BB
:10513000FF93809180018D5F8D3708F08D578093AC
:105140008001E1E8F1E080818E4F808391819F4F63
:10515000918382818F4F828383818F4F8383E5E8A0
:10516000F1E080818F5F808381818F4F8183828195
:105170008F4F828383818F4F83838FB18F60669936
:105180001C9B88278F3681F480917F01981B963075
:1051900068F0E0E0F8E087E78083818388E180932E
:1051A0006000F0936000FFCF90937F01FF91EF913B
:1051B0009F918F910FBE0F9018951F920F920FB66F
:1051C0000F9211242F933F934F935F936F937F938D
:1051D0008F939F93AF93BF93EF93FF9380917A0147
:1051E000882389F08091790181110DC08091780127
:1051F000811109C090917701E0917501F0917601DC
:1052000080818927808380914205882329F18091BC
:10521000710190917201A0917301B0917401892B79
:105220008A2B8B2BC9F08091710190917201A09112
:105230007301B09174010197A109B10980937101C3
:1052400090937201A0937301B0937401892B8A2B00
:105250008B2B11F40E944915FF91EF91BF91AF91F3
:105260009F918F917F916F915F914F913F912F917E
:105270000F900FBE0F901F9018951F920F920FB6B0
:105280000F9211248F939F93AF93BF93EF93FF934C
:1052900080917D01882309F454C080916D01909123
:1052A0006E01A0916F01B0917001892B8A2B8B2B1D
:1052B000A1F190916C01E0916A01F0916B01808104
:1052C0008927808380916D0190916E01A0916F017B
:1052D000B0917001181619061A061B069CF48091ED
:1052E0006D0190916E01A0916F01B09170010197D5
:1052F000A109B10980936D0190936E01A0936F0194
:10530000B0937001FF91EF91BF91AF919F918F91F9
:105310000F900FBE0F901F90189510927901109268
:105320007D0180916F008D7F80936F0080916C0173
:10533000E0916A01F0916B019081809589238083CF
:10534000E1CF809178018111DDCF90916C01E091E6
:105350006A01F0916B0180818927F1CFEF92FF9272
:105360000F931F93CF93DF9383E994E190936901A7
:10537000809368011092AF011092AE01EBE8F1E06A
:1053800015AE14AE799663E0EF37F607C9F78BE8F0
:1053900091E010928B0410928C0410928D04EEE830
:1053A000F4E024EBDF011D922A95E9F79093B50113
:1053B0008093B4019093AE038093AD0383E691E0B4
:1053C000909384048093830482E691E09093860412
:1053D00080938504C9EBD1E08BE8E82E81E0F82EBC
:1053E00003E611E0FD8AEC8A1F8B0E8B1D82CE0135
:1053F0000E945B166996B3E0CD3ADB0799F7E7EFB9
:10540000F3E04BE851E023E631E08FEF9FEF568366
:105410004583308727839183808393838283399662
:1054200064E0EE37F60799F710925D018FEF8093F5
:105430005E0110925F01DF91CF911F910F91FF905C
:10544000EF900895CDB7DEB76897DEBFCDBF91E08E
:105450009093E0001092E2001092E10080E28093CD
:10546000D8001092D7008091650080688093650015
:10547000789483E084BD83E085BD90936E00E1E87D
:10548000F0E083E08083E0E881E08083E1E983E08D
:105490008083E0E981E08083E1EC87E08083E3ECD6
:1054A00081E08083E0EC82E08083E2EC81E0808335
:1054B000EAE787E080838068808381EC80937C00CA
:1054C00081E185B987E684B984E38BB98FE38AB932
:1054D000769A6E9880EF81BB10BA80E58CBD9DBD39
:1054E00085E00E948814599A85E00E9488145C988F
:1054F000EEE9F8E085918EBD00000DB407FEFDCF0A
:10550000EB3AC1F75C9A81E88093640081E0809374
:10551000650081E2809300010E948B1484FF15C016
:105520005C9885EA8EBD00000DB407FEFDCF5C9A45
:105530002E9858982D988091640080628093640022
:1055400081E083BF889513BEFCCF0E948B1482FF3D
:1055500039C02E9A589A2D980E948B1484718431E8
:10556000A1F42D9A88EC0E94881458986FEF82E07D
:1055700090E00E94DF3484EF91E00E942814589A52
:105580000E948B1484718431D9F30E948B14847827
:105590008438A1F42D9A88EC0E9488142E9860E03B
:1055A00082E090E00E94DF3484EF91E00E942814B2
:1055B0002E9A0E948B1484788438D9F388EC0E9448
:1055C0008814C3CF2E9858982D9882E090E00E94BE
:1055D000D734882309F10E949B1485E00E94E415CA
:1055E00086E00E94E41580E00E940E289E012F5F55
:1055F0003F4F2901AE01495F5F4F5D8B4C8BEE241D
:10560000E394FF24F39409E811E080914501882395
:1056100031F010924501F9CF0E949614DECF90919F
:10562000810180914601592F581B852F209100013F
:10563000521738F48F5F821740F7E3BE889513BE88
:10564000E4CFF092450190934601F8018081918169
:1056500001968083918380914705809348050E943D
:105660008B1480934705E0915501EE3070F6F0E021
:10567000E45CF44D0C9483354A2B4D2B8A2B912BF3
:10568000FB2B042CB02CDB2C182E512E7231D73270
:10569000B133B13381E0809355010E94E813882330
:1056A00019F082E08093550120E04BE854E160E17D
:1056B00070E080E290E00E947B14809189019091DB
:1056C0008A0160E370E00E945B35883120F48C3001
:1056D00098F081E312C08432D8F481E58093FD060E
:1056E000807A31F485EA8093F60685E98093F7069F
:1056F00080E00E94EF1383CF81E110922407109283
:105700002507109226071092270710922807E6CF48
:1057100081E9E4CF81E995E10E94D61583E0809389
:1057200055010E94E813182F20E040E652E164E0A2
:1057300070E088E190E00E947B1420E048E552E1AF
:1057400070E060E083E290E00E94611420E048E5B0
:1057500052E170E060E08AE590E00E9461140E94EE
:105760001227F090540183E290E0FF2011F081E4D1
:1057700090E020E04AE352E16BE370E00E947B148A
:1057800000917E01202F46E252E168E370E087E756
:1057900090E00E947B14812F8C7081F0F11026C064
:1057A00080915201882321F086E08093550106C044
:1057B00084E08093550181E08093520114FD02C082
:1057C00017FF0AC00023A1F00E94961460917E0189
:1057D00082E090E00E94952716FD1092540115FF7B
:1057E00003C081E08093540181E083CF8DE0DDCF61
:1057F0000E949B14EBCF1092500110925101109215
:10580000530185E08093550120E048E052E161E0DA
:1058100070E081E090E00E947B1422E048E052E1D9
:1058200066E370E081E090E00E947B1421E048E0B4
:1058300052E161E070E088E790E00E947B1423E091
:1058400048E052E166E370E088E790E00E947B1454
:105850004DE761E070E081E090E00E94FE134DE7CB
:105860006DE370E081E090E00E94FE134AE76FE391
:1058700070E083E090E00E94FE13F12C00E0E12C48
:105880005AE0D52E2091510110915001812F90E0C6
:10589000F21668F5880F991FFC01E15FFE4F019039
:1058A000F081E02DEF0DF11DE491E032C8F0E0321F
:1058B000D9F02AE1E13231F020F0E1562E2FEA3121
:1058C00008F02BE1ED9CB00111246D5F7F4F802F1C
:1058D00090E046E951E106960E947B14E5E005C0A0
:1058E000E394F3940E2FCECFE4E0E00FFACF845F81
:1058F0009E4FFC010081201738F48091890180FFC0
:1059000003C02F5F209351010E94E8138C7009F4AB
:105910006BCF8091530190915101091310C08111F7
:1059200010C01F5F109350011092510180915001DF
:10593000833009F059CF86E08093550155CF8823F5
:1059400019F01F5F1093500181E080935301E091A3
:105950005001F0E0E45FFE4F808180935101E6CF7B
:1059600010E080916701181728F4812F0E941E15FE
:105970001F5FF7CF1092420507E411E037E0E32EF6
:1059800032E0F32EC7010E94D734F80181938F01D2
:10599000FFEFEF1AFF0A2CE0E21622E0F20691F781
:1059A00010924F0110924E0110924C0110924D0135
:1059B00087E0809355010E94122720E04EE151E1DB
:1059C00068E070E082E290E00E947B1420E048E012
:1059D00052E165E170E088E190E00E947B1422E0F2
:1059E00048E052E16FE270E088E190E00E947B14B1
:1059F00021E048E052E165E170E080E690E00E943D
:105A00007B1423E048E052E16FE270E080E690E032
:105A10000E947B1448E465E170E088E190E00E9418
:105A2000FE1348E466E370E088E190E00E94FE1314
:105A30004BE468E370E08AE190E00E94FE1397E493
:105A4000E92E91E0F92E0EE110E0D12C20E1C22EDA
:105A500080914C01D812D6C080914D01882309F461
:105A6000D1C02C2D281B44E85FE06FE170E0C80135
:105A70000E947B14D394025F1F4FFFEFEF1AFF0ABF
:105A800025E0D212E5CF80914C011EE0819FC0013C
:105A9000112420E044E55FE06AE170E081960E9415
:105AA000611480914C01819FC001112421E044E5E3
:105AB0005FE06FE270E081960E9461140E94E8133B
:105AC000182F80914D01811199C014FF17C080914A
:105AD0004C0190E0FC01E95BFE4F2081253009F08C
