:100000000C94E9150C9411160C9411160C941116FD
:100010000C9411160C9411160C9411160C941116C4
:100020000C9411160C9411160C94CE240C943D25AE
:100030000C9411160C9411160C9411160C941116A4
:100040000C9411160C9411160C9411160C94111694
:100050000C9411160C9411160C9411160C946F2715
:100060000C9411160C9411160C9411160C94111674
:100070000C9411160C9411160C9411160C94111664
:100080000C9411160C9411160C9411160C94111654
:100090000C9411160C9411160C9411160C94111644
:1000A0000C9411160C9411160C9411164120534CFB
:1000B000494D45004120524154004120445241479E
:1000C0004F4E00412057524149544800412053505F
:1000D00041524B4154004120534B454C45544F4EE7
:1000E00000414E204F4343554C415200080FB85435
:1000F0009D726F4F7D9DCA2904A5D3D103080F5C63
:100100002E99CBAA4B3A6573C95C280A4D080FBCDF
:1001100054B9AFAF52AA7E771255A109080F74AE39
:1001200056D22957EAAAAE5C25B7E9D0070D0FE9E8
:10013000B3EB6CB67295AB5C25674EA7BED5A554E4
:10014000ED4AA9CEA5D3E9743A5D0D0F4995CB963A
:100150005295ABFACA56B294CB2BD674253B579521
:10016000AA4A75755757A5AA529DAB643A5D0D0F03
:1001700099969DAB52553255555595EB2A75DEF93A
:1001800058D3E974253BD7B9CE75AE739DEB5CEDC2
:10019000D2050D0F4995CB55A95EC9AA5755299788
:1001A00057ECE974253BD7B9CE75AE73954CA7D300
:1001B000E9020D0FC9964E7DEA73CE29B9DD3AA743
:1001C000A473F3A5D395AC643A9D4EA7D3E974BA52
:1001D000002020445241474F4E5320202020204CE5
:1001E00041495220202020253A0005041E04250301
:1001F000002317003217032537031E34011633017D
:100200001A38030838010433030A29010A200312AB
:100210002501182303251F01212403291301341C60
:1002200001311C013325013332033A3603423300D6
:10023000412601431A033407034309030508031643
:10024000090107050116041E01182E0101360127B8
:100250001F011C2801012B01362B01492401250A0D
:10026000020106020B0B021011021B1702381502C5
:100270002E06024703024512020D1F022927021F04
:100280002E02103102152102271802230C03270C1D
:10029000031F01032B01052310042625052B15043C
:1002A000011508652501640F3464072D64251E645B
:1002B000161E64071E64341E64431E0004070004F7
:1002C00008030202030B010D09020A0D050C0920A7
:1002D000204352595054204F46202020414E47552C
:1002E0004953482020162B0003031E02132706152E
:1002F0002301161F020D2A02212906262806082896
:1003000005112305262601041F02181901151501E0
:100310001610010710020315020A17022417052BF5
:100320001506251B06240B022509052706062502AE
:1003300002120A0617070612050518030307010132
:10034000090B0107051B01022301152101212101D0
:100350001127020B21022B1B021812020B1202039F
:100360001A021A1A02211202290302120B020507AD
:1003700005171704051505290104100103231503AA
:100380002912030B0B030105032929030327030D7E
:100390001B021F1501010D0565070064070F641698
:1003A0000F64250F6416280B05040803080A0109C9
:1003B00048414C4C57415953204F46205448452002
:1003C000444541442020073A00010410050A340541
:1003D0000133050538050829050324060D21060803
:1003E00026010517060B10050B170504120603045A
:1003F000060A09050C040503080107021302012F70
:10040000020D2A020329020524020124020B210203
:100410000B19030B15030D15020510030918020132
:1004200002020B0304030B050C0803080801070173
:10043000020901020B0B01650700030208031C1FE0
:10044000A0A1EC32DBA94E75AABBAA2FA5B2CAE1C6
:100450006DBBCD479754AE539DEA54F7F797AB5514
:10046000AD9C72CA29B90D7BD974D6A97295CA669A
:100470009D5255EF3A9555D286F6F576A9E4B01718
:100480001C1FD0955D6E9797BBD4E56E75B9CBDD1B
:10049000EA9297BBE476BD0E876E26F7EEDD59959E
:1004A000F22A2E4F94F53A4FA4DFBD7B6FAD7378DF
:1004B000DA3AEB7EA5DE7DC9F2B2F2447A4BA47340
:1004C00055DA55A9AFDFAD94DBB9B19A4E6FD7DBE2
:1004D000ED76BB5D6EB7E9D0081C1FA894BBD4AD08
:1004E000AA52A554AF7A55A54AA73BD7D55D9DEB37
:1004F000CE7575E772DDB9552A955AAF1D7E957A8E
:10050000C97795AC54552A95AA88FA5295AAFC2A1F
:10051000BE5E9646A2DAAD64AABEAAEBBBB2ABAA97
:10052000EC3A59A94F7DAE53BDCEEE9CFAF47A3D1C
:10053000BED6EBEDB272B5AC5C2D2B57CBCAD5B2A3
:1005400072B5AC5C2D2B57CBCAD552C9E56C161FC2
:10055000D094722A579DAB645757B2AB2BD9D5951F
:10056000EC642EE57CB8722A5B36E5DCB75275394F
:10057000A7A492EA565249A754A95BBA4FB9722A66
:10058000EFF8A46F59B692954DA7F3E95CA7D3D9BC
:10059000743A5BC9B2655BA22E9DCEA7D3E97436CF
:1005A0009D0E6D191FD0944EC7BAAC5CADE4AA5C29
:1005B0006543B5F5DB65E75E75B94B2A1B04E4942A
:1005C000D56B27B7E97456B9B3EA7295DC56F25683
:1005D000B5DBA69D2BE542623A9D0E1A02281FB09C
:1005E000994E2A1F9AB2D9CA39E59CAA95B4CA393C
:1005F000E93A19517053BEB2D9CA5575555D755552
:100600005DB94AE55291F5576DA36B759DDA5E6E43
:1006100059D5DBA5D2D126D7E1A873D9757659B9BA
:10062000BA5455D77DD5D57D553B77B9DA39259D57
:10063000734E2A57AB5BC94FAD7AD5EA56A59C736A
:100640004E2A574BA5EE571D440B191FD018EBAE81
:1006500076BBF4AAE34BE7F3E9FC684BF5755275FA
:1006600057752957CA7EAEAAD4A5EA2AA5BACEF6EE
:10067000BAD2D9F0B5DC56A4976A95FB4FE62EB7EF
:100680004ABF53B952F155723DDE9659E796526D05
:10069000A38B289D8C2EBD956EAD647E14013D37D5
:1006A000505EBB522ABD5EAFD7D12795CB86BE7CAC
:1006B0005EE9E8B3CBE5729B2EA56ADA753A34267B
:1006C00095734AC94B5DF5FD5D9D4A7575B5BAF5E3
:1006D000AE957556F96CFD95ABCAD5AA56A5DC5EEC
:1006E000B95A3A75CAF99453EA92CA5576B72CA703
:1006F0004AB9CA557FD9CAE694723BF797EE9395EB
:10070000EC5C2AD5F59DABAAAE5AA9765272A99C8B
:10071000FB645557D55575E5BE5257AEAA5359B52A
:10072000AA53952D75E918ABEAB225D7BF924E9D15
:100730005AA52EB922AA72BE4A5979A94B2D959372
:10074000FF6D2B5BB6AAF2DBB972555795AB7256AB
:1007500055575557D5559DADAAABEAAA6448536481
:10076000F96CBEE64AD56E5BB95A564E31E52B9B05
:100770004B55B5FAADBAD4A54A5DD5557555FBAA0A
:10078000BAAAEAAA5C39754ADDCBD5A9CA65B3B95C
:100790006CE5AAAB6A55D95A555755442329EC67DD
:1007A000BBAA5CD55575555D55AEEAAAEAAA65E5C2
:1007B000AB2A57E5A473F7AB5FFDA94A3A75C94F59
:1007C000B5BAD4DF4BA77CD555C564B3CAA93A5591
:1007D000CB6CE5AAEAAAAAABEAAAEAAA5CC8CF56F9
:1007E000E5AABAAABAEAAA552EEFDCE752D239E94D
:1007F00066CB5736978A6A972DA7B2E554B6948B85
:100800002895CD562E6C45ABE4361D3416FAD3E947
:10081000A0392A37A0A1743A9D8E329D4E2F95544F
:100820005249259D73CE49E7A453F2B2CB6D884E51
:100830002AA59472DB947297BB9554B7BA4AA9D68D
:100840004A2BAD7458DBB9DDCE8DF3AD72B7B2ABC8
:100850005EAD5AA956AAD5256B7529E554ADBAB730
:100860004BE5DC7A3B251F86959AAD2A55A5AAFA59
:10087000AACA5266ABA2CC2A773B65BBA2AE8AAFAE
:100880006C57A9AA5455AAAAA8F60A9F7BE9A36B9C
:10089000F9365B74557555315655F457156B5D45F2
:1008A000557A573A4DD7B2B1BC566E99DD9157D5AE
:1008B00055C55A571563555D558C5595AB50244B0E
:1008C000B961A1F4D6EEDCD6B9BC727625F3CAD9EB
:1008D00095CC2FA55232AF9C545B25950CCD322F71
:1008E00060ACE0A4909C55368C3A57BBCBD5CED9A2
:1008F000B5B2CECEBA734AED5CED2E572BA9D2E934
:1009000078D3DB9017CEA5BB64259554B27297922D
:100910007C5BA7DA3AD5D6A9B64E116EB77129E736
:10092000D4F776BD5656D96DD8CD2A1B86D24A76D5
:10093000AE942AA5BA6C72B7AE6C55AE7295CDA6C0
:100940007295AB5C25575D95BA5C25B751B9B097E8
:100950005D87FCEC72B95CAE3AB55C2E97DB7095A6
:100960005D2E97CB6D7AEBACC360D0383237602602
:100970006595ADA5724E55E59C54AE56CA29182909
:100980001D2CB595AEDCD5AB564BD5EA5EB99DCBEB
:100990006EC7E16597CA29A79C72CA29B90D5BC9C0
:1009A00065A74AA96CB9CB9D2E7739952EE53AA754
:1009B000944BBAE9AA5255AB6A7575E92B555D554A
:1009C0005F15D3D659679D5D56AEBAAAAB72CA29D8
:1009D000B274E874FEDD654BFB34914E7B9D3CF9AF
:1009E0008E2ABB92D97ED5C9DD2D979D7AB5561F2B
:1009F000FC964EA7D3116E977295750A9D5B59CAE6
:100A00004A052F66E5AD9DB3DBD8B7CAB999DCD0EE
:100A100062B6B2D9CA66439B735BE7F64152373779
:100A2000D09CCD87C6EC76A75CA953B9CAC694CD35
:100A3000070FE6F359E5946BBB5535822AA91C9143
:100A400072D2F1E5F359E59C6ABB558E5539E7AE94
:100A50009D2A752A57D9109B2D756A55D950573B39
:100A60003793BA9C2A9B52972A5557AE7255B9CAEA
:100A700056572D2B57CAD55555AEAAEB5BC9B3397E
:100A800055AEB24E3AA5D24959212A9BCDE7E3DFB4
:100A900056D24965974A2E9D54D2C9AA238AA85492
:100AA00075AAABBAAA3A555D55DD55ADAA52A55205
:100AB000B54C7F4AC94E55A952AAEAAAAAEAAAAEDB
:100AC000EA5457AAABAA4E7FC5249554CA29A994C3
:100AD000726EBBCE86FEAD56444AE9B452CA274B6D
:100AE000A54A76AAEA56A9565925D5A9D4A9AA5B3A
:100AF000A53A592A5572AD94D269A59E2C05B96DB7
:100B00009574AE942AE574A914912BA2534CAE9817
:100B10006E2A77BEAED67D9752A594734A0E3B4699
:100B2000379B228B6EB6E8A21BB602281F70E79C8B
:100B3000DB6EB7DBAD545239A7E4361DDAD2E9AD2E
:100B40009252E9D09C6E9D4E077BA5955452492543
:100B50009554D2B990356C36E2743A9D4EA7A34FA6
:100B6000A7D3E9743ABDDD6EB7DBED76BBDD6EB7BA
:100B7000DBED76B6ED76BBDD6EA305191FD0944E86
:100B80002AA9A4726E3B16D3E9AD924A3AA7B34B99
:100B9000159494DE2A27B7524925B7C3425B2595A1
:100BA000E4B4E9743A9D4EA7D3492595545249259A
:100BB000954EA7D3E9743ABD25043D37D095DD6E37
:100BC000974AA232BD5552C96DE84E6F9554721BBB
:100BD0003A9554D239E79C93CA6E57721B083DBBB5
:100BE000DD4A65B7DBED3AC877E99C73CE3985BB42
:100BF000EC522948388B48A974D062CE39E79C73EF
:100C000076BBDD6E97CA39E794DC86EEF476ABA44A
:100C100073CE39E79C73DBED36FA747AABA473CEEE
:100C200039E79C73CE39A7E4361DB4052A37D09B2B
:100C3000DD2E9554524925955452A5D3E958D3E950
:100C4000F0964E6FB74A2AA924129592A13FADA4FF
:100C5000546C3B19CE766E1BF276CEC155E14C8DAD
:100C600038990E1A4C2B892FE7E046DCA59DB3C3BB
:100C7000763B177A95740E5BA3339D4EA7D3E97428
:100C800052492595422A322FB0BC545249259554D9
:100C90005249DEB492844B259554524925955452BD
:100CA0004965B74B259554524965479DDC6EB7DBC6
:100CB000AD9278B2EB743A9D0E5FE9909B73524906
:100CC000259554D22962E79C73CE39E7D3E9743A6B
:100CD0007E74A583D6D25B65B74AEA741892DBEDC1
:100CE000763BA5B2C36E2BA9A4DAA6D3D9A57252BE
:100CF000E12B9D4EA75B6EC36E76A9D018DEF8B6C9
:100D00004A2AA9A4924A8EDD743A9D4EA7D3E9746B
:100D10003A74A5D3E9743AFA743A9D0ECD3237E0AD
:100D2000211D7F3A9D4E872DFC66974A2AA9A492E1
:100D30004A2AECEF9CC3B573CED9E9B26FB7DB6D2D
:100D4000D8CA2E95738A4929B94D074B66974A49E7
:100D50002515B2ECD05798B3DBED76BB0DEDE9ED80
:100D60005649259554524925ED76D43965A34D3B16
:100D7000872F25A1BBAC1C655BE7945472CCB9618D
:100D80003BE7A4924A2AA9A4924A2AE794DCA6ED5A
:100D900076BBDD6EB74B25A1243737B0B954CE39B9
:100DA000E79C73CE49652757CE39B70D5DE9AD7322
:100DB000CE4965475776BBDD6ED7E15F49E7A4C2F0
:100DC0005FD0527AE4659748B3A12BBDB5DB2DCC3B
:100DD0002895734A2AA9A4924A3A27B593CA6EB7AE
:100DE000DBED76BB0E16DD39E79C5372AC3A072972
:100DF000AA6D3A6829BD754E2ABB4E074DA5B34B67
:100E0000E5DC36E84E49259D734E2AA9A4924A2A6C
:100E1000E79C73CE39259D73CE39E71CDC041B108B
:100E20000058AC56565610565656465656561056FC
:100E300056005656105656564656560200020103A4
:100E4000030303230320032B030B130B000B438B20
:100E5000030B1308032B1B105656465656561056B6
:100E60005600565610565656465656561056565614
:100E7000AC58002B0308130B038B430B002B132BD5
:100E8000032B032003230323032301220022050253
:100E90001800000018050200181818000908400D75
:100EA000410D410D410D4009200080C060B0180087
:100EB0007EBF5701FA005EF000DF1F03000F003E07
:100EC0000300F7E00254200400040005030920BFDA
:100ED0007E0018B060C280001FDF00F05E00FA01E3
:100EE00057E0F700033E002F002303050004000431
:100EF0000004001720000080C0E0F000FC7E7F7F2F
:100F00007F7F7F7F7F7F7F7F7F7F7F7FAEB0B73B9D
:100F100083BDBEBE3FBFBFBFBFBFBF80BFBFBFBFE0
:100F2000BFBFBF06011D387BF70FEFC0DFDFDFDF7C
:100F3000DFDF1FDFDFDFDFDFDFDF000800080008A3
:100F4000000B070F0F0F0F8F0F800F8F0F8F0F8F5B
:100F50000F17207F7F7F7F7F7F7F7F7F7F7F7F7FD8
:100F60007F7EFC00F0E0C0840000BFBFBFBFBFBFFA
:100F7000BF80BFBFBFBFBFBF3FBEBEBD833BB7B01B
:100F8000AEDFDFDFDFDFDFDF1FDFDFDFDFDFDFC081
:100F9000EF0FF77B385D01460F8F0F8F0F8F0F809C
:100FA0000F8F0F0F0F0F070B000800080008000934
:100FB000080401F189C9E9F1010409080401F109F2
:100FC0000949F101040F1000F50101F50171557196
:100FD00001F50101F50000230222032202AB0222E7
:100FE00003220223403D105656465656561056567A
:100FF00000565610565656465656561056560056D9
:1010000056105656564656565610565600565610B8
:101010005656564656565610565600565610565662
:10102000564656562B0308130B038B430B002B130A
:101030002B032B0320032303230323002303230376
:101040002303A803230323032340030303032303EE
:1010500020032B032B132B000B438B030B130803D1
:101060002B0E3700000080000880C8E070385C0E4E
:1010700000E070B91C0E570301EA0000FD0000EF0C
:1010800000FA0000FF0000FF0000FF0000EF00FF7B
:101090000000FFF84827FCFCFF0000EF00FF000005
:1010A000F70704E80F0FFF000007001F0000FF0014
:1010B00000FF0000FF00000000000000000000072B
:1010C00000003F00000E380D025B3870E0C0802049
:1010D00000220022400000FD0000EA0103570E1C20
:1010E000B870E00000FF0000FF0000FF0000FA0001
:1010F000EF0000FFFCFC2748F8FF0000FF00EF00B6
:1011000000FF0F0FE80407F70000FF00EF0000FFEB
:101110000000FF0000FF00001F0007B040DF0000DC
:101120000700000200020002000F38880000008063
:10113000000880C8E0F0F8FCFE00C0E0F0F9FCFE1A
:1011400000FFFFFF7F7FBFBF00DFEFEF07F7FBFC74
:10115000FDFEFE00FFFFFF00EFEFEFE0EFEF0FEF10
:10116000EFEFE0EFEFEF00F7EFEF1FDFBF007FFFE4
:10117000FFFFFFFFFF0003070F003F7FFFFFFEFEA3
:1011800001FDFBFB00000000000000000103070060
:101190001F3F7F000F380DF2FBF8F0E0C080200009
:1011A000220022002200BFBF7F7FFFFFFF00FEFC66
:1011B000F8F0E0C000FFFFFF00FEFEFDFCFBF707BC
:1011C000EFEFDF00EFEFEFE0EFEFEF0FEFEFE0EF2C
:1011D000EFEF00FFFFFFFFFFFF7F00BFDF1FEFEF1D
:1011E000F700FBFBFD01FEFEFFFF7F3F000F070343
:1011F000B04FDF1F000703010200020002000214CB
:10120000180E0006020000000000000000008080B0
:10121000808286000E00000000000080008030B058
:1012200034B234B234B23400000000100C1C0D0C87
:101230000D0CAD0C0D0C0D1C0D0C0D408014180E7A
:1012400000E612C808E404740404F404E408C812B4
:10125000E6000E0000FF00BD00F7007F0000FEF674
:101260008282F6FE00000000001F101710171017F2
:10127000B0101610161016101E4080212000D60641
:10128000F6E606D606060606D606261606D606068E
:101290000606D606060606D606E6F606D60000FFC1
:1012A00000BD8300FF00AEAC00FF0000F84C054C11
:1012B000F80000FF00ACAE00FF0083BD00FF00009F
:1012C000FF00F77B00FF00460200FF00004F08E828
:1012D000084F0000FF00820600FF007BF700FF00C0
:1012E00000070606060607060606060706060606A1
:1012F000578606860687068606A64706060606075A
:10130000003D3810001000000000200022002200E4
:101310002200220002000204020002008000880075
:10132000800080008800080008000800080008000D
:10133000880088000000800088008800881008006D
:1013400011001100110001200020002000000020E9
:101350000020000200020000100010001000100029
:1013600000000020002004200400040014001400E9
:1013700000000020002000000020002000040000E9
:101380000004000000100004000000000000000045
:101390000001000000000004000400000000000044
:1013A0000000000000000000080000000000000035
:1013B00000000000000000100004008000804000D9
:1013C00040000080008000004000400000800000DD
:1013D00040000000000000000000000000000000CD
:1013E00040000080000040004000008000800000BD
:1013F000400040800080001502048A04004520055A
:101400000014081400140210001100110011001142
:101410000011001100550011001100112001000100
:1014200000110010021400140814000520450004E7
:101430008A04021500200120002000200020000066
:10144000000000020002000200020002000200028E
:1014500000025522002200220022012A10820002EE
:1014600000020000000000200020002000200120D9
:101470000000000000000000020002000200020064
:1014800002402204020002000200020002000201E7
:1014900000000000000000000000000108108000B3
:1014A000000000000000000000000000000000023A
:1014B0007D7F00023D3F0808B0B0AC944B27D0CFF1
:1014C0000808CFD0274B94ACB0B008080D0D3529D3
:1014D000D2E40BF30808F30BE4D229350D0D2000FC
:1014E00003071F051F1F151B1F11111F110E1F15AD
:1014F000111F05011F111D1F041F001F0010101FC9
:101500001F041B1F10101F061F1F011F1F111F1F6D
:1015100005071F311F1F051B17151D011F011F1078
:101520001F0F100F1F0C1F1B041B071C071915137F
:101530001F111F001F001D151711151F07041F176E
:10154000151D1F151D01011F1F151F17151F001742
:1015500000002000D5F08D14A1C881CFD9F1AF20B3
:1015600000594F552043414E20484541520A4120E1
:1015700044495354414E540A59455420434C4F5307
:1015800045520A445241474F4E20524F41520A4160
:101590005320594F5520535445500A5448524F55E3
:1015A0004748205448450A444F4F522E2E2E003BA8
:1015B000371019795C9DCD56AEB295AD4E75652B41
:1015C0005B5D555DD555D555ABAAAE5A77D555550A
:1015D00057E5AABA2A5795ED5484B1C71A75288FD2
:1015E0002F5BB9CA56AE3A5597EA4A5D7555B9CAE6
:1015F00055361B5DD8CB6EB7EBF8F3D9CA662B799D
:10160000D555E52A57A94E75AAB2B186A6701475AC
:101610002E57555D555DD5555D555D55572E2C851D
:10162000BEA4723A1CA59554D239A9F05695ABAA1E
:101630002B75555D555D95AB1A95314655D5559D24
:10164000CA55755575555715A2945A49A9A4924A79
:101650002E9554D975085C4796764E2A1DFF555D28
:10166000555DD555D9EAAA8A35172A2B5B954BD5F6
:101670005575AAAEAA53C598CEA6D35BBBDFDAD9FF
:10168000F1B95D2AA99C1B4D5575AAAEAA535D55AB
:101690009DAA684353CC31662B5775555D5557D578
:1016A000558D3F25ED5E49BBDF6E9DA2B65B5E3B6F
:1016B00002ABEAAABAAAAEAAABEAAA8A351512E325
:1016C0004DAEB295ABEAAABAAAAEAAAB5C5557E545
:1016D0002A57D96C5CD96C369B8D349BAD5CD55543
:1016E0007555575557652BA264272F5BB9AA5C55D2
:1016F00057E5AA7295EF542E5BB9AAB096044445FB
:1017000046454E43450041545441434B0043484FE6
:101710004F534520424F4E5553004C4556454C20A3
:101720000016277494F9A8F27165974E49E7E4BA58
:10173000B35166A3CE2AB94DE7A4924A2AA9A4D2EE
:10174000B96E75CE492595545249256DBA925BBF45
:10175000B77B25EDA5D3FF72A99C934EAAFF745CBD
:101760002B4A3EC6F43ABD4E565249E5B89D939574
:10177000CE6EB3DBF096CE6EB7DBED76BBDD6EB72B
:10178000EB74580257454C4C20444F4E45210A54A7
:101790004845205249434845530A554E4445522036
:1017A0005448450A4D4F554E5441494E0A41524501
:1017B00020594F5552530A4E4F572100513760E878
:1017C000BA5255D705B767950DC3E974BB521F517F
:1017D000DD95AC6EAA7BE7B7E96D7ABB0E16CF2A12
:1017E000A79C72CA29E554AD9C72CAD5B752E57D53
:1017F0005545C474D5552B55D7E5AABA545D4A55FD
:10180000ADAC3AE5CA56D2553ED82D9FCC5E4ED9E6
:101810004AEE435456D9506723AB9C74A95C2AF511
:10182000F5BD5A55A752A9BEEF6455EAAFAABB5AF7
:10183000555F95AAAB4E7575AB7AB9BC5675C59513
:10184000EDAABAAA727555CA662BD529752AF82849
:10185000AB6C2A5BD9AA4E555775A5B2D5555DD943
:1018600010955536C2EAAA9DCE2A9B55AE94AB5C24
:1018700029579553F2AAAB56EA54D5A95355A75AFE
:10188000D595EAAAAEAAABEAAABAAA56B5AACA558B
:10189000AED4555D5597EAE4329FCD565775555DE8
:1018A000D55575559553EA56EA568DBEEC5239A773
:1018B000A492DB5823ABCEA6EA2A5755575557E5D5
:1018C000AABAB2A9A4BAEAEBAA2A55F72AD5A5CA98
:1018D000A552B9CA76AA3A5597BAAAEAAA2E559736
:1018E00072555D95AB5C2A97CA552ED555B954579C
:1018F00075555D55ABCA77AAABEA529DAAABBA94AF
:1019000053CAD655759593D77D55572AD7ABD4551D
:10191000EFD2A9EE4E27E9B259E5D4655395CDA58E
:1019200072F96C2E555D954BAD2A975A55AE6A5596
:10193000577555AB5AD57279A9552A95AB5465ABF5
:10194000935DDD5597EAEE4A2EBB77A954EA529D86
:10195000EB5C65ABEBBBAEEFBB2AF75D9DBA54A564
:10196000AED4AA725557D555E5AA7295AB4E55AE71
:101970006A55B9AA5575A52E5BA94B652B57B9CAEF
:1019800055AE7215D7D2A9AA2BD575ABE40524376D
:10199000E8B3D9CAD5AAD4E52A79B9AAD4AA2B9B87
:1019A000AD6CB6AABAAAAEAAB395CD5672D555A952
:1019B000CB55F272AA94AB6565F3715757D555753F
:1019C000555D55ABCA56369FCD87B80A85D97C364A
:1019D0005BABEAAABAAAAEAAAB2A575595ABAAAB9B
:1019E000EAAABA4AAD98F6C9E57AB9CEAEB3B9AAB1
:1019F0005C7555E52A5795CD67D7CBF5F292B3B50F
:101A00007255AEAAAEAAABEA2AC6ABCAAAF8AA5ABF
:101A10002ABBAC4E5DA53AB5AC6CAEEAAACAD555A8
:101A200055AEAEAA5C5536D555D59FCB2E2BBB7483
:101A30005531A5A5AB2A1F6FBE7295BC5C55EAAAAD
:101A4000AB52577555755C57D5C9DBC96D95B595C2
:101A5000FC96C9ABCA77B6AABAAAABD45557A52E7D
:101A600057D9CA85BCD966DB9652D6256FE9565A36
:101A700059E5F26AA92A2BE54A69B754E9E8B6F9AB
:101A800058C7575AC9E8944E2A32A5930A494A279B
:101A90006753644A563A32A593B356A40A41545444
:101AA00041434B5321002044414D414745210059BA
:101AB0004F552054414B450A002527A0A17476BB01
:101AC000DD6EA7CB6E97CA39E59453CE29E5B6D91A
:101AD0005C7689C1EC5239E79453CE29A79C5372A6
:101AE000E5AEAE4BA9DAD5AE76B5BA579D4B2B2AEB
:101AF000395976F9A9FED47649B754CE29A7DC72B4
:101B0000A994534E39E79453CE29A73491D5E94A85
:101B100056B292954CA7D36D4BEF9473CBE5CE297B
:101B200019AD5452DD5239A79C53729B0E656E9BC2
:101B30004C2E97CB9D534E39A79C5372BB0DFA4A3E
:101B4000A7D3E9A0252527A0A17476BBDD6EA7CB7E
:101B50006E97CA3925B7E9D8B34B0C6697CA39E7EF
:101B600094DC063F65B7DB25DD5239A7E448CB6E30
:101B7000974AA7D3E9D09CDD3925A3954A2AA9A481
:101B800092CA3925B7E950E6B66129BB545239A744
:101B9000E4761BF4954EA7D3414B232770E69C7344
:101BA000DBAD5A56B25AB5BA64E52AA54AA9929550
:101BB000ADD5BD6A59C9724A6EB7CE39243276AEF8
:101BC0004FAD5CCAA55CAABE5556C96D7A9B4E6FD7
:101BD000D35B65D3F7A5EA944BA9953C752E9D97E9
:101BE0008ADE29A674AE5CCAA99CCAA93A5547E404
:101BF0005CBA929DEB5C25D3B5AB64EDD2EEE4A963
:101C00009CCAA99CCAA5CAD58C6A9D97CA7EEAAA15
:101C1000D5C9CAB5F3EAAAABAE4A49DDAEBEEABA47
:101C2000DCA5AA5EB5ABDCE5AE5D9D6BABAA5257F9
:101C3000FD957F77E53A59FDA9ED1245E9ED76BBB3
:101C4000DD86F6F476BBDD6E4313232770E69C73C6
:101C5000CE39E7D2E974684BA7D369E79C73CE39D4
:101C6000E79008E54945EF14A4A7D679A9EC763B9F
:101C70001AD3E9D0964E87C5ED7689A2F476BBDDFE
:101C80006E437B7ABBDD6EB7A1090704080C0E0F0B
:101C90000E0C081C010D01FD00EC002044414D41DB
:101CA0004745210A00594F55204445414C0A003010
:101CB0002F754C4AF6AA3A55C9AE54BF2EE7D2E961
:101CC000743A9D4EA7D30EBE4B6F9574D2A9729FE6
:101CD000D3BA5DED3A57C9DA75AE92B5EB5C956C47
:101CE000BB52F2569F52523A67B7DBED763B3C96B9
:101CF000DEAAB89297AAEEEEAAEA4A5D5DD555D55E
:101D0000555D95CBAFAEAA555557ADAAB2CAA5F24F
:101D1000E955EEB2CE5925153CB55552D9EDD63917
:101D20005BCB5B55FD555755575D555D555DD5559D
:101D3000B94A5D555775557555B9547CDAE7A5D242
:101D4000C16FE9F476EB9CDFDA29ABAE2A57755503
:101D5000E52A9FAD7C3EBFEF6429279D5476F82D80
:101D60001D7D74D145175D3A9D4E47978E16302FD5
:101D700075F84AA7B74A2AA9A4924A2AA9A4924A5E
:101D80002AA9243C97DE2AE99C54761D9E9554523C
:101D900049259574CE6EB7DBED76782CBD55C159CB
:101DA000E9B4925249054F6D9554524925A5D2C1C7
:101DB0005352E9E0B7747ABB750E1E4A2BE99C5466
:101DC00076F82D9D4EA7D3E9743A9D4EA7D3E974BA
:101DD0003A9D4EA7A3054445414C203120444D4730
:101DE0000A0020444D470A0054414B4520002B2F48
:101DF000D09DDD2E955472BB5452C9CB5DEE7297C7
:101E0000BB9C92CA6E67D2A5D3E974C9D2E9745A51
:101E1000E3D46D93BB653657A94BF5A7E5ADB6A7DF
:101E2000DE559D73572B2555ABEDB91491ADBEBE54
:101E3000CADDAEEA2BA54AD6AE747662A9D2E974A1
:101E40003A9DBBDCE52EADAD522BB5F56E375B5739
:101E5000A77AA54AD575F777AA53FD2D95956E22D9
:101E6000A7574A312D5B12F23B9D4EA7D3E9743A36
:101E70005DE752D2F7EEEF6E998B6E555D5557D5F3
:101E8000557555755557E52A1B557657AB52B552C2
:101E90002E9B5C29AEA40AC92B1997524A2DE3AA9E
:101EA000AECA555D5557D5557595CB46E59454CA80
:101EB00029554AD5AE964A2AA7A492DB102EB3BB69
:101EC000EB9592E95C5D555DD555D5555D555DD574
:101ED00055B98AF7A59250122B2FD09DDD2E95541F
:101EE0005249E59C73CE39E79C73CE39E79C541276
:101EF000D5B874DB60B8B4545249A5ED76BBDD6E3D
:101F0000B7C386BC52492595545249259554524928
:101F1000A583DE922A24AF6490D05249E59C73CE0B
:101F200039A7A492DB102ED3E9743A9D4EA7D3E9CA
:101F3000743A9D4EA7B34B25A124302F90A5A492AF
:101F40005B2597CEB918B3AA555C69267B3A9D2EBE
:101F5000A5AA52559F4EA72DA4A49C734AEE647463
:101F600095DC56EE53AB5B39592D7752DACAB9641A
:101F7000AB76B52BA54A55A5AA92D5AEEA6B573AD2
:101F8000E7DC4A9E5A49AB94BC9592D239FC6D95D8
:101F90005476291569652B57AB54ED9CABAC943244
:101FA00079259DAB5D2A95AB6CB6E2DD2BB5527FF2
:101FB000B2DDC9ABBD52AB6AA5F6AE6C7299EADE72
:101FC0004D9545DC76BBDD6E9554D2AE53A953A733
:101FD00052E9ECCE49554E9553A5EA72B5ACDD25D4
:101FE0002F75E5AAAEAA4EE5439C67744377E9AD29
:101FF00092CA3A679DAD5595ABAA56D5A9CAC59464
:10200000CFEFF79775522A1DFC67B7F6AB56FD5513
:10201000AB7ED5EA5EF5AA57BD6A759F7ABB1D30C7
:102020002F90A5A4924A2AA99C732E74A5D3E97473
:102030003A9D4EA7D3E9743A0D1929E79C736ED8DF
:102040006DBBDD6E95545249259DC3DF56492595DC
:10205000940A1ECD226EBBDD6EB74A2A69D7E97499
:102060003A9DDD39A9EC3A1D14E586EED25B259543
:10207000944A87E7B49252E9E03FBBDD6EB7DBEDEF
:1020800076BBDD6EB7DBED763B250F74D9D3EDCA99
:1020900075BBD25DD7D5AD4EA7AAD2EDEAAEEEEABA
:1020A000AEEEEAAEEEEAAEEEEAAEEE6A575A13E9EB
:1020B000D2ADAEBB72D75DABD3DA57B692FB7436F6
:1020C0009D4EA7D3E9743A9D4EA7D3E9743A9D4E2D
:1020D000A7938A4CE9743A59E9743AA9C800250FC4
:1020E000753AF89137BD75CE39E79C73CE39E79CC8
:1020F00073CE39E79C73CE39E79C73CE39E79C7376
:10210000CE39E79C73CE39E79C73CE39E79C730ECA
:102110000C11FF01010161C1E171391901FFFF00DB
:102120000686C1E0E1C1800000FF0101010101015B
:1021300001010101010120202020204152540A20E8
:102140002020435952494C0A47554943484152447B
:1021500000434F44450A53494D4F4E0A484F4C4D9A
:10216000455300253F2B59C94A56B29295AC642578
:102170002B59C94A56B27297AAEAAE4AD5ABCE7568
:10218000AE94B397BB5C252BD929E5AADC95AC644A
:10219000252B59C94A56B29295AC70984DADAA53A9
:1021A000D5A95C3ADD29E5E35352EB9667C3523675
:1021B0001FBEF3CAABB295CF2A55A92E9B4EE73A64
:1021C00095EE5CAFDAD5ABD4CA65B339B572A1313F
:1021D000BDAD64E752A954EF2E9DCE66775CD9520F
:1021E000FEB25B6553A9CE75AE939D224CA7D3B9C1
:1021F0004BF52AD5B94A6EA3742ADBEA56A52E37C9
:1022000099EBFEFFAD3D9D54F64F7D4A524925D5D1
:10221000FFBF748ECB39E794546CCEA952AB5EF5F8
:102220002ECFE5755AAA2D916EBBD5443A9D6EBB53
:10223000B6443ADD76ABD3443A2D559A48A76F257C
:102240009554447C9E898DC97AEFF9F8F8086D9E03
:10225000892D4D48E7BDF7DE13B989B8AA5495AA70
:102260004A7DB9735DDDB92B59B2EAABACDDFEBF77
:10227000B6DB739DB6A73E9DB5DBB7CB9255B2DCFE
:10228000D575EACB9DFAAAAA5255B20A03051F0ECC
:1022900004713798EDB673E98A301B6384A9543A08
:1022A000BDFD2A752B55CED97564CA39E75CBC4A89
:1022B0002AA9A4924A2AA9A4B2DB5DED3AD7B9EDC6
:1022C0005649E7948C31A99CB3736E9D732E5E259D
:1022D00095545249259554524965B7BB4E6DD3E983
:1022E00052AA942AA54AA9747A9B4AF59FFA7F9527
:1022F000FA94B2EBADDA6ED3E97425D3A954253B39
:10230000B5AE54322A3BAE78436E9CCBA5724A6E72
:10231000D3B94E77EE757CFC3A9DDD2AC79C558A71
:1023200072B973DB28974AC79456D249B98E8F9FEA
:102330002BAD6AE2A48C975FEDE4D44BA76CA44B61
:1023400034C51C71544BE594730A4F4A5DDB5BF551
:102350002A9DDEFE4AC9DB6D6BB7ADDDB6762FF385
:10236000CBBC52BA92D5AE64A5542D2BBB6BD7AB68
:10237000542A9DEA55AF7A554A9552A5945452492C
:1023800025D5A9539FFA5CB7BADCE52E77B94BA7E0
:10239000EEED36956A7557E9AC74EE569F7AA9A4AE
:1023A000924AAA522AF5B94E7DAF4A29A952A95498
:1023B0002A954AA5A4924AAA52AA57A954AF4AA953
:1023C000524A2AA9A44AA552A9542A954AA552A913
:1023D000D4A73E77B94B6ED7975BC7C79F5652C9F4
:1023E000CB5DEE72955DE6B3D94A6E2BB9ADE4B61E
:1023F000B2F96CD629994E3B974A292727CAB6AC21
:102400005C2DCB662B9BAD6CCBCAD5B26CB6B22D16
:102410009D2AE5E425F7D9F85EA7535FD7CE65B7C7
:10242000EB529F55A72EA74AB95297AD6CB6CAD5A5
:10243000B272F557ADFA2B9BAD6CCBCAD5B25AF53B
:1024400057A953AE56E554D96C65B395CD56365B56
:10245000D96C3E9BDD66B74B2595E354928E309543
:102460004AA79395EB74ACD1C7EB9C5476BD5552FB
:10247000492595DCC66BD769E9EC76BB644A27A988
:1024800099AD92CE39E9A45BC7C7C72B974A2AA753
:1024900096CAB9D9795BDDEA56DBF97899964EE9A7
:1024A000CE2A2727940A4721287CA5D25BB5B6DB24
:1024B000E425B795AB4A39D7ABCE49259554F2728E
:1024C0004A4AE59C54576DB74BE59CBA753A9D4E08
:1024D0002BE99C5452D9ED76BBDD6EB7DBA592CAD1
:1024E0006EB7DBED76BB54CE4965B7DBED76BBDD71
:1024F0006EB7DBA5924A2AE79494CA6EB7DBED76F5
:10250000BBDD6ED3E9743A9D4EA7D3E9746CD995BF
:10251000545249E59C2A2595549773CEB9CB29ABE3
:102520005C259D734EC94A2AB2747ABBDD6ED3E135
:10253000DD6EEF9C9393D9AD4E67974A39A54A2A31
:10254000AB54AA9595CEA9E510D14EAAEF558C763D
:102550007B5ABA5BC764B777752E26BB3D95924E02
:1025600071D92D533A6DB7A7F35B79293B0C044E13
:102570004F20494E560A534C4F545321005350415B
:1025800043450A4F43435550494544210008081E1E
:102590001E1E3F7FDF15140808787878FCFEFBA824
:1025A0002806075476A99C93CAAE733C376A9BDC15
:1025B000C62C553A9D4EA7D3E9743A9D4EA7D392A7
:1025C0004AAA743A9D4EA7D3E9743A9D4EA7259521
:1025D00054E9743A9D4EA7D3E9743A9D4E4BBC7AA8
:1025E000FE5CAA93DB65A77261C87BCF9F4B7572B7
:1025F000BBEC542E0C79EFF973A94E6E979DCA85EA
:10260000218F57A5D3E974BADC95AC64BADC952C5C
:1026100077BADC955239AF52AA2A55F5E972A7CBA1
:102620009D2E7725CB5DC972A74B5749ADCB5D95E4
:10263000AAEB74B9D3E974B9AB52954C975255A52E
:10264000AAD19CCD56F2D2E9E8D2E9E8A28B2EA914
:102650006425D395AC6425D3954C57325DC9742558
:10266000D38A4CC94A56325DC94A56325DC94A5668
:10267000325DC94A5672DCAD4A2D9D72A55CE522D9
:10268000CE2A1B323D8AF29DDC2E3B158EBCF728EC
:10269000CA7772BBEC5438F288932AF7B52BA56A37
:1026A000953BC99A5536545A9D4EA76B97AE64BA5E
:1026B000929DAB64252B992E5D5AEB4A56B2929DA2
:1026C000AB64252B99AE5D252B99AE64E9C2D52567
:1026D000F3EB7D3668CAE99CD339C7E564A5E3729C
:1026E00032EBB89CCCCEE674CE71392EC775C94A90
:1026F0002A5C0147415445204C4F434B530A424505
:1027000048494E4420594F552100080B000202024F
:10271000000009040000010202000005240010016D
:102720000524010101042402060524060001070511
:10273000810310004009040100020A00000007059F
:102740000202400000070583024000000403090460
:1027500012010002EF020140412336800001010214
:10276000030141726475696E6F204C4C43006D69C2
:1027700063726F63616465000A000C11FF0101FD63
:10278000FD0D0DFDFD0101FFFF00008FCFE0E0CF4B
:102790008F0000FF0101010101010101010101019F
:1027A000FF0101FDFDCDCDCD0D0101FFFF00008F2B
:1027B000CFECECCC8C0000FF010101010101010113
:1027C00001010101FF0101FDFDCDCDCDCD0101FFD5
:1027D000FF00008CCCECECCF8F0000FF0101010169
:1027E0000101010101010101FF0101FDFD81C1FDA7
:1027F000FD0101FFFF00008FCFE7E3CF8F0000FF57
:1028000001010101010101010101010120412053E8
:10281000574F5244004120534849454C4400412001
:102820005343524F4C4C00485020504F54494F4E48
:1028300000534F4D45204B45595300594F552046A5
:102840004F554E440008080AF403808003F40A1030
:102850001002050A050201080000080102050A0528
:1028600002AA550A000000000000000000000A55FE
:10287000AA3F20007F7F7F7F7F7F7F7F7F7F7F7F5B
:102880007F7F007F7F7F7F7F7F7F7F7F7F7F7F7FD7
:102890007F7F007F7F7F7F7F7F7F7F7F7F7F7F7FC7
:1028A0007F7F007F7F7F7F7F7F7F7F7F7F7F7F7FB7
:1028B0007F0000BFBFBFBFBFBFBF80BFBFBFBFBF25
:1028C000BF00BFBFBFBFBFBFBF80BFBFBFBFBFBF16
:1028D000BF3FBFBFBFBFBFBFBFBF80BFBFBFBFBFC7
:1028E000BF00BFBFBFBFBFBFBF80BFBFBFBFBFBFF6
:1028F0000000DFDFDFDFDFDFDF1FDFDFDFDFDFDF66
:1029000000DFDFDFDFDFDFDF1FDFDFDFDFDFDFDF76
:10291000C0DFDFDFDFDFDFDFDF1FDFDFDFDFDFDFA6
:1029200000DFDFDFDFDFDFDF1FDFDFDFDFDFDF0035
:10293000000F0F0F0F0F0F0F000F0F0F0F0F0F00D4
:102940000F0F0F0F0F0F0F000F0F0F0F0F0F0F5F56
:102950008F0F8F0F8F0F8F0FA04F0F0F0F0F0F00C5
:102960000F0F0F0F0F0F0F000F0F0F0F0F0F00396B
:102970002789CE55729B4EA7D3E9743A9D4EA7D3B3
:10298000E9743A9D4EA7D3E9747A5BC9CE11E97414
:102990003A9D4EA7D3E9743A9D4EA7D3E9743A9D68
:1029A000B62A95EB64F5AF5254F09C87CFF8E03926
:1029B0000F9FF1C1731E3E63739DACEC3A9D4EA711
:1029C000D3E9743A9D4EA7D3E9743A9D4EA7D3E953
:1029D000ECB272DD56A7D3E9743A9D4EA7D3E974E1
:1029E0003A9D4EA7D3E9743A9D4EA7DB0E0A585084
:1029F0002020000A44462020000A415020200048A0
:102A000050202000040409060609040406090906EA
:102A1000FF81ED05F595D505DD85B1A5ED017F7F3C
:102A2000405E525A4A6A026E425E5455457F7F5557
:102A3000057D415D15545751DD05FD017F7F415DE9
:102A40005750555D017F405F505E427FFF01DD5171
:102A500055155754D515F585ED21FF7F4056545433
:102A60005054145654565256407FFF09ED21ADA5DF
:102A7000B7A0BFA52DA5AD81FF7F405F505B407E15
:102A8000026A4B58535E407F7F01FD416D496F21C3
:102A9000ADA58FA5BD81FF7F415D515D4475155585
:102AA0005456525A407F7F455551DD457511750585
:102AB0007515FD017F7F415D505B416D016D415F8B
:102AC000407B417FFF01D755DD01FF81BD25ED81B1
:102AD0003DA1FF7F405F427A426E086B42486F40E3
:102AE0004A7FFF01EF89B9A1A181A1A1B989EF01B5
:102AF000FF7F405E425A4A7803784A5A425E407FDE
:102B0000FF81FD05EDA9ABA0BF81ED05FD01FF7FB4
:102B1000405A525A527E0276525A425B487F7F4157
:102B2000DD455D511754D595B5A5AD81FF7F405F5B
:102B3000415B497B425A5278525E407FFF41557556
:102B400005D57D04DF01F515DD417F7F445F5550DC
:102B50005B407F415C47505F407FFF01FD05DD55D5
:102B60005504F711515515457F7F4076445D417FEF
:102B700004774451555C417F7F417D05DD515555BA
:102B800055D5555575057F7F405F515D405F515D5F
:102B90004555515F407F7F21BD85B185FD0077C5DB
:102BA0001555DD417F7F415F405E52565055455778
:102BB0005477407F0F0A14010A050A00080508012E
:102BC0000C060C01190C3200040203000503060078
:102BD000EC2711241FBECFEFDAE0DEBFCDBF11E03E
:102BE000A0E0B1E0E4E6F5E602C005900D92A63F54
:102BF000B107D9F728E0A6EFB1E001C01D92A530DA
:102C0000B207E1F715E1C9EED5E104C02197FE0155
:102C10000E94AA32C83ED107C9F70E9411280C941D
:102C2000B0320C9400006F927F928F929F92AF927D
:102C3000BF92CF92DF92EF92FF920F931F93CF93A9
:102C4000DF93DC017A014115510509F49CC0FA01BA
:102C5000149131965491F2E0EF0EF11CC12FD0E0A7
:102C6000222309F1CC24C394D12C852F877011F431
:102C7000D12CC12CE52FE695E695E695EC0DFD2DC2
:102C8000F11DEC9FC001ED9F900DFC9F900D112454
:102C9000033011F4880F991F289FF001299FF00D30
:102CA0001124EE0EFF1EFD01EC0FFD1F1E161F0668
:102CB0000CF069C0A038B1050CF065C0CB01850FE0
:102CC000911D181619060CF05EC0603471050CF0E9
:102CD0005AC0E114F10409F456C0362F3770CB0105
:102CE00077FD079623E0959587952A95E1F7282F9C
:102CF00077FF04C0332311F02FEF280F66277727C3
:102D00006A1B7B0BB7FD02C070E060E090E89A1B85
:102D1000E038F1050CF4912F961BE22F022E000CE7
:102D2000FF0BDE2ED0942F3F0CF0D12C41E0852FED
:102D3000877009F440E0B52EB694B694B6944B0D66
:102D4000E40FF11D399714F048E0421BB42EBD1872
:102D50002D0D40E82403F0011124AE0FBF1FA60F74
:102D6000B71F1D9D600D711D1124A701460F571F30
:102D7000C32E032E000CDD08033009F4C7C090F405
:102D8000023009F474C0DF91CF911F910F91FF9031
:102D9000EF90DF90CF90BF90AF909F908F907F90FB
:102DA0006F9008950A3FA1F1B20E0B3F61F72B150A
:102DB00051F3BD01695C7D4F10E000E0091708F098
:102DC0009FC0FA01E00FF11FE491F0E04F010C2CDD
:102DD00002C0880C991C0A94E2F727FD06C0FB018B
:102DE0008081F82CF0948F218083332361F0273089
:102DF00054F47B01F0E8EF0EF11CA92CA094F7012C
:102E000080818A2180830F5F1F4F6F5F7F4FD6CFF6
:102E1000B20E2B1509F4B7CFBD01695C7D4F10E0F0
:102E200000E0091708F066C0FA01E00FF11FE49115
:102E3000F0E04F010C2C02C0880C991C0A94E2F7B8
:102E400027FD04C0FB01808188298083332351F052
:102E5000273044F47B01F0E8EF0EF11CF70180818C
:102E6000892980830F5F1F4F6F5F7F4FDACF6FEF2E
:102E700070E0032E02C0660F771F0A94E2F7609598
:102E80007095972E8B2C820E281509F47CCF8D011E
:102E9000095C1D4FF12CE12CE91630F5FA01EE0D1D
:102EA000FF1DE491F0E03F010C2C02C0660C771C82
:102EB0000A94E2F727FD05C0F80180818623862960
:102EC0008083332359F027304CF45801F0E8AF0EDB
:102ED000B11CF5018081892187298083FFEFEF1ADA
:102EE000FF0A0F5F1F4FD8CF2F5F4C0F5D1FA058F9
:102EF000BF4FCACF2F5F4C0F5D1FA058BF4F89CF68
:102F00002F5F4C0F5D1FA058BF4F51CFE92EF12C02
:102F1000FA01E60FF71FA95CBD4F60E870E06E197B
:102F20007F09CE19DF098E01000F111F41E050E02B
:102F30007A01032E01C0EE0C0A94EAF7592F4B2DAB
:102F4000892E932ECF93DF93ED01EF96EF96229685
:102F5000A590C590992059F0AE9C5001CE9C60017F
:102F600027302CF4F880D094FD20FB28F9922223FE
:102F70003AF0FC90C094FC20FA28FD920C94C11702
:102F800011965A9529F74A9551F0582D23951124F9
:102F9000E00FF11DA60FB11DC60FD11DD9CFDF91D6
:102FA000CF911124F0CE0F9302E020E00E9413167F
:102FB0000F91089580918E0681110AC080918F062D
:102FC00080938E068091900680938F0610929006D3
:102FD00080918F06811106C08091900680938F06A4
:102FE0001092900608958091360280959091350256
:102FF00089230895A62FE091B106F091B2069F01B2
:10300000285E3F4F608151819281411102C097FF3C
:1030100007C0861305C0A51303C0892F8F770895B5
:103020003396E217F30771F7882309F452C0AA23F5
:1030300009F44FC0B09197063FE0B39FA00111245F
:10304000415051098417150609F443C04091980670
:10305000439FA001112441505109A417150609F4FA
:1030600038C0632F0E949E32292FE0919306F09181
:103070009406E80FF11D8A2F0E949E32492FBF014E
:103080008B9F600D711D1124E091B306F091B40681
:10309000E60FF71F8491942F969596959695E22FBB
:1030A000F0E0939FE00DF11D11247EE1879FE00D7C
:1030B000F11D1124E05FF54DE491477081E090E04F
:1030C00001C0880F4A95EAF7E82381E019F480E00F
:1030D000089581E00895EF92FF920F931F93CF938D
:1030E000DF937C018B01EA0140E06C2F802F0E946E
:1030F000FA17811141C0E091B106F091B2069F012B
:10310000285E3F4F828187FF0CC08F7784568230C4
:1031100040F480818017110621F481818C171D06EF
:1031200071F133962E173F0769F7E7EBF6E089E870
:1031300097E0268127FF08C020812017110621F47F
:1031400021812C171D06D9F037968E179F0789F716
:10315000E114F104F1F0F701808180171106C9F440
:10316000918181E09C171D0651F0DF91CF911F9155
:103170000F91FF90EF900895E114F10411F480E0B5
:10318000F4CF40E06C2F802F0E94FA178636B9F7F3
:10319000B2CF81E0EACFFC0180913102882311F1A6
:1031A0003FB7F89482E08093E9002091F200822FEB
:1031B00090E01816190614F481E090E0882339F0A5
:1031C000289844E6409330024091F1004083222346
:1031D00039F02091F200211103C02BE62093E80082
:1031E0003FBF08958FEF9FEF08952FB7F89483E0C6
:1031F0008093E9009091E800892F807295FF04C0C8
:103200009091F20080E4891B2FBF089580912802DD
:1032100081110DC082E08093240284E08093250216
:10322000109227021092260281E08093280284E205
:1032300092E00895CF93DF931F92CDB7DEB76983F5
:10324000DC01ED91FC910280F381E02D41E050E042
:10325000BE016F5F7F4F09950F90DF91CF91089569
:1032600083E08093E9008091F200882319F08AE3DB
:103270008093E80008950E94F51890E00895CF9398
:10328000DF931F92CDB7DEB7FC018485958597FD4E
:1032900008C02FEF3FEF358724870F90DF91CF9144
:1032A0000895CE0101960E94CB18019719F48981E7
:1032B00090E0F3CF8FEF9FEFF0CF0F931F93CF935B
:1032C000DF931F92CDB7DEB78C01FC018485958515
:1032D00097FF0BC0CE0101960E94CB18019771F4A5
:1032E000898190E0F80195878487F8018485958528
:1032F0000F90DF91CF911F910F9108958FEF9FEF66
:10330000F1CFFC018485958597FD0BC09FB7F8949C
:1033100082E08093E9008091F2009FBF90E00196E7
:1033200008959FB7F89482E08093E9008091F200BD
:103330009FBF90E0089540911E0250911F0220917E
:103340001C0230911D0242175307B4F49091E8001B
:103350009570E1F39091E80092FD19C08093F1001F
:1033600080911E0290911F0201968F739927892BDD
:1033700019F48EEF8093E80080911E0290911F0255
:10338000019690931F0280931E0281E0089580E0D1
:103390000895DF92EF92FF920F931F93CF93DF93E5
:1033A000D82E8A01EB017B01E40EF51ECE15DF0558
:1033B00059F0D7FE12C0FE0184910E949B192196FC
:1033C0008111F4CF0FEF1FEFC801DF91CF911F9153
:1033D0000F91FF90EF90DF9008958881EECF0F93CB
:1033E0001F93CF93DF931F92CDB7DEB782E089831F
:1033F00042E450E06AE077E280E80E94C9190E9446
:103400000619DC0112960D911C910115110589F028
:10341000D801ED91FC910280F381E02DBE016F5F38
:103420007F4FC801099597FD04C0F80100851185FB
:10343000ECCF89810F90DF91CF911F910F9108956B
:10344000615030F02091F100FC0120830196F8CF0B
:10345000289884E6809330020895A8E0B2E02FB760
:10346000F8947D918D919C9166B52FBFA89B05C066
:103470006F3F18F47F5F8F4F9F4F22E0660F771FDB
:10348000881F991F2A95D1F70895AF92BF92CF92C6
:10349000DF92EF92FF920F931F93CF93DF936C0114
:1034A0007B018B01040F151FEB015E01AE18BF08F5
:1034B000C017D10759F06991D601ED91FC910190A7
:1034C000F081E02DC6010995892B79F7C501DF91BF
:1034D000CF911F910F91FF90EF90DF90CF90BF9011
:1034E000AF900895FC010E942D1A319728F0685181
:1034F0007C4F8F4F9F4FF9CFAB01FC010E942D1ADB
:10350000641775078E079F07C8F3089585E090E05C
:103510000C94721A8F929F92AF92BF92CF92DF92C9
:10352000EF92FF920F931F93CF93DF936C017B0178
:103530008A0180910D01882309F45AC080913102DB
:10354000882309F455C08091230280FF05C0809133
:10355000E00082608093E000E801B12C8AEFA82EA1
:1035600093E0892E2AE3922E209711F4BB20C9F113
:103570000E94F518811108C0AA94AA20C9F181E01F
:1035800090E00E94721AF0CF8C171D0611F00CF01B
:103590008C2F9FB7F8948092E9002091E80025FDD8
:1035A00002C09FBFE1CF282F30E0C21BD30BF70131
:1035B000815020F041914093F100FACFE20EF31ECA
:1035C000BB2021F09092E800B12CEBCF8091E80075
:1035D00085FDE7CF9092E800BB24B394209709F3D0
:1035E000F3CF5D9884E680932202101611063CF01A
:1035F00081E090E0F6019383828310E000E0C8014F
:10360000DF91CF911F910F91FF90EF90DF90CF90BE
:10361000BF90AF909F908F9008950F930AEF0E94F4
:1036200013160F910895209189064AE757E26BE23D
:1036300070E082E490E00C940D1B8FB18095807F48
:10364000669B88601C9B84600895480F592F511D0C
:103650004138510514F040E850E0481BFB0177FD6C
:10366000379633E0F595E7953A95E1F7F695FE2F15
:10367000EE27F795E795E80FF91FE95CFD4F6770B6
:10368000772781E090E001C0880F6A95EAF7382F2C
:10369000213041F4415078F08191DF011197832B63
:1036A0008C93F8CF8095415030F09191DF011197C4
:1036B00098239C93F8CF08950F931F93CF93DF9394
:1036C000DC0130E020E0D0E0C0E071E001E010E09B
:1036D000261798F514968C911497811116C014969C
:1036E0007C93149712964D915C911397ED91FC91F8
:1036F0001197E40FF51FE4911596EC9315974F5F22
:103700005F4F13965C934E93129714969C91149767
:1037100015968C911597892349F0A801022E02C0B5
:10372000440F551F0A94E2F7C42BD52B990F14961A
:103730009C9314972F5F3F4FCBCFCE01DF91CF915A
:103740001F910F9108952F923F924F925F926F9227
:103750007F928F929F92AF92BF92CF92DF92EF9221
:10376000FF920F931F93CF93DF93CDB7DEB72C97C4
:103770000FB6F894DEBF0FBECDBF5C017B012A8778
:103780005A8349831C821B821D821E8268E0CE01FF
:1037900001960E945C1B01969987888768E0CE019C
:1037A00001960E945C1B8C0161E0CE0101960E9493
:1037B0005C1B288539852A0D3B1D121613060CF05B
:1037C000E4C020E8A216B1040CF0DFC098012F5F1E
:1037D0003F4FA9014E0D5F1D141615060CF0D5C004
:1037E00060E4E616F1040CF0D0C08701F7FE04C0D7
:1037F000002711270E191F09077011271701F7FE5F
:1038000003C077E0270E311C53E0359427945A9576
:10381000E1F7F7FE09C091E0291A310848E050E0CD
:10382000BA01601B710B8B01390137FF03C077E0D0
:10383000670E711C43E0759467944A95E1F7277011
:103840003327232B19F09FEF691A790A482E21E0BC
:103850002F83512CF12CE12CD12CC12C88E090E04D
:10386000BC01601B710B7C876B87C614D7040CF0FE
:103870008CC088248394912C61E0CE0101960E9433
:103880005C1B892B21F472E0870E911CF5CF682D0B
:10389000CE0101960E945C1B01964C0150E040E075
:1038A0004815590508F06AC0442011F08F81582A44
:1038B0006F81660F09F05CC091012C0D3D1DC9019F
:1038C00001960997D8F5C7018A0D9B1D803891058F
:1038D000A8F5D901B695BA2FAA27B795A795AA0D2D
:1038E000BB1DAE0DBF1D2F3F320709F44AC0852D09
:1038F000002E01C0880F0A94EAF7FD01E95CFD4F34
:1039000070817F837A85772361F17F81872B808324
:103910000115110599F02730310581F0852D90E0D2
:103920000B8402C0959587950A94E2F7A954BD4F80
:103930005C902A852223C9F085298C933FEFE31AF6
:10394000F30A88859985E816F906ACF09FEFC91A45
:10395000D90A21E02F83F12CE12C4F5F5F4F562EC7
:103960009FCF80959F818923D2CF80958521E5CFF8
:103970006F83652DF2CF31E03F83EFCF61E04626C4
:1039800074CF0115110551F6D9CF2C960FB6F894C6
:10399000DEBF0FBECDBFDF91CF911F910F91FF9082
:1039A000EF90DF90CF90BF90AF909F908F907F90DF
:1039B0006F905F904F903F902F90089580389105C1
:1039C000B8F460347105A0F490E121E061FD24E0D9
:1039D00060FD220F62FD2295687F969FD001112421
:1039E000A80FA95CBD4F0C90022A40FF02260C9242
:1039F0000895DF92EF92FF920F931F93CF93DF937F
:103A00007C01D22E8B01040F111DEB0177FF02C048
:103A1000D0E0C0E0C8010134110514F080E490E06A
:103A2000C817D9073CF44D2DBE01C7010E94DE1C0A
:103A30002196F0CFDF91CF911F910F91FF90EF90E2
:103A4000DF9008950F93CF93DF93EC019E816A304E
:103A500059F48D818C836985960F9E8381E090E077
:103A6000DF91CF910F910895262F6A3360F4603370
:103A700000F5613201F16E32D1F098859D5F8C8145
:103A8000890F8C83EBCF21542A31B8F761E0690F9D
:103A9000062E000C770B8C81082E000C990B3F81B1
:103AA000313059F440EE54E10E940D1BE6CF25E27F
:103AB000EDCF2651EBCF24E2E9CF0BEF40EE54E1FE
:103AC0000E941316DACF0F931F93CF93DF938C01CD
:103AD000D0E0C0E0F801EC0FFD1F6491662341F0D7
:103AE0008BEF97E00E94221D892B11F02196F2CFD7
:103AF000CE01DF91CF911F910F910895089590E02D
:103B000080E00895CF93DF93EC0181E0840F4C0FA8
:103B10005D2F511DFA014491DB0130E012969C911A
:103B200012979F7712969C9312973417C8F4FE0150
:103B3000E80FF11D9491E1E0E80FEC0FFD2FF11D6E
:103B4000E491EC93E2E0E80FEC0FFD2FF11D8D5FA7
:103B5000E4911196EC931197906812969C931297AA
:103B60003F5F13962313DACFDF91CF910895CF9360
:103B7000DF93C7E8D6E084E18B8382E08C838D837A
:103B80001F820E94DA1718860E94DA1719860E948F
:103B9000DA1784E08A870E94DA1785E08B870E9413
:103BA000DA1781E08093010110921B02DF91CF911F
:103BB000089597E0899FF0011124E954F94F82811B
:103BC000681718F4861B82830895128286818F7786
:103BD00086830895CF93DF9344ED54E170E060E075
:103BE00090E080E00E94D3174AEC54E170E060E07E
:103BF00088E790E00E94D31740EC54E168E370E05E
:103C000090E080E00E94D31746EB54E168E370E057
:103C100088E790E00E94D317D0E0C0E0FE01EE54A8
:103C2000FB4E6491603438F470E021E040E788E0B6
:103C300090E00E94251BFE01E255FB4E849121E09D
:103C400040E368E070E090E00E94F91C2196C430E7
:103C5000D10521F7DF91CF910895CF92DF92EF92B6
:103C6000FF920F931F93CF93DF93CDB7DEB7A1974A
:103C70000FB6F894DEBF0FBECDBF282F30E050E066
:103C800040E019A28E010F5D1F4F8AE0C82ED12C93
:103C9000E12CF12CCA01B901A70196010E946D32F5
:103CA000605DF80162938F012115310541055105D1
:103CB00089F790E080E0309761F001900020E9F70B
:103CC0003197AF01401B510BB8018BEF97E00E9479
:103CD000451AA1960FB6F894DEBF0FBECDBFDF9197
:103CE000CF911F910F91FF90EF90DF90CF900895AB
:103CF000CF93C62F0E94631DCA3020F48EED94E14D
:103D00000E94631D8C2FCF910C942D1E2F923F92F9
:103D10004F925F926F927F928F929F92AF92BF92DB
:103D2000CF92DF92EF92FF920F931F93CF93DF9387
:103D300000D01F92CDB7DEB720918806822F835026
:103D4000990B9B838A83312C85E0282E9FE0492E96
:103D50008091880690E00396EA81FB818E179F0789
:103D60000CF4B3C0009187060250110B329C300155
:103D700011245301F6E0AF0EB11C27E0620E711C56
:103D8000512C8091870690E00296801791070CF4E1
:103D900095C080919706849DC001112408171907CA
:103DA00008F067C080919806849DC0011124EA81C3
:103DB000FB81E817F90708F05CC0F4E05F1203C06C
:103DC000332009F456C040E06A81802F0E94FA1720
:103DD0008983813009F44DC0E7EBF6E0868187FFE7
:103DE0000AC080818017110631F481812A813B81CC
:103DF0008217130699F1379689E897E08E179F0787
:103E000069F7E1EAF7E0828187FF0AC080818017C5
:103E1000110631F481812A813B818217130669F1F1
:103E200033968BEF97E08E179F0769F7529C7001CE
:103E30001124670192E6C90ED11C4701E6E68E0EF9
:103E4000911CC814D90401F121E044E0B501C60178
:103E50000E94F91CFFEFCF1ADF0AF3CF529CC0017A
:103E6000112420E04AE05AE2B5018E599F4F0E948A
:103E70000D1B53940F5F1F4F84CF529CC001112420
:103E800020E044E05AE2F0CF2981263681F058F450
:103E9000243678F320E042E0B301C7018D599F4FEB
:103EA0000E94F91CE6CF3981373619F7F3CF20E0AD
:103EB00042E0B301C7018C599F4FF2CF33948A81FE
:103EC0009B8101969B838A8343CF809189068430AE
:103ED00008F05EC090E0FC01ED52FE4F008181537E
:103EE0009E4FFC01F081F9833981232F30E03B8321
:103EF0002A83B9016A5F7F4F10E00E591F4F60346B
:103F000071052CF420E042E0C8010E94251B6A8163
:103F10007B81695F7F4F603471052CF420E042E0C3
:103F2000C8010E94251B86E4809300088093FF0748
:103F300088E08093010860918A068FEF99E20E94E1
:103F4000781E60918C0689EF99E20E94781E60913C
:103F50008B0683EF99E20E94781E60918D068DEEAC
:103F600099E20F900F900F90DF91CF911F910F91D9
:103F7000FF90EF90DF90CF90BF90AF909F908F9089
:103F80007F906F905F904F903F902F900C94781E91
:103F9000198200E0A9CF2F923F924F925F926F92C9
:103FA0007F928F929F92AF92BF92CF92DF92EF92C9
:103FB000FF920F931F93CF93DF9300D000D000D0D8
:103FC0001F92CDB7DEB7209187062F8330918806E8
:103FD0003E8380918906813009F45BC208F4F2C106
:103FE000823009F414C2833009F42EC2E12C612C12
:103FF000F12C812CD12C1B82712C512C00E01A82C7
:10400000B12C1982412C212C312C10E0A12C0E94C2
:10401000EA1D21E04FE659E264E070E082E490E0BE
:104020000E94A31B41E053E164E070E084E090E073
:104030000E94D317AA2009F446C06E816B0D40E0A0
:104040008F81820D0E94FA178823E9F18456912C02
:10405000C12C212C843068F490E0FC01E156FE4F25
:104060002080FC01E556FE4FC08089569E4FDC0142
:104070009C9084E0A82EB12CBA2DB170BC831D8217
:104080006C817D81615E7F4F41E0C5010E94DE1C35
:10409000EFEFAE1ABE0AF1E4AF16B10469F71214DD
:1040A00094F4E22DEE0FFF0BED55FE4F4081518150
:1040B000692D990C770B6C5F7F4F8C2DCC0C990B75
:1040C00003960E94D3171111FEC110E06B81BE81CF
:1040D0006B0F40E08F81800F0E94FA17813009F04A
:1040E00052C241E55FE062E170E084E090E00E944E
:1040F000D3176E81600F40E08F81870D0E94FA1701
:1041000043EF5EE062E170E0813041F0843611F00F
:10411000873641F447EA5EE063E170E08AE290E0CE
:104120000E94D31740E06E81680D8F818F0D0E9431
:10413000FA17D82E8823A9F1E5E6F5E1BF2EA6E10E
:10414000CA2E03E08E1789F0E81708F428C2F1E0C0
:104150006EE0B62EC12C01E08F1739F024E68217ED
:1041600009F429C2B12CC12C0FEF41E758E262E1FA
:1041700070E083E090E00E94D3170F3F91F0E02FB2
:10418000EE0FFF0BED55FE4F408151816B2DBB0CA7
:10419000770B6C5F7F4F8C2DCC0C990B03960E9494
:1041A000D3176E816E0D40E08F81880D0E94FA1743
:1041B00044E951E1813031F0843611F0873641F421
:1041C00045EC50E164E070E083E090E00E94D3179A
:1041D0006E816F0D40E08F81860D0E94FA1781304D
:1041E00009F0EFC149E251E164E070E083E390E05F
:1041F0000E94D317D1103BC08091890657EB852EC2
:1042000056E0952E49E857E0F401282F30E0B90137
:1042100069577E4F9F81E92EF12C2D573E4FAE817D
:10422000CA2ED12C968197FFD8C10081DB019C91C9
:10423000990F5701A90EB11C97FDBA940A151B04DA
:1042400009F0CBC10181D9019C91990F5601A90EAA
:10425000B11C97FDBA940A151B0409F0BEC14FE4C6
:1042600058E269E170E08BE190E00E94D317A7EB80
:10427000B6E041EAA42E47E0B42ED12CEF812E2FD8
:1042800030E0FE814F2F50E01696FC911697F7FF15
:1042900027C2609187068C91681B770B0091880676
:1042A00011968C911197081B110B09F016C27B0116
:1042B00077FF04C0EE24FF24E61AF70A91E0EA949F
:1042C000EF2809F090E06115710559F4780117FFA6
:1042D00004C0EE24FF24E01AF10AE1E0EA94EF289A
:1042E00009F0E0E09E1709F4FBC183E016161706FB
:1042F0000CF4C0C181E0672B09F0BCC11016110697
:104300000CF0B4C110928906FF73F98385E00BE0CD
:10431000F130B1F08AE008E0F23091F083E000E1A2
:10432000F33071F085E003E0F43051F080E107E113
:10433000F53031F085E006E0F63011F486E10DE06D
:10434000B981AB2FB0E0E82EF12C10E0AA0FBB1F13
:10435000BD83AC83FD01EB58FE4F4081518120E0CD
:10436000B701C8010E94A31BEC81FD81E959FE4FF2
:104370004081518121E0B701C8010E94A31B8091B7
:104380003402843019F489E080933402D0923302ED
:1043900027960FB6F894DEBF0FBECDBFDF91CF9149
:1043A0001F910F91FF90EF90DF90CF90BF90AF9053
:1043B0009F908F907F906F905F904F903F902F9045
:1043C0000C94861EAA24A3946E81633008F4A12C59
:1043D00011E08E81823008F410E0E12C66246394B1
:1043E000F12C88248A94BEEFDB2E9FEF9B837724E9
:1043F0007394512C0FEFAEEFAA838DEFB82EBEEF62
:10440000B98344244394212C33243A9400CEE12CE4
:1044100066246A94F12C88248394F2E0DF2EE1E094
:10442000EB8377247A94512C01E0F2E0FA83A3E045
:10443000BA2E22E0298344244A94212C3324339435
:1044400011E0AA24A394E3CDAA24A3943F8133309E
:1044500008F4A12C11E06F81623008F410E0EE2422
:10446000E394612CFF24FA94812CD12C81E08B837E
:1044700077247A945EEF552E0FEF9FEF9A83B12C3D
:10448000A1E0A9836EEF462E7DEF272EEEEF3E2EA4
:10449000BECDEE24EA94612CFF24F394812CD12C20
:1044A000BFEFBB837724739492E0592E01E0E1E0E3
:1044B000EA83B12CFFEFF98322E0422E33E0232E72
:1044C00042E0342EBDCF69812E81620F40E08F81A2
:1044D000830D0E94FA17882341F046E55EE06BE108
:1044E00070E084E090E00E94D3176A812E81620F11
:1044F00040E08F81840D0E94FA17882341F04EE13D
:104500005EE06BE170E086E290E00E94D3176E817E
:104510006D0D40E08F81850D0E94FA17882309F404
:10452000D4CD8456B12CD12CC12C843070F4282FDA
:1045300030E0F901ED56FE4FC080F901E157FE4F22
:10454000D08025573E4FD901BC9045EE5FE06BE12E
:1045500070E084E090E00E94D3171C140CF0B6CDFC
:10456000EC2DEE0FFF0BED55FE4F408151816B2D71
:10457000BB0C770B6C5F7F4F8D2DDD0C990B039679
:104580000E94D317A3CD843619F0873609F0B1CD38
:104590004DEC5EE063E170E082E190E0A8CD36E6AC
:1045A00075E1B72EE6E1CE2E04E0831709F4DDCDE8
:1045B00067E68613D7CDBEE0BB2E0FE0C02E02E02B
:1045C000D4CD843619F0873609F014CE41E650E197
:1045D00064E070E084E390E00BCE37964E175F07FF
:1045E00009F020CE111143CE282F30E0B9016957D0
:1045F0007E4F8F81482F50E02D573E4F9E81092FCF
:1046000010E007C0B7E08B0E911CE815F90509F41E
:104610002ECED40116968C91169787FFF3CFFC907F
:10462000DB018C91982F990F980FDA01A90FB11D1A
:1046300097FDBA95FA161B0629F7D4011196FC903E
:10464000D9018C91982F990F980FD801A90FB11DFE
:1046500097FDBA95FA161B06A9F645E458E26CE1F7
:1046600070E08EE190E001CE90E030CE012B09F4B5
:104670004BCE82E08093890647CE24E12A8394E1E1
:10468000F92E65C032E13A83FACFA981A430B1F0A6
:104690008CE098E2A53009F0A1C021E12093000848
:1046A0002093FF072EE2209301080E94631D96C00D
:1046B00081E398E2F2CF8EE198E2EFCF85E198E2D4
:1046C000ECCF87E298E2E9CFD3941796E3E0AE0E01
:1046D000B11CFEE1DF12D8CD5BCE6115710521F270
:1046E00080913402843011F0873071F7F501128126
:1046F00017FFEACF8091890690E00081BC016957DD
:104700007E4FFB016081F901E60FF11D67FDFA950F
:104710000E171F06C9F6F50161818D579E4FFC01EA
:104720008081FA01E80FF11D87FDFA956E171F06CB
:1047300059F61F771983113009F49FCF812F8350C9
:10474000833008F49FCFF3E1FA8327E1F22E0EE0E5
:1047500010E020E04BE26BE070E0C8010E94F91C21
:104760000F5F1F4F07331105A1F70FE010E021E0A5
:1047700049E26CE070E0C8010E94F91C0F5F1F4F16
:1047800006331105A1F76981E62FF0E0EE0FFF1F58
:10479000E55AFE4F408151818A81682F70E020E008
:1047A0008F2D90E00E94A31B1092020881E180935C
:1047B00000088093FF078CE0809301088BE398E268
:1047C0000E94631D9981933009F475CF08F05DCF85
:1047D000913009F46DCF923009F473CF81E080936A
:1047E000020887E080933402D0923202D1CD009744
:1047F00069F0FC0101900020E9F73197AF01481BF7
:10480000590BBC018BEF97E00C94451A90E080E0C7
:104810000895EBEFF7E080E5858384838CE286835F
:1048200089E996E00E94F72388E797E20E94631DDA
:1048300085EA96E00C94F7230F931F93CF93DF93B1
:10484000EC014BE050E0BC0189E996E00E94323275
:10485000BE01655F7F4F4BE050E085EA96E00E9425
:104860003232FE017696E491E0938706FE01779658
:10487000E491E0938806FE017896E491E09389063E
:10488000FE017996E491E0939706FE017A96E49111
:10489000E0939806FE017B966491A7EBB6E04CE1AD
:1048A00090E016968C9116978F77E0E8961708F0AF
:1048B000E0E08E2B16968C93169787FF40C0FE0182
:1048C000E40FF11D5491E1E0E40FEC0FFD2FF11D19
:1048D000E491EC93E2E0E40FEC0FFD2FF11D4D5F4E
:1048E000E4911196EC93119774E0579F9001112475
:1048F000F901EC54F44D7491F901EB54F44D049129
:10490000F901EA54F44D14912954344DF9012491DC
:1049100012967C93129713967C93139714960C938C
:10492000149715961C931597807C852B8F7BE0E45C
:10493000211101C0E0E08E2B16968C9316979F5F95
:1049400017969E3109F0ADCF2EE161EA77E0CE01F6
:104950000E94821D28E0482F69E877E0CE010E947E
:10496000821DD093B406C093B30629E837E0309394
:10497000B2062093B10690E0B0E0A0E080939306E9
:1049800090939406A0939506B093960684E0809346
:104990003402DF91CF911F910F9108951F920F92D2
:1049A0000FB60F9211248F939F938091E100909105
:1049B000E100937F9093E10083FF0FC01092E90024
:1049C00091E09093EB001092EC0092E39093ED0055
:1049D0001092310298E09093F00082FF22C093E0A1
:1049E0009093E9009091F200992319F09AE3909343
:1049F000E80090912202992341F090912202915077
:104A000090932202911101C05D9A909130029923F6
:104A100041F090913002915090933002911101C079
:104A2000289A84FF18C08091E2008E7E8160809376
:104A3000E2008091E1008F7E8093E100809123026B
:104A40008E7E8061809323029F918F910F900FBE85
:104A50000F901F90189580FFF7CF8091E2008E7E17
:104A600080618093E2008091E1008E7E8093E1007E
:104A7000809123028E7E8160E5CF1F920F920FB648
:104A80000F921124CF92DF92EF92FF920F931F9318
:104A90002F933F934F935F936F937F938F939F9346
:104AA000AF93BF93EF93FF93CF93DF93CDB7DEB771
:104AB0006C97DEBFCDBF1092E9008091E80083FFC4
:104AC00025C068E0CE0145960E94201A82EF8093AF
:104AD000E8008D8987FF39C09091E80090FFFCCFF6
:104AE000982F907609F034C19E894F89588D2F896F
:104AF000F88C911131C0803861F58091210280934A
:104B0000F1001092F1008EEF8093E8006C960FB6E2
:104B1000F894DEBF0FBECDBFDF91CF91FF91EF9133
:104B2000BF91AF919F918F917F916F915F914F91C5
:104B30003F912F911F910F91FF90EF90DF90CF90B9
:104B40000F900FBE0F901F9018959EEF9093E80066
:104B5000C7CF1092F100D5CF913059F48111D3CF46
:104B60004130510581F6809121028D7F8093210291
:104B7000CACF933049F48111C6CF4130510519F69F
:104B8000809121028260F2CF953041F48091E8005B
:104B900080FFFCCF20682093E300B5CF963009F06A
:104BA000A9C00B8D1C8D22E01092E90010921F020B
:104BB00010921E02F2122EC010921D0210921C02C0
:104BC0000E94EF191F8299E09983FA8291E09E83F7
:104BD00090EA98879AEF998720911E0230911F02E0
:104BE000275F3F4F3C832B838D831092E900109207
:104BF0001F0210921E0210931D0200931C0249E036
:104C000050E0BE016F5F7F4F80E00E94C9190E9493
:104C1000EF1979CF10931D0200931C020E94061910
:104C2000DC0112960D911C910115110509F451C179
:104C3000D801ED91FC910480F581E02DBE016B5E01
:104C40007F4FC8010995009709F03EC1F801008522
:104C50001185EACFF3E0FF120EC08F89882309F493
:104C600040C0823061F440E869E08EE697E20E943D
:104C7000B927811148CF81E28093EB0047CF813083
:104C800029F440E86BE082E697E2F1CF833099F7B0
:104C90000E940619DC011296ED90FC908E010F5FC8
:104CA0001F4F6801E114F10479F0D701ED91FC91F7
:104CB0000680F781E02DB801C7010995080F111D85
:104CC000F701E084F184EECFD8011C92F601019047
:104CD0000020E9F73197BF016C197D0940E0C6015A
:104CE000C6CF6CE477E2FB01449150E080E80E947B
:104CF000C91909CF973009F4BECF983021F481E06B
:104D00008093F10000CF993009F0FDCE837009F057
:104D1000B2CFE5E5F1E081E031E096E32191222395
:104D200071F08093E9003093EB00DF0111972C9133
:104D30002093EC009093ED008F5F873079F78EE73A
:104D40008093EA001092EA008F8980933102DBCED3
:104D50008B8D9C8D1092E90010921F0210921E0202
:104D600090931D0280931C02898D811192C08E89BF
:104D70009D89913A49F4813209F07DCF47E050E0B6
:104D800066E071E080E0B3CF913209F074CF8332F6
:104D900069F48F89988DB0E0A0E080930201909330
:104DA0000301A0930401B0930501ADCE803269F4F4
:104DB0008091E80082FFFCCF67E086E091E00E94EE
:104DC000201A8BEF8093E8009ECE823209F09BCEB2
:104DD0008F8980930D01EEEFFFE7859194918B3FD2
:104DE0009C4D51F1E0E0F8E08091060190910701BF
:104DF000A0910801B0910901803B9440A105B10543
:104E0000F1F480910D0180FD1AC0EE3F8AE0F807B1
:104E100089F587E797E7918380838091600080938D
:104E2000200288E19BE00FB6F894A895809360007B
:104E30000FBE9093600067CEEEEFFAE0D5CF808191
:104E400091818737974709F05ECEA89580916000E1
:104E50008861809360008091200280936000EE3F23
:104E60002AE0F20789F08091FE0A9091FF0A91836F
:104E7000808349CE808191818737980751F2909342
:104E8000FF0A8093FE0AC5CF1092FF0A1092FE0A15
:104E90003ACE0E940619DC0112960D911C91011563
:104EA000110509F4E8CED801ED91FC910190F08153
:104EB000E02DBE016B5E7F4FC8010995811123CEA5
:104EC000F80100851185EBCF181619060CF41BCEDE
:104ED000D2CEF1E0FF12BECE60E577E204CF0F92B2
:104EE0000FB68F939F93EF93FF93809107028D5F8F
:104EF0008D3708F08D5780930702E0E1F2E0808162
:104F00008E4F808391819F4F918382818F4F8283C7
:104F100083818F4F8383E8E0F2E080818F5F80831D
:104F200081818F4F818382818F4F828383818F4FD5
:104F300083838FB18F6066991C9B88278F3681F49D
:104F400080910602981B963068F0E0E0F8E087E771
:104F50008083818388E180936000F0936000FFCFBD
:104F600090930602FF91EF919F918F910FBE0F904A
:104F70001895EF92FF920F931F93CF93DF93F82E24
:104F8000192FE62E042F81E0860F880F0E949B19AF
:104F900083E00E949B19CF2DD12FEC0EFD2EF11C2A
:104FA000CE15DF05B9F007FF13C0FE0184910E9402
:104FB0009B19182F80E00E949B1981232196811153
:104FC000EFCFDF91CF911F910F91FF90EF90089558
:104FD0008881EDCF81E0F5CFE7E3F6E0138212821E
:104FE00088EE93E0A0E0B0E084839583A683B78346
:104FF0008BED91E0918380838FEF9FEF958784877E
:10500000EBEFF7E0138212828DEE91E091838083C3
:1050100088E0818781E080871582168214828783E9
:105020000895CDB7DEB72697DEBFCDBF789483E075
:1050300084BD83E085BD81E080936E00E1E8F0E00F
:1050400083E08083E0E881E08083E1E983E080839E
:10505000E0E981E08083E1EC87E08083E3EC81E0BC
:105060008083E0EC82E08083E2EC81E08083EAE709
:1050700087E0808380688083109231021092210241
:10508000109223028091D70081608093D70080EA3C
:105090008093D80089B5806189BD89B5826089BD5A
:1050A00009B400FEFDCF81E090E00E94721A809169
:1050B000D8008F7C80618093D8008091E000807F51
:1050C0008093E0008091E1008E7E8093E1008DE08E
:1050D0008093E200559A209A81EC80937C0081E1D4
:1050E00085B987E684B984E38BB98FE38AB9769A68
:1050F0006E9880EF81BB10BA80E58CBD81E08DBDDC
:105100000E94861A599A0E94861A5C98E4E5F5E195
:1051100085918EBD00000DB407FEFDCFE136C1F7CD
:105120005C9A81E88093640081E0809365000E942E
:105130001D1B84FF15C05C9885EA8EBD00000DB470
:1051400007FEFDCF5C9A2E9858982D9880916400A8
:1051500080628093640081E083BF889513BEFCCF9A
:1051600081E280930001809164008E7F80936400CF
:1051700080917A00806480937A0080917A0086FD25
:10518000FCCF00917800109179000E942D1AAB019C
:10519000BC01C801B0E0A0E0DC01992788278C01A0
:1051A0009D01040F151F261F371FC901B80120914B
:1051B00064002160209364006115710581059105EB
:1051C00011F00E9429320E94B71D74E0472E512C25
:1051D000612C712C90900E02992049F010920E02D1
:1051E00080E090E0892BB1F30E940000F3CF909112
:1051F000100280910F02192F181B812F209100019E
:10520000121740F48F5F821758F781E083BF8895AB
:1052100013BEE6CF81E080930E0290930F02ECE084
:10522000F2E08081918101968083918380913502A3
:10523000809336020E941D1B80933502E091340258
:10524000E431F0F4F0E0E95DF64D0C94AA323E2D25
:105250006D2D3B296C297829002B002B9D2C78295A
:10526000A62DA62DA62DA62DA62DA62DA62D6330E6
:1052700089301D31483110921B0283E08093340243
:10528000F12CE12CE7E3F2E081E0A0E0B8E000805F
:105290000EBC8111012C1197A0FDFDCF0192B9F731
:1052A0000DB4B70190E080E0AB01FC010E942D1A23
:1052B00041505109E109F10928F068517C4F8F4FA5
:1052C0009F4FF6CFAB01FC010E942D1A64177507A2
:1052D0008E079F07C8F384CFE0911B02F0E0EE0F2A
:1052E000FF1FE05CFE4F808191810E941C24C8CF8B
:1052F00041E060918806809187060E94FA17F82E97
:105300000E94CB1F0E94131B0E94F31784FF11C041
:1053100080918906813051F008F485C0823009F40B
:1053200084C010E08330A9F000E014C010E001E078
:1053300011C087FF7CC080918906813049F008F454
:1053400074C0823009F46FC010E0833081F3ECCF79
:1053500010E00FEF40918806812F012E000C990B71
:10536000480F592F511D60918706802F002E000C89
:10537000990B680F792F711D87E896E00E946B18D2
:10538000882309F45CC080918706080F0093870684
:1053900080918806180F1093880627E6F21262C0E3
:1053A00010E000E0F12CE12C47EEB42E50E5D52EB4
:1053B0006CE2C62EE091B106F091B206E00FF11F4B
:1053C000828187FD1AC08F778736B9F4809187066E
:1053D000882399F080918806882379F0B282D09250
:1053E0000008D092FF07C092010883EF96E20E9466
:1053F000631D3CEDE32E35E0F32E0D5F1F4F0831AA
:105400001105C1F640E060918806809187060E94F0
:10541000FA17863661F580911B02833030F582E100
:10542000809334022FCF1FEF7FCF11E07DCF86FF17
:1054300009C08091890681508370809389060E94FB
:1054400009241ECF85FF04C0809189068F5FF4CFA9
:1054500082FFF5CF8091340280931A0285E0809319
:105460003402EDCFF12CE12CCDCF83E1D9CF84E014
:105470008093340207EB16E0D80116968C91A82F82
:10548000AA1FAA27AA1F09F43CC786FF3AC7F8013A
:1054900060812091870630E070E0261B370BB091C9
:1054A0008806D1804D2D50E08B2F90E0841B950B0A
:1054B00009F006C7F90137FF04C0EE27FF27E21BFA
:1054C000F30B319709F00AC7232B09F01AC7FBC663
:1054D000F8014181809188064817D8F0D8016C9175
:1054E00080918706681720F1D8016C91809187061A
:1054F000861778F511964C9150E06150770B90E04B
:1055000080E00E946B18882321F1F801808181508E
:105510001EC050E04F5F5F4F608170E090E080E020
:105520000E946B188823D1F2F80181818F5F2DC012
:1055300011964C9150E070E06F5F7F4F90E080E0FB
:105540000E946B18882381F2F80180818F5F80832D
:10555000D8C624E1C22ED12C0E94DA31A3019201D7
:105560000E943B32611113C0D80111964C911197E2
:105570004150550B6C9170E090E080E00E946B18F8
:105580008823B1F0F801818181508183BAC66230ED
:10559000A1F4D80111964C91119750E04F5F5F4FE5
:1055A0006C9170E090E080E00E946B188111BCCF9C
:1055B000F1E0CF1AD10881F6A4C6613081F4D80198
:1055C00011964C91119750E06C9170E06F5F7F4F96
:1055D00090E080E00E946B18882351F3B5CF6330D0
:1055E00039F7D80111964C91119750E06C916150A8
:1055F000770B90E080E00E946B188823C9F285CF7A
:105600000E94EA1D21E04FE659E264E070E082E486
:1056100090E00E94A31B21E04BEA55E264E070E0B9
:1056200084E090E00E94A31B0E94131B0E94861E30
:1056300007E816E09CE2292E91E0392ED801179652
:105640008C91882349F1F101C080D180A280B38080
:105650009601225F3F4F3E832D8376018D819E818F
:10566000E816F90651F020E040E1B501C7010E94BB
:10567000F91C9FEFE91AF90AF1CFD8011796EC91BE
:10568000F0E0EE0FFF1FE05EFE4F4081518121E010
:10569000B501C6010E94A31B0F5F1F4FB4E02B0E84
:1056A000311CECE8F6E0E017F10741F6E091190251
:1056B00004E0E09FF0011124E45DFE4F62817381FC
:1056C000655F7F4F8081918120E041EA55E203963A
:1056D0000E94A31B0E94F317082F1092020813E1E7
:1056E000109300081093FF0783E2809301088091D4
:1056F0008C060E942D1E109300081093FF078DE268
:105700008093010880918B060E942D1E81E080937A
:10571000020880913402853051F1863009F0B0CD15
:10572000109118028EE590E0113011F082E590E0C2
:1057300021E041EA55E268E370E00E94A31B47E9DB
:1057400055E26DE270E081E590E00E94D3174DE8EC
:1057500055E26DE270E08DE590E00E94D31706FF00
:1057600029C0112339F111501093180289CD06FF79
:1057700008C080911902882321F08150809319027A
:105780007FCD05FF06C080911902823010F48F5F33
:10579000F5CF80911A0202FD71CD03FF71CDE0912A
:1057A0001902F0E0E957F94F8781882309F468CDA1
:1057B00086E064CD05FF06C0111104C081E080932E
:1057C00018025ECD02FF02C085E058CD03FF58CD20
:1057D00011110CC060911902E62FF0E0E957F94F62
:1057E0008781813059F1823009F469C080911802B3
:1057F000813009F045CD3091870620918806E1EA95
:10580000F7E0A0E080E092819F7709F46EC090817C
:1058100093136CC09181921369C08FE58093000847
:105820008093FF078CE2809301088DE795E20E9448
:10583000631D8CEDE82E85E0F82E24CD209187069F
:1058400030E04091880650E0E9E8F7E0A2817A2F45
:10585000771F7727771F51F1AF77A63639F180810F
:1058600090E0821B930B97FF03C09195819591095E
:105870000297E4F4818190E0841B950B97FF03C0AD
:1058800091958195910902978CF4A43609F4A2832D
:105890008281982F9F77953619F480788666828367
:1058A00082818F77873609F48283972E339617E0AB
:1058B000E13AF10759F6992009F4E2CC08C0809149
:1058C0008A06895F833308F082E380938A06E62F95
:1058D000660FFF0BE957F94F17820E94DA171092F3
:1058E000180285E08093340281CFA82F8F5F339612
:1058F0008E3109F088CFB0E040911902CD01880FB8
:10590000991FA80FB91FAF55B84F842F90E0895742
:10591000994FFC018781806812968C9312973C9373
:1059200011962C93E42F440FFF0BE957F94F178280
:105930000E94DA171092180247CF0E94CB1F1091D5
:10594000170284E590E0113011F088E490E021E046
:1059500041EA55E268E370E00E94A31B47E955E283
:105960006DE270E087E490E00E94D3174DE855E2C5
:105970006DE270E083E590E00E94D31721E040E102
:105980006BE270E082E490E00E94F91C0E94F31741
:1059900086FF44C0112309F441C01150109317022F
:1059A00082FF07C09091340290931A0295E0909381
:1059B000340283FF65CCE0911702E1115AC00091D7
:1059C000320210E07801EE0CFF1CD701A00FB11FCE
:1059D000AF55B84F12968C918F7790918E06992380
:1059E00051F090918F06E1E0992329F09091900673
:1059F000E2E09111EFEF9CEF980F9230E8F48430E1
:105A0000A9F490918B069F5F90938B060E0D1F1D3E
:105A1000F801EF55F84F828384E030CC85FFC0CF8A
:105A20001111BECF91E090931702BACF90918C06DE
:105A30009F5F90938C06EACFE7FD10C00E2E000CFE
:105A4000FF0BE957F94F87830E94DA170E0D1F1DD0
:105A5000F801EF55F84F82818F77DDCF8FE5809386
:105A600000088093FF078CE2809301088FE695E29F
:105A7000DECE88E0E13009F401CC02CC0E94EA1DC0
:105A800021E041E952E264E070E088E090E00E94A9
:105A9000A31B8091160220E04CE852E266E370E01E
:105AA000811116C089E190E00E940D1B0E94F3173E
:105AB00086FD1092160285FF03C091E090931602B6
:105AC00083FFDECB80911602811105C082E0D6CB28
:105AD0008FE390E0E9CF81E0D1CB0E94EA1D20E086
