:100000000C9448080C9470080C9470080C947008B8
:100010000C9470080C9470080C9470080C94700880
:100020000C9470080C9470080C94C6160C94351738
:100030000C9470080C9470080C9470080C94700860
:100040000C9470080C9470080C9470080C94700850
:100050000C9470080C9470080C9470080C94671938
:100060000C9470080C9470080C9470080C94700830
:100070000C9470080C9470080C9470080C94700820
:100080000C94B1190C9470080C9470080C947008BE
:100090000C9470080C9470080C9470080C94700800
:1000A0000C9470080C9470080C9470080705040EEA
:1000B0001F001F0E0405071436773614422B20202C
:1000C00020202020496D61676520646F776E0A00EB
:1000D000422B202020202020496D6167652075700B
:1000E0000A00412B202020202020546F67676C6578
:1000F000202B206D6F76650A00412B2020202020C8
:1001000020546F67676C65202B206D6F76650A0041
:10011000412020202020202020546F67676C65201C
:10012000706978656C0A000C1420283038746F00F0
:10013000436F707920496D6167650A436C65617230
:1001400020496D6167650A436C65617220416C6C82
:1001500020496D616765730A496E7665727420493E
:100160006D6167650A002070780053697A652059CF
:100170003A20002070780053697A6520583A2000B0
:100180000C141C2830384578706F727420746F20FE
:1001900053657269616C0A52657475726E20746F72
:1001A000204D656E75000A0A00436C65617220453A
:1001B0004550524F4D0A004C6F61642066726F6D5E
:1001C00020454550524F4D0A005361766520746FAB
:1001D00020454550524F4D0A00544F4F4C424F5806
:1001E000000505110000001103030707071A051F8A
:1001F0000906001F051A001F1511000F100F001F20
:10020000001F1511000F181C0F11073E7F41554BA1
:100210007F3E00081C08001436773614207D3B0A08
:1002200000002C005B5D2050524F474D454D203D56
:10023000207B00636F6E73742075696E74385F7411
:10024000207069637475726500544F4E45535F4565
:100250004E44207D3B00002C20002C00636F6E7309
:10026000742075696E7431365F74207468656D65CD
:100270005B5D2050524F474D454D203D207B000394
:10028000081F051F1F151B1F11111F110E1F151110
:100290001F05011F111D1F041F001F0010101F1F2D
:1002A000041B1F10101F061F1F011F1F111F1F05FA
:1002B000071F311F1F051B17151D011F011F101FD1
:1002C0000F100F1F0C1F1B041B071C071915130C05
:1002D000121E1F120C1E12120C121F0C1A14041FD5
:1002E000052E2A1E1F021C001D00201D001F041ABF
:1002F000011F001E041E1E021E1E121E3E120C0CAA
:10030000123E1E020614120A020F121E101E0E10BA
:100310000E1E081E1A041A2E281E1A12161F111F4E
:10032000021F001D151711151F07041F17151D1F8C
:10033000151D01011F1F151F17151F0017000010A5
:1003400000081C08201800001400080B000202021C
:100350000000090400000102020000052400100151
:1003600005240101010424020605240600010705F5
:10037000810310004009040100020A000000070583
:100380000202400000070583024000000403090444
:1003900012010002EF0201404123368000010102F8
:1003A000030141726475696E6F204C4C43006D69A6
:1003B00063726F6361646500D5F08D14A1C881CF4D
:1003C000D9F1AF2000F0F89C8E8783878E9CF8F0DF
:1003D0000000FEFF0303030303070EFCF80000FE0A
:1003E000FF0303030303070EFCF80000FFFF0000F8
:1003F0000000000000FFFF0000FEFF838383838373
:10040000C7EE7C380000F8FC0E07030303070EFC60
:10041000F800003F7FE0C08080C0E07F3FFFFF0129
:10042000010101010101FFFF0000FFFF0C0C0C0C9A
:100430001C3E77E3C100007FFFC0C0C0C0C0E070B9
:100440003F1F00001F3F70E0C0C0C0E0703F1F00B2
:10045000007FFFC1C1C1C1C1E3773E1C00001F3F47
:1004600070E0C0C0C0E0703F1F000000000001FF4E
:10047000FF010000001A0D00003E083E001824187D
:10048000003E0018283E00003E7F41554B7F3E0055
:10049000001F05010C120C001E0400001F061F00A7
:1004A0000C1A14001E061C001E101E3000300052D4
:1004B000616E67652000546F20696E636C756465BA
:1004C000206120726573742C0A73656C65637420F7
:1004D000616E206578697374696E670A6E6F746502
:1004E000207468656E20707265737320616E640A93
:1004F000686F6C6420746865204120627574746F45
:100500006E0A746F20746F67676C652E00422B5201
:100510002020496E736572742061206E6F74650AC5
:100520000A00422B4C202044656C657465206E6F78
:1005300074650A00412B4420204D6F766520646F5E
:10054000776E0A00412B5520204D6F76652075701F
:100550000A00412B522020457874656E64206E6F2E
:1005600074650A00412B4C2020536872696E6B2021
:100570006E6F74650A000C1420283452657475720D
:100580006E20746F204D656E7500436C656172203E
:1005900054756E650A4578706F727420746F2053BD
:1005A000657269616C0052616E67653A200054653E
:1005B0006D706F3A20000C142028300A0A00436C3A
:1005C00065617220454550524F4D0A004C6F616481
:1005D0002066726F6D20454550524F4D0A005361A1
:1005E000766520746F20454550524F4D0A00506C7F
:1005F00061792066726F6D20637572736F720A0085
:10060000506C61792066726F6D2073746172740A28
:1006100000544F4F4C424F580003051F0E04030572
:10062000040E1F30050E1111110E00000000000015
:1006300000000000000000000000000000000000BA
:1006400000000000000000000000000000000000AA
:1006500000000000000E1111111111111111110EE5
:10066000000000000000000000000000000000008A
:10067000000000000000000000000000000000007A
:1006800000000000000E11111111111111111111B2
:1006900011111111110E00000000000000000000F7
:1006A000000000000000000000000000000000004A
:1006B00000000000000E1111111111111111111182
:1006C00011111111111111111111110E0000000061
:1006D000000000000000000000000000000000001A
:1006E00000000000000E1111111111111111111152
:1006F00011111111111111111111111111111111EA
:10070000110E0000000000000000000000000000CA
:1007100000000000000E1111111111111111111121
:1007200011111111111111111111111111111111B9
:10073000111111111111110E000000000000000034
:1007400000000000000E11111111111111111111F1
:100750001111111111111111111111111111111189
:10076000111111111111111111111111110E00009E
:1007700000000000000E11111111111111111111C1
:100780001111111111111111111111111111111159
:100790001111111111111111111111111111111149
:1007A0001111110E0030050E1115110E0000000080
:1007B0000000000000000000000000000000000039
:1007C0000000000000000000000000000000000029
:1007D000000000000000000E111515151515151567
:1007E000110E0000000000000000000000000000EA
:1007F00000000000000000000000000000000000F9
:10080000000000000000000E111515151515151536
:10081000151515151515110E00000000000000003B
:1008200000000000000000000000000000000000C8
:10083000000000000000000E111515151515151506
:10084000151515151515151515151515110E00008D
:100850000000000000000000000000000000000098
:10086000000000000000000E1115151515151515D6
:100870001515151515151515151515151515151528
:100880001515110E0000000000000000000000001F
:10089000000000000000000E1115151515151515A6
:1008A00015151515151515151515151515151515F8
:1008B0001515151515151515110E00000000000071
:1008C000000000000000000E111515151515151576
:1008D00015151515151515151515151515151515C8
:1008E0001515151515151515151515151515110EC3
:1008F000000000000000000E111515151515151546
:100900001515151515151515151515151515151597
:100910001515151515151515151515151515151587
:1009200015151515110E000E1F1F1F0E00000000DB
:1009300000000000000000000000000000000000B7
:1009400000000000000000000000000000000000A7
:10095000000000000000000E1F1F1F1F1F1F1F1F91
:100960001F0E00000000000000000000000000005A
:100970000000000000000000000000000000000077
:10098000000000000000000E1F1F1F1F1F1F1F1F61
:100990001F1F1F1F1F1F1F0E000000000000000070
:1009A0000000000000000000000000000000000047
:1009B000000000000000000E1F1F1F1F1F1F1F1F31
:1009C0001F1F1F1F1F1F1F1F1F1F1F1F1F0E000086
:1009D0000000000000000000000000000000000017
:1009E000000000000000000E1F1F1F1F1F1F1F1F01
:1009F0001F1F1F1F1F1F1F1F1F1F1F1F1F1F1F1F07
:100A00001F1F1F0E0000000000000000000000007B
:100A1000000000000000000E1F1F1F1F1F1F1F1FD0
:100A20001F1F1F1F1F1F1F1F1F1F1F1F1F1F1F1FD6
:100A30001F1F1F1F1F1F1F1F1F0E00000000000091
:100A4000000000000000000E1F1F1F1F1F1F1F1FA0
:100A50001F1F1F1F1F1F1F1F1F1F1F1F1F1F1F1FA6
:100A60001F1F1F1F1F1F1F1F1F1F1F1F1F1F1F0EA7
:100A7000000000000000000E1F1F1F1F1F1F1F1F70
:100A80001F1F1F1F1F1F1F1F1F1F1F1F1F1F1F1F76
:100A90001F1F1F1F1F1F1F1F1F1F1F1F1F1F1F1F66
:100AA0001F1F1F1F1F0E0030050E1F1F1F0E0000EF
:100AB0000000000000000000000000000000000036
:100AC0000000000000000000000000000000000026
:100AD0000000000000000000000E1F1F1F1F1F1F4E
:100AE0001F1F1F0E0000000000000000000000009B
:100AF00000000000000000000000000000000000F6
:100B00000000000000000000000E1F1F1F1F1F1F1D
:100B10001F1F1F1F1F1F1F1F1F0E000000000000B0
:100B200000000000000000000000000000000000C5
:100B30000000000000000000000E1F1F1F1F1F1FED
:100B40001F1F1F1F1F1F1F1F1F1F1F1F1F1F1F0EC6
:100B50000000000000000000000000000000000095
:100B60000000000000000000000E1F1F1F1F1F1FBD
:100B70001F1F1F1F1F1F1F1F1F1F1F1F1F1F1F1F85
:100B80001F1F1F1F1F0E00000000000000000000BC
:100B90000000000000000000000E1F1F1F1F1F1F8D
:100BA0001F1F1F1F1F1F1F1F1F1F1F1F1F1F1F1F55
:100BB0001F1F1F1F1F1F1F1F1F1F1F0E00000000D2
:100BC0000000000000000000000E1F1F1F1F1F1F5D
:100BD0001F1F1F1F1F1F1F1F1F1F1F1F1F1F1F1F25
:100BE0001F1F1F1F1F1F1F1F1F1F1F1F1F1F1F1F15
:100BF0001F0E000000000000000E1F1F1F1F1F1F00
:100C00001F1F1F1F1F1F1F1F1F1F1F1F1F1F1F1FF4
:100C10001F1F1F1F1F1F1F1F1F1F1F1F1F1F1F1FE4
:100C20001F1F1F1F1F1F1F0E00FA00C800AF0096D6
:100C3000007D0064004B0032001F002100250029C8
:100C4000002C00310037003E00410049005200579F
:100C50000062006E007B003E0041004900520057D8
:100C60000062006E007B0083009300A500AF00C40B
:100C700000DC00F7007B0083009300A500AF00C4F8
:100C800000DC00F700060126014A015D018801B879
:100C900001EE01F700060126014A015D018801B855
:100CA00001EE010B024B029302BA0210037003DC47
:100CB00003EE010B024B029302BA0210037003DC35
:100CC0000317049704270575052006E006B807DC1E
:100CD0000317049704270575052006E006B8072DBD
:100CE000082D094D0AEA0A400CC00D6F0FB8072DF8
:100CF000082D094D0AEA0A400CC00D6F0F5A105B0F
:100D0000129A14D4158018801BDE1E6F0F5A105BC8
:100D1000129A14D4158018801BDE1EB420B524341A
:100D200029A72B00310037BC3D14077C7E0B0B7EBE
:100D30007C007F7F19396F460001017F7F01011020
:100D4000120000000080C060A0C8ECDCBC78F0E0BD
:100D50000000D8DA3BF5EE1F6F371B0D06000100CF
:100D60000000000000000000000000000000000083
:100D70000021077F7F060C067F7F003F7F40407F7A
:100D80003F00266F49497B3200417F7F41003E7F13
:100D9000414163221012005050501090407EA21C1E
:100DA0004050505050000015151007C852911FF1C7
:100DB0000E011515150000000000000001010100E2
:100DC0000000000000001214FE01010101010101F8
:100DD000010101010101010101FEFF00000000000D
:100DE0000000000000000000000000FF07080808E5
:100DF0000808080808080808080808080807060B73
:100E0000FFFE7CB85020050201000000060B2050B8
:100E1000B87CFEFF00000001020534328080808033
:100E200080808080808080808080BFA1ED0DEDED8E
:100E30000D01E1ADA1A1A1A1A1A1A1A1A1A1E101EA
:100E400001E101EDA1BF8080808080808080808072
:100E5000FF00007A007A7A7A7A7A7A7A7A7A7A7ADB
:100E60007A7A7A0000FE00FA3ABABABABA3A3AFA8C
:100E7000FAFAFAFAFAFAFAFAFAFA3ABABABA3A3AD2
:100E800000FA00FF0101FF0000FF00FFFFFFFFFF6E
:100E9000FFFFFFFFFFFF0000FC00FCE0E0EFEF6F53
:100EA0006A65607C7C7C7C7C7C7C7C7C7C60606F0C
:100EB000EFEA05E00000FE0300007F40405F405F76
:100EC0005F5F5F5F5F5F5F5F5F5F40404F405F5F9F
:100ED0005F5F5F55555555555555555555555555A4
:100EE000555555555F5F405F40407F000000F8FC5E
:100EF00004048C8800F8FC0404FCF800FCFC048C5E
:100F0000F87000FCFC2424040400FCFC64E4BC181D
:100F1000000010180C04000098BC2424ECC8000049
:100F200000000809F9F9090800F0F90909F9F000C9
:100F3000F1F90909F8F000F9F90101010100F9F9E5
:100F40004848F9B100F0F80808F8F00018B9E1E1F4
:100F5000B9180000000000000303000000010302B4
:100F60000203010001030202030100030302020263
:100F70000200030302020301000103020203010055
:100F800003030000030300004120FE0105F1F1F11D
:100F900011D1B1D111F151515151515151515151C1
:100FA000515151510000FF00007F7F09090F0600D9
:100FB0007F7F19396F46007F7F4949414100266F85
:100FC00049497B3200266F49497B32FF0000FFFF11
:100FD000FFFEFFFEFF0279CD95A5CD79011111111C
:100FE00001F9F901010000FF00007F7F09090F06E8
:100FF000007F7F40404040007C7E0B0B7E7C0007E2
:101000000F78780F07007F7F3E1C0800FF00001F4D
:101010003F3F33333333333E36363E363E363E364D
:10102000363E36363E360000FF00003E7F41417FAF
:101030003E007F7F0E1C7F7F00000000000000004C
:10104000000000000000000000000000003F4050D1
:1010500040404078464141595941414141595941E7
:101060004141414141414100007F000001017F7F3A
:101070000101007C7E0B0B7E7C007F7F09090F063F
:10108000007F7F4949414100000000000000451AEF
:1010900011241FBECFEFDAE0DEBFCDBF11E0A0E02C
:1010A000B1E0ECEAF6E502C005900D92A036B1077A
:1010B000D9F729E0A0E6B1E001C01D92A637B2073A
:1010C000E1F718E0C8E4D8E004C02197FE010E94CF
:1010D0004E2BC734D107C9F70E94A81A0C94542B81
:1010E0000C940000809171010895480F592F511DF3
:1010F0001416150684F5803891056CF597FF02C02B
:1011000090E080E04138510514F040E850E0481B81
:10111000FB01E770FF2721E001C0220FEA95EAF703
:1011200077FF02C0695F7F4FFB0133E0F595E795DC
:101130003A95E1F7F695FE2FEE27F795E795E80F3C
:10114000F91FE356FE4F415030F08191DF011197B6
:10115000822B8C93F8CF08956034710510F40C94B1
:1011600075080895EDE9F1E0A0E0B8E000800EBC5C
:101170008111012C1197A0FDFDCF0192B9F70DB49B
:101180000895FC0180919C01882311F13FB7F894E8
:1011900082E08093E9002091F200822F90E01816FF
:1011A000190614F481E090E0882339F0289844E689
:1011B00040939B014091F1004083222339F020911C
:1011C000F200211103C02BE62093E8003FBF0895F1
:1011D0008FEF9FEF08952FB7F89483E08093E90095
:1011E0009091E800892F807295FF04C09091F200E1
:1011F00080E4891B2FBF08958091930181110DC058
:1012000082E080938F0184E080939001109292019C
:101210001092910181E0809393018FE891E008950D
:1012200040917A0150917B012091780130917901B0
:1012300042175307B4F49091E8009570E1F3909150
:10124000E80092FD19C08093F10080917A0190919D
:101250007B0101968F739927892B19F48EEF809368
:10126000E80080917A0190917B01019690937B0137
:1012700080937A0181E0089580E00895DF92EF92F3
:10128000FF920F931F93CF93DF93D82E8A01EB0128
:101290007B01E40EF51ECE15DF0559F0D7FE12C016
:1012A000FE0184910E94100921968111F4CF0FEF65
:1012B0001FEFC801DF91CF911F910F91FF90EF9029
:1012C000DF9008958881EECF0F931F93CF93DF9324
:1012D0001F92CDB7DEB782E0898342E450E06AE432
:1012E00073E080E80E943E090E94FC08DC0112962F
:1012F0000D911C910115110589F0D801ED91FC911A
:101300000280F381E02DBE016F5F7F4FC801099518
:1013100097FD04C0F80100851185ECCF89810F90FD
:10132000DF91CF911F910F910895615030F020917E
:10133000F100FC0120830196F8CF289884E6809381
:101340009B010895EF92FF920F931F93CF93DF932A
:101350008C017B01D0E0C0E0F701EC0FFD1F649130
:10136000662361F0D801ED91FC910190F081E02DB0
:10137000C8010995892B11F02196EECFCE01DF919E
:10138000CF911F910F91FF90EF900895AF92BF9270
:10139000CF92DF92EF92FF920F931F93CF93DF9341
:1013A0006C017B018B01040F151FEB015E01AE1870
:1013B000BF08C017D10759F06991D601ED91FC9192
:1013C0000190F081E02DC6010995892B79F7C501BF
:1013D000DF91CF911F910F91FF90EF90DF90CF9011
:1013E000BF90AF900895CF93DF931F92CDB7DEB734
:1013F0006983DC01ED91FC910280F381E02D41E0F5
:1014000050E0BE016F5F7F4F09950F90DF91CF9144
:10141000089583E08093E9008091F200882319F019
:101420008AE38093E80008950E94EB0890E0089515
:10143000CF93DF931F92CDB7DEB7FC0184859585EE
:1014400097FD08C02FEF3FEF358724870F90DF917E
:10145000CF910895CE0101960E94C108019719F419
:10146000898190E0F3CF8FEF9FEFF0CF0F931F9321
:10147000CF93DF931F92CDB7DEB78C01FC0184853B
:10148000958597FF0BC0CE0101960E94C108019778
:1014900071F4898190E0F80195878487F80184854B
:1014A00095850F90DF91CF911F910F9108958FEF48
:1014B0009FEFF1CFFC018485958597FD0BC09FB709
:1014C000F89482E08093E9008091F2009FBF90E061
:1014D000019608959FB7F89482E08093E900809187
:1014E000F2009FBF90E00895FC010E940B0B319722
:1014F00028F068517C4F8F4F9F4FF9CFAB01FC0113
:101500000E940B0B641775078E079F07C8F3089599
:101510008F929F92AF92BF92CF92DF92EF92FF9203
:101520000F931F93CF93DF936C017B018A0180910E
:101530000B01882309F45AC080919C01882309F487
:1015400055C080917E0180FF05C08091E0008260DF
:101550008093E000E801B12C8AEFA82E93E0892E59
:101560002AE3922E209711F4BB20C9F10E94EB08C8
:10157000811108C0AA94AA20C9F181E090E00E94DC
:10158000740AF0CF8C171D0611F00CF08C2F9FB74A
:10159000F8948092E9002091E80025FD02C09FBFE9
:1015A000E1CF282F30E0C21BD30BF701815020F090
:1015B00041914093F100FACFE20EF31EBB2021F0DF
:1015C0009092E800B12CEBCF8091E80085FDE7CF49
:1015D0009092E800BB24B394209709F3F3CF5D9871
:1015E00084E680937D01101611063CF081E090E0C6
:1015F000F6019383828310E000E0C801DF91CF9170
:101600001F910F91FF90EF90DF90CF90BF90AF9020
:101610009F908F900895A4E7B1E02FB7F8947D9143
:101620008D919C9166B52FBFA89B05C06F3F18F4A4
:101630007F5F8F4F9F4F22E0660F771F881F991F94
:101640002A95D1F708956F927F928F929F92AF92D1
:10165000BF92CF92DF92EF92FF920F931F93CF939F
:10166000DF934C01CB013A017C2DFA016491319654
:101670005491F2E06F0E711CC62FD0E0211102C010
:10168000EE2009F1E1E0F0E0352F377011F4F0E0E1
:10169000E0E0A52FA695A695A695AE0FBF2FB11D8C
:1016A000AC9FF001AD9FF00DBC9FF00D1124733085
:1016B00009F08BC0EE0FFF1F2E9FD0012F9FB00DA2
:1016C00011246A0E7B1ED401AC0FBD1F1A161B0617
:1016D0000CF06CC020E8821691040CF067C09C01ED
:1016E000250F311D121613060CF060C080349105D1
:1016F0000CF05CC06114710409F458C0382F3770C5
:10170000FC0197FD379623E0F595E7952A95E1F7DB
:101710002E2F97FF04C0332311F02FEF2E0FEE274B
:10172000FF27E819F90997FC02C0F0E0E0E090E833
:101730009819A038B1050CF4962F9E1BA22F022EEB
:10174000000CBB0B4A2F40952F3F0CF040E0DD24EE
:10175000D394852F877009F4D12C569556955695BC
:10176000D50EAD0DB11D19971CF058E0D52ED21A2B
:10177000D41A240F50E82503D0011124A80DB91D57
:10178000AE0FBF1F649FE00DF11D11246E0E7F1E72
:10179000E32E032E000CFF08733009F423C108F573
:1017A000713009F4D6C0723009F484C0DF91CF9152
:1017B0001F910F91FF90EF90DF90CF90BF90AF906F
:1017C0009F908F907F906F9008950115110509F4F7
:1017D00073CFEE9ED001EF9EB00D11240A0F1B1F98
:1017E0006BCF7A3FB1F10D2D020F7B3FF9F6201739
:1017F000E9F2BD0163567E4FD12CC12CC91608F009
:10180000A2C0F301EC0DFD1DE491F0E0AF010E2C40
:1018100002C0440F551F0A94E2F727FD06C0FB01E2
:101820008081142F109581238083332361F027302A
:1018300054F45B01F0E8AF0EB11C452F4095F50163
:10184000808184238083FFEFCF1ADF0A6F5F7F4F91
:10185000D5CF0D2D020F201709F4A8CFBD01635677
:101860007E4FD12CC12CC91608F067C0F301EC0DD6
:10187000FD1DE491F0E0AF010E2C02C0440F551F96
:101880000A94E2F727FD04C0FB018081842B80834A
:10189000332351F0273044F45B01F0E8AF0EB11C64
:1018A000F5018081852B8083FFEFCF1ADF0A6F5F00
:1018B0007F4FD9CF6FEF70E0032E02C0660F771F06
:1018C0000A94E2F760957095972E8D2C820E28155C
:1018D00009F46CCF8D0103561E4FD12CC12CC916B3
:1018E00030F5F301EC0DFD1DE491F0E0AF010E2C9D
:1018F00002C0440F551F0A94E2F727FD05C0F80106
:1019000080818623842B8083332359F027304CF445
:101910005801F0E8AF0EB11CF50180818921852BBB
:101920008083FFEFCF1ADF0A0F5F1F4FD8CF2F5FE3
:101930006C0E7D1EA058BF4FCACF2F5F6C0E7D1E50
:10194000A058BF4F88CF2F5F6C0E7D1EA058BF4F91
:101950004ECF0E0F1F1F8D2D820F281709F426CF93
:10196000BD0163567E4FD12CC12CC91698F5F801E4
:10197000EC0DFD1DA490B12C0E2C02C0AA0CBB1CBA
:101980000A94E2F7A094B094F301EC0DFD1D84904D
:10199000912C0E2C02C0880C991C0A94E2F727FDAA
:1019A00008C0FB014081E42FEA214E2F4829FB01AA
:1019B0004083332349F027303CF4FB01E058FF4FCC
:1019C000A080BA20B928B082FFEFCF1ADF0A6F5F7C
:1019D0007F4FCBCF2F5F6C0E7D1E0C0F1D1FA058AD
:1019E000BF4FBBCFE92EF12CE60DF71DA356BE4F1E
:1019F00060E870E06E197F09CE19DF09AE01440F6F
:101A0000551FC1E0D0E07E01032E01C0EE0C0A9408
:101A1000EAF7192F0D2D892E932ECF93DF93ED0129
:101A2000EF96EF962296A590C590992059F0AE9C1E
:101A30005001CE9C600127302CF4F880D094FD201A
:101A4000FB28F99222233AF0FC90C094FC20FA285B
:101A5000FD920C942C0D11961A9529F70A9551F0C8
:101A6000182D23951124E40FF11DA60FB11DC60FEB
:101A7000D11DD9CFDF91CF91112498CECF92EF9283
:101A80000F931F9322E0C22EE12C10E000E020E033
:101A90000E94230B1F910F91EF90CF900895CF924A
:101AA000EF920F931F933AEFC32EE12C10E000E06A
:101AB0000E94230B1F910F91EF90CF900895CF922A
:101AC000EF920F931F933BEFC32EE12C10E000E049
:101AD0000E94230B1F910F91EF90CF90089590E0FB
:101AE0000C94740A8FB18095807F669B88601C9BE4
:101AF0008460089590E1282F81E061FD84E060FD1D
:101B0000880F62FD8295687F969FD0011124A20FF5
:101B1000A356BE4F0C90082A40FF08260C92089549
:101B20008038910528F46034710510F40C947A0D16
:101B3000089590918C01982329F490918D01982318
:101B400081E009F480E00895CF93C82F0E94720DC0
:101B5000982F9C2381E09C1380E0CF910895DF9221
:101B6000EF92FF920F931F93CF93DF937C01D22EBE
:101B70008B01040F111DEB0177FF02C0D0E0C0E024
:101B8000C8010134110514F080E490E0C817D907AA
:101B90003CF44D2DBE01C7010E94900D2196F0CF5F
:101BA000DF91CF911F910F91FF90EF90DF900895FB
:101BB000EF92FF920F931F93CF93DF937C018B01E2
:101BC000C42FD22F0E94AC08B8016D0F711D615057
:101BD00071094C2FC7010E94AC0821E04D2FB801BC
:101BE000C7010E94AF0DC7018C0F911D21E04D2F41
:101BF000B8010197DF91CF911F910F91FF90EF9066
:101C00000C94AF0DCF92DF92EF92FF920F931F9340
:101C1000CF93DF936B01122FEC017C01E40EF11CDA
:101C2000CE15DF0544F4202F412FB601CE010E94CE
:101C3000AF0D2196F5CFDF91CF911F910F91FF90BE
:101C4000EF90DF90CF90089582E30E946F0D0E9485
:101C5000720D8111F9CF089580E80E94A40D8823A8
:101C6000A9F05C9885EA8EBD00000DB407FEFDCF9B
:101C70005C9A2E9858982D98809164008062809389
:101C8000640081E083BF889513BEFCCF0895CF9395
:101C9000DF93EC016A3059F48D818C838E819985B4
:101CA000890F8E8381E090E0DF91CF9108959C8130
:101CB000603219F49E5F9C83F5CF6E3711F49F5FFD
:101CC000FACF262F6E816F5F2A3398F4203370F598
:101CD0002B3271F140F4213269F198859D5F8C813E
:101CE000890F8C83DFCF2C3239F12E32B1F72FE3FD
:101CF0000DC02B3530F42134B8F42A3371F722E4C7
:101D000005C08FE9820F27548A3138F7062E000C60
:101D1000770B892F990F990B3F814FE752E03130B4
:101D200069F40E944F0DD9CF2154F0CF2C5FEECF34
:101D300020E4ECCF2EE3EACF21E4E8CF0E945F0D50
:101D4000CCCF089590E080E008952091A105E09126
:101D50009F05F091A005CF0102969093A005809376
:101D60009F05222319F08591949108958081918196
:101D70000895CF92DF92EF92FF92CF93DF930E946C
:101D8000A50E811520E8920791F4809171008D7F56
:101D900080937100109291004698479810926A01C2
:101DA000DF91CF91FF90EF90DF90CF90089521E0E9
:101DB00020936A01813020E8920751F480919D05BB
:101DC00090919E059093A00580939F050E94A50E7B
:101DD00097FD05C020916901222309F45AC0209182
:101DE0006801211156C021E020936B01813020E869
:101DF000920710F090E080E0EC01DF77209709F087
:101E00004BC081E080936C0146983FE9C32E3FE0D0
:101E1000D32EE12CF12CCAEFD0E0E0910006F09136
:101E200001060995811103C081E080936C018091C6
:101E30006B01882329F080916C01882309F43FC04D
:101E400047980E94A50E0097F1F19C01DE010E94C7
:101E50002B2BDC01CB0129E0B595A79597958795AC
:101E60002A95D1F7109290002AE020939100D09209
:101E70009900C092980080936D0190936E01A09399
:101E80006F01B09370018091710082608093710046
:101E900087CF10926B01AACF9E0150E040E060E432
:101EA00072E48FE090E00E94D72A69017A0181E014
:101EB000C81AD108E108F10810926C01AECF46991A
:101EC000BFCF479ABECF8FEF9FEFDC01CBCF9C01F6
:101ED000E1E7F0E090819D7F90831092A105E2EF11
:101EE000F5E0F093A005E0939F05F0939E05E09345
:101EF0009D05318320838BE490E09383828380E08F
:101F000090E8958384830C94B90EFC018091650957
:101F10009091660920813181211540E8340781F4D0
:101F2000A091640944E0A49FD0011124A15FB84F9F
:101F300012963C932E931197918380830C94670F94
:101F40009183808382819381892B31F48091690907
:101F500090916A0993838283089580918E018330E2
:101F600029F18091090720E2829FC00111248E5F30
:101F7000994F21E030E0FC01E20FF31F10822F5F48
:101F80003F4F21313105B9F730E020E0FC01E20F8D
:101F9000F31F118A2F5F3F4F20313105B9F710929F
:101FA000050710920407109203070895209169090C
:101FB00030916A09EBE0F7E083E699E01282118242
:101FC0003483238334968E179F07C1F783E0809371
:101FD0006B0980E090E890930D0780930C07E1EA8D
:101FE000FCE0859194919093660980936509109225
:101FF000640908957F779FE0899FA001112430E054
:1020000020E0FA01E20FF31FEE0FFF1FE75CF34F32
:10201000A591B4916A177B0791F4211109C09EE143
:10202000899FF0011124E75CF34F85919491089505
:10203000F9013197E40FF51FEE0FFF1FF4CF2F5F6B
:102040003F4F2F303105E9F680E090E008957F772B
:102050009FE0899FA001112430E020E0FA01E20F07
:10206000F31FEE0FFF1FE75CF34FA591B4916A17C2
:102070007B07A1F42E3049F49EE1899FF0011124E1
:10208000EB5AF34F859194910895F9013196E40F3D
:10209000F51FEE0FFF1FE75CF34FF4CF2F5F3F4FAD
:1020A0002F303105D9F680E090E008957F779FE0EA
:1020B000899FA001112430E020E0822FFA01E20F75
:1020C000F31FEE0FFF1FE75CF34FA591B4916A1762
:1020D0007B0741F4223010F4835008952C3038F0FF
:1020E0008B5008952F5F3F4F2F30310531F780E03F
:1020F00008957F779FE0899FA001112430E020E0C0
:10210000922FFA01E20FF31FEE0FFF1FE75CF34F70
:10211000A591B4916A177B0729F4990F990F8AE367
:10212000891B08952F5F3F4F2F30310549F780E01D
:1021300008959C01220F331F220F331FF901E55F21
:10214000F84F81819281811540E8940751F43497CA
:1021500087E0E730F807A9F7255F384FF90181815B
:10216000928108952091090730E040910407509131
:102170000507BA0193E0769567959A95E1F7E091A6
:102180000307220F331F260F371FA4E0220F331F30
:10219000AA95E1F72E5F394FE20FF32FF11D9181E0
:1021A0009A012770332741E050E001C0440F2A957F
:1021B000EAF7811104C04095492341830895492BD2
:1021C000FCCF82E090E00E94AF2A882331F03E9A53
:1021D000579A81E0809371010895109271013E98A1
:1021E00057980895CF93DF93EB010E94AF2A88831D
:1021F000CE01DF91CF910895FB0101900020E9F716
:102200003197AF01461B570BDC01ED91FC91028029
:10221000F381E02D0994CF93DF93BC0182EA95E02E
:102220000E94A209EC0165E471E082EA95E00E9457
:10223000FC108C0F9D1FDF91CF9108958F929F927C
:10224000AF92BF92EF92FF920F931F93CF93DF93C2
:10225000CDB7DEB7A1970FB6F894DEBF0FBECDBFE6
:102260007C01FA01CB0119A2223008F42AE08E0188
:102270000F5D1F4F822E912CB12CA12CBF01A50107
:1022800094010E94092BF901CA016A300CF5605DC6
:10229000D8016E938D01232B242B252B79F790E009
:1022A00080E0109721F0BD01C7010E94FC10A196AB
:1022B0000FB6F894DEBF0FBECDBFDF91CF911F9157
:1022C0000F91FF90EF90BF90AF909F908F900895E7
:1022D000695CDECFAB01770F660B770B2AE00C94BD
:1022E0001E11242F462F50E070E060E00C941E1168
:1022F0000C94FC10CF93C82F68E471E082EA95E05B
:102300000E947811C03130F46BE471E082EA95E00C
:102310000E94781140E150E06C2F82EA95E0CF9165
:102320000C947111CF93DF93EC0168E471E082EAC1
:1023300095E00E947811C11580E1D807C8F46BE4DC
:1023400071E082EA95E00E947811CF3FD10509F053
:1023500078F46BE471E082EA95E00E947811C03174
:10236000D10530F46BE471E082EA95E00E947811C7
:10237000AE0170E060E020E182EA95E0DF91CF916C
:102380000C941E113F924F925F926F927F928F92A8
:102390009F92AF92BF92CF92DF92EF92FF920F93F4
:1023A0001F93CF93DF93CDB7DEB728970FB6F8947E
:1023B000DEBF0FBECDBF80918E018330D9F0843057
:1023C00009F46EC028960FB6F894DEBF0FBECDBFDD
:1023D000DF91CF911F910F91FF90EF90DF90CF9001
:1023E000BF90AF909F908F907F906F905F904F9035
:1023F0003F9008958CE592E00E940B113BE0E32EA4
:1024000037E0F32E10E000E0F70181819281C38074
:10241000D4808115F0E89F0741F110F090E080E052
:102420000E9492116AE572E082EA95E00E94A20998
:10243000C6010E94921167E572E082EA95E00E946F
:10244000A2090115110549F0C80187709927892B48
:1024500021F486E592E00E940B110F5F1F4F84E08C
:10246000E80EF11C0639110579F689E492E0289608
:102470000FB6F894DEBF0FBECDBFDF91CF911F9195
:102480000F91FF90EF90DF90CF90BF90AF909F9013
:102490008F907F906F905F904F903F900C940B11B6
:1024A00088E0E8E1F1E0DE01119601900D928A9555
:1024B000E1F780910707E82FE770582E569456945D
:1024C000569444244A94EE2349F0539481E090E0DA
:1024D0008C0F9D1F8E0F911DFC01408022E0A22ECB
:1024E00026E0B22E10E000E0E52DE150FF0B3F01A9
:1024F0000023E1F050910607950140E0451509F4ED
:1025000065C081E090E06FEF680F651758F4BC017B
:102510006F5F7F4F820F931FFC018081811106C086
:10252000CB01F1CF4F5F205F3F4FE8CF63E372E015
:1025300082EA95E00E94A209B8016F5F7F4F82EAAC
:1025400095E00E946A1184E292E00E940B11F12C46
:10255000E12C4801880C991CE514A0F5312C64018C
:10256000CE0CDF1C84E0CC0CDD1C8A95E1F7C601A3
:102570008E5F994F6C0180910607381698F4F6012A
:10258000E30DF11D8181E614F70454F40E947A11E1
:1025900062E272E082EA95E00E94A2093394EBCFF6
:1025A0008421F4CF8091070786958150990BE81616
:1025B000F90624F481E292E00E940B119FEFE91AE0
:1025C000F90ACACF8CE192E00E940B110F5F1F4FF6
:1025D000E0E2AE0EB11C0830110509F089CFF2CE51
:1025E0002F923F924F925F926F927F928F929F9223
:1025F000AF92BF92CF92DF92EF92FF920F931F9311
:10260000CF93DF93CDB7DEB72F970FB6F894DEBF29
:102610000FBECDBF46EC5DE063E070E087E090E088
:102620000E943E0D20E04FE35DE064E070E088E052
:1026300090E00E944F0D01E027E04FE16AE170E079
:1026400090E080E00E94020E21E040E470E060E053
:1026500080E290E00E94AF0D209103078091040773
:10266000909105072A3028F40A9730F494E080E02E
:1026700005C00A9708F024C191E082E0890F809399
:102680007109809370091AE110937209109273090D
:102690006DE471E08CE699E00E9478114AE050E028
:1026A000609103078CE699E00E94711160E571E08A
:1026B0008CE699E00E94781140910407509105073B
:1026C00070E060E02AE08CE699E00E941E1101E0D3
:1026D00027E04FE16AE170E086E690E00E94020E9A
:1026E00021E040E470E060E084E690E00E94AF0DFD
:1026F00020E049E052E060E170E08AE690E00E946C
:102700004F0D86E6809371098093700910937209CA
:102710001092730964E571E08CE699E00E947811EB
:102720006091090770E06F5F7F4F8CE699E00E942F
:102730006A1120E04DEE51E064E270E083E090E049
:102740000E944F0D4091060760E170E0FB01E41B21
:10275000F10920910707621B71090E2F000F0D5D13
:10276000E62EEE0C77FF02C06F5F7F4F7595679581
:10277000625D862F90E09D838C83BF01F7FF02C0CE
:102780006F5F7F4F75956795685F862F90E09F8399
:102790008E832C5F4C5F6C817D8162507109029742
:1027A0000E94D80D512C10E0F12C980121503109D4
:1027B0003F872E87C70101979B838A8380910707F4
:1027C000581608F081C0C52CD12C3601660C771C38
:1027D000660C771C6E0C7F1C130193E0290E311CD4
:1027E00041E0B1018E859F850E94900D852D8695D3
:1027F00086958695282F30E039872887852D877024
:1028000021E030E002C0220F331F8A95E2F73B87B8
:102810002A87412C8C819D818C0D9D1D9D878C87E5
:1028200080910607481608F04DC0A42CB12C650114
:10283000CC0CDD1CCC0CDD1CC00ED11E41E06A812D
:102840007B81C60101970E94900D460193E0890E9D
:10285000911C41E06A817B81C4010E94900DE0914E
:102860000907F0E0EE0FFF1F28853985E20FF31FFF
:1028700034E0EE0FFF1F3A95E1F7EE5FF94FEA0DF6
:10288000FB1D818190E02A853B8582239323892B40
:1028900081F020E048EE51E0B301C6010E944F0DE7
:1028A00041E06C857D858E819F818A0D9B1D0E94F4
:1028B000900D41E0B101C4010E94900D4394B0CF4E
:1028C00091E0D5CE53947ACF6091040770910507BB
:1028D000660F771F660F771F615071096E0D7F1DA0
:1028E0008091030734E0839FC0011124800F911F62
:1028F000019720918A0130918B012F733327213268
:1029000008F478C025E045E00E94D80D45E754E082
:1029100063E370E086E690E00E943E0D8091080738
:10292000823309F04EC000E020E44CE470E060E047
:1029300084E390E00E94020E01E028E04BE470E0A6
:1029400060E085E390E00E94020E20E44BE470E03A
:1029500060E085E390E00E94D80D20E04EE156E073
:1029600062E070E085E790E00E945F0D20E049E1C1
:1029700056E062E070E089E790E00E945F0D87E337
:102980008093710980937009009372091092730902
:1029900069ED71E08CE699E00E94A2098BE38093D7
:1029A0007109809370091BE01093720900937309F9
:1029B00080911001813009F460C010F1823009F477
:1029C00042C12F960FB6F894DEBF0FBECDBFDF9188
:1029D000CF911F910F91FF90EF90DF90CF90BF901C
:1029E000AF909F908F907F906F905F904F903F90AF
:1029F0002F90089520E041EE51E00E944F0D86CFC8
:102A000069EC71E08CE699E00E94A209BE016F5F5B
:102A10007F4F8AE892E00E94F210898166EA71E0B5
:102A2000833641F467EB71E08CE699E00E94A209DD
:102A300069EA71E08CE699E00E94A20981E0809346
:102A400073098BE3809371098093700987E2809307
:102A5000720966E871E08CE699E00E94A209E091B3
:102A60001101F0E0E058FE4F649170E021E045E094
:102A700088E390E00E94AF0DA4CF67E771E08CE699
:102A800099E00E94A20980911301823009F0BDC033
:102A90004EE156E06CE070E086E590E00E943E0D6D
:102AA00049E156E06CE070E081E790E00E943E0D65
:102AB00001E027E044E16BE070E08BE590E00E94EC
:102AC000020E8FE58093710980937009109372094B
:102AD000109273094AE050E0609106078CE699E095
:102AE0000E94711181E0809373098BE380937109D7
:102AF0008093700913E1109372096AE671E08CE625
:102B000099E00E94A20980911301833009F08CC0E2
:102B10004EE156E064E170E086E590E00E943E0DF3
:102B200049E156E064E170E081E790E00E943E0DEB
:102B300001E027E044E163E170E08BE590E00E9472
:102B4000020E8FE5809371098093700910937209CA
:102B5000109273094AE050E0609107078CE699E013
:102B60000E94711181E0809373098BE38093710956
:102B7000809370091FE11093720960E371E08CE6A5
:102B800099E00E94A209809113018430C1F583E687
:102B90008093710980937009109372096DE271E05E
:102BA0008CE699E00E94A2094EE156E060E270E0F6
:102BB0008DE690E00E943E0D49E156E060E270E053
:102BC0008BE790E00E943E0D01E027E047E06FE1D7
:102BD00070E082E790E00E94020E84E78093710922
:102BE00080937009109372091092730960910A071B
:102BF00070E06F5F7F4F8CE699E00E946A11E09170
:102C00001201F0E0E95DFE4F2FCF4AE050E0609105
:102C100006078CE699E00E94711163E771E08CE68B
:102C200099E00E94A2095ECF4AE050E06091070758
:102C30008CE699E00E94711166E671E08CE699E0FD
:102C40000E94A2098FCF89E3809371098093700954
:102C500060E171E08CE699E00E94A20969EF70E002
:102C60008CE699E00E94A20962EE70E08CE699E0A1
:102C70000E94A20960ED70E08CE699E00E94A20932
:102C80006CEB70E08CE699E00E94A20920E045EB35
:102C900050E063E170E083E490E00E944F0D20E09B
:102CA0004CEA50E06CE170E082E490E00E944F0D4D
:102CB00020E045EB50E063E270E083E490E00E94A6
:102CC0004F0D20E04CEA50E06CE270E082E490E0CE
:102CD0000E944F0D76CE84E00E94A40D8823C9F196
:102CE0002E9A589A2D9884E80E94A40D8823A1F06A
:102CF0002D9A88EC0E946F0D58986FEF82E090E05B
:102D00000E94B72A84EF91E00E94740A589A84E8DE
:102D10000E94A40D8111FBCF84E10E94A40D8823A1
:102D2000A1F02D9A88EC0E946F0D2E9860E082E051
:102D300090E00E94B72A84EF91E00E94740A2E9AD4
:102D400084E10E94A40D8111FBCF88EC0E946F0DDD
:102D5000C2CF2E9858982D980895FF920F931F93E5
:102D6000CF93DF93EC01F62E08811981C8010E94F0
:102D7000AF2AF81621F06F2DC8010E94C92ACE0192
:102D8000DF91CF911F910F91FF9008951F920F92A5
:102D90000FB60F9211248F939F938091E100909131
:102DA000E100937F9093E10083FF0FC01092E90050
:102DB00091E09093EB001092EC0092E39093ED0081
:102DC00010929C0198E09093F00082FF22C093E063
:102DD0009093E9009091F200992319F09AE390936F
:102DE000E80090917D01992341F090917D019150EF
:102DF00090937D01911101C05D9A90919B0199235F
:102E000041F090919B01915090939B01911101C0D1
:102E1000289A84FF18C08091E2008E7E81608093A2
:102E2000E2008091E1008F7E8093E10080917E013D
:102E30008E7E806180937E019F918F910F900FBE57
:102E40000F901F90189580FFF7CF8091E2008E7E43
:102E500080618093E2008091E1008E7E8093E100AA
:102E600080917E018E7E8160E5CF1F920F920FB61A
:102E70000F921124CF92DF92EF92FF920F931F9344
:102E80002F933F934F935F936F937F938F939F9372
:102E9000AF93BF93EF93FF93CF93DF93CDB7DEB79D
:102EA0006C97DEBFCDBF1092E9008091E80083FFF0
:102EB00025C068E0CE0145960E94950982EF809377
:102EC000E8008D8987FF39C09091E80090FFFCCF22
:102ED000982F907609F034C19E894F89588D2F899B
:102EE000F88C911131C0803861F580917F01809319
:102EF000F1001092F1008EEF8093E8006C960FB60F
:102F0000F894DEBF0FBECDBFDF91CF91FF91EF915F
:102F1000BF91AF919F918F917F916F915F914F91F1
:102F20003F912F911F910F91FF90EF90DF90CF90E5
:102F30000F900FBE0F901F9018959EEF9093E80092
:102F4000C7CF1092F100D5CF913059F48111D3CF72
:102F50004130510581F680917F018D7F80937F0103
:102F6000CACF933049F48111C6CF4130510519F6CB
:102F700080917F018260F2CF953041F48091E8002A
:102F800080FFFCCF20682093E300B5CF963009F096
:102F9000A9C00B8D1C8D22E01092E90010927B01DC
:102FA00010927A01F2122EC01092790110927801DB
:102FB0000E9464091F8299E09983FA8291E09E83BE
:102FC00090EA98879AEF998720917A0130917B0156
:102FD000275F3F4F3C832B838D831092E900109233
:102FE0007B0110927A01109379010093780149E0F6
:102FF00050E0BE016F5F7F4F80E00E943E090E945B
:10300000640979CF10937901009378010E94FC083C
:10301000DC0112960D911C910115110509F451C1A5
:10302000D801ED91FC910480F581E02DBE016B5E2D
:103030007F4FC8010995009709F03EC1F80100854E
:103040001185EACFF3E0FF120EC08F89882309F4BF
:1030500040C0823061F440E869E08EEA93E00E946B
:10306000121A811148CF81E28093EB0047CF813063
:1030700029F440E86BE082EA93E0F1CF833099F7DE
:103080000E94FC08DC011296ED90FC908E010F5F0F
:103090001F4F6801E114F10479F0D701ED91FC9123
:1030A0000680F781E02DB801C7010995080F111DB1
:1030B000F701E084F184EECFD8011C92F601019073
:1030C0000020E9F73197BF016C197D0940E0C60186
:1030D000C6CF6CE873E0FB01449150E080E80E94A9
:1030E0003E0909CF973009F4BECF983021F481E032
:1030F0008093F10000CF993009F0FDCE837009F084
:10310000B2CFE1E2F1E081E031E096E321912223C8
:1031100071F08093E9003093EB00DF0111972C915F
:103120002093EC009093ED008F5F873079F78EE766
:103130008093EA001092EA008F8980939C01DBCE95
:103140008B8D9C8D1092E90010927B0110927A0178
:103150009093790180937801898D811192C08E8935
:103160009D89913A49F4813209F07DCF47E050E0E2
:1031700064E071E080E0B3CF913209F074CF833224
:1031800069F48F89988DB0E0A0E08093000190935E
:103190000101A0930201B0930301ADCE803269F426
:1031A0008091E80082FFFCCF67E084E091E00E941C
:1031B00095098BEF8093E8009ECE823209F09BCE7A
:1031C0008F8980930B01EEEFFFE7859194918B3F00
:1031D0009C4D51F1E0E0F8E08091040190910501EF
:1031E000A0910601B0910701803B9440A105B10573
:1031F000F1F480910B0180FD1AC0EE3F8AE0F807E0
:1032000089F587E797E791838083809160008093B9
:103210007C0188E19BE00FB6F894A895809360004C
:103220000FBE9093600067CEEEEFFAE0D5CF8081BD
:1032300091818737974709F05ECEA895809160000D
:1032400088618093600080917C0180936000EE3FF4
:103250002AE0F20789F08091FE0A9091FF0A91839B
:10326000808349CE808191818737980751F290936E
:10327000FF0A8093FE0AC5CF1092FF0A1092FE0A41
:103280003ACE0E94FC08DC0112960D911C910115AA
:10329000110509F4E8CED801ED91FC910190F0817F
:1032A000E02DBE016B5E7F4FC8010995811123CED1
:1032B000F80100851185EBCF181619060CF41BCE0A
:1032C000D2CEF1E0FF12BECE60E973E004CF0F92E0
:1032D0000FB68F939F93EF93FF93809173018D5F50
:1032E0008D3708F08D5780937301E2E8F1E080811B
:1032F0008E4F808391819F4F918382818F4F8283F4
:1033000083818F4F8383E4E7F1E080818F5F808347
:1033100081818F4F818382818F4F828383818F4F01
:1033200083838FB18F6066991C9B88278F3681F4C9
:1033300080917201981B963068F0E0E0F8E087E732
:103340008083818388E180936000F0936000FFCFE9
:1033500090937201FF91EF919F918F910FBE0F900B
:1033600018951F920F920FB60F9211242F933F932F
:103370004F935F936F937F938F939F93AF93BF937D
:10338000EF93FF9380916D0190916E01A0916F0179
:10339000B0917001892B8A2B8B2B09F440C080914E
:1033A0006C0181110BC088B190E4892788B98091A4
:1033B0006B01882319F088B1805888B980916D011C
:1033C00090916E01A0916F01B091700118161906CD
:1033D0001A061B069CF480916D0190916E01A091DC
:1033E0006F01B09170010197A109B10980936D013E
:1033F00090936E01A0936F01B0937001FF91EF91D4
:10340000BF91AF919F918F917F916F915F914F91FC
:103410003F912F910F900FBE0F901F9018950E9413
:10342000B90EECCFEF92FF920F931F93CF93DF93E0
:10343000F82E192FE62E042F81E0860F880F0E94A8
:10344000100983E00E941009CF2DD12FEC0EFD2E24
:10345000F11CCE15DF05B9F007FF13C0FE01849102
:103460000E941009182F80E00E94100981232196E4
:103470008111EFCFDF91CF911F910F91FF90EF90CE
:1034800008958881EDCF81E0F5CFE2EAF5E013827F
:10349000128288EE93E0A0E0B0E084839583A68357
:1034A000B7838BE291E0918380838FEF9FEF9587C5
:1034B000848782E798E0909301068093000680E07D
:1034C00090E89093FF058093FE0546983E9A4798B2
:1034D0003F9AECE6F9E0138212828DE391E091834A
:1034E000808388E0818781E080871582168214823C
:1034F0008783ECE0F7E088E592E0DF019C011D9214
:1035000021503040E1F71092640910926609109240
:10351000650910926709109268098DE790E0909311
:103520006A098093690983E080936B09109203070D
:10353000109205071092040780E18093060780939C
:103540000707109208071092090710920A070895BA
:10355000CDB7DEB72697DEBFCDBF789483E084BDBC
:1035600083E085BD81E080936E00E1E8F0E083E0D8
:103570008083E0E881E08083E1E983E08083E0E923
:1035800081E08083E1EC87E08083E3EC81E080836D
:10359000E0EC82E08083E2EC81E08083EAE787E090
:1035A00080838068808310929C0110927F0110922A
:1035B0007E018091D70081608093D70080EA80935C
:1035C000D80089B5806189BD89B5826089BD09B49B
:1035D00000FEFDCF81E090E00E94740A8091D80047
:1035E0008F7C80618093D8008091E000807F809301
:1035F000E0008091E1008E7E8093E1008DE0809379
:10360000E200559A209A81EC80937C0081E185B993
:1036100087E684B984E38BB98FE38AB9769A6E988A
:1036200080EF81BB10BA80E58CBD81E08DBD85E067
:103630000E946F0D599A85E00E946F0D5C98E8EB2F
:10364000F3E085918EBD00000DB407FEFDCFE53C93
:10365000C1F75C9A81E88093640081E08093650003
:1036600080E00E94B2080E942C0E0E946B160E94FD
:10367000E11081E090E00E94AF2A082F0470F02E44
:1036800081FF10C0002319F02E98589A2D9A01EF4F
:103690001FEF80E40E94A40D882309F453C02E98E4
:1036A00058982D980E94240E80E00E94B2080E9433
:1036B0002C0E0E946B160E94E110809164008E7F98
:1036C0008093640080917A00806480937A00809176
:1036D0007A0086FDFCCF00917800109179000E945D
:1036E0000B0BAB01BC01C801B0E0A0E0DC019927E5
:1036F00088278C019D01040F151F261F371FC90144
:10370000B801209164002160209364006115710567
:103710008105910511F00E94A62A0E94240E0E94A4
:10372000AD0F94E0292E312C20918001222309F441
:1037300077C01092800180E090E0892BA9F30E946D
:103740000000F2CFFF2029F00430110511F42E9A69
:10375000589881E00E94B208202F2770E22EA8011D
:1037600033E0559547953A95E1F7CA019695982F1C
:1037700088279795879583569E4F70E060E04E3F6F
:103780003FEF530769F130E020E0DB01AB53BC4F62
:103790006C01E0E8CE0ED11CFD01E20FF31FE491B5
:1037A000F0E03F010E2C02C0660C771C0A94E2F791
:1037B0004F3F540739F05C01A20EB31EF501948807
:1037C0009628948AEE2039F05601A20EB31EF50118
:1037D00094889728948A2F5F3F4F28353105E1F66A
:1037E0004F5F5F4F80589F4F685A7F4F603B710516
:1037F00031F680E00E94B2088FE00E946F0D0F5FEB
:103800001F4F0931110509F044CFFF2011F0589ADC
:103810002D9880E991E00E94740A58982E9842CF22
:103820008091820190918101182F191B103140F471
:103830001F3009F480CF81E083BF889513BE7BCF12
:10384000FF24F394F092800180938101EAE8F1E093
:1038500080819181019680839183EDE9F1E02111CE
:103860002FEF8FEF21932193219321938150D0F754
:1038700000918D0100938C010E94720D80938D0147
:1038800010918E01123009F410C150F4112309F483
:10389000D3C0113009F4D3C081E00E94B2084BCFED
:1038A000133009F4B0C11430B9F78091080782339E
:1038B00010F00C94BE2788E00E94990D8823B1F186
:1038C0008091090790E02091040730910507A90134
:1038D00063E0569547956A95E1F7E0910307880FF5
:1038E000991F840F951FF4E0880F991FFA95E1F74F
:1038F0008E5F994FE80FF92FF11D818127703327D3
:1039000041E050E0BA0102C0660F771F2A95E2F746
:103910009B01482F50E046235323452B11F40C9470
:103920005B27209528232183109286010E94720D27
:1039300082FD59C088E00E94A40D882311F40C94E4
:10394000612780E80E94990D882379F0809104070F
:1039500090910507009749F0019790930507809390
:103960000407809186010E94B21080E10E94990DA7
:103970008823A1F080910407909105072091070703
:103980002150330B8217930748F401969093050753
:1039900080930407809186010E94B21080E20E9409
:1039A000990D882359F080910307882339F08150BD
:1039B00080930307809186010E94B21080E40E94E8
:1039C000990D882381F080910307209106072150EB
:1039D000330B8217130638F48F5F809303078091AF
:1039E00086010E94B21084E00E94990D882319F08C
:1039F00081E08093080784E00E94A40D8823A1F051
:103A000010910807123380F480E80E94990D8823F2
:103A100011F40C94A92710920807809109078823B4
:103A200019F08150809309070E94720D82FF109255
:103A300008070E94F01230CFF0928E012DCF009532
:103A4000802319F082E080938E0148E85FE060E116
:103A500070E080E290E00E943E0D80918A0190919A
:103A60008B0160E670E00E943A2B8033C8F411E1CC
:103A7000883108F011E300E027E045E068E170E0FC
:103A80008BE590E00E94020E10935103107A09F02A
:103A900003CF85EA80934A0385E980934B03FCCEEC
:103AA00011E5883488F311E9EFCF809189018823EB
:103AB00019F081508093890180918801882319F041
:103AC00081508093880180E20E94990D811171C01C
:103AD00080E40E94990D81116FC088E00E94990DC9
:103AE000811105C084E00E94990D882351F08091D6
:103AF0008701813009F46FC083E080938E010E94BA
:103B0000AD0F4AE15EE068E070E088E090E00E947E
:103B10003E0D21E040E470E060E085E490E00E942A
:103B2000AF0D21E040E470E060E087E490E00E94A7
:103B3000AF0D21E040E470E060E088E490E00E9496
:103B4000AF0D80918901882309F447C08FE490E08C
:103B50004CE05EE065E170E00E943E0D80918801DE
:103B60008823F1F183E790E04EEF5DE065E170E0DE
:103B70000E943E0D46EC5DE061E170E08BE590E077
:103B80000E943E0D8091870120E0813061F144E97F
:103B90005DE062E170E08CE590E00E944F0D20E076
:103BA00041E75DE069E270E084E590E00E944F0D3E
:103BB00073CE88E08093890180E40E94990D882368
:103BC00019F088E0809388018091870191E089272E
:103BD0008093870182CF84E090CF80E590E0B8CFDA
:103BE00082E790E0C1CF4FE35DE062E170E08CE5F9
:103BF00090E00E944F0D20E049E25DE069E270E054
:103C00008AE590E0D3CF00916409809167098233FF
:103C100008F02CC310E088E00E94990D8823D1F0B1
:103C2000000F111F000F111FC801845F984F0E94E1
:103C3000850FF09268090E94720D83FF1092680947
:103C400084E00E94990D882309F4C9C081E0809323
:103C5000670900C188E00E94A40D882361F3809168
:103C60006809882319F08F5F8093680980E20E94B9
:103C7000990D8823B9F010926809000F111F000FE9
:103C8000111FF801E55FF84F838194812091690944
:103C900030916A092817390770F6821B930B9483B9
:103CA0008383C9CF80E40E94990D8823E1F01092AC
:103CB0006809000F111F000F111FF801E55FF84F91
:103CC000838194812091690930916A09A901A3E057
:103CD000440F551FAA95E1F78417950708F0ABCF5D
:103CE000820F931FDCCF80E80E94990D882369F131
:103CF0008091650990916609892B09F49CCF000F8A
:103D0000111F000F111F055F184FD80111966D91FB
:103D10007C9180916B090E942710F8019283818326
:103D2000609165097091660980916B090E94271066
:103D3000909366098093650910926809D8011196DD
:103D40008D919C910E94670F76CF80E10E94990D22
:103D5000882359F18091650990916609892B09F4AE
:103D60006ACF000F111F000F111F055F184FF801D8
:103D70006181728180916B090E94FA0FD8011296BD
:103D80009C938E931197609165097091660980915B
:103D90006B090E94FA0F909366098093650910924F
:103DA0006809F80181819281CDCF809168098A31BB
:103DB00008F441CF000F111F000F111FF801E55F3C
:103DC000F84F81819281813000E8900730F09F7731
:103DD00092838183109268092ECF9068F9CF84E096
:103DE0000E94A40D8823B1F180E40E94990D8823DC
:103DF00009F4CCC010926709ECE5F9E024E930E061
:103E00008091640990E02817390760F080819181E2
:103E1000A281B38184839583A683B783215031091E
:103E20003497EECFFC01EE0FFF1FEE0FFF1FE15F97
:103E3000F84F21813281880F991F880F991FFC014B
:103E4000E55FF84F328321838091690990916A0977
:103E5000948383830E94720D82FF109267090E94EF
:103E6000720D83FD40C10E94720D82FD3CC180E253
:103E70000E94990D882371F080916409882351F084
:103E800081508093640990E00E9499109093660994
:103E90008093650980E40E94990D882309F43FC04E
:103EA00000916409011107C080910C0790910D07E2
:103EB0008115904821F48FEF800F8339E0F40F5F74
:103EC0000093640910E0C8010E949910909366095C
:103ED00080936509C801880F991F880F991FFC01FD
:103EE000E55FF84F218132812115304821F4845F4C
:103EF000984F0E94850F8091650990916609892BE2
:103F000071F4E0916B095EE1E59FF0011124E95B3A
:103F1000F34F85919491909366098093650980E8A9
:103F20000E94990D882309F492C08091640981113F
:103F300077C020910C0730910D072115304861F4AE
:103F400074E0879FF0011124E15FF84F21813281F5
:103F50002115304809F067C08F5F8093640990E0B5
:103F60000E949910BC0180916B090E9427109093C8
:103F700066098093650980916409A4E08A9FC00165
:103F80001124845F984F0E94850F4DC080E20E94EB
:103F9000990D8823F1F0E0916409EE23D1F010929D
:103FA00067098E2F90E0DC01AA0FBB1FAA0FBB1F71
:103FB000A45FB84F85399105D8F4019614964D91B8
:103FC0005D916D917C9117974D935D936D937D936A
:103FD000F1CF80916709823308F03CCF84E00E94E2
:103FE000A40D882309F436CF809167098F5F2FCE07
:103FF0008091690990916A09909367098093660995
:10400000E150E093640914E0E19FF0011124E55FC1
:10401000F84F8181928190936609809365091ACF48
:10402000843908F48DCF8091650990916609892BB8
:1040300071F4E0916B09BEE1EB9FF0011124E95BA3
:10404000F34F85919491909366098093650980E17F
:104050000E94990D882309F446C08091640981115A
:104060002CC020910C0730910D072115304859F4D0
:1040700004E0809FF0011124E15FF84F218132813B
:1040800021153048E1F48F5F8093640990E00E942D
:104090009910BC0180916B090E94FA0F90936609F8
:1040A000809365098091640924E0829FC0011124F6
:1040B000845F984F0E94850F02C08439C8F28091B6
:1040C000650990916609892B71F4E0916B093EE1D5
:1040D000E39FF0011124E95BF34F85919491909354
:1040E00066098093650940E860E170E090E080E057
:1040F0000E94750840E868E170E090E080E00E946E
:10410000750840E860E270E090E080E00E94750889
:1041100040E868E270E090E080E00E94750840E8C6
:1041200060E370E090E080E00E94750880918A0171
:1041300090918B0160E370E00E943A2B582EF09032
:104140006409AEE4AA2EB12CB6E04B2E809164092E
:104150009CE0980FF916F8F404E0F09EF0011124A9
:10416000E45FF84F60807180828093808F1107C078
:104170006114710421F460906509709066096114FE
:1041800010E8710609F01EC325E243E06EE070E01E
:10419000C5010E94D80D2091640930E0290181E019
:1041A000481A5108C901880F991F880F991FDC010F
:1041B000A55FB84F3D014CEF4203F001439FF00D66
:1041C0001124FC83EB835EE4A52EB12C8C010350FB
:1041D00011091E830D83809164098751990B48163C
:1041E00059060CF456C4EB81FC81E60DF71D2D81B8
:1041F0003E81E20FF31F00811181F301319780802E
:104200009180B80180916B090E94561018160CF02D
:10421000B8C3D12CE82E880FFF082D2D30E0609117
:10422000690970916A09C4010E943A2BE216F306EB
:104230000CF4D6C38FEF860F482F440F480F440F5E
:10424000475FC101821B930B9C01220F331F220F7A
:10425000331F5AEF5603C00111248A0D9B1DB9016B
:1042600002970E94AC08D394D394D7CF80910C01CD
:10427000813009F4D6C0B8F0823009F48AC28330A4
:1042800009F031CF80E20E94990D882319F082E075
:1042900080930C0180E40E94990D882309F489C25F
:1042A00010920C0186C280E20E94990D8111109338
:1042B0000C0180E40E94990D882319F081E080931D
:1042C0000C0180E80E94990D882339F080910D013E
:1042D000882319F0815080930D0180E10E94990D8F
:1042E000882399F080910D01843078F48230A1F513
:1042F000BE016F5F7F4F89E190E00E94F2108981DB
:10430000833619F483E080930D0184E00E94990DB7
:1043100081111092670988E00E94990D882309F4A1
:10432000E2CE80910D01823009F442C0B8F48823B6
:1043300059F1813009F0D7CE8091640944E0849F1F
:10434000C0011124845F984F209171002D7F20932C
:1043500071001092A10521C08F5FD5CF833009F481
:1043600041C0843009F0BFCE89E190E09A8389830F
:1043700064E6CE0101960E94AD1680E280930B07A1
:1043800082E080930D01AFCE809171008D7F80938C
:1043900071001092A1058CE097E09093A0058093A6
:1043A0009F0590939E0580939D050E94B90E9BCE1C
:1043B00083E680930B070BE017E099E1E92EF12CDF
:1043C000FA82E982D8016D918D01CE0101960E9499
:1043D000AD16BFEFEB1AFB0AEAE7EE16E2E0FE06C7
:1043E00079F781CEBE016F5F7F4F89E190E00E9437
:1043F000F2108981833609F076CE0BE017E089E16F
:10440000E82EF12CC7010E94AF2AD8018D938D01AF
:10441000BFEFEB1AFB0AEAE7EE16E2E0FE0691F7C1
:1044200062CE80E20E94990D10910F01882321F045
:10443000153011F410920C0180E40E94990D88232C
:1044400029F0153019F482E080930C0180E80E9475
:10445000990D882349F080910E01882329F01530A9
:1044600019F4815080930E0180E10E94990D8823F8
:1044700059F180910E01843038F5153039F58F5F90
:1044800080930E0188E00E94990D882389F085E0D1
:10449000153009F07BC180910E01823009F462C1B0
:1044A00008F474C1833009F460C1843009F460C138
:1044B00084E00E94990D882309F415CE10926709B3
:1044C00085E080930F010FCE1530E1F280E20E946B
:1044D000990D882341F080910E01882309F467C06B
:1044E000813009F4A4C080E40E94990D882351F220
:1044F00080910E01882309F4F5C0813019F680916E
:104500006B09873008F0BECF91E0980F90936B094C
:10451000BFE08B9F700111245701EFE0AE0EB11C7C
:104520007BE0C72E77E0D72EE3E66E2EE9E07E2E05
:10453000802E912CD60111962D913C912115B0E839
:104540003B0769F1A901442750783F7790E080E06C
:10455000A82FF701E80FF91FEE0FFF1FE75CF34FDD
:10456000659174912617370729F001968F309105D0
:1045700079F7A0E0F501EA0FF11DEE0FFF1FE75CF0
:10458000F34F85919491482B592BF6015283418327
:10459000C4010E9499109093660980936509F4E024
:1045A000CF0ED11C6C147D0409F0C4CF6BCFE0900A
:1045B0006909F0906A09E9E2FCE090E080E034915A
:1045C0003E151F0471F5863029F0FC01EE0FFF1F28
:1045D000E55DF34FE491F0E0EE16FF0609F483CFBA
:1045E000F0936A09E09369092BE037E0A3E6CA2E4D
:1045F000A9E0DA2ED90113968D919C91B7010E9402
:104600003A2B6E9FC0016F9F900D1124D901149613
:104610009C938E9313972C5F3F4FC216D30651F78E
:1046200062CF019632968730910549F65CCFC090F3
:104630006B098C2D90E0009709F455CF2FEF2C0DCE
:1046400020936B092FE0C29E600111240197289FDF
:104650005001299FB00C11247BE0E72E77E0F72E64
:10466000802E912CF701218132812115F0E83F073E
:1046700079F1A901442750783F7790E080E0A82F96
:10468000FC01EC0DFD1DEE0FFF1FE75CF34F659184
:1046900074912617370729F001968F30910579F725
:1046A000A0E0F501EA0FF11DEE0FFF1FE75CF34FED
:1046B00085919491482B592BD70112965C934E9378
:1046C0001197C4010E94991090936609809365091F
:1046D000B4E0EB0EF11CE3E6EE16E9E0FE0609F0AD
:1046E000C1CF01CFE0906909F0906A09E9E2FCE0EE
:1046F00090E080E034913E151F0471F5882329F085
:10470000FC01EE0FFF1FE95DF34FE491F0E0EE16C0
:10471000FF0609F4B7CEF0936A09E09369092BE02C
:1047200037E0A3E6CA2EA9E0DA2ED90113968D91BF
:104730009C91B7010E943A2B6E9FC0016F9F900D14
:104740001124D90114969C938E9313972C5F3F4F9D
:10475000C216D30651F796CE019632968730910550
:1047600049F690CE0E94AD0FA3CE0E94C211A0CEFA
:1047700010930F0110920C0110920D0110920E0176
:104780001092670982E080938E0192CE80930F0190
:104790008FCE80E20E94990D882319F081E08093EA
:1047A0000C0180E40E94990D882319F083E0809326
:1047B0000C0184E00E94990D882309F494CC109296
:1047C000670991CCB30180916B090E9456101816AD
:1047D00044F5E12C082F880F110B650122E0C21A65
:1047E000D1082E2D30E0021713070CF446C060915B
:1047F000690970916A09C4010E943A2B6150462FE1
:10480000440F460F440F475FB101621B730B660FE5
:10481000771F660F771FC6010E94AC08E394E394EC
:10482000E0CF882351F1E12C482F552741950CF416
:1048300050958A01650152E0C51AD1082E2D30E04D
:1048400002171307D4F06091690970916A09C401D5
:104850000E943A2B6150462F440F460F440F475F8A
:10486000B901645F7F4F660F771F660F771FC60120
:104870000E94AC08E394E394E1CF8114910479F1B0
:10488000809164098F1122C068E1651508F160917B
:10489000690970916A09C4010E943A2BDD24DA94F7
:1048A000D60E80916B09B30177FC47C00E94791046
:1048B000682F70E0CC24C394ED2C07E219E02D2D75
:1048C00047EA5AE0C5010E94230B09C08F15F8F290
:1048D000809165099091660968167906C1F6809104
:1048E0006409F8121DC078E17515D0F4E0916509EE
:1048F000F091660920916B098114910459F5BF016B
:10490000822F0E947910682F70E0CC24C394E12C90
:1049100007E219E020E043E256E0C5010E94230BC4
:104920006091690970916A09C4010E943A2B649DE3
:10493000A00CB11C1124F39409CC0E947910682FAB
:1049400070E0CC24C394ED2C07E219E02D2D45EA4C
:1049500057E0B8CF6091690970916A09C4010E945B
:104960003A2BDD24DA94D60EBF01822F0E947910F3
:10497000682F70E0CC24C394ED2C07E219E02D2DB4
:10498000CACF882369F1D12C682F772761950CF461
:1049900070957B012D2D30E06091690970916A0955
:1049A000C4010E943A2BE216F306D4F08FEF860F73
:1049B000482F440F480F440F475F245F3F4F220F9B
:1049C000331F220F331F7AEF7603C00111248A0DA3
:1049D0009B1DB90102970E94AC08D394D394DACFFF
:1049E00057FC2BC06091690970916A09C4010E944B
:1049F0003A2BFF24FA94F60E80916B09B80117FD4B
:104A000030C00E947910E82FF0E060916909709140
:104A10006A09C4010E943A2B0AEF0603C00111245F
:104A2000CC24C394EF2C07E219E02F2D47EA5AE07B
:104A3000BF018A0D9B1D0E94230B60916909709133
:104A40006A09C4010E943A2B2AEF2603B0011124FF
:104A5000A60EB71E31E0431A510844E0641A7108EB
:104A6000BACB0E947910E82FF0E06091690970914B
:104A70006A09C4010E943A2B1AEF1603C0011124DF
:104A8000CC24C394EF2C07E219E02F2D45EA57E020
:104A9000CFCF80916709823309F053C000E020E452
:104AA0004DE470E060E083E390E00E94020E01E0DC
:104AB00028E04CE470E060E084E390E00E94020EA5
:104AC00020E44CE470E060E084E390E00E94D80DC4
:104AD00020E04EE156E062E070E085E790E00E9461
:104AE0005F0D20E049E156E062E070E089E790E088
:104AF0000E945F0D86E38093710980937009009393
:104B000072091092730961E176E08CE699E00E94E7
:104B1000A2091AE31093710910937009BBE0FB2EF0
:104B2000F09272090093730980910C01813009F4AD
:104B3000D8C008F497C0823009F48BC1833009F4DF
:104B4000B2C100E020E44FE170E060E090E080E07E
:104B50000E94020E21E040E470E060E08DE190E010
:104B60000E94AF0D46EC5DE063E070E085E090E010
:104B70000E943E0D20E044E95DE064E070E086E0E4
:104B800090E00E944F0D01E027E04CE16CE170E005
:104B900090E080E00E94020E11E0109371091093E2
:104BA00070098CE180937209109273096FEA74E0C6
:104BB0008CE699E00E94A20960916B0970E06F5F3A
:104BC0007F4F8CE699E00E946A1127E04CE165E294
:104BD00070E090E080E00E94020E10937109109343
:104BE000700985E2809372091092730980916409BB
:104BF000893030F46DEA74E08CE699E00E94A209F5
:104C000080916409833630F46BEA74E08CE699E0B5
:104C10000E94A2096091640970E06F5F7F4F8CE68B
:104C200099E00E946A1180E1809371098093700974
:104C300085E28093720966E970E08CE699E00E9453
:104C40006A1140E06AE270E08EE090E00E947A0D26
:104C500045E754E061E370E081E090E00E943E0DA2
:104C60000C944C1C60E076E08CE699E00E94A2096E
:104C70006EEE75E08CE699E00E94A209109371092E
:104C8000109370098FE1809372096EED75E08CE6E8
:104C900099E00E94A209BE016F5F7F4F89E190E019
:104CA0000E94F21089816BEB75E0833641F46CEC65
:104CB00075E08CE699E00E94A2096EEB75E08CE647
:104CC00099E00E94A209E0910D01F0E0EA54FA4F48
:104CD000649170E021E045E087E390E00E94AF0D31
:104CE00030CF6EEA75E08CE699E00E94A2098091CF
:104CF0000F01811192C04EE156E06CE070E085E555
:104D000090E00E943E0D49E156E06CE070E080E7E3
:104D100090E00E943E0D01E027E044E16BE070E08E
:104D20008AE590E00E94020E8EE5809371098093DF
:104D30007009F092720910927309409169095091BB
:104D40006A0970E060E02AE08CE699E00E941E119A
:104D500081E0809373098AE38093710980937009DD
:104D6000A3E1FA2EF092720966EA75E08CE699E00A
:104D70000E94A20910910F01113009F060C04EE1AC
:104D800056E064E170E085E590E00E943E0D49E167
:104D900056E064E170E087E690E00E943E0D01E09D
:104DA00027E04BE063E170E08AE590E00E94020EAC
:104DB0008EE58093710980937009F09272091092C8
:104DC000730960916B0970E06F5F7F4F8CE699E02B
:104DD0000E946A11109373091AE3109371091093DA
:104DE00070098FE1809372096AE875E08CE699E0BA
:104DF0000E94A209109371091093700983E38093B4
:104E000072096BE775E08CE699E00E94A209E091D7
:104E10000E01F0E0EA58FA4F5BCF409169095091DA
:104E20006A0970E060E02AE08CE699E00E941E11B9
:104E30006BE571E08CE699E00E94781189CF609172
:104E40006B0970E06F5F7F4F8CE699E00E946A11FA
:104E5000C3CF88E3809371098093700964E675E09D
:104E60008CE699E00E94A20962E575E08CE699E083
:104E70000E94A20964E475E08CE699E00E94A20910
:104E800064E375E08CE699E00E94A20962E275E0B5
:104E90008CE699E00E94A2096DE075E08CE699E04D
:104EA0000E94A2094ECE88E3809371098093700915
:104EB00066EB74E0F3CF282B2183F09286010C94EB
:104EC000961C80E80E94990D882359F08091040770
:104ED00090910507009729F001979093050780931B
:104EE000040780E10E94990D882381F080910407D6
:104EF00090910507209107072150330B82179307E4
:104F000028F40196909305078093040780E20E949D
:104F1000990D882339F080910307882319F0815077
:104F20008093030780E40E94990D882311F40C9468
:104F3000F31C80910307209106072150330B821741
:104F4000130610F00C94F31C8F5F809303070C94EE
:104F5000F31C80E10E94990D882359F010920807F4
:104F600080910907873010F00C94141D8F5F0C940A
:104F7000121D1F5F109308070C94141D80911001DF
:104F8000813009F4E9C0E8F0823011F00C94191D69
:104F900084E00E94990D81111092080780E20E941E
:104FA000990D882319F081E08093100180E40E941C
:104FB000990D882311F40C94191D109210010C9472
:104FC000191D80E20E94990D882319F082E08093D8
:104FD000100180E40E94990D882319F081E08093EC
:104FE000100180E80E94990D8823B9F08091110189
:104FF000882399F0833009F065C0BE016F5F7F4F51
:105000008AE892E00E94F2108981833621F482E0DE
:105010008093110102C01092110180E10E94990D4C
:105020008823A1F080911101843080F481114EC059
:10503000BE016F5F7F4F8AE892E00E94F210898183
:10504000833609F041C081E08093110184E00E9421
:10505000990D81111092080788E00E94990D88230C
:1050600011F40C94191D80911101823009F460C073
:1050700078F5882309F440C0813011F00C94191D93
:10508000BE016F5F7F4F8AE892E00E94F210898133
:10509000833611F00C94191D02E016E09AE8E92E0F
:1050A00092E0F92EC7010E94AF2AD8018D938D019D
:1050B000BFEFEB1AFB0AE3E9EE16E3E0FE0691F719
:1050C0000C94191D8150A4CF83E0BECF8F5FBCCF5D
:1050D0008330F1F1843011F00C94191D85E0809338
:1050E000130110921001109212011092080782E031
:1050F00080938E010C94191D83E68093020602E0D2
:1051000016E02AE8E22E22E0F22EFA82E982D801A5
:105110006D918D01CE0101960E94AD16BFEFEB1A85
:10512000FB0AE3E9EE16E3E0FE0679F70C94191D9D
:105130008AE892E09A83898364E6CE0101960E9410
:10514000AD1680E280930206109211010C94191D95
:105150000E94C2110C94191D80E20E94990D1091B9
:105160001301882321F0153011F41092100180E40E
:105170000E94990D882329F0153019F482E080935C
:10518000100180E80E94990D882349F08091120156
:10519000882329F0153019F481508093120180E1A1
:1051A0000E94990D882309F44BC08091120185302B
:1051B00008F046C0153009F046C08F5F8093120199
:1051C00088E00E94990D882369F1153009F0ECC040
:1051D00080911201833009F49DC008F4BAC0843074
:1051E00009F4C4C08530F1F4E091090700E2E09FC2
:1051F000F001112481E090E0DC01AE0FBF1FAE5F33
:10520000B94F2C9120952C93019681319105A1F7EE
:10521000ED5EF94F80E19191DF01119790959C939C
:105220008150C9F784E00E94990D882311F40C94F1
:10523000191D1092080785E0809313010C94191D25
:10524000153009F4BDCF80E20E94990D882341F00A
:1052500080911201813069F1D8F0823009F43FC0A9
:1052600080E40E94990D882309F4AACF809112014D
:10527000813009F446C0E0F1823009F0A1CF80917D
:105280000A07873008F09CCF8F5F80930A0798CF7A
:1052900080910607823018F0815080930607809134
:1052A0000307909106078913DBCF81508093030792
:1052B000D7CF80910707823018F08150809307077D
:1052C0008091040790910507209107072817190678
:1052D00039F601979093050780930407C1CF809119
:1052E0000A07882309F4BCCF815080930A07B8CFFE
:1052F00080910607803108F063CF8F5F80930607A7
:105300005FCF80910707803108F05ACF8F5F80937D
:10531000070756CF8091090710E2819FC001112431
:105320008E5F994F21E030E0FC01E20FF31F108205
:105330002F5F3F4F21313105B9F730E020E0FC010C
:10534000E20FF31F118A2F5F3F4F20313105B9F76C
:1053500069CF90910907973038F49F5F90930A07BF
:105360008E5F809313015ECF90E0F8CF82E096E0ED
:1053700048E021E030E0FC01E20FF31F10822F5FD4
:105380003F4F21313105B9F730E020E0FC01E20F59
:10539000F31F118A2F5F3F4F20313105B9F741507C
:1053A00080964111E6CF3ECF143099F540910A071F
:1053B0002091090750E2259F9001112450E0FA0145
:1053C00085E0EE0FFF1F8A95E1F781E090E0D901BB
:1053D000A80FB91FAE5FB94F6C91DF01A80FB91FBD
:1053E000AE5FB94F6C9301968131910581F7ED5E07
:1053F000F94F10EE1403B001159F700D112480E1D8
:10540000DF01A60FB71FA20FB31F9C91919381508C
:10541000B9F785E0A6CF8F929F92AF92BF92CF92BD
:10542000DF92EF92FF92CF93DF93EC016881798155
:105430008A819B81611571058105910521F464E2E2
:1054400079ED8BE597E02DE133EF41E050E00E94EC
:10545000D72A49015A019B01AC01A7EAB1E40E9495
:10546000F62A6B017C01ACEEB4EFA50194010E9419
:10547000042BC60ED71EE81EF91EF7FE06C081E0FB
:10548000C81AD108E10880E8F80AC882D982EA82FD
:10549000FB82C701B6019F77DF91CF91FF90EF901C
:1054A000DF90CF90BF90AF909F908F9008958F9294
:1054B0009F92AF92BF92CF92DF92EF92FF92609154
:1054C00014017091150180911601909117016115D9
:1054D00071058105910521F464E279ED8BE597E092
:1054E0002DE133EF41E050E00E94D72A49015A01F3
:1054F0009B01AC01A7EAB1E40E94F62A6B017C0192
:10550000ACEEB4EFA50194010E94042BC60ED71E89
:10551000E81EF91EF7FE06C081E0C81AD108E108AE
:1055200080E8F80AC0921401D0921501E0921601A9
:10553000F0921701C701B6019F77FF90EF90DF90BF
:10554000CF90BF90AF909F908F900895609314017B
:105550007093150180931601909317010895F9999E
:10556000FECF92BD81BDF89A992780B50895262F68
:10557000F999FECF92BD81BDF89A019700B4021649
:1055800039F01FBA20BD0FB6F894FA9AF99A0FBEF7
:105590000895262FF999FECF1FBA92BD81BD20BD77
:1055A0000FB6F894FA9AF99A0FBE01960895052E4F
:1055B00097FB1EF400940E94EE2A57FD07D00E942C
:1055C000092B07FC03D04EF40C94EE2A509540951D
:1055D000309521953F4F4F4F5F4F0895909580959F
:1055E000709561957F4F8F4F9F4F08950E942B2B91
:1055F000A59F900DB49F900DA49F800D911D112427
:105600000895B7FF0C94F62A0E94F62A821B930B8A
:105610000895A1E21A2EAA1BBB1BFD010DC0AA1FF3
:10562000BB1FEE1FFF1FA217B307E407F50720F00B
:10563000A21BB30BE40BF50B661F771F881F991F86
:105640001A9469F760957095809590959B01AC01CF
:10565000BD01CF010895A29FB001B39FC001A39FD8
:10566000700D811D1124911DB29F700D811D11249B
:10567000911D0895AA1BBB1B51E107C0AA1FBB1FA8
:10568000A617B70710F0A61BB70B881F991F5A95CE
:10569000A9F780959095BC01CD010895EE0FFF1FED
:0C56A0000590F491E02D0994F894FFCFE0
:1056AC00FFFFFFFF00E1000000000000000000050C
:1056BC000000000501000000000103070F1F3F7FE1
:1056CC0000C1808100000000000000F309880A146A
:1056DC000A090A5A0A180A360A00000000470EC6C0
:1056EC0009A20EA10E0D0A003078003000587E0081
:1056FC003A597E00496D6167652000206D7300008A
:00000001FF
