:100000000C9416010C943E010C943E010C943E019C
:100010000C943E010C943E010C943E010C943E0164
:100020000C943E010C943E010C945D070C94CC079B
:100030000C943E010C943E010C943E010C943E0144
:100040000C943E010C943E010C943E010C943E0134
:100050000C943E010C943E010C943E010C94FE095C
:100060000C943E010C943E010C943E010C943E0114
:100070000C943E010C943E010C943E010C943E0104
:100080000C943E010C943E010C943E010C943E01F4
:100090000C943E010C943E010C943E010C943E01E4
:1000A0000C943E010C943E010C943E0104083E0960
:1000B000093E3F25251A1E2121123F21211E3F25E1
:1000C00025213F0505011E21293A3F04043F213F18
:1000D00021001021211F3F040A313F2020203F0230
:1000E000023F3F02043F1E21211E3F0909061E2137
:1000F000112E3F09093622252519013F01011F2034
:10010000201F0F10201F3F10103F3B04043B03042F
:100110003807312D2321102A2A3C3F2424181C2281
:1001200022141824243F1C2A2A2C047E05014C5238
:10013000523E3F040438243D20004040443D3F08E7
:100140001422213F20003E04043E3E04023C1C22B7
:10015000221C7E22221C1C22227E3E040204242A0F
:100160002A12021F22201E20201E0E10201E3E10CA
:10017000103E360808364E50503E322A26221E299E
:10018000251E223F2000322929261221251A0C0A79
:100190003F08172525191E252518013905031A259D
:1001A000251A0629291E002F000000200000D5F086
:1001B0008D14A1C881CFD9F1AF2000080B00020235
:1001C00002000009040000010202000005240010E2
:1001D000010524010101042402060524060001078B
:1001E00005810310004009040100020A0000000715
:1001F00005020240000007058302400000040309D5
:100200000412010002EF0201404123368000010187
:1002100002030141726475696E6F204C4C43006D9E
:100220006963726F6361646500007B0A11241FBEFD
:10023000CFEFDAE0DEBFCDBF11E0A0E0B1E0E8E74C
:10024000F1E202C005900D92A235B107D9F725E081
:10025000A2E5B1E001C01D92A13FB207E1F711E0B4
:10026000C6E1D1E004C02197FE010E94DC0DC5313A
:10027000D107C9F70E949F0A0C94BA100C94000091
:1002800090E0E7E9F1E091119FEF8FEF9193919367
:10029000919391938150D0F70895E7E9F1E080E0E0
:1002A000A0E0B8E000800EBC8111012C1197A0FDE8
:1002B000FDCF0192B9F70DB40895FC01809196012C
:1002C000882311F13FB7F89482E08093E9002091F0
:1002D000F200822F90E01816190614F481E090E0E5
:1002E000882339F0289844E6409395014091F10025
:1002F0004083222339F02091F200211103C02BE624
:100300002093E8003FBF08958FEF9FEF08952FB728
:10031000F89483E08093E9009091E800892F80723F
:1003200095FF04C09091F20080E4891B2FBF0895CF
:1003300080918D0181110DC082E08093890184E05C
:1003400080938A0110928C0110928B0181E080933E
:100350008D0189E891E00895CF93DF931F92CDB787
:10036000DEB76983DC01ED91FC910280F381E02D21
:1003700041E050E0BE016F5F7F4F09950F90DF9124
:10038000CF91089583E08093E9008091F200882363
:1003900019F08AE38093E80008950E94870190E0B5
:1003A0000895CF93DF931F92CDB7DEB7FC0184850C
:1003B000958597FD08C02FEF3FEF358724870F9075
:1003C000DF91CF910895CE0101960E945D010197C2
:1003D00019F4898190E0F3CF8FEF9FEFF0CF0F9367
:1003E0001F93CF93DF931F92CDB7DEB78C01FC0133
:1003F0008485958597FF0BC0CE0101960E945D0113
:10040000019771F4898190E0F80195878487F8015C
:10041000848595850F90DF91CF911F910F9108955D
:100420008FEF9FEFF1CFFC018485958597FD0BC081
:100430009FB7F89482E08093E9008091F2009FBF1B
:1004400090E0019608959FB7F89482E08093E900C8
:100450008091F2009FBF90E00895409183015091F8
:100460008401209181013091820142175307B4F435
:100470009091E8009570E1F39091E80092FD19C029
:100480008093F100809183019091840101968F7394
:100490009927892B19F48EEF8093E80080918301CE
:1004A000909184010196909384018093830181E06F
:1004B000089580E00895DF92EF92FF920F931F93CB
:1004C000CF93DF93D82E8A01EB017B01E40EF51E5A
:1004D000CE15DF0559F0D7FE12C0FE0184910E94AF
:1004E0002D0221968111F4CF0FEF1FEFC801DF918C
:1004F000CF911F910F91FF90EF90DF900895888129
:10050000EECF0F931F93CF93DF931F92CDB7DEB73C
:1005100082E0898342E450E06BEB71E080E80E9466
:100520005B020E949801DC0112960D911C9101154D
:10053000110589F0D801ED91FC910280F381E02D45
:10054000BE016F5F7F4FC801099597FD04C0F80198
:1005500000851185ECCF89810F90DF91CF911F919C
:100560000F910895615030F02091F100FC0120833B
:100570000196F8CF289884E6809395010895AF926C
:10058000BF92CF92DF92EF92FF920F931F93CF9380
:10059000DF936C017B018B01040F151FEB015E01E2
:1005A000AE18BF08C017D10759F06991D601ED9177
:1005B000FC910190F081E02DC6010995892B79F716
:1005C000C501DF91CF911F910F91FF90EF90DF90C8
:1005D000CF90BF90AF900895FC010E9483033197A4
:1005E00028F068517C4F8F4F9F4FF9CFAB01FC0132
:1005F0000E948303641775078E079F07C8F3089549
:100600008F929F92AF92BF92CF92DF92EF92FF9222
:100610000F931F93CF93DF936C017B018A0180912D
:100620000E01882309F45AC080919601882309F4A9
:1006300055C08091880180FF05C08091E0008260F4
:100640008093E000E801B12C8AEFA82E93E0892E78
:100650002AE3922E209711F4BB20C9F10E94870152
:10066000811108C0AA94AA20C9F181E090E00E94FB
:10067000EC02F0CF8C171D0611F00CF08C2F9FB7F9
:10068000F8948092E9002091E80025FD02C09FBF08
:10069000E1CF282F30E0C21BD30BF701815020F0AF
:1006A00041914093F100FACFE20EF31EBB2021F0FE
:1006B0009092E800B12CEBCF8091E80085FDE7CF68
:1006C0009092E800BB24B394209709F3F3CF5D9890
:1006D00084E680938701101611063CF081E090E0DB
:1006E000F6019383828310E000E0C801DF91CF918F
:1006F0001F910F91FF90EF90DF90CF90BF90AF9040
:100700009F908F900895A3E7B1E02FB7F8947D9163
:100710008D919C9166B52FBFA89B05C06F3F18F4C3
:100720007F5F8F4F9F4F22E0660F771F881F991FB3
:100730002A95D1F708954F925F926F927F928F9290
:100740009F92AF92BF92CF92DF92EF92FF920F9360
:100750001F93CF93DF934C015901FC2DC02FD0E0A4
:10076000CE01880D991D181619060CF067C09B0163
:100770002E0D311D121613060CF060C06034710589
:100780000CF05CC04115510509F458C0262F2770A4
:10079000F22EDB0177FD179633E0B595A7953A95D4
:1007A000E1F73A2F77FF04C0FF2011F03FEF3A0F37
:1007B000662777276819790997FC02C070E060E026
:1007C000803891050CF44BC090E89819961BA32F24
:1007D000032E000CBB0B1A2F10953F3F0CF010E0BE
:1007E00021E08E2D877009F420E0E694E694E694EB
:1007F000E20EAE0DB11D19971CF028E0E22EE31AAF
:10080000E11A310F20E83203D0011124A80DB91DDF
:10081000A60FB71F019F600D711D1124460F571FB2
:100820000F2D0F2C000C110BF33009F41CC1C8F470
:10083000F13009F4D0C0F23009F47CC0DF91CF91DF
:100840001F910F91FF90EF90DF90CF90BF90AF90EE
:100850009F908F907F906F905F904F900895902F12
:10086000B5CFFA3FB1F1232F2E0DFB3F39F73217E9
:1008700029F3BD0169567E4FD12CC12CC91608F051
:10088000A4C0FA01EC0DFD1DE491F0E04F01002E33
:1008900002C0880C991C0A94E2F737FD06C0FB01E0
:1008A0008081E82CE0948E218083FF2061F0373036
:1008B00054F45B01F0E8AF0EB11CE92CE094F501B3
:1008C00080818E218083FFEFCF1ADF0A6F5F7F4F19
:1008D000D5CF232F2E0D321709F4B0CFBD016956A5
:1008E0007E4FD12CC12CC91608F069C0FA01EC0D5D
:1008F000FD1DE491F0E04F01002E02C0880C991C10
:100900000A94E2F737FD04C0FB01808188298083C7
:10091000FF2051F0373044F45B01F0E8AF0EB11C1A
:10092000F501808189298083FFEFCF1ADF0A6F5F8D
:100930007F4FD9CF6FEF70E00F2C02C0660F771F8B
:100940000A94E2F760957095772E232F2E0D3217BB
:1009500009F474CFFD01E956FE4F6F01B12CA12CB3
:10096000A91638F5FA01EA0DFB1DE491F0E02F011C
:10097000002E02C0440C551C0A94E2F737FD05C056
:10098000F6018081862384298083FF2059F0373047
:100990004CF44601F0E88F0E911CF4018081872110
:1009A00085298083FFEFAF1ABF0A8FEFC81AD80AD4
:1009B000D7CF3F5F4C0F5D1FA058BF4FC8CF3F5FE1
:1009C0004C0F5D1FA058BF4F86CF3F5F4C0F5D1F80
:1009D000A058BF4F4CCF6A0D7B1D232F2E0D321711
:1009E00009F42CCFFD01E956FE4F6F01B12CA12C6B
:1009F000A91688F5FB01EA0DFB1D8490912C002EB1
:100A000002C0880C991C0A94E2F780949094FA0131
:100A1000EA0DFB1D6490712C002E02C0660C771C41
:100A20000A94E2F737FD05C0F60180818821862906
:100A30008083FF2049F037303CF4F601E058FF4F47
:100A40008081892187298083FFEFAF1ABF0A8FEF4A
:100A5000C81AD80ACDCF3F5F4C0F5D1F6C0F7D1FAA
:100A6000A058BF4FBCCFC92ED12CFA01E60FF71FFB
:100A7000A956BE4F00E810E00C191D09CC19DD097C
:100A8000BE01660F771F41E050E06A010F2C01C0E4
:100A9000CC0C0A94EAF7592F2E2D792ECF93DF93A1
:100AA000ED01EF96EF9622968590A590FF2059F0E4
:100AB0008C9C4001AC9C500137302CF4E880B09401
:100AC000EB20E928E99233233AF0EC90A094EA2055
:100AD000E828ED920C946D0511965A9529F72A9500
:100AE00051F0572D33951124E60FF11DA00FB11DC4
:100AF000C00FD11DD9CFDF91CF9111249FCE90E0AF
:100B00000C94EC028FB18095807F669B88601C9B63
:100B10008460089590917F01982329F49091800139
:100B2000982381E009F480E0089580389105B8F4B5
:100B300060347105A0F490E121E061FD24E060FDE6
:100B4000220F62FD2295687F969FD0011124A80F85
:100B5000A956BE4F0C90022A40FF02260C9208951F
:100B60004F925F926F927F928F929F92AF92BF92BD
:100B7000CF92DF92EF92FF920F931F93CF93DF9369
:100B8000EC014B01881A990A97FE03C09194819455
:100B9000910889E088169104D4F16C177D07F4F56B
:100BA0002E01EB0167E470E00FE410E032016C1AF3
:100BB0007D0A6B01C01AD10AD7FE03C0D194C1943B
:100BC000D108730177FE03C08FEFE81AF80AF59495
:100BD000E7948FEF061717070CF481E0A82E880F13
:100BE000BB084C165D061CF141E089E088169104B3
:100BF000DCF0BE01C8010E949505EC18FD08F7FE67
:100C000004C00A0D1B1DE60CF71C2196EACF8E01CD
:100C10009FE4492E512CC7E4D0E0C8CF2B016FE4EC
:100C200070E007E410E0C2CFB801CE01E4CFDF915D
:100C3000CF911F910F91FF90EF90DF90CF90BF90D9
:100C4000AF909F908F907F906F905F904F9008959E
:100C5000CF92EF920F93CF93DF93EC018E816A30A6
:100C600069F49D819C836985860F8E8381E090E085
:100C7000DF91CF910F91EF90CF9008956A3378F480
:100C8000603308F051C0613209F450C09FE36E3206
:100C900091F098859C5F8C81890F8C83E7CF6134BC
:100CA000C0F36B3530F09FE9960F9A3190F799EBCE
:100CB00001C09FEB960F61E0680F062E000C770BCA
:100CC000AC810A2E000CBB0BECEAF0E02DEA30E020
:100CD0008F81813069F50491F901E4904EEA50E08A
:100CE0009923D1F041E050E08E2D877011F450E04F
:100CF00040E02E2D269526952695240F352F311D63
:100D0000029FF001039FF00D11249E9FA0019F9F61
:100D1000500D112442555F4F9AEFC92E30E020E06C
:100D2000CD010E949B03B5CF94E0C4CF9EE3C3CF17
:100D30000491F901E4904EEA50E09923D1F041E0AA
:100D400050E08E2D877011F450E040E02E2D269556
:100D500026952695240F352F311D029FF001039F04
:100D6000F00D11249E9FA0019F9F500D112442550C
:100D70005F4F8BEFC82ED2CF089590E080E00895AA
:100D80008F929F92AF92BF920F931F93CF93DF9357
:100D9000CDB7DEB7A1970FB6F894DEBF0FBECDBFBB
:100DA00019A2423008F44AE08E010F5D1F4F842ED5
:100DB000912CB12CA12CA50194010E94920DE62F3B
:100DC000B901CA01EA3044F5E05DD801EE938D0126
:100DD000232B242B252B79F790E080E0109769F0E6
:100DE000FD0101900020E9F73197AF014A1B5B0B31
:100DF000BD0187EE95E00E94BF02A1960FB6F89460
:100E0000DEBF0FBECDBFDF91CF911F910F91BF907D
:100E1000AF909F908F900895E95CD7CFFC0101902F
:100E20000020E9F73197AF01481B590BBC0187EE51
:100E300095E00C94BF020E94780D70E380FD71E391
:100E400060E381FD61E350E382FD51E340E383FD14
:100E500041E330E384FD31E320E385FD21E390E3CA
:100E600086FD91E387FD27C080E31F927F931F9249
:100E70006F931F925F931F924F931F923F931F9206
:100E80002F931F929F931F928F9384E391E09F93E0
:100E90008F9389E591E09F938F930E94E20D8DB728
:100EA0009EB744960FB6F8949EBF0FBE8DBF89E5DE
:100EB00091E00C940E0781E3D8CF1F920F920FB6EA
:100EC0000F9211248F939F938091E1009091E10004
:100ED000937F9093E10083FF0FC01092E90091E0AF
:100EE0009093EB001092EC0092E39093ED0010923F
:100EF000960198E09093F00082FF22C093E09093D7
:100F0000E9009091F200992319F09AE39093E80098
:100F100090918701992341F090918701915090938E
:100F20008701911101C05D9A90919501992341F03B
:100F300090919501915090939501911101C0289A3B
:100F400084FF18C08091E2008E7E81608093E20071
:100F50008091E1008F7E8093E100809188018E7EF8
:100F60008061809388019F918F910F900FBE0F90A9
:100F70001F90189580FFF7CF8091E2008E7E8061F0
:100F80008093E2008091E1008E7E8093E100809169
:100F900088018E7E8160E5CF1F920F920FB60F926F
:100FA0001124CF92DF92EF92FF920F931F932F9312
:100FB0003F934F935F936F937F938F939F93AF93E1
:100FC000BF93EF93FF93CF93DF93CDB7DEB76C97CB
:100FD000DEBFCDBF1092E9008091E80083FF25C0FD
:100FE00068E0CE0145960E94B20282EF8093E8004D
:100FF0008D8987FF39C09091E80090FFFCCF982F32
:10100000907609F034C19E894F89588D2F89F88CCC
:10101000911131C0803861F5809186018093F10093
:101020001092F1008EEF8093E8006C960FB6F89462
:10103000DEBF0FBECDBFDF91CF91FF91EF91BF918A
:10104000AF919F918F917F916F915F914F913F9160
:101050002F911F910F91FF90EF90DF90CF900F9005
:101060000FBE0F901F9018959EEF9093E800C7CF8A
:101070001092F100D5CF913059F48111D3CF413086
:10108000510581F6809186018D7F80938601CACFBC
:10109000933049F48111C6CF4130510519F6809142
:1010A00086018260F2CF953041F48091E80080FFA4
:1010B000FCCF20682093E300B5CF963009F0A9C09B
:1010C0000B8D1C8D22E01092E90010928401109289
:1010D0008301F2122EC010928201109281010E94AF
:1010E00081021F8299E09983FA8291E09E8390EABF
:1010F00098879AEF99872091830130918401275F27
:101100003F4F3C832B838D831092E9001092840122
:1011100010928301109382010093810149E050E015
:10112000BE016F5F7F4F80E00E945B020E948102E0
:1011300079CF10938201009381010E949801DC0114
:1011400012960D911C910115110509F451C1D80198
:10115000ED91FC910480F581E02DBE016B5E7F4F27
:10116000C8010995009709F03EC1F8010085118575
:10117000EACFF3E0FF120EC08F89882309F440C044
:10118000823061F440E869E08FE192E00E94480A11
:10119000811148CF81E28093EB0047CF813029F461
:1011A00040E86BE083E192E0F1CF833099F70E9451
:1011B0009801DC011296ED90FC908E010F5F1F4F9D
:1011C0006801E114F10479F0D701ED91FC910680FA
:1011D000F781E02DB801C7010995080F111DF7012E
:1011E000E084F184EECFD8011C92F601019000203A
:1011F000E9F73197BF016C197D0940E0C601C6CF00
:101200006DEF71E0FB01449150E080E80E945B02C9
:1012100009CF973009F4BECF983021F481E0809354
:10122000F10000CF993009F0FDCE837009F0B2CF04
:10123000E0E1F1E081E031E096E32191222371F0D9
:101240008093E9003093EB00DF0111972C912093FC
:10125000EC009093ED008F5F873079F78EE78093F5
:10126000EA001092EA008F8980939601DBCE8B8D85
:101270009C8D1092E900109284011092830190934A
:10128000820180938101898D811192C08E899D890F
:10129000913A49F4813209F07DCF47E050E067E0B0
:1012A00071E080E0B3CF913209F074CF833269F4FA
:1012B0008F89988DB0E0A0E08093030190930401A2
:1012C000A0930501B0930601ADCE803269F4809100
:1012D000E80082FFFCCF67E087E091E00E94B20265
:1012E0008BEF8093E8009ECE823209F09BCE8F89EF
:1012F00080930E01EEEFFFE7859194918B3F9C4D1B
:1013000051F1E0E0F8E08091070190910801A0918F
:101310000901B0910A01803B9440A105B105F1F4A7
:1013200080910E0180FD1AC0EE3F8AE0F80789F532
:1013300087E797E7918380838091600080938501A0
:1013400088E19BE00FB6F894A895809360000FBEEB
:101350009093600067CEEEEFFAE0D5CF8081918167
:101360008737974709F05ECEA89580916000886125
:10137000809360008091850180936000EE3F2AE0B9
:10138000F20789F08091FE0A9091FF0A9183808391
:1013900049CE808191818737980751F29093FF0A57
:1013A0008093FE0AC5CF1092FF0A1092FE0A3ACE31
:1013B0000E949801DC0112960D911C9101151105F6
:1013C00009F4E8CED801ED91FC910190F081E02D77
:1013D000BE016B5E7F4FC8010995811123CEF801D4
:1013E00000851185EBCF181619060CF41BCED2CE52
:1013F000F1E0FF12BECE61E072E004CF0F920FB6B3
:101400008F939F93EF93FF93809172018D5F8D3740
:1014100008F08D5780937201EBE7F1E080818E4FE9
:10142000808391819F4F918382818F4F82838381BB
:101430008F4F8383E3E7F1E080818F5F8083818139
:101440008F4F818382818F4F828383818F4F8383EC
:101450008FB18F6066991C9B88278F3681F48091AD
:101460007101981B963068F0E0E0F8E087E7808330
:10147000818388E180936000F0936000FFCF9093B8
:101480007101FF91EF919F918F910FBE0F90189571
:10149000EF92FF920F931F93CF93DF93F82E192FA4
:1014A000E62E042F81E0860F880F0E942D0283E034
:1014B0000E942D02CF2DD12FEC0EFD2EF11CCE154A
:1014C000DF05B9F007FF13C0FE0184910E942D02D1
:1014D000182F80E00E942D02812321968111EFCFE9
:1014E000DF91CF911F910F91FF90EF900895888128
:1014F000EDCF81E0F5CFE7E9F5E01382128288EEC7
:1015000093E0A0E0B0E084839583A683B7838AE16B
:1015100091E0918380838FEF9FEF95878487E7EE3B
:10152000F5E0138212828CE291E091838083118630
:1015300081E08087158216821482878308957894CB
:1015400083E084BD83E085BD81E080936E00E1E8A7
:10155000F0E083E08083E0E881E08083E1E983E0FC
:101560008083E0E981E08083E1EC87E08083E3EC45
:1015700081E08083E0EC82E08083E2EC81E08083A4
:10158000EAE787E08083806880831092960110925A
:101590008601109288018091D70081608093D700E6
:1015A00080EA8093D80089B5806189BD89B5826061
:1015B00089BD09B400FEFDCF81E090E00E94EC02FD
:1015C0008091D8008F7C80618093D8008091E0006A
:1015D000807F8093E0008091E1008E7E8093E10027
:1015E0008DE08093E200559A209A81EC80937C00F4
:1015F00081E185B987E684B984E38BB98FE38AB941
:10160000769A6E9880EF81BB10BA80E58CBD81E040
:101610008DBD85E00E947F05599A85E00E947F0577
:101620005C98EEEAF1E085918EBD00000DB407FEF6
:10163000FDCFEB3BC1F75C9A81E88093640081E0C9
:10164000809365000E944D010E94820584FF15C0B1
:101650005C9885EA8EBD00000DB407FEFDCF5C9A54
:101660002E9858982D988091640080628093640031
:1016700081E083BF889513BEFCCF0E94820582FF64
:1016800039C02E9A589A2D980E948205847184310F
:10169000A1F42D9A88EC0E947F0558986FEF82E0A4
:1016A00090E00E94800D84EF91E00E94EC02589A35
:1016B0000E94820584718431D9F30E948205847866
:1016C0008438A1F42D9A88EC0E947F052E9860E062
:1016D00082E090E00E94800D84EF91E00E94EC0295
:1016E0002E9A0E94820584788438D9F388EC0E946F
:1016F0007F05C3CF2E9858982D980E94400180E115
:10170000809300010FE07724739472E0672E43E228
:10171000542E13E55DE2352E67E3462E8091790164
:10172000882349F01092790180E090E0892BB1F391
:101730000E940000ECCF90917B0180917A01292FCB
:10174000281B822F20910001821740F48F5F82179F
:1017500058F781E083BF889513BEE6CF7092790178
:1017600090937A01E7E7F1E080819181019680838F
:1017700091838091800180937F010E9482058093F4
:1017800080010E944001E7E1F2E091E8915081F48C
:10179000E7E9F3E098E4915089F4E7E1F4E098E4B4
:1017A000915091F08191DF01119780628C93F8CF75
:1017B0008191DF01119784608C93E8CF8191DF01E3
:1017C000119781608C93E7CF60E170E080E290E058
:1017D0000E94B0056DE370E08DE290E00E94B005DC
:1017E0006092EC056092EB051092ED0586E491E0C5
:1017F0000E940E07C0900101D09002010D2C000C38
:10180000EE08FF084AE0C701B601F7FE0DC06DE221
:1018100087EE95E00E94280666277727CB016C1992
:101820007D098E099F094AE00E94C006E0900101EF
:10183000F09002019CE0E91AF108B12CA12C8091F2
:101840000101909102019C01245F3F4F2E153F053D
:101850000CF479C0C701F7FE25C09C5F0E94780D8B
:10186000282EC50165E070E00E94B40DEC016230E5
:101870007105F1F1ECF477FF2CC09FE0921520F098
:1018800080E591E00E940E07622D70E090E080E01C
:1018900040E10E94C0062FEFE21AF20A8FEFA81A69
:1018A000B80ACDCFE11424E0F206C4F29450D6CFAA
:1018B0006530710514F7809FC02D1124CE5FC09351
:1018C000EC05C093EB056D5F7F4F660F660F660FEB
:1018D0000CC0809FC02D1124CE5FC093EC05C09337
:1018E000EB05660F660F660F625F6093ED05C5CF6F
:1018F000029731F53EE1C32ED12C23E2822E912CAA
:1019000041E0B401C6010E9495059FEF891A990A2A
:101910002BE282169104A1F78FEFC81AD80A9BE236
:10192000C916D10451F71092EE050C9FC02D112459
:10193000CE5FC093EC05C093EB055092ED059DCFB3
:101940007092EE05F2CF1093EC051093EB05009327
:10195000ED0502970E941B071093EC051093EB0511
:1019600099E19093ED058091010190910201019719
:101970000E941B07C1E5D0E093E2E92EF12C41E083
:10198000B701CE010E9495052FEFE21AF20A8BE211
:10199000E816F104A1F72196C736D10569F7CAE622
:1019A000D0E083E2E82EF12C41E0B701CE010E94A5
:1019B00095059FEFE91AF90A2BE2E216F104A1F767
:1019C0002196C038D10569F71092EE051093EC0509
:1019D0001093EB055092ED05809101019091020169
:1019E0000E941B077092EE051093EC051093EB0517
:1019F0003092ED05809101019091020101960E94C3
:101A00001B071093EC051093EB054092ED058091B8
:101A100001019091020102960E941B0780E40E943E
:101A20008A05882349F08091010190910201019774
:101A30009093020180930101809101019091020134
:101A400097FF06C08FEF93E090930201809301010E
:101A500080E20E948A05882349F0809101019091DB
:101A6000020101969093020180930101809101018E
:101A7000909102018115944024F01092020110927D
:101A8000010180E10E948A05882349F080910101CB
:101A9000909102010597909302018093010180913A
:101AA00001019091020197FF05C09C5F9093020194
:101AB0008093010180E80E948A05882349F0809183
:101AC000010190910201059690930201809301011A
:101AD0008091010190910201811524E092072CF080
:101AE000945090930201809301010E944D011CCEFD
:101AF000F999FECF92BD81BDF89A992780B50895D6
:101B0000262FF999FECF92BD81BDF89A019700B4B6
:101B1000021639F01FBA20BD0FB6F894FA9AF99A56
:101B20000FBE0895A1E21A2EAA1BBB1BFD010DC01A
:101B3000AA1FBB1FEE1FFF1FA217B307E407F5077D
:101B400020F0A21BB30BE40BF50B661F771F881F59
:101B5000991F1A9469F760957095809590959B01EF
:101B6000AC01BD01CF01089597FB072E16F4009438
:101B700007D077FD09D00E94C80D07FC05D03EF4C0
:101B8000909581959F4F0895709561957F4F089529
:101B9000AA1BBB1B51E107C0AA1FBB1FA617B70793
:101BA00010F0A61BB70B881F991F5A95A9F78095AF
:101BB0009095BC01CD010895EE0FFF1F0590F491A3
:101BC000E02D0994AEE0B0E0E8EEFDE00C94911059
:101BD0000D891E8986E08C831A8309838FEF9FE726
:101BE0009E838D83AE01475E5F4F6F89788DCE01F6
:101BF00001960E94050E2F813885020F131FF801F0
:101C000010822E96E4E00C94AD10ABE0B0E0EBE077
:101C1000FEE00C9483107C013B018A01FC011782D9
:101C20001682838181FFC8C1CE0101965C01F70154
:101C30009381F30193FD859193FF81913F01882367
:101C400009F453C1853239F493FD859193FF819155
:101C50003F01853229F4B70190E00E94F50FE7CFEC
:101C6000912C212C312CFFE1F31538F08B3211F13E
:101C700090F4803209F1833229F137FC3CC020ED29
:101C8000280F2A3050F536FE20C08AE0989E200D9D
:101C90001124922E06C08D3291F0803371F7689432
:101CA00030F8F30193FD859193FF81913F018111FC
:101CB000DACF21C0689431F8689432F8F2CF689492
:101CC00033F8EFCF689434F8ECCFEAE02E9E200D85
:101CD0001124222E689435F8E4CF8E3229F436FC94
:101CE00004C1689436F8DDCF8C3619F4689437F85F
:101CF000D8CF8836B1F2982F9F7D95549330E0F07D
:101D00008336A1F18337C1F1833509F063C028011F
:101D1000F2E04F0E511CF801C080D180692D70E0B7
:101D200036FC02C06FEF7FEFC6010E94DF0F4C014F
:101D3000689437F882010AC00C5F1F4FFFE3F983F4
:101D400088248394912C6501E89437F833FE2DC0E4
:101D5000522C8114910471F5552009F468CFB70114
:101D600080E290E00E94F50F5A94F6CFF80180814E
:101D700089830E5F1F4FE4CF2801F2E04F0E511C04
:101D8000F801C080D180692D70E036FC02C06FEF91
:101D90007FEFC6010E94EA0F4C018201D5CFB70147
:101DA00080E290E00E94F50F2A942814190409F0AB
:101DB000B0F7CECFF60137FC859137FE81916F01E8
:101DC000B70190E00E94F50F51105A94F1E08F1A7C
:101DD0009108BFCF843619F0893609F077C0F80131
:101DE00037FE6BC060817181828193810C5F1F4FD0
:101DF000F32DFF763F2E97FF09C090958095709543
:101E000061957F4F8F4F9F4F689437F82AE030E0FD
:101E1000A5010E942510C82ECA188C2C432C36FE12
:101E20000CC0E89440F8C91440F434FE05C032FCFC
:101E300003C0F32DFE7E4F2E892C44FE95C0FE017B
:101E4000EC0DF11D8081803309F087C0242D297E9F
:101E5000422E842D8870582E43FC95C040FE8FC0C2
:101E60009C2C821418F42C0C922C981844FE91C0CF
:101E7000B70180E390E00E94F50F42FE09C088E7B9
:101E800090E041FE02C088E590E0B7010E94F50FA6
:101E9000C91408F48AC0CA94D12C9FEFC91AD90A70
:101EA000CA0CDB1CF60182916F01B70190E00E9421
:101EB000F50FAC14BD04B1F74FCF60817181072ECF
:101EC000000C880B990B0E5F1F4F92CFD32CE89418
:101ED000D4F82AE030E0853739F1232D297FD22E3E
:101EE0008F3601F148F48835A9F0F7018681978192
:101EF0002B96E2E10C949F10803749F08837A9F7C0
:101F0000D4FE02C06894D2F820E130E00DC068949D
:101F1000D4F8F6CF34FE03C0822F8660D82E20E19D
:101F200032E002C028E030E0F801D7FE0FC0608147
:101F30007181828193810C5F1F4FA5010E94251042
:101F4000C82ECA183D2CE89437F867CF608171819C
:101F500090E080E00E5F1F4FF0CF42FC02C0839400
:101F600078CF8394839475CF842D867809F471CFCC
:101F7000F6CFB70180E290E00E94F50F83948214BF
:101F8000C0F3512C73CF522C5818821408F46ECF22
:101F9000F8CF842D867809F47BCF8BE241FE80E276
:101FA00047FC8DE2B70190E071CFB70180E390E08C
:101FB0000E94F50F9A946CCF8FEF9FEF99CFFC01A1
:101FC0000590615070400110D8F7809590958E0F64
:101FD0009F1F0895FC016150704001900110D8F7D7
:101FE000809590958E0F9F1F08950F931F93CF9309
:101FF000DF93182F092FEB018B8181FD09C01FEFA3
:102000000FEF812F902FDF91CF911F910F910895A6
:1020100082FF14C02E813F818C819D812817390752
:102020003CF4E881F981CF0101969983888310837C
:102030008E819F8101969F838E83E3CFE885F9850A
:10204000812F0995892BA1F3DACFFA01AA2728302D
:1020500051F1203181F1E8946F936E7F6E5F7F4F75
:102060008F4F9F4FAF4FB1E03ED0B4E03CD0670FF1
:10207000781F891F9A1FA11D680F791F8A1F911D44
:10208000A11D6A0F711D811D911DA11D20D009F494
:1020900068943F912AE0269F11243019305D3193D6
:1020A000DEF6CF010895462F4770405D4193B3E0BF
:1020B0000FD0C9F7F6CF462F4F70405D4A3318F066
:1020C000495D31FD4052419302D0A9F7EACFB4E017
:1020D000A6959795879577956795BA95C9F70097CF
:1020E0006105710508959B01AC010A2E0694579570
:1020F000479537952795BA95C9F7620F731F841FC7
:10210000951FA01D08952F923F924F925F926F925C
:102110007F928F929F92AF92BF92CF92DF92EF9277
:10212000FF920F931F93CF93DF93CDB7DEB7CA1BF8
:10213000DB0B0FB6F894DEBF0FBECDBF09942A8823
:10214000398848885F846E847D848C849B84AA84CB
:10215000B984C884DF80EE80FD800C811B81AA8158
:10216000B981CE0FD11D0FB6F894DEBF0FBECDBF23
:08217000ED010895F894FFCF82
:10217800101000FFFFFFFF00E1000000000000005A
:10218800C1808100000000000000AC010003CD0107
:10219800C2011302D101EF01000000002806BF02AE
:1021A800BD06BC06256325632563256320256325B5
:1021B8006325632563004C6F636174696F6E20004B
:0221C8003000E5
:00000001FF
