:100000000C9452180C947A180C947A180C947A1850
:100010000C947A180C947A180C947A180C947A1818
:100020000C947A180C947A180C9429220C94982227
:100030000C947A180C947A180C947A180C947A18F8
:100040000C947A180C947A180C947A180C947A18E8
:100050000C947A180C947A180C947A180C94CA247C
:100060000C947A180C947A180C947A180C947A18C8
:100070000C947A180C947A180C947A180C947A18B8
:100080000C947A180C947A180C947A180C947A18A8
:100090000C947A180C947A180C947A180C947A1898
:1000A0000C947A180C947A180C947A1800000000BA
:1000B00000F0FCFEFEFFFFFFFFFEFEFCF000000074
:1000C0000000000000000000000000000000000030
:1000D0000000000000000000000000000000000020
:1000E0000000000000000000000000000000000010
:1000F0000000000000000000000000000000000000
:1001000000000000000000000000000000000000EF
:1001100000000000000000000000000000000000DF
:1001200000000000000000000000000080C0C0E0EF
:10013000C0C0E3C73FFFFFFFFFBF87C3C0E0C0C031
:10014000E0C0800000800080C0E0C0C0E0C080C08F
:10015000800080C0E0C0C0E0E0C080008080C0C0FF
:10016000E0C0C0E0C080C0E0C0C0E0C080C080800F
:100170000080C0E0C0C0E0C000800080C0800000FF
:10018000800080C08080C0E0C0C0E0C080C080002F
:1001900080C0E0C0C0E0C0C080008080C0C0E0C0BF
:1001A000C0E0C080C0C0C0C0E0C080C00303030383
:1001B000030303030303030303030303030303030F
:1001C00003030303030303030303030303030303FF
:1001D00003030303030303030303030303030303EF
:1001E00003030303030303030303030303030303DF
:1001F00003030303030303030303030303030303CF
:1002000003030303030303030303030303030303BE
:1002100003030303030303030303030303030303AE
:100220000303030303030303030303038012000018
:1002300000000000F0DCFC76DEFEB6FC0CF00000F6
:1002400000000000000000000000000000000000AE
:10025000000000000000000000000000000000009E
:10026000000000000000000000000000000000008E
:10027000000000000000000000000000000000007E
:10028000000000000000000000000000000000006E
:10029000000000000000000000000000000000005E
:1002A00000000000000000000000000000000080CE
:1002B00000C0008040030317F7B51502038000C09B
:1002C0000080400000000000000080C0008040006E
:1002D000008000000080C00080400080000000001E
:1002E0008000C0008040800000C00080400000808E
:1002F0000000000000C000804000000000008000FE
:10030000000000000080000000C00080400000806D
:1003100000000080C00080400080000000008000DD
:10032000C0008040800000C00080400000800203C8
:100330000203030302030200030002030203020399
:100340000303020303020203020303030203030382
:100350000203020203030302030203030202030275
:100360000303030203020303020302030303020362
:100370000203020303030203030302030202030353
:100380000202030202030203030302030303020344
:100390000202030303020302030302020302030334
:1003A0000302030203030203020303030203F8FC34
:1003B000FEFF070787C7C7CFCF86C0C0C0C0C0C079
:1003C000FEFFFFFEFFFFFFC7C78F0F060000FCFE0A
:1003D000FFFF070707071F3F3E9CC0C0C0C0C0C04B
:1003E00080C080C0C080C0C08080C0C0C0C0C0808D
:1003F0000080C0C0C0C080C080C080C0C080A0F0ED
:10040000F0A0C0C0C0C0C0C080C080C0C080000F0D
:100410001F3F7F707070717F7F7F3F7F7F717F7F15
:100420007F3F7F7F7F7F7F7F010100000000001FF3
:100430003F7F7F70707070787C3C3F7F7F717F7FE3
:100440007F3F7F7F3F7F7F3F7F7FFFFFFFF17F7F8A
:100450003F1F3F7F7F713F7F7F3F7F7F3F7F7F3F9A
:100460007F7F3F7F7F717F7F7F3F7F7F3F7F7F3FAA
:10047000000000000000000000000000000000007C
:10048000000000000000000000000000000000006C
:10049000000000000000000000000000000000005C
:1004A000000000000000000000000000010100004A
:1004B000000000000000000000000000000000003C
:1004C000000000000000000000000000000000002C
:1004D00000611100F8FC060202028282868600801A
:1004E000808080808000FEFE00FEFE828282060602
:1004F00000000000FCFE0602020202061E1C008034
:10050000808080808000800080800080800000806B
:1005100080808080000000808080800080008000DB
:1005200080800000A0A0008080808080800080000B
:1005300080800000000F1F3020202020203F3F003F
:100540003F2020203F3F003F3F003F3F0000000092
:1005500000000000001F3F3020202020203818001D
:100560003F2020203F3F003F3F003F3F003F3F00F4
:10057000FFE020203F1F001F3F2020103F3F003F93
:100580003F003F3F003F3F003F2020203F3F003FD4
:100590003F003F3F0000000000000000000000009E
:1005A000000000000000000000000000000000004B
:1005B000000000000000000000000000000000003B
:1005C000000000000000000000000000000000002B
:1005D000000000000000000000000000000000001B
:1005E000000000000000000000000000000000000B
:1005F00000000000000000000000000000000000FB
:1006000000000000000000000000000000000000EA
:1006100000000000000000000000000000000000DA
:1006200000000000000000000000000000000000CA
:1006300000000000000000000000000000000000BA
:1006400000000000000000000000000000000000AA
:10065000000000000000000000000000000000009A
:10066000000000000000000000000000000000008A
:10067000000000000000C0F0C0C0E0E0C0C0E0C06A
:10068000C0E0C0C0F0E0C0C0E0C0C0F0C0C0E0F05A
:10069000C0C0E0C0C0F0C0C0E0C0F0E0C0C0E0C07A
:1006A000F0C0C0E0C0F0E0C0C0F0C0E0C0C0E0E01A
:1006B000C0C0E0C0C0E0C0C0F0E0C0C0E0C0C0F05A
:1006C000C0C0E0F0C0C0E0C0C0F0C0C0E0C0F0E01A
:1006D000C0C0E0C0F0C0C0E0C0F0E0C0C0F0C0E00A
:1006E000C0E0E0C0C0E0C0E0C0F0C0C0E0E0C0C01A
:1006F000E0C0C0E0C0C0FAFCFAFCFAFCFAFCFAFC6C
:10070000FAFCFAFCFAFCFAFCFAFCFAFCFAFCFAFC39
:10071000FAFCFAFCFAFCFAFCFAFCFAFCFAFCFAFC29
:10072000FAFCFAFCFAFCFAFCFAFCFAFCFAFCFAFC19
:10073000FAFCFAFCFAFCFAFCFAFCFAFCFAFCFAFC09
:10074000FAFCFAFCFAFCFAFCFAFCFAFCFAFCFAFCF9
:10075000FAFCFAFCFAFCFAFCFAFCFAFCFAFCFAFCE9
:10076000FAFCFAFCFAFCFAFCFAFCFAFCFAFCFAFCD9
:10077000FAFCFAFCFAFCFFFFFFFFFFFFFFFFFFFFA1
:10078000FFFFFFFFFFFFFFFFFFFFFFFFFFFFFFFF79
:10079000FFFFFFFFFFFFFFFFFFFFFFFFFFFFFFFF69
:1007A000FFFFFFFFFFFFFFFFFFFFFFFFFFFFFFFF59
:1007B000FFFFFFFFFFFFFFFFFFFFFFFFFFFFFFFF49
:1007C000FFFFFFFFFFFFFFFFFFFFFFFFFFFFFFFF39
:1007D000FFFFFFFFFFFFFFFFFFFFFFFFFFFFFFFF29
:1007E000FFFFFFFFFFFFFFFFFFFFFFFFFFFFFFFF19
:1007F000FFFFFFFFFFFFFFFFFFFFFFFFFFFFFFFF09
:10080000FFFFFFFFFFFFFFFFFFFFFFFFFFFFFFFFF8
:10081000FFFFFFFFFFFFFFFFFFFFFFFFFFFFFFFFE8
:10082000FFFFFFFFFFFFFFFFFFFFFFFFFFFFFFFFD8
:10083000FFFFFFFFFFFFFFFFFFFFFFFFFFFFFFFFC8
:10084000FFFFFFFFFFFFFFFFFFFFFFFFFFFFFFFFB8
:10085000FFFFFFFFFFFFFFFFFFFFFFFFFFFFFFFFA8
:10086000FFFFFFFFFFFFFFFFFFFFFFFFFFFFFFFF98
:10087000FFFFFFFFFFFFFFFFFFFFFFFFFFFFFFFF88
:10088000FFFFFFFFFFFFFFFFFFFFFFFFFFFFFFFF78
:10089000FFFFFFFFFFFFFFFFFFFFFFFFFFFFFFFF68
:1008A000FFFFFFFFFFFFFFFFFFFFFFFFFFFFFFFF58
:1008B000FFFFFFFFFFFFFFFFFFFFFFFFFFFFFFFF48
:1008C000FFFFFFFFFFFFFFFFFFFFFFFFFFFFFFFF38
:1008D000FFFFFFFFFFFFFFFFFFFFFFFFFFFFFFFF28
:1008E000FFFFFFFFFFFFFFFFFFFFFFFFFFFFFFFF18
:1008F000FFFFFFFFFFFFB33DB337BB3BB737BB374E
:10090000B73BB733BD3BB737BB37B33DB337BB3D61
:10091000B337BB37B33DB337BB33BD3BB737BB335F
:10092000BD33B73BB33DBB37B33DB33BB737BB3B41
:10093000B737BB37B73BB733BD3BB737BB37B33D33
:10094000B337BB3DB337BB37B33DB337BB33BD3B29
:10095000B737BB33BD33B73BB33DBB37B33DB33B19
:10096000B73BBB37B73BB73BB33DB337BB3BB73701
:10097000BB37B73BB733AA55AA55AA55AA55AA55AE
:10098000AA55AA55AA55AA55AA55AA55AA55AA556F
:10099000AA55AA55AA55AA55AA55AA55AA55AA555F
:1009A000AA55AA55AA55AA55AA55AA55AA55AA554F
:1009B000AA55AA55AA55AA55AA55AA55AA55AA553F
:1009C000AA55AA55AA55AA55AA55AA55AA55AA552F
:1009D000AA55AA55AA55AA55AA55AA55AA55AA551F
:1009E000AA55AA55AA55AA55AA55AA55AA55AA550F
:1009F000AA55AA55AA5504083E09093E3F25251ABD
:100A00001E2121123F21211E3F2525213F050501E1
:100A10001E21293A3F04043F213F21001021211FBC
:100A20003F040A313F2020203F02023F3F02043FA3
:100A30001E21211E3F0909061E21112E3F090936DC
:100A400022252519013F01011F20201F0F10201F03
:100A50003F10103F3B04043B03043807312D232192
:100A6000102A2A3C3F2424181C2222141824243F34
:100A70001C2A2A2C043E05014C52523E3F040438E5
:100A8000243D20004040443D3F081422213F2000E7
:100A90003E04043E3E04023C1C22221C7E22221CF8
:100AA0001C22227E3E040204242A2A12021F222033
:100AB0001E20201E0E10201E3E10103E3608083646
:100AC0004E50503E322A26221E29251E223F20004B
:100AD000322929261221251A0C0A3F081725251923
:100AE0001E252518013905031A25251A0629291E50
:100AF000002F00000020000002290502000404006D
:100B000000000000003E5B4F5B3E3E6B4F6B3E1CA7
:100B10003E7C3E1C183C7E3C181C577D571C1C5EBE
:100B20007F5E1C00183C1800FFE7C3E7FF00182495
:100B30001800FFE7DBE7FF30483A060E262979293F
:100B400026407F050507407F05253F5A3CE73C5A74
:100B50007F3E1C1C08081C1C3E7F14227F22145F51
:100B60005F005F5F06097F017F006689956A6060AC
:100B700060606094A2FFA29408047E040810207EA6
:100B8000201008082A1C08081C2A08081E1010102B
:100B9000100C1E0C1E0C30383E3830060E3E0E0671
:100BA000000000000000005F0000000700070014C4
:100BB0007F147F14242A7F2A122313086462364983
:100BC0005620500008070300001C2241000041226B
:100BD0001C002A1C7F1C2A08083E08080080703070
:100BE00000080808080800006060002010080402DF
:100BF0003E5149453E00427F4000724949494621E5
:100C000041494D331814127F1027454545393C4A58
:100C1000494931412111090736494949364649496F
:100C2000291E0000140000004034000000081422B7
:100C30004114141414140041221408020159090625
:100C40003E415D594E7C1211127C7F494949363E26
:100C5000414141227F4141413E7F494949417F090C
:100C60000909013E414151737F0808087F00417F17
:100C700041002040413F017F081422417F40404015
:100C8000407F021C027F7F0408107F3E4141413EAD
:100C90007F090909063E4151215E7F09192946262F
:100CA0004949493203017F01033F4040403F1F2033
:100CB00040201F3F4038403F63140814630304780A
:100CC00004036159494D43007F414141020408102A
:100CD00020004141417F0402010204404040404065
:100CE000000307080020545478407F2844443838D3
:100CF00044444428384444287F3854545418000845
:100D00007E090218A4A49C787F0804047800447D1E
:100D100040002040403D007F1028440000417F40BB
:100D2000007C047804787C0804047838444444380F
:100D3000FC1824241818242418FC7C0804040848EF
:100D40005454542404043F44243C4040207C1C2040
:100D500040201C3C4030403C44281028444C90909B
:100D6000907C4464544C44000836410000007700F5
:100D700000004136080002010204023C2623263C02
:100D80001EA1A161123A4040207A3854545559218D
:100D90005555794121545478412155547840205477
:100DA0005579400C1E5272123955555559395454C3
:100DB000545939555454580000457C410002457D32
:100DC000420001457C40F0292429F0F0282528F034
:100DD0007C545545002054547C547C0A097F493288
:100DE000494949323248484832324A4848303A4103
:100DF00041217A3A42402078009DA0A07D394444A8
:100E000044393D4040403D3C24FF2424487E494332
:100E1000662B2FFC2F2BFF0929F620C0887E0903A3
:100E200020545479410000447D413048484A3238CA
:100E30004040227A007A0A0A727D0D19317D2629F6
:100E4000292F28262929292630484D4020380808EE
:100E5000080808080808382F10C8ACBA2F10283422
:100E6000FA00007B000008142A142222142A140815
:100E70009500220095AA005500AAAA55AA55AA00D5
:100E80000000FF00101010FF00141414FF001010D9
:100E9000FF00FF1010F010F0141414FC001414F7ED
:100EA00000FF0000FF00FF1414F404FC14141710DA
:100EB0001F10101F101F1414141F00101010F0002A
:100EC0000000001F101010101F10101010F0100064
:100ED0000000FF101010101010101010FF10000074
:100EE00000FF140000FF00FF00001F10170000FCAF
:100EF00004F414141710171414F404F40000FF0081
:100F0000F714141414141414F700F7141414171409
:100F100010101F101F141414F4141010F010F0000F
:100F2000001F101F0000001F14000000FC14000030
:100F3000F010F01010FF10FF141414FF1410101014
:100F40001F00000000F010FFFFFFFFFFF0F0F0F0C7
:100F5000F0FFFFFF0000000000FFFF0F0F0F0F0F5B
:100F600038444438447C2A2A3E147E020206060293
:100F70007E027E0263554941633844443C04407E0E
:100F8000201E2006027E020299A5E7A5991C2A4987
:100F90002A1C4C7201724C304A4D4D303048784812
:100FA00030BC625A463D3E494949007E0101017EFE
:100FB0002A2A2A2A2A44445F444440514A44404051
:100FC000444A51400000FF0103E080FF0000080890
:100FD0006B6B083612362436060F090F0600001810
:100FE000180000001010003040FF0101001F010137
:100FF0001E00191D1712003C3C3C3C000000000084
:10100000D5F08D14A1C881CFD9F1AF2000FFFFFF2B
:10101000FFFFFFFFFFFFFFFFFFFFFFFFFFFFFFFFE0
:10102000FFFFFFFFFFFFFFFFFFFFFFFFFFFFFFFFD0
:10103000FFFFFFFFFFFFFFFFFFFFFFFFFFFFFFFFC0
:10104000FFFFFFFFFFFFFFFFFFFFFFFFFFFFFFFFB0
:10105000FFFFFFFFFFFFFFFFFFFFFFFFFFFFFFFFA0
:10106000FFFFFFFFFFFFFFFFFFFFFFFFFFFFFFFF90
:10107000FFFFFFFFFFFFFFFFFFFFFFFFFFFFFFFF80
:10108000FFFFFFFFFFFFFFFFFFFFFFFFFF0101016A
:1010900001010101010101C1E1F9F9F9F9F9F9F9D8
:1010A000F9F9F9F9F9F9F9F9F9F9F9F9F9F9F9F9B0
:1010B000F9F9F9F9F9F9F9F9F9F9F9F9F9F9F9F9A0
:1010C000F9F9F9F9F9F9F9F9F9F9F9F9F9F9F9F990
:1010D000F9F9F9F9F9F9F9F9F9F9F9F9F9F9F9F980
:1010E000F9F9F9F9F9F9F9F9F9F9F9F9F9F9F9F970
:1010F000F9F9F9F9F9F9F9F9F9F9F9F9F9F9F9F960
:10110000F9E1C1010101010101010101010000003A
:1011100000000000000000FFFFFFFFFFFFFFFFFFD8
:10112000FFFFFFFFFFFFFFFFFFFFFFFFFFFFFFFFCF
:10113000FFFFFFFFFFFFFFFFFFFFFFFFFFFFFFFFBF
:10114000FFFFFFFFFFFFFFFFFFFFFFFFFFFFFFFFAF
:10115000FFFFFFFFFFFFFFFFFFFFFFFFFFFFFFFF9F
:10116000FFFFFFFFFFFFFFFFFFFFFFFFFFFFFFFF8F
:10117000FFFFFFFFFFFFFFFFFFFFFFFFFFFFFFFF7F
:10118000FFFFFFBF5E00000000000000002070F8BD
:10119000FCFCFCFCF87020FFFFFFFFFFFFFFFFFFE0
:1011A000FFFFFFFFFFFFFFFFFFFFFFFFFFFFFFFF4F
:1011B000FFFFFFFFFFFFFFFFFFFFFFFFFFFFFFFF3F
:1011C000FFFFFFFFFFFFFFFFFFFFFFFFFFFFFFFF2F
:1011D000FFFFFFFFFFFFFFFFFFFFFFFFFFFFFFFF1F
:1011E000FFFFFFFFFFFFFFFFFFFFFFFFFFFFFFFF0F
:1011F000FFFFFFFFFFFFFFFFFFFFFFFFFFFFFFFFFF
:10120000FFFFFFAA550000000000000000000001E1
:1012100003030303010000FFFFFFFFFFFFFFFFFFCA
:10122000FFFFFFFFFFFFFFFFFFFFFFFFFFFFFFFFCE
:10123000FFFFFFFFFFFFFFFFFFFFFFFFFFFFFFFFBE
:10124000FFFFFFFFFFFFFFFFFFFFFFFFFFFFFFFFAE
:10125000FFFFFFFFFFFFFFFFFFFFFFFFFFFFFFFF9E
:10126000FFFFFFFFFFFFFFFFFFFFFFFFFFFFFFFF8E
:10127000FFFFFFFFFFFFFFFFFFFFFFFFFFFFFFFF7E
:10128000FFFFFFAA55000000000000000000000062
:1012900000008080C0C0C0FFFFFFFFFFFFFFFFFF17
:1012A000FFFFFFFFFFFFFFFFFFFFFFFFFFFFFFFF4E
:1012B000FFFFFFFFFFFFFFFFFFFFFFFFFFFFFFFF3E
:1012C000FFFFFFFFFFFFFFFFFFFFFFFFFFFFFFFF2E
:1012D000FFFFFFFFFFFFFFFFFFFFFFFFFFFFFFFF1E
:1012E000FFFFFFFFFFFFFFFFFFFFFFFFFFFFFFFF0E
:1012F000FFFFFFFFFFFFFFFFFFFFFFFFFFFFFFFFFE
:10130000FFFFFFEAD5C08080000000000000000061
:101310003CFFFFFFFFFFFFFFFFFFFFFFFFFFFFFFA0
:10132000FFFFFFFFFFFFFFFFFFFFFFFFFFFFFFFFCD
:10133000FFFFFFFFFFFFFFFFFFFFFFFFFFFFFFFFBD
:10134000FFFFFFFFFFFFFFFFFFFFFFFFFFFFFFFFAD
:10135000FFFFFFFFFFFFFFFFFFFFFFFFFFFFFFFF9D
:10136000FFFFFFFFFFFFFFFFFFFFFFFFFFFFFFFF8D
:10137000FFFFFFFFFFFFFFFFFFFFFFFFFFFFFFFF7D
:10138000FFFFFFFFFFFFFFFFFF3C000000F0F8F052
:10139000F0F8F1CFFFFFFFFFFFFFFFFFFFFFFFFFB1
:1013A000FFFFFFFFFFFFFFFFFFFFFFFFFFFFFFFF4D
:1013B000FFFFFFFFFFFFFFFFFFFFFFFFFFFFFFFF3D
:1013C000FFFFFFFFFFFFFFFFFFFFFFFFFFFFFFFF2D
:1013D000FFFFFFFFFFFFFFFFFFFFFFFFFFFFFFFF1D
:1013E000FFFFFFFFFFFFFFFFFFFFFFFFFFFFFFFF0D
:1013F000FFFFFFFFFFFFFFFFFFFFFFFFFFFFFFFFFD
:10140000FFFFFFFFFFFFFFF9F0F0F8F0F080407EF4
:10141000FFFFFFFFFFFFFFFFFFFFFFFFFFFFFFFFDC
:10142000FFFFFFFFFFFFFFFFFFFFFFFFFFFFFFFFCC
:10143000FFFFFFFFFFFFFFFFFFFFFFFFFFFFFFFFBC
:10144000FFFFFFFFFFFFFFFFFFFFFFFFFFFFFFFFAC
:10145000FFFFFFFFFFFFFFFFFFFFFFFFFFFFFFFF9C
:10146000FFFFFFFFFFFFFFFFFFFFFFFFFFFFFFFF8C
:10147000FFFFFFFFFFFFFFFFFFFFFFFFFFFFFFFF7C
:10148000FFFFFFFFFFFFFFFFFFFFFFFFFFFF7E00EC
:1014900000000000000000000000C02090505050EC
:1014A000505050505050505050505050505050503C
:1014B000505050505050505050505050505050502C
:1014C000505050505050505050505050505050501C
:1014D000505050505050505050505050505050500C
:1014E00050505050505050505050505050505050FC
:1014F00050505050505050505050505050505050EC
:10150000509020C00000000000000000000000001B
:1015100000000000000000000000FF00FF000000CD
:101520007E12120C00427E40000020545478009C31
:10153000A0A07C0038545458007C08040800000027
:1015400000FF0000000000444A4A320038444428AA
:101550000038444438007C080408003854545800CB
:10156000000000FF000000040E44300C22200000A8
:101570007E12120C0020545478007C0804080000ED
:1015800000FF00FF0000000000000000000000203D
:1015900050A884243484A8502000FF00FF020202D7
:1015A000020202020202020202020202020202021B
:1015B000020202020202020202020202020202020B
:1015C00002FA020202020202020202020202020203
:1015D00002020202020202020202020202020202EB
:1015E000020202FA020202020202020202020202E3
:1015F00002020202020202020202020202020202CB
:1016000002FF00FF000000000000000000000000DA
:1016100000010202020201000000FF00FF000400BE
:10162000040004000400040004000400040004009A
:10163000040004000400040004000400040004008A
:1016400000FF000004000400040004000400040083
:10165000040004000400040004000400040004006A
:10166000040000FF00000400040004000400040063
:10167000040004000400040004000400040004004A
:1016800000FF00FF0000000000000000000000005C
:10169000000000000000808080807F00FF000800C4
:1016A00008000800080008000800080008000800FA
:1016B00008000800080008000800080008000800EA
:1016C00000FF0000080008000800080008000800EB
:1016D00008000800080008000800080008000800CA
:1016E000080000FF000008000800080008000800CB
:1016F00008000800080008000800080008000800AA
:1017000000FF007F8080808000000000000000005B
:101710000000003CF7FFDDF77F6DBFC33C00100009
:101720001000100010001000100010001000100039
:101730001000100010001000100010001000100029
:1017400000FF00001000100010001000100010003A
:101750001000100010001000100010001000100009
:10176000100000FF0000100010001000100010001A
:1017700010001000100010001000100010001000E9
:10178000003CF7FFDDF77F6DBFC33C000000008029
:10179000F0C0E090C08005FD2D85D080EF80E0C0D6
:1017A000E080C0C080A0C080C0E0E080E0C0C08019
:1017B000E08080C0E0E080E080C0E08080C080E029
:1017C000C0E780E080E0C080E080E0C0C080E080D2
:1017D000C080C0C0E080E0C0C0A0C08080E0C08009
:1017E00080C0808FE080C0C0E080E0C0C080E0802A
:1017F00080C0E0E080E080C0E0808080E080E0C0E9
:10180000E097C0A005FD2D85C090E080F0C0E0808D
:1018100040007E08087E003844443800427E400084
:101820000038545458000000000078EEFEBBEFFF73
:10183000DB7E867800000000007F000000000000D2
:101840000000000000000000007F00000000000019
:101850000000000000000000007F00000000000009
:101860000000000000000000007F00FF00000000FA
:10187000000002027E02023844443800043E444024
:10188000002054547800427E400000000000000018
:1018900000FD0D6D6D9DFDFD5D5D3DFD1DBDDDBD65
:1018A000FDFDFDFDFDFDFDFDFDFDFE7DF50BFB5A86
:1018B000AAF5FDFEFDFDFDFDFD05FDFDFDFDFDFDAA
:1018C000FDFDFDFDFDFDFDFDFD05FDFDFDFDFDFD40
:1018D000FDFDFDFDFDFDFDFDFD05FDFDFDFDFDFD30
:1018E000FDFDFDFDFDFDFDFDFD05F8F265EAEAEA01
:1018F000EAEAEAEAEAEAEAEAEA6AEAEAEAEAEAEAC8
:101900006AEAEAEA6AEAEAEAEAEA6AEAEAEAEA6A37
:10191000EA17141717171716151514171417171792
:101920001716151616151516151614171414151660
:1019300015151615151615141FA81F1F1F1F1F1F7D
:101940001F1F1F1F1F1F1F1F1FA81F1F1F1F1F1F1E
:101950001F1F1F1F1F1F1F1F1FA81F1F1F1F1F1F0E
:101960001F1F1F1F1F1F1F1F1FA81F14171415162F
:101970001615151615151615141716151516151412
:101980001714151617141516151417141516141701
:1019900016808080808080808080808080808080B1
:1019A0008080808080808080808080808080808037
:1019B000808080808080808000AA008080808080FD
:1019C000808080808080808000AA008080808080ED
:1019D000808080808080808000AA008080808080DD
:1019E000808080808080808000AA008080808080CD
:1019F00080808080808080808080808080808080E7
:101A000080808080808080808080808080808080D6
:101A10008000000000000000000000000000000046
:101A200000000000000000000000000000000000B6
:101A3000000000000000000000AA000000000000FC
:101A4000000000000000000000AA000000000000EC
:101A5000000000000000000000AA000000000000DC
:101A6000000000000000000000AA000000000000CC
:101A70000000000000000000000000000000000066
:101A80000000000000000000000000000000000056
:101A9000000404040404040404040404040404040A
:101AA00004040404040404040404040404040404F6
:101AB000040404040404040400AA00040404040448
:101AC000040404040404040400AA00040404040438
:101AD000040404040404040400AA00040404040428
:101AE000040404040404040400AA00040404040418
:101AF00004040404040404040404040404040404A6
:101B00000404040404040404040404040404040495
:101B100004202020202020202020202020202020E1
:101B200020202020202020202020202020202020B5
:101B3000202020202020202000AA0020202020205B
:101B4000202020202020202000AA0020202020204B
:101B5000202020202020202000AA0020202020203B
:101B6000202020202020202000AA0020202020202B
:101B70002020202020202020202020202020202065
:101B80002020202020202020202020202020202055
:101B90002000000000000000000000000000000025
:101BA0000000000000000000000000000000000035
:101BB000000000000000000000AA0000000000007B
:101BC000000000000000000000AA0000000000006B
:101BD000000000000000000000AA0000000000005B
:101BE000000000000000000000AA0000000000004B
:101BF00000000000000000000000000000000000E5
:101C000000000000000000000000000000000000D4
:101C100000206E616D653F2000506C617965722017
:101C200000000000000000000000000000000000B4
:101C300000000000000000000000000000000000A4
:101C400000FFFFFFFFFFFFFFFFFFFFFFFFFFFFFFA3
:101C5000FFFFFFFFFFFFFFFFFFFFFFFFFFFFFFFF94
:101C6000FFFFFFFFFFFFFFFFFFFFFFFFFFFFFFFF84
:101C7000FFFFFFFFFFFFFFFFFFFFFFFFFFFFFFFF74
:101C80000000000000000000000000000000000054
:101C90000000000000000000000000000000000044
:101CA0000000000000000000000000000000000034
:101CB0000000000000000000000000000000000024
:101CC00000FFFFFFFFFFFFFFFFFFFFFFFFFFFFFF23
:101CD000FFFFFFFFFFFFFFFFFFFFFFFFFFFFFFFF14
:101CE000FFFFFFFFFFFFFFFFFFFFFFFFFFFFFFFF04
:101CF000FFFFFFFFFFFFFFFFFFFFFFFFFFFFFFFFF4
:101D000000000000000000000000000000000000D3
:101D100000000000000000000000000000000000C3
:101D200000000000000000000000000000000000B3
:101D300000000000000000000000000000000000A3
:101D400000FFFFFFFFFFFFFFFFFFFFFFFFFFFFFFA2
:101D5000FFFFFFFFFFFFFFFFFFFFFFFFFFFFFFFF93
:101D6000FFFFFFFFFFFFFFFFFFFFFFFFFFFFFFFF83
:101D7000FFFFFFFFFFFFFFFFFFFFFFFFFFFFFFFF73
:101D80000000000000000000000000000000000053
:101D90000000000000000000000000000000000043
:101DA0000000000000000080C0C0E0E0E0E0C0C033
:101DB00080000000000000000000000000000000A3
:101DC00000FFFFFFFFFFFFFFFFFFFFFFFFFFFFFF22
:101DD000FFFFFFFFFFFFFFFFFFFFFFFFFFFFFFFF13
:101DE000FFFFFFFFFFFFFFFFFFFFFFFFFFFFFFFF03
:101DF000FFFFFFFFFFFFFFFFFFFFFFFFFFFFFFFFF3
:101E000000000000000000000000000000000000D2
:101E100080C0C0E0E0E0E0C0C08000000000000042
:101E20000000000000001E7FFFFFFFFFFFFFFFFF1D
:101E30007F1E000000000000000000000000000005
:101E400000FFFFFFFFFFFFFFFFFFFFFFFFFFFFFFA1
:101E5000FFFFFFFFFFFFFFFFFFFFFFFFFFFFFFFF92
:101E6000FFFFFFFFFFFFFFFFFFFFFFFFFFFFFFFF82
:101E7000FFFFFFFFFFFFFFFFFFFFFFFFFFFFFFFF72
:101E80000000000000000000000000000000001E34
:101E90007FFFFFFFFFFFFFFFFF7F1E00000000002E
:101EA00000F0F8F8FCF8F8FCF8E2FFFFFFF7F2F0BA
:101EB000F8F8FCF8F8FCF8F0E0E0F0E0F0F8FCF8F6
:101EC000FCFFFFFFFFFFFFFFFFFFFFFFFFFFFFFF25
:101ED000FFFFFFFFFFFFFFFFFFFFFFFFFFFFFFFF12
:101EE000FFFFFFFFFFFFFFFFFFFFFFFFFFFFFFFF02
:101EF000FFFFFFFFFFFFFFFFFFFFFFFFFFFFFFFFF2
:101F0000F8F0F8F0E0F0F0F8FCF8F8FCF8FCF8F87D
:101F1000FCF8FAFFFFFFFFF2F8FCF8F8FCF8E0E04D
:101F2000F0FFFFFFFFFFFFFFFFFFFFFFFFFFFFFFD0
:101F3000FFFFFFFFFFFFFFFFFFFFFFFFFFFFFFFFB1
:101F4000FFFFFFFFFFFFFFFFFFFFFFFFFFFFFFFFA1
:101F5000FFFFFFFFFFFFFFFFFFFFFFFFFFFFFFFF91
:101F6000FFFFFFFFFFFFFFFFFFFFFFFFFFFFFFFF81
:101F7000FFFFFFFFFFFFFFFFFFFFFFFFFFFFFFFF71
:101F8000FFFFFFFFFFFFFFFFFFFFFFFFFFFFFFFF61
:101F9000FFFFFFFFFFFFFFFFFFFFFFFFFFFFFFFF51
:101FA000FFFFFFFFFFFFFFFFFFFFFFFFFFFFFFFF41
:101FB000FFFFFFFFFFFFFFFFFFFFFFFFFFFFFFFF31
:101FC000FFFFFFFFFFFFFFFFFFFFFFFFFFFFFFFF21
:101FD000FFFFFFFFFFFFFFFFFFFFFFFFFFFFFFFF11
:101FE000FFFFFFFFFFFFFFFFFFFFFFFFFFFFFFFF01
:101FF000FFFFFFFFFFFFFFFFFFFFFFFFFFFFFFFFF1
:10200000FFFFFFFFFFFFFFFFFFFFFFFFFFFFFFFFE0
:10201000FFFFFFFFFFFFFFFFFFFFFFFFFFFFFFFFD0
:10202000FF804000000000000000000000000000F1
:1020300000000000000000000000000000000000A0
:1020400000000000FF00FF00000000000000000092
:102050000000000000000000000000000000000080
:102060000000000000000000000000000000000070
:102070000000000000000000000000000000FF0061
:10208000FF00000000000000000000000000000051
:102090000000000000000000000000000000000040
:1020A0000000000000000000000000000000000030
:1020B0000000000000000000000000000000000020
:1020C00000000000FF00FF0000000000082088382A
:1020D000F8E0F8F838884040E00000608000E00058
:1020E00000000000800000000000000000008000F0
:1020F0000000004000000000000000000000FF00A1
:10210000FF000000000000000000000000000000D0
:1021100000000000000000000000000000000000BF
:1021200000000000000000000000000000000000AF
:10213000000000000000000000000000000000009F
:1021400000000000FF00FF0000000000000000028F
:1021500008030701180B0B0600000000030E010026
:1021600006090E000F010E010E001F0906000E00E9
:102170000F02000F000609000B0D00000000FF0019
:10218000FF00000000000000000000000000000050
:10219000000000000000000000000000000000003F
:1021A000000000000000000000008080C0C0C0C02F
:1021B000808000000000000000000000000000001F
:1021C00000000000FF00FF00000000000000E03001
:1021D000FA6C7878786CFA30E0000000FC2404D4C3
:1021E00000FC00F020C020C000C020C008FC08C0D7
:1021F0002060000000000000000000000000FF0060
:10220000FF000000000000000000000000000000CF
:102210000000008080C0C0C0C080800000000000BE
:102220000000000000000000001E7B7FEEFBBFB638
:102230005F611E00000000000000000000000000C0
:1022400000000000FF00FF00000000000000000090
:102250000001010001010000000000000100000178
:102260000001000100010001000001000001000068
:102270000101000000000000000000000000FF005D
:10228000FF0000000000000000000000000000004F
:1022900000001E7B7FEEFBBFB65F611E00000000EA
:1022A000000000C0F0C0F8E0F0C8E0C082FE96C2B6
:1022B000E0C0F0C0F8E0F0C8E0E0C0C0E0C0E0F08E
:1022C000F8C0F0E8E7C0F7C0C0E0F0F8C0F0C8E040
:1022D000F0C0C0E0C0F0E0F8C0F0C8F0E0C0F8C066
:1022E000F0E8E0C0F0C0E0C0E0E0F8C0F0E8E0C036
:1022F000E0C0C0F0E0C0C0E0C0C0F0C0E0E0FFC09F
:10230000F7E8E0C0F0C0C0E0E0F0F8C0F0F8E0F8B6
:10231000E0F0C8E0D082FE96C2E0C0F8C0F0E8E08D
:10232000C0C0E0FFFFEFFFE3FFE7FBEFFFFFFFFFB2
:10233000FFEFFFE3FFE7FBFFFFFFFFFFFFFFFFEF05
:10234000FFE3FFE7FBEFFFFFFFFFFFEFFFE3FFE729
:10235000FBEFFFFFFFFFFFFFFFEFFFE3FFE7FBEFF9
:10236000FFFFFFFFFFEFFFE3FFE7FBEFFFFFFFFFD5
:10237000FFFFFFEFFFE3FFE7FBEFFFFFFFFFFFEFD5
:10238000FFE3FFE7FBEFFFFFFFFFFFFFFFFFEFFFB5
:10239000E3FFE7FBEFFFFFFFFFFFEFFFE3FFE7FBDD
:1023A000EFFFFFFFFFFFFFFFFFFFF7FFF1FFF3FD71
:1023B000F7FFFFFFFFFFFFFFFFFFFFFFFFFFFFFF35
:1023C000FFFFFFFFF7FFF1FFF3FDF7FFFFFFFFFF49
:1023D000FFFFFFFFFFFFFFFFFFFFFFFFFFFFF7FF15
:1023E000F1FFF3FDF7FFFFFFFFFFFFFFFFFFFFFF21
:1023F000FFFFFFFFFFFFFFFFF7FFF1FFF3FDF7FF19
:10240000FFFFFFFFFFFFFFFFFFFFFFFFFFFFFFFFDC
:10241000FFFFFFF7FFF1FFF3FDF7FFFFFFFFFFFFF8
:10242000FFFFFF050700003E000005077F7F7F7F5D
:102430007F000000000000C0E0F0F0F0F0F0F0F0ED
:10244000F0F0F0F0F0F0F0F0F0F0F0F0F0F0F0F08C
:10245000F0F0F0F0F0F0F0F0F0F0F0F0F0F0F0F07C
:10246000F0F0F0F0F0F0F0F0F0F0F0F0F0F0F0F06C
:10247000F0F0F0F0F0F0F0F0F0F0F0F0F0F0F0F05C
:10248000F0F0F0F0F0F0E0C000000000000000000C
:10249000000000000000000000000000000000003C
:1024A000000000000000000000000000000000002C
:1024B00000000000000000FFFFFFFFFFFFFFFFFF25
:1024C000FFFFFFFFFFFFFFFFFFFFFFFFFFFFFFFF1C
:1024D000FFFFFFFFFFFFFFFFFFFFFFFFFFFFFFFF0C
:1024E000FFFFFFFFFFFFFFFFFFFFFFFFFFFFFFFFFC
:1024F000FFFFFFFFFFFFFFFFFFFFFFFFFFFFFFFFEC
:10250000FFFFFFFFFFFFFFFF0000000000000000D3
:1025100000000000000000000000000000000000BB
:1025200000000000000000000000000000000000AB
:1025300000000000000000FFFFFFFFFFFFFFFFFFA4
:10254000FFFFFFFFFFFFFFFFFFFFFFFFFFFFFFFF9B
:10255000FFFFFFFFFFFFFFFFFFFFFFFFFFFFFFFF8B
:10256000FFFFFFFFFFFFFFFFFFFFFFFFFFFFFFFF7B
:10257000FFFFFFFFFFFFFFFFFFFFFFFFFFFFFFFF6B
:10258000FFFFFFFFFFFFFFFF00000000000000E073
:10259000E0E0E0E0E0E0E0E0E0E0E0E0E0E0E0001B
:1025A000000000000000000000000000000000002B
:1025B00000000000000000FFFFFFFFFFFFFFFFFF24
:1025C000FFFFFFFFFFFFFFFFFFFFFFFFFFFFFFFF1B
:1025D000FFFFFFFFFFFFFFFFFFFFFFFFFFFFFFFF0B
:1025E000FFFFFFFFFFFFFFFFFFFFFFFFFFFFFFFFFB
:1025F000FFFFFFFFFFFFFFFFFFFFFFFFFFFFFFFFEB
:10260000FFFFFFFFFFFFFFFF00000000000000EFE3
:10261000EFEFEFEFEFEFEFEFEFEFEFEFEFEFEFE0D9
:10262000E0E0E0E00000000000000000000000002A
:1026300000000000000000FFFFFFFFFFFFFFFFFFA3
:10264000FFFFFFFFFFFFFFFFFFFFFFFFFFFFFFFF9A
:10265000FFFFFFFFFFFFFFFFFFFFFFFFFFFFFFFF8A
:10266000FFFFFFFFFFFFFFFFFFFFFFFFFFFFFFFF7A
:10267000FFFFFFFFFFFFFFFFFFFFFFFFFFFFFFFF6A
:10268000FFFFFFFFFFFFFFFF00000000000000EF63
:10269000EFEFEFEFEFEFEFEFEFEFEFEFEFEFEFEF4A
:1026A000EFEFEFEFE0E0E0E0E0E00000000000002E
:1026B0000000000000000003878FCFCFCFCF8F8FA7
:1026C0000F0F0F0F0F0F0F0F0F0F0F0F0F0F0F0F1A
:1026D0000F0F0F0F0F0F0F0F0F0FFFFFFFFFFFFF6A
:1026E000FFFFFF0F0F0F0F0F0F0F0F0F0F0F0F0F2A
:1026F0000F0F0F0F0F0F0F0F0F0F0F0F0F0F0F8F6A
:102700008FCFCFCFCF8F8703000000000000000FD6
:102710000F0F0F0F0F0F0F0F0F0F0F0F0F0F0F0FC9
:102720000F0F0F0F0F0F0F0F0F0F00000000000013
:102730000000000000003CFFFFFFFFFFFFFFFFFF66
:10274000FF3C00000000000000000000000000004E
:1027500000000000000000000000FFFFFFFFFFFF7F
:10276000FFFFFF000000000000000000000000006C
:10277000000000000000000000000000003CFFFF1F
:10278000FFFFFFFFFFFFFFFF3C0000000000000015
:102790000000000000000000000000000000000039
:1027A0000000000000000000000000000000000029
:1027B00000E0F0F0F8F0F0F8F1CFFFFFFFFFEFE1FD
:1027C000F0F0F8F0F0F8F0E0C0C0E0C0E0F0F8F0B1
:1027D000F0F8F0E0F0E0C0E0F0F8FFFFFFFFFFFFEF
:1027E000FFFFFFF0F0F8F0F0F8F0E0F0F8F0F0F8AC
:1027F000F0E0F0E0E0C0E0F0F8F0F0F8F0F0F8F130
:10280000EFFFFFFFFFEFE1F0F0F8F0F0F8F0E0E0AD
:10281000C0E0F0E0F0F8F0F0F8F0E0F0E0F0E0F028
:10282000F8F0F0F8F8F0F0E0E0E0F0F0F8F0F0F8B0
:10283000F0804000000000000000C0E0E060606048
:102840006060606060606060606060606060606088
:102850006060606060606060606060606060606078
:102860006060606060606060606060606060606068
:102870006060606060606060606060606060606058
:10288000606060606060E0E0C00000000000000088
:102890000000000000000000000000000000000038
:1028A0000000000000000000000000000000000028
:1028B00000000000000000000000FFFF00FE01011A
:1028C00001010101010101010101010101010101F8
:1028D0000101010181C161212121212161610101E8
:1028E000010101010101E1E101E1E1212121616138
:1028F00001010101010101010101010101010101C8
:102900000101010101FE00FFFF00000000000000C6
:1029100000000000000000000000000000000000B7
:1029200000000000000000000000000000000000A7
:1029300000000000000000000000FFFF00FF00009A
:102940000000C0E0602020202060E0C00000000007
:1029500000000000FFFF000000000808F8F800F881
:10296000080808F8F800FFFF00FFFF08080800004B
:102970000000000000000000000000000000000057
:102980000000000000FF00FFFF000000000000004A
:102990000000C08000C000C0404000C0008000C0F7
:1029A0000000000000000000000000000000000027
:1029B00000000000000000000000FFFF00FF00001A
:1029C0000000FFFF000000000000818100F80808FF
:1029D00008F8F800F8F10BFAF20AFAF203FB080B18
:1029E0000AFAF203F3F80B0B08F3FB00F8F008F80F
:1029F000F000FAFA00F8080808F8F800F8F008F80B
:102A0000F000000000FF00FFFF00000000000000D9
:102A10000000C740C107C047450580414601C64187
:102A2000400040C040000000000000000000000026
:102A300000000000000000000000FFFF007F808019
:102A4000808081838382828282828381808382826A
:102A5000828383808383808383808383808F8E823D
:102A60008283818081838282818383808383808348
:102A70008380838380838282828383808383808335
:102A800083808080807F00FFFF0000000000000046
:102A90000000C7414600C745C500C4454200C745C0
:102AA0008500C00740C0400080404000000000009A
:102AB00000000000000000000000030787868686F3
:102AC00006060606060606060606060606060606A6
:102AD00006060606060606060606060606C606C616
:102AE000C6C6C6C606060606060606060606060686
:102AF0000606060606060606060606060606060676
:102B00000606068686868707030000000000000090
:102B1000000007040400070106000705050007047C
:102B20000700070000070000040502000000000085
:102B30000000000000000000003CF7FFDDF77F6DA3
:102B4000BFC33C00000000000000000000000000C7
:102B500000000000000000000000000000FF00FF77
:102B6000FFFFFFFF00000000000000000000000069
:102B70000000000000000000000000000000000055
:102B80003CF7FFDDF77F6DBFC33C00000000000095
:102B90000000000000000000000000000000000035
:102BA0000000000000000000000000000000000025
:102BB00000000080E080F0C0E090C08005FD2D8521
:102BC000C080E080F0C0E090C0C08080C080C0E0E5
:102BD000F080E0D0C080E08080C0E0F080EF90C75F
:102BE000EF9FBFDF80E0C0F080E090E0C080F08029
:102BF000E0D0C080E080C080C0C090E080F0C0E045
:102C000090C08005FD2D85C080E080F0C0E090C0C0
:102C1000C08080C0A0C0E0F080E0D0C080E080A094
:102C2000C0E0F080E090C0E08080C080E0C0F08034
:102C3000E090E00000000000000000000000000044
:102C40000000000000000000000000000000000084
:102C50000000000000000000000000000000000074
:102C60000000000000000000000000000000000064
:102C70000000000000000000000000000000000054
:102C80000000000000000000000000000000000044
:102C90000000000000000000000000000000000034
:102CA0000000000000000000000000000000000024
:102CB0000000000000000000000000000000000014
:102CC0000000000000000000000000000000000004
:102CD00000000000000000000000000000000000F4
:102CE00000008080808080800000000080808080E4
:102CF00080808080000000000000000000000000D4
:102D000000000000000000000000000000000000C3
:102D100000000000000000000000000000000000B3
:102D200000000000000000000000000000000000A3
:102D30000000000000000000000000000000000093
:102D40000000000000000000000000000000000083
:102D50000000000000000000000000000000000271
:102D60000A2AA8A38F3FFFFFFEF08000FFFFFFFFAE
:102D7000FFFFFF0700000000000080808080C0C0CF
:102D800000800000000000000000000000000000C3
:102D90000000000000000000000000000000000033
:102DA0000000000000000000000000000000000023
:102DB0000000000000000000000000000000000013
:102DC0000000000000000000000000000000000003
:102DD00000000000000000000000000000000000F3
:102DE000000000020A0A28A3871F7FFCFFFFFFFFE5
:102DF000FF7F01F0F8FCFE06A30B07073F0F230837
:102E000002000000000000000000000000000000C0
:102E100000000000000000000000000000000000B2
:102E200000000000000000000000000000000000A2
:102E30000000000000000000000000000000000092
:102E40000000000000000000000000000000000082
:102E50000000000000000000000000000000000072
:102E60000000000000000000020A28A1871F7FFF69
:102E70001F0080F1F3F3636322B21E2028000000DC
:102E80000000000000000000000000000000000042
:102E90000000000000000000000000000000000032
:102EA0000000000000000000000000000000000022
:102EB0000000000000000000000000000000000012
:102EC0000000000000000000000000000000000002
:102ED00000000000000000000000000000000000F2
:102EE000000000000000080808C808884A8A48480E
:102EF0000888498908CA480948C8480808080000DD
:102F000000000000000000000000000000000000C1
:102F100000000000000000000000000000000000B1
:102F200000000000000000000000000000000000A1
:102F30000000000000000000000000000000000091
:102F40000000000000000000000000000000000081
:102F50000000000000000000000000000000000071
:102F60000000000000000000000003000002030356
:102F70000001020100030100000300000000000046
:102F80000000000000000000000000000000000041
:102F90000000000000000000000000000000000031
:102FA0000000000000000000000000000000000021
:102FB0000000000000000000000000000000000011
:102FC0000000000000000000000000000000000001
:102FD00000000000000000000000000000000000F1
:102FE00000000000000000000000000000000000E1
:102FF00000000000000000000000000000000000D1
:1030000000000000000000000000000000000000C0
:1030100000000000000000000000000000000000B0
:1030200000000000000000000000000000000000A0
:10303000000000080B000202020000090400000169
:1030400002020000052400100105240101010424EE
:10305000020605240600010705810310004009044B
:103060000100020A000000070502024000000705F7
:1030700083024000000403090412010002EF020170
:1030800040412336800001010203014172647569E9
:103090006E6F204C4C43006D6963726F63616465B1
:1030A0000000472511241FBECFEFDAE0DEBFCDBF01
:1030B00011E0A0E0B1E0E8E8F6E602C005900D926C
:1030C000A838B107D9F726E0A8E8B1E001C01D9201
:1030D000AF3AB207E1F718E1C2E5D8E104C02197A1
:1030E000FE010E943533C135D107C9F70E94D325AF
:1030F0000C9442330C94000090911306AFE0B6E0BC
:10310000FD0180E03596981311C095E0899FF0018C
:103110001124E15FF94F982F3596923168F41482AB
:1031200015821682178210869F5FF6CF158216824F
:10313000178210868F5FE6CF1092720690E020E033
:103140001596821731F014963C911497930F2F5FC8
:10315000F7CF909372060895823079F020F4813091
:1031600049F080E00895833059F08430D1F78091A0
:1031700076060895809173060895809174060895E7
:10318000809175060895833039F0843041F08230A3
:1031900049F48EE796E0089585E896E008958CE876
:1031A00096E0089587E796E008956F927F928F9258
:1031B0009F92AF92BF92CF92DF92EF92FF920F93C6
:1031C0001F93CF93DF936C01CB013A017E2DFA015F
:1031D000649131965491F2E06F0E711CC62FD0E0CD
:1031E000222301F1E1E0F0E0352F377011F4F0E037
:1031F000E0E0A52FA695A695A695AE0FBF2FB11D11
:10320000AC9FF001AD9FF00DBC9FF00D1124733009
:1032100011F4EE0FFF1F2E9FD0012F9FB00D112430
:103220006A0E7B1ED601AC0FBD1F1A161B060CF0D2
:1032300067C09C01250F311D121613060CF060C0EB
:10324000803491050CF05CC06114710409F458C01D
:10325000382F3770FC0197FD379623E0F595E795F9
:103260002A95E1F72E2F97FF04C0332311F02FEF9B
:103270002E0FEE27FF27EC19FD09D7FC02C0F0E066
:10328000E0E090E89C19A038B1050CF4962F9E1B45
:10329000A22F022E000CBB0B4A2F40952F3F0CF0A3
:1032A00040E0BB24B394852F877009F4B12C569568
:1032B00056955695B50EAB0DB11D19971CF058E0FB
:1032C000B52EB21AB41A240F50E82503D0011124E8
:1032D000AC0DBD1DAE0FBF1F649FE00DF11D11248D
:1032E0006E0E7F1EC32E032E000CDD08733009F412
:1032F00017C1A8F4713009F4CAC0723009F478C05B
:10330000DF91CF911F910F91FF90EF90DF90CF90C1
:10331000BF90AF909F908F907F906F9008957A3F6D
:10332000B1F10B2D020F7B3F59F7201749F3BD0177
:1033300061547E4FF12CE12CE91608F0A2C0F30194
:10334000EE0DFF1DE491F0E0AF010C2C02C0440F24
:10335000551F0A94E2F727FD06C0FB018081142F58
:10336000109581238083332361F0273054F45B016F
:10337000F0E8AF0EB11C452F4095F5018081842304
:103380008083FFEFEF1AFF0A6F5F7F4FD5CF0B2DC2
:10339000020F201709F4B4CFBD0161547E4FF12C08
:1033A000E12CE91608F067C0F301EE0DFF1DE49172
:1033B000F0E0AF010C2C02C0440F551F0A94E2F755
:1033C00027FD04C0FB018081842B8083332351F0CF
:1033D000273044F45B01F0E8AF0EB11CF5018081A9
:1033E000852B8083FFEFEF1AFF0A6F5F7F4FD9CFE6
:1033F0006FEF70E0032E02C0660F771F0A94E2F7AA
:1034000060957095972E8B2C820E281509F478CF35
:103410008D0101541E4FF12CE12CE91630F5F3011A
:10342000EE0DFF1DE491F0E0AF010C2C02C0440F43
:10343000551F0A94E2F727FD05C0F8018081862315
:10344000842B8083332359F027304CF45801F0E863
:10345000AF0EB11CF50180818921852B8083FFEFA0
:10346000EF1AFF0A0F5F1F4FD8CF2F5F6C0E7D1E24
:10347000A058BF4FCACF2F5F6C0E7D1EA058BF4F04
:1034800088CF2F5F6C0E7D1EA058BF4F4ECF0E0F02
:103490001F1F8B2D820F281709F432CFBD016154F5
:1034A0007E4FF12CE12CE91698F5F801EE0DFF1D89
:1034B000A490B12C0C2C02C0AA0CBB1C0A94E2F7FD
:1034C000A094B094F301EE0DFF1D8490912C0C2C70
:1034D00002C0880C991C0A94E2F727FD08C0FB0182
:1034E0004081E42FEA214E2F4829FB0140833323FA
:1034F00049F027303CF4FB01E058FF4FA080BA2090
:10350000B928B082FFEFEF1AFF0A6F5F7F4FCBCF72
:103510002F5F6C0E7D1E0C0F1D1FA058BF4FBBCF21
:10352000E92EF12CE60DF71DA154BE4F60E870E0C6
:103530006E197F09CE19DF09AE01440F551FC1E096
:10354000D0E07E01032E01C0EE0C0A94EAF7192F99
:103550000B2D892E932ECF93DF93ED01EF96EF96EF
:103560002296A590C590992059F0AE9C5001CE9C12
:10357000600127302CF4F880D094FD20FB28F992CC
:1035800022233AF0FC90C094FC20FA28FD920C947F
:10359000CA1A11961A9529F70A9551F0182D2395F4
:1035A0001124E40FF11DA60FB11DC60FD11DD9CFF7
:1035B000DF91CF911124A4CE2F923F924F925F9230
:1035C0006F927F928F929F92AF92BF92CF92DF9233
:1035D000EF92FF920F931F93CF93DF939C0121589B
:1035E0003F4F2F3F310508F068C09B01215C3F4FE2
:1035F0002F37310508F061C0262F2770522E23E0A7
:10360000759567952A95E1F7EB01D695DC2FCC27C8
:10361000D795C795C80FD91F30E020E0FE01E154CF
:10362000FE4F7F01C15CDD4F6F3FFFEF7F07CCF1A5
:103630004701820E931E3E01620E731E8C01B0E0A4
:10364000A0E05A01A20EB31E0038110551F117FD7A
:1036500022C0F501EA0FFB1FE491F0E01F01052CE9
:1036600002C0220C331C0A94E2F76F3F7607C1F1C7
:103670006401CA0EDB1EF6014080422840825520BC
:1036800051F06730710539F06301CA0EDB1EF60197
:1036900040804328408211960F5F1F4FA038B1052C
:1036A00099F66F5F7F4F20583F4F2115F4E03F0799
:1036B00021F06830710509F0B7CFDF91CF911F91EC
:1036C0000F91FF90EF90DF90CF90BF90AF909F90C1
:1036D0008F907F906F905F904F903F902F900895C4
:1036E0005110D2CFD8CF90E0EFEBF1E091119FEFE6
:1036F0008FEF91939193919391938150D0F7089587
:10370000FC018091BE01882311F13FB7F89482E05B
:103710008093E9002091F200822F90E0181619069C
:1037200014F481E090E0882339F0289844E640932F
:10373000BD014091F1004083222339F02091F20035
:10374000211103C02BE62093E8003FBF08958FEFBF
:103750009FEF08952FB7F89483E08093E90090914C
:10376000E800892F807295FF04C09091F20080E4F8
:10377000891B2FBF08958091B50181110DC082E092
:103780008093B10184E08093B2011092B401109251
:10379000B30181E08093B50181EB91E00895CF936F
:1037A000DF931F92CDB7DEB76983DC01ED91FC9109
:1037B0000280F381E02D41E050E0BE016F5F7F4F5A
:1037C00009950F90DF91CF91089583E08093E900F0
:1037D0008091F200882319F08AE38093E80008952D
:1037E0000E94AA1B90E00895CF93DF931F92CDB75C
:1037F000DEB7FC018485958597FD08C02FEF3FEF6C
:10380000358724870F90DF91CF910895CE010196DF
:103810000E94801B019719F4898190E0F3CF8FEF0C
:103820009FEFF0CF0F931F93CF93DF931F92CDB7EE
:10383000DEB78C01FC018485958597FF0BC0CE0116
:1038400001960E94801B019771F4898190E0F80134
:1038500095878487F801848595850F90DF91CF91B6
:103860001F910F9108958FEF9FEFF1CFFC01848599
:10387000958597FD0BC09FB7F89482E08093E9008F
:103880008091F2009FBF90E0019608959FB7F89451
:1038900082E08093E9008091F2009FBF90E008955C
:1038A0004091AB015091AC012091A9013091AA0146
:1038B00042175307B4F49091E8009570E1F39091AA
:1038C000E80092FD19C08093F1008091AB019091C6
:1038D000AC0101968F739927892B19F48EEF809391
:1038E000E8008091AB019091AC0101969093AC01FE
:1038F0008093AB0181E0089580E00895DF92EF921C
:10390000FF920F931F93CF93DF93D82E8A01EB0181
:103910007B01E40EF51ECE15DF0559F0D7FE12C06F
:10392000FE0184910E94501C21968111F4CF0FEF6B
:103930001FEFC801DF91CF911F910F91FF90EF9082
:10394000DF9008958881EECF0F931F93CF93DF937D
:103950001F92CDB7DEB782E0898342E450E063E393
:1039600070E380E80E947E1C0E94BB1BDC01129663
:103970000D911C910115110589F0D801ED91FC9173
:103980000280F381E02DBE016F5F7F4FC801099572
:1039900097FD04C0F80100851185ECCF89810F9057
:1039A000DF91CF911F910F910895615030F02091D8
:1039B000F100FC0120830196F8CF289884E68093DB
:1039C000BD010895AF92BF92CF92DF92EF92FF9226
:1039D0000F931F93CF93DF936C017B018B01040F37
:1039E000151FEB015E01AE18BF08C017D10759F0D3
:1039F0006991D601ED91FC910190F081E02DC60115
:103A00000995892B79F7C501DF91CF911F910F910E
:103A1000FF90EF90DF90CF90BF90AF900895FC01A2
:103A20000E94A61D319728F068517C4F8F4F9F4F01
:103A3000F9CFAB01FC010E94A61D641775078E0724
:103A40009F07C8F308958F929F92AF92BF92CF9233
:103A5000DF92EF92FF920F931F93CF93DF936C014E
:103A60007B018A0180910C01882309F45AC080915E
:103A7000BE01882309F455C08091B00180FF05C0C4
:103A80008091E00082608093E000E801B12C8AEF31
:103A9000A82E93E0892E2AE3922E209711F4BB20C2
:103AA000C9F10E94AA1B811108C0AA94AA20C9F1D9
:103AB00081E090E00E940F1DF0CF8C171D0611F0E1
:103AC0000CF08C2F9FB7F8948092E9002091E800C9
:103AD00025FD02C09FBFE1CF282F30E0C21BD30BD2
:103AE000F701815020F041914093F100FACFE20EAE
:103AF000F31EBB2021F09092E800B12CEBCF809117
:103B0000E80085FDE7CF9092E800BB24B3942097AE
:103B100009F3F3CF5D9884E68093AF011016110688
:103B20003CF081E090E0F6019383828310E000E0B6
:103B3000C801DF91CF911F910F91FF90EF90DF901F
:103B4000CF90BF90AF909F908F900895A4E9B1E07F
:103B50002FB7F8947D918D919C9166B52FBFA89B4E
:103B600005C06F3F18F47F5F8F4F9F4F22E0660FB5
:103B7000771F881F991F2A95D1F70895EF920F9309
:103B80001F933AEFE32E10E000E00E94D5181F913A
:103B90000F91EF900895EF920F931F933BEFE32E59
:103BA00010E000E00E94D5181F910F91EF9008954A
:103BB00090E00C940F1D8FB18095807F669B88608C
:103BC0001C9B846008959091A301982329F49091FF
:103BD000A401982381E009F480E00895CF93C82FD1
:103BE0000E94DB1D982F9C2381E09C1380E0CF91E5
:103BF00008956034710508F03EC0480F592F511DDB
:103C000014161506C4F580389105ACF597FF02C06F
:103C100090E080E04138510514F040E850E0481B46
:103C2000FB0133E0F595E7953A95E1F7F695FE2F20
:103C3000EE27F795E795E80FF91FE154FE4F6770FF
:103C4000772781E090E001C0880F6A95EAF7382F66
:103C5000213041F4415078F08191DF011197832B9D
:103C60008C93F8CF8095415030F09191DF011197FE
:103C700098239C93F8CF089580389105B8F4603468
:103C80007105A0F490E121E061FD24E060FD220FC8
:103C900062FD2295687F969FD0011124A80FA15440
:103CA000BE4F0C90022A40FF02260C9208958F927C
:103CB0009F92AF92BF92CF92DF92EF92FF920F93BB
:103CC0001F93CF93DF936D3089F0C090A701D09000
:103CD000A8016A30D1F41092A6011092A50188E0E3
:103CE000C80ED11CD092A801C092A70181E090E03B
:103CF000DF91CF911F910F91FF90EF90DF90CF90C8
:103D0000BF90AF909F908F9008950091A501109162
:103D1000A601E5E06E9FE0011124C050D54F480197
:103D2000F12CF5E0E12CFF1629F0CE010196FE0101
:103D3000E490EC01B12CA12C4E2D4170B6016A0D1E
:103D40007B1DC4010E943C1EE694FFEFAF1ABF0A20
:103D500088E0A816B10481F7F394EFEF8E1A9E0A5B
:103D6000F6E0FF12DECF0A5F1F4F1093A60100930B
:103D7000A501BCCF2F923F924F925F926F927F929C
:103D80008F929F92AF92BF92CF92DF92EF92FF926B
:103D90000F931F93CF93DF9300D01F92CDB7DEB761
:103DA0009B838A837B016A0109838901061B170BA8
:103DB00017FF03C011950195110946018A819B8166
:103DC000881A990A97FE03C09194819491088016ED
:103DD00091065CF49C2D8D2D6901292F382F9A8135
:103DE0008B81FB82EA82E92EF82E8A819B81C8169C
:103DF000D9065CF49E2D8F2D7901292F382F9A81B9
:103E00008B81DB82CA82C92ED82E16018A819B81C2
:103E1000281A390A29014E185F0857FE03C0519429
:103E200041945108310137FE03C09FEF691A790AA6
:103E3000759467948FEFE216F3060CF481E0A82ED8
:103E4000880FBB088A819B81C816D906CCF04981AE
:103E5000BC01C701801691061CF0B7018A819B81C5
:103E60000E943C1E6418750877FE04C0EA0CFB1C17
:103E7000620C731C8A819B8101969B838A83E2CFAB
:103E80000F900F900F90DF91CF911F910F91FF90A6
:103E9000EF90DF90CF90BF90AF909F908F907F90EA
:103EA0006F905F904F903F902F900895CF93DF9346
:103EB000EC016A3059F48D818C838E819985890F4C
:103EC0008E8381E090E0DF91CF9108958C816E37F1
:103ED00019F48D5F8C83F5CF262F6E816F5F2A33A7
:103EE00050F4203350F52D3221F12E3241F12132A0
:103EF00041F42EE310C02B3548F42134E0F42F3385
:103F000001F198859C5F8C81890FE4CF9FE9920F26
:103F100027549A31B0F7062E000C770B082E000CB0
:103F2000990B3F8146EF59E0313069F40E94BE1D84
:103F3000E8CF21E4F0CF2154EECF2C5FECCF2FE37C
:103F4000EACF20E4E8CF0E94CB1DDBCF0F931F9375
:103F5000CF93DF938C01D0E0C0E0F801EC0FFD1FA0
:103F60006491662341F081EA96E00E94561F892BF6
:103F700011F02196F2CFCE01DF91CF911F910F91D9
:103F80000895089590E080E00895CF93DF93C09165
:103F90009001D091910146EF55E070E060E0CE01D4
:103FA0000E94DC1A46EF55E070E060E0CE018058D8
:103FB0009F4F0E94DC1A80919E0190919F0165E0C5
:103FC00070E00E942133892B49F42197C0388FEF8C
:103FD000D80738F0D0939101C0939001DF91CF9131
:103FE00008951092910110929001F8CF95E0899F69
:103FF000F0011124E15FF94F618712861386148660
:104000001586109272061092730610927406109222
:1040100075061092760670911306EFE0F6E090E0D8
:1040200020E030E040E050E080E0359678131AC0A0
:10403000509372064093730630937406209375066E
:104040009093760695E0899FF0011124E15FF94F86
:104050003596823198F41482158216821782108662
:104060008F5FF6CF6481560F6581460F6681360FEC
:104070006781260F6085960F8F5FD7CF0895EF92E7
:104080000F931F93EE24E3940EEA13E020E041ED3A
:1040900054E062E070E08FE090E00E94D5181F913C
:1040A0000F91EF9008950F931F93CF93DF93D0E07C
:1040B000C0E008E110E040E0B801CE010E943C1EE3
:1040C0000F5F1F4F0A321105B1F72196C038D10595
:1040D00081F701E029E130E040E850E069E170E07B
:1040E00090E080E00E94BA1E28E230E040E850E014
:1040F00068E270E090E080E00E94BA1EDF91CF910C
:104100001F910F910895EF920F931F93EE24E39464
:104110000CEA10E020E04CE252E06EE270E090E049
:1041200080E00E94D5181F910F91EF900895FC0137
:10413000623059F018F4613031F00895633039F08D
:10414000643039F00895418308954283089543838C
:10415000089544830895FC01623069F020F46130D1
:1041600041F080E00895633041F06430D1F78481FC
:104170000895818108958281089583810895FC01C5
:1041800001900020E9F73197AF01481B590BBC01A2
:1041900081EA96E00C94E21C8F929F92AF92BF92BC
:1041A0000F931F93CF93DF93CDB7DEB7A1970FB6D1
:1041B000F894DEBF0FBECDBF19A2423008F44AE02A
:1041C0008E010F5D1F4F842E912CB12CA12CA501C7
:1041D00094010E94F032E62FB901CA01EA30F4F4EA
:1041E000E05DD801EE938D01232B242B252B79F74D
:1041F00090E080E0109719F0CD010E94BF20A196B9
:104200000FB6F894DEBF0FBECDBFDF91CF911F91E7
:104210000F91BF90AF909F908F900895E95CE1CF90
:10422000009711F00C94BF2090E080E00895682F73
:1042300070E090E080E04AE00C94CC20CF93C82F4F
:10424000633031F4843650F48DE691E00E94102101
:10425000CA3020F48DE691E00E9410218C2FCF917E
:104260000C941721CF92DF92EF92FF92CF93DF93BE
:104270006C01092E000CEE08FF0897FF19C06DE2D3
:1042800081EA96E00E94561FEC0166277727CB0152
:104290006C197D098E099F094AE00E94CC208C0F81
:1042A0009D1FDF91CF91FF90EF90DF90CF90089509
:1042B0004AE0C701B601DF91CF91FF90EF90DF9008
:1042C000CF900C94CC201F93CF93DF93EC01162F4B
:1042D0000E949632181739F0612FCE01DF91CF91ED
:1042E0001F910C94B032DF91CF911F9108950F93DD
:1042F0001F93CF93DF936091930686E790E00E942F
:1043000063216091110687E790E00E94632160912C
:10431000120688E790E00E9463216091130689E706
:1043200090E00E946321609114068AE790E00E9469
:104330006321609115068BE790E00E9463216091F4
:1043400016068CE790E00E946321609117068DE7C6
:1043500090E00E9463210FE016E0CEE7D0E0F80184
:104360006185CE010E946321F8016285CE0101962C
:104370000E946321F8016385CE0102960E946321A9
:10438000F8016485CE0103960E946321F8016585DA
:10439000CE0104960E9463210B5F1F4F2596C83DF6
:1043A000D105E9F66091720688ED90E00E946321E4
:1043B0006091730689ED90E00E946321609174061C
:1043C0008AED90E00E946321609175068BED90E08C
:1043D0000E946321609176068CED90E00E9463213B
:1043E00007E716E0CDEDD0E0F80161918F01CE0135
:1043F0000E9463212196C43ED105B1F70EE716E075
:10440000F80161918F01CE010E9463212196CB3E7C
:10441000D105B1F705E816E0F80161918F01CE01F1
:104420000E9463212196C23FD105B1F70CE816E046
:10443000F80161918F01CE010E9463212196C93F4D
:10444000D105B1F7DF91CF911F910F9108950C9491
:1044500096321F920F920FB60F9211248F939F9353
:104460008091E1009091E100937F9093E10083FFC0
:104470000FC01092E90091E09093EB001092EC00D5
:1044800092E39093ED001092BE0198E09093F000BB
:1044900082FF22C093E09093E9009091F20099236B
:1044A00019F09AE39093E8009091AF01992341F0BD
:1044B0009091AF0191509093AF01911101C05D9A1D
:1044C0009091BD01992341F09091BD01915090933D
:1044D000BD01911101C0289A84FF18C08091E200AB
:1044E0008E7E81608093E2008091E1008F7E8093D8
:1044F000E1008091B0018E7E80618093B0019F9138
:104500008F910F900FBE0F901F90189580FFF7CFDF
:104510008091E2008E7E80618093E2008091E100D4
:104520008E7E8093E1008091B0018E7E8160E5CF28
:104530001F920F920FB60F921124CF92DF92EF923B
:10454000FF920F931F932F933F934F935F936F931C
:104550007F938F939F93AF93BF93EF93FF93CF93EB
:10456000DF93CDB7DEB76C97DEBFCDBF1092E90009
:104570008091E80083FF25C068E0CE0145960E9447
:10458000D51C82EF8093E8008D8987FF39C0909118
:10459000E80090FFFCCF982F907609F034C19E89F7
:1045A0004F89588D2F89F88C911131C0803861F571
:1045B0008091AE018093F1001092F1008EEF809314
:1045C000E8006C960FB6F894DEBF0FBECDBFDF914A
:1045D000CF91FF91EF91BF91AF919F918F917F917B
:1045E0006F915F914F913F912F911F910F91FF908C
:1045F000EF90DF90CF900F900FBE0F901F90189507
:104600009EEF9093E800C7CF1092F100D5CF913084
:1046100059F48111D3CF4130510581F68091AE011B
:104620008D7F8093AE01CACF933049F48111C6CFFC
:104630004130510519F68091AE018260F2CF95307C
:1046400041F48091E80080FFFCCF20682093E300D4
:10465000B5CF963009F0A9C00B8D1C8D22E01092C9
:10466000E9001092AC011092AB01F2122EC0109230
:10467000AA011092A9010E94A41C1F8299E09983AB
:10468000FA8291E09E8390EA98879AEF9987209129
:10469000AB013091AC01275F3F4F3C832B838D836F
:1046A0001092E9001092AC011092AB011093AA0194
:1046B0000093A90149E050E0BE016F5F7F4F80E0A9
:1046C0000E947E1C0E94A41C79CF1093AA01009323
:1046D000A9010E94BB1BDC0112960D911C910115D2
:1046E000110509F451C1D801ED91FC910480F581C7
:1046F000E02DBE016B5E7F4FC8010995009709F060
:104700003EC1F80100851185EACFF3E0FF120EC02B
:104710008F89882309F440C0823061F440E869E061
:1047200087E990E30E941425811148CF81E28093AC
:10473000EB0047CF813029F440E86BE08BE890E351
:10474000F1CF833099F70E94BB1BDC011296ED90EC
:10475000FC908E010F5F1F4F6801E114F10479F0A6
:10476000D701ED91FC910680F781E02DB801C701DA
:104770000995080F111DF701E084F184EECFD801EF
:104780001C92F60101900020E9F73197BF016C19E6
:104790007D0940E0C601C6CF65E770E3FB014491A7
:1047A00050E080E80E947E1C09CF973009F4BECF0C
:1047B000983021F481E08093F10000CF993009F026
:1047C000FDCE837009F0B2CFE6E1F1E081E031E0A7
:1047D00096E32191222371F08093E9003093EB005E
:1047E000DF0111972C912093EC009093ED008F5FE7
:1047F000873079F78EE78093EA001092EA008F897C
:104800008093BE01DBCE8B8D9C8D1092E9001092BF
:10481000AC011092AB019093AA018093A901898DFC
:10482000811192C08E899D89913A49F4813209F0B3
:104830007DCF47E050E065E071E080E0B3CF91329A
:1048400009F074CF833269F48F89988DB0E0A0E0CD
:104850008093010190930201A0930301B09304019E
:10486000ADCE803269F48091E80082FFFCCF67E032
:1048700085E091E00E94D51C8BEF8093E8009ECEEE
:10488000823209F09BCE8F8980930C01EEEFFFE717
:10489000859194918B3F9C4D51F1E0E0F8E080913F
:1048A000050190910601A0910701B0910801803B9C
:1048B0009440A105B105F1F480910C0180FD1AC06E
:1048C000EE3F8AE0F80789F587E797E791838083D1
:1048D000809160008093AD0188E19BE00FB6F89471
:1048E000A895809360000FBE9093600067CEEEEFB6
:1048F000FAE0D5CF808191818737974709F05ECE66
:10490000A895809160008861809360008091AD01DE
:1049100080936000EE3F2AE0F20789F08091FE0A62
:104920009091FF0A9183808349CE8081918187375E
:10493000980751F29093FF0A8093FE0AC5CF109218
:10494000FF0A1092FE0A3ACE0E94BB1BDC011296AF
:104950000D911C910115110509F4E8CED801ED91D6
:10496000FC910190F081E02DBE016B5E7F4FC8018C
:104970000995811123CEF80100851185EBCF18161A
:1049800019060CF41BCED2CEF1E0FF12BECE69E7C1
:1049900070E304CF0F920FB68F939F93EF93FF9323
:1049A000809193018D5F8D3708F08D57809393012F
:1049B000EAE9F1E080818E4F808391819F4F91835E
:1049C00082818F4F828383818F4F8383E4E9F1E07B
:1049D00080818F5F808381818F4F818382818F4F20
:1049E000828383818F4F83838FB18F6066991C9BF5
:1049F00088278F3681F480919201981B963068F059
:104A0000E0E0F8E087E78083818388E180936000BD
:104A1000F0936000FFCF90939201FF91EF919F91EF
:104A20008F910FBE0F901895EF92FF920F931F93E7
:104A3000CF93DF93F82E192FE62E042F81E0860FF7
:104A4000880F0E94501C83E00E94501CCF2DD12F54
:104A5000EC0EFD2EF11CCE15DF05B9F007FF13C0DB
:104A6000FE0184910E94501C182F80E00E94501C6F
:104A7000812321968111EFCFDF91CF911F910F916B
:104A8000FF90EF9008958881EDCF81E0F5CF1092EF
:104A9000C2051092C10588EE93E0A0E0B0E08093DB
:104AA000C3059093C405A093C505B093C60580E2E5
:104AB00091E09093C0058093BF058FEF9FEF909397
:104AC000CC058093CB051092AE061092AD068EE316
:104AD00091E09093AC068093AB061092A4061092DE
:104AE000A30682E391E09093A2068093A10688E05A
:104AF0008093AA0691E09093A9061092A6061092C0
:104B0000A7061092A5069093A80680E280939906C6
:104B100080939A0680939B0680939C0680939D06C3
:104B200080939E0687E480930F0683E480931006AB
:104B3000909311069093120682E18093130683E00E
:104B400080931406109215061092160610921706FE
:104B500029E636E0EFE0F6E084E0818735962E170F
:104B60003F07D9F780937206109293068091110146
:104B700090911201A0911301B091140180939406B9
:104B800090939506A0939606B0939706E7E7F6E014
:104B90002DE736E080E2819386838587848B2E170C
:104BA0003F07C9F7089500D01F92CDB7DEB77894BC
:104BB00083E084BD83E085BD81E080936E00E1E801
:104BC000F0E083E08083E0E881E08083E1E983E056
:104BD0008083E0E981E08083E1EC87E08083E3EC9F
:104BE00081E08083E0EC82E08083E2EC81E08083FE
:104BF000EAE787E08083806880831092BE0110928C
:104C0000AE011092B0018091D70081608093D700EF
:104C100080EA8093D80089B5806189BD89B58260BA
:104C200089BD09B400FEFDCF81E090E00E940F1D18
:104C30008091D8008F7C80618093D8008091E000C3
:104C4000807F8093E0008091E1008E7E8093E10080
:104C50008DE08093E200559A209A81EC80937C004D
:104C600081E185B987E684B984E38BB98FE38AB99A
:104C7000769A6E9880EF81BB10BA80E58CBD81E09A
:104C80008DBD85E00E94D81D599A85E00E94D81DEF
:104C90005C98E0E0F0E185918EBD00000DB407FE68
:104CA000FDCFED30C1F75C9A81E88093640081E02C
:104CB0008093650080E10E94EE1D8823A9F05C9836
:104CC00085EA8EBD00000DB407FEFDCF5C9A2E98DC
:104CD00058982D988091640080628093640081E0F0
:104CE00083BF889513BEFCCF84E00E94EE1D88230D
:104CF000C9F12E9A589A2D9884E10E94EE1D8823BE
:104D0000A1F02D9A88EC0E94D81D58986FEF82E090
:104D100090E00E949E3284EF91E00E940F1D589A0D
:104D200084E10E94EE1D8111FBCF84E80E94EE1DFC
:104D30008823A1F02D9A88EC0E94D81D2E9860E05F
:104D400082E090E00E949E3284EF91E00E940F1D6D
:104D50002E9A84E80E94EE1D8111FBCF88EC0E9400
:104D6000D81DC2CF2E9858982D98809164008E7FC0
:104D70008093640080917A00806480937A008091AF
:104D80007A0086FDFCCF00917800109179000E9496
:104D9000A61DAB01BC01C801B0E0A0E0DC01992771
:104DA00088278C019D01040F151F261F371FC9017D
:104DB000B8012091640021602093640061157105A1
:104DC0008105910511F00E948D3280E180930001F0
:104DD0001092980680E28093990680939A068093B9
:104DE0009B0680939C0680939D0680939E0684E795
:104DF00090E00E942722898385E790E00E94272285
:104E000060910F061981161304C09091100689173E
:104E100061F084E790E00E9463216091100685E7CD
:104E200090E00E9463210E94772186E790E00E9433
:104E300027228093930687E790E00E9427228093A1
:104E4000110688E790E00E9427228093120689E7E6
:104E500090E00E9427228A83809313068AE790E0DD
:104E60000E942722809314068BE790E00E9427225D
:104E7000809315068CE790E00E9427228093160607
:104E80008DE790E00E94272280931706AFE0EA2E7C
:104E9000A6E0FA2E0EE710E0198225E0E20EF11CE2
:104EA0003A814981341312C055E0459FF001112425
:104EB000E15FF94F35960981023159F1148215826B
:104EC0001682178210860F5F0983F4CFC8010E94F3
:104ED0002722F7018483C80101960E942722F70147
:104EE0008583C80102960E942722F7018683C801A4
:104EF00003960E942722F7018783C80104960E9427
:104F00002722F7018087F981FF5FF9830B5F1F4F2D
:104F1000C4CF88ED90E00E9427228093720689ED2D
:104F200090E00E942722809373068AED90E00E9411
:104F30002722809374068BED90E00E9427228093B5
:104F400075068CED90E00E9427228093760607E795
:104F500016E02DED30E03B832A838A819B810E94FD
:104F60002722F80181938F012A813B812F5F3F4FD8
:104F70003B832A83243E310581F70EE716E08A81C0
:104F80009B810E942722F80181938F012A813B8116
:104F90002F5F3F4F3B832A832B3E310581F705E886
:104FA00016E08A819B810E942722F80181938F015C
:104FB0002A813B812F5F3F4F3B832A83223F31056C
:104FC00081F70CE816E08A819B810E942722F80174
:104FD00081938F012A813B812F5F3F4F3B832A833F
:104FE000293F310581F7F3E0CF2ED12C8091980134
:104FF000882349F01092980180E090E0892BB1F36A
:105000000E940000F3CF90919A0180919901392F6D
:10501000381B832F20910001321740F48F5F8217D5
:1050200058F781E083BF889513BEE6CF81E0809377
:10503000980190939901EEE9F1E0808191810196C8
:10504000808391830E94731B1092A8011092A70184
:105050001092A6011092A5018091A4018093A30152
:105060000E94DB1D8093A4010E94731BE0919306B4
:10507000EA3008F07BC0F0E0E05CF74D0C9435338B
:105080008D28CF28CB29E129522A612ABD2B4C2C0F
:10509000512C4A2881E08093940682E08093950603
:1050A00083E08093960684E080939706E090110653
:1050B000312CF12C270141E0441A5108832D90E056
:1050C0008415950514F00C94C530712C4701881A8D
:1050D000990A11E0811A9108072D10E008151905A9
:1050E00014F00C94C23098012C56394F5901F90133
:1050F0006080862D0E94AC1889830B56194FF801E9
:105100002080822D0E94AC18F9818F1720F4F501C0
:105110002082F80160827394DFCF43E35CE270E0A9
:1051200060E090E080E00E94DC1A10E000E0F09087
:10513000A20120E04F2DB80190E080E00E94F91D0F
:10514000B8016F5F7F4F20E04F2D80E890E08F190E
:1051500091090E94F91D0E5F1F4F0034110539F7A8
:10516000F7FC14C0F394F394F092A201EFEBF1E09A
:1051700080E0A0E0B8E000800EBC8111012C119706
:10518000A0FDFDCF0192B9F70DB436CF80E8809332
:10519000A20181E0809393060E947721E7CF0E94CD
:1051A000C51F0E948320EE24E39401E314E220E073
:1051B00041E358E270E060E090E080E00E94D518A2
:1051C00010E000E0F090A20120E04F2DB80190E047
:1051D00080E00E94F91DB8016F5F7F4F20E04F2DE6
:1051E00080E890E08F1991090E94F91D0E5F1F4F12
:1051F0000034110539F7FF2021F08CEF8F0D8093DB
:10520000A2011091A101113009F453C008F43EC06D
:10521000123009F45DC080E10E94E31D882321F073
:10522000111111501093A10180E80E94E31D882301
:1052300039F08091A101823009F08F5F8093A10144
:1052400088E00E94E31D882309F490CF1091A1010A
:10525000113009F48BC008F44AC0123009F086CF2F
:1052600083E0809314061092150610921606109291
:10527000170610927306109274061092750610921B
:1052800076060E947C18109393066AC020E04AE2DA
:1052900054E265E170E08AE590E00E94CB1D20E0D9
:1052A00043E254E265E170E08AE590E00E94BE1DB1
:1052B000B2CF20E04AE254E26DE170E08AE590E08E
:1052C0000E94CB1D20E043E254E26DE170E0ECCFA0
:1052D00020E04AE254E265E270E08AE590E00E9454
:1052E000CB1D20E043E254E265E270E0DDCF83E0D5
:1052F0008093140610921506109216061092170647
:10530000109273061092740610927506109276062B
:1053100082E180931306EFE0F6E084E08187128655
:10532000138614861586359609E616E00E171F07B4
:10533000A9F788E48093720681E080931106809338
:105340001206E7E7F6E080E2819386838587848B07
:105350002DE736E02E173F07B9F783E080939306D9
:105360000E94772180E88093A20100CF83E08093A0
:105370001406109215061092160610921706109237
:1053800073061092740610927506109276060E94AB
:105390007C1887E0E3CF0E94C51FEE24E39401E26E
:1053A0001CE120E041E250E270E060E090E080E04B
:1053B0000E94D51888E00E94E31D882309F4D6CE08
:1053C000E8CE0E94C51F0E9483200E943F200E94B9
:1053D000532086E08093A6068093A5068DE18093F6
:1053E000A70688E491E00E941021809111060E9496
:1053F00017218BE591E00E94BF2080919E01909142
:105400009F018F739927803258F401E025E230E044
:1054100043E650E065E270E080E690E00E94BA1E4C
:1054200080E10E94E31D811112C080E80E94E31D0B
:1054300081110DC080919E0190919F016CE070E000
:105440000E9421332091A0012817190671F480E1F0
:105450000E94EE1D882321F080911106843060F0B7
:1054600080E80E94EE1D811115C088E00E94E31DB6
:105470008823B1F084E08ECE8F5F809311068091F7
:105480009E0190919F016CE070E00E942133809317
:10549000A001EBCF80911106823038F38150EDCF1F
:1054A00084E089CF85E0809393060E9477218091E4
:1054B0001206823009F4F7C008F0DEC0813009F42A
:1054C000E6C00E94C51F0E9483200E943F200E94C8
:1054D000532086E08093A6068093A5068DE18093F5
:1054E000A70689E19CE10E94A61F809112060E94F6
:1054F000172181E19CE10E94A61F69E9E62E66E082
:10550000F62E72E5A72EB12C10E0EDE19E2EA092B2
:10551000A606A092A5069092A70680919E01909162
:105520009F018F739927803278F4809198068113B8
:105530000BC001E025E230E0A5014D5F5F4F65E261
:1055400070E0C5010E94BA1EF70161917F0181EAF6
:1055500096E00E94561F1F5FF6E0AF0EB11C16309A
:10556000B1F61091980680E10E94E31D811113C0ED
:1055700080E80E94E31D81110EC080919E019091F0
:105580009F016CE070E00E9421332091A001281758
:10559000190609F040C080E10E94EE1D8823D9F071
:1055A000E12FF0E0E856F94F81818A3509F494C083
:1055B0000CF085C0803209F48CC01CF081340CF0F2
:1055C0008DC080919E0190919F016CE070E00E94DF
:1055D00021338093A00180E80E94EE1D8823D9F03A
:1055E000E12FF0E0E856F94F81818B350CF078C05F
:1055F00082340CF07CC0803209F47BC0813409F421
:105600007BC080919E0190919F016CE070E00E94B0
:1056100021338093A00180E40E94E31D882309F4D4
:105620006FC080919806882319F081508093980666
:1056300088E00E94E31D882309F498CD109112069A
:10564000123009F490C008F082C069E976E087E77B
:1056500096E0113009F484C080911106181708F003
:1056600075C584E0809393060E947721809112068D
:105670008F5F809312067ACD8330D9F0843009F0A1
:1056800020CF1092980686E0ECE8F6E005C0109274
:10569000980686E0E7E7F6E0A9E9B6E001900D920A
:1056A0008A95E1F70ECF1092980686E0EEE7F6E0D5
:1056B000F3CF1092980686E0E5E8F6E0EDCF81366C
:1056C0000CF47FCF8A3754F08A3709F07ACF80E222
:1056D00001C081E4818375CF81E6FCCF8F5FFACF73
:1056E000813661F00CF48DCF8B370CF08ACF81506E
:1056F00001C08AE7818385CF80E2FCCF8AE5FACFBB
:1057000080E20E94E31D882339F08091980685305D
:1057100008F08ECF8F5F8ACF84E00E94E31D88233C
:1057200009F486CF80911206823058F084E080938D
:1057300093060E9477218091120681508093120671
:1057400077CF83E0809393060E94772171CF133047
:1057500079F069E976E08CE896E0143009F07CCFC6
:105760000E943B3379CF69E976E08EE796E0F8CF87
:1057700069E976E085E896E0F3CF0E94C51F0E94B4
:1057800083200E943F200E94532086E08093A6063B
:105790008093A5068DE18093A7068EE591E00E9497
:1057A0001021809113060E9417218BE591E00E9441
:1057B000BF2080919E0190919F018F739927803225
:1057C00088F48091130649E550E08A3010F04EE5E8
:1057D00050E001E025E230E065E270E086E590E02F
:1057E0000E94BA1E80E10E94E31D811112C080E870
:1057F0000E94E31D81110DC080919E0190919F0137
:105800006CE070E00E9421332091A0012817190656
:1058100071F480E10E94EE1D882321F0809113062F
:10582000823160F080E80E94EE1D81111AC088E08C
:105830000E94E31D882349F187E0ACCC64E00E941C
:10584000F61F809113068F5F8093130680919E014F
:1058500090919F016CE070E00E9421338093A00141
:10586000E6CF80911306843010F3815080931306A5
:1058700060E00E94F61F809114069091130698171D
:1058800028F7815080931406E1CF84E00E94E31D45
:10589000882309F46BCCEECD88E0809393060E94B8
:1058A000772152E0E52E10E000E020E04FE058E1E3
:1058B00070E060E090E080E00E94D51811E0109365
:1058C000A6061093A50686E18093A70687E796E0D3
:1058D0000E94102180911106823058F01093A60684
:1058E0001093A50681E28093A7068EE796E00E94BA
:1058F000102180911106833060F081E08093A6062C
:105900008093A5068CE28093A70685E896E00E9426
:10591000102180911106843060F081E08093A6060A
:105920008093A50687E38093A7068CE896E00E9403
:105930001021809114069EE28C3008F09CE2909336
:10594000A6069093A5061092A7068250990B0E9476
:105950003221809114069EE38B3008F09CE39093F3
:10596000A6069093A5061092A7068150990B0E9457
:105970003221809114069EE48A3008F09CE49093D2
:10598000A6069093A5061092A7060E9417211092D2
:10599000A806809114068350990B25E0289FF001FA
:1059A000299FF00D1124E15FF94F81859EE28A3035
:1059B00008F09CE29093A6069093A5069BE0909336
:1059C000A7060E941721809114068250990B25E0AA
:1059D000289FF001299FF00D1124E15FF94F818587
:1059E0009EE38A3008F09CE39093A6069093A50668
:1059F0009BE09093A7060E94172180911406815086
:105A0000990B25E0289FF001299FF00D1124E15FFB
:105A1000F94F81859EE48A3008F09CE49093A606B5
:105A20009093A5069BE09093A7060E94172181E022
:105A30008093A806809114068350990B25E0289F37
:105A4000F001299FF00D1124E15FF94F82859EE25C
:105A50008A3008F09CE29093A6069093A50696E102
:105A60009093A7060E941721809114068250990BEB
:105A700025E0289FF001299FF00D1124E15FF94FE7
:105A800082859EE38A3008F09CE39093A60690936B
:105A9000A50696E19093A7060E941721809114060F
:105AA0008150990B25E0289FF001299FF00D1124CA
:105AB000E15FF94F82859EE48A3008F09CE4909380
:105AC000A6069093A50616E11093A7060E9417213B
:105AD00082E78093A6068093A5061093A70680917F
