:100000000C9432170C945A170C945A170C945A17D4
:100010000C945A170C945A170C945A170C945A179C
:100020000C945A170C945A170C945A170C945A178C
:100030000C945A170C945A170C945A170C945A177C
:100040000C945A170C945A170C945A170C945A176C
:100050000C945A170C945A170C945A170C94DC2DC4
:100060000C945A170C945A170C945A170C945A174C
:100070000C945A170C945A170C945A170C945A173C
:100080000C94262E0C945A170C945A170C945A1749
:100090000C945A170C945A170C945A170C945A171C
:1000A0000C945A170C945A170C945A170E18FEFEFB
:1000B000FCF9F7FBF93143677FFFFFFFFFFFFFFF0D
:1000C000FFFFFFFFDFCE80303F7FFFFFFFFFFFFF1F
:1000D000FFBFBF97C7F3F8FC01010306080406CE73
:1000E000BC988000000000000000000000002031EB
:1000F0007FCFC08000000000000000404068380C46
:1001000007032A183F9FDFC3B1F9F9F3C7F1FCFEDB
:10011000FCF1C7F3F9F9F3C7F7FBFBE78FBF0F67F4
:10012000E68E3C3977FBF93143677FFFFFFFFEFF27
:10013000FFFFFFFFFFFFFFFFFFFFFFFFFFFFFFFFCF
:10014000FFFFFFFFFFFFFFFFFFFEFFF773680C9F3E
:10015000FFFFDFCE80303F7FFFFFFFFFFFFFFFFF8E
:10016000FFFFFFFFFFFFFFFFFFFFFFFFFFFFFFFF9F
:10017000FFFFFFBFBF97CFEFE6E0F1BFBF97C7F329
:10018000F8FCC060203C4E06060C380E0301030E3E
:10019000380C06060C38080404187040F0981971E1
:1001A000C3C6880406CEBC98800000000100000091
:1001B000000000000000000000000000000000003F
:1001C000000000000000000100088C97F3600000B0
:1001D00020317FCFC0800000000000000000000040
:1001E000000000000000000000000000000000000F
:1001F000004040683010191F0E404068380C07035B
:1002000023183F9FDFC3B1F9F9F347717CFEFC71FE
:10021000477379F9F3C7F7FBFBE78FBF0F67E78FEA
:100220003F3F7FFFFFFEFFF3F9F9F3F9FCFEFEFE0F
:10023000FCFEFEFFFFFEFCF9FDFCFCF8C1D39F1F96
:100240003EFFF773680C9FFFFFFFFFFFFFFFFFFFFD
:10025000FFFFFFFFFFFFFFFFFFFFFFBF7F7F3FBBF2
:1002600093C5FCBEBF97CFEFE6E0F1C060203C4EE7
:1002700006060CB88E8301038EB88C86060C3808EF
:100280000404187040F0981870C0C080000001008D
:100290000C06060C06030101010301010000010325
:1002A00006020303073E2C60E0C100088C97F36050
:1002B000000000000000000000000000000000003E
:1002C00000000000408080C0446C3A034140683028
:1002D00010191F0E1E18FFFFFFFFE77373E77399D6
:1002E000CCECCC19EDF4F6660CB9B33B3979F1835B
:1002F000A73F3F7FBFBF9FA7B09ECFE69C3F7F3FFA
:100300009F7FFFFFFF7E3F8FEF67F0F87F77278BA0
:10031000F8FCFFFF3F7FFFFF7FFFFFFF3F7FFFFFF7
:100320007EFEFEFF3F7FFFFF7EFEFEFF3F7FFFFF63
:1003300000000000188C8C188C66331333E6120B07
:100340000999F3464CC4C6860E7C58C0C080404014
:1003500060584F61301963C080C060800000008128
:10036000C07010980F078088D874070300E0204001
:100370008080008000E020408080018101E02040FA
:100380008080018101E0204080801810FFFFFFFF86
:100390001FCFEFDF8FF3F9FDF9E3FDFEFECCE1F7B0
:1003A000F7E7070FF7F7F3F4F6F3F9FCF3E7EFE7F6
:1003B000F3EFDFDFDFEFE7F1FDFCFEFF0000000001
:1003C000E0301020700C0602061C020101331E08EA
:1003D0000818F8F008080C0B090C06030C18101884
:1003E0000C1020202010180E020301001219131502
:1003F00014121510160F1710181219141A171B1BA8
:100400001C20120F130B14071504160317041807EA
:10041000190B1A171B1B1C201201130114011501C3
:10042000160217041807190B1A101B171C1ED5F0FB
:100430008D14A1C881CFD9F1AF2000008080C0C049
:10044000C0FFFFFFFFFFFFFFFFFFFFFFFFFFFFFFFB
:10045000FFFFFFFFFFFFFFFFFFFFFFFFFF80C1C3A5
:10046000C3E3E3FFFFFFFFFFFFFFFFFFFFFF7FFF90
:10047000FFFFFFFFFFFFFFFFFFFFFFFFFFFFFFC0CB
:10048000E0E1E1E1E1FFFFFFFFFFFFFFFFFFFFFF13
:100490003F7F7F7FFFFFFFFFFFFFFFFFFFFFFFFFAC
:1004A000FF000000000000FFFFFFFFFFFFFFFFFF56
:1004B000FFFF0000000000000F1F3F7FFFFFFFFF56
:1004C000FFFFFF1140008080404040BF8040DFDFE1
:1004D00010D7EAEA6D75FF00F6F77B787B7A393D35
:1004E0003D3E3E3E1E1F1F80414242A222BEA2A2AE
:1004F000BE9E10D6D4D5E8EA7F803B3B3B383B39E3
:100500003D3D3D3C3D3D3D3D3DC020A1A1A121BF24
:10051000A1A1BCBE20AEA8AAA8AA3F405D5DBDBCFB
:100520003B3A3A7B7B78F7F7F7F7F70000000000DB
:1005300000FF0101FAF4FAF4F8F4E8F10000000019
:1005400000000F1020478F3F7FFFFFFFFFFFFFFFDF
:10055000FFFFFFFFFFFFFFFFC0C0C0808000FFFF65
:10056000FFFFFFFFFFFFFFFFFFFFFFFFFFFFFFFF9B
:10057000FFFFFFFFFFFFFFFFFFFFE3E3C7C7C381ED
:10058000FFFFFFFFFFFFFFFFFFFFFFFFFFFFFFFF7B
:100590007FFFFFFFFFFFFFFFFFFFFFFFE1E1E1E163
:1005A000E0C0FFFFFFFFFFFFFFFFFFFFFFFFFFFFB9
:1005B000FF7F3FFFFFFFFFFFFFFFFFFFFFFF010187
:1005C00000000000FFFFFFFFFFFFFF7F3F1F07004E
:1005D00000000000001140756DEAEAD710DFDF402F
:1005E00080BF4040408080001F1F1E3E3E3E3D3D7C
:1005F000397A7B787BF7F600FFEAE8D5D4D6109EEF
:10060000BEA2A2BE22A2444442813D3D3D3D3D3CAE
:100610003D3D3D393B383B3B3B807FAAA8AAA8AE75
:1006200020BEBCA1A1BF21A1A1A120C0F7F7F7F76F
:10063000F7787B7B3A3A3B3C3D9D9D403FF1E8F4A7
:10064000F8F4FAF4FA0101FF010100000000FFFFD5
:10065000FFFF7F3F8F472010070000000000008051
:100660000DFFFFFFFFFFFFFFFFFFFFFFFFFFFFFF8C
:10067000FFFFFFFFFFFFFFFFFFFFFFFFFFFFFFFF8A
:10068000FFFFFFFFFFFFFFFFFFFFFFFFFFFFFFFF7A
:10069000FFFFFFFFFFFFFFFFFFFFFFFFFFFFFFFF6A
:1006A000FFFFFFFFFFFFFFFFFFFFFFFFFFFFFFFF5A
:1006B000FFFFFFFFFFFFFFFFFFFFFFFFFFFFFFFF4A
:1006C000FFFFFFFFFFFFFFFFFFFFFFFFFFFFFFFF3A
:1006D000FFFFFFFFFFFFFFFFFFFFFFFFFFFFFFFF2A
:1006E000FF1F1F1F1F1F1F1F1F1F1F1F1F1F1F1F3A
:1006F0001F1F1F1F1F1F1F1F1F1F1F1F1F1F1F1F0A
:100700001F1F1F1F1F1F1F1F1F1F1F1F1F1F1F1FF9
:100710001F1F1F1F1F1F1F1F1F1F1F1F1F1F1F1FE9
:100720001F1F1F1F1F1F1F1F1F1F1F1F1F1F1F1FD9
:100730001F1F1F1F1F1F1F1F1F1F1F1F1F1F1F1FC9
:100740001F1F1F1F1F1F1F1F1F1F1F1F1F1F1F1FB9
:100750001F1F1F1F1F1F1F1F1F1F1F1F1F1F1F1FA9
:100760001F800DFEBEBEBEBEBEBEBABABA3A3ABA0F
:10077000BA9A8AAAA2B2B2BAB8B8BABABEBEBEBE55
:10078000BEBEBEBEBEBEBEBEBEBEBEBEBEBEBABA91
:10079000BABA3A1A8AA2B0B8BABABEBEBEBEBEBE15
:1007A000BEBEBEBEBEBEBEBEBEBEBEBEBEBEBEBE69
:1007B000BEBABAB8A0021ABABABABABABEBEBEBEF9
:1007C000BEBEBEBEBEBEBEBEBEBEBEBEBEBEBEBE49
:1007D000BABABABAB8B8B8B0A2820A1A3ABABABAA9
:1007E000BABABA1F1F0717131B191D1C1E1F1F1F84
:1007F0001F1F1F1F1F1F1F1F1F1F1F1F1F1F1F1F09
:100800001F1F1F1F1F1F1F1F1F1F1F1F1F1F1F0710
:10081000111C1E1F1F1F1F1F1F1F1F1F1F1F1F1FFA
:100820001F1F1F1F1F1F1F1F1F1F1F1F1F1F1F1FD8
:100830001F1F1F1F1F1F1C10030F1F1F1F1F1F1F06
:100840001F1F1F1F1F1F1F1F1F1F1F1F1F1F1F1FB8
:100850001F1F1F1F1F1F1F1F1F1F1F1E18100103F9
:100860000F1F1F8A03D40200020201AC00F8FCFE35
:10087000FFFFFFFFFFFFFFFFFFFFFFFFFFFFFFFF88
:10088000FFFFFFFFFFFFFFFFFFFFFFFFFFFFFFFF78
:10089000FFFFFFFFFFFFFFFFFFFFFFFFFEFCF8FF73
:1008A000FFFFFFFFFFFFFFFFFFFFFFFFFFFFFFFF58
:1008B000FFFFFFFFFFFFFFFFFFFFFFFFFFFFFFFF48
:1008C000FFFFFFFFFFFFFFFFFFFFFFFFFFFFFFFF38
:1008D000FF070F1F3F3F3F3F3F3F3F3F3F3F3F3FF0
:1008E0003F3F3F3F3F3F3F3F3F3F3F3F3F3F3F3F18
:1008F0003F3F3F3F3F3F3F3F3F3F3F3F3F3F3F3F08
:100900001F0F07321600F804F20A0A0A0A0A0A4AF6
:10091000CACA4ACA8A0A4ACACA0A0ACACA0ACACA77
:100920000A8ACA4ACA8A0A4ACACA4ACA0A0A0A0AA7
:100930000A0A0AF204F80000FF00FF0000000000AD
:100940000080FFFF880F0380FE27FFF8803FFF80B5
:10095000FF3F0043C78EFC780080FFFF84CE00007D
:100960000000000000FF00FF00000708131414142B
:100970001414141414141414141414141414141437
:100980001414141414141414141414141414141427
:100990001414141414141413080700F8FCFEFFFFB9
:1009A000FFFFFFFFFFFFFFFFFFFFFFFFFFFFFFFF57
:1009B000FFFFFFFFFFFFFFFFFFFFFFFFFFFFFFFF47
:1009C000FFFFFFFFFFFFFFFFFFFFFFFFFFFFFFFF37
:1009D000FFFFFFFFFFFFFFFFFEFCF8FFFFFFFFFF32
:1009E000FFFFFFFFFFFFFFFFFFFFFFFFFFFFFFFF17
:1009F000FFFFFFFFFFFFFFFFFFFFFFFFFFFFFFFF07
:100A0000FFFFFFFFFFFFFFFFFFFFFFFFFFFFFFFFF6
:100A1000FFFFFFFFFFFFFFFFFFFFFF070F1F3F3F2E
:100A20003F3F3F3F3F3F3F3F3F3F3F3F3F3F3F3FD6
:100A30003F3F3F3F3F3F3F3F3F3F3F3F3F3F3F3FC6
:100A40003F3F3F3F3F3F3F3F3F3F3F3F3F3F3F3FB6
:100A50003F3F3F3F3F3F3F3F1F0F07401600F80417
:100A6000F20A0A0ACA4ACACA0A0A4ACACA0A0A4A7E
:100A7000CACA0ACACA4A4ACACA4ACA0A0A0A0A0AD6
:100A8000CA4ACA0A4ACACA0ACA4A4ACACA4ACA0A86
:100A90004ACACA4ACA8A0A0A0AF204F80000FF00CF
:100AA000FF00003FFF807CFD0480FE27FFF8808070
:100AB000FF1F0EFFFF8080FFFF84CE000000003F7D
:100AC000FF80FF3F0003FFFC070080FFFF84CE0094
:100AD00080FFFF08FFF3800000FF00FF0000070811
:100AE00013141414141414141414141414141414C7
:100AF00014141414141414141414141414141414B6
:100B000014141414141414141414141414141414A5
:100B10001414141414141414141308070004087E75
:100B2000FF817E82FEFF80C6A19FCE6689FF763858
:100B3000ACFFB06F89F9707EFF857883F1FD837615
:100B40008D99761EBFA17E181AFFFFFFFFFFFFFFE2
:100B5000FFFFFFFFFFFFFFFFFFFFFFFFFFFFFFFFA5
:100B6000FFDFDFDFDFDF5F5F5F5F1F1F1F1F5F5F75
:100B70005F5F5F5F5F5F5F5F5FF7F7F7F7F7F7F75D
:100B8000F7F7F7F7F7F6F4F0E1C307173777F7F75A
:100B9000F703030303030303030303030303030331
:100BA0000303030200000103030000000000000033
:100BB0000000000000000000000000000000000035
:100BC00000C0C0C0C0C040404040000000004040E5
:100BD000404040404040404040F7F7F7F7F7F7F714
:100BE000F7F7F7F7F7F6F4F0E1C307173777F7F7FA
:100BF000F7030303030303030303030303030303D1
:100C0000030303020000010303F8FFFFFEFCFCFCEA
:100C1000FC0303030303030303080A280709221440
:100C2000240804010102010101010100000000701B
:100C3000F8FCFEFEFFFFFEFC60000000000000006C
:100C4000000000000000000060FCFEFFFFFEFEFC54
:100C5000F870000000000080800082C7E7FFFFFFFF
:100C6000FFFFFEFCFCFC3838383838383838B8B864
:100C700038FCFCFCFFFFFFFFFFFFC78702000000FE
:100C800000070F1F1F0F07010100040E1F3F3F1B2E
:100C9000010000000000000003070F1F0F07010004
:100CA0000000000F1F1F1F1E0C00000000000000AE
:100CB00070F8FCFEFEFFFFFEFC600000000000007C
:100CC00000000000000000000060FCFEFFFFFEFED0
:100CD000FCF870000000000000000002C7E7FFFF02
:100CE000FFFFFFFEFCFCFC38B8B83838383838381D
:100CF00038B8FCFCFCFFFFFFFFFFFFC787028080C6
:100D000000000000000C1E1F1F1F0F00000000014C
:100D1000070F1F0F0703000000000000011B3F3FEB
:100D20001F0E04000101070F1F1F0F07002B1600E5
:100D300000000070880402160141229C600000003F
:100D4000000000000000000000000000609C224144
:100D500001160204887000000000008080008245B7
:100D6000243E80808091322444C4282828282828C2
:100D70002828A8A828C4442493918080003E448554
:100D80000200000000070810110806010100040A13
:100D90001121241A010000000000000003040811C2
:100DA000080601000000000F101213120C000000D2
:100DB0000000000070880402160141229C600000BF
:100DC00000000000000000000000000000609C2205
:100DD00041011602048870000000000000000002BB
:100DE000C5243E00808091B22444C428A8A82828A5
:100DF0002828282828A844442493918080003E4431
:100E00008502808000000000000C121312100F00F9
:100E100000000001060811080403000000000000A3
:100E2000011A2421110A0400010106081110080703
:100E3000002C0CFD0505B585CDFD0504D41505CFA9
:100E4000FF0707D79767FF4F87971727FF4F8797AA
:100E50001727DFFF070301F14949F1010305FD01F0
:100E60000A020503070306020B0306020702060235
:100E70000A020502060206010B020602060304012D
:100E80000A040809080809080C02050408022905D3
:100E9000023E09093E3F25251A1E2121123F21212C
:100EA0001E3F2525213F0505011E21293A3F040447
:100EB0003F213F21001021211F3F040A313F202004
:100EC000203F02023F3F02043F1E21211E3F09092D
:100ED000061E21112E3F09093622252519013F0141
:100EE000011F20201F0F10201F3F10103F3B040444
:100EF0003B03043807312D23211E29251E223F20C4
:100F000000322929261221251A0C0A3F0817252507
:100F1000191E252518013905031A25251A06292920
:100F20001EF8FCFEFFFFFFFFFFFFFFFFFFFFFFFFBD
:100F3000FFFFFFFFFFFFFFFFFFFFFFFFFFFFFFFFC1
:100F4000FFFFFFFFFFFFFFFFFFFFFFFFFFFFFFFFB1
:100F5000FFFFFFFFFFFFFFFFFFFFFFFFFFFFFFFFA1
:100F6000FFFFFFFFFFFFFFFFFEFCF8FFFFFFFFFF9C
:100F7000FFFFFFFFFFFFFFFFFFFFFFFFFFFFFFFF81
:100F8000FFFFFFFFFFFFFFFFFFFFFFFFFFFFFFFF71
:100F9000FFFFFFFFFFFFFFFFFFFFFFFFFFFFFFFF61
:100FA000FFFFFFFFFFFFFFFFFFFFFFFFFFFFFFFF51
:100FB000FFFFFFFFFFFFFFFFFFFFFFFFFFFFFFFF41
:100FC000FFFFFFFFFFFFFFFFFFFFFFFFFFFFFFFF31
:100FD000FFFFFFFFFFFFFFFFFFFFFFFFFFFFFFFF21
:100FE000FFFFFFFFFFFFFFFFFFFFFFFFFFFFFFFF11
:100FF000FFFFFFFFFFFFFFFFFFFFFFFFFFFFFFFF01
:10100000FFFFFFFFFFFFFFFFFFFFFFFFFFFFFFFFF0
:10101000FFFFFFFFFFFFFFFFFFFFFFFFFFFFFFFFE0
:10102000FFFFFFFFFFFFFFFFFFFFFFFFFFFFFFFFD0
:10103000FFFFFFFFFFFFFFFFFFFFFFFFFFFFFFFFC0
:10104000FFFFFFFFFFFFFFFFFF0103070F0F0F0F62
:101050000F0F0F0F0F0F0F0F0F0F0F0F0F0F0F0FA0
:101060000F0F0F0F0F0F0F0F0F0F0F0F0F0F0F0F90
:101070000F0F0F0F0F0F0F0F0F0F0F0F0F0F0F0F80
:101080000F0F0F0F0F0F0F0F0F0F0F0F0F0F0F0F70
:101090000703014A24F804FA0D05050505050505B1
:1010A00005050505050505050505050505050505F0
:1010B00005050505050505050505050505050505E0
:1010C00005050505050505050505050505050505D0
:1010D00005050505050505050505050DFA04F8FFD7
:1010E00000FF000000000000000000000000000001
:1010F00000000000000000000000000000000000F0
:1011000000000000000000000000000000000000DF
:1011100000000000000000000000000000000000CF
:10112000000000000000FF00FFFF00FF00000000C3
:1011300000000000000000000000000000000000AF
:10114000000000000000000000000000000000009F
:10115000000000000000000000000000000000008F
:10116000000000000000000000000000000000007F
:10117000FF00FFFF00FF0000000000000000000073
:10118000000000000000000000000000000000005F
:10119000000000000000000000000000000000004F
:1011A000000000000000000000000000000000003F
:1011B00000000000000000000000FF00FF01020529
:1011C0000B0A0A0A0A0A0A0A0A0A0A0A0A0A0A0A7E
:1011D0000A0A0A0A0A0A0A0A0A0A0A0A0A0A0A0A6F
:1011E0000A0A0A0A0A0A0A0A0A0A0A0A0A0A0A0A5F
:1011F0000A0A0A0A0A0A0A0A0A0A0A0A0A0A0A0A4F
:101200000A0A0A0B05020102FFFFFFFEFEFFFFFFB5
:10121000FFFFFFFFFEFEFFC7EFFFEEFFFFFFFEFE3B
:10122000FFFFFF02003CFEFFFFFFFFFEFEFFFF1F70
:10123000FEFCFEFFFFFEFEFFFFFFFFFFFFFEBEFF07
:10124000FFFFFFF7EF3EFEFFFFFFFF8E081F1F1F90
:101250000F0F1F1F1F1F1F1F1F0F0F1F1F0F1F0FFE
:101260001F1F1F0F0F1F1F1F08000E1F1F1F1F0F05
:10127000070F1F1F0F07070F1F1F0F0F1F1F1F0F26
:101280000F1F1F1F1F1F1F1F1F1F0E1F1F1F1F0F9F
:1012900007450D02FD0101DEDE0101FDFD0101FD3D
:1012A0000602FDC52931AEFD0101DEDE0101FD02B0
:1012B000003CC2010D1971FE0201FD11FE0402FD88
:1012C000FD0206FD0101BDBD0142BEFD0101BD15CE
:1012D000E93EC2010D19718E081710100F0F101082
:1012E00017171010170C08171708100F1710100FEA
:1012F0000F10101708000E1113161008070810170A
:10130000090704081717080C1710100F0F101017F3
:101310001710101717110E1113161008071D251E90
:10132000201F1B20162111220C230824052503262B
:1013300002270129012A022B032C052D072E0A2F33
:101340000D30113116321B332134253521361E372D
:101350001A381639123A0E3B0B3C093D083E073F3E
:1013600007400741084209430B440E451246164701
:101370001A481E49214A254B224C1F4D1C4E1A4F1C
:1013800018511653155514571459145B145D155FF5
:10139000166118621A631C641F6522662503040720
:1013A000040316124A2B462B422B3F2A3C293A278C
:1013B00039243820371B37163711370C38083905D0
:1013C0003A033C023E014100440047004A004C0001
:1013D000120E372B3725371F37193713370D3808BB
:1013E00039053A033C013E014000420044004600FA
:1013F00048004A004C00130F202B22252420261BD6
:1014000028162A112C0C2E0830053203350238011B
:101410003B003E004100440047004A004C0094025B
:10142000320000806C0232000080440232000080F2
:1014300094023200B8013200B40032000080DC00B7
:101440003200B801320070033200008080C0E0F04A
:10145000E0C4CEFFFFFFFFCEC4E0F0E0C080031782
:101460003F7FFFFFFFFFFFFFFFFFFFFF7F3F1703F0
:101470000000000000010100000000010100000068
:10148000000000000000C0E4CEFFFFFFFFCEE4C07C
:10149000000000000000001FBFFFFFFFFFFFFFFF75
:1014A000FFBF1F000000000000000001010000005D
:1014B000000101000000000000000000C0E4CEFFB9
:1014C000FFFFFFCEE4C0000000000000000087DF47
:1014D000FFFFFFFFFFFFDF870000000000000000AC
:1014E00000010100000000010100000000000000F8
:1014F00000000004CEFFFFFFFFCE0400000000004C
:101500000000000080D8FDFFFFFFFFFDD880000035
:1015100000000000000000010100000000010100C7
:101520000000000012118040A01020C4CA3515151B
:1015300035CAC42010A0408002152851C65865BA8B
:101540008181BA6558C651281502000000000001CB
:101550000100000000010100000000000000000088
:10156000C024CA35151535CA24C00000000000008B
:10157000001FA05865BA8181BA6558A01F000000FD
:101580000000000000010100000000010100000057
:10159000000000000000C024CA35151535CA24C05B
:1015A0000000000000000000875865BA8181BA651C
:1015B000588700000000000000000001010000004A
:1015C0000001010000000000000000000004CA3516
:1015D000151535CA04000000000000000000805806
:1015E00065BA8181BA6558800000000000000000E3
:1015F00000010100000000010100000000003E7F2A
:101600003E7F3E7F7F3E7F7E3E7F3F0E2E7F2E11B0
:10161000073E4136413E41553E415E3E41350A2E30
:10162000512EC0E0E0F0F0F0F0F8FCFEFF7F7FFE0E
:10163000FC60000101070707070707070704000010
:101640000000100BC0202010D0D05018040281617F
:1016500041829C60000101070100000004000304B6
:10166000000000000E0E0E1F1F1F1F1F1F0E0E0E6C
:10167000001C1F1F1F1F1F1F1F1F070000071F1F0A
:101680001F1F1F1F1F1F1C000C050E0A0E1F151FFA
:101690001F151F0E0A0E000400000A00000A0000B9
:1016A0000400001C171D1F171D1F171D0700000039
:1016B0000802000802000802000000071D171F1D95
:1016C000171F1D171C000000020800020800020876
:1016D0000000C0E0E0F0FCFEFFFFFFFEFFF6F8F0C8
:1016E000F060003179797D3F0F0F0F0F07070F1E54
:1016F0000F060E1F1FFEF8F0FFFFFFFFFCF8F8F0CB
:10170000E000000010397F7F2F3F7F7F3F0B0707EE
:10171000020030F8BCF8F0F0F8F8F8F8FEDFCFCFB0
:10172000C6800307070F377F3F7F7F7F3F1F070379
:101730000301A0F0F0E8FEFFFFFEFAFFFFCE040079
:10174000000003070F0F1F7F7F7F7F070F3F7C7C09
:1017500038000030F8FCFEFEFEFC7E3CF8F8F0C0DD
:101760000000163F3F1F0F1F3F3F3F3F1F1F1F1F20
:101770001F0E00C6EFFEFFFFFEFCFCFEFEFCF87035
:10178000000000033F7F7F7F3F3C3D1F1F0F030191
:101790000000387CFCFCFCFC7E7EFEFEFCF8FCFEBF
:1017A0007E34000001070F0F1E3F1F3F3F3F1F0FFA
:1017B00006000040E0F8FCFCDE9EFEFFFFFFFEE0BE
:1017C000000000070F1F3F3F1F1F3F7F7F3F7B3100
:1017D0000000100FC02020107CC28109191A693640
:1017E000889090600031494945320A08080805058B
:1017F000091209060E1111E608300F31190B8CC8B9
:101800000810E0000000102946502E384346350BE2
:101810000405020030C8A4C85050080808A8A65102
:101820004949468003040408364B2D4C4840211F8B
:1018300004020201A05010E8D631610E3A0531CA07
:10184000040000000304080918684C4678060833B1
:10185000444438000030C884020222B4523CC80814
:1018600030C000001629241E08102020232D161633
:101870001711110E00C6291A0D09028C04C2820428
:101880008870000000033C424E5D33242512130E85
:10189000020100003844C47434B45A62820204085D
:1018A000BC924A340000010608091E251622202099
:1018B000100906000040A038E4A45292665D392168
:1018C0001EE0000000070810202110182048582CA6
:1018D0004A3100000000000070F8FCFEFEFFFFFE31
:1018E000FC6000000000000000000000000000009C
:1018F0000060FCFEFFFFFEFEFCF870000000000030
:1019000080800082C7E7FFFFFFFFFFFEFCFCFC3882
:1019100038383838383838B8B838FCFCFCFFFFFFA6
:10192000FFFFFFC7870200000000070F1F1F0F0700
:10193000010100040E1F3F3F1B01000000000000DA
:101940000003070F1F0F0701000000000F1F1F1FDC
:101950001E0C0000000000000070F8FCFEFEFFFFFF
:10196000FEFC60000000000000000000000000001D
:10197000000060FCFEFFFFFEFEFCF87000000000AF
:101980000000000002C7E7FFFFFFFFFFFEFCFCFCBA
:1019900038B8B838383838383838B8FCFCFCFFFF6D
:1019A000FFFFFFFFC78702808000000000000C1EC1
:1019B0001F1F1F0F0000000001070F1F0F0703006C
:1019C0000000000000011B3F3F1F0E040001010743
:1019D0000F1F1F0F07002B16000000007088040265
:1019E000160141229C600000000000000000000081
:1019F0000000000000609C22410116020488700073
:101A0000000000008080008245243E80808091326A
:101A10002444C42828282828282828A8A828C444DA
:101A20002493918080003E44850200000000070856
:101A300010110806010100040A1121241A010000F6
:101A40000000000000030408110806010000000067
:101A50000F101213120C0000000000000070880428
:101A600002160141229C60000000000000000000FE
:101A7000000000000000609C2241011602048870F2
:101A8000000000000000000002C5243E008080919C
:101A9000B22444C428A8A828282828282828A844EC
:101AA000442493918080003E4485028080000000A1
:101AB00000000C121312100F0000000001060811A4
:101AC000080403000000000000011A2421110A0488
:101AD00000010106081110080700DC003200B801FF
:101AE00032007003320000801E0023004100140009
:101AF0006E000F0055002D00008094023200B801E6
:101B00003200B4003200008000FCFEFFFFFFFFFF48
:101B1000FFFFFFFFFFFFFFFFFFFFFFFFFFFFFFFFD5
:101B2000FFFFFFFFFFFFFFFFFFFFFFFFFEFC0010B7
:101B30003F7FFFFFFFFFFFFFFFFFFFFFFFFFFFFFF5
:101B4000FFFFFFFFFFFFFFFFFFFFFFFFFFFFFFFFA5
:101B5000FFFFFF7F3F10271000FC02010101010180
:101B60000101010101010101010101010101010165
:101B700001010101010101010101010102FC00104B
:101B80002F50A0A0A0A0A0A0A0A0A0A0A0A0A0A016
:101B9000A0A0A0A0A0A0A0A0A0A0A0A0A0A0A0A045
:101BA000A0A0A0502F100000000000C0E0F0F0E066
:101BB000C00000000000000000000001030301005D
:101BC0000000000000000080E0F0F8F8F8F0E0C04D
:101BD000000000000000010307070F0F07030100CA
:101BE0000000C0E0F8FCFEFEFFFFFFFFFEFEFCF879
:101BF000F003070F1F1F3F7F7F7F7F3F1F0F0301F2
:101C00000080D8FCFE7E3F1E0C9C3E7F3F9E0C0356
:101C1000070F1F1F0F0E1E3F7F3F1E0D0301000CFD
:101C20009EBF3F1E0400040E1F3F3F1E0C060F1FE9
:101C30003F1F0E0400081C3E7F3F1E0C0002070FD2
:101C4000060000000000070F1F1E1C0E1E3E3C3841
:101C50000000000010387C3810000207020000006D
:101C6000000000000002070E04081C3810000000ED
:101C700000000000002070200F0F0000000000C0D6
:101C800020D0D020C00000000000000000000001B3
:101C90000202010000000000000000000000C0205F
:101CA00020C0000000000000000000000000010152
:101CB000000000000000000000806090E8E8C8D04C
:101CC00020C0000000000000010205050B0B05020A
:101CD0000100000000000000806010103020C000F3
:101CE00000000000000000010202040402010000E4
:101CF0000000C020D8E4DAFAFDFDFDF5FAFAF40898
:101D0000F003040B17172B5F5F5F5E2D130D0201AD
:101D100000C0201824040202020A040408F0000093
:101D2000030408081420202021120C020100008066
:101D30005864DA5A2D120C942A5D2D920C03040B70
:101D40001716090E122D5E2D120D0201000080984B
:101D50002424120C00081422120C000003040809A9
:101D600006000C1221120C000100000C92AD251A85
:101D70000400040A152D2D120C0609162E150A044E
:101D80000008142A5D2D120C00000C121A04000029
:101D900000040A12120C00000609110A04000000D7
:101DA000081422120C0000020509060000000000C1
:101DB000060915120C0C122A243800000000102805
:101DC000542810000002070F060000000000060F54
:101DD0001F1E0C0C1E3E3C380000000010387C38E2
:101DE0001000020502000000000000000002070EC3
:101DF00004081C38100000000000000000207020C3
:101E000000020000000000000000000002040000CA
:101E1000081000000000000000000000200000008A
:101E20000000000000000000000000FCFEFFFFFFBB
:101E3000FFFFFFFFFFFFFEFCF8E0C00080F8FCFEA4
:101E4000FFFFFFFFFFFFFFFFFFFFFFFFFFFFFFFFA2
:101E5000FFFFFFFFFFFFFFFFFF8007070F0F0F1FB1
:101E60003F3F3F3F1F0F0F0F0F0F0F0F0F1F3F3F42
:101E70003F3F1F0F0F0F07030080C0C0C0C0E0F03E
:101E8000E0E0C0C0C0C0C0C0C0C0C0C08000000092
:101E900000000000000000F8FDFFFFFFFFFFFFFF54
:101EA000FFFFFFFFFFFFFFFFFFFFFFFFFEFEFEFC48
:101EB000F8F0E0800003070F0F1F3F3F3F3F1F0F69
:101EC0000F0F0F0F0F0F0F0F1F3F3F3F3F1F0F0F42
:101ED00007031E18000000000000000000000000C2
:101EE00000FC022501FDFD1DED2D2D29A2C41820A9
:101EF000C000807804D255B5D55555D5B575F5F5E2
:101F0000F0F7F0FF7FB8D75456D7B571F0807F80D7
:101F100007040B080B1120262220110B08090909C0
:101F200009080B1120262220110B080B0403008046
:101F300040404040605020204040404040404040B1
:101F400040408000000000000000000000F8054252
:101F50002492D05052D690063666667676767230E7
:101F600082C55252D2B428106080000304080B11BD
:101F700020262220110B0A0A0A0A0A0A0A0B11203B
:101F8000262220110B0904033C7EFFFFFFFF7E3C4D
:101F9000003C7EFFFF7E3C0000003CFFFF3C000059
:101FA000003C7EFFFF7E3C0008083C42BDADA5BD65
:101FB000423C003C42BDAD423C0000003CFFC33C03
:101FC0000000003C42A5BD423C001008030303038F
:101FD000030303030303030303030303FFFFFFFEE2
:101FE000FCFCFCFCFFFFFFFEFCFCFCFC030303030A
:101FF000030303030303030303030303100A108E05
:102000009284A8889088108E9284A8889088030271
:1020100002020202020203020202020202020000A3
:1020200000000000000000000000000000000000B0
:1020300000000000FEFEFEFEFEF8F8F8F8F8FEFED6
:10204000FEFEFEFEFEFEFEFEFEF8F8F8F8F8FEFECE
:10205000FEFEFE0000000000000000000000000086
:10206000000000000000F8FCFCFCFCFCFCFCFCFC9C
:10207000FC000000FFFFFFFFFFFFFFFFFFFFFFFF70
:10208000FFFFFFFFFFFFFFFFFFFFFFFFFFFFFFFF60
:10209000FFFFFF0000000000000000000000000043
:1020A000000000000080C3E7F7FFFFFFFFFFFFFF16
:1020B000FFF0F0F0FFFFFFFFFFFFFFFFFFFFFFFF5D
:1020C000FFFFFFFFFFFFFFFFFFFFFFFFFFFFFFFF20
:1020D000FFFFFF0000000000000000000000000003
:1020E00000000000000000000000000000000000F0
:1020F00000000000000000000000000000000000E0
:1021000000000000000000000000000000000000CF
:102110000000000000000000000000000000401C63
:1021200000000000000000000000000000000000AF
:1021300000000000000000FCFCFC0090901090905B
:1021400000FCFCFCECC4ECFCFCFC009090109090BB
:1021500000FCFCFC0000000000000000000000008B
:10216000000000000000000000F0080848E84808EF
:1021700008F80000000000FFFFFF00F77300F7738E
:1021800000FFFFFFFFABFFFFFFFF00F77300F773D8
:1021900000FFFFFF00000000000000000000000042
:1021A000000000000000000080C1E272BA5AAA528A
:1021B000AA53A040A040A0FFFFFF00DECEC0DECEAD
:1021C00000FF0BFF02E202FF0BFF00DECEC0DECEFF
:1021D00000FFFFFF00000000000000000000000002
:1021E00000000000000000000000000000000000EF
:1021F00000000000000000000000000000000000DF
:1022000000000000000000000000000000000000CE
:1022100000000000000000000000000000000000BE
:1022200000000000000000000018FCFEFEFEFEFEA4
:10223000FEFEFEFEFC98C0C0C0C0C0C0C0C0D8FC3E
:10224000FEFEFEFEFEFEFEFEFEFC98C0C0ECFEFFA3
:10225000DEC8C0C0800000000000000000000000D8
:1022600060F0F8FCFEFFFFFEFCE0FFFFFFFFFFFF5A
:10227000FFFFFFFFFFFFFFFFFFFFFFFFFFFFFFFF6E
:10228000FFFFFFFFFFFFFFFFFFFFFFFFFFFFFFFF5E
:10229000FFFFFFFFFF030000000000000000000040
:1022A00000000103FFFFFFFFFFFFFFFFFFFFFFFF36
:1022B000FFFFFFFFFFFFFFFFFFFFFFFFFFFFFFFF2E
:1022C000FFFFFFFFFFFFFFFFFFFFFFFFFFFFFFFF1E
:1022D000FFFFFFFFFF000000000000000000000003
:1022E00000000000000000000000000000000000EE
:1022F00000000000000000000000000000000000DE
:1023000000000000000000000000000000000000CD
:1023100000000000000000000000000000000000BD
:10232000401C0000000000000000000008E414D47D
:102330005414D45414E4080080808080808080800D
:102340008008E414D45414D45414E4080080808029
:10235000AC92888080800000000000000000000037
:102360000000002050A854AA54A8408000FF00D6C6
:10237000D210D6D200FF0001FC02DA4A02DA4A0289
:10238000FC01FC00D6D210D6D200FF0001FC02DA1C
:102390004A02DA4A02FC01000000000000000000CE
:1023A00000000000000001F60600050E00FF00FE20
:1023B000060206FE00FF0000FF00FAFA02FAFA0029
:1023C000FF00FF00FE060206FE00FF0000FF00FA0D
:1023D000FA02FAFA00FF000000000000000000000E
:1023E00000000000000000000000000000000000ED
:1023F00000000000000000000000000000000000DD
:1024000000000000000000000000000000000000CC
:1024100000000000000000000000000000000000BC
:1024200000004120FE0105F1F1F111D1B1D111F10E
:10243000515151515151515151515151515100002E
:10244000FF00007F7F09090F06007F7F19396F4663
:10245000007F7F4949414100266F49497B32002670
:102460006F49497B32FF0000FFFFFFFEFFFEFF02C6
:1024700079CD95A5CD790111111101F9F90101006D
:1024800000FF00007F7F09090F06007F7F4040406A
:1024900040007C7E0B0B7E7C00070F78780F0700D6
:1024A0007F7F3E1C0800FF00001F3F3F3333333364
:1024B000333E36363E363E363E36363E36363E368F
:1024C0000000FF00003E7F41417F3E007F7F0E1CE9
:1024D0007F7F0000000000000000000000000000FE
:1024E000000000000000003F40504040407846415E
:1024F000415959414141415959414141414141416C
:102500004100007F000001017F7F0101007C7E0B04
:102510000B7E7C007F7F09090F06007F7F494941C0
:10252000410000000000000093023C010000530045
:10253000DC033C010000530027053C010000530070
:10254000DC039E000000290027059E0000002900F2
:1025500093023C0100005300DC03900127053C017D
:102560000000E30193023C0100005300DC033C0146
:102570000000530027053C0100005300DC039E00CF
:102580000000290027059E000000290093023C015D
:1025900000005300DC03900127053C010000E3012B
:1025A0002A023C01000053003F033C01000053009D
:1025B00055043C01000053003F039E000000290029
:1025C00055049E00000029002A023C01000053002F
:1025D0003F03900155043C010000E3012A023C0145
:1025E000000053003F033C010000530055043C0130
:1025F000000053003F039E000000290055049E0088
:10260000000029002A023C01000053003F03900112
:1026100055043C010000E301000088130180FCFE2A
:10262000FFFFFFFFFFFFFFFFFFFFFFFFFFFFFFFFBA
:10263000FFFFFFFFFFFFFFFFFFFFFFFFFFFFFFFFAA
:10264000FFFFFFFEFC010307070707070707070750
:10265000070707070707070707070707070707070A
:1026600007070707070F1F3F07070301271000FC95
:10267000FE867E86FE0EB60EFE06EE06FE06D6EE42
:10268000FE06FE06B64EFE06FE8E76AEFE6E56B612
:10269000FE46FEFC000001030303030303030303E0
:1026A00003030303030303030303030303030303FA
:1026B0000303030303070F0303030100FCFEFFFFF3
:1026C000FFFFFFFFFFFFFFFFFFFFFFFFFFFFFFFF1A
:1026D000FFFFFFFFFFFFFFFFFFFFFFFEFC01030700
:1026E000073F1F0F07070707070707070707070722
:1026F0000707070707070707070707070301211051
:1027000000FCFE06D6F6FE06FE067E7EFE06EE0601
:10271000FE8E768EFEF606F6FE065676FE46FEFC2B
:102720000000010303030F07030303030303030371
:102730000303030303030303030303030303030369
:102740000100FCFEFFFFFFFFFFFFFFFFFFFFFFFF9A
:10275000FFFFFFFFFFFEFC010307073F1F0F0707F7
:10276000070707070707070707070301FCFEFFFF27
:10277000FFFFFFFFFFFFFFFFFFFFFFFFFFFFFFFE6A
:10278000FC01030707070707070707070707070FE6
:102790001F3F07070301151000FCFE06DE06FE06BC
:1027A00056FE067EFE06D6EEFE46FEFC0000010347
:1027B00003030F07030303030303030303030303D9
:1027C000010000FCFE06DE06FE0656FE067EFE0644
:1027D000D6EEFE46FEFC00000103030303030303E1
:1027E0000303030303070F030303010060FCFE7FE1
:1027F0007FFFFEFCF8F0F0F0F0E0E0C00000000029
:10280000040707070707070707010100100B609C73
:102810008241618102041850D0D0102020C00000F5
:102820000000040300040000000107010100C0E0F3
:10283000E0F0F0F0F0F8FCFEFF7F7FFEFC600001AE
:102840000107070707070707070400000000100B30
:10285000C0202010D0D050180402816141829C60B9
:102860000001010701000000040003040000000053
:102870002C0CFD0505B585CDFD0504D41505CFFF50
:102880000707D79767FF4F87971727FF4F87971738
:1028900027DFFF070301F14949F1010305FD010AA3
:1028A000020503070306020B030602070206020ADB
:1028B000020502060206010B020602060304010AD3
:1028C000040809080809080C02050410A854A850B7
:1028D000AA55AA55A050A040AA55AA55A854AA5432
:1028E000AA55AA550410004040E054AA54A800502C
:1028F00040E055AA55A8004040E054AA54A803104F
:10290000000000AA55AAA050A0AA55AAA854A8AA97
:1029100055AA041000008000AA55AA55A050A04056
:10292000AA55AA55A854A850AA55AA550410004063
:10293000A050AA55AA55A050A040AA55AA5580401B
:10294000A040AA55AA55F8FCFEFFFFFFFFFFFFFFBE
:10295000FFFFFFFFFFFFFFFFFFFFFFFFFFFFFFFF87
:10296000FFFFFFFFFFFFFFFFFFFFFFFFFFFFFFFF77
:10297000FFFFFFFFFFFFFFFFFFFFFFFFFFFFFFFF67
:10298000FFFFFEFCF8FFFFFFFFFFFFFFFFFFFFFF62
:10299000FFFFFFFFFFFFFFFFFFFFFFFFFFFFFFFF47
:1029A000FFFFFFFFFFFFFFFFFFFFFFFFFFFFFFFF37
:1029B000FFFFFFFFFFFFFFFFFFFFFFFFFFFFFFFF27
:1029C000FFFFFFFFFFFFFFFFFFFFFFFFFFFFFFFF17
:1029D000FFFFFFFFFFFFFFFFFFFFFFFFFFFFFFFF07
:1029E000FFFFFFFFFFFFFFFFFFFFFFFFFFFFFFFFF7
:1029F000FFFFFFFFFFFFFFFFFFFFFFFFFFFFFFFFE7
:102A0000FFFFFFFFFFFFFFFFFFFFFFFFFFFFFFFFD6
:102A1000FFFFFFFFFFFFFFFFFFFFFFFFFFFFFFFFC6
:102A2000FFFFFFFFFFFFFFFFFFFFFFFFFFFFFFFFB6
:102A3000FFFFFFFFFFFFFFFFFFFFFFFFFFFFFFFFA6
:102A4000FFFFFFFFFFFFFFFFFFFFFFFFFFFFFFFF96
:102A5000FFFFFFFFFFFFFFFFFFFFFFFFFFFFFFFF86
:102A6000FFFFFFFFFFFFFFFFFFFFFFFFFFFFFFFF76
:102A7000FFFFFFFFFFFFFFFFFFFFFFFFFFFFFFFF66
:102A8000FFFFFFFFFFFFFFFFFFFFFFFFFFFFFFFF56
:102A9000FFFFFFFFFFFFFFFFFFFFFFFFFFFFFFFF46
:102AA000FFFFFFFFFFFFFFFFFFFFFFFFFFFFFFFF36
:102AB000FFFFFFFFFFFFFFFFFFFFFFFFFFFFFFFF26
:102AC00000010307070707070707070707070707A7
:102AD0000707070707070707070707070707070786
:102AE0000707070707070707070707070707070776
:102AF0000707070707070707070707070301003F3F
:102B000033F804FA0D05E5E5252525252525252598
:102B1000252525E52525252525252525E5252525E5
:102B2000252525252525252565E5E5E5E525252515
:102B30002525252525252525E5E5E5050DFA04F8B6
:102B4000FF00FF0000FFFFFF000000000000FF1F6C
:102B50001C18F8FF000000000000FFFFFF0000004D
:102B60000000FFFFFF000000000083FFFF000000E7
:102B7000000000FFFF3F38F8FFFF0000FF00FFFFED
:102B800000FF0000FFFFFF000000000000FCF0F06D
:102B9000F0FFFF000000000000FFFFFF000000004A
:102BA00000FBFBF1000004040E3FFFFF00000000EB
:102BB0000000FDFDE0E0FFFFFF0000FF00FFFF0061
:102BC000FF0000FFFFCFC0C0C0C0C0404F7F7F7F6D
:102BD0007F4FC0C0C04040404FFFCF4040C0C0C04A
:102BE0004F7F7FE04040404040FFCFC040404040EA
:102BF000C0CFCFC7C0F0FFFF0000FF00FFFF00FF06
:102C00000000FFFF9F2F37470F9FFF0000007F7FCF
:102C10000080C1FF03FC000001FFFF00C0030F3F65
:102C20000000FFFF000000FFFF030000FFFEF89F11
:102C30002F37470F9FFFFF0000FF00FFFF00FF80BF
:102C4000003F3F3F3F3E3E3F3F2F2020202F3F3F52
:102C50003F2F202D3D2D2020202F202F3F3C3020A6
:102C6000203F2F2020202F3F3C30202F27333F3F75
:102C70003E3E3F3F3F3F0080FF00FF000102050551
:102C800005050505050505050505050505050505F4
:102C900005050505050505050505050505050505E4
:102CA00005050505050505050505050505050505D4
:102CB0000505050505050502010018BCFEFFFFFE20
:102CC000FCFEFFFFFEBC1803070F1F1F0F070F1F9F
:102CD0001F0F07030D0D18A4422151EAF4E24181B0
:102CE00042A418030408101008050A111008040370
:102CF000F0F8FCFEFFFFFFFF0707FFFFFFFFFFFFEE
:102D0000FFFF0000010307070707070700000A137A
:102D1000F008F412B535E5050101FF00EF08288C35
:102D2000EF000000010205050505010000003C3E22
:102D30003F3F3F3E3C07063C023D0105023C3C0252
:102D400005013D023C0000000080C0E0E0E0E0E062
:102D5000E0E0E0E0E0E0E0FCFEFFFFFFFEFCC08022
:102D6000000000000000FEFFFFFFFFFFFFFFFFFF6E
:102D7000FFFFFFFFFFFFFFFFFFFFFFFFFFFFFFFF63
:102D8000FCF8000000FFFFFFFFFFFFFFFFFFFFFF5A
:102D9000FFFFFFFFFFFFFFFFFFFFFFFFFFFFFFFF43
:102DA000FF00060F0F1F1F1F3F7F7F7F7F3F1F1FEB
:102DB0001F1F1F1F1F1F3F7F7F7F7F3F1F1F1F0F73
:102DC000071F1F000000008040A0A0A0A0A0A0A09E
:102DD000A0A0A0A0A0BC828581BD823C4080000054
:102DE00000000000FE01FC85FD01FF03FDBDDDEDDF
:102DF000BD9D85FD03FF0305BDDDAD3C380304F833
:102E0000000000FF0082B24ABBBBBBBA7AFACACE4E
:102E10008686CECBFB7BBABABAB26AE2EA00FF0082
:102E200006090A16111623414C44412316111313A7
:102E30001313111623414C4441231611170807F8A8
:102E4000FFFFFEFCFCFCFC03030303030303030876
:102E50000A280709221424080401010201010101C2
:102E60000100872E11241FBECFEFDAE0DEBFCDBFF9
:102E700011E0A0E0B1E0E0EDF5E602C005900D92B2
:102E8000A637B107D9F726E0A6E7B1E001C01D9249
:102E9000A737B207E1F717E1C2E3D7E104C02197F2
:102EA000FE010E94D932C133D107C9F70E94302FE9
:102EB0000C94E6320C940000EEEAF1E081E0A0E030
:102EC000B8E000800EBC8111012C1197A0FDFDCF50
:102ED0000192B9F70DB4089590E121E0382F81E017
:102EE00061FD84E060FD880F62FD8295687F969F9A
:102EF000D0011124A30FA255BE4F0C90082A20FF29
:102F000008260C9208950F931F93CF93DF9350E000
:102F1000EA016596DC0180E08B01015E1F4F9EE0B7
:102F2000415E5F4F99962C9199972223D9F0949600
:102F3000ED91FC91959796962C919697E017F10755
:102F40008CF47E966E177F076CF4299F90011124F4
:102F5000F9017B96E417F5072CF42B5D3F4FC21760
:102F6000D3072CF08F5F17968330E1F68FEFDF9158
:102F7000CF911F910F910895FC010E94D0173197B6
:102F800028F068517C4F8F4F9F4FF9CFAB01FC0168
:102F90000E94D017641775078E079F07C8F308951E
:102FA000A8EAB1E02FB7F8947D918D919C9166B518
:102FB0002FBFA89B05C06F3F18F47F5F8F4F9F4FB7
:102FC00022E0660F771F881F991F2A95D1F7089571
:102FD0002F923F924F925F926F927F928F929F9229
:102FE000AF92BF92CF92DF92EF92FF920F931F9317
:102FF000CF93DF9300D000D000D0CDB7DEB7DB0198
:103000004115510509F448C1FA0194903196749123
:103010004E5F5F4F692C712C7A826982211102C048
:10302000EE2021F1E1E0F0E0372F377011F4F0E00D
:10303000E0E0A72EA694A694A694AE0EBF2EB11CD7
:1030400069807A80A69CF001A79CF00DB69CF00DDB
:10305000112463E0762EC710F4C0EE0FFF1F2E9FE1
:1030600070012F9FF00C11244E0D5F1D29813A81B4
:10307000280F391F3A832983121613060CF00CC14E
:10308000803891050CF008C19D01270F311D1216E3
:1030900013060CF001C1A034B1050CF0FDC04115C0
:1030A000510509F4F9C03A2F3770632E9D01B7FF1F
:1030B00002C0295F3F4FE3E035952795EA95E1F798
:1030C000F22FB7FF04C0662011F0FFEFF20F2227A6
:1030D0003327281B390B97FD02C030E020E0A9817F
:1030E000BA8160E8D62ED81AA038B1050CF4D92CD4
:1030F000D21AAF2F0F2E000CBB0BFF3F0CF0ADC050
:10310000EA2FE095E983E1E0672F677009F4E0E0DA
:10311000769576957695E70FAE0FB11D199714F059
:10312000E8E0EF1B79807F0E772D60E87603D00111
:1031300011248A0F9B1F820F931F262C062C000C34
:10314000330873E0A2E0C712A1E0B92DBD19BA9F00
:10315000B02D1124AA2EB12C6981969E200D311D0F
:1031600011242A9DB0012B9D700D3A9D700D1124E4
:103170007A01E60EF71E0115110509F48A01950181
:1031800021503109620F731F060F171F6FEF70E098
:10319000062C02C0660F771F0A94E2F79B01209568
:1031A00030953A8329834E2E4F0E4B2F50E0AD9D24
:1031B000400D511D1124741409F46EC0DC01A25598
:1031C000BE4F1E821D82512CD51409F45DC0ED81C5
:1031D000FE81EE0DFF1D249130E0022C02C0220F73
:1031E000331F0A94E2F762E0C61609F44AC07BEF87
:1031F000C71235C0F901E095F095FC83EB8330E010
:1032000020E077FC05C09C907B819722922A9C92BB
:10321000662071F0E6E0E7155CF04D01F0E88F0EF6
:10322000911CF4012081FC812F23232BF4012083A6
:1032300053942D813E812A0D3B1D3E832D83119693
:10324000C3CF0115110509F40ACFEE9E5001EF9E80
:10325000B00C11240A0D1B1D02CF198254CFED8131
:10326000FE81E00FF11FE491F0E0022C02C0EE0FAE
:10327000FF1F0A94E2F7BF01609570957C836B8312
:10328000C0CF69817A81FACF7394E40EF51E040FE2
:10329000151F80589F4F8FCF26960FB6F894DEBF2C
:1032A0000FBECDBFDF91CF911F910F91FF90EF9097
:1032B000DF90CF90BF90AF909F908F907F906F9056
:1032C0005F904F903F902F900895CF92EF920F9381
:1032D0001F933AEFC32EE12C10E000E00E94E817A4
:1032E0001F910F91EF90CF900895CF92EF920F938F
:1032F0001F9332E0C32EE12C10E000E00E94E8179B
:103300001F910F91EF90CF900895CF92EF920F936E
:103310001F93F901202FCC24C3948F010E94E8173A
:103320001F910F91EF90CF900895EF920F93CF934D
:10333000DF93D0E0C0E0E12C00E02FE33EE24FE479
:103340005EE26BE370E0CE010E9485192896C038DA
:10335000D10589F7DF91CF910F91EF900895AF924A
:10336000BF92CF92DF92EF920F931F93CF93DF9391
:103370005C01122F8091AC019091AD01877099276B
:10338000892B39F481E0F5019281911180E0F501FA
:103390008283C42F440FDD0BC62E660FDD08E12C9F
:1033A00000E025E43DE241EC5DE2BE01C6010E9481
:1033B0008519F50102812EE23DE245E35DE2BE01A1
:1033C000C60142960E948519112361F0BE016B5F10
:1033D0007F4F00E020EF3CE24EE05DE2C601049743
:1033E0000E948519DF91CF911F910F91EF90DF908F
:1033F000CF90BF90AF900895AF92BF92CF92DF92DF
:10340000EF920F931F93CF93DF936C0181E06827B6
:10341000D60114961C91161B8AE2A82E81E0B82EC4
:10342000D0E0C0E0C117D0F4FE01D5018D915D015F
:1034300090E0D6011D962C91211102C0F0E0E0E051
:10344000E12C00E02AEB3CE244ED5CE261E070E05C
:103450008E1B9F0B0E9485192196E4CFDF91CF919F
:103460001F910F91EF90DF90CF90BF90AF90089594
:1034700090E00C94BC178FB18095807F669B88602C
:103480001C9B84600895962F942B982B19F44FEF72
:103490006FEF8FEF93E294BD609568BD91EF9093CD
:1034A00080004093880080938A0008958091A10154
:1034B000089520E042E254E260E170E080E290E0B2
:1034C0000E9475198091AC019091AD0168E770E0A0
:1034D0000E94B1328C3370F48E31D8F081E31092B7
:1034E000890310928A0310928B0310928C0310921E
:1034F0008D0303C08A3578F081E980936203807A76
:1035000031F485EA80935B0385E980935C030C9436
:103510005C1781E1E4CF81E5F0CF0895FC0197814C
:10352000973021F0943111F0913211F484E08587C5
:103530000895FC01DB0186E59AE190939E0180935A
:103540009D0188ED9FEF968385838FE1878380E8D7
:103550009CE0928F818F83E0838F11AE81E990E0B0
:1035600016969C938E93159717962D913C911897CC
:103570004EE1429FC001439F900D112420E931E0AC
:10358000281B390B31A320A317968D919C916FE0D6
:10359000689FA001699F500D112488EC90E0841B66
:1035A000950B93A382A3253B310520F024EB30E05B
:1035B00031A320A38536910520F084E690E093A303
:1035C00082A3DF019496CF01C996A817B90729F005
:1035D00015961C9215971796F8CF14820895FC0142
:1035E000DB011C961C9213AA14AA88EC90E096ABFF
:1035F00085AB17AA10AE11AE17A612AA12AE82E1C1
:1036000081A71482DF011596B996AE17BF0741F066
:1036100017961C92179716961C9216971996F5CF27
:1036200086E59AE190939E0180939D010895FC01A7
:10363000DB0111962C911197253001F58CE98583DA
:1036400082E7868317964D915C911897249FC0015D
:10365000259F900D112412962D913C911397235D77
:103660003F4F820F931F1B969C938E931A9717823E
:1036700012861386108680E28187089580E685830E
:1036800019968C918683F3CFEF92FF920F931F933D
:10369000CF93DF9300D000D000D0CDB7DEB7FE01CE
:1036A000319626E0DF011D922A95E9F7DC0112969A
:1036B0006C91129713969C919E01295F3F4F0AE0EF
:1036C00010E0862FB8010E94B1328193972FE21744
:1036D000F307B9F78F018EE5E82EF12CF80122915E
:1036E0008F014DE15BE063E070E0C7010E94651966
:1036F000F5E0EF0EF11C8CE7E816F10479F7269659
:103700000FB6F894DEBF0FBECDBFDF91CF911F91F2
:103710000F91FF90EF900895EF920F93CF93DF9367
:10372000EC01FB018485882361F0E12C00E02BE9AA
:1037300039E04BE55AE064E170E080E290E00E94FD
:1037400085198C81882361F0E12C00E02DE638E0BA
:1037500043E059E064E170E087E290E00E9485195F
:10376000DF91CF910F91EF900895EF920F931F93F8
:10377000CF93DF93EC01DB01122F442321F18B81E6
:1037800090E0FC01EE0FFF1FED59F74F459154916A
:10379000FC01E25FFE4F608170E08D5E9E4FFC0198
:1037A00080811D962C9190E00E9475198091AC014A
:1037B0009091AD018F709927892B29F48B818F5FB0
:1037C0008530C0F58B83D0E0C0E0E12C00E02FE332
:1037D0003EE24FE45EE26CE170E0CE010E948519AA
:1037E0002896C038D10589F72FE536E041E657E045
:1037F00063E370E090E080E00E9485192DE435E0FD
:1038000045ED55E070E060E090E080E00E948519B1
:10381000112351F02BE334E043EC54E070E060E01E
:1038200080E790E00E948519DF91CF911F910F9161
:10383000EF9008951B82C7CF20919601E0919401EB
:10384000F0919501CF010296909395018093940198
:10385000222319F085919491089580819181089592
:10386000E1E7F0E080818D7F80831092910046989F
:1038700047981092930108950F931F93CF93DF936E
:10388000EC01062F142F40E060E080E00E94431A14
:103890000E94301C0F87188BDF91CF911F910F91E1
:1038A0000895EF92FF921F93CF93DF93EC017B017A
:1038B0008091A00110919F011095182387FF44C0AB
:1038C0008D818031E8F58F5F8D8313FF05C045E062
:1038D00063E0C7010E943C1C12FF05C040E067E0A6
:1038E000C7010E943C1CE091AC01F091AD01CF01F9
:1038F0006FE070E00E94B132892B29F48E818F5FD6
:10390000833021F18E832F81CF0160E570E00E942A
:10391000B132892B59F42C3448F08A8591E08927FB
:103920008A8788858F5F803199F08887283C10F4DA
:103930002F5F2F83DF91CF911F91FF90EF9008951C
:10394000F8940C94122EC1CF1D82BFCF1E82DBCF04
:103950001886ECCFFC019B0190919F01909580917E
:10396000A001982351F08281882311F084E18283A1
:103970009281911105C081E082839281992349F05F
:103980009F5F9283953129F440E062E0C9010C9475
:103990003C1C0895FF920F931F93CF93DF93EC018C
:1039A0008B01F0909F01F0948091A001F82280910A
:1039B000AC0180FD1EC049858F816AE00E9497326C
:1039C00080FF36C0842F40E060E00E94431AF80177
:1039D00061818F81653009F05BC0823A58F58B3583
:1039E000B8F58C3388F18C3408F05BC08F818F5F21
:1039F0008F83F3FE06C040E0F8016181C8010E9498
:103A00003C1C8091AC019091AD016CE070E00E9493
:103A1000B132892B39F48E81823121F08B8591E08E
:103A200089278B87DF91CF911F910F91FF90089588
:103A300080E0CACF8F3B38F140E065E08F3BB1F6C4
:103A4000C8010E943C1CD2CF8D8181508D83CECF86
:103A500081E08A878091AC019091AD0183709927B4
:103A6000892B21F68E81863138F4833148F48231F6
:103A700009F4BCCF835005C08B31E0F7825001C000
:103A800081508E83B3CF8985815089871A86AECFC6
:103A90008D3850F48437D0F7853108F4A7CF8932B8
:103AA00048F481E08A87A2CF843BF8F040E0843B71
:103AB00039F29CCF81E08A878091AC019091AD0171
:103AC00083709927892B09F091CF8885282F30E0C2
:103AD0002F5F3F4F359527959E81290F2E83853087
:103AE00008F084CF8F5F888781CF8D818F5F8D8332
:103AF0008985815089877ACFFC01DB0190919F01F4
:103B000090958091A00198231C968C911C978823F6
:103B100039F093FF0BC040E067E0CD010C943C1CF2
:103B200092FF04C0948181E0982794830895CF92F6
:103B3000DF92EF92FF92CF93DF930E941C1C8115BE
:103B400020E8920741F4DF91CF91FF90EF90DF9052
:103B5000CF900C94301C21E020939301813020E819
:103B6000920751F480919101909192019093950167
:103B7000809394010E941C1C97FD05C02091900128
:103B8000222309F45BC020918F01211157C021E04D
:103B900020939701EC01DF77209709F052C081E074
:103BA0008093980146983FE9C32E3FE0D32EE12C45
:103BB000F12CCAEFD0E0E0919D01F0919E010995B2
:103BC000811103C081E0809398018091970188233F
:103BD00029F080919801882309F446C047980E94F3
:103BE0001C1C009709F444C09C01DE010E9488322D
:103BF000DC01CB0129E0B595A795979587952A9586
:103C0000D1F7109290002AE020939100D092990071
:103C1000C09298008093990190939A01A0939B0180
:103C2000B0939C0180917100826080937100DF915C
:103C3000CF91FF90EF90DF90CF9008951092970171
:103C4000A9CF9E0150E040E060E472E48FE090E094
:103C50000E94343269017A0181E0C81AD108E10872
:103C6000F10810929801A7CF4699B8CF479AB7CFDD
:103C70008FEF9FEFDC01C5CF9C01E1E7F0E0908181
:103C80009D7F908381E080939601309395012093EE
:103C9000940130939201209391010C94971DFB01A4
:103CA000DC0118961C9218971A961C92108617829F
:103CB000168215821482138212821586148686E576
:103CC0009AE190939E0180939D0188E295E20C9485
:103CD0003C1E0F931F93CF93DF938C01EB0140E0C9
:103CE00060E080E20E94431A8AE0F801878F8D81AC
:103CF0009E8106979E838D8384E6858F8D819E812C
:103D0000181619068CF08C818F5F8C838AEF9AE1EC
:103D10000E943C1E8C81833038F481E990E09E83C0
:103D20008D8388ECF801868FDF91CF911F910F91E1
:103D30000895089540E054E06FEF70E08EEA91E05E
:103D40000C94DF32CF93C82F0E945C17CC2321F054
:103D5000C23029F0CF910895CF910C949A1E40E87B
:103D600051E06FEF70E08EEA91E0CF910C94DF327A
:103D70002F923F924F925F926F927F928F929F927B
:103D8000AF92BF92CF92DF92EF920F931F93CF9398
:103D9000DF93CDB7DEB729970FB6F894DEBF0FBE1D
:103DA000CDBF6C014B01B12CA12CD60153968C9147
:103DB0005397F501E80FF11D87FDFA95CF01D996CC
:103DC0002C91D997222331F054962D913C912E17A6
:103DD0003F0751F0E12C00E020E232E240E253E202
:103DE00070E060E00E948519D601D9968C91D99730
:103DF000882369F0E12C00E02EE130E24EE151E24F
:103E000070E060E054968D919C910E948519B0E419
:103E1000AB0EB11CA114E1E0BE0639F6B12CA12C09
:103E2000D60156968C91E12C00E02CED3FE14CEF51
:103E30005FE164E170E0F501E80FF11D87FDFA959F
:103E4000CF010E948519F0E1AF0EB11C20EAA21645
:103E5000B10431F7D4011596AD90BC90F601158DE3
:103E600028E03BE146E55BE170E060E089E590E059
:103E70000E948519112301F1C50165E070E00E94DF
:103E8000C5323B01AE2CB12CA614B704C4F4FEE538
:103E9000AF0EB11C03E010E020E8A216B10424F438
:103EA000B801C5010E946C170F5F1F4F0B30110541
:103EB00099F7E394E394E6CFC4010E94441BD60132
:103EC0005E968C9161E0882329F06EE10E94973222
:103ED000682F6170C4010E94FC19B12CA12CF6015D
:103EE000878920E04AEC5FE168E270E0D501A80F25
:103EF000B11D87FDBA95CD010E947519F601808D1F
:103F000020E04AEC5FE165E370E0D501A80FB11D48
:103F100087FDBA95CD010E947519B0E2AB0EB11CB8
:103F2000E0EAAE16B104D9F680E1682E712C10E0FB
:103F30001601F9E32F0E311C2E012AE0420E511C0E
:103F4000D60152968C9152978823E1F050968C912D
:103F50005097811317C05C960C91B301625F7F4F3D
:103F600081E090E0112311F090E080E0680F791F6C
:103F7000E02E28E83FE148EA5FE1F6018685978573
:103F80000E9485195601F4E2AF0EB11C2A143B04BD
:103F9000E1F0D50115968C911597882391F0129632
:103FA0008C91129781130DC013960C911397E02EEC
:103FB0002EE13EE142ED5EE1B3018D919C910E94C4
:103FC0008519B7E0AB0EB11CE1CFF601678180E047
:103FD0006F3020F082E06C3108F481E0811353C02F
:103FE000D6011996EC901997EE2091F0EA940E2DD7
:103FF000000F062E000C770B15968C91815026EA47
:104000003BE148E75CE1082E000C990B0E94851902
:1040100020E0F60147816581C6010E94AF1989E061
:10402000E5E0F1E0DE01119601900D928A95E1F74D
:104030009E012F5F3F4F5901D501EC91EC0DFD2DF5
:10404000F11DE184EE20C9F0EA940E2D000F1296C6
:104050006C911297F6018781680F062E000C770B82
:10406000858111969C91890F26EA3BE148E75CE146
:10407000082E000C990B0E948519F3E0AF0EB11CBD
:104080004A145B04C9F61F5F2DE0620E711C1330E9
:1040900009F056CFB401C6010E948C1BD4011D96B5
:1040A0008C9181111AC082E029960FB6F894DEBF78
:1040B0000FBECDBFDF91CF911F910F91EF90DF9099
:1040C000CF90BF90AF909F908F907F906F905F90B8
:1040D0004F903F902F900C94A21E81E0E5CFCF929D
:1040E000DF92EF920F93CF93DF93EC016B0120E00F
:1040F00041E00E94B51B8E81843658F40B85E02E7A
:104100002BE23CE04DE25DE06AE270E090E00E946C
:104110008519E12C00E029E03CE049E15CE06CE13C
:1041200070E088E690E00E948519F601258547E455
:104130005BE066E270E088E690E00E9475190E94FC
:1041400095192A854FE16D81CE010E94AF19F601C4
:104150008585DF91CF910F91EF90DF90CF900C94F8
:10416000A21EEF92FF921F93CF93DF9300D000D057
:1041700000D0CDB7DEB766E489E790E00E94223236
:1041800060E58AE790E00E9422328BE7E82EF12C6E
:1041900011E41A8219821E821D821B831C831D83D7
:1041A00046E050E0B701CE0101960E9412321F5F37
:1041B00086E0E80EF11C8DE8E816F10451F726962A
:1041C0000FB6F894DEBF0FBECDBFDF91CF911F9128
:1041D000FF90EF900895CF92DF92EF920F93CF93DD
:1041E0006C0121E040E00E94B51B0E949519E12C72
:1041F00000E026E439E24FEF5AE261E070E081E24C
:1042000090E00E948519F60126814CE259E26DE0AA
:1042100070E08AE290E00E946519F601268142E191
:1042200059E26DE070E086E390E00E946519F601C6
:1042300026814EEF58E26DE070E08FE390E00E943F
:104240006519F601268144EE58E26DE070E087E4DE
:1042500090E00E946519F60126814AEC58E26DE073
:1042600070E08FE490E00E946519F6018781883C38
:1042700049F420E040E758E264E370E08BE290E02C
:104280000E947519F601C085C695C695C13049F1E1
:10429000D8F0C23089F1C330C1F1F601828588239C
:1042A00051F0C13009F445C0C8F1C23009F44FC023
:1042B000C33009F455C00E945C17CF910F91EF9065
:1042C000DF90CF900C949A1EE12C00E02EE238E2B1
:1042D0004EE458E26EE070E090E080E00E948519C4
:1042E000DCCFE12C00E02CEE37E24CE058E26EE04F
:1042F00070E080E790E0F2CFE12C00E02EE238E2BF
:104300004EE458E26FE170E0E7CFE12C00E02CEEE4
:1043100037E24CE058E26FE170E0EBCFE12C00E0D7
:1043200022E437E246E957E263E070E082E190E0A0
:104330000BC0EE24E39401E022E437E246E957E2C1
:1043400063E070E08BE590E00E948519B4CFE12C2A
:1043500000E02CEB36E24EEF56E260E170E0E6CF93
:10436000E12C00E02EE136E24CE656E260E170E03E
:1043700087E490E0E9CF8F929F92AF92BF92CF9265
:10438000DF92EF920F931F93CF93DF93EC015B01CA
:1043900020E041E00E94B51B8FA561E0882321F059
:1043A0008CA9833008F460E0C5010E94FC19E12C5F
:1043B00000E028E03BE146E55BE170E060E089E594
:1043C00090E00E948519C5010E94441B8BA566E000
:1043D0000E949732082F89A5E02E24ED38E146EDA2
:1043E00059E16AE270E090E00E9485190E949519F7
:1043F0006E0185E0C80ED11C4E01E9E28E0E911CC3
:1044000013E08C149D0409F457C0F60187818823BA
:1044100009F44EC08581833070F5868104E08111F6
:1044200001C00481F601618170E08081E02E22EDFF
:1044300036E142ED57E190E00E948519F601868150
:104440008230C8F086958695612F0E949732092F99
:10445000000FF5018585813009F40F5FF601618158
:104460006550770B8081E92E24E636E148E856E175
:1044700090E00E948519F601E580EE20C9F0EA94EB
:1044800001E0F5018585813009F000E08E2D880F6F
:10449000080FF6016181062E000C770B808126EA59
:1044A0003BE148E75CE1082E000C990B0E9485195E
:1044B000F9E0CF0ED11CA5CF8DA99EA98B34910513
:1044C000A0F5E8AD84E0E89FF0011124E25EFE4F24
:1044D0006181062E000C770B8081E12C00E022E246
:1044E00036E142E456E1082E000C990B0E94851932
:1044F0008DA99EA96EE170E00E94B1320F97A8F4D9
:10450000E8AD84E0E89FF0011124E25EFE4F638194
:10451000062E000C770B82812EEF35E14FE056E13D
:10452000082E000C990B0E9485198FA58823E1F0B5
:104530008AA987FD19C09CA99430B0F4859566E0DE
:104540000E94A332943009F444C0953009F491E0FC
:104550006EA570E08DA5E92E092F2CE434E144E22C
:1045600055E190E00E94851920E04FE160E6CE0120
:104570000E94AF19ECA8EE20C9F0F50184818330C8
:10458000A8F4EA9401E09585913009F000E09E2DB1
:10459000990F090F8130F9F08EE326EA3BE148E7F5
:1045A0005CE161E070E090E00E948519B501CE0108
:1045B0000E948C1BF5018585DF91CF911F910F9192
:1045C000EF90DF90CF90BF90AF909F908F900C9422
:1045D000A21E92E0BDCF8BE4E0CF2F923F924F928C
:1045E0005F926F927F928F929F92AF92BF92CF9283
:1045F000DF92EF92FF920F931F93CF93DF9300D040
:1046000000D000D0CDB7DEB75C016090AC017090F7
:10461000AD0121E040E00E94B51BE12C00E027E065
:1046200032E141E952E163E070E08EE190E00E9406
:10463000851921E23FE043E950E160E170E08CE15F
:1046400090E00E948519750106E110E0CE01019607
:104650002C0147019BE0890E911C54E2C52ED12C00
:10466000F40121914F012F3309F485C020544BE808
:104670005EE0B801C6010E947519F6E0CF0ED11CAC
:1046800036E3C316D10461F74E0187E0880E911C12
:1046900041E4C42ED12C1401F20136E011923A9576
:1046A000E9F7F70181859285F2016AE070E00E94E6
:1046B000B1328193CB012E163F06B9F7F401229156
:1046C0004F01255E4BE85EE0B801C6010E947519F6
:1046D000F5E0CF0ED11C3FE5C316D104E9F6075F24
:1046E0001F4F86E0E80EF11C0133110509F0B1CF30
:1046F000F50105810F3F09F466C0C30168E370E06E
:104700000E94B1328D3108F45EC086E0089F20011E
:104710001124FBE04F0E511C39E0039F800111244E
:10472000380195E1690E711CF501E680E89E700183
:1047300011246701F3E2CF0ED11C39E2E30EF11C24
:10474000035E1F4FCE14DF04E1F04301C8010134C2
:10475000110514F080E490E08816990674F480E85E
:10476000C816D10424F4B401C6010E946C179FEF4F
:10477000891A990AEBCF20E07ACFEFEFCE1ADE0A42
:10478000E1CFF50186814A0C5B1CF201E80FF11DB7
:1047900020812F3309F445C02054F5016581F9E0EB
:1047A0006F9FB00111246A5E7F4F36E0839FC00186
:1047B00011243BEFC32EE12C10E000E04BE85EE05B
:1047C00084960E94E8170E949519F50185818F3F14
:1047D00061F48085811109C020E041E35EE064E37B
:1047E00070E08BE290E00E9475190E945C1726969B
:1047F0000FB6F894DEBF0FBECDBFDF91CF911F91F2
:104800000F91FF90EF90DF90CF90BF90AF909F906F
:104810008F907F906F905F904F903F902F900C946F
:104820009A1E20E0BACF3F924F925F926F927F9292
:104830008F929F92AF92BF92CF92DF92EF92FF92B0
:104840000F931F93CF93DF93EC018B017090A00126
:104850008F8D882341F081508F8F811104C040E0FB
:1048600060E00E94431A8C818111BFC0E091AC01CD
:10487000F091AD01CF0187709927892B31F48C8D90
:104880008F5F843009F4E0C08C8FD80114968C912E
:10489000833040F4898D9A8D181619061CF40197FF
:1048A0009A8F898F8D8D882311F081508D8F8E8DF9
:1048B000882311F081508E8FE98CFA8CC70160E853
:1048C0007CE00E94C5320996439770F5D80117968F
:1048D0002D913C9118974AE0429FC001439F900D53
:1048E000112420E931E0281B390B39A328A317969E
:1048F0008D919C9165E0689FA001699F500D1124E6
:1049000088EC90E0841B950B9BA38AA3253B310583
:1049100020F024EB30E039A328A38536910520F060
:1049200084E690E09BA38AA32D813E81D801149652
:104930008C911497833008F48DC02938BFEF3B0762
:104940000CF484C0CF0165E070E00E94B1322250C7
:104950003109892B09F48AC02091AC013091AD0155
:1049600020FD1EC08B898150803C09F446C38B8B8F
:1049700049AD442329F08C899D8901979D8B8C8BAF
:10498000898D9A8D892B61F441110AC081E089AF2C
:104990008B89082E000C990B80549F4F9D8B8C8B1C
:1049A000C90163E070E00E94B132823031F08E893B
:1049B0008150803F09F423C38E8BC90183709927EE
:1049C000833031F08F898250813E0CF41AC38F8B73
:1049D000C90165E070E00E94B132833030F4888D07
:1049E0008350813E0CF40FC3888F8091AC0190916D
:1049F000AD0166E070E00E94B132892B81F4FE01C6
:104A00009E012C5F3F4F8185882329F08F5F863080
:104A100009F4FBC2818731962E173F07A1F7B80131
:104A2000CE01DF91CF911F910F91FF90EF90DF901A
:104A3000CF90BF90AF909F908F907F906F905F903E
:104A40004F903F900C947C1D1C8E1FCF81E0F8018D
:104A5000848782CF37FF0DC0CF0165E070E00E94F0
:104A6000B132892B09F078CF2E5F3F4F3E832D83E3
:104A700073CFEF2891F4283C310574F317968D918C
:104A80009C911897019618969C938E93179745E0E2
:104A900064E0C8010E943C1C5FCF5E0124E2A20ECC
:104AA000B11C75014E0149E3840E911CD5018A1693
:104AB0009B0629F016961C9216971796F8CF76FE4D
:104AC00008C08D819E81181619061CF401979E83DB
:104AD0008D83CF0163E070E00E94B1328230E9F152
:104AE00075FE3BC0CD80DE80B6E4CB16D104ACF5BC
:104AF000EFEFCE1ADE0A4F81B601CE010E94831776
:104B0000682EFFEF8F1709F411C18C8581110AC03F
:104B100081E08C87B801CE010E94691E88EE9AE17F
:104B20000E943C1E8D819E814F96262D30E0FE0115
:104B300047E0649EE00DF11D112495A384A3833EFC
:104B40009F4F0CF411A687E0829FF001839FF00D28
:104B50001124EC0FFD1F81E082A7B72DB071CB2E81
:104B600074FE1CC08F818830C8F0DD24DA94D80E22
:104B70006D817E814D2DCE010E9483178F3F09F4F8
:104B8000D8C0898581110AC081E08987B801CE012A
:104B90000E94691E88EE9AE10E943C1E8D8581115B
:104BA0001DC0C11018C0DF80DA946D817E814D2D4B
:104BB000CE010E9483178F3F09F4BEC08985811101
:104BC0000AC081E08987B801CE010E94691E88EE83
:104BD0009AE10E943C1ECE010E948E1A77FE1CC0F4
:104BE0008F818132C8F4DD24D394D80E6D817E810B
:104BF0004D2DCE010E9483178F3F09F49FC08A85F7
:104C000081110AC081E08A87B801CE010E94691E25
:104C100088EE9AE10E943C1ECD84E1E0CE121CC0D9
:104C200077FC17C0DF80D3946D817E814D2DCE013E
:104C30000E9483178F3F09F485C08A85811109C0BE
:104C4000CA86B801CE010E94691E88EE9AE10E94D0
:104C50003C1ECE010E948E1A898D9A8D8D32914014
:104C60000CF479C0650122E0422E512C612C712C8C
:104C7000332433948C149D0409F46DC0D601159629
:104C80008C91811164C00E949C312CEA30E040E09C
:104C900050E00E943432DC01CB0180589F4FAF4F6F
:104CA000BF4FF60191838083833E9F4F1CF4D60152
:104CB00015961C920E949C3123E030E040E050E0C9
:104CC0000E943432F60162830E949C31A30192015A
:104CD0000E943432D60113966C930E949C31A3013A
:104CE00092010E9434326E5F7F4F8F4F9F4FF601CB
:104CF00064833582328140815181F50120E08E1636
:104D00009F0611F18581882379F0828138130CC0C8
:104D100080819181841B950B97FF03C091958195AC
:104D20009109C3970CF42F5F3796E9CFDE82CD82CD
:104D300014CFDF821D8632CFDF824DCFDF8281E04C
:104D40008D876ACFDF8285CF213009F09CCFF7E0D5
:104D5000CF0ED11C8FCF8989298D3A8D2D323140CC
:104D60001CF0882309F4A8C08150898B8091AC0184
:104D70009091AD0163E070E00E94B132823009F49D
:104D80004FC08A89882309F44BC08E859F8501977F
:104D90009F878E87089671F41A8A0E949C312AE5B3
:104DA00030E040E050E00E943432665F7F4F8F4F2A
:104DB0009F4F698B6E857F8528894D815E818F81AC
:104DC000FB0138964E175F075CF5415E5F4F641735
:104DD000750734F5BEE02B9F9001112490E0BC01D3
:104DE0006B5E7F4FA9014D5D5F4F64177507C4F47B
:104DF000255E3F4F4F962817390794F440E060E254
:104E000080E00E94431A8AE08F8FF80182819381AB
:104E10000296938382831A8A8AED9AE10E943C1E4D
:104E20009EE0D92ECC24C3948E149F0409F061C057
:104E300087E0F82EFE0150E040E0E42EDE0170E055
:104E400060E0E61609F4CAC081A5882309F4C6C04B
:104E500099968C919997882309F4C0C096969C9155
:104E6000969786A19813BAC0A4A0B5A094962D9148
:104E70003C9195976501C21AD30AD7FE03C0D1941D
:104E8000C194D1088FE1C816D1040CF0A7C02A152F
:104E90003B050CF093C0215E3F4FF49EF001F59E60
:104EA000F00D1124EC0FFD1F35A324A3233E3F4F2B
:104EB0000CF0C0CF11A6BECF8A89811157CF0E94B6
:104EC0009C3124ED30E040E050E00E9434326058E4
:104ED0007F4F8F4F9F4F7F876E870E949C3123E0CB
:104EE00030E040E050E00E943432688B81E08A8BF1
:104EF0003DCFD70115968C911597882309F457C09B
:104F000016968C911697811152C012964C91129759
:104F10002D913C916F818D819E81FC01B0962E1761
:104F20003F07C4F4D90112963297EA17FB0794F4AD
:104F300070E04D9DA0011124DA015B96FB017F9684
:104F4000AE17BF073CF46B5E7F4F4B5D5F4F64173E
:104F50007507C4F0F701648170E08091AC01909115
:104F6000AD010E94B132892B31F582E090E0281B1F
:104F7000390BD7012D933C93233E3F4FC4F4F701E7
:104F8000158215C04F96D7018D939C93833E9F4FFA
:104F900014F4F70115828C85811109C0CC86B80103
:104FA000CE010E94691E88EE9AE10E943C1EF7E045
:104FB000EF0EF11C39CF81E090E0D9CFC5014F96BB
:104FC000F69EF001F79EF00D1124EC0FFD1F95A346
:104FD00084A3833E9F4F0CF46DCF2CCF6F5F7F4F28
:104FE00017966330710509F02CCF4F5F5F4F3796EE
:104FF0004330510509F021CFAFCC1B8AB9CC1E8AB2
:10500000DCCC1F8AE5CC188EF0CC118604CD2F9213
:105010003F924F925F926F927F928F929F92AF9248
:10502000BF92CF92DF92EF92FF920F931F93CF9395
:10503000DF9300D01F92CDB7DEB79B838A838B01AD
:105040008090A0018982DC01D9968C91D997882320
:1050500049F08150D9968C93811104C040E060E002
:105060000E94431AEA81FB818481811182C37F01FE
:10507000F9E2EF0EF11C8091AC019091AD0165E079
:1050800070E00E94B132892B09F03EC1AA81BB8138
:1050900099968C9199976D01B5E0CB0ED11C52E396
:1050A000A52E63E0462E7BE2372EE2E06E2E222410
:1050B0002A948C5E882E912CBB24B394FAE05F2E48
:1050C000AAEF7A2ECE14DF0409F41EC1F6018781FF
:1050D000882309F4F6C08081863679F5D8011296C6
:1050E0008D919C911397059613969C938E9312978E
:1050F00040E060E280E00E94431A8EE394E10E9467
:105100003C1EEA81FB8151AED60116968C91169712
:105110008111A4C013969C9113979F5F13969C9343
:10512000D60113962C9113972B3409F09AC013963D
:105130001C92139717961C92C4C02381885F90E03D
:105140008819990997FF03C09195819591092A3093
:1051500021F0203211F0263329F48B30A8F6F60125
:10516000B086D2CF2B3029F0213219F0273309F045
:1051700072C0D60118969C911897911137C08B3048
:10518000A8F11696BC92F80184818F5F848340E079
:1051900060E080E20E94431A80E394E10E943C1E9A
:1051A000AA81BB81D9965C92D8011496EC91E33028
:1051B00008F0AACFD6018C918C3320F58732A8F560
:1051C000823108F4A1CFAA81BB81D0961C92D097DE
:1051D0009F96BC929F97D2967C92D297E150FF0BFC
:1051E000EA50FC4EE491D196EC938ECF213269F1D6
:1051F000273371F12B3009F087CF8AE294E10E94C6
:105200003C1E82CF813808F07FCFAA81BB81D09627
:105210006C92D0979F96BC929F97D2967C92D29791
:10522000E150FF0BEE55FC4EDDCFAA81BB81D0963D
:10523000BC92D0979F96BC929F97D2967C92D29721
:10524000E150FF0BE053FC4ECDCF84E294E1D7CF89
:105250008EE194E1D4CFF601108656CFF601238279
:105260005FCF823009F447C038F4882359F0813089
:1052700009F43AC0D6015ECF8D33E0F78F5FF601B7
:1052800086831FC0822F90E02B30F8F41296EC91A9
:105290001297F0E0EE0FFF1FE85EFE4F2081318194
:1052A000880F991FF901E80FF91F45915491F601F4
:1052B0004083FC013196E20FF31F85919491119682
:1052C0008C93B9E0CB0ED11CFDCE880F991F895F5E
:1052D0009C4EFC0125913491F6012083FC0131960E
:1052E00085919491D601EBCFF60180818F5F808309
:1052F00031826682E6CF8C918F5F8C931196AC924F
:10530000119716964C92DDCFF801B480F2E0FB15B0
:1053100098F4EA81FB81359681E0EE15FF0561F096
:105320009781992339F09681911104C0958191114B
:1053300001C085833996F1CF8091AC019091AD0188
:105340006FE070E00E94B132892B91F4EA81FB8119
:105350003596EE16FF0661F08781882329F0848157
:105360008F5F883019F084833996F3CF1482FCCF95
:10537000AA81BB81DA968C91DA9781113FC0D596CC
:105380008D919C9101978E3FBFEF9B0720F4EA819E
:10539000FB8196AB85ABAA81BB81D5968D919C9103
:1053A000892B61F5F801C280D38063E070E0F8EEEC
:1053B000CF16F3E0DF0650F488EE93E08C199D09D8
:1053C0006AEF70E00E94B1326D5F7F4FEA81FB812E
:1053D00035964CE250E0A6E1B0E0EE16FF0609F08B
:1053E00089C0EA81FB8190E080E02485222309F4D2
:1053F00000C20196399684309105B9F7898086FEFE
:105400000FC0AA81BB819A968C919A97811108C08E
:1054100099968C919997833118F082E09C968C93A1
:10542000898085FE0FC0AA81BB819A968C919A973C
:10543000811108C099968C9199978C3318F483E068
:105440009C968C938091AC019091AD0180FD1DC024
:10545000AA81BB819A96EC919A979C962C912230C6
:1054600009F4E7C0233009F4F6C0EA81FB8123A5E3
:105470002F5F2C3009F401C123A7EA81FB8122A50B
:10548000253019F412A624E024A766E070E00E94FB
:10549000B132892B09F05BC1AA81BB819F968C91A7
:1054A0009F97882309F41AC1D2968C91D2978F5F67
:1054B000D2968C93D297482F082E000C550BD1967C
:1054C0002C91D19730E087FD0DC04217530754F45B
:1054D000D0968C91813009F414C108F4D3C0823085
:1054E00009F420C14217530709F0DFC0EA81FB81AC
:1054F00017A6DBC08781882339F12381263109F47F
:105500007DCF2C3209F47ACF30E0CA01821B930B95
:1055100097FF03C09195819591094D01821A930AD5
:10552000940197FE03C0319521953109022E000C9C
:10553000330B261737070CF461CF082E000C990B9C
:10554000861797070CF45ACF399647CF2CEDC21621
:1055500025E0D20608F050C04601969487948CED61
:1055600095E088199909E5E0F0E0BF010E94B132A9
:105570009B018EEEC81682E0D80608F03FC08EEE82
:1055800092E088199909BF010E94B1324901B12CFA
:10559000A12C2B01712C612C481459046A047B0442
:1055A00084F584189508A608B70841F00E949C313C
:1055B000A50194010E9434324B015C01480C591C36
:1055C0006A1C7B1CAA81BB81D6965C924E92D597B1
:1055D000F8018281938185319105C8F08997E0F4C3
:1055E0000E949C3122E030E040E050E00E943432E2
:1055F000EA81FB8160AF02CF26E930E06BE470E026
:10560000C5CFF6E94F2E512C612C712CDBCFAA812E
:10561000BB81D8961C92F2CE0E949C3123E030E0F0
:1056200040E050E00E943432AA81BB81D8966C934E
:10563000E5CEAA81BB8199962C91999731E03E0FD6
:105640009A963C939A97F0E0E356FC4EE4912E1B19
:1056500099962C930ACFAA81BB8199962C91999700
:1056600031E03E0F9A963C939A97F0E0E356FC4E59
:10567000E491E20F9996EC93F8CEAA81BB819B96B8
:105680001C92FBCECA010196880F991FFC01EA50BB
:10569000FC4EE491AA81BB819D96EC939D97FC0101
:1056A000E950FC4EE4919E96EC93241B350B283078
:1056B00031050CF048C0AA81BB81D4968C91D49757
:1056C0008F5FD4968C93D497883041F49F961C9228
:1056D0009F97D2961C92D297D4961C92EA81FB8116
:1056E0003596EE15FF0599F18781882341F0858174
:1056F000882329F08F5F8583863009F417823996D5
:10570000F0CFCA010196880F991FFC01E053FC4EAF
:10571000E491AA81BB819D96EC939D97FC01EF5289
:10572000FC4EC0CFCA010196880F991FFC01EE55AF
:10573000FC4EE491AA81BB819D96EC939D97FC0160
:10574000ED55FC4EAFCFEA81FB8114AAC7CFD8013B
:1057500014968C91833068F08A819B810596E816B7
:10576000F90609F483C00996FC01329720812223AF
:10577000B1F3F801228133818285938582179307E3
:1057800028F481E0AA81BB81DA968C93EA81FB81BF
:1057900082AD882379F0CF010596AF01475D5F4F59
:1057A0008417950709F467C00996FC013297208198
:1057B0002223B1F3B8018A819B810F900F900F9043
:1057C000DF91CF911F910F91FF90EF90DF90CF90DD
:1057D000BF90AF909F908F907F906F905F904F9011
:1057E0003F902F900C947C1D81E0D8011C968C93E7
:1057F000E1CFAA81BB81D896EC9129E0289FD00106
:10580000299FB00D11248A809B80A80DB91D81E0CD
:105810001C968C931C9718961C9218971B961C929A
:105820001B971A961C921A971796EC931797F0E00D
:10583000EE0FFF1FE85EFE4F80819181FC012591F4
:10584000349115962C931597FC013196859194917E
:1058500016968C9392E0992E9B1408F077CE8FEFDA
:105860009FEFEA81FB8196AB85ABC8CD81E0D80183
:105870001C968C937ECFEA81FB8181A5D801199675
:105880008C93199717968D919C911897019618965D
:105890009C938E93179714968C91833008F0A4CF25
:1058A00046E063E0C8010E943C1C84CFCF93DF93A5
:1058B000EC0146E050E06BE770E00E94F43146E016
:1058C00050E061E870E0CE0106960E94F43146E0B7
:1058D00050E067E870E0CE010C96DF91CF910C9418
:1058E000F431CF92DF92EF92FF920F931F93CF93F9
:1058F000DF93EC01FB011091A0012D812F3F09F4F2
:10590000A2C08091AC019091AD016CE070E00E946A
:10591000B132892B09F07CC014FF20C0CE0136E0E3
:10592000239F800D911D11240B96EE81E80FF92F16
:10593000F11D20812F5F2083EE81E80FF92FF11DEB
:1059400020812B3514F021E42083EE81E80FF92F1C
:10595000F11D8081803411F481E4808317FF19C028
:105960008D81AE01E6E08E9F400D511D1124CA01CC
:105970000B96EE81E80FF92FF11D20812150208335
:10598000EE81E80FF92FF11D8081813414F48AE54E
:10599000808316FF05C08E81882311F081508E838D
:1059A00015FF05C08E81823010F48F5F8E8313FF48
:1059B0002FC08D81FE0126E0829FE00DF11D112494
:1059C0003B9680818F3321F181818F3309F1828170
:1059D0008F33F1F07F0182E0C82ED12C06E0F70171
:1059E00061917F018D819601809F200D311D1124D1
:1059F000C90185589F4F0E9422323FEFC31AD30A34
:105A000045E0C416D10459F78FEF8D8384E688876B
:105A10009F811076103609F03EC09F5F9F839531BD
:105A200020F09D33F8F09D3349F18885882311F0EB
:105A300081508887DF91CF911F910F91FF90EF9058
:105A4000DF90CF90089590919F01909591239C7045
:105A5000F9F288858111DCCF40E062E0CF010E943D
:105A60003C1CD6CF20E430E0F901E91BF109CF015D
:105A700040E060E0880F0E94431AD7CF1F8240E0C9
:105A800060E080E00E94431A0E94B120CE01099696
:105A90000E94562CCACF992341F240E060E080E09A
:105AA0000E94431A1F82C1CF9F92AF92BF92CF92A2
:105AB000DF92EF92FF920F931F93CF93DF9300D06B
:105AC00000D000D0CDB7DEB77C01FC011682178272
:105AD00084E68087FB01C280D380C114D104B9F071
