:100000000C949D1C0C94C51C0C94C51C0C94C51C14
:100010000C94C51C0C94C51C0C94C51C0C94C51CDC
:100020000C94C51C0C94C51C0C94C51C0C94C51CCC
:100030000C94C51C0C94C51C0C94C51C0C94C51CBC
:100040000C94C51C0C94C51C0C94C51C0C94C51CAC
:100050000C94C51C0C94C51C0C94C51C0C943A251E
:100060000C94C51C0C94C51C0C94C51C0C94C51C8C
:100070000C94C51C0C94C51C0C94C51C0C94C51C7C
:100080000C9484250C94C51C0C94C51C0C94C51CA4
:100090000C94C51C0C94C51C0C94C51C0C94C51C5C
:1000A0000C94C51C0C94C51C0C94C51C09100000B4
:1000B00000003838447C8CFC0AFE01FF4AFEB4B4D0
:1000C000000000000000000001010607090F0407FE
:1000D00003030C10000030304878447C547C82FECE
:1000E00081FF01FFDAFE313F0A0E04040000000028
:1000F00000000000000000000000010100000000FE
:10010000000000000A10000000000000B4B44AFE25
:1001100001FF0AFE8CFC447C38380000000000001F
:1001200003030407090F06070101000000000B107C
:1001300004040A0E313FDAFE01FF81FF82FE547C87
:10014000447C4878303000000000000000000101CD
:100150000000000000000000000000000810000087
:10016000E0E01EFE81FF85FF497F3A3E0404010165
:1001700002030407020300000000000000000C0856
:1001800010102838243C547C487888F888F888F87F
:10019000A8F8447C283810100C0810102838243C8B
:1001A000547C4C7C427E417F213F2D3F467E283847
:1001B00010100C0810102838447CA8F888F888F82B
:1001C00088F84878547C243C283810100C0810100B
:1001D0002838467E2D3F213F417F427E4C7C547C17
:1001E000243C28381010101030304878B4FCA8F89F
:1001F0008CFC92FE35FF5DFF51FF0AFE02FECCFC37
:10020000D4FCB4FC48783838000000000000060632
:10021000090F121F141F101F191F203F283F243FD2
:10022000131F0C0C000000001010606090F068F8C4
:1002300050F00CFC92FE35FF5DFF51FF0AFE02FEFE
:10024000E4FC2A3E5A7E243C1818000000000101FC
:100250000D0D131F253F283F203F191F101F141F8E
:10026000121F090F0606000000000E10F8F804FC2B
:1002700002FE0AFE51FF5DFF35FF12FE2CFC28F83E
:10028000D4FC54FCA8F850500101020304070407F1
:10029000090F04070407080F0B0F090F04070303D6
:1002A000000000000E10F8F804FC02FE0AFE51FFE8
:1002B0005DFF35FF92FE6CFC48F8B4FC94FC68F8D6
:1002C00090900101020304070407090F141F080F8F
:1002D000101F161F121F090F0607010100000E1044
:1002E0005050A8F854FCD4FC28F82CFC12FE35FF22
:1002F0005DFF51FF0AFE02FE04FCF8F8000000005A
:1003000003030407090F0B0F080F04070407090F65
:1003100004070407020301010E10909068F894FC92
:10032000B4FC48F86CFC92FE35FF5DFF51FF0AFEFD
:1003300002FE04FCF8F8000001010607090F121F75
:10034000161F101F080F141F090F040704070203CC
:10035000010112100808141CAABEADBF62FE02FE05
:1003600082FECAFED1FFDDFF35FF92FE4CFC48F84D
:10037000B4FC547C28381010020205070A0F080F3D
:10038000080F04070407050705070407080F000FF7
:10039000050F010F0A0E04040000000012101010D7
:1003A0002838547C5A7EC4FC04FC84FCCAFED1FF6D
:1003B000DDFF35FF92FE8CFC90F068F8A8F85070D5
:1003C000202000000000000004040B0F040F000FA9
:1003D000010F010F040F000F0B0F040400000101B7
:1003E000000000000000121020205070A8F868F8EB
:1003F00090F08CFC92FE35FFDDFFD1FFCAFE84FC3D
:1004000004FCC4FC5A7E547C283810100000000004
:1004100000000101000004040B0F000F040F010F86
:10042000010F000F040F0B0F040400000000000078
:100430000F1000000000000010102C3CD2FE35FF11
:100440009DFF11FF0AFE02FE0CFCF0F08080000010
:1004500000000000000000000C0C030F080F010F4B
:100460000B0F000F000F080F090F060F09090B22D1
:10047000000B22000B22000B22000B22000B22009B
:100480000D20000F1E01111C01131A02151802176E
:1004900016031914031B12041D10041F0E05210C52
:1004A00005230A062508062706072904072B02004C
:1004B0002D00002FFE0131FC0133FC0235FA02371A
:1004C000FA0239FA023BF8023DF8023FF80241F81D
:1004D0000243FA0245FA0247FA0249FC024BFC03C6
:1004E0004DFE004F00005102015304015506025712
:1004F0000802590A035B0C030000050B22000B22C3
:10050000000B22000B22000B22000B22000D20000A
:100510000F1E01111C01131A0215180217160319D8
:1005200014031B12041D10041F0E05210C05230AC1
:10053000062508062706072904072B02002D0000C0
:100540002FFE0131FC0133FC0235FC0237FC033A7B
:10055000FE003C00003E0201400401420602440845
:1005600002460A03480C030000040B22000B220081
:100570000B22000B22000B22000B22000C20000D8E
:100580001E010E1C010F1A0210180211160312147C
:1005900003131204141004150E05160C05170A0691
:1005A0001808061906071A04071B02001C00001D84
:1005B000FE011EFC011FFC0220FA0221FA0322FAAE
:1005C0000323FA0024FA0025FA0026FA0027FA028B
:1005D00028FA0229FA032AFA062BFA062CFC072D20
:1005E000FC072EFE002F000030020131040132060C
:1005F00002330802340A03350C030000030B220007
:100600000B22000B22000B22000B22000B22000BFE
:1006100020000C1E010C1C010D1A020D18020E16F2
:10062000030E14030F12040F1004100E05100C0516
:10063000110A061108061206071204071302001316
:10064000000013FE0113FC0113FC0214FA0214FA59
:100650000315FA0315FA0016FA0016FA0018FA0044
:1006600018FA0019FA0019FA021AFA021AFA031B08
:10067000FA031BFA041CFA041CFA051DFC071DFCF6
:10068000071EFE001E00001F02011F0401200602BB
:10069000200802210A03210C03000002191004049F
:1006A0000A0E151F0A0E090F151F0A0E121E2A3EEA
:1006B000141C243C547C28384878A8F8507090F0DA
:1006C00050F0A0E040C020E0A0E020E040C08080EA
:1006D000000000000000000000000000000000001A
:1006E000000000000000000000000000000000000A
:1006F000000001010F0F000F020F060F020F000F85
:100700000F0F0F0830304878A8F85878243C2A3E5C
:10071000121E0D0F7A7F017F117F357F117F027EC0
:100720007C7C0F087C7C027E117F357F117F017FEE
:100730007A7F0D0F121E2A3E243C5878A8F848787C
:1007400030301910808040C020E0A0E020E040C0A0
:10075000A0E050F090F05070A8F848782838547C09
:10076000243C141C2A3E121E0A0E151F090F0A0EE5
:10077000151F0A0E04040F0F000F020F060F020FC1
:10078000000F0F0F0101000000000000000000003A
:100790000000000000000000000000000000000059
:1007A000000000000000000015180000000080801C
:1007B00040C020E010F0E8F814FC64FC82FEF2FE79
:1007C000CAFEB4FC88F870F08080000000000000D1
:1007D000000000007C7C82FE01FF00FF60FFC0FF84
:1007E00010FF11FFD8FFD3FF47FFADFF4EFF8AFF79
:1007F00032FFC9FFD6F640E0A0E040C08080000094
:1008000003030003020302030003030300030103C5
:1008100003030303010302030103020301030303B0
:100820000303010302030101171800000000000088
:100830000000808040C030F008F874FC8AFE32FE70
:10084000C1FFF9FFE5FF5AFE44FC38F8C0C00000C4
:1008500000000000000000000000C0C03CFC02FEE0
:1008600001FF00FF60FFC0FF08FF08FFECFFF9FF7A
:10087000A3FFD6FF27FFC5FF19FFE4FFEBFBA8F896
:10088000D0F020E0C0C00101020300030203000316
:100890000103000302030103020302030103010336
:1008A0000203010300030103020301030103020326
:1008B00001010000141800000000808040C030F0EA
:1008C00008F874FC8AFE32FEC1FFF9FFE5FF5AFE0C
:1008D00044FC38F8C0C000000000000000007C7C30
:1008E00082FE01FF00FF60FF80FF08FF08FFCCFFD2
:1008F000D9FF43FFA6FF47FF15FFE9FFE4FFABFB6E
:10090000D0F020E0C0C00000030300030203020394
:1009100001030203000301030303030301030203B2
:100920000103020301030103020301010000141883
:1009300000000000808040C030F008F874FC8AFE9F
:1009400032FEC1FFF9FFE5FF5AFE44FC38F8C0C093
:1009500000000000000000007C7C82FE01FF00FF20
:1009600060FF80FF08FF08FFCCFFD9FF43FFA6FF11
:1009700047FF25FFC9FFD4F753F3A0E040C08080B4
:100980000000030300030203020301030203000348
:100990000103030303030103020300030103030331
:1009A00003030103020301012018606090F068F85E
:1009B000A8F868F8A8F850F020E010F0D0F030F077
:1009C00008F884FCF2FECAFEA2FEA2FECAFEF2FEF7
:1009D00084FC08F830F050F010F020E040C040C037
:1009E0008080000000000000000000000000010105
:1009F0000203040704070407848742C324E718FF9F
:100A000002FF85FF0EFF0AFFAAFFAAFF0AFF0EFFE3
:100A100005FF02FF18FF76FF888F0C0F121F253F7E
:100A20002D3F253F2D3F121E0C0C00000000000042
:100A300000000000000000000101000101010101AF
:100A40000101010101010001010101010001020395
:100A50000303020302030203000303030000000078
:100A6000000000000000000000002018000000004E
:100A700000000000808040C040C020E010F050F036
:100A800030F008F884FCF2FECAFEA2FEA2FECAFE06
:100A9000F2FE84FC08F830F0D0F010F020E050F0C6
:100AA000A8F868F8A8F868F890F060600C0C121EBE
:100AB0002D3F253F2D3F253F121F0C0F888F76FFBE
:100AC00018FF02FF05FF0EFF0AFFAAFFAAFF0AFF99
:100AD0000EFF85FF02FF18FF24E742C38487040747
:100AE00004070407020301010000000000000000E9
:100AF00000000000000000000000030300030203E8
:100B000002030203030302030001010101010001CA
:100B100001010101010101010101000101010000C8
:100B200000000000000000000000000020186060CD
:100B300090F068F8A8F868F8A8F850F020F010F0E5
:100B4000D0F030F008F884FCF2FECAFEA2FEA2FE4D
:100B5000CAFEF2FE84FC08F830F0D0F010F020F06D
:100B600050F0A8F868F8A8F868F890F06060000005
:100B70000000010102030407040704078487C2C3BD
:100B800024E718FF02FF85FF0EFF0AFFAAFFAAFF56
:100B90000AFF0EFF85FF02FF18FF24E7C2C3040708
:100BA000040704070407020301010000000000001D
:100BB000000000000000000000000000010300032E
:100BC000010301030103010301030003010101010A
:100BD00000030103010301030103010300030103F7
:100BE0000000000000000000000000000000D5F040
:100BF0008D14A1C881CFD9F1AF20000F08E0FBE030
:100C0000FFE0FAE0FFE0FAE4FFE0EEF10F08E0EACF
:100C1000EEFFE0FAE0FFE8EAE2FFF8E3F80628C0BA
:100C20003FC03FC2B5FFA619E69977FF8F708F705E
:100C3000DDFF619E619EE1172F162B152A0528C244
:100C40003FC03FC099E619A6FB708F708FFF9E6171
:100C50009EE1FF2B152B152F2918E7E5E50505C5A6
:100C6000C56525A52565C5C50565E5E5E56565E5B4
:100C7000E5E5C5050565E5E5E5656565E5E50505C4
:100C8000FD01FFF979F9001F7FBF7E7D41557EBFD1
:100C90007F1FE07F7F7FE65EBF7F7F73E000F07F96
:100CA0007F7F66666070F00000FF00FFE9E9E9E819
:100CB000E8E8E8E9E9E9E9E9E8E8E8E9E9E9E9E9AA
:100CC000E8E8E9E9E9E9E829C929C929C9E9E9E937
:100CD000E8E8EFE0FF1920FFFFFF7FFF1F0F070786
:100CE000C323A1A141A1A323C70FFF7F7F7FFFFFE4
:100CF000938D9E8B0610181C1C1F909B9888908BC0
:100D000098071E1812839D8E11FFFFFF81000000BF
:100D10000000C7CFDF9DB9FBF3E300FCFFFFFFC37B
:100D20008181A5A5A5A7A0A0A0A0A0A7A5A2A5A5D3
:100D3000A5A5A3A0A1A2A2A5A5A7A22918FF01FD70
:100D4000050565E5E5E5650565E5E5E5650565E553
:100D5000E5E5650505C5C5E5E56565C5E5E5056543
:100D6000E5E5E5650567FF00FF0000E07F7F7FE6C2
:100D700006E67F7F7FE000E07F7F7FE0007FBFBFF0
:100D80007F70606C7CBC7C00E07F7F7FE606E6FFC6
:100D9000E0EFE8E8E9E9E929C928C929C9E9E9E86A
:100DA000E9E9E9E9E9E8E8E8E8E9E9E9E9E9E8E8B9
:100DB000E8E9E9E9E9E9E8E90608F1CEB14EB1CEA2
:100DC0001F1600FEFEFEFEFEFEFEFEFEFEFEFEFE08
:100DD000FEFEFEFEFEFEFEFEFEFEFEFEFEFEFEFE33
:100DE00000E0EFEFEFEFEFEFEFCFAFB78F0F0F2F89
:100DF0004777D74F8FCFB7AFCFEFEFEFEFEFEFE002
:100E00003F3F3F3F3F3F3F3F3F1F272100223737B4
:100E10003300222F1F3F3F3F3F3F3F3F3F3F3F6356
:100E200008050B050B070B072F2F2F2F0F0F0F0F89
:100E30004F4F0F0F0F0F0F0F0F0F0F0F0F0F0F0F42
:100E40000F0F0F0F0F0F0F0F0F0F0F0F07090800D6
:100E5000080D0D0C00080B070F0F0F0F0F0F0F0FD2
:100E60000F0F0F0F0F0F0F0F0F0F0F0F0F0F0F0F92
:100E70000F0F4F4F0F0F0F0F2F2F2F2F070B070B9A
:100E8000050B050B0F40FE7DAA55AA55AA552A054C
:100E90000A150200000B050A050A112050A00000E7
:100EA000000000002A752AB52A55AAD5AAD4AA0599
:100EB0000A0000FCF0EF50687838100000000000D5
:100EC0000000FEFEFCFC7CFE5EA646244000000006
:100ED00000FFBF5DAA55AA55AA55A854A04000001E
:100EE000FE7DAA54A854A850200000000000000B6A
:100EF000050A050A112050A00000000000000F4064
:100F0000000002150A052A55AA55AA55AA7DFE0019
:100F10000000000000A05020110A050A050B000087
:100F20000A05AAD4AAD5AA552AB52A752A0000000E
:100F3000000000001038786850EFF0FC000000005E
:100F4000402446A65EFE7CFCFCFEFE000040A05451
:100F5000A855AA55AA55AA5DBFFF000000000000D1
:100F60002050A854A854AA7DFE000000000000A054
:100F70004020010A050A050B0000000000000000E7
:100F80000000000000000080C0E0F0F8FCFCFEFE65
:100F9000FFFFFFFFFEFEFCF8F0C0C0C080000000B5
:100FA0000000000000000000000000FCFCFCFCFC55
:100FB000FCFCFCFCFCFCFCFCFEFFFFFFFFFFFFFF5A
:100FC000FFFFFFFFFFFFFFFFFFFFFFFFFFFFFFFF31
:100FD000FFFEFCFCFCFCFCFCFCFCFCFCFCFCFFFF46
:100FE000FFFFFFFFFFFFFFFFFFFFFFFFFFFFFFFF11
:100FF000FFFFFFFFFFFFFFFFFFFFFFFFFFFFFFFF01
:10100000FFFFFFFFFFFFFFFFFFFFFFFFFFFFFFFFF0
:10101000FF0F0F0F0F0F0F0F0F0F0F0F0F0F0F0FF0
:101020000F0F0F0F0F0F0F0F0F0F0F0F0F0F0F0FD0
:101030000F0F0F0F0F0F0F0F0F0F0F0F0F0F0F0FC0
:101040000F0F0F0F331C0000000000000000000015
:1010500000000000008040E010080404C222A1A1AA
:1010600041A1A222C408F0404040800000000000DE
:10107000000000000000000000FC04F414D4D4D4EC
:10108000D4D4D4D4D49C120DDECBC6D0D81C1CDF53
:10109000D0DBD808D0CBD8079ED8D243DDCED11E26
:1010A000D4D4D4D4D4D4D4D414F404FCFF00FF009A
:1010B000F0BFBFBFF606070703F0BCBFFF09FFBFC5
:1010C000BCF0007FBFBFB0BF7F0000F9BB57B7BE09
:1010D000BE7C00F0BFBFBFB6B6B1F100FF00FF0F8E
:1010E000080B0A0A0A0A0A0A0A0A0A0A0A0A0A0A61
:1010F0000A0A0A0A0A0A0A0A0A0A0A0A0A0A0A0A50
:101100000A0A0A0A0A0A0A0A0A0A0A0A0A0A0A0B3E
:10111000080FC0F0F8FCFEFEFFFFFFFFFFFFFFFF20
:10112000FFFFFFFFFFFFFFFFFFFFFFFFFFFFFFFFCF
:10113000FFFFFFFFFFFFFFFFFFFFFFFFFFFFFFFFBF
:10114000FFFFFFFFFFFFFFFFFFFFFFFFFFFFFFFFAF
:10115000FFFFFFFFFFFFFFFFFF0F3F7FFFFFFFFFCF
:10116000FFFFFFFFFFFFFFFFFFFFFFFFFFFFFFFF8F
:10117000FFFFFFFFFFFFFFFFFFFFFFFFFFFFFFFF7F
:10118000FFFFFFFFFFFFFFFFFFFFFFFFFFFFFFFF6F
:10119000FFFFFFFFFFFFFFFFFFFFFFFFFDFDFDFD67
:1011A00000E0F8FCFEFFFFFFFFFFFFFFFFFFFFFF78
:1011B000FFFFFFFFFFFFFFFFFFFFFFFFFFFFFFFF3F
:1011C000FFFFFFFFFFFFFFFFFFFFFFFFFFFFFFFF2F
:1011D000FFFFFFFFFFFFFFFFFFFFFFFFFFFFFFFF1F
:1011E000FFFFFFFB730303003F7FFFFFFFFFFFFFD6
:1011F000FFFFFFFFFFFFFFFFFFFFFFFFFFFFFFFFFF
:10120000FFFFFFFFFFFFFFFFFFFFFFFFFFFFFFFFEE
:10121000FFFFFFFFFFFFFFFFFFFFFFFFFFFFFFFFDE
:10122000FFFFFFFFFFFFFFFFFFFFF9F000000000DF
:101230000000010103030303030303030303030388
:10124000030303030303030303030303030303036E
:10125000030303030303030303030303030303035E
:10126000030303030303030303030303030303034E
:10127000030303000047220000C0F0F8F8FCFC3C28
:101280001C1C1C387C7C7C0000000000FCFCFC7CEE
:101290007CFCFCFCFC000000001CFCFCFC3CFCFC9E
:1012A000FCF8C080F0FC3CFCFCFCFCFC1C00001CBE
:1012B000FCFCFCFCFC1C1C1C7C7C7C7C00000000FE
:1012C0000F3F3F7F7FFFB0A0A0A6FE7E7E3E0E00B8
:1012D000E0B8BFBFFF0F0C0CEFBFBFBFBFB8E0004F
:1012E000E0BFBFBFE001073FFFBF7F0F01E0BFBF0F
:1012F000BFBFBFE00000E0BFBFBFBFBFA7A7A7B091
:10130000B0B0F00000000000C0F0F8F88C44646455
:10131000448CF8F8F0C0001C3CFCFCFCFCDC000039
:101320001CFCFCFC3C1C001CFCFCFCFCFCFC9C9C19
:101330009C3C3C3C3C00001CFCFCFCFCFCFC9C9CE5
:101340009CFCFCFCF8F87000000000000000001F8E
:101350002F5F5FBFBFA0A0A5BF5F5F2F1F00000072
:1013600001073FFFBFBFB8FF3F0F01000000E0BF14
:10137000BFBFBFBFBFA3A3A3B8B8B8F80000E0BF0A
:10138000BFBFBFBFBFF3030F3FFFBFBFB9B0E00098
:10139000000000000000000000000000000000004D
:1013A000000000000000000000000000000000003D
:1013B000000000000000000000000000000000002D
:1013C000000000000000000000000000000000001D
:1013D00000000000000000000000CC01B2019801F4
:1013E0007E015C012E010401D200D200AC002E016E
:1013F000080820205878247C4A7E293F121F0D0FB0
:10140000020202020D0F121F293F4A7E247C5878E7
:10141000202009080F0F313F497F517F497F527EBD
:10142000243C587820200F0F393F4D7F597F4D7F46
:10143000597F323E5C7C20200F100000000000002D
:1014400000008080F0F00CFC02FE0AFE11FF9DFF00
:1014500035FFD2FE2C3C10100000000000000909EE
:10146000060F090F080F000F000F0B0F010F080FD9
:10147000030F0C0C000030043814E6033D2C9C03D1
:1014800052031803DE02A4026A022802E6010002E7
:10149000040608090A0A0B0B0C0C0C0D0D0D0D0DA2
:1014A0000D0D0D0D0D0D0D0C0C0C0B0B0A09080686
:1014B0000402000B17040B17040B17040B17040B83
:1014C00017040B17040B170B0B170B0B170B0B1732
:1014D0000B0B170B0B170B0B17040B17040B170435
:1014E0000B17040B17040B17040B170B0B170B0B25
:1014F000170B0B170B0B170B0B170B0B17040B17FB
:10150000040B17040B17040B17040B17040B170B12
:101510000B170B0B170B0B170B0B170B0B170B0CDE
:1015200017000D17000E17010F17011017001117E4
:1015300000121701131701141700151700161701D1
:101540001717011817001917001A17011B17011C8C
:1015500017001D17001E17011F1701201700211764
:101560000022170123170124170025170026170151
:101570002717012817002917002A17012B17012CFC
:1015800017002D17002E17012F17013017003117E4
:1015900000321701331701341700351700361701D1
:1015A0003717013817003917003A17013B17013C6C
:1015B00017003D17003E17013F1701401700411764
:1015C0000042170143170144170045170046170151
:1015D0004717014817004917004A17014B17014CDC
:1015E00017004D17004E17014F17015017005117E4
:1015F00000521701531701541700551700561701D1
:101600005717015817005917005A17015B17015C4B
:1016100017005D17005E17015F1701601700611763
:101620000062170163170164170065170066170150
:101630006717016817006917006A19056B1A056CAE
:101640001B066C1B066B1E076B1F076A20026920B6
:1016500002682003672003662002652002642003DD
:101660006320026220026120036020035F20025E8B
:1016700020025D20035C20035B20025A20025920D7
:1016800003582003572002562002552003542003FC
:101690005320025220025120035020034F20024EBB
:1016A00020024D20034C20034B20024A20024920F7
:1016B000034820034720024620024520034420031C
:1016C0004320024220024120034020033F20023EEB
:1016D00020023D20033C20033B20023A2002392017
:1016E000033820033720023620023520033420033C
:1016F0003320023220023120033020032F20022E1B
:1017000020022D20032C20032B20022A2002292036
:10171000032820032720022620022520032420035B
:101720002320022220022120032020031F20021E4A
:1017300020021D20031C20031B20021A2002192056
:10174000031820031720021620021520031420037B
:1017500013220813230812240912240913270A1339
:10176000280A142A00152A00162A01172A01182A05
:1017700000192A001A2A001B2A001C2A011D2A010E
:101780001E2A001F2A00202A01212A01222A0023C2
:101790002A00242A00252A00262A01272A01282A8D
:1017A00000292A002A2A012B2A012C2A002D2A008E
:1017B0002E2A002F2A00302A01312A01322A003332
:1017C0002A00342A01352A01362A00372A00382A0D
:1017D00000392A003A2A013B2A013C2A003D2A000E
:1017E0003E2A013F2A01402A00412A00422A0043A2
:1017F0002A00442A01452A01462A00472A00482A8D
:1018000001492A014A2A004B2A004C2A004D2A008D
:101810004E2A014F2A01502A00512A00522A015310
:101820002A01542A00552A00562A00572A00582A0D
:1018300001592A015A2A005B2A005C2A015D2A010B
:101840005E2A005F2A00602A00612A00622A016382
:101850002A01642A00652A00662A01672A01682A8B
:1018600000692A006A2A006B2A006C2A016D2A018D
:101870006E2A006F2A00702A01712A01722A0073F1
:101880002A00742A00752A00762A01772A01782A0C
:1018900000792A007A2A017B2A017C2A007D2A000D
:1018A0007E2A007F2A0000000B4B02E10000001C92
:1018B000004B02380000001C002A02E10000001C5E
:1018C000004B02380000001C006E02E10000001C0A
:1018D000009302380000001C00E40252011003C310
:1018E000010000E1008801A5028801E1000080B844
:1018F000014B00EE014B0000802C000F0062000F36
:10190000000080FD056A05FB046E04B8014B00EE83
:10191000014B002A024B00100396006E0296000055
:10192000800B58000B56000B54010B52010B500258
:101930000B4E020B4C030B4A030B48040B46040BE3
:1019400044050B42050B40060B3E060B3C070B3AC9
:10195000070B38000000021719040404E4140804FB
:1019600004C262A1A141A1A222C40AF2040408088F
:101970000C1E8FE6F0783C3C3F3479F8E8F0EBF849
:10198000E7FEF8F2831D0EFEF0F3EFD8DBB7B535B6
:101990003777767A7D7D3DBBBBDBEBF3FCFC010149
:1019A0000101010101010101010101010101010127
:1019B00001010101011F1F01010202020484040848
:1019C000081010102020404080800000000000001F
:1019D000000000000000E07884B4F2F5B6FDFAF8EB
:1019E000F0E00A1AF2E2C41101C63800000000005B
:1019F0000000000000FF7E01151F9F555F5F2F272D
:101A00002720282FC35384AA5180000020D05020C3
:101A10004080000001000000000100000000000004
:101A200000000001020D112A5B2412150A03050AA9
:101A30000A05021E1F000000000000000000000058
:101A40000080804040202010101008080484040208
:101A50000202020000000000000000000038C60181
:101A600011C4E2F21A0AE0F0F8FAFDB6F5F2B48415
:101A700078000080402050D02000008051AA84537C
:101A8000C32F282027272F5F5F559F1F15017E0238
:101A9000050A0A05030A1512245B2A110D0201002A
:101AA000000000000000000001000000002C1800F1
:101AB000000080402718408001013BFFFDFFFBFB39
:101AC000F3F3F3FBFBFFFBFBFBF3F3F3FBFBFFFD8C
:101AD0000F030080304F800000000000804FB0A056
:101AE000A080808001000080010303078F4F2F2F0B
:101AF0002F5F5F2F2F4F8F0F0F0301000002018018
:101B0000808080215E8000030C0B0B0A0A0B090AFF
:101B10000B0B0B0B0B0B0B04030000000000000071
:101B2000000304090B0A0B0B0B0B0A09090B0B0B27
:101B30000B040312080E11151D001E05051E001FC3
:101B400006021F001F15110610639C639C639C18FE
:101B50002758A758270828040A35C23FC03EC100AD
:101B6000806699E619A67901028D708F708F7200D8
:101B700000619E619E619E00000000010201004E16
:101B80001007FFFFFFFFFF67F0FFFFFF8F07070052
:101B9000F0FCFEFEE3D1191951E3FEFEFCF0000754
:101BA000FFFFFFBF7FFEFCF0E7FFFFFF0700F8FC31
:101BB000FEFEFF0F0707C7CEDFDFDF0000000000DB
:101BC00007FFFFFFFFFF070007FFFFFFFFFF073EC5
:101BD0002F2F2F2F2F3E003F2F2F2F2F3E00070B91
:101BE00017172F2F2828292F17170B07003E2F2FE5
:101BF0002F3E03050B173F2F2F3F0000070B171732
:101C00002F2F2E2E2E2F170B0700000000003E2F27
:101C10002F2F2F2F3E003E2F2F2F2F2F3E00006BF8
:101C2000034A01BC020000A90172015E01000032FA
:101C3000008801D502000032004A01840300004BF5
:101C400000D2018A02D201450100007D00EE01B000
:101C50000400804120FE0105F1F1F111D1B1D11153
:101C6000F151515151515151515151515151510015
:101C700000FF00007F7F09090F06007F7F19396F81
:101C800046007F7F4949414100266F49497B320028
:101C9000266F49497B32FF0000FFFFFFFEFFFEFF7A
:101CA0000279CD95A5CD790111111101F9F9010143
:101CB0000000FF00007F7F09090F06007F7F404082
:101CC0004040007C7E0B0B7E7C00070F78780F076E
:101CD000007F7F3E1C0800FF00001F3F3F3333336F
:101CE00033333E36363E363E363E36363E36363E6A
:101CF000360000FF00003E7F41417F3E007F7F0EA7
:101D00001C7F7F00000000000000000000000000B9
:101D100000000000000000003F4050404040784676
:101D20004141595941414141595941414141414143
:101D3000414100007F000001017F7F0101007C7EA6
:101D40000B0B7E7C007F7F09090F06007F7F4949CE
:101D50004141000000000000003500003500013561
:101D60000001350001350001350001350001350065
:101D7000013500023500023500023500023500024F
:101D8000350002350002350002350001350001350D
:101D90000001350001350001350001350001350035
:101DA000013500023500023500023500023500021F
:101DB00035000235000235000235000135000135DD
:101DC0000001350001350001350001350001350005
:101DD00001350002350002350002350002350002EF
:101DE00035000235000235000235FD0135FD0135B3
:101DF000FD0135FB0135FB0135FA0135FA0135FBF3
:101E00000135FB0135FD0135FD0135FD01350001D1
:101E1000350201350401350601350801350A013561
:101E20000C01350E0135100135120135140135163E
:101E300001351801351A01351C01351E0135200107
:101E4000352201352401352601352801352A013591
:101E50002A003B2A033C2A033D2A043E2A043D2A49
:101E6000053E2A05402A06412A06432A03442A033E
:101E7000452A04462A04452A05462A05482A0649D1
:101E80002A064B2A034C2A034D2A044E2A044D2AC3
:101E9000054E2A05502A06512A06532A03542A03BE
:101EA000552A04562A04552A05562A05582A065842
:101EB0002A065A2A035B2A035C2A045D2A045C2A48
:101EC000055D2A055F2A06602A06622A03632A0343
:101ED000642A04652A04642A05652A05672A0668B7
:101EE0002A066A2A036B2A036C2A046D2A046C2AC8
:101EF000056D2A056F2A06702A06722A03732A03C3
:101F0000742A04752A04742A05752A05772A067826
:101F10002A067A2A037B2A037C2A047D2A047C2A47
:101F2000057D2A057F2A06802A06822A03832A0342
:101F3000842A04852A04842A05852A05872A068896
:101F40002A06882A06882A06882A06882A06882ACF
:101F500006882A06882A06882A06882A06882A06E3
:101F6000882A06882A06882A06882A06882A068851
:101F70002A060000024207220702079C062C0B6A71
:101F80000AA8092E09B4082808A8076C41006C416A
:101F9000006C41006C41006C41006C41006C4102DE
:101FA0006C41026C41026C41026C41026C41026C5A
:101FB00041006C41006C41006C41006C41006C417F
:101FC000006C41026C41026C41026C41026C4102A6
:101FD0006C41026C41006C41006C41006C41006C32
:101FE00041006C41006C41026C41026C41026C4149
:101FF000026C41026C41026B41006A41016941007F
:102000006841016741006641016541006441016327
:1020100041006241016141006041015F41005E4158
:10202000015D41005C41015B41005A4101594100A1
:102030005841015741005641015541005441015357
:1020400041005241015141005041014F41004E4178
:10205000014D41004C41014B41004A4101494100C1
:102060004841014741004641014541004441014387
:1020700041004241014141004041013F41003E4198
:10208000013D41003C41013B41003A4101394100E1
:1020900038410137410036410135410034410133B7
:1020A00041003241013141003041012F41002E41B8
:1020B000012D41002C41012B41002A410129410001
:1020C00028410127410026410125410024410123E7
:1020D00041002241012141002041011F41001E41D8
:1020E000011D41001C41011B41001A410119410021
:1020F0001841011741001641011541001441011317
:1021000041001241011141001041010F41000E41F7
:10211000010D41000C41010B41000A410109410040
:102120000841010741020741020741020741020736
:1021300041020741020741000741000741000741F2
:102140000007410007410007410207410207410221
:10215000074102074102074102074100074100070A
:1021600041000741000741000741000000020452FE
:1021700000045200045200045200045200045200B1
:102180000452000452000452020452020452020497
:102190005202045202045202045202045202045235
:1021A0000004520004520004520004520004520081
:1021B0000452000452000452020452020452020467
:1021C0005202045202045202045202045202045205
:1021D0000004520004520004520004520004520051
:1021E0000452000452000452020452020452020437
:1021F00052020452020452020452020452020553D3
:10220000000654010754000855010955000A5501FC
:102210000B56000C56010D57000E57010F570010BA
:10222000580111580012580113580014580115583C
:10223000001658011758001858011958001A58016B
:102240001B58001C58011D58001E58011F58002023
:1022500058012158002258012358002458012558BC
:10226000002658012758002858012958002A5801EB
:102270002B58002C58012D58002E58012F58003093
:10228000580131580032580133580034580135583C
:10229000003658013758003858013958003A58016B
:1022A0003B58003C58013D58003E58013F58004003
:1022B00058014158004258014358004458014558BC
:1022C000004658014758004858014958004A5801EB
:1022D0004B58004C58014D58004E58014F58005073
:1022E000580151580052580153580054580155583C
:1022F000005658015758005858015958005A58016B
:102300005B58005C58015D58005E58015F580060E2
:1023100058016158006258016358006458016558BB
:10232000006658016758006858016958006A5801EA
:102330006B58006C58016D58006E58016F58007052
:102340005801705802705802705802705802705844
:10235000027058027058027058027058007058008D
:102360007058007058007058007058007058007015
:102370005800705802705802705802705802705815
:10238000027058027058027058027058007058005D
:1023900070580070580070580070580070580070E5
:1023A0005800000002DC00B400DC005A00DC005AD7
:1023B00000DC00B400DC00B4001501B400DC00B4A3
:1023C000001501B400DC00B40000807D088850AC2A
:1023D00050A054A850A050A854A834B8BCBA7C78D7
:1023E000FCFAFCFEFEFEFEFEFEFCFAFCFAF4FAFC31
:1023F000FAFCFCF8FAFCFCFEF8F8FCF8F8FCFCFC33
:10240000FEFEFEFEFEFFFFFFFFFFFFFFFFFFFFFFE1
:10241000FFFFFFFFFFFFFFFFFFFEFEFEFEFEFCFED5
:10242000FCFEFCFAFCFAF4F8F4FAFCFAF8FCFCFA0C
:10243000FCFCF8F8FCF8F8F8F4FAF4EAF4F8F4F82C
:10244000FCF8FCF0F8F8F4E0B000000502010A1511
:102450002A55AA55AA508003354E7D6F15FAFFFF05
:10246000FFFFFFFFFFFFFFFFFFFFFFFFFFFFFFFF7C
:10247000FFFFFFFFFFFFFFFFFFFFFFFFFFFFFFFF6C
:10248000FFFFFFFFFFFFFFFFFFFFFFFFFFFFFFFF5C
:10249000FFFFFFFFFFFFFFFFFFFFFFFFFFFFFFFF4C
:1024A000FFFFFFFFFFFFFFFFFFFFFFFFFFFFFFFF3C
:1024B000FFFFFFFFFFFFFFFFFFFFFFFFFFFFFFFF2C
:1024C000FFFF0F0207000180408000A8548844826B
:1024D00041824182408043824182C1CBCBCBCBC37E
:1024E000C3C3C3D3D3C3DFE3CB3FBF7FFFFFFF7FB4
:1024F000BF3FCBE3DFC3C3C3C3DFE3CB3FBF7FFF3C
:10250000FFFF7FBF3FCBE3DFC3C3C3C3DFE3CB3FEB
:10251000BF7FFFFFFF7FBF3FCBE3DFC3C3E3C3DF6B
:10252000E3CB3FBF7FFFFFFF7FBF3FCBE3DFC3C3F3
:10253000C3C3C3D3C3C3FFFFFFFFFFCFC382458A1B
:1025400050A8400002012A352A352A150A2DCA1D35
:102550000A3DBA9DFAFDFEFFFFFFFFFFFFFFFFFFF1
:10256000FFFFFFFFFFFFFFFEFE25DB25FEFEFFFF57
:10257000FFFFFFFFFFFFFFFFFFFFFEFE25DB25FE46
:10258000FEFFFFFFFFFFFFFFFFFFFFFFFFFEFE2538
:10259000DB25FEFEFFFFFFFFFFFFFFFFFFFFFFFF4B
:1025A000FEFE25DB25FEFEFFFFFFFFFFFFFFFFFF17
:1025B000FFFFFFFFFFFFFFFFFFFFFFFFFEFDEA55ED
:1025C000A00000000080848E9E1A143BBCBFDFFF79
:1025D000FFFFFFFFFFFFFFFFFFFFFFFFFFFFFFFF0B
:1025E000FFFFFFFFFFFF49B649FFFFFFFFFFFFFFB0
:1025F000FFFFFFFFFFFFFFFFFF49B649FFFFFFFFA0
:10260000FFFFFFFFFFFFFFFFFFFFFFFF49B649FF8F
:10261000FFFFFFFFFFFFFFFFFFFFFFFFFFFFFF4980
:10262000B649FFFFFFFFFFFFFFFFFFFFFFFFFFFFB9
:10263000FFFFFFFFFFFFFFFFFFFFFFFFFF2A00007D
:10264000100951A957BF5FBF7FFFFFFFFFFFFFFFCB
:10265000FFFFFFFFFFFFFFFFFFFFFFFFFFFFFFFF8A
:10266000FFFFFF926D92FFFFFFFFFFFFFFFFFFFFE6
:10267000FFFFFFFFFFFF926D92FFFFFFFFFFFFFFD6
:10268000FFFFFFFFFFFFFFFFFF926D92FFFFFFFFC6
:10269000FFFFFFFFFFFFFFFFFFFFFFFF926D92FFB6
:1026A000FFFFFFFFFFFFFFFFFFFFFFFFFFFFFFFF3A
:1026B000FFFF7FAF57AF172B05030050A855AA5552
:1026C000AA55AA55BAD7FFFFFFFFFFFFFFFFFFFF85
:1026D000FFFFFFFFFFFFFFFFFFFFFFFFFFFFFFFF0A
:1026E000FFFFFFFFFFFFFFFFFFFFFFFFFFFFFFFFFA
:1026F000FFFFFFFFFFFFFFFFFFFFFFFFFFFFFFFFEA
:10270000FFFFFFFFFFFFFFFFFFFFFFFFFFFFFFFFD9
:10271000FFFFFFFFFFFFFFFFFFFFFFFFFFFFFFFFC9
:10272000FBF3F5F1FBE3DBA54393EBF5E3E5EAD13E
:10273000E2D1E040A0100000552A150A054E0F17FF
:10274000170F1717134D23FB07EFFFFFFFFFFF8F37
:102750006FB70F170B0B170F170F0F0F0F0F4F2F11
:102760000F0F0F0F0F0F0F0F2F0F0F0F0F0F0F2F39
:102770004F0F0F0F0F0F0F0F0F0F4F0F0F0F2F0FC9
:102780000F0F0F0F0F0F0F4F2F0F0F0F0F0F0F0FF9
:102790002F0F0F0F0F0F0F0F2F4F0F0F0F0F0F0FC9
:1027A0000F0F0F4F0F0F0F0F0F0F2F0F0F0F0F0FD9
:1027B0000F4B950A10000080800000ECEEEEEEEE6C
:1027C000EEEEEE9C639C63FFFFFFFFFF738C738C48
:1027D0005EAEAE4EAEEEEEDEEEF6EEDEEEEEEEEE21
:1027E000EEEEEEEEEEEEEEEEF6EEDEEEF6EEDEEE19
:1027F000EEEEEEEEEEEEEEEEEEEEEEEEF6EEDEEE01
:10280000F6EEDEEEEEEEEEEEEEEEEEEEEEEEF6EEE8
:10281000DEEEF6EEDEEEEEEEEEEEEEEEEEEEF6EEE8
:10282000DEEEF6EEDEDE86968696CE060606860698
:102830000404000A849000401FFFFFFFFFFFFFFF1A
:10284000E7D8A7D8FFFFFFFFFFFEFDFAFDFFFEFE62
:10285000FFFFFFFFFFFFFFFFFFFFFFFFFFFFFFFF88
:10286000FFFFFFFFFFFFFFFFFFFFFFFFFFFFFFFF78
:10287000FFFFFFFFFFFFFFFFFFFFFFFFFFFFFFFF68
:10288000FFFFFFFFFFFFFFFFFFFFFFFFFFFFFF7FD8
:102890007FBF5F5FBF7F7F7F7F7F3F5F3FDF3F7F88
:1028A000BF7F7F7F7F7F7F7F000051244E1E00000F
:1028B000708FFAF088B07A7FFFFFFFFFFFFFFFFF06
:1028C000FFFFFFFFFFFFFFFFFFFFFFFFFFFFFFFF18
:1028D000FFFFFFFFFFFFFFFFFFFFFFFFFFFFFFFF08
:1028E000FFFFFFFFFFFFFFFFFFFFFFFFFFFFFFFFF8
:1028F000FFFFFFFFFFFFFFFFFFFFFFFFFFFFFFFFE8
:10290000FFFFFFFFFFFFFFFFFFFFFDFAC43AC43ADE
:10291000FCFEFDFAFCFEFEFCFAFCF9FAF4EAF5F224
:10292000F4F0F8F8F010109050901010001048A536
:1029300047A7C7E7C7DEDEDEEDFDFBFBFBF7F7F7DA
:10294000F7F7F7F7F7F7FBF7EFF7FBF7F7F7F7F717
:10295000F7F7F7F7F7F7F7F7F7F7FBF7EFF7FBF707
:10296000F7F7F7F7F7F7F7F7F7F7F7F7F7FBF7EFFB
:10297000F7FBF7F7F7F7F7F7F7F7F7F7F7F7FBF7DF
:10298000EFB7E7F38D758575F5F3F7F6F7F7837D08
:1029900005FB05C5BB47474747A7B3C5F3F7FBF79B
:1029A000F7C36642424BD24242000000000002419F
:1029B000ABD5EBF7FFFFFFFFFFFFFFFFFFFFFFFFC1
:1029C000FFFFFFFFFFFFFFFFFFFFFFFFFFFFFFFF17
:1029D000FFFFFFFFFFFFFFFFFFFFFFFFFFFFFFFF07
:1029E000FFFFFFFFFFFFFFFFFFFFFFFFFFFFFFFFF7
:1029F000FFFFFFFFFFFFFFFFFFFFFFFFFFFFFFFFE7
:102A0000FFF1EED1EEFFFFFFFFFFFFFFF8F7F8EF5A
:102A1000F7EBD7AB578F178F0F0F0F0F0F0F0F005D
:102A20000000010000080000008050AA75FF7FBF71
:102A30007FFF7FFFFFFFFFFFFFFFFFFFFFFFFFFFA6
:102A4000FFFFFFFFFFFFFFFFFFFFFFFFFFFFFFFF96
:102A5000FFFFFFFFFFFFFFFFFFFFFFFFFFFFFFFF86
:102A6000FFFFFFFFFFFFFFFFFFFFFFFFFFFFFFFF76
:102A7000FFFFFFFFFFFFFFFFFFFFFFFFFFFFFFFF66
:102A8000FFFFFFFFFFFFFFFFFFFFFFFFFFFFFFFF56
:102A9000FFFFFEFFFEFDFEFDFEFCF878B04080006B
:102AA0000000000001010081408140A1506100F15F
:102AB0000CF6FAF9EAD615D12ED2A1C1E1E1E1E195
:102AC000E1E1E1E1E2E5EAD5EAD5EAD5E9D1E1E102
:102AD000E1E1E1E1E1E1E1E5D2D5EAD5EAD5EAD506
:102AE000EAD5E1D1E1C1E1E1E1E1E1E1E1E2E5E203
:102AF000D5EAD5E9D1E1D1E1E1E1E1E1E2E5E2E5E3
:102B0000EAF5EAF5E9D5E9D1E1E1E1E1E1E1E1E187
:102B1000E1E1E1E1E1E1E1E0E1C0A140800080002C
:102B20000000FCFEFFFFFFFFFEFEFEF8D7F8FFFFF0
:102B3000FFFFFFF0EFF0FFFFFFFFFFFFFFFFFFFFD3
:102B4000FFFFFFFFFFFFFFFFFFFFFFFFFFFFFFFF95
:102B5000FFFFFFFFFFFFFFFFFFFFFFFFFFFFFFFF85
:102B6000FFFFFFFFFFFFFFFFFFFFFFFFFFFFFFFF75
:102B7000FFFFFFFFFFFFFFFFFFFFFFFFFFFFFFFF65
:102B8000FFFFFFFFFFFFFFFFFFFFFFFFFFFFFFFF55
:102B9000FFFFFFFFFFFFFFFFFFFEFDFAF410033210
:102BA00000930232000B023200700332005D0132EA
:102BB0000026013200EE0132000080060836414155
:102BC00041413600000036000030494949490600BD
:102BD0004949494936060808080836064949494915
:102BE0003036494949493000010101013636494929
:102BF000494936064949494936FCFEFFFFFFFFFFB8
:102C0000FFFEFCF800010307070707070703010B96
:102C100010FC02FD8DD5D58DFD0204F800010204E3
:102C200004040404040201FC02FD8595A59DFD0237
:102C300004F8000102040404040404020112101048
:102C4000102838547CB4FC48F84CFC92FE35FFDD6B
:102C5000FFD1FFCAFE82FE02FE62FEADBFAABE1415
:102C60001C08080000000004040A0E010F050F00F4
:102C70000F080F04070507050704070407080F08D6
:102C80000F0A0F050702020C10000000001C1C2296
:102C90003ED1FF19FF51FFA2BE1C1C000000000026
:102CA0000000000000000000000F0F080F090F0EC9
:102CB0000E000000000000000000007C7C82FE127C
:102CC000FE62FE34FC08F870F020E0C0C040C08016
:102CD0008000000000000001010101010103030662
:102CE000070D0F080F06070303E0E010F008F8488F
:102CF000F8E8F810F0A0E090F0A0E090F090F0F08C
:102D0000F0000001010203020302030101000000C0
:102D10000000000000000000000000C0C020E050E3
:102D2000F0D0F04CFC0AFEE6FE313F1B1F0E0E00F9
:102D30000000000101020304070407040702030165
:102D40000100000000000000000000000000008002
:102D50008057D7A9FF81FFBFFF40C08080000000DF
:102D60000000000000000003030407080F090F081B
:102D70000F04070303000000000808141C1A1E2299
:102D80003EF4FC08F848F8D0F050F020E0C0C00055
:102D9000000000000000000000010102030407041D
:102DA000070407020301010000F0F090F090F050DA
:102DB0007090F0507088F874FC24FC04FC88F87063
:102DC0007000000000000000000000000000000192
:102DD00001010101010000000000000000808040AE
:102DE000C03CFC82FE89FF5D7F417F223E1C1C00AF
:102DF0000000000101020304070B0F060701010098
:102E00000000000000000000000510C6FEA3FF3314
:102E1000FFA3FFC6FE00003F3F303F323F3F3FF67B
:102E2000FE83FF33FF83FFFEFE00003F3F303F3F46
:102E30003F0000C6FEA3FF33FFA3FFC6FE3F3F32A5
:102E40003F303F3F3F0000F6FE83FF33FF83FFFE2E
:102E5000FE00003F3F303F3F3F00000B7440000149
:102E60000B73400A030B72400A030B71400A030BF9
:102E700070400B030B6F400B030B6E400A030B6D8E
:102E8000400A030B6C400B030B6B400B030B6A40B7
:102E90000A030B69400A030B68400B030B67400BE6
:102EA000030B66400A030B65400A1A0C6440001CC1
:102EB0000D6540001C0E6540001C0F6540001C1095
:102EC0006540001C116540001C126540001C136524
:102ED00040001C146540001C156540001C16654030
:102EE000001C176540001C186540001C1965400057
:102EF0001C1A6540001C1B6540001C1C6540001C22
:102F00001D6540001C1E6540001C1F6540001C2004
:102F10006540001C216540001C226540001C2365A3
:102F200040001C246540001C256540001C266540AF
:102F3000001C276540001C286540001C29654000D6
:102F40001C2A6540001C2B6540001C2C6540001CA1
:102F50002D6540001C2E6540001C2F6540001C3074
:102F60006540001C316540001C326540001C336523
:102F700040001C346540001C356540001C3665402F
:102F8000001C376540001C386540001C3965400056
:102F90001C3A6540001C3B6540001C3C6540001C21
:102FA0003D6540001C3E6540001C3F6540001C40E4
:102FB0006540001C416540001C426540001C4365A3
:102FC00040001C446540001C456540001C466540AF
:102FD000001C476540001C486540001C49654000D6
:102FE0001C4A6540001C4B6540001C4C6540001CA1
:102FF0004D6540001C4E6540001C4F6540001C5054
:103000006540001C516540001C526540001C536522
:1030100040001C546540001C556540008C566540BE
:10302000008C576540008C586540008C5965400005
:10303000845964400D005963400D005962400D00F1
:103040005961400D005960400D00595F400D005915
:103050005E3E0B03595D3D0B03595C3C0A03595B13
:103060003B0A03595A3A0A035959390A035958383D
:103070000A035957370A035956360B035955350B6E
:10308000035954340B035953330B035952330B0375
:10309000595131003E575030003E56502F003E559A
:1030A000502E003E54502D003E53502D003C5250A7
:1030B0002D003C51502D003C50502D003C4F502DC8
:1030C000003C4E502D003C4D502D003C4C502D00EE
:1030D0003C4B502D003C4A502D003C49502D003CAB
:1030E00048502D003C47502D003C46502D003C459B
:1030F000502D003C44502D003C43502D003C42508C
:103100002D003C41502D003C40502D003C3F502DA7
:10311000003C3E502D003C3D502D003C3C502D00CD
:103120003C3B502D003C3A502D003C39502D003C8A
:1031300038502D003C37502D003C36502D003C358A
:10314000502D003C34502D003C33502D003C32506B
:103150002D003C31502D003C30502D003C2F502D87
:10316000003C2E502D003C2D502D003C2C502D00AD
:103170003C2B502D003C2A502D003C29502D003C6A
:1031800028502D003C27502D003C26502D003C257A
:10319000502D003C24502D003C23502D003C22504B
:1031A0002D003C21502D003C20502D003C1F502D67
:1031B000003C1E502D003C1D502D003C1C502D008D
:1031C0003C1B502D003C1A502D003C19502D003C4A
:1031D00018502D003C17502D003C16502D003C156A
:1031E000502D003C14502D003C13502D00AC1250BB
:1031F0002D00AC11502D00AC10502D00AC0F502DF7
:1032000000A80F502D0E200F4F2D0E200F4E2D0E0B
:10321000200F4D2D0E200F4C2D0E200F4B2D0E206C
:103220000F4A2D0E200F492D0E200F482D0A030F97
:10323000472D0A030F462D0A030F452D0A030F449D
:103240002B0B030F43290B030F42270B030F4125C1
:103250000B030F40230A030F3F210A030F3E1F0AEF
:10326000030F3D1D0A030F3C1B0B030F3B190B0300
:103270000F3A170B030F39150B030F38130A030FFF
:1032800037100A030F360D0A030F350A0A030F34ED
:10329000070B030F33040B0F0F32020B0F0F33001A
:1032A0000B0F0F31000A0F0F30000A0B0F30000018
:1032B0001A103000001E113000001E123000001ED7
:1032C000133000001E143000001C153000001C16C6
:1032D0003000001C173000001C183000008C193022
:1032E00000008C1A3000008C1B3000008C1C300059
:1032F000008C1D3000008C1E3000008C1F30000040
:103300008C203000008C213000008C223000008C9A
:10331000233000008C243000008C253000001C2657
:103320003000001C273000001C283000001C293011
:1033300000001C2A3000001C2B3000001C2C300028
:10334000008C2D3000008C2E3000008C2F300000BF
:103350008C303000008C313000008C323000008C1A
:10336000333000008C343000008C353000008C3657
:103370003000008C373000008C383000008C393041
:1033800000001C3A3000001C3B3000001C3C3000A8
:10339000001C3D3000001C3E3000001C3F3000008F
:1033A0001C403000008C413000008C423000008C0A
:1033B000433000008C443000008C453000008C46C7
:1033C0003000008C473000008C483000008C4930C1
:1033D00000008C4A3000008C4B3000008C4C3000D8
:1033E000008C4D3000001C4E3000001C4F3000009F
:1033F0001C503000001C513000001C523000001CDA
:10340000533000001C543000001C553000008C5616
:103410003000008C573000008C583000008C593040
:1034200000008400000000001E30000D001E2F0070
:103430000D001E2E000D001E2D000D001E2C000D77
:10344000001E2B000D001E2A000D001E29000D007D
:103450001E28000D001E270006031E260006031E60
:10346000250006031E240007031E230007031E2257
:103470000006031E210006031E200007031E1F0076
:1034800007031E1E0006031E1D0006031E1C000768
:10349000031E1B0007031E1A0006031E1900060365
:1034A0001E180007031E170007031E160006031E42
:1034B000150006031E140006023230000D00322FE4
:1034C000000D00322E000D00322D000D00322C00B8
:1034D0000D00322B000D00322A000D003229000DA4
:1034E000003228000D0032270007033226000703B0
:1034F000322500070332240007033223000703327A
:103500002200060332210006033220000703321F87
:10351000000703321E000603321D000603321C00A2
:103520000703321B000703321A0006033219000694
:103530000332180007033217000703321600060390
:10354000321500060332140006024630000E004613
:103550002F000E00462E000E00462D000E00462CB9
:10356000000E00462B000E00462A000E00462900E1
:103570000E004628000E00462700090346260009D3
:1035800003462500080346240009034623000903D7
:10359000462200080346210008034620000903468E
:1035A0001F000903461E000803461D000803461CB1
:1035B000000903461B000903461A000803461900C8
:1035C00008034618000903461700090346160008B9
:1035D00003461500080346140008025A30000E0086
:1035E0005A2F000E005A2E000E005A2D000E005ABF
:1035F0002C000E005A2B000E005A2A000E005A29E9
:10360000000E005A28000E005A270009035A26000F
:1036100009035A250008035A240009035A23000904
:10362000035A220008035A210008035A2000090304
:103630005A1F0009035A1E0008035A1D0008035AA6
:103640001C0009035A1B0009035A1A0008035A19DF
:103650000008035A180009035A170009035A1600F4
:1036600008035A150008035A140008021F3000000E
:10367000001F300000001F300000001F300000005D
:103680001F300000001F300000001F300000001F2E
:10369000300000001F300000001F300000001F300D
:1036A0000000001F300000001F300000001F30002D
:1036B00000001F300000001F300000001F3000001D
:1036C000001F300000001F300000001F300000000D
:1036D00020300000002130000000223000000023D4
:1036E00030000000243000000025300000002630AB
:1036F00000000027300000002830000000293000C2
:1037000000002A300000002B300000002C300000A8
:10371000002D300000002E300000002F300000008F
:103720003030000000313000000032300000003343
:10373000300000003430000000353000000036302A
:103740000000003730000000383000000039300041
:1037500000003A300000003B300000003C30000028
:10376000003D300000003E300000003F300000000F
:1037700040300000004130000000423000000043B3
:1037800030000000443000000045300000004630AA
:1037900000000047300000004830000000493000C1
:1037A00000004A300000004B300000004C300000A8
:1037B000004D300000004E300000004F300000008F
:1037C0005030000000513000000052300000005323
:1037D000300000005430000000553000000056302A
:1037E0000000005730000000583000000059300041
:1037F00000005A300000005B300000005C30000028
:10380000005D300000005E300000005F300000000E
:103810006030000000613000000062300000006392
:1038200030000000643000000065300000006630A9
:1038300000000067300000006830000000693000C0
:1038400000006A300000006B300000006C300000A7
:10385000006D300000006E300000006F300000008E
:103860007030000000713000000072300000007302
:103870003000000074300000007530000000763029
:103880000000007730000000783000000079300040
:1038900000007A300000007B300000007C30000027
:1038A000007D300000007E300000007F300000000E
:1038B0008030000000803000000080300000008078
:1038C00030000000803000000080300000008030B8
:1038D00000000080300000008030000000803000D8
:1038E00000008030000000803000000080300000C8
:1038F00000803000000080300000008030000000B8
:103900008030000000803000000080300000008027
:103910003000000080300000008030000000803067
:103920000000008030000000803000000080300087
:103930000000000000000000682611241FBECFEF29
:10394000DAE0DEBFCDBF11E0A0E0B1E0E6E4F9E6E9
:1039500002C005900D92A232B107D9F725E0A2E28C
:10396000B1E001C01D92AE3FB207E1F71CE1CDE925
:10397000DCE104C02197FE010E949434CC39D107C8
:10398000C9F70E943C270C94A1340C9400006F925C
:103990007F928F929F92AF92BF92CF92DF92EF92DF
:1039A000FF920F931F93CF93DF936C01DB014801CC
:1039B0007E2D4115510509F49DC0FA01649131969F
:1039C00084914E5F5F4FC62FD0E0222301F1E1E0EA
:1039D000F0E0982F977011F4F0E0E0E0082F0695E2
:1039E000069506950E0F1F2F111D0C9FF0010D9FC0
:1039F000F00D1C9FF00D1124733011F4EE0FFF1F1A
:103A00002E9F80012F9F100D1124400F511F860102
:103A10000C0F1D1F101611060CF06CC0F0E8CF162D
:103A2000D1040CF067C09D01280F311D121613063A
:103A30000CF060C0A034B1050CF05CC0411551051C
:103A400009F458C03A2F3770FD01B7FD379693E05F
:103A5000F595E7959A95E1F72E2FB7FF04C033232C
:103A600011F02FEF2E0FEE27FF27EC19FD09D7FCE1
:103A700002C0F0E0E0E090E89C19003811050CF479
:103A8000962F9E1BA22F022E000CBB0B1A2F1095F7
:103A90002F3F0CF010E0BB24B394082F077009F4FB
:103AA000B12C869586958695B80EAB0DB11D1997EC
:103AB0001CF0A8E0BA2EB21AB11A210F00E82003B8
:103AC000D0011124AC0DBD1DAE0FBF1F619FE00DD5
:103AD000F11D11244E0F5F1FC32E032E000CDD08B5
:103AE000733009F418C1A8F4713009F4CAC07230F7
:103AF00009F478C0DF91CF911F910F91FF90EF9063
:103B0000DF90CF90BF90AF909F908F907F906F90FD
:103B100008957A3FB1F10B2D020F7B3F59F7201723
:103B200049F3BD0162507E4FF12CE12CE91608F0FB
:103B3000A2C0FA01EE0DFF1DE491F0E04F010C2C44
:103B400002C0880C991C0A94E2F727FD06C0FB010D
:103B50008081182D109581238083332361F02730D5
:103B600054F45B01F0E8AF0EB11C192D1095F5016E
:103B7000808181238083FFEFEF1AFF0A6F5F7F4F01
:103B8000D5CF0B2D020F201709F4B4CFBD01625021
:103B90007E4FF12CE12CE91608F067C0FA01EE0D1A
:103BA000FF1DE491F0E04F010C2C02C0880C991C21
:103BB0000A94E2F727FD04C0FB01808188298083F5
:103BC000332351F0273044F45B01F0E8AF0EB11C11
:103BD000F501808189298083FFEFEF1AFF0A6F5F6B
:103BE0007F4FD9CF6FEF70E0032E02C0660F771FB3
:103BF0000A94E2F760957095972E8B2C820E28150B
:103C000009F478CF8D0102501E4FF12CE12CE916FA
:103C100030F5FA01EE0DFF1DE491F0E03F010C2CB0
:103C200002C0660C771C0A94E2F727FD05C0F80174
:103C30008081862386298083332359F027304CF4F2
:103C40005801F0E8AF0EB11CF50180818921872968
:103C50008083FFEFEF1AFF0A0F5F1F4FD8CF2F5F50
:103C60004C0F5D1FA058BF4FCACF2F5F4C0F5D1F79
:103C7000A058BF4F88CF2F5F4C0F5D1FA058BF4F7C
:103C80004ECF84010E0F1F1F8B2D820F281709F4B2
:103C900031CFBD0162507E4FF12CE12CE91698F531
:103CA000F801EE0DFF1DA490B12C0C2C02C0AA0C43
:103CB000BB1C0A94E2F7A094B094FA01EE0DFF1D2C
:103CC0008490912C0C2C02C0880C991C0A94E2F769
:103CD00027FD08C0FB017080E72DEA217E2E7828A1
:103CE000FB017082332349F027303CF4FB01E0589C
:103CF000FF4FA080BA20B928B082FFEFEF1AFF0A69
:103D00006F5F7F4FCBCF2F5F4C0F5D1F0C0F1D1FC1
:103D1000A058BF4FBBCFE92EF12CE40FF51FA250E6
:103D2000BE4F60E870E06E197F09CE19DF09AE0161
:103D3000440F551FC1E0D0E07E01032E01C0EE0C00
:103D40000A94EAF7192F0B2D892E932ECF93DF9328
:103D5000ED01EF96EF962296A590C590992059F027
:103D6000AE9C5001CE9C600127302CF4F880D0949A
:103D7000FD20FB28F99222233AF0FC90C094FC200D
:103D8000FA28FD920C94C51E11961A9529F70A95EA
:103D900051F0182D23951124E40FF11DA60FB11D2C
:103DA000C60FD11DD9CFDF91CF911124A3CEEEEF55
:103DB000F1E081E0A0E0B8E000800EBC8111012CB0
:103DC0001197A0FDFDCF0192B9F70DB40895EF92C0
:103DD0000F931F932AEFE22E10E000E020E00E94F4
:103DE000C71C1F910F91EF90089525E0AC01249F0F
:103DF000C001259F900D1124FC01E55AF14D54910D
:103E0000FC01E45AF14D4491FC01E35AF14D349127
:103E1000FC01E25AF14D2491815A914DFC018491AB
:103E2000A8E5B1E057965C93579758964C935897EE
:103E300059963C9359975A962C935A975B968C9324
:103E40000895382F8091660181114EC090917201C2
:103E50009D3091F09E3009F453C0911143C02091E0
:103E60006F019091680129130BC081E090916B0163
:103E7000943019F480E001C082E080936A010895D3
:103E80009217BCF4332329F0809169018F5F8093EE
:103E9000690188E080936B0180916901803111F4A0
:103EA00010926901809169018695869586958C5F4F
:103EB000E4CF291714F7332329F0809169018F5F2C
:103EC0008093690184E080936B0180916901803166
:103ED00011F4109269018091690186958695869505
:103EE0008E5FCBCF892FC9CF90916F0180916801F0
:103EF0009813C0CF80916B01843021F483E0BDCF53
:103F000084E0BBCF85E0B9CF8091E701882361F0E1
:103F100081508093E701811107C01092E501109252
:103F2000EA011092E60108958091E4018823D9F313
:103F30008091E60191E0980F9093E6012091E801CD
:103F40003091E90143E0949FC0011124F901E80F89
:103F5000F91F4491FC013196E20FF31FE4914111E6
:103F6000E2CFE111E0CF4091EA01442329F0413052
:103F700039F01092E401D5CF81E08093EA01F9CFC6
:103F80000296820F931FFC018491F7CF80917E01EE
:103F9000811102C080E00895815080937E018111DB
:103FA000F9CFE8E5F1E0948D911101C08F5F90A108
:103FB000992319F0148E10A28F5F319691E0EC35A1
:103FC000F90789F7843031F781E080937D01089506
:103FD000E8E5F1E08789808B848595850196958752
:103FE00084870C94F51ECF93C82F80916F01809326
:103FF000680180916401909165010197909365013A
:10400000809364010E94F51E809172018D50823070
:1040100008F04AC081E080936D0180916401909125
:104020006501893221E0920721F188F48D359105EF
:1040300051F18A3B910539F180916D01811136C0B2
:104040008091640190916501CF910C94F51E8336A7
:1040500021E09207D9F0803821E09207F1F0863410
:10406000914051F780E091E0CC2349F083EC91E05E
:1040700006C08CEE90E0CC2311F08EE991E0909395
:1040800065018093640110926D01D6CF84E191E0C7
:10409000CC23A9F387ED91E0F2CF87E291E0CC2326
:1040A00071F38BEE91E0EBCF10926D01CF910895FB
:1040B000882321F080916F018093680180917201C3
:1040C0008730C1F058F4863089F080916401909176
:1040D00065010E94F51E80916F010895883071F08E
:1040E000893099F780916F018350089580916F0115
:1040F000895F089580916F018A5F089580916F01B3
:1041000082500895FC010E949620319728F0685152
:104110007C4F8F4F9F4FF9CFAB01FC010E9496203F
:10412000641775078E079F07C8F30895A4E5B1E0EB
:104130002FB7F8947D918D919C9166B52FBFA89B68
:1041400005C06F3F18F47F5F8F4F9F4F22E0660FCF
:10415000771F881F991F2A95D1F70895AB01FC019D
:104160000E94962041505109E109F10928F0685157
:104170007C4F8F4F9F4FF6CFAB01FC010E949620E2
:10418000641775078E079F07C8F30895EF920F9382
:104190001F9333E0E32E10E000E00E94C71C1F9144
:1041A0000F91EF900895EF920F931F9332E0E32E5B
:1041B00010E000E00E94C71C1F910F91EF9008953E
:1041C00090E00C9482208FB18095807F669B886000
:1041D0001C9B8460089580914D010895CF93DF93D7
:1041E00000D000D000D0CDB7DEB7FC0123813481F0
:1041F000A18153E0A59FD0011124F901EA0FFB1F13
:104200008491FD013196E20FF31F2491082E000CDA
:10421000990BE22FE61B2E2F30E041111BC00396B5
:104220009A8389832E5F3F4F3C832B8382E08D836B
:104230005E8329813A814B815C816D817E8180E042
:1042400090E026960FB6F894DEBF0FBECDBFDF918B
:10425000CF91089502969A8389832F5F3F4F3C83C5
:104260002B8384E08D8385E08E83E3CFFC01718313
:1042700060831282CB010C94F51E70E060E084E64E
:1042800091E00E943621E8E5F1E01686148A158A4D
:104290008FEF808B88E0838B08959C01205F3F4FD8
:1042A000FC0180E890E02E173F0731F010829283E6
:1042B000818363833496F7CF08952091FD01E091C7
:1042C000FB01F091FC01CF0102969093FC018093D9
:1042D000FB01222319F085919491089580819181A9
:1042E0000895CF92DF92EF92FF92CF930E945D21CB
:1042F000811520E89207A1F4809171008D7F809351
:10430000710082E08093910081E080939000469854
:1043100010924701CF91FF90EF90DF90CF900895DA
:1043200021E020934701813020E8920751F48091E9
:10433000EB019091EC019093FC018093FB010E94B2
:104340005D219F77009709F070C081E0809348015C
:1043500046988AEF90E09C0150E040E060E079E010
:104360008DE390E00E94FD3369017A0181E0C81A73
:10437000D108E108F108C1E0C114D10421E0E2064E
:10438000F10454F0CD2CDE2CEF2CFF2481E0C81A70
:10439000D108E108F108C4E0E0914501F09146013F
:1043A0000995811103C081E0809348010E945D213D
:1043B0009C018FEF9FEFDC012115310579F04FB79C
:1043C000F8948091500190915101A0915201B091C7
:1043D00053014FBF820F931FA11DB11D809349014F
:1043E00090934A01A0934B01B0934C01D092970057
:1043F000C09296008091940090919500B0E0A0E06A
:10440000C816D906EA06FB0620F4D0929500C092A1
:104410009400C061C093910080E1809390008091EE
:10442000710082608093710075CF1092480193CF24
:104430009C01E1E7F0E090819D7F90831092FD0167
:10444000EDEEF1E0F093FC01E093FB01F093EC0161
:10445000E093EB01318320838DE290E093838283AC
:1044600080E090E8958384830C9471219C01E1E7BE
:10447000F0E090819D7F908381E08093FD013093F7
:10448000FC012093FB013093EC012093EB010C9491
:104490007121CF932091E601211114C09091EA017E
:1044A000963008F05DC0E92FF0E0E45EFE4FC08179
:1044B000913009F43DC008F438C0963008F43AC091
:1044C00030E03EC0A091E801B091E90193E0299F5E
:1044D000A0011124FD01E40FF51FC491FA013196EA
:1044E000EA0FFB1F6491362F381B4E5F5F4F4A0F58
:1044F0005B1FFA0124912F3F19F5809143019091A0
:1045000044016BE370E00E946C346FE070E00E9445
:104510006C34262F632F330F770B49E05EE28C2F2C
:10452000CC0F990BCF910C94C6203AE5381BE5CF00
:1045300033E2FCCF3CE0381B9230F8F2963070F05A
:104540008091E501882321F08091E70184FF0AC072
:10455000632F330F770B47E85CE2E1CF24E0F0CF25
:10456000C0E0AECFCF9108958F929F92AF92BF924D
:10457000CF92DF92EF920F931F93CF93DF9300D0F0
:1045800000D0CDB7DEB7882E912C86E790E05C0195
:10459000A818B90880913F01833040F020E04DE336
:1045A0005CE2B5018BE190E00E94C62080913F0162
:1045B000823040F020E04DE35CE2B5018CE290E017
:1045C0000E94C62019821A821B821C8280913D01A2
:1045D00090913E01FE0131966E0125E0C20ED11C84
:1045E0002AE030E0B9010E946C348193CB01EC15D4
:1045F000FD05C1F721E080914101813009F020E003
:10460000EE24E39409EF1BE24FE05CE2B50181E5A3
:1046100090E00E94C71C9EE5A92EB12C88E790E08F
:10462000FC01E819F9094F018BEFE82E10E000E0DA
:10463000F60122916F014BEB5BE2B401C5010E94D0
:10464000C71CF7E0AF0EB11C2AE7A216B10461F750
:104650000F900F900F900F90DF91CF911F910F91BE
:10466000EF90DF90CF90BF90AF909F908F90089584
:104670008DE99BE20E943622E8E5F1E081E0848B3F
:10468000148288E780831092EA0108951F93CF93E4
:10469000DF93C82FD0E0D195C195D10910E0212F2B
:1046A0004BEC53E2BE0182E090E00E94D3201F5FFA
:1046B00028961031A1F7DF91CF911F910895CF92E5
:1046C000DF92EF92FF920F931F93CF93DF93CDB7BB
:1046D000DEB728970FB6F894DEBF0FBECDBF082F08
:1046E00080917D01882309F480C020917F0183E0BF
:1046F000289F90011124F901E75AF24E8491F901A3
:10470000E65AF24E6491601BF901E55AF24EE491CB
:10471000F0E0EE0FFF1FE358F04E45915491062E46
:10472000000C770B20E0082E000C990B0E94C6208D
:104730008091070190910801A0910901B0910A01AF
:1047400089839A83AB83BC8380910B0190910C0188
:10475000A0910D01B0910E018D839E83AF83B88728
:1047600024E7C22E21E0D22EF12CE12C10E0F6013C
:1047700081916F01882319F18381882321F0809131
:104780007E0184FF1CC0F701EE0FFF1FEB58F04EB7
:1047900045915491E5E0F0E0EC0FFD1FEE0DFF1D9B
:1047A000608170E0601B710BE1E0F0E0EC0FFD1F39
:1047B000EE0DFF1D808120E090E00E94C620FFEFFB
:1047C000EF1AFF0A84E0E816F10489F628960FB67E
:1047D000F894DEBF0FBECDBFDF91CF911F910F9137
:1047E000FF90EF90DF90CF90089561E0601B85E32C
:1047F000E0E08ECF8F929F92AF92BF92CF92DF92E6
:10480000EF92FF924B015C0182169306A406B50657
:104810009CF469017A01C818D908EA08FB0841F03C
:104820000E946F33A70196010E94FD336B017C014A
:104830008C0C9D1CAE1CBF1CC501B401FF90EF90F9
:10484000DF90CF90BF90AF909F908F9008951F936F
:10485000CF93DF93EC01162F262F269530E050E002
:1048600040E060E070E0CB010E94FA236C8B1D8B6E
:10487000DF91CF911F9108951F93CF93DF93EC01A8
:10488000162F262F269530E050E040E060E070E0E3
:10489000CB010E94FA23688B198BDF91CF911F9176
:1048A00008950F931F93CF93DF93BC01EC0164969F
:1048B000DC0103E0AC17BD0731F12C91222309F193
:1048C00011962C91119731E0320F11963C9311976C
:1048D00013964D915C911497309F90011124FA0129
:1048E000E20FF31F14912F5F3F4F240F351FF90183
:1048F0002491111106C0211104C01C9211961C9222
:1049000011971596D7CFFC012489222339F0215025
:10491000248BDF91CF911F910F910895FB01A61772
:10492000B707B9F36B5F7F4FEB0125972881211102
:10493000F5CFEC0181E0808311826D89262F30E074
:1049400050E040E0669570E090E080E00E94FA233D
:104950006C8BDFCFCF93DF93EC01BC01605F7F4FA7
:104960009C01FC016E177F07A9F04081442381F070
:1049700041815281483F8FEF580724F0415051093F
:104980005283418341815281473F5F4F09F4108236
:104990003496E8CF4889442329F04150488BDF9171
:1049A000CF910895F90126173707C9F32C5F3F4FC0
:1049B000D90114974C914111F5CF81E0808380E8B3
:1049C00090E0928381836989262F30E050E040E0B7
:1049D000669570E090E080E00E94FA23688BDFCF5C
:1049E00064E489EC92E00E94D5336BE48AEC92E0B7
:1049F0000E94D53370E060E08BEC92E00E94E733D8
:104A000070E060E08DEC92E00C94E733CF93DF939D
:104A1000D82F80E00E944623DD2319F080E00E9419
:104A20005F230E94D71E68EE73E080E090E00E9452
:104A3000AE20C0E08C2F0E9446238091EA01863090
:104A400019F08C2F0E9449228C2F0E94B422DD2362
:104A500019F08C2F0E945F230E94D71E64E170E042
:104A600080E090E00E94AE20CF5FC03419F7DF9164
:104A7000CF9108950F920FB68F939F93EF93FF936B
:104A800080914F018D5F8D3708F08D5780934F01D6
:104A9000E0E5F1E080818E4F808391819F4F91838B
:104AA00082818F4F828383818F4F8383E4E5F1E09E
:104AB00080818F5F808381818F4F818382818F4F3F
:104AC000828383818F4F83838FB18F6066991C9B14
:104AD00088278F3681F480914E01981B963068F0BC
:104AE000E0E0F8E087E78083818388E180936000DD
:104AF000F0936000FFCF90934E01FF91EF919F9153
:104B00008F910FBE0F9018951F920F920FB60F92B4
:104B100011242F933F934F935F936F937F938F93C2
:104B20009F93AF93BF93EF93FF932FB7F894809128
:104B3000500190915101A0915201B09153012FBFAA
:104B40004091490150914A0160914B0170914C0193
:104B500084179507A607B707C8F48091480181110B
:104B600004C088B190E4892788B9FF91EF91BF9183
:104B7000AF919F918F917F916F915F914F913F91F5
:104B80002F910F900FBE0F901F9018950E947121CA
:104B9000ECCFCF93DF93E82FF0E0E85AFE4F91E09F
:104BA00090A380E680937E019093E5018093E701D6
:104BB000C0913D01D0913E010E946F3328E030E06A
:104BC00040E050E00E94FD33685F7F4F8F4F9F4F62
:104BD000C60FD71FD0933E01C0933D018091410184
:104BE00081111DC066E380E891E00E944D21109282
:104BF000D0011092D2011092D1011092D4011092E2
:104C0000D6011092D5011092D8011092DA011092BB
:104C1000D9011092DC011092DE011092DD0185EACB
:104C200093E20E94362280917E0182958170E4E7B2
:104C3000F1E09191992331F09381992309F445C0D2
:104C4000811143C021E0E837F20799F76BE682E96A
:104C500091E00E944D2166E380E891E00E944D21A1
:104C6000EAEBF1E08EE691E2108211829483838375
:104C7000359621E0EE3CF207B9F7E4EAF1E08BE883
:104C80009FE11082118294838383359621E0E83B73
:104C9000F207B9F71092D0011092D2011092D1010F
:104CA0001092D4011092D6011092D5011092D80121
:104CB0001092DA011092D9011092DC011092DE01FB
:104CC0001092DD0181E080935B01DF91CF91089527
:104CD000CF93DF938BEE90E2909346018093450152
:104CE00080E090E89093FA018093F90146983E9A0B
:104CF000C8E5D1E083E48A831B821C821D828AEF8F
:104D00008E838F838887898782EC91E09B878A874F
:104D100088E08B8B1C8A1D8A1E8A70E060E084E626
:104D200091E00E94362180910F0190911001A09195
:104D30001101B09112018C8F9D8FAE8FBF8F18A281
:104D400019A21AA21BA21CA21DA21EA21FA218A673
:104D50001CA618AA1CAA1AAE1EAE10929A01109296
:104D60009E011092A4011092A5011092A60110922A
:104D7000A8011092A7011092A9011092AA01109205
:104D8000AB011092AD011092AC011092AE011092E5
:104D9000AF011092B0011092B2011092B1011092C5
:104DA000B3011092B4011092B5011092B7011092A4
:104DB000B6011092BA011092BB011092BC01109280
:104DC000BE011092BD011092BF011092C00110925D
:104DD000C1011092C3011092C2011092C40110923D
:104DE000C5011092C6011092C8011092C70110921D
:104DF000C9011092CA011092CB011092CD011092FC
:104E0000CC011092D0011092D2011092D1011092D7
:104E1000D3011092D4011092D6011092D5011092B4
:104E2000D7011092D8011092DA011092D901109294
:104E3000DB011092DC011092DE011092DD01109274
:104E4000DF011092E4011092E5011092E601109248
:104E5000E7011092E9011092E8011092EA01EDE3F6
:104E6000F1E01182108284E0828381E083831482E6
:104E70001582DF91CF910895CDB7DEB76797DEBF7A
:104E8000CDBF91E09093E0001092E2001092E1001B
:104E900080E28093D8001092D700809165008068EE
:104EA00080936500789483E084BD83E085BD909312
:104EB0006E00E1E8F0E083E08083E0E881E0808359
:104EC000E1E983E08083E0E981E08083E1EC87E051
:104ED0008083E3EC81E08083E0EC82E08083E2EC9D
:104EE00081E08083EAE787E080838068808381ECCB
:104EF00080937C0081E185B987E684B984E38BB92E
:104F00008FE38AB9769A6E9880EF81BB10BA80E5FC
:104F10008CBD9DBD85E00E94E020599A85E00E94ED
:104F2000E0205C98EEEEFBE085918EBD00000DB4B4
:104F300007FEFDCFEB3FC1F75C9A81E880936400E8
:104F400081E0809365000E94E32084FF15C05C9897
:104F500085EA8EBD00000DB407FEFDCF5C9A2E9849
:104F600058982D988091640080628093640081E05D
:104F700083BF889513BEFCCF0E94E32082FF39C017
:104F80002E9A589A2D980E94E32084718431A1F4BE
:104F90002D9A88EC0E94E02058986FEF82E090E014
:104FA0000E94D53384EF91E00E948220589A0E949B
:104FB000E32084718431D9F30E94E320847884381B
:104FC000A1F42D9A88EC0E94E0202E9860E082E007
:104FD00090E00E94D53384EF91E00E9482202E9AC7
:104FE0000E94E32084788438D9F388EC0E94E02082
:104FF000C3CF2E9858982D9882E090E00E94C73336
:10500000882309F46BC03E9A579A81E080934D0142
:10501000809164008E7F8093640080917A00806428
:1050200080937A0080917A0086FDFCCF0091780011
:10503000109179000E949620AB01BC01C801B0E03C
:10504000A0E0DC01992788278C019D01040F151F22
:10505000261F371FC901B8012091640021602093E9
:105060006400611571058105910511F00E94BE3340
:105070008EE08093000189EC92E00E94C733182FE4
:105080008AEC92E00E94C733143411F48B3411F08F
:105090000E94F024FF24F394209113013091140115
:1050A000409115012F87388B498B80911601909183
:1050B0001701A09118018A8B9B8BAC8B0091190171
:1050C00010911A0120911B010D8B1E8B2F8B80914B
:1050D0003301882341F010923301F9CF10924D0132
:1050E0003E98579895CF9091500180913401192F97
:1050F000181B812F20910001121740F48F5F821737
:1051000030F721E023BF889513BEE1CF31E0309323
:10511000330190933401E3E4F1E0808191810196C1
:105120008083918310913A01109339010E94E3200A
:1051300080933A01E0913C01E83008F0C8CFF0E0FC
:10514000EC55F74D0C949434AC28B02813292F2932
:10515000212ABE2A4D31783110923B01F0923C0158
:1051600010958123A9F080913B01882319F084E1F7
:1051700080933B0180913B0181110EC08EE690E04F
:105180000E9418228CE290E00E941822F0923B01CB
:1051900080913B01882341F08F5F80933B018531F3
:1051A00019F482E080933C0120E043E55CE160E19A
:1051B00070E080E290E00E94D320809143019091C2
:1051C000440160E770E00E946C34883320F48C3135
:1051D000E0F081E31BC0843520F581E58093B203C4
:1051E000807A31F485EA8093AB0385E98093AC0340
:1051F0000E94D71EEEEFF1E080E094E0DF018C0129
:105200001D9201501040E1F762CF81E11092D90365
:105210001092DA031092DB031092DC031092DD038C
:10522000DDCF81E9DBCF84E080933F0110923E0126
:1052300010923D01F09240011092420193E490934C
:105240005A019EE0909300011092010180930201A7
:105250008DE19CE10E94362283E080933C018091A5
:105260003901809590913A01892320910201982F6C
:105270009870243009F0B9C09111BDC091E082FD51
:10528000BBC084FF03C096E090933C0186FDF09282
:10529000020185FF03C082E08093020180914301F7
:1052A0009091440168E170E00E946C34811108C063
:1052B00090910101923011F081E0890F80930101FA
:1052C0002F85388949892A873B874C878A899B891A
:1052D000AC898F839887A9870D891E892F890983B7
:1052E0001A832B8320E04FE75BE162E070E089E105
:1052F00090E00E94D32020E045E55BE170E060E0B3
:1053000082E090E00E94D32020E047E45BE170E07F
:1053100060E08DE090E00E94D32020E045E55BE175
:1053200070E060E086E790E00E94D32020E047E450
:105330005BE170E060E08DE690E00E94D320109188
:105340000201113009F05EC0809143019091440147
:105350008F739927813208F055C020E043E35BE169
:1053600068E370E08FE590E00E94D32021E04FE0F9
:105370005CE265E370E083E790E00E94D3204DEAB1
:105380005AE16BE270E08AE290E00E94E71E009131
:10539000010110E0E7E0F0E0EC0FFD1FE00FF11F6E
:1053A000608170E043E35AE186E190E00E94E71EED
:1053B000E1E0F0E0EC0FFD1FE00FF11F608170E015
:1053C00045EB59E18BE490E00E94E71EEAE0F0E053
:1053D000EC0FFD1FE00FF11F608170E047E559E120
:1053E00084E390E00E94E71E03CF992309F449CF9C
:1053F00091E0213009F490E09093410194E0909382
:105400003C013FCF20E043E35BE168E370E082E0F2
:1054100090E00E94D32020E04FE05CE265E370E082
:1054200086E190E00E94D320123009F096CF80915F
:105430004301909144018F739927813208F08DCFF9
:105440009ECF0E943D21809141016AEF81116CED58
:1054500060935E0160935F01609361018111DAC125
:1054600082EC91E0909363018093620182E991E084
:105470000E943C246BE682E991E00E944D216091FC
:105480005F0180E891E00E943C2466E380E891E0BF
:105490000E944D21609161018AEB91E00E942724D6
:1054A000EAEBF1E08EE691E210821182948383832D
:1054B000359611E0EE3CF107B9F76091610184EA9D
:1054C00091E00E942724E4EAF1E08BE89FE110825A
:1054D000118294838383359621E0E83BF207B9F784
:1054E000009162011091630198013695279550E073
:1054F00040E060E070E0CB010E94FA237093E1018C
:105500006093E0011093E3010093E2011092D00157
:105510001092D2011092D1011092D4011092D601B2
:105520001092D5011092D8011092DA011092D9018F
:105530001092DC011092DE011092DD01F0927D01EB
:1055400010927C01F0927401F0927501F092760154
:10555000F092770183E480935A018EE080930001FA
:1055600089E78093580110925C011092EA01109231
:105570005B0110925D0185E080933C0110913A013E
:10558000E090390180915D01811112C480916C011C
:1055900081110EC480915C01882309F4A9C0809117
:1055A000430180FDA5C081E00E94582080916601E2
:1055B00081116DC180916D01811137C280915B01B4
:1055C000811133C280917301312F3072D32E012F9C
:1055D000007485FF22C1002319F082FD0E94E81F9C
:1055E000DD2039F08091730183FF03C080E00E94C9
:1055F000F31F17FF07C08091730181FF03C080E094
:105600000E94F31F14FF1AC08091730180FF16C01F
:105610000E94E81F8091640190916501853441E00A
:10562000940709F007C18091EA01823039F4809132
:105630007801811103C080E00E94C9258091590141
:10564000811156C013FF54C08091730184FD02C0C4
:1056500087FF4EC08091EA01811115C080916401DD
:10566000909165010E97039770F481E299E1909310
:10567000E9018093E801F092E4011092E6018BE0E9
:1056800099E10E9436228091EA01813059F580919A
:105690006401909165018C5D9109039718F50E9452
:1056A0006F3324E030E040E050E00E94FD33E62F0D
:1056B000F0E0DF01A85ABE4F5C968C91882379F305
:1056C000EE0FFF1FED5FF64E859194919093E901E7
:1056D0008093E801F092E4011092E6018BE099E1F9
:1056E0000E943622F092660189EF98E10E943622EC
:1056F0000091710180915C0190915B01992309F403
:105700002AC7882309F454C08091430180FD50C00A
:105710000E94841F0E94C61F8091640190916501C0
:105720008A3221E0920748F08E3931E0930708F47D
:10573000BBC18331924008F4C4C180917D018823AC
:10574000B9F180917F018F5F80937F0153E0859F46
:10575000C0011124FC01E75AF24E2491865A924E60
:10576000FC018491211124C0811122C010927F017B
:1057700080913D0190913E01449690933E0180932B
:105780003D01F0927D0110927C01F0927401F09243
:105790007501F0927601F092770170E060E084E6A6
:1057A00091E00E94362110925B0180E00E94062564
:1057B000E0916601F0E0E257FB4EE49180907001C9
:1057C00080917101881A8E1A80916C018111A3C198
:1057D0000E94211FC0906F010C2C000CDD08082CCA
:1057E000000C99082FEF821A920A8C3008F0AAC296
:1057F000E82FF0E0E250F44D0C9494348E2D8E2D71
:10580000A22EA22EA22EA22E8A2E902E942E982E5A
:105810009C2E9C2E80E991E025CE332319F083FD48
:105820000E94E81F002309F4E4CE8091730182FFF7
:10583000E0CEDCCE823651E0950759F48091EA0142
:10584000833009F0FBCE809179018111F7CE81E0A0
:10585000F3CE8F37A1E09A0759F48091EA018430A2
:1058600009F0ECCE80917A018111E8CE82E0E4CE9D
:105870008C39914009F0E2CE8091EA01853009F03F
:10588000DDCE80917B018111D9CE83E0D5CE8432EB
:1058900028F58F5F8093660180916601823109F05F
:1058A000ABC0A0906401B0906501C50140978D34F4
:1058B000910590F4A8E5CA2EA1E0DA2EB8E68B2E69
:1058C000B1E09B2EF60102AD01110BC0F4E0CF0E4A
:1058D000D11C8C149D04B1F700E016C01092660133
:1058E000DBCF80E00E945820082E000C990BD601D7
:1058F000DB962D913C91821B930B97FF03C09195F2
:10590000819591090C9714F7C5018F5691098B3435
:105910009105A0F47AEBC72E71E0D72EEEEC8E2E17
:10592000E1E09E2EF3E06F2EF6017080711024C02E
:10593000F5E0CF0ED11C8C149D04B1F7BDEDAB1A70
:10594000B108EAE4AE16B10498F458E5C52E51E06A
:10595000D52E68E6A62E61E0B62ED60198968C91DB
:1059600081112AC0B4E0CB0ED11CAC14BD04A9F740
:10597000002309F441C033C080E00E945820D601C2
:1059800011969C9111971396ED91FC91969DE00DC7
:10599000F11D1124E491082E000C990B8E1B910926
:1059A000E7FD939597FF03C09195819591090C9719
:1059B0000CF0BECF072DC2CF80E00E945820082EE9
:1059C000000C990BF60121A532A5821B930B97FFC2
:1059D00003C09195819591090C970CF0C3CF8FEE80
:1059E00098E10E94362280913D0190913E010196FE
:1059F00090933E0180933D01809166018730A9F428
:105A00008091640190916501833F9105D8F4863EB1
:105A1000910508F03FC08935910538F08E35910524
:105A200058F1865B9109059780F180915B018111A6
:105A300004C680916D01882309F489C580E00E9425
:105A4000F31F56CE8B31F1E09F0768F48E3001E0F2
:105A5000900728F58A5F91090D9738F71092660133
:105A60006FE471E00DC0825291400697F0F61092FB
:105A7000660169E871E004C01092660164E670E0B6
:105A800084E691E00E943621D0CF1092660163EC4B
:105A900070E0F6CF1092660162E371E0F1CF1092F0
:105AA00066016CE671E0ECCF809143019091440176
:105AB00083709927892B09F040CE81E00E94F31F63
:105AC0003CCE8091430180FD38CE0E94E81F35CE48
:105AD0002C5F3F4FF1E0203E3F0709F486C5D90116
