:100000000C9477170C949F170C949F170C949F17C0
:100010000C949F170C949F170C949F170C949F1788
:100020000C949F170C949F170C9446230C94B523A3
:100030000C949F170C949F170C949F170C949F1768
:100040000C949F170C949F170C949F170C949F1758
:100050000C949F170C949F170C949F170C94E725F2
:100060000C949F170C949F170C949F170C949F1738
:100070000C949F170C949F170C949F170C949F1728
:100080000C9431260C949F170C949F170C949F1777
:100090000C949F170C949F170C949F170C949F1708
:1000A0000C949F170C949F170C949F170408FBF156
:1000B000E0FF0C1000000000000000000000000045
:1000C00000000038383838383800000000000000E0
:1000D00000000000000000000000003F3F3F3F3FE5
:1000E0003F0000000000F0F0F0F0F0F0F0F0000051
:1000F0000000003F3F3F3F3F3F0000000208AC5C74
:10010000AC5FAC5F02085CAC5FAC5FAC80808080B1
:10011000808080808080808080800000E0F0F0E03F
:10012000C0C0C0C0C08000000FFFFFFFFFFFFFFF87
:10013000FFFFFFFFFFEFFE7EFFFFFFFFFFFFFFFF61
:10014000FFFFFE3C001F1F1F1F1F3F7F7F7F7F7F22
:10015000FBFFFFFEFFFFFFFFFFC783030703010055
:1001600000000000006070707E7F7F7F7F3F070788
:1001700007071F1F1F1F1F1F0F06000080808080A2
:10018000808080808080808080800000E0F0F0E0CF
:10019000C0C0C0C0C08000000FFFFFFFFFFFFFFF17
:1001A000FFFFFFFFFFEFFE7EFFFFFFFFFFFFFFFFF1
:1001B000FFFFFE3C001F1F1F1F1F3F7FFFFFFFFFB2
:1001C000FFFFFFFEFFFFFF7F1F0703030703010081
:1001D0000000000000060F1F1F1F3F3F1F070707FB
:1001E000077F7F7F7F7F7E707060000000000000CF
:1001F00000000000000000000000000000000000FF
:100200000000000000000000FEFCFCFCF8F8F0C05C
:1002100000000000000000000000000000000000DE
:1002200000000000FFFFFFFFFFFFFFFF7F7FFFFFDA
:10023000FEFEFCFCFCFEFE7FFFFFFFFEFCFE3E1C04
:10024000F87F3F3F1F0F05000000737F7F7F7F7F98
:100250007F7D7830000000010100000000000000F8
:10026000000000000000000000000000000000008E
:10027000000000000000000000000000000000007E
:10028000000000000000000000000000C0F0F8F8CE
:10029000FCFCFCFE1C3EFEFCFEFFFFFF7FFEFEFCA6
:1002A000FCFCFEFEFFFF7F7FFFFFFFFFFFFFFFFF66
:1002B000000000010100000030787D7F7F7F7F7F9C
:1002C0007F73000000050F1F3F3F7FF81C208080D8
:1002D0008080808080808080808080800000E0102E
:1002E000106040404040408000000FF00FFFFFFFD3
:1002F000FFFFFFFFFF0F706FD242C14642C0C20E28
:1003000000000001C23C001F10171717274747477E
:1003100047C0C4000102030202203C4482020402DE
:10032000010000000000006010101F0101010078B2
:10033000040404041E20201011110906000080800E
:100340008080808080808080808080800000E010BD
:10035000106040404040408000000FF00FFFFFFF62
:10036000FFFFFFFFFF0F706FD242C14642C0C20EB7
:1003700000000001C23C001F101717172747C7478E
:10038000474044000102030282601C04020204028E
:1003900001000000000000060911111020201E04B9
:1003A00004040478000101011E1010600000000028
:1003B000000000000000000000000000000000003D
:1003C00000000000000000000000C20C0404080847
:1003D00070C00000000000000000000000000000ED
:1003E00000000000000090085C2C301800804141A3
:1003F000818102020404040282418181810E04C2CF
:10040000221C88472420100B05000000730C0800F4
:10041000000002054830000000010100000000005B
:1004200000000000000000000000000000000000CC
:1004300000000000000000000000000000000000BC
:100440000000000000000000000000000000C0707C
:10045000080804040CC21C22C2040E81818141825E
:1004600002040404020281814141800018302C5CA6
:100470000890000000010100000030480502000063
:1004800000080C73000000050B1020244788043E70
:10049000FEFEFFFFFFFFFFFFFFF280CC9EDEFFFFAF
:1004A000FFFFFFFFFEFC700000000000237F7F7F46
:1004B0007F3F3F3F7FFF7FFFFFFF7FFFFFFFFFFF8C
:1004C000FDC08000000000000000000000000000EF
:1004D00000000000000000000007070707070707EB
:1004E00006008080C0C0C0E0E0E0F0F0E0CC9EDE1E
:1004F000FFFFFFFFFFFFFEFC70000000000003078E
:100500003F7F7F7F7F7F7FFFFFFFFFFFFFFFFFFFBB
:10051000FFFF7DF8FCFC7C380000000000000000BC
:100520000000000006070707070707070000000094
:1005300000000000000000000070FCFEFFFFFFFF55
:10054000FFFFDE9ECC80F2FFFFFFFFFFFFFFFEFEFE
:100550003E0400000080C0FDFFFFFFFFFF7FFFFFA4
:10056000FF7FFF7F3F3F3F7F7F7F7F2300000006AD
:10057000070707070707070000000000000000004A
:100580000000000000000000000000000070FCFE01
:10059000FFFFFFFFFFFFDE9ECCE0F0F0E0E0E0C0F9
:1005A000C0C080800000387CFCFCF87DFFFFFFFFAE
:1005B000FFFFFFFFFFFFFF7F7F7F7F7F7F3F0703FF
:1005C0000000000000000000000007070707070701
:1005D00007060000000000000000000000001C13DF
:1005E000043AC20A2909050505010DF2804C92D290
:1005F0002125694D0901028C700000000000235C78
:1006000041484828242460B94786848C458180006D
:1006100003033DC080000000000000000000000057
:1006200000000000000000000000000701000000C2
:1006300000010600808040404020A0A09010E04CC7
:1006400092D22125694D0901028C70000000000042
:1006500002043E7E3F5F47416090909A84C421012E
:100660000000838345888484443800000000000033
:10067000000000000000060100000000010700006B
:100680000000000000000000000000708C02010962
:100690004D692521D2924C80F20D010505050929ED
:1006A0000AC23A0400000080C03D03030080814577
:1006B0008C848647B9602424284848415C23000084
:1006C000000601000000000107000000000000001B
:1006D00000000000000000000000000000000070AA
:1006E0008C0201094D692521D2924CE01090A0A006
:1006F00020404040808000003844848488458383C3
:1007000000000121C4849A90906041475F3F7E3E83
:1007100004020000000000000000000007010000CB
:1007200000000106000000000000000000000000C2
:1007300004080C30030C001B001B0C0318061810D7
:1007400000000000000000000020400000402000E9
:100750000000000000000000000000000000000099
:100760000000000000000000000000000000000089
:100770000000000000000010002000001000200019
:100780001000000000000000000000000000000059
:100790000000000000000000000000000000000059
:1007A00000000000004000100000000210000000E7
:1007B0001000200000000000000000000000000009
:1007C0000000000000000000000000000000000029
:1007D00000000000004000000020040000000000B5
:1007E00000004000000000000000000002000000C7
:1007F00000000000000000000000000200000000F7
:1008000000000000000000000000000000000000E8
:1008100000000000000000000000000008000000D0
:1008200001000000000000000000002000000000A7
:1008300004080C03300C1B001B000618030C043EBC
:10084000FEFEFFFFFFFFFFFFFFF280CC9EDEFFFFFB
:10085000FFFFFFFFFEFC700000000000237F7F7F92
:100860007F3F3F3F7FFF7FFFFFFF7FFFFFFFFFFFD8
:10087000FDC080000000000000000000000000003B
:100880000000000000000000000707070707070737
:100890000600043EFEFEFFFFFFFFFFFFFFF280CCDD
:1008A0009EDEFFFFFFFFFFFFFEFC70000000000068
:1008B000237F7F7F7F3F3F3F7FFFFFFFFFFFFFFFE4
:1008C000FFFFFFFF7DF8FCFC7C380000000000000B
:1008D00000000000000006070707070707070000E1
:1008E00000000000000000000000043EFEFEFFFFCC
:1008F000FFFFFFFFFFFFFFFFFFFFFFFFFEFC70009A
:100900000000000000000000237F7F7F7F3F3FFF4B
:10091000FFFFFFFFFFFFFFFF7DF8FCFC7C380000BE
:10092000000000000000000000000607070707079E
:1009300007070000000000000000000000000000A9
:100940000004FEFEFEFEFEFEFEFEFEFEFEFEFC704F
:1009500000000000000000000000000000207FFFF9
:10096000FFFFFFFFFFFFFFFFFFFDF8FCFC7C3800EF
:10097000000000000000000000000607070707074E
:100980000707000000000000000000000000000059
:100990000070FCFEFFFFFFFFFFFFFFFFFFFFFFFFF9
:1009A000FFFFFEFE3E0400000000387CFCFCF87DEA
:1009B000FFFFFFFFFFFFFFFFFF3F3F7F7F7F7F23A3
:1009C0000000000000000000000000000000070719
:1009D00007070707070600000000000000000000EE
:1009E000000000000070FCFEFFFFFFFFFFFFDE9E27
:1009F000CC80F2FFFFFFFFFFFFFFFEFE3E04387CCE
:100A0000FCFCF87DFFFFFFFFFFFFFFFFFFFFFF7F05
:100A10003F3F3F7F7F7F7F230000000000000000FA
:100A2000000007070707070707060000000000008F
:100A300000000000000000000070FCFEFFFFFFFF50
:100A4000FFFFDE9ECC80F2FFFFFFFFFFFFFFFEFEF9
:100A50003E0400000080C0FDFFFFFFFFFF7FFFFF9F
:100A6000FF7FFF7F3F3F3F7F7F7F7F2300000006A8
:100A70000707070707070700000000000000000045
:100A8000000000000000000000001C13043AC20A2D
:100A90002909050505010DF2804C92D22125694DE9
:100AA0000901028C700000000000235C41484828C6
:100AB000242460B94786848C4581800003033DC0AF
:100AC00080000000000000000000000000000000A6
:100AD0000000000000000007010000000001060007
:100AE000043AC20A2909050505010DF2804C92D28B
:100AF0002125694D0901028C700000000000235C73
:100B00004148482824246091979E84C42101000014
:100B1000838345888484443800000000000000007E
:100B200000000000060100000000010700000000B6
:100B30000000000000000000043AC20A290905056F
:100B400005010D728025694D0901028C70000000BD
:100B5000000000000000235C41484828249490884D
:100B600049060000838345888484443800000000DF
:100B70000000000000000000060100000000010766
:100B80000000000000000000000000000000000461
:100B9000FA024A4A0A0A0A0A02FA04008C700000A1
:100BA0000000000000000000000000205F405252E2
:100BB00050505050405F2005888484443800000025
:100BC0000000000000000000060100000000010716
:100BD00000000000000000000000000000000070A5
:100BE0008C0201094D692580720D01050505092951
:100BF0000AC23A0400000000384484848845838394
:100C00000000064988909424284848415C2300004D
:100C100000000000000000000000000007010000CC
:100C200000000106000000000000000000000000BD
:100C3000000000708C0201094D692521D2924C8080
:100C4000F20D0105050509290AC23A0438448484D5
:100C50008845838300000121C4849E9791602424E9
:100C6000284848415C23000000000000000000000C
:100C70000701000000000106000000000000000065
:100C800000000000000000708C0201094D69252160
:100C9000D2924C80F20D0105050509290AC23A04D9
:100CA00000000080C03D0303008081458C8486479E
:100CB000B9602424284848415C2300000006010054
:100CC000000000010700000000000000000000001C
:100CD0000000000000000000000010B8F8FEFFFF58
:100CE000FFFFFFFFFEF8B81000000000000080C109
:100CF000C3F7FFFFFFFFFFFFF7C3C1800000000045
:100D00000003E7FFFFFFFFFF7F7FFFFFFFFFFFE71E
:100D100003000000000010B8F8FEFFFFFFFFFFFF18
:100D2000FEF8B810000000000070F8F9F3F7FFFFBC
:100D3000FFFFFFFFF7F3F9F8700000000000E0F09C
:100D4000F1FBFFFF7F7FFFFFFBF1F0E00000000001
:100D5000000000008CFEFFFFFFFEFEFCF8F0E0F05C
:100D6000E04000002070F0F0E0E1E3F3FFFFFFFF60
:100D7000F3F1E3E7020000000000000100CCFCFFFB
:100D8000FFFF1FBFFFFFE7C30000000000000000DF
:100D90008CFEFFFFFFFEFEFCF8F0E0F0E0400000FC
:100DA0001E3E7C78F0F1E3F3FFFFFFFFFBF1E3F77A
:100DB000F2783C1C0000000000CCFCFFFFFF1FBFCE
:100DC000FFFFE7C3000000001418000010A8682E01
:100DD00021AF2121A1212E68A810000000000000F1
:100DE000804142340808F1F1080834424180000093
:100DF00000000003E4181A1C6F807070806F1C1ACA
:100E000018E403000000000010A8682E115F111103
:100E100051112E68A810000000000070888912345B
:100E20000808F1F1080834128988700000000000F9
:100E3000E010111A6E807070806C1A1110E00000C2
:100E40000000000000008C72091549122A54A810F5
:100E5000A050A040000020509010A0A1A2920D0030
:100E6000000D029122E5020000000000000100CC0C
:100E7000343301F111A1421F24C30000000000001F
:100E800000008C72091549122A54A810A050A040E5
:100E900000001E2244489091A2920D00000D029184
:100EA00022959248241C0000000000CC343301F14C
:100EB00011A1421F24C30000000004040008000028
:100EC00008040800040904000002000000000000FB
:100ED0000000000000000000000000000000000012
:100EE0000000000000000000000080C0E8FCF8F0F6
:100EF000C0E0C080070F0F0F0F0F0F0F0F0700008C
:100F000000000000000000000000000000000000E1
:100F1000000000000000E0F8FC980000F8FEFFFE72
:100F2000FFFFFFFFFCF8030F0F0F0F0F0F0F0F0353
:100F300000000080000000000000000087FFFFF8B4
:100F4000C0E0C0000080FFFFFFFFFFFFF980FFFF50
:100F5000FFFFFFFFFFFFFFFF030F0F0F0F0F0F0F2D
:100F60000F0300003CFEFCC0000000000000FCFF7E
:100F7000FFFFFEFFCE00F8FCFFFFFFFFFFFFFFFCBF
:100F8000FFFFFFFFFFFFFFFFFFFF000F0F0F0F0F20
:100F90000F0F0F000A2400000000000000000000F6
:100FA0000000000000000000000000000000000041
:100FB000000000008040681408304020408007088E
:100FC0000000060C00000807000000000000000000
:100FD0000000000000000000000000000000000011
:100FE000E01864980000F806010601C0000704F844
:100FF000030C00000F0300000C0300000080000041
:10100000000000000000877807F84020C000008042
:101010007F0020071E067980FF000000E0800106A7
:1010200000FF030C0000030F00000C0300003CC293
:101030003CC0000000000000FC03003FF231CE0085
:10104000F80403000100083003FCFF000000FFF07B
:10105000000000FF000F0000000F00000F00000064
:101060000101010000183D7F7F7F3D183078FCFEB4
:10107000FC783007080000000000000018254240FE
:101080004225183048848284483003081F051F1FFA
:10109000151B1F11111F110E1F15111F05011F1107
:1010A0001D1F041F001F0010101F1F041B1F101006
:1010B0001F061F1F011F1F111F1F05071F311F1FA5
:1010C000051B17151D011F011F101F0F100F1F0CEF
:1010D0001F1B041B071C071915130C121E1F120CD3
:1010E0001E12120C121F0C1A14041F052E2A1E1F8A
:1010F000021C001D00201D001F041A011F001E04F9
:101100001E1E021E1E121E3E120C0C123E1E020657
:1011100014120A020F121E101E0E100E1E081E1AA6
:10112000041A2E281E1A12161F111F001F001D154B
:101130001711151F07041F17151D1F151D01011F6E
:101140001F151F17151F00170000100004083E0987
:10115000093E3F25251A1E2121123F21211E3F2530
:1011600025213F0505011E21293A3F04043F213F67
:1011700021001021211F3F040A313F2020203F027F
:10118000023F3F02043F1E21211E3F0909061E2186
:10119000112E3F09093622252519013F01011F2083
:1011A000201F0F10201F3F10103F3B04043B03047F
:1011B0003807312D2321102A2A3C3F2424181C22D1
:1011C00022141824243F1C2A2A2C047E05014C5288
:1011D000523E3F040438243D20004040443D3F0837
:1011E0001422213F20003E04043E3E04023C1C2207
:1011F000221C7E22221C1C22227E3E040204242A5F
:101200002A12021F22201E20201E0E10201E3E1019
:10121000103E360808364E50503E322A26221E29ED
:10122000251E223F2000322929261221251A0C0AC8
:101230003F08172525191E252518013905031A25EC
:10124000251A0629291E002F000000200000D5F0D5
:101250008D14A1C881CFD9F1AF20000A1003FDFE83
:1012600006DADA06FEFD03EFEEEDEDEDEDEDEDEE67
:10127000EF471001FF0000CFCF0000FF0000FF018B
:1012800000FCCC0809FF0000CFCF0000FFFFC3FF28
:101290006140CCCC0819FF0100FCFC7879FF01000B
:1012A000FCFC0001FF0000CC8C0021FF0000CCCC36
:1012B000FCFCFF6140CCCC0819FFF0F7F4FCF3F71D
:1012C000F4FCF7F4FCFBF6F4F4F4FCF2F7F4FCF3B2
:1012D000F7F4FCFFFFFCFBF6F4F4F4FCFEFBF6F481
:1012E000F4F4FCFEFBF6F4F4F4FCF2F7F4FCF3F790
:1012F000F4FCF7F4F4F4F4F4FCF3F6F4F4F4FCFE88
:10130000FF1A16FEFDFDFBFBFBF7F7F7F7F7EFEF14
:10131000EFEFEFEFEFEFEFDFDF9F3F7FFF3F1F8349
:10132000E0FFFFFFFFFFFFFFFFFFFFFFFFFFFFFFEC
:10133000FFFFFFFF7E80C13F3F3F2F2F1F1F1F0F6B
:101340000F0F2F273331383C3F3F0F27313C2F2FD2
:101350002F3640FDFDFDFDFDFDFDFDFDFDFDFDFD0F
:10136000FDFD3D1DCDE7F3FBF9F9AD55AD55AD558F
:10137000AD55ED3B87DDDDDDDD9D9D3D3D7D7DFD9D
:10138000FDFDFDFDFDFDFDFDFDFFFFFFFFFFFFFF7F
:10139000FFFFFFFF7F7F7F3F00003FB5BF9FDFDF85
:1013A000DFCD4A4D4A0D2693B83E3F7FFFFFFFFF3A
:1013B000FFFFFFFFFEFEFCF9F307FFFFFFFFFFE764
:1013C000076BFBF70F0FF77B7BF0F0E0800000006E
:1013D00080E1FFFFFFFF3F8CE4F2FAFAF6CF1FFF38
:1013E0007FBCD8D1B337471F9F3FBFBF9F6FF3FC70
:1013F000FFFFFFFFFF81F8FFFFC780807FF1C398E9
:10140000F1FFFFFCFCFEFFFFFFFFFFFF801F7FFFE0
:10141000FFE3C14983FE009383C7FFFF7C00D80030
:1014200092BAB5363635330FFFFFFFFFFFFFFFFFE0
:10143000FFFFFFFCF1071FFFFFFFFFFFFFFFFFFFA5
:10144000FEFFFBFF767EFCFCFCFFFFFFFEF1E3DB13
:1014500099341E008081E3F3F7FFFFFF3FC4FBFFD9
:10146000FFE38F3F7F3F3F1F0F07F3FCFFFFFFFFAF
:10147000FFFFFBF7F77777BF9797B3B0444E9F9F77
:101480000F8F9F9F3F3F7F7F7E7EFCFCF9FB078F86
:10149000FFF0E0C60EFDFD03030000000000008029
:1014A00007FFFFFFFFFFFFFFFF0F01000001030722
:1014B0000F1F3F3E7E7D79F2768E7E0C000000008D
:1014C0000004041C3E3F7F7F7F1F80FFFF00000061
:1014D00000000000E0FFF8801FFFFFFFFFFFFFC0DC
:1014E000C69C387870E0C04080403008040201009B
:1014F0000000000000000000008080C0C0E0E2F7B3
:10150000E7E7F910033200930232000B0232007059
:101510000332005D01320026013200EE013200C4C8
:10152000003200A500320083003200DC0032005798
:10153000003200490032007B0032007B00320000A4
:101540000014007B003200000014007B0032000019
:1015500080AF00140088011400008003081F111FD1
:10156000001F001D151711151F07041F17151D1F3C
:10157000151D01011F1F151F17151FFFFFFFFFFF7F
:10158000FFFFFFFFFFFFFFFFFFFFFFFFFFFFFFFF6B
:10159000FFFFFFFFFFFFFFFFFFFFFFFFFFFFFFFF5B
:1015A000FFFFFFFFFFFFFFFFFFFFFFFFFFFFFFFF4B
:1015B000FFFFFFFFFFFFFC1F1F3F3F3F3F3F3F3F3E
:1015C0003F3F3F3F3F3F3F3F3F3F3F3F3F3F3F3F2B
:1015D0003F3F3F3F3F3F3F3F3F3F3F3F3F3F3F3F1B
:1015E0003F3F3F3F3F3F3F3F3F3F3F3F3F3F3F3F0B
:1015F0003F3F3F3C0EFF01FDFDFDFDFD0DF5B52D0F
:10160000FD0DB5B50DFD05EDDDED05FD05B5B5F53A
:10161000FDFDFD0DF5F50DFD05FDFDFD05FD05B51A
:10162000B5F5FD05B5B54DFDFDFDFDFDFDFD010764
:10163000FC1F10372727272726252526272427277D
:10164000242724272727242724252525272727263D
:10165000252526272726252627272425252527242F
:101660002727242727272727272720203F8008FFF1
:10167000FFFFFFFFFFFFFFFFFFFFFFFFFFFFFFFF7A
:10168000FFFFFFFFFFFFFFFFFFFFFFFFFFFFFFFF6A
:10169000FFFFFFFFFFFFFFFFFF80809CA29A80807B
:1016A000BC0ABC00A4AA92808080A4AA928082BEB8
:1016B0008280BC8ABC8082BE8280BE009C229C80CC
:1016C000BE8CBE8080FFFFFFFFFFFFFFFFFFFFFF1D
:1016D000FFFFFFFFFFFFFFFFFFFFFFFFFFFFFFFF1A
:1016E000FFFFFFFFFFFFFFFFFFFFFFFFFFFFFFFF0A
:1016F000FFFFFFFFFFFFFFFFFFFFFFFFFFFFFFFFFA
:10170000FFFFFFFFFFFFFFFFFFFFFFFFFFF8F4E812
:10171000D4A854A854A854A804F0F4F0F4F07470B9
:101720007470747074707470747074707470747099
:1017300074F0F4F0F4F0F470747074707470747089
:10174000F4F0F4F0F4F004A854A854A854A8D4E891
:10175000F4F8FFFFFFFFFFFFFFFFFFFFFFFFFFFFAB
:10176000FFFFFFFFFFFFFFFFFFFFFFFFFFFFFFFF89
:10177000FFFFFFFFFFFFFFFFFFFFFFFFFFFFFFFF79
:10178000FFFFFFFFFFFFFFFFFFFFFFFFFFFFFFFF69
:10179000FFFFFFFEFDFEFDFE00FFFFFFFF00FFFD60
:1017A000FFFDFFFDFFFDFFFDFFFDFFFDFFFDFFFD59
:1017B000FF00FFFFFFFF00FFFDFFFDFFFDFFFDFF3F
:1017C00000FFFFFFFFFF00FEFDFEFDFEFFFFFFFF2E
:1017D000FFFFFFFFFFFFFFFFFFFFFFFFFFFFFFFF19
:1017E000FFFFFFFFFFFFFFFFFFFFFFFFFFFFFFFF09
:1017F000FFFFFFFFFFFFFFFFFFFFFFFFFFFFFFFFF9
:10180000FFFFFFFFFFFFFFFFFFFFFFFFFFFFFFFFE8
:10181000FFFFFFFFFFFFFFFF00FFFFFFFFFCFBFBE2
:10182000FBFBFBFBFBFBFBFBFBFBFBFBFBFBFBFB08
:10183000FBFCFFFFFFFF00FFFFFFFFFFFFFFFFFFBE
:1018400000FFFFFFFFFF00FFFFFFFFFFFFFFFFFFA6
:10185000FFFFFFFFFFFFFFFFFFFFFFFFFFFFFFFF98
:10186000FFFFFFFFFFFFFFFFFFFFFFFFFFFFFFFF88
:10187000FFFFFFFFFFFFFFFFFFFFFFFFFFFFFFFF78
:10188000FFFFFFFFFFFFFFFFFFF1E9D1A951A951C2
:10189000A951A95109E1E9E1E9E1E9E1E9E1E9E178
:1018A000E9E1E9E1E9E1E9E1E9E1E9E1E9E1E9E1E8
:1018B000E9E1E9E1E9E1E9E1E9E1E9E1E9E1E9E1D8
:1018C000E9E1E9E1E9E1E9E1E9E10951A951A951D8
:1018D000A951A9D1E9F1FFFFFFFFFFFFFFFFFFFFC4
:1018E000FFFFFFFFFFFFFFFFFFFFFFFFFFFFFFFF08
:1018F000FFFFFFFFFFFFFFFFFFFFFFFFFFFFFFFFF8
:10190000FFFFFFFFFFFFFFFFFFFFFFFFFFFFFEFDEA
:10191000FAFDFAFD00FFFFFF01FEEAF6EAF6EAF63D
:10192000FAF6FAFEFEFEFEFEFEFEFEFEFE01FFFFE2
:10193000FF01FEEAF6EAF6EAF6FAF6FAFEFEFEFE27
:10194000FEFEFEFEFEFE01FFFFFF00FDFAFDFAFDBA
:10195000FEFFFFFFFFFFFFFFFFFFFFFFFFFFFFFF98
:10196000FFFFFFFFFFFFFFFFFFFFFFFFFFFFFFFF87
:10197000FFFFFFFFFFFFFFFFFFFFFFFFFFFFFFFF77
:10198000FF8F0F8FDFDFDFDFDFDFDFDFDFDFDFDFB7
:10199000DFDFDFDF50DFDF8F088FDFDFDFDFDFDF5D
:1019A000DFDFDFDFDFDFDFDFDFDFDFDFDFD88F0F6E
:1019B0008FD8DFDFDFDFDFDFDFDFDFDFDFDFDFDF8E
:1019C000DFDFDFDFDF8F088FDFDF50DFDFDFDFDF2D
:1019D000DFDFDFDFDFDFDFDFDFDFDF8F0F8FFFFF47
:1019E000FFFFFFFFFFFFFFFFFFFFFFFFFFFFFFFF07
:1019F000FFFFFFFFFFFFFFFFFFFFFFFFFFFFFFFFF7
:101A0000FF8F408F4F8F4F8F4F8F4F8F4F0F4F0F45
:101A10004F0F4F0F480F4F0F400F4F0F4F0F4F0FEC
:101A20004F0F4F0F4F0F4F0F4F0F4F0F4F0F4F00D5
:101A30004F0F4F0F4F0F4F0F4F0F4F0F4F0F4F0FB6
:101A40004F0F4F0F4F0F400F4F0F480F4F0F4F0FBC
:101A50004F0F4F8F4F8F4F8F4F8F4F8F408FFFFF05
:101A6000FFFFFFFFFFFFFFFFFFFFFFFFFFFFFFFF86
:101A7000FFFFFFFFFFFFFFFFFFFFFFFFFFFFFFFF76
:101A8000FFFFFFFEFDFAF5EAD5EAD5EA00FFFFFF0A
:101A9000FF0FF757B757B757B7D7B7D7F7F7F7F7D6
:101AA000F7F7F70FFF0FF757B757B757B7D7B7D7AE
:101AB000F7F7F7F7F7F7F7F7F70FFF0FF757B757FE
:101AC000B757B7D7B7D7F7F7F7F7F7F7F70FFFFF1E
:101AD000FFFF00EAD5EAD5EAF5FAFDFEFFFFFFFFBA
:101AE000FFFFFFFFFFFFFFFFFFFFFFFFFFFFFFFF06
:101AF000FFFFFFFFFFFFFFFFFFFFFFFFFFFFFFFFF6
:101B0000FFFFFFFFFFFFFFFFFFFF7FBFD05F5F5FB4
:101B10006FACAFADAEAFAFAF6F5F5F5FDFBF7FFFEB
:101B2000FFFFFF80FF80FFFDFEFF1FEFF7F777F756
:101B300077F7F7EF1FFFFFFFFF80FF80FFFDFEFF3E
:101B40003FDF6FAFAFAFAFAFAFAFAFAFAFA8AFAF2C
:101B5000AFAF68DF3FFFFFFFFFFFFFFFFFFFFFFFAC
:101B6000FFFFFFFFFFFFFFFFFFFFFFFFFFFFFFFF85
:101B7000FFFFFFFFFFFFFFFFFFFFFFFFFFFFFFFF75
:101B8000FFFFFFFFFFFFFFFF3FD0EF29EEF7D7F783
:101B9000DBFBEBFBEBFBEBFBDBF7D7F7EE29EFD047
:101BA0003FFFFFD4FFD4FFFFFFFF00FFEEE5E3E3BD
:101BB000E3E7EEFF00FFFFFFFFD4FFD4FFFF3FD0BE
:101BC0006F292E77D7B3F3F3F3F797F7F7F7F7B754
:101BD000D7772E296FD03FFFFFFFFFFFFFFFFFFFEB
:101BE000FFFFFFFFFFFFFFFFFFFFFFFFFFFFFFFF05
:101BF000FFFFFFFFFFFFFFFFFFFFFFFFFFFFFFFFF5
:101C0000FFFFFFFFFFFFFF9F606F6F07F6056F6F1E
:101C10006F6E6D6D6D6D6D6E6F6F6F05F6076F6F2B
:101C2000609FFFFFFFFF3FDFEFEF80FFBFFFBFFFC2
:101C3000BFFFBFFF80EFEFDF3FFFFFFFFF9F606F42
:101C40006E04F4066F6F6A6A6A6A6A6A6A6A6A6F21
:101C50006F06F4046E6F609FFFFFFFFFFFFFFFFF43
:101C6000FFFFFFFFFFFFFFFFFFFFFFFFFFFFFFFF84
:101C7000FDFDFDFDFDFDFDFDFDFDFDFDFDFDFDFD94
:101C8000FDFDFDFDFFFFFFFFFFFCFCFCFCFEFFFF79
:101C9000FFFFFFFFFFFFFFFFFFFFFFFEFCFCFCFC61
:101CA000FFFFFFFFFFFCFCFCFCFCFCFCFCFCFCFC65
:101CB000FCFCFCFCFCFCFCFCFCFCFFFFFFFFFFFC55
:101CC000FCFCFCFEFFFFFFFFFFFFFFFFFFFFFFFF2E
:101CD000FFFEFCFCFCFCFFFFFFFFFFFDFDFDFDFD2B
:101CE000FDFDFDFDFDFDFDFDFDFDFDFDFDFFFFDC41
:101CF00000B4009300B4004A01B400008006101A3A
:101D00002C0032002100320037003200008004082D
:101D1000FFE0F1FB456D7074797E7468657E6275D5
:101D2000636B65740A62797E676F696E677E6F7533
:101D300074736964652E0A49747E646F65737E6E80
:101D40006F747E6E6565640A746F7E62657E66750B
:101D50006C6C7E666F727E69740A746F7E62657EDB
:101D6000656D70746965642E004661696C696E67A3
:101D70007E746F7E63617463680A617E64726F70E3
:101D80007E77696C6C7E73746172740A617E6669B9
:101D900072657E616E647E636F73740A796F757E9F
:101DA000617E6C6966652E0043617463687E746849
:101DB000657E64726F70730A6265666F72657E74A9
:101DC0006865797E6869740A7468657E666C6F6F91
:101DD000727E746F7E6761696E0A706F696E74736C
:101DE0002E0010110CFFFF01010101010101010191
:101DF00001010101010101010101010101010101D3
:101E0000010101010101010101FFFF0202020202C1
:101E100002020202020202020202020202020202A2
:101E2000020202FFFF03030303030303030303038D
:101E30000303030303030303030303030303030372
:101E4000030016161616000000000101010104052A
:101E500006070809161616161616000000000101DE
:101E600001010405060708091616161616160000C5
:101E70000000010101010405060708090A0B0C0D09
:101E80000E0F101112131415161616161616161616
:101E9000161616161616161616161616161600000E
:101EA0000000000000000000000000000000000032
:101EB0000001010101010101010101010101010113
:101EC00001010101010202020202020202020202F7
:101ED00002020202020202020202020202020202E2
:101EE00002020202020202020202020202020200D4
:101EF000000000000000000000000000111112129C
:101F000013131212111112121313121211111111B3
:101F100011111212131312121111121213131212A1
:101F200011111111111110100F0F0E0E0D0D0C0CBF
:101F30000B0B0A0A090909090A0A0B0B0C0C0D0EF6
:101F40000F1011121314151616161616161616164D
:101F500015141312111213140049667E68657E660B
:101F600061696C737E746F0A63617463687E746800
:101F7000657E6F696C7E69740A77696C6C7E6661D8
:101F80006C6C7E6F6E7E7468650A637573746F6DBA
:101F90006572737E62656C6F770A616E647E636FD3
:101FA00073747E617E6C6966652E005468726F770B
:101FB0007E7468657E6F696C7E746F0A796F757266
:101FC0007E636F6C6C65616775650A746F7E6761AF
:101FD000696E7E706F696E74732E00130C00FFFFC4
:101FE00001010101010101010101010101010101E1
:101FF00001010101010101010101FFFF02020202D1
:1020000002020202020202020202020202020202B0
:1020100002020202020202020202020202020202A0
:1020200002020202FFFF00000000000000000000AA
:1020300000000000000000000000000000000000A0
:10204000000000000000020406080A0C0E10121422
:1020500016181A1C1E202224262626262624222074
:102060001E1C1A18161412100E0C0A080604020080
:1020700000000000000045454545454545454545AE
:1020800045450001024545454545454545454545CC
:102090004545454545450001030405060708090A6D
:1020A0000B0D0E0F10111213141516161616161608
:1020B00016161718191A1B1C1D1E1F20212121215D
:1020C00021210D0C0B0A0908070605040302010073
:1020D00000000000000102030405060708090A0BBE
:1020E0000C0D0E0F101112131414141414141414D4
:1020F00014141414141414141414141414141414A0
:1021000014141414141414141414141414145573EF
:10211000657E69747E7768656E0A796F757E617217
:10212000657E656D707479696E670A796F75727E08
:102130006275636B65747E746F0A64656369646558
:102140007E77686963687E7761790A746F7E676FEE
:102150002E0048616E67696E677E6F6E7E7468657B
:102160000A6761726167657E77616C6C7E69730A6C
:10217000617E6D61707E746861747E73686F777361
:102180000A796F75727E636F6C6C656167756573D4
:102190000A706F736974696F6E2E000C0C00FFFF7C
:1021A000010101010101010101010101010101011F
:1021B00001010101010101010101FFFF020202020F
:1021C00002020202020202020202020202020202EF
:1021D00002020202FFFF446F7E6E6F747E737065B1
:1021E0006E647E746F6F0A6C6F6E677E6F7574734A
:1021F0006964650A77616974696E677E666F727E6D
:10220000796F75720A636F6C6C65616775657E6165
:10221000737E796F750A6D61797E63617573657E12
:10222000610A666972657E696E736964652E004C29
:10223000696B65776973657E7768656E7E796F75A2
:102240000A6172657E6F7574736964657E796F75F6
:102250000A63616E7E7365657E64726970737E0A5F
:10226000666F726D696E677E696E736964652E0054
:102270001007001C3F3F1C0406000400002E2E7EA9
:102280007469707E7468657E6F696C7E6F6E0A74A7
:10229000687265657E637573746F6D6572730A64C9
:1022A0006F776E7E62656C6F772E0012081F0204D6
:1022B000021F001F0012151509001215150900084C
:1022C00008387C5F0E7F7834005468657E67616DE6
:1022D000657E69737E6F7665720A7768656E7E7952
:1022E0006F757E6D6973730A74687265657E6F6958
:1022F0006C7E64726970730A696E736964657E6F5F
:10230000727E2E2E008040FBF7E7E3C3A1B0B8B881
:102310007879790901010123B3B3B3B3B3B3B3B38C
:10232000B3B3B3B3B3B3B3B3B3B383718031B3B3A4
:10233000B3B3B3B3B3B3B3B3B3B3B3B3B3B3B3B36D
:10234000B3B3B3B3B3B3B3B301F001B3B3B3B3B384
:10235000B3B3B3B3B3B3B3B3B3B3B3B3B3B3B3B34D
:10236000B3B3B3B331807183B3B3B3B3B3B3B3B364
:10237000B3B3B3B3B3B32301010101797978B8B82A
:10238000B0A1C3E3E7F7FB0F0F1F1F3F3F7F7FFFA6
:10239000FFFFFFFFFFFEFEFFFFFEFDFDFBFBF7F76C
:1023A0000FEFEFEFEFEFEFEFEFEFEFEFEEEFEFEF1E
:1023B000EFEFEFEFEFEFEFEFEFEFEFEFEFEFEFEF2D
:1023C000EFEFEFEFEFEFEFEFEFEEEFEFEFEFEFEF1E
:1023D000EFEFEFEFEFEFEFEFEFEFEFEFEFEFEFEF0D
:1023E000EFEFEFEFEFEEEFEFEFEFEFEFEF0FF7F7CE
:1023F000FBFBFDFDFEFFFFFEFEFFFFFFFFFFFFFFFC
:10240000FFFFFFFFFFFFFFB6B66C6C6858D8B0B097
:10241000A0616143C38787FFFFFFFFFFFFFFFFFF4F
:1024200000FFFFFFFFFF07078747A7D7E7F7F7F78B
:10243000F7F7F7F7F7F7F7F7F7F707FFFFFFFFFFF4
:10244000FFFFFFFFFFFFFFFFFFFFFFFFFFFFFFFF9C
:10245000FFFFFFFFFFFFFFFFFFFFF7F757F7F7F75C
:10246000F7F7F7F7F7F7F757F7F7FFFFFF00FFFF6B
:10247000FFFFFFFFFFFFFFFFFFFFFFFFFFFFFFFF6C
:10248000FFFFFFFFFFFFFF9A9A95B5B5B52A6A6A6D
:10249000555555D5AAAAFFFFFFFFFFFFFFFFFFFF1E
:1024A00000FFFFFFFFFF00FDFEFFFFFFFFFFFFFF3D
:1024B000FFFFFFFFFFFFFFFF7FFF00FFFFFFFFFFAB
:1024C000FFFFFFFFFFFFFFFFFFFFFFFFFFFFFFFF1C
:1024D000FFFFFFFFFFFFFFFFFFFF7D7D557D7D7D40
:1024E0007D7D7D7D7D7D7D557D7DFFFFFF00FFFF37
:1024F000FFFFFFFFFFFFFFFFFFFFFFFFFFFFFFFFEC
:102500007F7F7F7F3F3F3FFFFFFFFFFFFFFFFFFF1B
:10251000FFFF00000000FFFFFFFFFFFFFFFFFFFFC7
:1025200000FFFFFFFFFFF0F7F7F7F7F7F7F7F7F711
:10253000F7F7F7F7F7F7F5F4F4F7F0FFFFFFFFFF12
:10254000FFFFFFFFFFFFFFFFFFFFFFFFFFFFFFFF9B
:10255000FFFFFFFFFFFFFFFFFFFFFFFFFFFFFFFF8B
:10256000FFFFFFFFFFFFFFFFFFFFFFFFFF00FFFF7A
:10257000FF07F7F7F3FB03FF01010000FEFEFEFE7D
:10258000FEFFFFFFFFFFFFFFFFFFFFFFFFFFFFFF5C
:10259000FFFF00000000FFFFFFFFFFFFFFFFFFFF47
:1025A00000FFFFFFFFFFFFFFFFFFFFFFFFFFFFFF3A
:1025B000FFFFFFFFFFFFFFFFFFFFFFFFFFFFFFFF2B
:1025C000FFFFFFFFFFFFFFFFFFFFFFFFFFFFFFFF1B
:1025D000FFFFFFFFFFFFFFFFFFFFFFFFFFFFFFFF0B
:1025E000FFFFFFFFFFFFFFFFFFFFFFFFFF00FFFFFA
:1025F000FF000101030300FF00000000FFFFFFFFD9
:10260000FFFFFFFFFFFFFFFFFFFFFFFFFFFFFFFFDA
:10261000FFFF00000000FFFFFFFFFFFF7F7FBFBF46
:10262000C0DFDFDFDFDFDFDFDFDFDFDFDFDFDFDFD9
:10263000DFDFDFDFDFDFDFDFDFDFDFDFDFDFDFDFAA
:10264000DFDFDFDFDFDFDFDFDFDFDFDFDFDFDFDF9A
:10265000DFDFDFDFDFDFDFDFDFDFDFDFDFDFDFDF8A
:10266000DFDFDFDFDFDFDFDFDFDFDFDFDFC0BFBFD9
:102670007F000100000000FF00000000FFFFFFFFDF
:10268000FFFFFFFFFFFFFFFFFFFFFFFFFFFF7FBF1A
:10269000BFDFC0E0F010575B5D5D5E5E5F5F5F5F58
:1026A0005F5F5F5F5F5F5F5F5F5F5F1FFFFFFFFFFA
:1026B000FFFFFF1F5F5F5F5F5F5F5F5F5F5F5F5F8A
:1026C0005F5F5F5F5F5F5F5F5F5F5F5F5F5F5F5F1A
:1026D0005F5F5F5F5F5F5F5F5F5F5F5F5F5F5F5F0A
:1026E0005F5F5F5F5F5F5F5F5F5F5F5F5F5F5F5FFA
:1026F0005F5F5E5E5C5C18F7F0E0E0C0DFBFBF7F4D
:10270000FFFFFFFFFFFFFF1014000CFEFEFEFEFFA9
:10271000FFFFFFFFFFFEFEFEFE0CC3FFFFFFFFFFFC
:10272000FFFFFFFFFFFFFFFFFFC3207FFFFFFFFF54
:10273000FFFFFFFFFFFFFFFF7F201018F3050D0DC8
:10274000EDEEEEEEEE0E0E0D0D0D05F33C818282E8
:10275000FBFBFBFBFB0202028282813CDFA02040EC
:102760007D7D7D7D7D4141414020A0DF501803FFEC
:102770000000000078787800000103FFFF000000EF
:102780000078787878F8F8FF07FB0F000080F88071
:1027900000000FFF03FF00000000F8F8F800000140
:1027A00003FFFF000000007FFFC37F00000000FF69
:1027B0008FBFA7A1A1E0F8F87800010107FF00FF93
:1027C00000000000FC0CFC00000207FFFF000000FE
:1027D000007C7C7C7C7F7FCFF01F000000C747C758
:1027E0000000001FF0FF000000007F7F7F0000005E
:1027F00000FFF9F7EC08F800000000F8F8FCFFFF14
:10280000FFFFFF03FF6161606060FCFEFFFFF0F708
:10281000F4F4F4FCFFF0F7F4F4F4FCF3F7F4F4F45C
:10282000F4F4F4F4F4F4FCF3F7F4F4F4FCFFF0F74C
:10283000F4F4F4FCF3F7F4F4F4F4F4F4F4F4FCFE3C
:10284000FFFFFFFFFFF0F7F4F4F4FCFFFFFFFFFFD3
:10285000FFFFFFF0F7F4F4F4F4FCFFFFFFFF0808BC
:1028600000606E0202626E0080606E120A626E018B
:102870000F1011CDECF4F6EF1FBFC7F38D26068CB9
:10288000F99F3F4783934780FFEFDF3F3F3FBF9F65
:1028900011CDECF4F6EF1FBFC7F3FD7E3E3C7991FE
:1028A0002064F1FF7F80FFEFDF3F3C39B89C11CD02
:1028B0002C14962F1FBFC7F3FDFEFEFCF99F3F7E31
:1028C000FCFC7E80FFEFDF230901A39F8040FDFD1C
:1028D000FDFD3DDD3D0D0D05C5C5C5050D0D3DDD00
:1028E000FD05050505FD1DFD05050505FDFDFDFDB8
:1028F000FDFDFDFDFDFDFD7D7DFDFDFDFD7D7DFD08
:10290000FDFDFD7D7DFDFDFDFDFD7DFDFDFDFDFD77
:10291000FDFDFDFDFDFDFDFDFDFDFD7D7D3D3D9DC7
:102920009DDDDDDDDD873BED55AD55AD55AD55ADDF
:10293000F9F9FBF3E7CD1D3DFDFDFDFDFDFDFDFDC1
:10294000FDFDFDFDFDFDFDFDFDFDFDFDFDFDFFFFB3
:10295000FFFF00FF00000000FFFFFF00000000FF7E
:10296000FF00000000FF00FF00000000FFFFFFFF6E
:10297000FFFFFFFFFF0FF0FFFE00C0C0C0C1FE0061
:10298000C0C0C0C0C7F800C0C0C0C3FC01FFFFFF8B
:10299000FFFFFFFFFFFF07F3F9FCFEFEFFFFFFFF56
:1029A000FFFFFFFF7F3F3EB893260D4A4D4ACDDF24
:1029B000DFDF9FBFB53F00003F7F7F7FFFFFFFFF4F
:1029C000FFFFFFFFFFFFFFFFFFFFFFFFFFFFFFFF17
:1029D000FFFFFCF3ECD0D0A0A3A3A3A0D0F0FC8316
:1029E000BFA0A0A0E0FF80BFA0A0A0A0A1A1A1E1E6
:1029F000FFFFDFBF9F9CC3A79FC0C7C7C7A79FC0DC
:102A0000C7C7C787BFC7C0C7C7C7B7CFA09F9F9F4C
:102A1000BFBFFFFFFFFFFCF36F9FBFBF3F9F1F477D
:102A200037B3D1D8BC7FFF1FCFF6FAFAF2E48C3F60
:102A3000FFFFFFFFE18000000080E0F0F07B7BF70C
:102A40000F0FF7FB6B07E7D78F3F7FFFFFFFFFFFFE
:102A5000FFFF0FFF03030303E3E3E30303070FFF9A
:102A60003F030303E30303033FFF0FFF03030303DA
:102A70000F7FFF03030303FF0FFF03030303FF1F86
:102A8000EF1F070703E3E3E30307071FFFFFFFFF52
:102A9000FFFFFFFF0F33353636B5BA9200D8007C02
:102AA000FFFFC7839300FE8349C1E3FFFF7F1F80C1
:102AB000FFFFFFFFFFFFFEFCFCFFFFF198C3F17F6C
:102AC0008080C7FFFFF881FFF0C0FF60BDC1FFFF3E
:102AD000FFFF00FF00000000E3E3E3E0E030D87F09
:102AE0000000001E1F1E0000007FC0FF000000004D
:102AF000F0800300000000FF00FF00000000FF0066
:102B0000FF00000000FFFFFF0E0E0E0EFFFFFFFF95
:102B1000FFFFFFFBC43FFFFFFFF7F3E38180001ED1
:102B20003499DBE3F1FEFFFFFFFCFCFC7E76FFFB4C
:102B3000FFFEFFFFFFFFFFFFFFFFFF1F07F1FCFF8F
:102B4000FFFFFFFFFFFFFFBF1F4F77787FFF7F7FF4
:102B50007F7F405F505050707F7F7F7F7F405F500E
:102B60005050707F415F505050704F5F50505070C8
:102B70007F4F5C50505070FF603FB0D0D8E8EFE816
:102B8000EFECE8E8E8EBEBEBE8E8E8ECF7F7F7F771
:102B9000FBFDFD0EC6E0F0FF8F07FBF9FCFC7E7E1F
:102BA0007F7F3F3F9F9F8F0F9F9F4E44B0B397976C
:102BB000BF7777F7F7FBFFFFFFFFFFFFFCF3070F80
:102BC0001F3F3F7F3F8FE3F9FCFEFFFFFFFE010148
:102BD00001010101010101010101010101010101E5
:102BE00001010101010101010101010101010101D5
:102BF0000101010101017F8100FEFFFFFFFFFFFFD7
:102C0000FFFFFFFFFFFFFFFFFFFFFFFFFF830F7FC0
:102C1000FFFFFF801F7F7F7F3F3E1C0404000000FA
:102C200000000C7E8E76F2797D7E3E3F1F0F0703FB
:102C3000010000010FFFFFFFFFFFFFFFFF07800004
:102C400000000000000303030707070F3FFF000019
:102C50000000000000000000000000000000000074
:102C60000000000000000000000000000000000064
:102C70000000000000000000030C33479F3FFFFFEF
:102C8000F3E3C7CF9FBF3F3F3F7F7F7FBFBFFEFCC8
:102C9000FCF9E7E7F7E2E0C0C08080000000000038
:102CA00000000000000102040830408040C0E070D5
:102CB00078389CC6C0FFFFFFFFFFFF1F80F8FFE0D2
:102CC00000000000000000000000C0E0E0E1412042
:102CD000FE0105F1F1F111D1B1D111F15151515173
:102CE000515151515151515151510000FF00007F3C
:102CF0007F09090F06007F7F19396F46007F7F49E2
:102D000049414100266F49497B3200266F49497B82
:102D100032FF0000FFFFFFFEFFFEFF0279CD95A509
:102D2000CD790111111101F9F901010000FF000035
:102D30007F7F09090F06007F7F40404040007C7E76
:102D40000B0B7E7C00070F78780F07007F7F3E1CFF
:102D50000800FF00001F3F3F33333333333E363626
:102D60003E363E363E36363E36363E360000FF00B4
:102D7000003E7F41417F3E007F7F0E1C7F7F000031
:102D80000000000000000000000000000000000043
:102D90000000003F40504040407846414159594171
:102DA0004141415959414141414141414100007F27
:102DB000000001017F7F0101007C7E0B0B7E7C0007
:102DC0007F7F09090F06007F7F49494141000000CC
:102DD000000000008801A0014B02D0008801A00182
:102DE0004B026F021003D0007201D0008801D000A6
:102DF000EE01D0009302A0017201D0008801A00171
:102E0000EE016F021003D0001003D0008801D00043
:102E1000EE01D0008801A0014B02D0008801A00182
:102E20004B026F021003D0007201D0008801D00065
:102E3000EE01D0009302A0017201D0008801A00130
:102E4000EE016F021003D0001003D0008801D00003
:102E5000EE01D0000B02D0009302D0001003D0008E
:102E60004B02A0011003D000EE01D0004B02D000B5
:102E70001003D0004B026F024B0253070080080B77
:102E80000002020200000904000001020200000525
:102E90002400100105240101010424020605240672
:102EA00000010705810310004009040100020A0027
:102EB00000000705020240000007058302400000F1
:102EC0000403090412010002EF020140412336808D
:102ED00000010102030141726475696E6F204C4C60
:102EE00043006D6963726F6361646500C5261124D8
:102EF0001FBECFEFDAE0DEBFCDBF13E0A0E0B1E050
:102F0000EEE8FBE602C005900D92A63DB107D9F7A9
:102F100028E0A6EDB3E001C01D92AA3AB207E1F79E
:102F200017E1C7E7D7E104C02197FE010E94B83539
:102F3000C637D107C9F70E940C270C94C5350C94ED
:102F4000000080918408089580911603E82FF0E036
:102F5000EF54FD4F92A9913039F4873128F49093C2
:102F600015038F5F809316030895E4E3F4E0A0E077
:102F7000B8E000800EBC8111012C1197A0FDFDCF9F
:102F80000192B9F70DB40895FC01809133048823B0
:102F900011F13FB7F89482E08093E9002091F200AC
:102FA000822F90E01816190614F481E090E088232F
:102FB00039F0289844E6409332044091F100408370
:102FC000222339F02091F200211103C02BE6209337
:102FD000E8003FBF08958FEF9FEF08952FB7F89453
:102FE00083E08093E9009091E800892F807295FF3B
:102FF00004C09091F20080E4891B2FBF0895809156
:103000002A0481110DC082E08093260484E080931D
:103010002704109229041092280481E080932A0446
:1030200086E294E00895CF93DF931F92CDB7DEB789
:103030006983DC01ED91FC910280F381E02D41E098
:1030400050E0BE016F5F7F4F09950F90DF91CF91E8
:10305000089583E08093E9008091F200882319F0BD
:103060008AE38093E80008950E94EE1790E00895A7
:10307000CF93DF931F92CDB7DEB7FC018485958592
:1030800097FD08C02FEF3FEF358724870F90DF9122
:10309000CF910895CE0101960E94C417019719F4AB
:1030A000898190E0F3CF8FEF9FEFF0CF0F931F93C5
:1030B000CF93DF931F92CDB7DEB78C01FC018485DF
:1030C000958597FF0BC0CE0101960E94C41701970A
:1030D00071F4898190E0F80195878487F8018485EF
:1030E00095850F90DF91CF911F910F9108958FEFEC
:1030F0009FEFF1CFFC018485958597FD0BC09FB7AD
:10310000F89482E08093E9008091F2009FBF90E004
:10311000019608959FB7F89482E08093E90080912A
:10312000F2009FBF90E00895409120045091210447
:1031300020911E0430911F0442175307B4F490915C
:10314000E8009570E1F39091E80092FD19C080933A
:10315000F100809120049091210401968F739927AA
:10316000892B19F48EEF8093E800809120049091D0
:1031700021040196909321048093200481E0089516
:1031800080E00895DF92EF92FF920F931F93CF9309
:10319000DF93D82E8A01EB017B01E40EF51ECE15DC
:1031A000DF0559F0D7FE12C0FE0184910E949418E9
:1031B00021968111F4CF0FEF1FEFC801DF91CF915E
:1031C0001F910F91FF90EF90DF9008958881EECFCF
:1031D0000F931F93CF93DF931F92CDB7DEB782E09B
:1031E000898342E450E06EE77EE280E80E94C218E4
:1031F0000E94FF17DC0112960D911C91011511051B
:1032000089F0D801ED91FC910280F381E02DBE019F
:103210006F5F7F4FC801099597FD04C0F8010085D5
:103220001185ECCF89810F90DF91CF911F910F9184
:103230000895615030F02091F100FC012083019647
:10324000F8CF289884E6809332040895AF92BF9215
:10325000CF92DF92EF92FF920F931F93CF93DF9362
:103260006C017B018B01040F151FEB015E01AE1891
:10327000BF08C017D10759F06991D601ED91FC91B3
:103280000190F081E02DC6010995892B79F7C501E0
:10329000DF91CF911F910F91FF90EF90DF90CF9032
:1032A000BF90AF900895FC010E94EA19319728F071
:1032B00068517C4F8F4F9F4FF9CFAB01FC010E94AB
:1032C000EA19641775078E079F07C8F308958F9250
:1032D0009F92AF92BF92CF92DF92EF92FF920F93A5
:1032E0001F93CF93DF936C017B018A018091B00221
:1032F000882309F45AC080913304882309F455C007
:103300008091250480FF05C08091E0008260809359
:10331000E000E801B12C8AEFA82E93E0892E2AE381
:10332000922E209711F4BB20C9F10E94EE17811153
:1033300008C0AA94AA20C9F181E090E00E94531924
:10334000F0CF8C171D0611F00CF08C2F9FB7F8945E
:103350008092E9002091E80025FD02C09FBFE1CFE7
:10336000282F30E0C21BD30BF701815020F0419190
:103370004093F100FACFE20EF31EBB2021F09092B1
:10338000E800B12CEBCF8091E80085FDE7CF90926B
:10339000E800BB24B394209709F3F3CF5D9884E64B
:1033A00080932404101611063CF081E090E0F601B1
:1033B0009383828310E000E0C801DF91CF911F91D9
:1033C0000F91FF90EF90DF90CF90BF90AF909F90C4
:1033D0008F900895A0EFB3E02FB7F8947D918D9171
:1033E0009C9166B52FBFA89B05C06F3F18F47F5F07
:1033F0008F4F9F4F22E0660F771F881F991F2A95D6
:10340000D1F708952091E703E091E503F091E603F9
:10341000CF0102969093E6038093E503222319F0EF
:10342000859194910895808191810895E1E7F0E07C
:1034300080818D7F808310929100469847981092EA
:10344000E4030895CF92DF92EF92FF92CF93DF9340
:103450000E94021A811520E8920741F4DF91CF9172
:10346000FF90EF90DF90CF900C94161A21E02093FC
:10347000E403813020E8920751F48091E2039091B7
:10348000E3039093E6038093E5030E94021A97FDFD
:1034900005C02091E103222309F45BC02091E003E1
:1034A000211157C021E02093E803EC01DF7720973A
:1034B00009F052C081E08093E90346983FE9C32EAA
:1034C0003FE0D32EE12CF12CCAEFD0E0E09193083D
:1034D000F09194080995811103C081E08093E9037C
:1034E0008091E803882329F08091E903882309F477
:1034F00046C047980E94021A009709F444C09C01F4
:10350000DE010E948135DC01CB0129E0B595A7954C
:10351000979587952A95D1F7109290002AE02093ED
:103520009100D0929900C09298008093EA03909302
:10353000EB03A093EC03B093ED03809171008260E4
:1035400080937100DF91CF91FF90EF90DF90CF904B
:1035500008951092E803A9CF9E0150E040E060E496
:1035600072E48FE090E00E942D3569017A0181E0DC
:10357000C81AD108E108F1081092E903A7CF4699CB
:10358000B8CF479AB7CF8FEF9FEFDC01C5CF9C0133
:10359000E1E7F0E090819D7F908381E08093E703F5
:1035A0003093E6032093E5033093E3032093E20393
:1035B0000C94221A9C01E1E7F0E090819D7F9083BA
:1035C0001092E703E5E8F8E0F093E603E093E50303
:1035D000F093E303E093E2033183208373836283F8
:1035E00080E090E8958384830C94221A6F927F92F6
:1035F0008F929F92AF92BF92CF92DF92EF92FF9203
:103600000F931F93CF93DF934C01CB013A017C2D95
:10361000FA01649131965491F2E06F0E711CC62F3D
:10362000D0E0211102C0EE2009F1E1E0F0E0352FF9
:10363000377011F4F0E0E0E0A52FA695A695A695C9
:10364000AE0FBF2FB11DAC9FF001AD9FF00DBC9F21
:10365000F00D1124733009F08BC0EE0FFF1F2E9F69
:10366000D0012F9FB00D11246A0E7B1ED401AC0F28
:10367000BD1F1A161B060CF06CC020E882169104C0
:103680000CF067C09C01250F311D121613060CF0BB
:1036900060C0803491050CF05CC06114710409F4C1
:1036A00058C0382F3770FC0197FD379623E0F59509
:1036B000E7952A95E1F72E2F97FF04C0332311F0E9
:1036C0002FEF2E0FEE27FF27E819F90997FC02C00C
:1036D000F0E0E0E090E89819A038B1050CF4962FDE
:1036E0009E1BA22F022E000CBB0B4A2F40952F3F92
:1036F0000CF040E0DD24D394852F877009F4D12CA1
:10370000569556955695D50EAD0DB11D19971CF0D1
:1037100058E0D52ED21AD41A240F50E82503D00130
:103720001124A80DB91DAE0FBF1F649FE00DF11D40
:1037300011246E0E7F1EE32E032E000CFF08733043
:1037400009F423C108F5713009F4D6C0723009F4C8
:1037500084C0DF91CF911F910F91FF90EF90DF9088
:10376000CF90BF90AF909F908F907F906F90089573
:103770000115110509F473CFEE9ED001EF9EB00D37
:1037800011240A0F1B1F6BCF7A3FB1F10D2D020FD1
:103790007B3FF9F62017E9F2BD016C5C7B4FD12C21
:1037A000C12CC91608F0A2C0F301EC0DFD1DE49177
:1037B000F0E0AF010E2C02C0440F551F0A94E2F74F
:1037C00027FD06C0FB018081142F10958123808383
:1037D000332361F0273054F45B01F0E8AF0EB11CE5
:1037E000452F4095F501808184238083FFEFCF1A18
:1037F000DF0A6F5F7F4FD5CF0D2D020F201709F421
:10380000A8CFBD016C5C7B4FD12CC12CC91608F030
:1038100067C0F301EC0DFD1DE491F0E0AF010E2C4B
:1038200002C0440F551F0A94E2F727FD04C0FB01B4
:103830008081842B8083332351F0273044F45B0153
:10384000F0E8AF0EB11CF5018081852B8083FFEF7E
:10385000CF1ADF0A6F5F7F4FD9CF6FEF70E0032E73
:1038600002C0660F771F0A94E2F760957095972E55
:103870008D2C820E281509F46CCF8D010C5C1B4F2A
:10388000D12CC12CC91630F5F301EC0DFD1DE491CE
:10389000F0E0AF010E2C02C0440F551F0A94E2F76E
:1038A00027FD05C0F80180818623842B8083332384
:1038B00059F027304CF45801F0E8AF0EB11CF50177
:1038C00080818921852B8083FFEFCF1ADF0A0F5F6C
:1038D0001F4FD8CF2F5F6C0E7D1EA058BF4FCACF91
:1038E0002F5F6C0E7D1EA058BF4F88CF2F5F6C0ED0
:1038F0007D1EA058BF4F4ECF0E0F1F1F8D2D820F64
:10390000281709F426CFBD016C5C7B4FD12CC12C4C
:10391000C91698F5F801EC0DFD1DA490B12C0E2CE4
:1039200002C0AA0CBB1C0A94E2F7A094B094F30165
:10393000EC0DFD1D8490912C0E2C02C0880C991C5E
:103940000A94E2F727FD08C0FB014081E42FEA2139
:103950004E2F4829FB014083332349F027303CF4A4
:10396000FB01E058FF4FA080BA20B928B082FFEFDA
:10397000CF1ADF0A6F5F7F4FCBCF2F5F6C0E7D1E9C
:103980000C0F1D1FA058BF4FBBCFE92EF12CE60D29
:10399000F71DAC5CBB4F60E870E06E197F09CE1973
:1039A000DF09AE01440F551FC1E0D0E07E01032EB8
:1039B00001C0EE0C0A94EAF7192F0D2D892E932ED3
:1039C000CF93DF93ED01EF96EF962296A590C590E9
:1039D000992059F0AE9C5001CE9C600127302CF408
:1039E000F880D094FD20FB28F99222233AF0FC9035
:1039F000C094FC20FA28FD920C94FF1C11961A9595
:103A000029F70A9551F0182D23951124E40FF11D83
:103A1000A60FB11DC60FD11DD9CFDF91CF911124B3
:103A200098CECF92EF920F931F933BEFC32EE12CD2
:103A300010E000E00E94F61A1F910F91EF90CF90D6
:103A40000895CF92EF920F931F9332E0C32EE12C93
:103A500010E000E00E94F61A1F910F91EF90CF90B6
:103A60000895CF92EF920F931F93F901202FCC244A
:103A7000C3948F010E94F61A1F910F91EF90CF907F
:103A8000089590E00C9453198FB18095807F669BC8
:103A900088601C9B84600895109284083E98579813
:103AA00008953E9A579A81E08093840808959091F2
:103AB0001904982329F490911A04982381E009F4B9
:103AC00080E0089580389105B8F460347105A0F461
:103AD00090E121E061FD24E060FD220F62FD22956E
:103AE000687F969FD0011124A80FAC5CBB4F0C904F
:103AF000022A40FF02260C9208952F923F924F9285
:103B00005F926F927F928F929F92AF92BF92CF926D
:103B1000DF92EF92FF920F931F93CF93DF938C016D
:103B2000EB014A01861A970A97FE03C0919481948B
:103B3000910880E890E01C01201A310A90E8492E93
:103B4000512C281439045CF44C175D07DCF52E0168
:103B5000902F812F8A01492F582FC0E8D0E03201E1
:103B6000601A710A6A01CC1ADD0AD7FE03C0D1942B
:103B7000C194D108730177FE03C08FEFE81AF80AE9
:103B8000F594E7948FEFC417D5070CF481E0A82EC5
:103B9000880FBB0840165106F4F040E0B801CE0192
:103BA0002814390414F0BE01C8010E94621DEC18EB
:103BB000FD08F7FE04C0CA0DDB1DE60CF71C0F5F05
:103BC0001F4FE8CF2A01902F812F8E01C92FD82FA8
:103BD00040E850E0C4CFDF91CF911F910F91FF904B
:103BE000EF90DF90CF90BF90AF909F908F907F909D
:103BF0006F905F904F903F902F9008958F929F927B
:103C0000AF92BF92CF92DF92EF92FF920F93CF933A
:103C1000DF934B01EC015C01A40EB11C7B01E20EB1
:103C2000F11CCA15DB05B4F46401C70121E4E216F6
:103C3000F10414F080E490E0C816D9064CF4402F4B
:103C4000B601CE010E94621D8FEFC81AD80AEDCFCF
:103C50002196E7CFDF91CF910F91FF90EF90DF900A
:103C6000CF90BF90AF909F908F900895CF92EF929A
:103C70000F931F93CF93DF93EC019E816A3071F411
:103C80008D818C836985960F9E8381E090E0DF9122
:103C9000CF911F910F91EF90CF900895262F6A3307
:103CA00060F4603368F5613269F16E3229F198850C
:103CB0009C5F8C81890F8C83E8CF6134C0F36B35B6
:103CC000E8F08FE9860F27548A3188F761E0690FA1
:103CD000062E000C770B8C81082E000C990B3F816F
:103CE000313091F43AEFC32EE12C10E000E04CE4C7
:103CF00051E10E94F61ADBCF2FE3E8CF2154E6CF43
:103D00002C5FE4CF2EE3E2CF4CE451E10E94111D81
:103D1000CECFCF92EF920F931F93CF93DF93EC010F
:103D20006A3079F48D818C838E819985890F8E8399
:103D300081E090E0DF91CF911F910F91EF90CF90B4
:103D400008958C816E3719F48E5F8C83F1CF262F06
:103D50006A3358F4603358F5613259F16E3219F113
:103D600098859D5F8C81890FF0CF6134C8F36B35E6
:103D7000E0F09FE9960F27549A3190F76E816F5FBC
:103D8000062E000C770B082E000C990B3F8131306A
:103D900091F43AEFC32EE12C10E000E04AE850E144
:103DA0000E94F61ADDCF2FE3E9CF2154E7CF2C5F35
:103DB000E5CF2EE3E3CF4AE850E10E94111DD0CFBA
:103DC0000F931F93CF93DF938C01D0E0C0E0F801F5
:103DD000EC0FFD1F6491662341F080EA98E00E9499
:103DE000891E892B11F02196F2CFCE01DF91CF9160
:103DF0001F910F910895089590E080E00895CF936A
:103E0000DF93EC018AAD863150F48F5F8AAF8E303C
:103E100030F464E170E08CED90E00E94DA1A81E009
:103E20009AAD9E3009F080E0DF91CF910895EF9236
:103E30000F93CF93DF93DB01322FDA960C91DA9751
:103E4000063109F43BC081116AC0063108F036C062
:103E5000202F30E0F901EB5CF04ED9969C91D99778
:103E6000C42F440FDD0B0C94B8354B1F4B1F631F41
:103E7000631F6F1F6F1F6F1F6F1F6F1F6F1F6F1FDE
:103E80006F1F6F1F6F1F7B1F7B1F7B1F7B1F8B1F76
:103E90008B1F8B1F8B1F260F371FF901618570E069
:103EA000A90FB11D8C91E12C00E02EE530E143E734
:103EB00050E18C0F9D2F911D0E94311DDF91CF91FC
:103EC0000F91EF900895260F371FF901618570E07B
:103ED000A90FB11D8C91EE24E39401E0E6CF260FEB
:103EE000371FF901618570E0A90FB11D8C9192E037
:103EF000E92E02E0DACF0E50A90FB11D8C9181504E
:103F0000990BE02E2CEC3EE044E95FE068E170E0C4
:103F10008C0F9D1FD1CF85E1801B082FEDCF023183
:103F2000F8F40E30A8F1D9968C91D997823031F6F9
:103F300022EF200F6CE170E0631B710915969C91D4
:103F4000042E000C550BFA01E90FF11DCF014AEBCD
:103F50005EE00197DF91CF910F91EF900C94111DCE
:103F6000063108F0ABCFD9969C91D997923009F0E1
:103F7000A5CF25E1201B6CE170E0631B710915964C
:103F80008C91042E000C550B840F952F911DDFCFC3
:103F9000D9969C91D997923020F09230D1F06FEF62
:103FA00006C00C30E0F7FB01E00FF11D618D631BD3
:103FB000770BA90FB11D13962C91842F440F990BE9
:103FC00040E0820F911DDF91CF910F91EF900C9403
:103FD000621DFB01E00FF11D61A5E9CFCF92DF92D9
:103FE000EF920F931F93CF93DF93909165029D30D3
:103FF00040F012E001E0973130F0905313E09A3036
:1040000008F012E000E02CE430E06901C61AD108A3
:10401000C82F880FDD0BE02E28ED3CE048EC5DE07A
:10402000B601CE0102960E94311DE12E012F28ED2E
:104030003CE048EC5DE0B601CE0184599F4F0E9400
:10404000311DDF91CF911F910F91EF90DF90CF90B5
:104050000895EF92FF920F931F93CF93DF93E82E73
:10406000880FFF08E0911603F0E0EF54FD4F018D3B
:10407000002E000C110B045011090E0D1F1D40E005
:1040800065E170E0C8010E94621D40E066E170E0F9
:10409000C8010E94621D40E067E170E0C8010E9413
:1040A000621DE0919603F0E0E458FC4FC0810C2EB5
:1040B000000CDD0B2497CE0DDF1D40E06BE170E0BE
:1040C000CE010E94621D40E06CE170E0CE010E94D2
:1040D000621D40E06DE170E0CE01DF91CF911F9154
:1040E0000F91FF90EF900C94621DEF920F9341E0BF
:1040F00050E090919503913011F050E040E0E09154
:10410000960399E1949F9001959F300D1124285EAC
:104110003C4FE20FF32FF11D02A929E230E0A90183
:10412000461B5109BA01E081082E000C990BE02EC4
:104130002EE338E04AE85AE08E0F911DE7FD9A958C
:104140000E94311D0F91EF900895962F20916502E6
:10415000223158F42D3008F05AC0223089F1C8F5C8
:104160002223A9F02130F9F00895203360F425329C
:1041700008F07CC0233209F463C008F06EC022321C
:1041800009F451C00895253308F48CC008956FE1F7
:1041900070E0691B7109082E000C990B20E040E3C8
:1041A00058E00D960BC063E270E0691B7109082EA0
:1041B000000C990B21E040E358E00C960C94111D83
:1041C00067E270E0691B7109082E000C990B22E070
:1041D000E6CF30E0A90143505109BA01660F771FBD
:1041E000660F771F695D7F4F691B7109082E000CF0
:1041F000990B0C9657FDA901FA01F595E795F595F0
:10420000E79521E040E358E08E1B9F0BD7CF2D5060
:1042100066E470E0691B7109082E000C990B4EE3EF
:1042200057E00197CBCF6FE170E0691B7109082E51
:10423000000C990B20E040E357E080599F4FBECF20
:1042400063E270E0691B7109082E000C990B21E0F4
:1042500040E357E08F589F4FB1CF67E270E0691B92
:104260007109082E000C990B22E0E5CF2552330B83
:10427000B901660F771F660F771F695D7F4F691B56
:104280007109082E000C990BFC01EF58FF4FC90172
:10429000959587959595879521E040E358E08E0F99
:1042A0009F1F8CCF205366E470E0691B7109082EB4
:1042B000000C990B4EE357E087599F4F7FCFEF9249
:1042C0000F9390911603913041F0D0F0973129F17E
:1042D0009831B1F10F91EF9008952EE030E0A901EF
:1042E000461B5109BA01082E000C990BE12C00E085
:1042F0002EE834E04EED55E00F960E94311DEACFD6
:104300002EE030E0A901461B5109BA01082E000C2D
:10431000990BEE24E39401E0EBCF2EE030E0A9010D
:10432000461B5109BA01082E000C990B32E0E32E0E
:1043300002E02EE834E04EED55E0885A9F4FDDCF85
:104340002EE030E0A901461B5109BA01082E000CED
:10435000990B23E0E22E03E0ECCFEF920F93CF9383
:10436000DF93E0911603F0E0EF54FD4FDF01A55B12
:10437000BF4F0C91C82F880FDD0B8081E02E2CE001
:1043800031E04CEC52E06DE170E0FE01E80FF11D10
:1043900087FDFA95CF010E94311DE091160320910F
:1043A0001703E230C9F0E63129F1222371F12150DF
:1043B000F0E0EF54FD4F8081082E000C990B019620
:1043C00042EB50E061E270E08C0F9D1FDF91CF91D6
:1043D0000F91EF900C94111D2223B9F0215044E06D
:1043E00051E066E270E0CE01DF91CF910F91EF9046
:1043F0000C94211D222349F021504CEF50E065E23E
:1044000070E0CE0182589F4FEFCFDF91CF910F9197
:10441000EF900895EF92FF921F93CF93DF93C62FF3
:10442000D0E0D195C195D10910E0E82E880FFF08A2
:10443000212F4DE656E1BE01C7010E94211D1F5FDD
:1044400028961D30A9F7DF91CF911F91FF90EF9033
:104450000895CF93C62F20E04CEA50E06AE370E065
:1044600090E00E94211DCC2351F020E04EE05DE160
:104470006AE370E08C2F90E0CF910C94211DCF91D6
:104480000895EF92FF920F931F93CF93DF93C82F5E
:1044900010E000E0E82EF12C40E0B801C7010E94D6
:1044A000621D0E5F1F4F02341105B1F7CF5F01E0AF
:1044B00010E0D0E040E0B801CE010E94621D0E5F26
:1044C0001F4F01341105B1F7DF91CF911F910F916B
:1044D000FF90EF9008958F929F92AF92BF92CF92EC
:1044E000DF92EF92FF928135910538F4899768F059
:1044F00081E18093980382E20CC08937910548F1ED
:104500008BE08093980386E104C084E18093980354
:1045100088E28093990380919503813009F455C016
:1045200038F1843069F48091970381508093970328
:10453000811106C080919603882381F08831A1F013
:10454000FF90EF90DF90CF90BF90AF909F908F90B3
:1045500008958EE0809398038CE1DBCF81E0809317
:10456000950380939603ECCF1092950387E1F9CFE2
:10457000809196038150809396038111E1CF84E06E
:1045800080939503C0909903D12CF12CE12C80905D
:104590009803912CB12CA12C8C149D04AE04BF0463
:1045A0008CF4C818D908EA08FB0841F00E94873447
:1045B000A70196010E942D356B017C018C0C9D1C7E
:1045C000AE1CBF1C80929703BBCF809196038F5F78
:1045D00080939603883109F0B3CFD1CF81E00E9458
:1045E000B51740E054E06FEF70E084E394E00C9482
:1045F000BE35EF92FF921F93CF93DF9300D000D090
:1046000000D0CDB7DEB76FE48FE192E00E940D35A8
:1046100060E580E292E00E940D3581E2E82E82E0C2
:10462000F82E11E41A8219821E821D821B831C83BC
:104630001D8346E050E0B701CE0101960E94FD3493
:104640001F5F86E0E80EF11C83E3E81682E0F806BF
:1046500049F726960FB6F894DEBF0FBECDBFDF91A7
:10466000CF911F91FF90EF900895CF93C091840850
:1046700082E090E00E94EF34C81731F06C2F82E0A6
:1046800090E0CF910C941F35CF9108951F920F9217
:104690000FB60F9211248F939F938091E100909118
:1046A000E100937F9093E10083FF0FC01092E90037
:1046B00091E09093EB001092EC0092E39093ED0068
:1046C0001092330498E09093F00082FF22C093E0B0
:1046D0009093E9009091F200992319F09AE3909356
:1046E000E80090912404992341F090912404915082
:1046F00090932404911101C05D9A90913204992302
:1047000041F090913204915090933204911101C084
:10471000289A84FF18C08091E2008E7E8160809389
:10472000E2008091E1008F7E8093E100809125047A
:104730008E7E8061809325049F918F910F900FBE94
:104740000F901F90189580FFF7CF8091E2008E7E2A
:1047500080618093E2008091E1008E7E8093E10091
:10476000809125048E7E8160E5CF1F920F920FB657
:104770000F921124CF92DF92EF92FF920F931F932B
:104780002F933F934F935F936F937F938F939F9359
:10479000AF93BF93EF93FF93CF93DF93CDB7DEB784
:1047A0006C97DEBFCDBF1092E9008091E80083FFD7
:1047B00025C068E0CE0145960E94191982EF8093CA
:1047C000E8008D8987FF39C09091E80090FFFCCF09
:1047D000982F907609F034C19E894F89588D2F8982
:1047E000F88C911131C0803861F580912304809359
:1047F000F1001092F1008EEF8093E8006C960FB6F6
:10480000F894DEBF0FBECDBFDF91CF91FF91EF9146
:10481000BF91AF919F918F917F916F915F914F91D8
:104820003F912F911F910F91FF90EF90DF90CF90CC
:104830000F900FBE0F901F9018959EEF9093E80079
:10484000C7CF1092F100D5CF913059F48111D3CF59
:104850004130510581F6809123048D7F809323049C
:10486000CACF933049F48111C6CF4130510519F6B2
:10487000809123048260F2CF953041F48091E8006A
:1048800080FFFCCF20682093E300B5CF963009F07D
:10489000A9C00B8D1C8D22E01092E900109221041A
:1048A00010922004F2122EC010921F0410921E04C7
:1048B0000E94E8181F8299E09983FA8291E09E8312
:1048C00090EA98879AEF99872091200430912104EB
:1048D000275F3F4F3C832B838D831092E90010921A
:1048E00021041092200410931F0400931E0449E039
:1048F00050E0BE016F5F7F4F80E00E94C2180E94AF
:10490000E81879CF10931F0400931E040E94FF172C
:10491000DC0112960D911C910115110509F451C18C
:10492000D801ED91FC910480F581E02DBE016B5E14
:104930007F4FC8010995009709F03EC1F801008535
:104940001185EACFF3E0FF120EC08F89882309F4A6
:1049500040C0823061F440E869E082EE9EE20E944D
:104960009226811148CF81E28093EB0047CF8130BE
:1049700029F440E86BE086ED9EE2F1CF833099F7B1
:104980000E94FF17DC011296ED90FC908E010F5FE4
:104990001F4F6801E114F10479F0D701ED91FC910A
:1049A0000680F781E02DB801C7010995080F111D98
:1049B000F701E084F184EECFD8011C92F60101905A
:1049C0000020E9F73197BF016C197D0940E0C6016D
:1049D000C6CF60EC7EE2FB01449150E080E80E948B
:1049E000C21809CF973009F4BECF983021F481E086
:1049F0008093F10000CF993009F0FDCE837009F06B
:104A0000B2CFEFE9F3E081E031E096E32191222398
:104A100071F08093E9003093EB00DF0111972C9146
:104A20002093EC009093ED008F5F873079F78EE74D
:104A30008093EA001092EA008F8980933304DBCEE2
:104A40008B8D9C8D1092E90010922104109220040D
:104A500090931F0480931E04898D811192C08E89CA
:104A60009D89913A49F4813209F07DCF47E050E0C9
:104A700069EA72E080E0B3CF913209F074CF8332FB
:104A800069F48F89988DB0E0A0E08093A50290939F
:104A9000A602A093A702B093A802ADCE803269F41B
:104AA0008091E80082FFFCCF67E089EA92E00E94F3
:104AB00019198BEF8093E8009ECE823209F09BCECD
:104AC0008F898093B002EEEFFFE7859194918B3F41
:104AD0009C4D51F1E0E0F8E08091A9029091AA028A
:104AE000A091AB02B091AC02803B9440A105B1050E
:104AF000F1F48091B00280FD1AC0EE3F8AE0F80721
:104B000089F587E797E791838083809160008093A0
:104B1000220488E19BE00FB6F894A895809360008A
:104B20000FBE9093600067CEEEEFFAE0D5CF8081A4
:104B300091818737974709F05ECEA89580916000F4
:104B40008861809360008091220480936000EE3F32
:104B50002AE0F20789F08091FE0A9091FF0A918382
:104B6000808349CE808191818737980751F2909355
:104B7000FF0A8093FE0AC5CF1092FF0A1092FE0A28
:104B80003ACE0E94FF17DC0112960D911C9101157F
:104B9000110509F4E8CED801ED91FC910190F08166
:104BA000E02DBE016B5E7F4FC8010995811123CEB8
:104BB000F80100851185EBCF181619060CF41BCEF1
:104BC000D2CEF1E0FF12BECE64EC7EE204CF0F92B3
:104BD0000FB68F939F93EF93FF938091EF038D5FB9
:104BE0008D3708F08D578093EF03E6EFF3E0808177
:104BF0008E4F808391819F4F918382818F4F8283DB
:104C000083818F4F8383E0EFF3E080818F5F808328
:104C100081818F4F818382818F4F828383818F4FE8
:104C200083838FB18F6066991C9B88278F3681F4B0
:104C30008091EE03981B963068F0E0E0F8E087E79B
:104C40008083818388E180936000F0936000FFCFD0
:104C50009093EE03FF91EF919F918F910FBE0F9074
:104C600018951F920F920FB60F9211242F933F9316
:104C70004F935F936F937F938F939F93AF93BF9364
:104C8000EF93FF938091EA039091EB03A091EC03E3
:104C9000B091ED03892B8A2B8B2B09F440C08091B6
:104CA000E90381110BC088B190E4892788B980910C
:104CB000E803882319F088B1805888B98091EA0305
:104CC0009091EB03A091EC03B091ED031816190637
:104CD0001A061B069CF48091EA039091EB03A091C5
:104CE000EC03B091ED030197A109B1098093EA03A8
:104CF0009093EB03A093EC03B093ED03FF91EF913E
:104D0000BF91AF919F918F917F916F915F914F91E3
:104D10003F912F910F900FBE0F901F9018950E94FA
:104D2000221AECCFEF92FF920F931F93CF93DF9352
:104D3000F82E192FE62E042F81E0860F880F0E948F
:104D4000941883E00E949418CF2DD12FEC0EFD2EE5
:104D5000F11CCE15DF05B9F007FF13C0FE018491E9
:104D60000E949418182F80E00E94941881232196A5
:104D70008111EFCFDF91CF911F910F91FF90EF90B5
:104D800008958881EDCF81E0F5CFE4E3F8E0138268
:104D9000128288EE93E0A0E0B0E084839583A6833E
:104DA000B78389EA93E0918380838FEF9FEF9587A4
:104DB000848781EA97E1909394088093930880E038
:104DC00090E8909392088093910846983E9A47986D
:104DD0003F9AE0EAF8E01382128287EC93E0918335
:104DE000808398E0918781E0808715821682148203
:104DF0008783E6E9F8E0138212822BEB33E03183FC
:104E00002083918780871582168214828783809100
:104E10008408809395080895CDB7DEB7EF97DEBF7D
:104E2000CDBF789483E084BD83E085BD81E080932D
:104E30006E00E1E8F0E083E08083E0E881E08083D9
:104E4000E1E983E08083E0E981E08083E1EC87E0D1
:104E50008083E3EC81E08083E0EC82E08083E2EC1D
:104E600081E08083EAE787E0808380688083109216
:104E7000330410922304109225048091D70081609E
:104E80008093D70080EA8093D80089B5806189BD7E
:104E900089B5826089BD09B400FEFDCF81E090E054
:104EA0000E9453198091D8008F7C80618093D80034
:104EB0008091E000807F8093E0008091E1008E7E11
:104EC0008093E1008DE08093E200559A209A81EC76
:104ED00080937C0081E185B987E684B984E38BB94E
:104EE0008FE38AB9769A6E9880EF81BB10BA80E51D
:104EF0008CBD81E08DBD85E00E94411D599A85E001
:104F00000E94411D5C98EEE4F2E185918EBD0000A7
:104F10000DB407FEFDCFEB35C1F75C9A81E88093B5
:104F2000640081E0809365000E94441D84FF15C0E9
:104F30005C9885EA8EBD00000DB407FEFDCF5C9A3B
:104F40002E9858982D988091640080628093640018
:104F500081E083BF889513BEFCCF0E94441D82FF71
:104F600039C02E9A589A2D980E94441D847184311C
:104F7000A1F42D9A88EC0E94411D58986FEF82E0B1
:104F800090E00E940D3584EF91E00E945319589AE9
:104F90000E94441D84718431D9F30E94441D847899
:104FA0008438A1F42D9A88EC0E94411D2E9860E06F
:104FB00082E090E00E940D3584EF91E00E94531949
:104FC0002E9A0E94441D84788438D9F388EC0E947C
:104FD000411DC3CF2E9858982D98809164008E7FE4
:104FE0008093640080917A00806480937A0080913D
:104FF0007A0086FDFCCF00917800109179000E9424
:10500000EA19AB01BC01C801B0E0A0E0DC019927BE
:1050100088278C019D01040F151F261F371FC9010A
:10502000B80120916400216020936400611571052E
:105030008105910511F00E94D63484E18093A1028C
:1050400083E284BD18BC81EF809380008FEF809352
:10505000880080938A0082E090E00E94EF348823E9
:1050600031F10E94511D8FE192E00E94EF34182F20
:1050700080E292E00E94EF341F3411F4803511F089
:105080000E94F922FAE02F2E312CA3E04A2E512C57
:10509000612C712CF090F403FF2061F01092F40366
:1050A00080E090E0892BB1F30E940000F3CF0E94D2
:1050B0004C1DD9CF9091F6038091F503192F181B41
:1050C000812F2091A102121740F48F5F821740F7C1
:1050D00081E083BF889513BEE3CF81E08093F40322
:1050E0009093F503E7E1F4E080819181019680835C
:1050F000918390901A04909219040E94441D182FD5
:1051000080931A04E0911D04EF3008F0C9CFF0E05D
:10511000E457F74D0C94B8359B28A52811291F2971
:10512000A329B329B329B329B329B329B3299D2DC1
:10513000D62D7831F1311092A4021092A30281E0B1
:1051400080931D0484E18093A1029094912229F11F
:105150008091A3029091A4021816190634F480E2FB
:1051600090E09093A4028093A3028091A302909177
:10517000A402892B91F46DE270E08EE690E00E942B
:10518000DA1A6DE270E08CE290E00E94DA1A81E0B7
:1051900090E09093A4028093A3028091A302909147
:1051A000A4021816190654F401969093A402809351
:1051B000A302819719F482E080931D0420E04EEC55
:1051C0005CE260E170E080E290E00E94211D80914D
:1051D00017049091180460E570E00E9490358832C1
:1051E000D8F411E1843108F011E300E027E045E054
:1051F00068E170E08BE590E00E94FE1D1093E805E9
:10520000107A31F485EA8093E10585E98093E2051F
:1052100080E00E94B51744CF11E58C3378F311E993
:10522000EDCF83E080931D041092A4021092A3029C
:1052300084E18093A10284ED9DE20E94C71A00914F
:10524000A3021091A4020F5F1F4F1093A4020093BA
:10525000A30280911604882319F0815080931604CC
:1052600020E04CEC58E270E060E090E080E00E94CA
:10527000211D043411050CF047C0003411050CF059
:105280004FC020E00C3311050CF04BC088E00E94A9
:10529000571D882319F084E080931D0484E00E9448
:1052A000571D882339F010921C0410921B048DE0C6
:1052B00080931D0480E10E94571D811105C080E884
:1052C0000E94571D882369F0809184088823A1F1EA
:1052D0000E944C1D0E943523F092950880E2809335
:1052E000160480911604882361F02091950881E0CE
:1052F00028274EE558E266E370E084E790E00E94DC
:10530000211D0E94EE22CCCE083411059CF00837F6
:10531000110509F0BBCF1092A4021092A302B6CFE0
:1053200021E040E758E262E170E081E590E00E9410
:10533000211DACCF22E0F5CF0E94511D0E943523E4
:10534000FF24F394C9CF109215041092A402109276
:10535000A302109217038AE18093A10285E0809353
:105360001D040E94161A80911D04873009F4C1C1E2
:1053700080F4853009F47AC0863009F410C188E0E1
:105380000E94571D882309F4BCCF8BE080931D0435
:10539000B8CF893009F4E9C208F444C28A3079F7F9
:1053A0000091A3021091A402015011091093A402CC
:1053B0000093A30220E04CE657E26AE170E083E04C
:1053C00090E00E94211D013611050CF4A7C3E12CC9
:1053D00000E02AE037E24AE357E26AE070E084E660
:1053E00090E00E94311DE12C00E02AE037E24AE320
:1053F00057E261E270E08BE590E00E94311DE12C04
:1054000000E02AE037E24AE357E261E270E08DE62D
:1054100090E00E94311D60E081E00E94292280E43A
:105420000E94571D8823A1F01092A4021092A3029B
:1054300089E080931D04109215041092950388E072
:1054400080939603109297031092980310929903F9
:1054500080E20E94571D882309F491CF1092A40284
:105460001092A302109215048BE088C010921304CE
:10547000809117049091180466E070E00E949035C6
:10548000892B69F48091A3029091A40201968D3535
:10549000910509F476C09093A4028093A302E09052
:1054A000A302F090A402F701E450F14EE491E093DE
:1054B0001603F701E156F14EE491E0931703F7016B
:1054C000EE5BF14EE491E093A00282E080939F02B4
:1054D00020E045E053E270E060E08AEB9FEF0E943D
:1054E000211D01E026E041E168E170E086E290E004
:1054F0000E94FE1D8AEB0E94AD21209115044AEB0B
:1055000066E672E0809113040E94171F8BE30E94ED
:105510004122C7018B51924EFC012491022F015070
:10552000110BF801EE51F24EE49120E42093A5080E
:105530002093A408E093A6081092A708FC01849188
:10554000823039F1833041F1813021F488EA9DE1E4
:105550000E94E01E20E04EE05DE16AE370E08BE730
:1055600090E00E94211D80E20E94571D882309F4CB
:1055700006CF1092A4021092A30286E080931D042D
:10558000FECE1092A4021092A30286E080931D0426
:1055900086CF89E69DE1DCCF84E19DE1D9CF2091E2
:1055A000A3023091A40263E0213231050CF466E0DD
:1055B00081E08093130470E08091170490911804A7
:1055C0000E949035892B51F42F5F3F4F2C343105C9
:1055D00009F47BC03093A4022093A30260911504C8
:1055E00086E40E940A220091A3021091A4020C30CA
:1055F00011050CF472C0003111052CF0C8014E9752
:10560000049708F06AC010921603F801EE53FF4D9C
:10561000E491E093960381E0043111050CF480E0FD
:1056200080939503F801EA58FF4DE491E0936502F9
:10563000F801E65DFF4DF490F09215046F2D86E4BD
:105640000E945F216F2D86E40E9475206F2D86E4F5
:105650000E94A5206F2D86E40E94EE1F83E40E9425
:1056600041220252104EF8018491282F2150330B11
:10567000F901E552F04EE49182E08093A508809311
:10568000A408E093A608F8010491013051F102301A
:1056900069F16EE381E00E94292280E40E94571D97
:1056A000882339F01092A4021092A30285E080931F
:1056B0001D0480E20E94571D882309F460CE1092D9
:1056C000A4021092A30287E059CF1092A402109274
:1056D000A30287E080931D0481CF81E080931603AD
:1056E00094CF8BEA9FE10E94E01ED3CF89E59FE132
:1056F000FACF10921304809117049091180466E079
:1057000070E00E949035892B69F48091A3029091FA
:10571000A40201968833910509F472C09093A40203
:105720008093A30220E045E053E270E060E08AEB62
:105730009FEF0E94211D01E026E041E168E170E059
:1057400086E290E00E94FE1D8BE30E9441228AEBDC
:105750000E942920809117049091180463E070E062
:105760000E949035892B21F487EE93E00E946B22F2
:105770008091A3029091A40282569E4DFC01249137
:10578000022F0150110BF801E556FE4DE49120E483
:105790002093A5082093A408E093A6081092A708D8
:1057A000FC0184918130B1F18230C9F16BE78EE365
:1057B0000E94292280E40E94571D882339F010920C
:1057C000A4021092A30286E080931D0480E20E944E
:1057D000571D882309F4D3CD1092A4021092A3027E
:1057E00088E080931D041092150410929503809315
:1057F0009603109297031092980310929903BFCDCD
:105800001092A4021092A3021092150488E08093D3
:105810001D0488CF82E591E20E94E01EC7CF8EE092
:1058200091E2FACF809115048F5F80931504803543
:1058300061F40E948734A30192010E942D35609388
:105840009F021092A002109215048091170490916B
:10585000180466E070E00E949035892B69F480910D
:10586000A3029091A40201968436910509F46DC0BB
:105870009093A4028093A30260E082E20E940A2235
:1058800080911404811110C0809117049091180424
:1058900083709927892B41F484E690E00E946B2263
:1058A00086E692E00E94FF1E20E042E266E672E099
:1058B00081E00E94171F60E082E20E94752001E0F3
:1058C00020E446E470E060E090E080E00E94FE1D8D
:1058D00083E40E9441228091A3029091A402E1E01E
:1058E000F0E08932910514F4F0E0E0E0E059FD4D7C
:1058F000E49122E02093A5082093A408E093A60851
:105900008230910534F0893291053CF18B97CA972A
:1059100048F16EE381E00E94292280E40E94571D35
:10592000882339F01092A4021092A30287E080939A
:105930001D0480E20E94571D882309F420CD109297
:10594000A4021092A30289E019CE1092A402109230
:10595000A30289E080931D048FCF8FE292E20E9420
:10596000E01ED7CF86ED91E2FACF80911704909197
:10597000180466E070E00E949035892B69F48091EC
:10598000A3029091A40201968735910509F45BC0AA
:105990009093A4028093A3028BE30E944122009182
:1059A000A3021091A402E1E0F0E00932110514F421
:1059B000F0E0E0E0E95FF84DE49180E48093A50831
:1059C0008093A408E093A608093211050CF045C0A5
:1059D000023011050CF04EC017FD47C020E045E035
:1059E00053E270E060E08AEB9FEF0E94211D6BE7BD
:1059F0008EE30E94292280E40E94571D882399F09B
:105A00001092A4021092A30288E080931D041092C9
:105A100015041092950380939603109297031092A9
:105A200098031092990380E20E94571D882309F47D
:105A3000A6CC40E850E05093A4024093A3021092F9
:105A400015048AE09BCD00E810E01093A4020093B7
:105A5000A3028AE080931D049FCF0B3211050CF442
:105A6000BDCFC8018D978997C8F160E08AEB0E948D
:105A70000A22BDCF20E045E053E270E060E08AEB0F
:105A80009FEF0E94211D89EC92E20E94E01E03FD1F
:105A9000AECF20E04FEB52E260E170E082E390E0B5
:105AA0000E94111D20E04FEB52E260E170E08AE2BB
:105AB00090E00E94111D20E04FEB52E260E170E0A7
:105AC00082E290E00E94111D20E04BEA52E268E180
:105AD00070E086E290E00E94111D89CF60E08AEBC1
