:100000000C9459100C9481100C9481100C94811054
:100010000C9481100C9481100C9481100C9481101C
:100020000C9481100C9481100C94E51E0C94541FB8
:100030000C9481100C9481100C9481100C948110FC
:100040000C9481100C9481100C9481100C948110EC
:100050000C9481100C9481100C9481100C948621C6
:100060000C9481100C9481100C9481100C948110CC
:100070000C9481100C9481100C9481100C948110BC
:100080000C94D0210C9481100C9481100C9481104C
:100090000C9481100C9481100C9481100C9481109C
:1000A0000C9481100C9481100C9481101C0790B852
:1000B000AC5CE73AD7B92E77B9739DEB5C272B3B45
:1000C00002011C0790B8AC5CE73AD7B9CE75EA5B81
:1000D0005DD7D59DACEC08041C0790B8AC5CE73A42
:1000E000D7B9CE75AE739DEB5CA754FDB70D6D0906
:1000F0000FD8D2FD4594764E8EA8ED564925152988
:10010000090F587B55B6D2CEC930A5A4924A6E6766
:1001100005090F643A75297969554AE5F3312AA929
:100120006474E9F476BB05090F5C3A776D2FAD4A2C
:10013000A9542A3DE5763BDB76ABEC7609320FF825
:10014000D2952C5925D3254BA54A96AE5495AC5241
:10015000952E5975F755BA6495AA56A7D3E9BEAA44
:10016000AAAAFA74BB2A55E54E97ACBAFB2A5DC918
:100170009255325DA92A59A52A5DB2AAAA4A5568A4
:100180004AA7D3E9743A9D4EA7D3E9743A9D4EA786
:10019000D3E9743A9D4EA7D3E9743A9D4EA7D3E9AB
:1001A000743A9D4EA7D3E9743A5A320FD37D555510
:1001B00055F5E992555555AAD2ADAE5455AAD2ED92
:1001C000AA54953B5DB2CE952C5DB24A55ABD3E9AE
:1001D000745F5555557DBA5D95AA72A74B56DD7D66
:1001E00095AE64C92A99AE5495AC52952E59555581
:1001F000A52A9D4EA7D3E9743A9D4EA7D3E9743A38
:100200009D4EA7D3E9743A9D4EA7D3E9743A9D4E0B
:10021000A7D3E9743A9D4EA7D3E9743A9D4EA7013E
:10022000320FF8D2EDAA4A55325DA92A59A52A5DA6
:10023000B2EAEEAB745F5555557DBA9225AB643A80
:100240009DEEABAAAAAA4FB7AB5255EE74C9AABB92
:10025000AFD2952C5925D395AA9255AAD225ABAAEF
:10026000AA5485A6743A9D4EA7D3E9743A9D4EA729
:10027000D3E9743A9D4EA7D3E9743A9D4EA7D3E9CA
:10028000743A9D4EA7D3E9743A9D4EA7A305180F63
:10029000E8729D9A301DD3AE3ECA4AA972714515C7
:1002A00067CFAC64E5B7DB09D3B95EA552BD4D5647
:1002B000325DDB55AFD2B5DD4E964EC706180F64E2
:1002C000259592CA29A954E72EE99C3A75EE72B792
:1002D0002B59DD755D529DAEAC92CE4957EBFC7645
:1002E000ABA4D2DBEDAE92CE39279574CE29E79C34
:1002F00073CE39E7DC769B8E16180F7436BB544EDE
:100300002AB95572BBDD6EB7DBAD924A6EB79F72EC
:10031000CE395911669554D239E79C93CA39A9EC64
:1003200052D9ED52D9ED5249A54A39E79C734A6E2C
:10033000D3180F68B3DB9D53AA94B29773CE295597
:100340004AD54EB9BB3AA54AA9724A2A79C97DC491
:10035000E9A592CE29E99C735249259593CE39E5BA
:100360009C54525D4E2AE72AB9DD4607180FE87201
:100370009D9A301DD3AE3ECA4AA97271451567CF0A
:10038000AC64E5B7DB09D3B95EA552BD4D56325D0D
:10039000DB55AFD2B5DD4E964EC706180F642595D6
:1003A000724EB9EDAAB697ACDCAA739DEBF4577DFB
:1003B00075574CE988B24A3A59EBFC76AB747ABB74
:1003C000DD266BD739A9A4DD29A99C73CE2E95CC47
:1003D0006ED3D102180F58D3C9EDD2B94EE7B29FF0
:1003E0004AA5AA52954D4795FAD447B61D41DBADB3
:1003F000924A3AA99C734E3A77E9DCE59CEA9574F7
:10040000CA39B75576A9643A3A180FE8D3E95C7A45
:100410009DAE74AE73E9645CB9CEC5970E65E9AC68
:1004200092955476E9DC2595DC279554CE39E7B6CC
:1004300097AB643A1D2D0817CA27A39B2DA26C0801
:10044000CD4614DB74C97C0E081798F291CD970D38
:10045000BDD9F826CB47060807CA27A39B2DA26C57
:1004600016080798F291CD978D0C0307EE5455AA04
:10047000933B0307AE5C55AA2A572903074AF7AAFC
:10048000924B030756AE2A55954D01030752A5AA74
:100490005255A94E0103075E5652CA1C0307AE5CB3
:1004A0002A5595AB140307EE54AFAA72DD030798E3
:1004B0003A2575030307562E954AE594022517A0A1
:1004C000A574769BCEA6B3DB74369D55329D4D56F2
:1004D000B065D0292517A0A574769BCEA6B3DB7492
:1004E000369DDDA6B39DAB1096CE6ED3D974769BA8
:1004F000CEA6B3DB743A681D2517A0A5743A14E69E
:10050000630E69E9EC369D4D67B7E96C3ABB4DA7C0
:100510008386824E012517E0C26CE09E002517A05D
:10052000AB743AB4259554909172CE3925951C8BB5
:10053000DBEDAE9249E75CD0507AFBA97FBBFDD4DE
:10054000524925556D97DBA592DBED363402251710
:10055000A0AB743AB4259554909172DB6C3AD52BCC
:10056000E7E418DB6E77954C3AE78286D2DB4FFDE5
:10057000DBEDA7964A2AA96ABBDC2E95DC6EB7A1F3
:10058000112517E0F3747A9DCEA7D3EB743E9D5EE0
:10059000A7834901251730954EAFD3F9747A9DCEC4
:1005A000A7D3EB74F0653ABD4EE7D3E9753A9F4E99
:1005B000AFD3C1A4251730954EAFD3F9747A9DCE31
:1005C000A7D3EB74E0BB002517A06655BB4A479F35
:1005D0005E3A2587CAB6DBED36BAB45452F53638E2
:1005E000082517A06655D755BB52524927D5E9A50E
:1005F0005372A86CBBDD6EA34B4B25556F838300F4
:1006000025171094CEA7D3EB743E9D5EA7F3E9F4B3
:100610003A1D7C994EAFD39DEC5C7A9DCEA7D3EB6F
:1006200074305F3EEC0125171094CEA7D3EB743ED7
:100630009D5EA7F3E9F43A1D7C994EAFD3F9747A25
:100640005DC97C3ABD4E07830225171094CEA7D30F
:10065000EB743E9D5EA7F3E9F4706C3E18341FF610
:10066000002517400E65836A012517D09A0E4DE9C3
:1006700020B3D457B9F9E20F6DB9569F8E2E9DDD88
:100680008EF7747ABBDD2AA9A473B5AB5D292595D5
:100690005DF5AA94924A2AA9E4769B0E9D2517D06F
:1006A0009A0E4DE920B3D457B95576575B2595740A
:1006B000AA14CA72AD3E1D5D3ABB1DEFE9F476BBCC
:1006C000555249E76A57BB524A2ABBEA5529259534
:1006D0005452C9ED361D3A012517A0A9743AF832D3
:1006E0009D5EA7F3E9F43A5DD94AA68333F3492521
:1006F0001710954EE7D3E9753A9F4EAFD3F9747A48
:100700009D0EBE4CA7D7E97C3ABD4EE7D3E988B22F
:10071000C198251710954EE7D3E9753A9F4EAFD390
:10072000F9743AD8381F0C9A4F022517C02A6583EE
:1007300031012517D0944E67B7DB753A1DDA82A3D5
:100740007E65955DAFD3E975F80A4D69A5CA5DE888
:100750004C87BF743ABDDD6E95DDAE77B5AB9D5469
:1007600052DDEA5FF5AA94924A3AE7A4924A2AB97E
:100770005452C96DB42517D0944E67D3E97C3A1D05
:10078000DA82A37EA55AFDBFBA5D29554A49E7E43E
:10079000580A4D69A5CA5DE84C87BF743ABDDD6E45
:1007A00095DDAE77B5AB9D5452DDEA5FF5AA949224
:1007B0004A3AE7A4924A2AB95452C96DB42517603F
:1007C000A9743E9D4E074FA6D3E9753ABD4E57B268
:1007D000230CBE4C03251730954EA7D7E9F43A9D5C
:1007E0005EA7D3F9743A9D4FA7D3C193E9747A9D5C
:1007F0004EAFD3E918B34199251730954EA7D7E9E5
:10080000F43A9D5EA7D3F97490733EC2E0CB3425D1
:1008100017402A658332012517D0944E67B7DB75E0
:100820003A9D0E4DE9743A38E957A7945DA7D7E988
:10083000747ADA74F85BB5BAED3A9D4EA7D3D9ED68
:10084000763CA6D3E9F476BB5D6FB7DBA573CED556
:10085000AE76BDBAD5E5B6DBED76BB4DA7A30725D1
:1008600017D0944E67D3E97C3A9D0E4DE9743A381F
:10087000E957BFFA7FD5ABDB9552A55429E56C6CDF
:10088000E9F0B76A75DB753A9D4EA7B3DBED784C9E
:10089000A7D3E9ED76BBDE6EB74BE79CAB5DED7A97
:1008A00075ABCB6DB7DBED769B4E470F251760A37D
:1008B000747A9D4EA7832FD3E9743A9F4EA72BD904
:1008C000C9742A950BDE04251728D3E97C3A9D4E7E
:1008D000E7D3E9743A9F4EA7D3EB743A1D7C994E47
:1008E000A7D3F9743A9DCEA72B39DC09251728D355
:1008F000E97C3A9D4EE7D3E9743A9F4EA7839BF378
:1009000011E68337012517C02565833B012517D0E4
:10091000954EA7D3A12F1D44F5E7D6DB753A9D5E12
:10092000A7A30D6F5B75DBED3A9DCE6EB74B25959A
:100930001C81E9743ABDDD6EB7EBED76BB5D3AE73D
:100940005CED6A57BB4AA6B7DB6D3A1DDA00251786
:10095000D0954EA7D3A12F1D44F557AFFED4A75471
:1009600029554AB5FA94AA5D451ADEB6EAB6DB7592
:100970003A9DDD6E974A2A3902D3E9747ABBDD6E5F
:10098000D7DBED76BB74CEB9DAD5AE76954C6FB7C2
:10099000DB743AB401251760A5743E9D4EA7D3E9D8
:1009A00074F0643A9D4EA7D395AD643AAE204C25C1
:1009B00017A8D2E97C3A9D4EA7D3EB743A9D4EE737
:1009C000D3E97C3A9D4EA7D3E9E0C9743A9D4EA77E
:1009D000F3E974658334012517A8D2E97C3A9D4E6A
:1009E000A7D3EB743A9D4EE7D341D1F998833001F8
:1009F00025174029658334012517A0A3743AA82937
:100A0000AB6E574965D3E9743A9DDEAED3A12DFD97
:100A1000A94F492595DD6EB7DBED5239E79C1C41A6
:100A2000E9F476BBDD6EB7EBAC92CA6EB7DBED3A9C
:100A3000E99C73B5AB5DED6A974EA7D3E974680284
:100A40002517A0A3743AA829ABEEBAEA55AB52AA6F
:100A5000942AA5CADDEA56DFEA92E9D096FED4A729
:100A6000A492CA6EB7DBED76A99C734E8EA0747A01
:100A7000BBDD6EB7DB75564965B7DBED769D74CE91
:100A8000B9DAD5AE76B54BA7D3E9743A3401251758
:100A900020A7743A9DCEA7D3E9743A9DCEA7D3E997
:100AA000E0C7A88332012517A8D2E9743A9F4EA760
:100AB000D3E9743A9F4EA7D3E9743A9DCEA7D3E900
:100AC000743A9DCEA7D3E9E0CDA04D2517A8D2E971
:100AD000743A9F4EA7D3E9743A9F4EA7D3213EF8AC
:100AE00032E6E04C2517C02B056D022517D0954E38
:100AF000A7D3E9743A1D5D76BBDD6EB7EB60A26FDC
:100B0000B5DEAED3E9743A9D4E4F9B4EA7D331E686
:100B10003AE79C73CE492595545239259573CA39C5
:100B200085AB743A9D4EA7D3E9F476BBDD6EB7DB97
:100B3000ED76BBDD8E652517D0954EA7D3E9743AC7
:100B40001D5D76BBDD6EB7EB60A26FB5EBFF53AA00
:100B5000942AA54AA952AA94AA5D7ADA743A9D8E7B
:100B600031D739E79C734E2AA9A492CA29A99C536C
:100B7000CE295CA5D3E9743A9D4EA7B7DBED76BBD1
:100B8000DD6EB7DBED762C03251720A7ED369BCE67
:100B90006ED3D974769BCEA6030D052517D09E4E35
:100BA00067B7D9ED369BCE6ED3D974769BCEA6436C
:100BB0005D3ABB4D67D3D96D3A9B4E07DD032517D0
:100BC000D09E4E67B74156E9EC369D4D67B7E96C4C
:100BD0003A1D740F2517A0A5743AB8D08DA574845A
:100BE000A582E73A574A955252CD964E2BB95D876A
:100BF0004D2517A0A5743AB8D0AD76CE29E7E4AA62
:100C00005711960A9EEB5C29554A49355B3AADE48B
:100C1000761D3601251760A7743A9D4EA7D3E97457
:100C2000769B4EA7D38179022517E8D3E9743A9DC4
:100C3000DDA6D3E9743A9D4EA7D3E9743A9D4EA739
:100C4000D3D96D3A9D4E07E6092517E8D3E9743AE2
:100C50009DDDA6D3E9743A9D4E07E20B2517A0A3AC
:100C6000743A1D9CB793DBD1944E274B0DB72D954D
:100C7000543234A5955C87652517A0A3743A1D9C52
:100C8000B793FFA7A4924A2AA95429D5AB64A9E136
:100C9000B6A5924A86A6B492EBB00C251720A7748D
:100CA0003A9D4EA7D3E9743A9D4E07260A25179020
:100CB000954EA7D3E9743A9D4EA7D3E9743A9D4E59
:100CC000A7D3E9743A9D4EA70313052517C8D3E9A6
:100CD000743A9D4EA7D3E9743A9D4E07E60B25174B
:100CE00060A3ED763B94B793E9F8D2E9746C952C48
:100CF0003594B6DD8EB5ED766C03251760A3ED76E1
:100D00003B94B793A96F25952AA54AA952AA94FDA9
:100D10004A961A4ADB6EC7DA763BB601251720A938
:100D2000743A9D4EA7D3E9743A9D4E07060A2517DB
:100D300090964EA7D3E9743A9D4EA7D3E9743A9D95
:100D40004EA7D3E9743A9D4EA70303052517909546
:100D50004EA7D3E9743A9D4EA7D3E97460BC002531
:100D600017C0C701251760A5ED763B94B793E978C6
:100D7000D3F125934AC16ADBED762C6DB7DBB10C5C
:100D8000251760A5ED763B94B7BB53DF4A2AA954DB
:100D900029558A2B99540A56DB6EB76369BBDD8EE1
:100DA00065251720A5743A9D4EA7D3954CA7D3E986
:100DB000743A1D1418EC0B2517C8D3E9743A9D4EEC
:100DC000A7D3E9743A9D4EA7D3E9743A9D4EA7D3B1
:100DD000954CA7D3E9C040012517C8D3E9743A9DC3
:100DE0004EA7D3E9743A9D0E81C1A041BE2517A03C
:100DF000B9C053012517D09FDD6EB7EBA0B66F5772
:100E0000B1A7D3E96895744E3925974A4152E9ED67
:100E100076BBDD6EB7DBED76BB1DEB2517D09FDD16
:100E20006EB7EBA0B66F579DEAA5924A9552A554AE
:100E3000AFA255D239E5945C2A0549A5B7DBED761A
:100E4000BBDD6EB7DBED76AC03251720A7743A9DAA
:100E50004EA7D3E96D25D3E9743AB8311FDC0A25D2
:100E60001790954EA7D3E9743A9D4EA7D3E9743AEB
:100E70009D4EA7D3E9743A9D4E57721B182825172B
:100E800090954EA7D3E9743A9D4EA7D3E974F8CB59
:100E90000783E6835B012517A0BF6C20A2002517FE
:100EA000A0A1EC76BBDDAE83BABE5D2547573A9D67
:100EB0004EC79873CE39A79C534E39A720A1F4761C
:100EC000BBDD6EB7DBED76BBDD6EB7631B2517A010
:100ED000A1EC76BBDDAE83BABE5D75FF5249A54A73
:100EE000496557E9743A1D63CE39E79C724E39E57E
:100EF0009C8284D2DBED76BBDD6EB7DBED76BBDDAD
:100F00008E6D251760A1743A9BCEA6B3E96C3A9B0F
:100F1000CEA6D3A97C30693E58132517D09D4E67C5
:100F2000D3E96C3A9BCEA6B3E96C3A9B4E87AB6C87
:100F30007CE96C3A9BCEA6B3E96C3AE81F2517D042
:100F40009D4E87FB7C684B67D3D974369D4D67D324
:100F5000415FF9604D251720C96CA098002517A0A6
:100F6000A1743A1DB6B7DBB1B8545239E79C734A45
:100F70002A1B4273CE39A79C73CE29E79C724A2A5A
:100F8000E714DA92CEB9DAD5AE769DEB5CA73E9542
:100F90004AF5FFA73EB5545295924B2595535249B9
:100FA00025B7DB6DE8032517A0A1743A1DB6B7DBA2
:100FB000B1B84C67D3E96C3A752E5CE69C734E3938
:100FC000E79C53CE39E59454CE29B4259DBDDCA5CC
:100FD0005429D5ABCE75EA53A954FF7FEA534B256C
:100FE0005529B954523925955472BBDD863E2517D3
:100FF00060A1743ABB4DA7B3E9743A9B4EA7B3E91D
:101000004A762EC8331FAC092517D09C4EA7B3E9EA
:1010100074769B4E67D3E974369D4E67D3E9748C22
:10102000D9C8D2E96C3A9DCEA6D3E9400301251771
:10103000D09C4EA7B3E9B09D0F65E974369D4E670D
:10104000D3E974F0583E4813251720C96CA09800C6
:101050002517A0A1743A1DBAB3DBD19754CE39E756
:101060009C734A2AA9E4F84C2AA9A472CA39E794C5
:1010700054CE29E79C5348DB7EEA53AA94EA55AF45
:101080007AD5FF9FFA56B7EA9554CED576A9A492A1
:10109000DBA592DBED762C022517A0A1743A1DBAD0
:1010A000B3DBD1975C6ED3E96C3A954A353E934AEF
:1010B0002AA99C72CE39259573CA39E714D2B69FF6
:1010C000EBDCA554AF7AD5ABFEFFD4B7BA55AFA4CD
:1010D00072AEB64B2595DC2E95DC6EB763112517E5
:1010E000909FCE6EB7E9743A9B4EA7B3E9743ADB92
:1010F000B9542A68341FA4092517D0944EA7B3E920
:10110000743ABB4DA7D3D9ED369D4E67D3E97436FB
:101110009D4E67D3E9A8634CA7038D042517D0948F
:101120004EA7B3E9743ABB4DA7D3613D1FC6D2E9C0
:10113000E0C17C9026251720C9C034012517B0BE18
:10114000DD6EB7DB753A9D4E87C5ED3A6C2D9592F5
:10115000DBED769B4E87B5743A9DBDDC65B7BBCAA7
:101160005DEE729792CA39A7A492E16D9DAC5DE7DE
:101170003A57BBDA6EB74B25974A2AA9A492DBED02
:1011800076BB4DA7D3E9D0082517B0BEDD6EB7DB1F
:10119000753A9D4E87C5ED3A6C2D95BAFF4F7DEAA5
:1011A00053B7BA942A85B1743A9DBDDC65B7BBCA02
:1011B0005DEE729792CA39A7A492E16D9DAC5DE78E
:1011C0003A57BBDA6EB74B25974A2AA9A492DBEDB2
:1011D00076BB4DA7D3E9D0082517E0A0ED769B4E4E
:1011E000A7D3E974369D4EA7D3DB4AA6D3C195F9A0
:1011F0007C902625176C3A9D4EA7B3E9743A9D4E14
:10120000A7D3E9EC76BB4DA7D3E9743A9B4EA7D39D
:10121000E9743A9D8E28304D25176C3A9D4EA7B340
:10122000E9743A9D4EA7D3E9743A1D96F341A5F9A6
:10123000204D251720C9C034012517D09DDD6EB77C
:10124000DBED769D4E87CDED3A242D9592EB743AE9
:101250001D7B3A1D6D3A9DCE5EEEB2DB5DAD6E75C7
:10126000B9CB392595734E492543D73ABDDD6EB7C5
:10127000DBED76BBCD6EB7DBED76BBDD6ED3E9740F
:101280003A74022517D09DDD6EB7DBED769D4E8753
:10129000CDED3A242D9592BF2AA54AA952AA945C75
:1012A0002AA9543A1D6D3A9DCE5EEEB2DB5DAD6E5D
:1012B00075B9CB392595734E492543D73ABDDD6EB7
:1012C000B7DBED76BBCD6EB7DBED76BBDD6ED3E97C
:1012D000743A7402251720A1743A9D4EA7D3D9748D
:1012E0003A9D4EA7D3CBCEA5833DF3C19925177464
:1012F0003A9D4E67D3E9743A9D4E67D3E9743A9D9F
:101300004EA7D3E96C3A9D4EA7D3E96C3A1D6320F2
:101310009A002517743A9D4E67D3E9743A9D4E673B
:10132000D3E9D09F0F2ACD076702251760C9403443
:10133000012517B0BEDD6EB7EB74684E87ABA572A2
:1013400072BB4EA7D3E974ECE9743A1D63AE734ED9
:10135000492595734E49259554CE29E7941C4BE9B0
:10136000F576BBDD6EB7DBED52C9ED76BBDD6EB752
:10137000DBED76BB1DBB2517B0BEDD6EB7EB746829
:101380004E87ABA572F7FF29554A9552A5542955AA
:101390004AD5D4E9743A1D63AE734E492595734E10
:1013A00049259554CE29E7941C4BE9F576BBDD6EB3
:1013B000B7DBED52C9ED76BBDD6EB7DBED76BB1D5D
:1013C000BB251720A5743A9D4EA7D3E9743A9D4ECC
:1013D0006F2B19249A0FCA042517C8D3E9743A9DB4
:1013E0004EA7D3E9743A9D4EA7D3E9743A9D4EA710
:1013F000D3E9743A9D8E38F04C251748D3E9743AF6
:101400009D4EA7D3E9743A9D4EA7C3733EA8341FDF
:1014100094092517A0C9C033012517D09FDD6EB7E9
:10142000DB7550D2B7BAE4769D4EA7D3E974B4E920
:10143000743A9D8E299D73CE39E79C73CE29A9A459
:10144000726EA99C1C59E9ED76BBDD6EB7DBED76BB
:10145000BBDD6EB7DBED76BBDD6EC72E2517D09FEB
:10146000DD6EB7DB7550D2B7BAEEFF53AA942AA54A
:101470004AA952AA76E968D3E9743A1D533AE79C1F
:1014800073CE39E79C535249E5DC523939B2D2DB8D
:10149000ED76BBDD6EB7DBED76BBDD6EB7DBED76F3
:1014A000BBDD8E5D3F3F801D2A9D0E5ECFDDD55D8D
:1014B000C794AECED5E52E1D7C9DD6E9F49DEB9468
:1014C0004EA70BDA063F3F800E2AA9A4924A2AA90A
:1014D000745038F2D24ADAE1698CC2D63F3F8015A7
:1014E0002A9D0EE24FDF3259B2AE64E5B6B57552B1
:1014F000D97456B9CB5D684AA7838F955432BAB474
:101500004EA7EF5CA7743A5DD0263F3F800C4A4956
:1015100025955452E9743A1D3CBEB5DBE9B7EBB4EE
:1015200092CE39A7A4924A2AA9D3D9ED76BB1DFE43
:1015300075CE39E79CDB6214B6043F3F801D2ABD9F
:101540000DC28F362D5DE5A48A382D5D252B2755DC
:1015500008DA3AA96C3AAB9C73232E9D0E4DE974C0
:10156000F0A8924AA6D34A2AE4A5753A7DE73AA59F
:10157000D3E9828E003F3F80144A4925955452E9B1
:10158000743A9D4E075F6FB7DBADDD6EB7DBD74AB0
:10159000EA743A9D4EA7E89C934A2AE99C734A2A2A
:1015A000A9A47268DA6EB7DB753ABBDD6EB7C39B70
:1015B000CE39E79C73CE39E79CC3D516A3B0103F54
:1015C0003F80152ABD0DC20F4D69E92A2755084BEA
:1015D0004B57C9CA491522B74E2A9BCE2AE7DC8849
:1015E0004DA743533A1D3CA9A492E9B4920AB969A4
:1015F0009D4EDFB94EE974BAD0043F3F800C4A4992
:1016000025955452D1A5D3E9743A1DFCBCDDCEBA60
:10161000B5DBED76FBF44AEA743A9D4EA7D0E69C22
:101620005452492595545249259543E376BBDDAE86
:10163000D3D9ED76BB1D5E74CE39E79C73CE39E706
:101640001C2EB71865071C0F90B8AC5CE73AD7B9E9
:10165000CE75AE739DEB5C272B3B0E77B9EABFAE20
:10166000EEEEDF6E3B99BDD5B6DDD9736DDB9DBD6A
:10167000D5B693D9ED7F7757D77FE5722B1C0F90A6
:10168000B8AC5CE73AD7B9CE75AE739DEB5C272B4F
:101690003B0A3B95CBADAAEBBAFEF3D9CB6D7B975A
:1016A0003DD7B6DDD9736D7B97BDDC36DF7F5DD767
:1016B00095DAE552DDD800C200AC00C200D8001CAB
:1016C0000F90A89C5352492595545249259554D2C0
:1016D00039A930E894DD066F65B7CA0D0A0FD097B7
:1016E0004E47B44C975295545249252F77B9CBA504
:1016F000011D0FE4B672DB4E5DAEFFAA5B7575ADE2
:10170000BAAB5E55B29295AC6425D3EDBA52B5EB47
:10171000EA5B7D95EAD5253BB7AEE444924AAAAA96
:1017200094ACA452A5B6A974E52ED79125AB3B176E
:1017300055FAF2ABD4AD642555554A52492A1D0FCE
:10174000E4B672DB4E5DAEFFAA5B75D56DAB7A5B1E
:10175000AA2A5595AC64252BD9BAAA6AD755AAD519
:1017600057A95E5DB273EB4A4E24A9A4AA4A495711
:1017700039E72AA9CA75EA76E974ED6A57BBECDA4B
:1017800029A9AA52D2554EAAAA94A492541D0FE494
:101790005639E79C924A6EB7E9D09A4E6FB74A2AFB
:1017A000E99C7352C989A4924A2AA9642595545286
:1017B00049252B59C94A2AA9E476ABA49295DC2A7B
:1017C000A964259554524925A9001D0FE45639E70F
:1017D0009C924A6EB7E9D09A4E6FB74A2AE99C7339
:1017E00052C989A4924A2AA9A4924A2AA9A4924A2F
:1017F0002AA9A4924A2AA9A4924A2AA9A4924A2AC6
:10180000A9A4924A2A49052002AA013D017F1FC0CE
:1018100023795F55DD555595ACAAAAAAAAAAAAAA0A
:10182000AAAAAAAAAA40A9D9B3DB4FBDEA539FFA34
:10183000D4ABBE95FDD4AB3EF5A94FBDEA53DBED6D
:10184000AB5EF5AA57BD6ABBFDD4AB3EF5A94FBD53
:10185000EA53DB4FBDEA539FFAD4AB3EB54E5B680B
:101860002E9D4D67D3D974106C365BB96A55E52A45
:101870005BD5D5A9AAAE4E557575AAAA2B5BD5D551
:10188000A9AAAE4E557575AAAA2B5BB94A5DB5AA31
:101890005555AE5655AEB2555D9DAAEAEA54555718
:1018A000A7AABAB2555D9DAAEAEA545557A7AABAA3
:1018B000B295AB5655AEB295CD27D3F9743E9D4F38
:1018C00087C2EDB29295EB5CA752A9543A9D4EA700
:1018D000D3E9743A9D4EA7D3E9743A9D4EA7D3E954
:1018E000743A9D4EA7D3E9743A9D4EA7D3E9743A52
:1018F0009D4EA7D3E9743A9D4EA7D3E9743A9D4E05
:10190000A7D3E9743A9D4EA7D3E9743A9D4EA7D365
:10191000E9743A9D4EA7D3E9743A9D4EA7D3E97472
:101920003A9D4EA7D3E9743A9D4EA7D3E9742A9500
:101930004AE53AD7C94A5676BB023F07D0145D6CD8
:101940009329BAD8A60BBDD14517FA639B6DBAE8A7
:10195000C21B060798964E3AE5E45C0607A8B2CA91
:1019600049A76C5CB404AD04A5049C0495048B04E5
:1019700082047B0472046A04040798B2D2450640CC
:101980001FF2BA9229A9A4922A952AA56E554AA5B2
:10199000525255A5AA5255A9AA5455AA2A5595AAF4
:1019A0004A55A5AA5255A9AA5455AA22F47C3A5DD3
:1019B000E73AE7E4643A5DAF5AEDFA55443A5D77A9
:1019C0007557B292317DBBAEBBBAEBDC3DD5B7EB00
:1019D000BAABBBCEDDEFF978A38BAE6CBBEA55D5C5
:1019E000D775AF76A553A9542A954AB7DDEA683D65
:1019F0009F4ED7B9CE3939994EEB743A1D95DC76A6
:101A0000B94B5A25899474DA3997738A4CA7974E43
:101A1000D9B83C9F5476FBFFFFFFFFAFA4BAD5AD0A
:101A2000A4BA9554B792EA56B792EA56B792EA66C4
:101A3000F484725DB292A5974C3ABDB24AE934443F
:101A4000657DB2D2E974CEBDAA6425ABAFFA2A593E
:101A5000C94A56B2FAAAAF9295AC64252B59C94A25
:101A60005632424D984EEB74E908E5B6CB5DD22A6A
:101A700049A4D375AE734E4EA6D3755777252B194F
:101A8000E20037000A00000002002100060000808A
:101A9000C00D0A0000000200B8070A0000000200A2
:101AA00097040A0000800000000200090F000003F4
:101AB0000401000C00000000000000000000000015
:101AC0000000000000D5F08D14A1C881CFD9F1AF7E
:101AD000200024174A67B75B66BB4DC7ABA373DB17
:101AE000ED76BBD2D111EA08FFFFFFFF4F7D2A1D23
:101AF0009792CA39F7FFA94F6DB7DB74942BE79C17
:101B0000723A1DEFCA39A71C5FCE39B9FDFFFFFF3E
:101B100057BD725249ADA4B2FFFFFFFFA73EB54DBE
:101B20004769974AAA743ABDDDDAA592945249658D
:101B3000ED76BBDDA6A472CE39E0060A00000002F5
:101B40000017040A0000000200E0060A000080B846
:101B500001080000000200F70008000000020093E6
:101B600000080000806E000A00000002004100062C
:101B70000000000200F7000700008037000A0000A4
:101B8000000200A5000B0000000600100007000086
:101B9000000300DC000F0000000C007B00090000C7
:101BA0000007006200100000000800AF0005000000
:101BB0000008000B0208000000020057000D0000A2
:101BC0000005001C000D000000080037000F000099
:101BD000000200A5000B0000000600100007000036
:101BE000000300DC000F0000000C007B0009000077
:101BF0000007006200100000000800AF00050000B0
:101C000000080041000800000002002C000D000048
:101C10000005001C000D0000000800100006000078
:101C200080B8010A00000002000601060000000260
:101C300000DC0307000080E0062800000005001714
:101C400004280000000500270528000000050020EA
:101C50000628000000050000802517D09D4E67B7BC
:101C6000DBED76BB4EA7D3E990A6A4924A2AA9B091
:101C7000B4734A2AB9DD6ED3A17DBBDDA663CD6EF8
:101C800097CA714B65476F3A9DCE6EB74B259554F9
:101C9000CE39E79C924A2A39B600090F28B34AF197
:101CA00075CEADD751A6934A6E954E4706090FBC27
:101CB00093B5CE1D57E7DC7A1D653AA9E456E97461
:101CC000647F3F80BE2874459F4EA7D3A1399D4EA7
:101CD000A743573A9D4E87AED0157D3A9D4E87AEAD
:101CE000743A9D4EA7A34FA7D3E920585AA79CDC6E
:101CF000A69493D311AB5BDDABC83AA54220B3DC0D
:101D00002AE994B3D111ABCBDDABF8D244B42BAB01
:101D10009C72B444C4EA72F72A9D558E8B78D5AB79
:101D20005EF59FDAC645AC2E77CF583928D53925D0
:101D300067DD2AE9A4E272CE3967B74BE59C53729E
:101D4000A2EC52492595DCC6B655D239279573CEFB
:101D5000396563734EC9D99D537236E7949CDD395A
:101D60002567734EC9B1B755D24925955452C96DEF
:101D70006CCE29397B7AABAC92CA29B90D68C80000
:101D80003F0F9854A9AA54292AA952294925754ACE
:101D9000524995965452A5720A53E99225AB642193
:101DA00048AA544A52499596884A97AC52D5EA10A7
:101DB00024552A25A9A4AA6474525532C82C9D4ED4
:101DC000A7437F3A9D4E87767F3F80F6289D4EA79A
:101DD000D3D1A6D3E9743ADAD018BAA24FA7D3E97F
:101DE000D0954EA7D3E974B4E9743A9D4E07228882
:101DF00078D5AB5E95DAE6B25B661B1F2DC26857DD
:101E00005639E5688988ED76CB9726CA6EB7CC3609
:101E10003EE255AF7AD57F6A1BE2B24B2595B2D12F
:101E2000392595DC06053BA7E488CA2E9573CE3983
:101E300027B7B129E99C934A2AA9E43636E7949C4E
:101E4000DD392567DB2AE9A492CA39E79C9263C988
:101E5000392567DF2AE9A4924A2AA9E436AC2AB9CF
:101E60000D68CC00370FD325AB4A952C44495595C6
:101E70004A4525552525952A55952A45A5B4520A42
:101E800085E9925555952C044999945452555252CE
:101E90004955C99B4AAA544E31A5D3E974D05B3A3F
:101EA0009D4E073D01600FB6513A259D934ED9E8EE
:101EB0006C74524925D5363A261BA35452499FDEED
:101EC00032D9189D734E31A59754363A8C6597D404
:101ED000721B918D71BB5DAACBE5B24B25A9E5368E
:101EE000221BE376BBFD56978BCBC6A8A492336D1D
:101EF00095C39092CE49E7A4724E49A76C645239BB
:101F0000A7C8A5724E9129E99C944A2AE79454CE19
:101F10002932A99C53329D4E47EF9C54522AA9A4C2
:101F200092DB88B24BA5A4924ACA6D645239A7903D
:101F30002895738A5C49E7A45452492595DC4626C6
:101F400095738A2CBD555659259553729B050000F3
:101F5000CC01EE0175000000BB0072013E000000E4
:101F60000700EE017D0000003E004B02030200006E
:101F70002E00EE011302000027004B027D0000003E
:101F8000AB00EE012E0000001F004B0275000000A8
:101F90003E00E4020B0200002E004B020B02000088
:101FA0001F00E40275000000BB004B023600000079
:101FB0000F00E40284000000360070030B020000F2
:101FC0002700B801FB01000036004B02750000003D
:101FD000B300B801270000002E004B02750000007E
:101FE0004600E402E8030080080B00020202000041
:101FF000090400000102020000052400100105246C
:1020000001010104240206052406000107058103DD
:1020100010004009040100020A0000000705020246
:102020004000000705830240000004030904120178
:102030000002EF020140412336800001010203014A
:1020400041726475696E6F204C4C43006D69637218
:102050006F636164650000000000250028002B000C
:102060002E00310000000000240027002A002D006F
:102070003000040404040403040502020202040301
:102080000202020206060606060604040202020412
:102090000404080201104080401020408040800865
:1020A00002040180402010020110801020404020D6
:1020B000642211241FBECFEFDAE0DEBFCDBF12E0F5
:1020C000A0E0B1E0E0E9F3E602C005900D92A6358C
:1020D000B107D9F728E0A6E5B2E001C01D92A63805
:1020E000B207E1F710E1C9E5D0E104C02197FE0194
:1020F0000E94C031C835D107C9F70E9496220C94BE
:10210000C6310C94000080916D02089590E0FC01AE
:10211000EF56FF4D24918E589F4DFC0184918823EA
:1021200099F090E0880F991FFC01EC59FF4DA591A3
:10213000B491FC01EA5AFF4D859194918FB7F894C0
:10214000EC91E22BEC938FBF0895FC0190918508F0
:102150009A3011F480E008958081E92FF0E0E5588D
:10216000F74F8083E1E0E90FE0938508EA3091F3CF
:10217000DB018C91F0E0E558F74F80839E5F9093F0
:10218000850881E00895FC01909185089A3011F44A
:1021900080E008958081E92FF0E0E558F74F8083D3
:1021A000E1E0E90FE0938508EA3091F3DB018C91DF
:1021B000F0E0E558F74F8083E2E0E90FE09385080F
:1021C000EA3031F3DA018C91F0E0E558F74F808383
:1021D0009D5F9093850881E00895FC0190918508AA
:1021E0009A3059F08081E92FF0E0E558F74F80836D
:1021F0009F5F9093850881E0089580E00895EBE16A
:10220000F4E080E0A0E0B8E000800EBC8111012C79
:102210001197A0FDFDCF0192B9F70DB40895FC010F
:1022200080911A04882311F13FB7F89482E08093DB
:10223000E9002091F200822F90E01816190614F49C
:1022400081E090E0882339F0289844E6409319040F
:102250004091F1004083222339F02091F2002111B6
:1022600003C02BE62093E8003FBF08958FEF9FEF58
:1022700008952FB7F89483E08093E9009091E800E7
:10228000892F807295FF04C09091F20080E4891B31
:102290002FBF08958091110481110DC082E08093B9
:1022A0000D0484E080930E041092100410920F0429
:1022B00081E0809311048DE094E00895CF93DF9343
:1022C0001F92CDB7DEB76983DC01ED91FC910280EE
:1022D000F381E02D41E050E0BE016F5F7F4F099533
:1022E0000F90DF91CF91089583E08093E900809172
:1022F000F200882319F08AE38093E80008950E9491
:10230000391190E00895CF93DF931F92CDB7DEB7D8
:10231000FC018485958597FD08C02FEF3FEF358739
:1023200024870F90DF91CF910895CE0101960E94EE
:102330000F11019719F4898190E0F3CF8FEF9FEF90
:10234000F0CF0F931F93CF93DF931F92CDB7DEB7DC
:102350008C01FC018485958597FF0BC0CE01019609
:102360000E940F11019771F4898190E0F80195871F
:102370008487F801848595850F90DF91CF911F9117
:102380000F9108958FEF9FEFF1CFFC018485958524
:1023900097FD0BC09FB7F89482E08093E90080918D
:1023A000F2009FBF90E0019608959FB7F89482E0F5
:1023B0008093E9008091F2009FBF90E008954091E2
:1023C0000704509108042091050430910604421737
:1023D0005307B4F49091E8009570E1F39091E80010
:1023E00092FD19C08093F100809107049091080438
:1023F00001968F739927892B19F48EEF8093E8004B
:1024000080910704909108040196909308048093AA
:10241000070481E0089580E00895DF92EF92FF9233
:102420000F931F93CF93DF93D82E8A01EB017B018B
:10243000E40EF51ECE15DF0559F0D7FE12C0FE01E1
:1024400084910E94DF1121968111F4CF0FEF1FEFCD
:10245000C801DF91CF911F910F91FF90EF90DF9016
:1024600008958881EECF0F931F93CF93DF931F9230
:10247000CDB7DEB782E0898342E450E068EE7FE1C9
:1024800080E80E940D120E944A11DC0112960D9103
:102490001C910115110589F0D801ED91FC91028084
:1024A000F381E02DBE016F5F7F4FC801099597FD55
:1024B00004C0F80100851185ECCF89810F90DF9170
:1024C000CF911F910F910895615030F02091F1004C
:1024D000FC0120830196F8CF289884E680931904A4
:1024E0000895282F30E0F901EA55F54E9491F9014D
:1024F000EF56FF4D84912E583F4DF9012491222330
:1025000009F430C09923E9F091509F30D0F4E92FBD
:10251000F0E0E357FD4E0C94C031BB12BF129C1289
:10252000B312B712A112A112A112C212C812CC1278
:10253000D012D612A112DA12909180009F77909358
:102540008000E22FF0E0EE0FFF1FEA5AFF4DA59149
:10255000B4919FB7F894EC91611132C080958E23AD
:102560008C939FBF0895909180009F7DE8CF9091BC
:102570008000977FE4CF94B59F7794BDE2CF94B568
:102580009F7DFBCF909190009F7790939000D9CF43
:10259000909190009F7DF9CF90919000977FF5CF1B
:1025A0009091C0009F779093C000CBCF9091C000D6
:1025B0009F7DF9CF9091C200977F9093C200C1CFC9
:1025C0008E2BCECFFC010E947913319728F06851F1
:1025D0007C4F8F4F9F4FF9CFAB01FC010E947913C5
:1025E000641775078E079F07C8F308958F929F920F
:1025F000AF92BF92CF92DF92EF92FF920F931F9311
:10260000CF93DF936C017B018A0180910D018823B8
:1026100009F45AC080911A04882309F455C08091A6
:102620000C0480FF05C08091E00082608093E00090
:10263000E801B12C8AEFA82E93E0892E2AE3922E8E
:10264000209711F4BB20C9F10E943911811108C0F3
:10265000AA94AA20C9F181E090E00E94E212F0CF92
:102660008C171D0611F00CF08C2F9FB7F8948092F8
:10267000E9002091E80025FD02C09FBFE1CF282F8F
:1026800030E0C21BD30BF701815020F04191409301
:10269000F100FACFE20EF31EBB2021F09092E80089
:1026A000B12CEBCF8091E80085FDE7CF9092E80058
:1026B000BB24B394209709F3F3CF5D9884E680930D
:1026C0000B04101611063CF081E090E0F6019383B4
:1026D000828310E000E0C801DF91CF911F910F913C
:1026E000FF90EF90DF90CF90BF90AF909F908F9032
:1026F0000895AEE7B2E02FB7F8947D918D919C914B
:1027000066B52FBFA89B05C06F3F18F47F5F8F4F42
:102710009F4F22E0660F771F881F991F2A95D1F7D8
:10272000089520917502E0917302F0917402CF0137
:1027300002969093740280937302222319F085917C
:1027400094910895808191810895CF92DF92EF92C4
:10275000FF92CF93DF930E949113811520E8920797
:1027600091F4809171008D7F80937100109291009F
:102770004698479810927202DF91CF91FF90EF90A8
:10278000DF90CF90089521E020937202813020E8FD
:10279000920751F4809170029091710290937402AB
:1027A000809373020E94911397FD05C020916F02E0
:1027B000222309F454C020916E02211150C021E05F
:1027C00020937602EC01DF77209709F04BC081E07F
:1027D0008093770246983FE9C32E3FE0D32EE12C49
:1027E000F12CCAEFD0E0E0917908F0917A080995D0
:1027F000811103C081E08093770280917602882363
:1028000029F080917702882309F43FC047980E94FD
:1028100091130097F1F19C01DE010E949131DC01DE
:10282000CB0129E0B595A795979587952A95D1F77E
:10283000109290002AE020939100D0929900C092CB
:1028400098008093780290937902A0937A02B093D3
:102850007B02809171008260809371008DCF109215
:102860007602B0CF9E0150E040E060E472E48FE079
:1028700090E00E943D3169017A0181E0C81AD108D7
:10288000E108F10810927702AECF4699BFCF479A80
:10289000BECF8FEF9FEFDC01CBCF9C01E1E7F0E0F3
:1028A00090819D7F908381E08093750230937402C4
:1028B0002093730230937102209370020C94A5133D
:1028C00090E00C94E2128FB18095807F669B8860C7
:1028D0001C9B8460089510926D023E98579808954D
:1028E0003E9A579A81E080936D02089590E1282FD7
:1028F00081E061FD84E060FD880F62FD8295687F64
:10290000969FD0011124A20FA55EBB4F0C90082A00
:1029100040FF08260C92089590910004982329F412
:1029200090910104982381E009F480E00895CF9309
:10293000C82F0E946314982F9C2381E09C1380E091
:10294000CF9108958F929F92AF92BF92CF92DF92D4
:10295000EF92FF920F93CF93DF934B01EC015C0159
:10296000A40EB11C7B01E20EF11CCA15DB05CCF4F0
:102970006401C70121E4E216F10414F080E490E060
:10298000C816D90664F4C038D10528F4402FB60122
:10299000CE010E9476148FEFC81AD80AEACF21968A
:1029A000E4CFDF91CF910F91FF90EF90DF90CF9028
:1029B000BF90AF909F908F9008951F93CF93DF9318
:1029C000DC0130E020E050E040E011E0C1E0D0E088
:1029D0002617370791F114968C911497811115C021
:1029E00014961C93149712968D919C911397ED91C8
:1029F000FC911197E80FF91FE4911596EC93159748
:102A0000019613969C938E93129714969C9114970B
:102A100015968C911597892349F0FE01022E02C06C
:102A2000EE0FFF1F0A94E2F74E2B5F2B990F1496BF
:102A30009C9314972F5F3F4FCBCFCA01DF91CF916B
:102A40001F9108952F923F924F925F926F927F92C3
:102A50008F929F92AF92BF92CF92DF92EF92FF92AE
:102A60000F931F93CF93DF93CDB7DEB72F970FB69A
:102A7000F894DEBF0FBECDBF4C017B012C870D87C4
:102A80005A8349831C821B821D821E8268E070E08B
:102A9000CE0101960E94DD141C019C012F5F3F4F67
:102AA0003B872A8768E070E0CE0101960E94DD1422
:102AB0008C0161E070E0CE0101960E94DD142A8550
:102AC0003B85280D391D37FDF5C030E8831691048C
:102AD0000CF0F0C00F5F1F4F98012E0D3F1D37FD0A
:102AE000E9C040E4E416F1040CF0E4C06701F7FE2D
:102AF00004C0CC24DD24CE18DF0857E0C522DD2435
:102B00002701F7FE03C097E0490E511C73E055946E
:102B100047947A95E1F7F7FE09C021E0421A51087F
:102B200028E030E0A9014C195D096A01980117FFFE
:102B300002C0295F3F4FA90163E0559547956A950B
:102B4000E1F758874F8307701127012B21F04F5F62
:102B50005F4F58874F830D857101011102C0F12C21
:102B6000E12C898701E010E0B12CA12C88E090E0F5
:102B70009C012C193D093F872E874F815885A4164B
:102B8000B5060CF097C066246394712C61E070E088
:102B9000CE0101960E94DD14892B21F452E0650ECE
:102BA000711CF4CFB301CE0101960E94DD14019691
:102BB0003C0170E060E06615770508F071C089851A
:102BC0008111102BA02FAA0F09F067C0A2014A0D96
:102BD0005B1DCA0101960997D0F5C4018E0D9F1D9A
:102BE00080389105A0F5CA019695982F882797956A
:102BF0008795880D991D8E0D9F1D4F3F540709F431
:102C000054C0212F0C2C01C0220F0A94EAF7FC01BA
:102C1000E55EFB4FB0810C85002371F12B2B2083E7
:102C2000C114D104A1F04730510589F0212F30E0C3
:102C30000E8402C0359527950A94E2F7FC01E5560B
:102C4000FB4F10814C854423D1F0212B20830D852F
:102C5000011118C02FEFE21AF20A4A855B85E416CB
:102C6000F506CCF05FEFA51AB50A01E0F12CE12CD6
:102C70006F5F7F4F1A2F9FCF20952B23D0CF2095AA
:102C80002123E4CF81E0E81AF108F7FE04C09FEFAA
:102C9000A91AB90A710101E0EBCF0A2FA12FE8CFE1
:102CA000298531E02327298768CFC114D10409F091
:102CB000BDCFCDCF2F960FB6F894DEBF0FBECDBFE0
:102CC000DF91CF911F910F91FF90EF90DF90CF9008
:102CD000BF90AF909F908F907F906F905F904F903C
:102CE0003F902F9008952F923F924F925F926F9254
:102CF0007F928F929F92AF92BF92CF92DF92EF928C
:102D0000FF920F931F93CF93DF938C01EB01F42E6F
:102D100041118DC0E091F5030E2E000CFF0BF7FF63
:102D200003C0F195E195F109E150E43108F0A5C047
:102D3000F0E0EE55F94E8091F803082E000C990B47
:102D40000C94C031B616B616B616351735173517AA
:102D5000371737173717371737173717B616B61607
:102D6000B616B616B61637173717B61605962CE0F0
:102D70004CE162E370E0D801AD90BC90D501A05C5D
:102D8000BF4FC090F603D090F703AC19BD09F8010E
:102D90003281A617B7070CF44AC0460F572F511DB2
:102DA000A417B5070CF043C0432F50E0481759074C
:102DB000F4F1280F392F311D42175307C4F5B9829A
:102DC000A88204979B838A8385E08C8388E893E1BB
:102DD000918380838091FC038F5F8093FC03833019
:102DE00031F58BE79BE10E944D1486E08C83809146
:102DF000FD03811107C081E08093FD038BE79BE118
:102E00000E944D148091CB039091CA03890F809347
:102E1000CB031092CA03EAECF2E08EE0908192318B
:102E200009F48083349623E0EA3CF207B9F7D8012D
:102E300012968C911297853338F58F3208F0AFC017
:102E40008832C8F5DF91CF911F910F91FF90EF90DD
:102E5000DF90CF90BF90AF909F908F907F906F90BA
:102E60005F904F903F902F900895079680CF0596E2
:102E70002DE04EE069E370E07ECF20E040E062E3C9
:102E800070E090E080E077CF8D538E30D8F682E806
:102E90009AE10E944D14F801808191819983888381
:102EA0008CE390E09B838A8381E08C8388E893E1C4
:102EB00091838083C7CF7DE5E72E72E0F72EE3E0B4
:102EC0006E2E712CF8E8CF2EF3E1DF2E55245394AB
:102ED000A6E04A2EBAECAB2EB3E0BB2E8DE0382E26
:102EE0009FE0292EF701808181114FC0D8014D91BB
:102EF0005C9181819281841B950B97FF03C0919512
:102F000081959109803191050CF03FC0F701238133
:102F10002F5F238359834883B3010E94AC314B0157
:102F2000F4E28F0E911C9B828A8232E03C83253032
:102F300049F58BE79BE10E944D14D7015C92F801A3
:102F400080819181998388839B828A824C82EAEC7A
:102F5000F2E080E09081911111C03082D70111968A
:102F60002D913C91205F3F4F33832283829D902D92
:102F70001124965F91838F5F803121F03496AE16D5
:102F8000BF0641F7F801D182C082F4E0EF0EF11CD8
:102F90002DE6E21622E0F20609F0A4CF53CF2D91E0
:102FA0003C91EAECF2E0D12CC12C808181508C3034
:102FB000A8F582819381821B930B039778F580E9B2
:102FC0009AE10E944D14F801808191819983888350
:102FD00084E390E09B838A8382E08C8388E893E19A
:102FE00091838083F601EE0FFF1FEE0FFF1FE65364
:102FF000FD4F80E180838091CB038F5F8093CB0373
:103000009091C802292F280F3327331F2034310510
:1030100009F018CF82E38093FD0314CF8FEFC81A15
:10302000D80A349690E4C916D10409F0BECFFF2027
:1030300009F408CF8AE8A82E82E0B82E95E0992EF0
:1030400022E0822E38E8E32E33E1F32E42E3C42E51
:10305000D12C56E0752ED80115968C9115978A3192
:1030600090F12D913C91F50183819481821B930B0A
:1030700097FF03C0919581959109803191051CF5C9
:1030800039832883089734F183E390E09B838A8314
:103090008C82D801ED92FC92F50180858F5F80874C
:1030A00090E0209101012130C1F026E030E082174C
:1030B000930749F48BE79BE10E944D14DB82CA829F
:1030C0007C82D5018C929A94B9E0AB0EB11C911020
:1030D000C2CFB8CE8EE290E0D9CF24E030E0E7CF87
:1030E000E5EFF3E081E0808314821582118612827D
:1030F000118288E2838316821782108688E893E122
:103100009093CD038093CC039093C4028093C30229
:103110001092C902109285080895CF92DF92EF9223
:10312000FF920F931F93CF93DF93142F111F11273B
:10313000111F042E000C550B57FF03C051954195EC
:1031400051094150510996E0949F6001959FD00C20
:103150001124E62E660FFF08C82F880FDD0BF6013D
:10316000EE0FFF1FE25BFE4F40815181012F20E0F7
:10317000B701CE010E942215F601EE0FFF1FE45B9E
:10318000FE4F4081518121E0B701CE010E942215FE
:10319000E0910404EC0DFD2DF11DEE0FFF1FE05B2F
:1031A000FE4F4081518121E0B701CE010E942215DE
:1031B000DF91CF911F910F91FF90EF90DF90CF9013
:1031C0000895E8E0E80FE13148F50E2E000CFF0B02
:1031D000E451F74E0C94C03118190E190E190E193E
:1031E00014190E1910190C190819041900190E19BF
:1031F000FD180E190E190E190219662339F00895DB
:10320000662341F084E00895662341F082E008954A
:10321000662341F081E00895662341F080E008953F
:10322000662341F08FEF0895662329F08EEF08950D
:103230006623A1F38CEF08950F93CF9388E00E944B
:103240008C14811104C084E00E948C1481111092AE
:10325000030400E021E04FE759E160E170E080E223
:1032600090E00E942215809188029091890268E284
:1032700070E00E94AC318431910570F4C1E10A978D
:1032800008F0C1E300E027E045E068E170E08BE58D
:1032900090E00E94A21404C0C1E54E9708F0C1E975
:1032A000C093CF05C07A31F485EA8093C80585E9DB
:1032B0008093C905CF910F910895DF92EF92FF920D
:1032C0000F931F93CF93DF93D82E00E021E048E7C0
:1032D00059E170E060E08FEF9FEF0E94221580912E
:1032E000CB031AE0612F0E94A031C92FE82FF0E034
:1032F000EE0FFF1FEC59F64E4591549121E070E01E
:1033000060E084E090E00E942215EC2FF0E0EE0FE8
:10331000FF1FEC59F64E4591549121E070E060E0BA
:1033200089E090E00E9422158091C802612F0E94DE
:10333000A031C92FD0E0CC0FDD1FCC59D64EE82EDE
:10334000F12CEE0CFF1CC7018C59964E7C01DD2040
:1033500009F452C021E04BE559E170E060E08EE0F5
:1033600090E00E9422158091CA03612F0E94A03133
:10337000192FE82FF0E0EE0FFF1FEC59F64E4591A4
:10338000549121E070E060E085E190E00E94221518
:10339000E12FF0E0EE0FFF1FEC59F64E45915491EE
:1033A00021E070E060E08AE190E00E94221521E0D7
:1033B00042E559E170E060E08FE190E00E94221563
:1033C000F7014591549121E070E060E086E290E0E1
:1033D0000E942215FE014591549121E070E060E0C9
:1033E0008BE290E00E942215DF91CF911F910F9107
:1033F000FF90EF90DF90089500E021E042E559E171
:1034000070E060E08EE090E00E942215F7014591A7
:10341000549121E070E060E085E190E00E94221587
:10342000FE014591549121E070E060E08AE190E076
:10343000D9CFEF92FF920F93CF93DF93EC01EC8102
:10344000E63098F5E43020F48FEF8E0F823078F577
:103450008091F6039091F70328813981AC014F5890
:103460005109241735071CF1425E5E4F421753077E
:10347000F4F0F0E0EE0FFF1FE85CFE4F4081518159
:103480006A817B81821B930B00E021E0CC960E9435
:1034900022158C8181508C83882311F0833039F47C
:1034A00088E893E19983888302C0EA3030F0DF91A5
:1034B000CF910F91FF90EF900895E090F603F09078
:1034C000F7038881998197012F5831098217930753
:1034D00074F3225E3E4F281739074CF3F0E0EE0FED
:1034E000FF1FEC5DFE4F408151816A817B81970116
:1034F000281B390BC90100E020E0C4960E94221568
:10350000EC81F0E0EE0FFF1FE85CFE4F408151813F
:103510006A817B81888199819701281B390BC901B8
:1035200021E0C4960E9422158C818F5F8C838A30A3
:1035300009F0BDCFB5CF0F93FC01408151814838D0
:10354000F3E15F07D9F02091F6033091F703B90159
:103550006F587109461757078CF0625E7E4F6417EB
:10356000750764F0FC01628170E0C901841B950B52
:1035700001E022E042E0CF960E94A2140F9108954C
:103580004F925F926F927F928F929F92AF92BF9273
:10359000CF92DF92EF92FF920F931F93CF93DF931F
:1035A000182FC091C902F12CE12CCC2E0C2E000C4E
:1035B000DD08C6018E0D9F1D20E4E20EF11CE11412
:1035C00031E0F30649F000E021E04AE359E16BE223
:1035D00070E00E942215EDCFC178C7FF03C0C15033
:1035E000CE6FCF5F0C2E000CDD0BC038D10530F450
:1035F00041E063E370E0CE010E9476142296C13868
:10360000D1059CF3C091F603D091F703CE01835608
:103610009F4F863041E0940790F400E029E04AE2B1
:103620006BE270E0835491090E94A21421E04DE006
:1036300058E160E270E0CE014A960E942215112303
:1036400019F1812F8150990BFC01EE0FFF1FE95FEB
:10365000F74E4591549100E021E066E170E086E28A
:1036600090E00E942215DF91CF911F910F91FF9062
:10367000EF90DF90CF90BF90AF909F908F907F9012
:103680006F905F904F900895ADE5EA2EA2E0FA2E7C
:10369000BDE64B2EB2E05B2E5E019FE8A91AB10891
:1036A0004E01EFE88E0E911CF701818192818A15FF
:1036B0009B0534F1881699061CF120814DE857E1ED
:1036C000F1EF6F2EF6E17F2E211106C04AEC57E193
:1036D000EEE36E2EE7E17E2E6E01C81AD90AF1E301
:1036E000CF0ED11C00E020E068E270E0C6010E942D
:1036F000221521E0A30168E270E0C6010E942215B4
:1037000024E0E20EF11C4E145F0471F66AECE62E22
:1037100062E0F62E7AECC72E73E0D72E4E0134E825
:10372000831A91083E0144E8640E711CF7018281FE
:103730009381881599056CF16816790654F12081FA
:103740003FEF320F303128F5E32FF0E0E655F44E2D
:103750000C94C031BA1BBA1BBA1BBA1B9F1C9F1C0E
:103760009F1C9F1CBB1CBB1CBF1CBF1CC91BC91BB7
:10377000AB1CAB1C422F4150550BFA01EE0FFF1F43
:10378000EA5EFE4F4081518100E04115510509F08C
:10379000E7C034E0E30EF11CCE14DF0409F0C6CF1D
:1037A0008091FD039DEF980F9F3208F4ECC040918B
:1037B000F5036091F8038DE20E948D182AE8E22E4D
:1037C00022E0F22E37EB832E32E0932E3E014FE8BB
:1037D000640E711CF7011081112309F445C0838127
:1037E00094818A159B050CF43FC0681679060CF489
:1037F0003BC06E01C81AD90AF1E3CF0ED11C00E01C
:1038000020E04FEB56E16FE270E0C6010E94221506
:10381000F701578046E456E1552011F04DE756E197
:1038200000E021E06FE270E0C6010E942215F7017E
:103830008181E82FF0E0EE0FFF1FEB54F94E459128
:10384000549101E0823008F000E021E06FE270E086
:10385000C6010E9422158DEF810F823008F0B0C0A2
:1038600081E05826F7015782F9E0EF0EF11C8E1423
:103870009F0409F0AFCF81ED93E00E949B1A87ED82
:1038800093E00E949B1A8DED93E00E949B1A83EEB9
:1038900093E00E949B1A89EE93E00E949B1A8FEEA0
:1038A00093E00E949B1A87EB92E00E949B1A8DEB9B
:1038B00092E00E949B1A8091C3029091C4028838C2
:1038C000934121F083EC92E00E94191A8091CC037D
:1038D0009091CD038838934159F08CEC93E00E948D
:1038E000191A8091FD03882319F08F5F8093FD03DF
:1038F000CA3FD1050CF077C0C23DD1050CF0E7C03E
:10390000C43BD1050CF063C0CA3AD1050CF0B8C075
:10391000C837D1050CF47FC0C03AD1050CF0A1C066
:10392000CE5AD10901E020E04AEF55E162E070E0B3
:10393000CE010E94221521E04FEB55E1BEC0422F7F
:103940004550550BFA01EE0FFF1FEA5EFE4F408116
:10395000518101E01ACFF701308300E04CED56E1D0
:103960009E01281B390BC90121E060E370E0CD9670
:103970000E9422150ECF00E04DEA5CE106CF00E088
:103980004AE95CE1EDCF8F5F8093FD038E3109F052
:1039900015CF809102048F5F80930204843070F40D
:1039A0008091CB039091C802890F9927991F803489
:1039B000910524F482E08093030400CF84E0FBCFE0
:1039C000133008F051CF1150F70110834DCFC83C90
:1039D000D1050CF078C0CE3BD1050CF460C0CA57BD
:1039E000D10900E050C0C23F48E0D4073CF5C83ED2
:1039F00058E0D5070CF078C0CE3D88E0D8070CF031
:103A000070C0C43D98E0D9070CF068C0CC3AE8E03B
:103A1000DE070CF060C081E0DF91CF911F910F9124
:103A2000FF90EF90DF90CF90BF90AF909F908F90DE
:103A30007F906F905F904F900C945D19C630F9E0C5
:103A4000DF0744F4CC3F28E0D2070CF450C0C05B41
:103A5000D8403BC0CE3239E0D307ECF6C25BD84049
:103A600038C0C05BD10901E020E045E755E162E0E4
:103A700070E0CE010E94221521E04AE355E11DC00D
:103A8000C25BD10901E020E04AE055E162E070E06C
:103A9000CE010E94221521E04CED54E10EC0C85722
:103AA000D10900E020E045EC54E162E070E0CE0195
:103AB0000E94221521E044EA54E162E070E0CE0168
:103AC0000E942215A8CFCC57D10900E0CDCFCE5708
:103AD000D10900E028CFC25ED84024CFC45ED840D0
:103AE000C2CFC65ED840CECFCC5AD840DACFCE5A5D
:103AF000D84077CFCF92DF92EF92FF926B017C019B
:103B0000C114D104E104F10441F00E94BD30A701C9
:103B100096010E943D316B017C01C701B601FF9007
:103B2000EF90DF90CF900895CF92DF92EF92FF92C7
:103B30000F931F93CF93DF930E94701880EA90E059
:103B40009093F7038093F6031092CB031092CA036D
:103B50001092C8021092FF03D1E0D093020480912A
:103B6000120190911301A0911401B091150180935D
:103B70005D0290935E02A0935F02B0936002109288
:103B8000610280E2C82E83E0D82ED0926302C092F8
:103B90006202109264021092650290EBE92E94E0AA
:103BA000F92EF0926702E09266021092680210927B
:103BB000690200E416E010936B0200936A0210920F
:103BC0006C0260E971E080E090E00E947A1DC5E03F
:103BD000C0938A0210928B02C0938C02685C7109B8
:103BE0008109910960577E4F70938E0260938D0218
:103BF00080E991E09093900280938F02D09391029C
:103C00001092920260E971E080E090E00E947A1DDB
:103C1000C093930210929402C0939502685C71095C
:103C200081099109605E7C4F7093970260939602C0
:103C3000D0929902C0929802D0939A0210929B025D
:103C400060E971E080E090E00E947A1DC0939C02E0
:103C500010929D02C0939E02685C710981099109CE
:103C600060557B4F7093A00260939F02F092A20276
:103C7000E092A102D093A3021092A40260E971E045
:103C800080E090E00E947A1DC093A5021092A602E7
:103C9000C093A702685C710981099109605C794F42
:103CA0007093A9026093A8021093AB020093AA023A
:103CB000D093AC021092AD0260E971E080E090E038
:103CC0000E947A1DC093AE021092AF02C093B00260
:103CD000685C7109810991096053784F7093B20251
:103CE0006093B10280ED97E09093B4028093B302A9
:103CF000D093B5021092B602EAECF2E080E09DE0CB
:103D00004FE0A82FA295AF7024E0A29FD00111240C
:103D1000A35ABD4F11962D913C919083982F9F707F
:103D2000949F902D1124965F9183338322838F5F1C
:103D30003496803499F5E1EDF3E088E893E19183DE
:103D400080831282138214821582369623E0E53F27
:103D5000F207A9F79093B8028093B7021092B902C4
:103D60001092BA021092BB021092BC029093BE0253
:103D70008093BD021092BF021092C0021092C10245
:103D80001092C20281E080930304DF91CF911F91D2
:103D90000F91FF90EF90DF90CF90089590E08031E9
:103DA00008F0AFCF9DE0ADCFCF93C0916D0282E020
:103DB00090E00E941531C81731F06C2F82E090E03E
:103DC000CF910C942F31CF9108951F920F920FB67F
:103DD0000F9211248F939F938091E1009091E100C5
:103DE000937F9093E10083FF0FC01092E90091E070
:103DF0009093EB001092EC0092E39093ED00109200
:103E00001A0498E09093F00082FF22C093E0909310
:103E1000E9009091F200992319F09AE39093E80059
:103E200090910B04992341F090910B049150909341
:103E30000B04911101C05D9A90911904992341F0EE
:103E400090911904915090931904911101C0289AEE
:103E500084FF18C08091E2008E7E81608093E20032
:103E60008091E1008F7E8093E10080910C048E7E32
:103E7000806180930C049F918F910F900FBE0F90E3
:103E80001F90189580FFF7CF8091E2008E7E8061B1
:103E90008093E2008091E1008E7E8093E10080912A
:103EA0000C048E7E8160E5CF1F920F920FB60F92A9
:103EB0001124CF92DF92EF92FF920F931F932F93D3
:103EC0003F934F935F936F937F938F939F93AF93A2
:103ED000BF93EF93FF93CF93DF93CDB7DEB76C978C
:103EE000DEBFCDBF1092E9008091E80083FF25C0BE
:103EF00068E0CE0145960E94641282EF8093E8004C
:103F00008D8987FF39C09091E80090FFFCCF982FF2
:103F1000907609F034C19E894F89588D2F89F88C8D
:103F2000911131C0803861F580910A048093F100CD
:103F30001092F1008EEF8093E8006C960FB6F89423
:103F4000DEBF0FBECDBFDF91CF91FF91EF91BF914B
:103F5000AF919F918F917F916F915F914F913F9121
:103F60002F911F910F91FF90EF90DF90CF900F90C6
:103F70000FBE0F901F9018959EEF9093E800C7CF4B
:103F80001092F100D5CF913059F48111D3CF413047
:103F9000510581F680910A048D7F80930A04CACF6F
:103FA000933049F48111C6CF4130510519F6809103
:103FB0000A048260F2CF953041F48091E80080FFDE
:103FC000FCCF20682093E300B5CF963009F0A9C05C
:103FD0000B8D1C8D22E01092E900109208041092C3
:103FE0000704F2122EC010920604109205040E94DB
:103FF00033121F8299E09983FA8291E09E8390EABE
:1040000098879AEF99872091070430910804275FD9
:104010003F4F3C832B838D831092E900109208045C
:1040200010920704109306040093050449E050E041
:10403000BE016F5F7F4F80E00E940D120E9433121D
:1040400079CF10930604009305040E944A11DC0105
:1040500012960D911C910115110509F451C1D80159
:10406000ED91FC910480F581E02DBE016B5E7F4FE8
:10407000C8010995009709F03EC1F8010085118536
:10408000EACFF3E0FF120EC08F89882309F440C005
:10409000823061F440E869E08CE490E20E943122D1
:1040A000811148CF81E28093EB0047CF813029F422
:1040B00040E86BE080E490E2F1CF833099F70E9412
:1040C0004A11DC011296ED90FC908E010F5F1F4F9C
:1040D0006801E114F10479F0D701ED91FC910680BB
:1040E000F781E02DB801C7010995080F111DF701EF
:1040F000E084F184EECFD8011C92F60101900020FB
:10410000E9F73197BF016C197D0940E0C601C6CFC0
:104110006AE270E2FB01449150E080E80E940D12D7
:1041200009CF973009F4BECF983021F481E0809315
:10413000F10000CF993009F0FDCE837009F0B2CFC5
:10414000EDE3F2E081E031E096E32191222371F08A
:104150008093E9003093EB00DF0111972C912093BD
:10416000EC009093ED008F5F873079F78EE78093B6
:10417000EA001092EA008F8980931A04DBCE8B8DBF
:104180009C8D1092E90010920804109207049093FD
:10419000060480930504898D811192C08E899D89C2
:1041A000913A49F4813209F07DCF47E050E066E072
:1041B00071E080E0B3CF913209F074CF833269F4BB
:1041C0008F89988DB0E0A0E0809302019093030165
:1041D000A0930401B0930501ADCE803269F48091C3
:1041E000E80082FFFCCF67E086E091E00E94641265
:1041F0008BEF8093E8009ECE823209F09BCE8F89B0
:1042000080930D01EEEFFFE7859194918B3F9C4DDC
:1042100051F1E0E0F8E08091060190910701A09152
:104220000801B0910901803B9440A105B105F1F46A
:1042300080910D0180FD1AC0EE3F8AE0F80789F5F4
:1042400087E797E7918380838091600080930904DA
:1042500088E19BE00FB6F894A895809360000FBEAC
:104260009093600067CEEEEFFAE0D5CF8081918128
:104270008737974709F05ECEA895809160008861E6
:10428000809360008091090480936000EE3F2AE0F3
:10429000F20789F08091FE0A9091FF0A9183808352
:1042A00049CE808191818737980751F29093FF0A18
:1042B0008093FE0AC5CF1092FF0A1092FE0A3ACEF2
:1042C0000E944A11DC0112960D911C9101151105F5
:1042D00009F4E8CED801ED91FC910190F081E02D38
:1042E000BE016B5E7F4FC8010995811123CEF80195
:1042F00000851185EBCF181619060CF41BCED2CE13
:10430000F1E0FF12BECE6EE270E204CF0F920FB664
:104310008F939F93EF93FF9380917D028D5F8D37F5
:1043200008F08D5780937D02E4E8F2E080818E4FA3
:10433000808391819F4F918382818F4F828383817C
:104340008F4F8383EEE7F2E080818F5F80838181EE
:104350008F4F818382818F4F828383818F4F8383AD
:104360008FB18F6066991C9B88278F3681F480916E
:104370007C02981B963068F0E0E0F8E087E78083E5
:10438000818388E180936000F0936000FFCF909379
:104390007C02FF91EF919F918F910FBE0F90189526
:1043A0001F920F920FB60F9211242F933F934F93AA
:1043B0005F936F937F938F939F93AF93BF93EF938D
:1043C000FF938091780290917902A0917A02B09146
:1043D0007B02892B8A2B8B2B09F440C080917702BA
:1043E00081110BC088B190E4892788B98091760249
:1043F000882319F088B1805888B98091780290910B
:104400007902A0917A02B0917B02181619061A0659
:104410001B069CF48091780290917902A0917A0217
:10442000B0917B020197A109B10980937802909322
:104430007902A0937A02B0937B02FF91EF91BF9132
:10444000AF919F918F917F916F915F914F913F912C
:104450002F910F900FBE0F901F9018950E94A513DB
:10446000ECCFEF92FF920F931F93CF93DF93F82E31
:10447000192FE62E042F81E0860F880F0E94DF118E
:1044800083E00E94DF11CF2DD12FEC0EFD2EF11C09
:10449000CE15DF05B9F007FF13C0FE0184910E941D
:1044A000DF11182F80E00E94DF11812321968111F6
:1044B000EFCFDF91CF911F910F91FF90EF90089573
:1044C0008881EDCF81E0F5CFEBE1F8E01382128235
:1044D00088EE93E0A0E0B0E084839583A683B78361
:1044E00087E492E0918380838FEF9FEF95878487A5
:1044F00083E890E190937A088093790880E090E8CF
:10450000909378088093770846983E9A47983F9A08
:10451000EBE7F8E010821182128213821482158276
:1045200016821782108611861286089500D01F9277
:10453000CDB7DEB7789483E084BD83E085BD81E0AC
:1045400080936E00E1E8F0E083E08083E0E881E0C2
:104550008083E1E983E08083E0E981E08083E1EC2E
:1045600087E08083E3EC81E08083E0EC82E080837D
:10457000E2EC81E08083EAE787E0808380688083E3
:1045800010921A0410920A0410920C048091D70021
:1045900081608093D70080EA8093D80089B58061DC
:1045A00089BD89B5826089BD09B400FEFDCF81E077
:1045B00090E00E94E2128091D8008F7C806180930D
:1045C000D8008091E000807F8093E0008091E1003E
:1045D0008E7E8093E1008DE08093E200559A209AD0
:1045E00081EC80937C0081E185B987E684B984E31E
:1045F0008BB98FE38AB9769A6E9880EF81BB10BA37
:1046000080E58CBD81E08DBD85E00E946014599AE3
:1046100085E00E9460145C98E5ECFAE185918EBD1E
:1046200000000DB407FEFDCFE23DC1F75C9A81E8C2
:104630008093640081E0809365008AE00E94861088
:1046400083E00E94861089E00E94861061E08AE083
:104650000E94711260E083E00E94711261E089E0C3
:104660000E94711280E10E9497148823A9F05C983F
:1046700085EA8EBD00000DB407FEFDCF5C9A2E9832
:1046800058982D988091640080628093640081E046
:1046900083BF889513BEFCCF84E00E9497148823C3
:1046A000C9F12E9A589A2D9884E10E949714882374
:1046B000A1F02D9A88EC0E94601458986FEF82E068
:1046C00090E00E941D3184EF91E00E94E212589A1E
:1046D00084E10E9497148111FBCF84E80E94971413
:1046E0008823A1F02D9A88EC0E9460142E9860E037
:1046F00082E090E00E941D3184EF91E00E94E2127E
:104700002E9A84E80E9497148111FBCF88EC0E94B6
:104710006014C2CF2E9858982D9882E090E00E94A5
:104720001531882309F44BC00E94701488E28093ED
:104730000001809164008E7F8093640080917A00F4
:10474000806480937A0080917A0086FDFCCF00918E
:104750007800109179000E947913AB01BC01C80167
:10476000B0E0A0E0DC01992788278C019D01040FAF
:10477000151F261F371FC901B80120916400216051
:1047800020936400611571058105910511F00E9467
:104790000C310E94941D85E08093030498E8C92E93
:1047A00093E1D92E80918202882361F010928202D7
:1047B00080E090E0892BB1F30E940000F3CF0E94CB
:1047C0006B14B4CF9091840280918302192F181B2F
:1047D000812F20910001121740F48F5F821740F75C
:1047E00081E083BF889513BEE3CF81E0809382028E
:1047F00090938302E8E8F2E08081918101968083C2
:104800009183809104048F5F843031F1809304049C
:1048100080910104809300040E946314809301043A
:1048200090E0EBE1F4E091119FEF8FEF9193919382
:10483000919391938150D0F7E0910304E730B0F465
:10484000F0E0EB5DFB4D0C94C0313924402437255A
:1048500047254C302F24322410920404D9CF86E00F
:10486000809303040E941C190E94FF100E94FF10F5
:104870009FCF0E94941D8EE49FE10E944D14F6CFBD
:104880008091FF03803CB0F4813808F0B9C08038D3
:1048900008F0A0C0813408F08BC08823D1F000E07C
:1048A00021E045EA5EE167E170E080E190E00E948E
:1048B000221515C08F3F08F0C7C0813C08F4B2C074
:1048C00000E021E041EC5CE170E060E090E080E03D
:1048D00077C08AEA90E09093F7038093F60380E430
:1048E0000E9497141091FF03882381F0812F837019
:1048F00000E021E04DEA5CE1833011F44AE95CE13B
:1049000064E370E083E090E00E9422151F5F109343
:10491000FF03E090F603F090F70325ECE2162FEF8B
:10492000F206ACF000E020E049E55CE16CE070E00C
:10493000C7010E94221546E06CE08E2D0E948D1862
:1049400033E0E31AF108F092F703E092F60388E00F
:104950000E948C14882351F087E39CE10E944D143F
:1049600081E08093010182E08093030484E00E944F
:104970008C14882349F087E39CE10E944D1482E067
:10498000809301018093030480E10E948C148823AA
:1049900021F00E9470140E94D41E80E80E948C14A2
:1049A000882309F463CF0E946B140E94D41E5ECF4B
:1049B00000E021E045EA5EE167E170E080E190E03F
:1049C0000E94221521E044E65EE166E370E084E2A5
:1049D00090E06DCF00E021E048EC5DE170E060E048
:1049E00090E080E00E94221521E040E85DE166E36E
:1049F00070E080E290E00E94221586E990E06BCFA3
:104A000000E021E048EC5DE170E060E090E080E0F3
:104A10000E94221521E040E85DE166E370E080E25B
:104A200090E045CF00E021E041EC5CE170E060E027
:104A300090E080E00E94221521E044E65EE166E31A
:104A400070E084E290E0D7CF00E021E045EA5EE14B
:104A500067E170E080E190E00E9422158AEA90E030
:104A60009093F7038093F6031092FF0338CF0E94D0
:104A70007018809102040E94C01A88E00E948C1471
:104A8000882309F4F3CE83E080930304EFCE809172
:104A9000850881110EC180E10E9497140091F803EE
:104AA000882399F160E08091FA030E3FBCF584E021
:104AB0000E9497141091F503882309F450C0809147
:104AC000F90381118EC0113091F11A3009F45FC0E1
:104AD0001F3F09F044C087EF89838AE08A83BE01C3
:104AE0006F5F7F4FCE0102960E94A51089EF8983E8
:104AF00088EF8A83BE016F5F7F4FCE0102960E94CE
:104B0000A51081E08093FB032AC0083284F68091CF
:104B1000FA0390910101923031F461E00E94E118B2
:104B20008093FA03C4CF18160CF4C1CFF6CF89E0F6
:104B300089838AE08A83BE016F5F7F4FCE01029630
:104B40000E94A51087E0898388E08A83BE016F5F99
:104B50007F4FCE0102960E94A5101092FB0380E4C5
:104B60000E949714882309F476C208320CF091C091
:104B70001F3F09F45BC10CF065C0143F09F499C1F3
:104B80001A3F09F467C182E08093FE0392C08091CE
:104B9000FB03811117C089EF89838FEF8A83BE01E0
:104BA0006F5F7F4FCE0102960E94A51087EF898329
:104BB00088EF8A83BE016F5F7F4FCE0102960E940D
:104BC000A510CDCF87E0898381E08A83BE016F5F26
:104BD0007F4FCE0102960E94A51089E0898388E06C
:104BE000E8CF143F39F194F41F3E09F0B8CF84E1C7
:104BF000898386E08A83BE016F5F7F4FCE01029674
:104C00000E94A51082E1898383E1D3CF1C30B1F0EB
:104C1000113109F0A4CF8CEE89838AEF8A83BE011B
:104C20006F5F7F4FCE0102960E94A5108EEE8983A2
:104C30008DEEBFCF8CEE89838AEFBBCF84E1898371
:104C400086E0B7CF1A3009F4B6C0113109F4BFC0FD
:104C5000113009F098CF84E0898385E08A8386E06B
:104C60008B83AE014F5F5F4FBE016E5F7F4FCE0102
:104C700003960E94C31012E0198383E08A83BE0169
:104C80006F5F7F4FCE0102960E94A5101093FE0326
:104C900010C080E10E94971481116ACF113009F48D
:104CA0001FC10CF05DC01F3E09F494C11F3F09F401
:104CB000ACC188E00E948C14882309F4FBC3809166
:104CC000F503082E000C990B97FF03C09195819571
:104CD0009109982F8D50873008F4ECC3913008F477
:104CE000D5C4943018F0853008F0D0C4E1EDF3E07D
:104CF00010E000E0808191818838934109F0D3C3AE
:104D000081E29CE10E944D148091F6039091F7039B
:104D10002091F50343EF5FEF27FD02C04DE050E027
:104D200036E0309FF001319FF00D1124EF52FC4F1F
:104D3000840F951F918380838091F803815F828324
:104D40009FEF948398E027FF98EF26E0209FF001E3
:104D5000219FF00D1124EF52FC4F93838583AAC34A
:104D60001A3009F4EDC01C3009F413C1163009F0F3
:104D7000A0CF85E38983CE0101960E94ED1012E059
:104D8000198381E08A83BE016F5F7F4FCE01029657
:104D90000E94A51085E0898384E08A8383E08B8369
:104DA000AE014F5F5F4FBE016E5F7F4FCE01039636
:104DB0000E94C3106BCF8BE089838CE08A83BE0195
:104DC0006F5F7F4FCE0102960E94A510DCCE84E07B
:104DD000898385E08A8386E08B83AE014F5F5F4FD6
:104DE000BE016E5F7F4FCE0103960E94C31081E02B
:104DF000898312E01A8383E08B83AE014F5F5F4F9C
:104E0000BE016E5F7F4FCE0103960E94C3108EE0FD
:104E100089838DE08A83BE016F5F7F4FCE0102964A
:104E20000E94A51080E189838FE028CF81EF8983DC
:104E300080EF8A838FEE8B83AE014F5F5F4FBE01A1
:104E40006E5F7F4FCE0103960E94C31083EF89836C
:104E500082EFB4CF81EF898380EF8A838FEE8B83DB
:104E6000AE014F5F5F4FBE016E5F7F4FCE01039675
:104E70000E94C31083EF898382EF8A83BE016F5F34
:104E80007F4FCE0102960E94A5108DEF89838EEF91
:104E90008A838FEF8B83AE014F5F5F4FBE016E5FE2
:104EA0007F4FCE0103960E94C3108BEF89838CEF56
:104EB00085CF8BE089838CE08A83BE016F5F7F4F53
:104EC000CE0102960E94A51085EF89838AE08A832D
:104ED000BE016F5F7F4FCE0102960E94A51024C1D4
:104EE00085E38983CE0101960E94ED1003E00983DA
:104EF00082E0F82EFA821B83AE014F5F5F4FBE0146
:104F00006E5F7F4FCE0103960E94C31084E38983B6
:104F10000A83BE016F5F7F4FCE0102960E94A510EB
:104F2000F9820A830B83AE014F5F5F4FBE016E5F54
:104F30007F4FCE0103960E94C310F092FE03B9CEBC
:104F400085E38983CE0101960E94ED100BE0098371
:104F50000A831B83AE014F5F5F4FBE016E5F7F4FC1
:104F6000CE0103960E94C31084E38983CE0101968B
:104F70000E94ED1009830A838CE08B83AE014F5FA2
:104F80005F4FBE016E5F7F4FCE0103960E94C3103C
:104F9000FACD85E38983CE0101960E94ED101BE0D6
:104FA00019831A838AE08B83AE014F5F5F4FBE0186
:104FB0006E5F7F4FCE0103960E94C31084E3898306
:104FC000CE0101960E94ED101983CE0101960E9438
:104FD000ED10D9CD85E38983CE0101960E94ED10B5
:104FE0008FEF8983CE0101960E94ED1083EF8983B4
:104FF00082EF8A83BE016F5F7F4FCE0102960E94CF
:10500000A51081EF898380EFD9CE85E38983CE0116
:1050100001960E94ED1003EFF02EF9821A83BE0173
:105020006F5F7F4FCE0102960E94A51011EF19838A
:1050300002EF0A83BE016F5F7F4FCE0102960E948E
:10504000A51084E38983CE0101960E94ED10F982B8
:105050000A831B8393CF80E20E949714882309F46C
:1050600087C108320CF457C080E10E949714811167
:1050700052C01F3F09F4FBC0F4F4143F09F443C1CC
:105080001A3F09F016CE85E38983CE0101960E946E
:10509000ED108EEF89838FEF8A83BE016F5F7F4FA4
:1050A000CE0102960E94A5108BEF89838CEF8A8334
:1050B0008DEF8B83FFC01A3009F407C1113109F459
:1050C0003CC1113009F0F5CD85E38983CE0101960D
:1050D0000E94ED10FDE0EF2EE9821A83BE016F5FA2
:1050E0007F4FCE0102960E94A5100FE00983AEE02B
:1050F000FA2EFA82BE016F5F7F4FCE0102960E94A8
:10510000A51083E38983CE0101960E94ED10E98208
:10511000FA820B8345CE113009F486C03CF41F3E61
:1051200009F453C01F3FC9F181E02ECD1A3009F4B4
:1051300048C01C3009F48CC01630B1F78FE0898369
:1051400080E18A8381E18B83AE014F5F5F4FBE01B7
:105150006E5F7F4FCE0103960E94C3108DE089835E
:105160008EE08A83BE016F5F7F4FCE0102960E9460
:10517000A51083E0898382E08A8311E01B83AE015E
:105180004F5F5F4FBE016E5F7F4FCE0103960E945F
:10519000C31085E0898384E071CD8CEF89838BEF28
:1051A0008A838AEF8B83AE014F5F5F4FBE016E5FD4
:1051B0007F4FCE0103960E94C3108EEF89838DEF3F
:1051C00086CE85EF898384EF82CE8CEF89838BEF47
:1051D0008A838AEF8B83AE014F5F5F4FBE016E5FA4
:1051E0007F4FCE0103960E94C3108FEF89838EEF0D
:1051F0008A838DEF8B83AE014F5F5F4FBE016E5F81
:105200007F4FCE0103960E94C31082EF898383EF04
:105210008A83BE016F5F7F4FCE0102960E94A51068
:1052200080EF898381EF53CE8FE0898380E18A8389
:1052300081E18B83AE014F5F5F4FBE016E5F7F4F99
:10524000CE0103960E94C3108DE089838EE016CDB7
:1052500085EF898384EF8A83BE016F5F7F4FCE0124
:1052600002960E94A5108BE089838AE0A7CD85E392
:105270008983CE0101960E94ED100DEF0983BEEFE8
:10528000FB2EFA821B83AE014F5F5F4FBE016E5F44
:105290007F4FCE0103960E94C31083E389830A8364
:1052A000BE016F5F7F4FCE0102960E94A510F9826A
:1052B0000A830B83AE014F5F5F4FBE016E5F7F4F6E
:1052C000CE0103960E94C3102FCF85E38983CE01C0
:1052D00001960E94ED1005EF09830A831B83AE013E
:1052E0004F5F5F4FBE016E5F7F4FCE0103960E94FE
:1052F000C31083E38983CE0101960E94ED100983D8
:105300000A8384EFD6CE85E38983CE0101960E947D
:10531000ED1015EF19838AE08A83BE016F5F7F4F1E
:10532000CE0102960E94A51083E38983CE010196E7
:105330000E94ED1019831A83CBCD85E38983CE01BA
:1053400001960E94ED1011E01983CE0101960E9492
:10535000ED108DE089838EE08A83BE016F5F7F4F01
:10536000CE0102960E94A5108FE0898380E186CC51
:105370001A3F09F44AC074F41F3E09F47AC0143F7E
:1053800009F097CC85E38983CE0101960E94ED1048
:1053900085EF29C01C3001F1113109F450C01630DD
:1053A00009F087CC85E38983CE0101960E94ED1038
:1053B00083E0898382E08A8381E08B83AE014F5F43
:1053C0005F4FBE016E5F7F4FCE0103960E94C310F8
:1053D00085E0898384E009C085E38983CE01019655
:1053E0000E94ED108BE089838AE08A83BE016F5FA3
:1053F0007F4FCE0102960E94A5108091F903882369
:1054000009F457CC0CF0BFCB8FCE85E38983CE0156
:1054100001960E94ED108DEF89838EEF8A838FEFC6
:105420008B83AE014F5F5F4FBE016E5F7F4FCE013A
:1054300003960E94C3108BEF89838CEFD6CF85E350
:105440008983CE0101960E94ED108EE089838DE064
:105450008A8381E08B83AE014F5F5F4FBE016E5F39
:105460007F4FCE0103960E94C31080E189838FE0B5
:10547000BCCF85E38983CE0101960E94ED1082EFB7
:10548000898383EF8A838FEF8B83AE014F5F5F4FFA
:10549000BE016E5F7F4FCE0103960E94C31080EF66
:1054A000898381EFA2CF0F5F1F4F3696063011051B
:1054B00009F020CCE09185088091880290918902C2
:1054C000EE23C1F180FD36C03091F503AFEFAE0F92
:1054D000A0938508B0E0A558B74F2C912093F50311
:1054E000233361F422E02093FE03E250E093850829
:1054F000F0E0E558F74F20812093F5032091F50364
:10550000243371F421E02093FE03E0918508E150FB
:10551000E0938508F0E0E558F74F20812093F503EC
:105520002091F503253331F41092FE031092F90314
:105530003093F50383709927892BA1F48091F903A7
:105540009091FE0361E0913019F0923029F460E00F
:105550000E94E1188093F9038091F903811102C040
:105560001092FE039091FA038091F803983F4CF05B
:105570009F3F09F00CF4B6C02FEF290F283008F434
:10558000CDC02091FA039091F803920F9093F80305
:10559000022E000C330B4091CE035091CF03420FEB
:1055A000531F5093CF034093CE035091F903809142
:1055B000C902851B8093C9026091F6037091F703BD
:1055C000DB01A51BB10957FDB395AD01B093F703FE
:1055D000A093F603803C1CF4805C8093C902809108
:1055E000C90218161CF480548093C902692F092E31
:1055F000000C770B621B730B663271050CF052C105
:1056000097320CF44FC18091F503082E000C990BD2
:1056100097FF03C09195819591096091C80270E050
:105620009091CB031091FD03AAECB2E08150E82EDB
:10563000F12C00E12C9121502C3008F029C1129658
:105640002D913C911397241B350B37FF03C03195E7
:1056500021953109843108F01BC1F701EE5CF44D4E
:105660000C94C0313C2C3C2C3C2C3C2C3C2C3C2C39
:105670006B2D6B2D6B2D6B2D6B2D6B2D3C2C3C2CCA
:105680003C2C3C2C3C2C6B2D6B2D3C2CE1EDF3E0A9
:1056900010E000E08081918188389341E1F481E25B
:1056A0009CE10E944D1486E0809FF001819FF00DE7
:1056B0001124EF52FC4F8091F6039091F7039183F0
:1056C00080838091F8038D5E828391E09483909132
:1056D000F903990F42CB0F5F1F4F36960630110525
:1056E000C9F6E8CE181664F09C3F69F49EEF9093DB
:1056F000FA038F3F2CF49FEF9093FA038E3F5CF0F8
:105700009091FA0318C08F3FDCF79E3FA1F38E3FC4
:10571000B9F39F3FA9F71092FA03F2CF28E230E0E5
:10572000291B310997FD3395482F082E000C550B86
:105730004217530724F4890F8093F80322CF209156
:10574000F503022E000C330B37FF03C03195219572
:1057500031092C3030F5273018F42150233020F552
:1057600085326CF0943009F03EC092E09093FA03D9
:1057700087322CF091E09093FA038832E4F520917F
:10578000FA03820F8093F8038091CE039091CF03A8
:10579000820F911D27FD9A959093CF038093CE039E
:1057A000F0CE2D502230E0F2943009F08DC42091DB
:1057B000F903022E000C330B37FF03C031952195FE
:1057C00031092230DCF485320CF49ACF92E09093C8
:1057D000FA0387320CF494CF91E09093FA03883265
:1057E0000CF099CF8DCF873254F2923019F2873274
:1057F00031F2913021F61092FA03C1CF8BE79BE191
:105800000E944D149091FA0388E2891B8093F8035B
:105810002091F6033091F703205F3F4F3093CD0383
:105820002093CC03082E000C990B04969093CF0381
:105830008093CE0386E08093D0031092FA03809188
:10584000FD03811103C081E08093FD038091CB03B0
:105850009091CA03890F8093CB031092CA03EAEC9C
:10586000F2E08EE09081923109F48083349693E0E7
:10587000EA3CF907B9F785CE273031054CF40C9393
:105880009F5F9B01290F311D2034310509F412E37C
:105890001496E3E0AA3CBE0709F0CCCE1093FD03BA
:1058A0009093CB030AEC12E03AECA32E33E0B32E34
:1058B00048E0F42EEE24E39455E0952E69E0862E20
:1058C0007CE0372EEEE02E2E8091CA03D8019C9109
:1058D000803108F007C12FEF290F2D3008F002C1E9
:1058E0008091FD03811169C14091F6035091F70346
:1058F000433351050CF461C18091F80388320CF4F4
:105900005CC112962D913C91241B350B37FF03C0CF
:10591000319521953109253031050CF0F7C08FE420
:105920009BE10E944D148091CA038F5F8093CA034C
:1059300022E1F8012083829D802D112481830C5F58
:105940001F4FA016B10609F0BFCF01ED13E0F5EF30
:10595000EF2EF3E0FF2ED8018D919C918838B3E1B2
:105960009B0789F1F8012381821B910927FD9395FB
:105970002091F6033091F703AC01421B530B9A01BF
:1059800057FF03C0319521953109273431050CF0BB
:105990000EC2D8018D939C93D80114968C911497C4
:1059A0008F3F59F012969C911297980F12969C93E4
:1059B00061E00E94E118F801848341E063EC72E049
:1059C000C8010E9473160A5F1F4FE016F10619F610
:1059D00007EB12E0E3ECEE2EE2E0FE2ED8018D9113
:1059E0009C918838B3E19B0779F1F8012381821BF0
:1059F000910927FD93952091F6033091F703AC01AF
:105A0000421B530B9A0157FF03C031952195310971
:105A1000273431050CF0CFC1D8018D939C93D80168
:105A200014968C91149712969C911297980F129637
:105A30009C9361E00E94E118F801848340E06CECE3
:105A400073E0C8010E9473160A5F1F4FE016F1064B
:105A500029F60AE812E097EBA92E92E0B92E28E287
:105A6000322E32E0432E4EEF242E55E0952E63E089
:105A7000862E74E0572ED8018C91833008F46CC2C6
:105A80001396ED90FC9014972091F6033091F70354
:105A9000833009F494C1843009F497C1E21AF30AFF
:105AA000FDE0EF16F1040CF09EC124EFE2162FEF9B
:105AB000F2060CF0D8C139E1E3163CEFF3060CF422
:105AC0009CC149EDE4164FEFF4060CF0C8C1D801B3
:105AD00011961C9292C1243031050CF0D9CE00935E
