:100000000C9499100C94C1100C94C1100C94C11054
:100010000C94C1100C94C1100C94C1100C94C1101C
:100020000C94C1100C94C1100C9475260C94E42609
:100030000C94C1100C94C1100C94C1100C94C110FC
:100040000C94C1100C94C1100C94C1100C94C110EC
:100050000C94C1100C94C1100C94C1100C9416296E
:100060000C94C1100C94C1100C94C1100C94C110CC
:100070000C94C1100C94C1100C94C1100C94C110BC
:100080000C9460290C94C1100C94C1100C94C110F4
:100090000C94C1100C94C1100C94C1100C94C1109C
:1000A0000C94C1100C94C1100C94C1100D090008DF
:1000B000200024882054201240040000000000008A
:1000C00000000000000000000D0900082288000860
:1000D00080042002900400000000000000000000E6
:1000E000000000000D0901900208000004000080DB
:1000F00011000800000000010000000000000100E5
:100100000D0902400000000400004001000002014F
:10011000000000000000000000000001F7000900DE
:10012000A5000A0000001E00F7000900A5000A0053
:1001300000001E00F7000900A5000A0000001E00D4
:10014000F7000900A5000A000080F7000900A500DB
:100150000A0000001E00F7000900A5000A000000C8
:100160001E00F7000900A5000A000080F700090042
:10017000A5000A0000001E00F7000900A5000A0003
:100180000080F7000900A5000A0000800B080E9807
:100190007D363C3C3C367D980E0B0870187DB6BC15
:1001A0003CBCB67D18700104B504020202050104CE
:1001B000B00E020202050104C70E0202020504028B
:1001C000B5370202020D02B54B0202020D034B3796
:1001D000FE02020D034B4BFE02020D0402B50402A7
:1001E00002020502B51802020205034B04FE0202D8
:1001F00005034B18FE020205020339320202020D0A
:1002000003B00E4602020D020239320202020D0252
:10021000B00E4602020D0203390E0202020503B0BF
:100220000E020202050201390E0202020501B00EA1
:10023000020202050203B00E3202020D03C746029B
:1002400002020D0202B00E3202020D02C746020285
:10025000020D0203B00E0202020503C70E020202E3
:10026000050202B00E0202020502C70E02020205DA
:100270000403B52D0202010D03B5410202010D0276
:100280004B2DFE02010D024B41FE02010D0402B591
:100290002D0202010D02B5410202010D034B2DFE9C
:1002A00002010D034B41FE02010D0403B5040202DD
:1002B000010503B51802020105024B04FE02010507
:1002C000024B18FE0201050402B5040202010502F8
:1002D000B51802020105034B04FE020105034B1889
:1002E000FE020105020339410202010D03B00E2D89
:1002F00002010D020239410202010D02B00E2D026F
:10030000010D0203390E0202010503B00E020201C3
:10031000050202390E0202010502B00E02020105B9
:100320000203B00E3202010D03C7410202010D02A9
:1003300002B00E3202010D02C7410202010D02039A
:10034000B00E0202010503C70E020201050202B04F
:100350000E0202010502C70E020201050401B00EE1
:100360003202000D01D1460202000D0350182D0289
:10037000000D037150FD02000D0402B00E320200A8
:100380000D02D1460202000D03B0182D02000D032C
:10039000D1500202000D0403B00E0202000503D189
:1003A0000E02020005035018FD020005037118FD3E
:1003B0000200050402B00E0202000503D10E020283
:1003C000000502B0180202000503D1180202000560
:1003D0000400B5370202020D00B54B0202020D0106
:1003E0004B37FE02020D014B4BFE02020D0400B51D
:1003F000040202020500B51802020205014B04FEC8
:10040000020205014B18FE02020502013932020206
:10041000020D01B00E4602020D0200393202020244
:100420000D00B00E4602020D0201390E0202020555
:1004300001B00E020202050200390E02020205009E
:10044000B00E020202050201B00E3202020D01C717
:10045000460202020D0200B00E3202020D00C74633
:100460000202020D0201B00E0202020501C70E02D5
:100470000202050200B00E0202020500C70E0202CF
:1004800002050401B52D0202010D01B54102020170
:100490000D024B2DFE02010D024B41FE02010D0427
:1004A00000B52D0202010D00B5410202010D014B04
:1004B0002DFE02010D014B41FE02010D0401B504A8
:1004C0000202010501B51802020105024B04FE02F9
:1004D0000105024B18FE0201050400B504020201E9
:1004E0000500B51802020105014B04FE02010501D9
:1004F0004B18FE020105020139410202010D01B053
:100500000E2D02010D020039410202010D00B00E54
:100510002D02010D0201390E0202010501B00E0289
:100520000201050200390E0202010500B00E0202AE
:1005300001050201B00E3202010D01C741020201A4
:100540000D0200B00E3202010D00C7410202010D82
:100550000201B00E0202010501C70E0202010502EE
:1005600000B00E0202010500C70E020201050402DE
:10057000B00E3202000D02D1410202000D005018EF
:100580002D02000D007150FD02000D0400B00E326E
:1005900002000D00D1410202000D01B0182D020031
:1005A0000D01D1500202000D0402B00E020200053E
:1005B00002D10E02020005005018FD020005007174
:1005C00018FD0200050400B00E0202000500D10E65
:1005D0000202000501B0180202000501D118020252
:1005E00000050B084281A991A981A5B5AD814221E1
:1005F000100101F929291101F12929F101798181DC
:10060000790191A9A94901F9A9A98901F9898971F2
:1006100001010404040404040404040404040404A0
:10062000040404040404040404040404040404048A
:10063000040404830028000000F40100800B023C45
:10064000000000F4010080330B01017189A9E90168
:10065000F9A9A989010909F9090901010101F92982
:1006600029D101F9A9A98901F12929F101F989897A
:10067000710199A1A179010101B9010104040404E6
:10068000040404040404040404040404040404042A
:10069000040404040404040404040404040404041A
:1006A0000404040404040404040404040404042CE2
:1006B0000B0101010101798141817901F12929F1C0
:1006C000017981611901F9A9A989010101010101DA
:1006D0000101010101010101010101010104040401
:1006E00004040404040404040404040404040404CA
:1006F00004040404040404040404040404040404BA
:100700000404040404040404044C14010101010160
:1007100001798141817901F12929F10179816119F9
:1007200001F9A9A989010101718989510171898999
:100730007101F9112111F901F949493101F9818159
:100740008101F9A9A9890109F9090901F9A9A98969
:10075000010101010101010000F82828080078804A
:10076000807800F8A8A88800F88080800000F8A8A9
:10077000A850007088887000F81020F800788080F9
:10078000780090A8A8480050000000000000000079
:100790000000000000000000000000000000000059
:1007A00000000008080808080808080808080808E1
:1007B00008080808080808080808080808080808B9
:1007C00008080808080808080808080808080808A9
:1007D0000808080808080808080808080808080899
:1007E000080808080808080808080808080808078A
:1007F00019008C5E56529E0000FE00AA00FE00000A
:100800007F80AA807F0000000000000000071F001A
:10081000A2129612A60000FF00AA00FF0000FF002F
:10082000AA00FF00001F202A201F000505151F0A2F
:100830000E040504060D0909060E040406040F0241
:10084000040906060904090604040F05060708073B
:10085000010F0609070106020204080F060906092E
:100860000603040A09060E4000FF00000000000015
:1008700000000000000000FF000000000000000079
:100880000000000000FF0000000000000000000069
:10089000000000FF00000000000000000000000059
:1008A00000FF00000000000000000000000000FF4A
:1008B00000000000000000000000000000FF000039
:1008C0000000000000000000000000FF0000000029
:1008D00000000000000000000108000000E0F0E05F
:1008E000E0F0F8F0E0E0F0E00000040F0F6FFF6FC1
:1008F0003F7F3F6FFF6F0F0F040F10000000E000FD
:1009000080E030E08000E0000000000407026B039C
:100910000C260C036B020704000000E0F0E0E0F09E
:10092000F8F0E0E0F0E00000040F2F7F7F7F3F7FD2
:100930003F7F7F7F2F0F040F10000000E00080E05A
:1009400030E08000E0000000000407222B230C268A
:100950000C232B220704000000E0F0E0E0F0F8F0A8
:10096000E0E0F0E00000040F0F0F1F0F1F0F1F0F3C
:100970001F0F0F0F040F10000000E00080E030E0B8
:100980008000E0000000000407020B030C060C03CB
:100990000B02070400BAFFFAF0E4EEF6FFF6EEE40D
:1009A000F0FAFFBA040F0F0F1F0F1F0F1F0F1F0FBB
:1009B0000F0F040F1000BA00E00084E032E0840062
:1009C000E000BA00000407020B030C060C030B0244
:1009D00007040068FCE8F0E8FCFCFEFCFCE8F0E83A
:1009E000FC68040F0F0F1F0F1F0F1F0F1F0F0F0F9C
:1009F000040F10006800E00088E034E08800E000A8
:100A00006800000407020B030C060C030B0207042A
:100A100000FFFF000000000000000000000000FFD9
:100A2000010100000000000000000000000001FFC4
:100A3000FF0000000000000000000000FFFF0101B7
:100A400000000000000000000000000101FFFFFFA7
:100A5000000000000000000000FFFFFF0101010096
:100A60000000000000000000010101FFFFFFFF0087
:100A7000000000000000FFFFFFFF01010101000076
:100A8000000000000001010101FFFFFFFFFF000067
:100A9000000000FFFFFFFFFF010101010100000056
:100AA00000000101010101FFFFFFFFFFFFFF00FF49
:100AB000FFFFFFFFFFFF0101010101010100010133
:100AC0000101010101FFFFFFFFFFFFFF00FFFFFF2B
:100AD000FFFFFFFF0101010101010100010101010F
:100AE000010101FFFFFFFFFFFFFFFFFFFFFFFFFF10
:100AF000FFFF0101010101010101010101010101EA
:100B000001FF00000000000000FFFFFF00000000E8
:100B100000FFFFFFFFFF000000FFFFFFFFFFFFFFE1
:100B200000FFFFFFFFFFFFFFFFFFFFFFFFFFFFFFD4
:100B3000FFFFFFFFFFFFFFFFFFFFFFFFFFFFFFFFC5
:100B4000FFFFFFFFFFFFFFFFFF0F09FF0000000097
:100B5000000000000000000000FF01000000000095
:100B600000000000000000000100FF000000000085
:100B7000000000000000FF00000100000000000075
:100B8000000000000001000000FF00000000000065
:100B9000000000FF00000000010000000000000055
:100BA0000000010000000000FF0000000000000045
:100BB000FF00000000000001000000000000000134
:100BC00000000000000000FF0000000000FF000027
:100BD0000000000000000100000000000100000013
:100BE000000000000000FF000000FF000000000007
:100BF00000000000000100000001000000000000F3
:100C00000000000000FF00FF0000000000000000E6
:100C100000000000010001000000000000000000D2
:100C200000000000FF0000000000000000000000C5
:100C300000000001000000000000000908FF0000A3
:100C40000000000000FF00FF0000000000FF0000A7
:100C500000FF000000FF0000000000FF00FF000098
:100C60000000000000FF0000000000000000000085
:100C700000000000000000000000000038FE7DFEC3
:100C8000FEFEFEFEFEFE7DFF2F00000100000000C4
:100C900000000001000054FE7CFE7CFEFFFE7CFE96
:100CA0007C7C280000000000000100000000000023
:100CB00012BFFFFFFEFCFCFCFEFFFFBF12000001A5
:100CC0000000000100000001000070FAFFFFFEFFBD
:100CD0007EFFFEFFFFFA7000000001000000000030
:100CE00001000000FFFFFFFFFFFFFFFFFFFFFFFF0F
:100CF000000F0F0F0F0F0F0F0F0F0F0F0F00000040
:100D0000FFFFFFFFFFFFFFFF0000000000070707D6
:100D100007070707070000002A5D3E3E3E5D2A00E8
:100D2000143E3E7F3E1C08002A7F3E7C3E7F2A0008
:100D30002A7F3E7C3E7F2A00183C7EFFFF7E3C18C7
:100D400000FFFFFFFFFF0000387C7CFEFEFEFEFE82
:100D5000FEFE7C7C38000000000000000000000067
:100D60000000287C7CFE7CFEFFFE7CFE7CFE5400A6
:100D7000000000000001000000000000143EFEFF23
:100D8000FEFC7CFCFEFFFE3E1400000001000000A3
:100D9000000001000000307CFEFFFEFFFEFFFEFFB2
:100DA000FE7C300000000001000000010000000097
:100DB000FFFFFFFFFFFFFFFFFFFFFFFF000F0F0F12
:100DC0000F0F0F0F0F0F0F0F0F000000FFFFFFFFA0
:100DD000FFFFFFFF000000000007070707070707E6
:100DE00007000000081C3E3E3E1C0800081C3E7F19
:100DF0003E3E14000C3E7E3C7E3E0C001C3E7E3F80
:100E00007E3E1C00183C7EFFFF7E3C1800FFFFFF6B
:100E1000FFFF00000A1F0E1F0A010808002A1C1409
:100E20001C2A000000141C2A1C080000002A143888
:100E3000142A0000002A1438142A00000018244A3A
:100E4000422418000000543A54000000080800082A
:100E50001C141C08000000081C221C140000000CBC
:100E60003418340C0000001C341A341C0000001824
:100E7000244A422418000000543A540000000101A2
:100E800001AF001600AF001600AF0016000080DCB6
:100E900000090093000A0083000600AF000A00006A
:100EA00080830028000000140006012800000014C0
:100EB000000B022800000014000080DC00090093F1
:100EC000000A0083000600AF000A00F7000900A531
:100ED000000A00DC00090093000A0083000600AF4E
:100EE000000A00F7000900A5000A00DC00090093D1
:100EF000000A0083000600AF000A00F7000900A501
:100F0000000A000080AF00030026010400B80104BD
:100F100000A50001000080DC00090000800505003C
:100F20000A040A00DC00090093000A00830006009E
:100F3000AF000A00F7000900A5000A00DC00090064
:100F400093000A0083000600AF000A00F7000900C2
:100F5000A5000A00DC00090093000A0083000600D7
:100F6000AF000A00F7000900A5000A0000800B028C
:100F70003200830064004100C800008000000000CF
:100F8000003E5B4F5B3E3E6B4F6B3E1C3E7C3E1C0F
:100F9000183C7E3C181C577D571C1C5E7F5E1C0055
:100FA000183C1800FFE7C3E7FF0018241800FFE70C
:100FB000DBE7FF30483A060E2629792926407F05CF
:100FC0000507407F05253F5A3CE73C5A7F3E1C1CE5
:100FD00008081C1C3E7F14227F22145F5F005F5FA5
:100FE00006097F017F006689956A60606060609491
:100FF000A2FFA29408047E040810207E2010080896
:101000002A1C08081C2A08081E101010100C1E0CA0
:101010001E0C30383E3830060E3E0E060000000032
:101020000000005F00000007000700147F147F1419
:10103000242A7F2A1223130864623649562050005E
:1010400008070300001C2241000041221C002A1C4A
:101050007F1C2A08083E0808008070300008080835
:101060000808000060600020100804023E51494555
:101070003E00427F400072494949462141494D3373
:101080001814127F1027454545393C4A49493141DA
:10109000211109073649494936464949291E0000A8
:1010A00014000000403400000008142241141414FD
:1010B0001414004122140802015909063E415D59E9
:1010C0004E7C1211127C7F494949363E41414122F2
:1010D0007F4141413E7F494949417F090909013E1C
:1010E000414151737F0808087F00417F4100204043
:1010F000413F017F081422417F404040407F021C55
:10110000027F7F0408107F3E4141413E7F0909096B
:10111000063E4151215E7F09192946264949493237
:1011200003017F01033F4040403F1F2040201F3FFD
:101130004038403F63140814630304780403615982
:10114000494D43007F4141410204081020004141C4
:10115000417F040201020440404040400003070870
:101160000020545478407F2844443838444444286C
:10117000384444287F385454541800087E09021813
:10118000A4A49C787F0804047800447D400020409B
:10119000403D007F1028440000417F40007C0478DF
:1011A00004787C080404783844444438FC18242427
:1011B0001818242418FC7C080404084854545424A7
:1011C00004043F44243C4040207C1C2040201C3C24
:1011D0004030403C44281028444C9090907C44641B
:1011E000544C4400083641000000770000004136AE
:1011F000080002010204023C2623263C1EA1A16134
:10120000123A4040207A3854545559215555794165
:101210002154547841215554784020545579400C3C
:101220001E5272123955555559395454545939551D
:101230005454580000457C410002457D4200014560
:101240007C40F0292429F0F0282528F07C545545CD
:10125000002054547C547C0A097F49324949493260
:101260003248484832324A4848303A4141217A3A75
:1012700042402078009DA0A07D39444444393D403F
:1012800040403D3C24FF2424487E4943662B2FFCEC
:101290002F2BFF0929F620C0887E0903205454799A
:1012A000410000447D413048484A32384040227A6B
:1012B000007A0A0A727D0D19317D2629292F2826E8
:1012C0002929292630484D402038080808080808F0
:1012D0000808382F10C8ACBA2F102834FA00007B49
:1012E000000008142A142222142A1408950022004F
:1012F00095AA005500AAAA55AA55AA000000FF0009
:10130000101010FF00141414FF001010FF00FF1045
:1013100010F010F0141414FC001414F700FF000077
:10132000FF00FF1414F404FC141417101F10101FF6
:10133000101F1414141F00101010F0000000001FE4
:10134000101010101F10101010F010000000FF10EF
:101350001010101010101010FF10000000FF1400EB
:1013600000FF00FF00001F10170000FC04F414141D
:101370001710171414F404F40000FF00F7141414E9
:1013800014141414F700F7141414171410101F1069
:101390001F141414F4141010F010F000001F101F8C
:1013A0000000001F14000000FC140000F010F010FA
:1013B00010FF10FF141414FF141010101F00000071
:1013C00000F010FFFFFFFFFFF0F0F0F0F0FFFFFF75
:1013D0000000000000FFFF0F0F0F0F0F38444438CC
:1013E000447C2A2A3E147E02020606027E027E0207
:1013F00063554941633844443C04407E201E200626
:10140000027E020299A5E7A5991C2A492A1C4C7262
:1014100001724C304A4D4D303048784830BC625AE9
:10142000463D3E494949007E0101017E2A2A2A2A79
:101430002A44445F444440514A444040444A514055
:101440000000FF0103E080FF000008086B6B083616
:1014500012362436060F090F060000181800000087
:101460001010003040FF0101001F01011E00191D76
:101470001712003C3C3C3C0000000000080B00023E
:10148000020200000904000001020200000524001D
:1014900010010524010101042402060524060001AF
:1014A0000705810310004009040100020A00000042
:1014B0000705020240000007058302400000040304
:1014C000090412010002EF020140412336800001AD
:1014D0000102030141726475696E6F204C4C430038
:1014E0006D6963726F6361646500D5F08D14A1C886
:1014F00081CFD9F1AF20001F08031C700F003048C6
:1015000070007C0870087000F84830007400781093
:10151000007A00304800586816077F090175007F7F
:10152000007C0870087000304830027F0230485854
:10153000050A0104104000000000000100041040F2
:101540000000000000010100104000000000000148
:101550000104004000000000000101041000000030
:1015600000000001010410400000000000000D0A0E
:10157000000001071F7CFF3F077168C81C000000C6
:10158000000000000003010100003510000080E0B1
:10159000781E0703030383E37C0F0909FFFB00F8B0
:1015A000FFFF1F190100FF010101F2FC003FFCF1E8
:1015B00001033FFDF180020F1919191B1A70E08019
:1015C00000082EAFADACACACA4802CAF0300000083
:1015D000AFAF00AEAFAFAFACACAC00AFACACACAF8C
:1015E000A70000AFAFAE0000AFAFAF2C0003AB065B
:1015F000AEAEAEAF2F0603061F0E040306040E1F89
:1016000003071F051F1F151B1F11111F110E1F158B
:10161000111F05011F111D1F041F001F0010101FA7
:101620001F041B1F10101F061F1F011F1F111F1F4C
:1016300005071F311F1F051B17151D011F011F1057
:101640001F0F100F1F0C1F1B041B071C071915135E
:101650001F111F001F001D151711151F07041F174D
:10166000151D1F151D01011F1F151F17151F001721
:10167000000020005D120000000080C0F0383C3EF9
:10168000B2F0781CC6F27C0E82E0781C06C6E6E654
:10169000E60682F87E363030F0FE06000000903C10
:1016A00026262626E6CE8C00FCF606060606060C46
:1016B000000CFEF2820202063CF0C61E7AE2E262F2
:1016C0007C7060C28E1E7EE6E6E66440000000008C
:1016D00000000000185C4E030100185C4F03185C0A
:1016E0005F4F03005E5F5F5C5C5C5C0C07005C5FEF
:1016F000070000005F5F03000000004F5F5858586C
:10170000585F5F4F000F5F5C58585858585E5C0038
:10171000070F58585858585F5E0001475E18000080
:1017200000034F5C11034F5E5C5C5C5C5C58100016
:1017300000000001000000000001000000010101A4
:101740000000010101010101000000010100000091
:101750000001010000000000000101010101010180
:10176000010000010101010101010100000000016F
:101770000101010101000001010000000000010160
:10178000000001010101010101010000007D1C00B8
:10179000000000000000000000C0F07C1E0E0606E5
:1017A000060626363E1E06C0F83E06060606C6FE9D
:1017B000FEFE0E00F0FEFEFEFEF8800080C0F0FC93
:1017C000FEFEFE0000FEFEFE060606060606000001
:1017D00000FCFEFEFE020202067E7EFCE0001E7E93
:1017E000FEFEFCE0000000FEFEFE0000003EFEFEED
:1017F000C60606060000063EFAE2820202041C78D3
:10180000C080808000000000000000000000000098
:1018100000C0E0F83E0F070100000486E6FEFE7EF1
:101820000EC0F8FEFF070606060606FFFFFF0300D0
:10183000FCFFFF7F07FFFFFFFE7F0FFFFFFFFFFFA4
:101840000000FFFFFF0E0E0E0E0C00000000FFFF59
:10185000FFFF000000000000FFFFFC0000030F7FFF
:10186000FFFFF8E0FFFFFFF80000007FFFFFFE8EA4
:101870000E0E0C0000033FFFFEFEE2820203030394
:101880000F7FFFFEF8E00000000000505C5F5F5932
:10189000585858585858585E5F5F4F03185E5F5F3E
:1018A000470000000000005F5F5F03005F5F5F5F55
:1018B00000005F5F5F070000015F5F5F5F00005F28
:1018C0005F5F5858585858580000000F5F5F5F58C6
:1018D00058585858585F5F0F0000000000034F5FD2
:1018E0005F5F5F5F5F000000004F5F5F5F5C5858A5
:1018F00058585800014F5F5F5F1C00000000004710
:101900005F5F5F5F1C000000000105050505050520
:101910000505050505050505050400010505050482
:10192000000000000505050000050505050000058F
:101930000505000000000505050500000505050575
:10194000050505050500000000050505050505055B
:10195000050505050000000000000005050505055A
:10196000010000000000050505050505050501004D
:10197000040505050100000000000405050505013A
:1019800000000020100078283800782838400078BF
:10199000684800586868005868680000FC02722AAD
:1019A0002A7202FC0000000000000000000000009D
:1019B0000000000000000000000000000001010124
:1019C00001010100000B05110A040A11000012199F
:1019D00015120D0C0038287C6C7C6C7C6C7C2838D3
:1019E00000000000000000000000000000000028CF
:1019F0002844386CC66C38442854000000000000AD
:101A0000000000000000000000142CF254282828D8
:101A100054F22C1400000000000000000000000040
:101A2000000000304C1AE47E6C7EE41A4C3000005A
:101A30000000000000000000000000000060D8244A
:101A4000140A0A0404986000000000010202040461
:101A5000020201000000000000402CFAF22C4000BD
:101A60000000000000000201000001020000000070
:101A70000D0C1028BA6C7C6C7C6C7C6CBA28100045
:101A80000000000000000000000000000054284496
:101A9000386CD66C38442828000000000000000094
:101AA0000000000000000012AA725428A8285472F6
:101AB000AA1200000000000000000000000000006A
:101AC00000700ADA247E2C7E24DA0A7000000000FE
:101AD000000000000000000000000060D824140A8C
:101AE0000A040498600000000001020204040202DB
:101AF00001000000000000402CFAF22C4000000021
:101B000000000000020100000102000000000405C6
:101B10000E11190E00121F10121915120A11150AB2
:101B200006051F04171515090E15150801190503DB
:101B30000A15150A121509060B088000000000801E
:101B40000000000080550F0000800030382C26E295
:101B5000E2E202CEE4180C02020282E2300C02023F
:101B6000E27E06F0FE22223AFCC000FE262222027D
:101B70000000000002020E7EFEF202007CFAF21269
:101B80001EF8861AF2F2B23438C28E3EF8E2861E91
:101B90003E76E2E2A02000000000000000030A2AD6
:101BA0002A2A2A2B2B2920010B2B2B2B2B21082B0C
:101BB0002A2A2A2A2B2B002B2B2B00282B2B0328FD
:101BC0002B2B2A2A2A00000000000000002B2B2BC0
:101BD00000002B2B0000002B2A08232B2A2A2B0B7A
:101BE00022282B2B2A2A0A22292B2B2A2A2A0A02CC
:101BF000001D0801020202020202020202020202A7
:101C000002020202020202020202020202020201B5
:101C1000250801020202020202020202020202027C
:101C20000202020202020202020202020202020294
:101C3000020202020202011708010202020202026B
:101C40000202020202020202020202020202020175
:101C50001D080201394545017D1569017D55450184
:101C60007D4539017D01057D050149553501022577
:101C70000802017D117D017D017D4575017D117D8C
:101C8000014955350139454501394539017D156908
:101C9000017D554501021708020149553501057DB1
:101CA0000501791579017D156901057D0501025E42
:101CB00030000000000000000000000000000000F4
:101CC000000000000000000000000000000000C054
:101CD000F0FCFE1EC0F0FC0EA000000000000000A2
:101CE000FEFE00FEFEC2820A2AAAAA82063EF8E68C
:101CF0001EFAE2820A22A2A68E9C3870E0C0800002
:101D000000000000000000000000000000000000D3
:101D100000000000000000000000000000000000C3
:101D200000000C2EAFADACACACACACACAFAF87032D
:101D300020A6AFAFAFAEACACACACACACACACAF070C
:101D4000A0AFAFAFA3A80000020AAAA0A0AFAF0047
:101D500003AFAEACACACACACACACACAD2F0F0600D2
:101D60000000000000000000000000000000000073
:101D70000000000000000000000000000000000063
:101D8000000000020A0A2A2A2A2A2A2A2A2A2800C5
:101D900002020A0A2A2A2A2A2A2A2A2A2A002A2A5D
:101DA0002A2A2A2A000000002A2A2A2A2A00002A8F
:101DB0002A2A2A2A2A0A0202000000000000000043
:101DC0000000000000000000000000000000000013
:101DD00000C0E0F0F8FC7E67636363636363636382
:101DE00023030383F1FCFFFFC7000080E0FCFFE357
:101DF00063636363636363637F7E6060E0C08000EE
:101E00003C7F7F6363636363636363636363E3E391
:101E1000EFEEE4C1831313531303474F1F3B73E3E8
:101E2000C3C3820000000000000010181C1E1F1F0A
:101E30000F4741505044041454545454540501184D
:101E40001E1F1F1F1F074100181F1F1F1F03405089
:101E500040001454545454540000001F1F1F004FDE
:101E60001F1C18191919191919191918181F1F1FCA
:101E70001F1F1F4E00005055555555545451534780
:101E80004F1F1E1C18100000000000000000000082
:101E90000001010101010000010505040411010513
:101EA0001555555440010505151514504105155497
:101EB00050410505050500005555550100005555D3
:101EC0005555555555555555555555555555150552
:101ED00001100405050501010101010000000000D9
:101EE00000000000004120FE0105F1F1F111D1B127
:101EF000D111F151515151515151515151515151F2
:101F0000510000FF00007F7F09090F06007F7F1945
:101F1000396F46007F7F4949414100266F49497B1F
:101F20003200266F49497B32FF0000FFFFFFFEFFB2
:101F3000FEFF0279CD95A5CD790111111101F9F9B5
:101F400001010000FF00007F7F09090F06007F7F6D
:101F500040404040007C7E0B0B7E7C00070F787871
:101F60000F07007F7F3E1C0800FF00001F3F3F332C
:101F7000333333333E36363E363E363E36363E36E5
:101F8000363E360000FF00003E7F41417F3E007F2D
:101F90007F0E1C7F7F00000000000000000000009A
:101FA000000000000000000000003F4050404040A2
:101FB0007846414159594141414159594141414175
:101FC0004141414100007F000001017F7F0101008C
:101FD0007C7E0B0B7E7C007F7F09090F06007F7FD4
:101FE0004949414100000000000000830056010003
:101FF0000055008B005500000055008B0055000077
:102000000055008B0055000000550083005601006C
:102010000055008B005500000055008B0055000056
:102020000055008B0055000000550083005601004C
:1020300080060155000000550006015500000055BE
:10204000000601550000005500060155000000552E
:10205000001501550000005500060155000000ACB8
:10206000010601550000005500060155000000550D
:1020700000060155000000550006015500000055FE
:10208000001501550000005500060155000000AC88
:10209000010601AB000000AB000601AB000000AB85
:1020A00000150156010000AC010601550000005565
:1020B00000060155000000550006015500000055BE
:1020C000000601550000005500150155000000559F
:1020D00000060155000000AC010601550000005546
:1020E000000601550000005500060155000000558E
:1020F000000601550000005500150155000000556F
:1021000000060155000000AC010601550000005515
:10211000001501550000005500260155000000552E
:102120000015015500000055000601550000800013
:10213000F42911241FBECFEFDAE0DEBFCDBF12E0DD
:10214000A0E0B1E0ECE4F6E602C005900D92A23EFC
:10215000B107D9F728E0A2EEB2E001C01D92AE327D
:10216000B207E1F710E1C9E9D0E104C02197FE010F
:102170000E941E33C839D107C9F70E942D2A0C943A
:1021800024330C9400008091070308958091B207D6
:102190008F3FA9F034F48C3F59F08E3F71F080E00E
:1021A0000895813099F074F08230C9F784E001C05D
:1021B0008EEF8093B20781E008958FEFFACF1092EF
:1021C000B207F9CF81E08093B207089582E0F1CFA2
:1021D0008091B2078823A9F034F48E3F59F08F3FE5
:1021E00071F080E00895823089F06CF08430C9F796
:1021F00082E001C08CEF8093B20781E008958EEFFA
:10220000FACF8FEFF8CF1092B207F7CF81E080932B
:10221000B2070895982F962B69F090E023E224BD31
:10222000609568BD21EF2093800090938800809393
:102230008A0008959FEF6FEF8FEFF0CFFC01809140
:102240002A07882311F13FB7F89482E08093E900D0
:102250002091F200822F90E01816190614F481E004
:1022600090E0882339F0289844E64093290740916C
:10227000F1004083222339F02091F200211103C0A4
:102280002BE62093E8003FBF08958FEF9FEF08955E
:102290002FB7F89483E08093E9009091E800892FAC
:1022A000807295FF04C09091F20080E4891B2FBFDB
:1022B00008958091210781110DC082E080931D0750
:1022C00084E080931E071092200710921F0781E080
:1022D000809321078DE197E008954091010350918B
:1022E00002032091FF023091000342175307B4F418
:1022F0009091E8009570E1F39091E80092FD19C08B
:102300008093F100809101039091020301968F73F5
:102310009927892B19F48EEF8093E80080910103AF
:10232000909102030196909302038093010381E050
:10233000089580E00895DF92EF92FF920F931F932C
:10234000CF93DF93D82E8A01EB017B01E40EF51EBB
:10235000CE15DF0559F0D7FE12C0FE0184910E9410
:102360006D1121968111F4CF0FEF1FEFC801DF919E
:10237000CF911F910F91FF90EF90DF90089588818A
:10238000EECF0F931F93CF93DF931F92CDB7DEB79E
:1023900082E0898342E450E06CE774E180E80E94C7
:1023A0009B110E945911DC0112960D911C9101158F
:1023B000110589F0D801ED91FC910280F381E02DA7
:1023C000BE016F5F7F4FC801099597FD04C0F801FA
:1023D00000851185ECCF89810F90DF91CF911F91FE
:1023E0000F910895615030F02091F100FC0120839D
:1023F0000196F8CF289884E6809329070895AF9234
:10240000BF92CF92DF92EF92FF920F931F93CF93E1
:10241000DF936C017B018B01040F151FEB015E0143
:10242000AE18BF08C017D10759F06991D601ED91D8
:10243000FC910190F081E02DC6010995892B79F777
:10244000C501DF91CF911F910F91FF90EF90DF9029
:10245000CF90BF90AF900895CF93DF931F92CDB7E9
:10246000DEB76983DC01ED91FC910280F381E02D00
:1024700041E050E0BE016F5F7F4F09950F90DF9103
:10248000CF91089583E08093E9008091F200882342
:1024900019F08AE38093E80008950E94481190E0C3
:1024A0000895CF93DF931F92CDB7DEB7FC018485EB
:1024B000958597FD08C02FEF3FEF358724870F9054
:1024C000DF91CF910895CE0101960E941E110197D0
:1024D00019F4898190E0F3CF8FEF9FEFF0CF0F9346
:1024E0001F93CF93DF931F92CDB7DEB78C01FC0112
:1024F0008485958597FF0BC0CE0101960E941E1121
:10250000019771F4898190E0F80195878487F8013B
:10251000848595850F90DF91CF911F910F9108953C
:102520008FEF9FEFF1CFFC018485958597FD0BC060
:102530009FB7F89482E08093E9008091F2009FBFFA
:1025400090E0019608959FB7F89482E08093E900A7
:102550008091F2009FBF90E00895FC010E94441317
:10256000319728F068517C4F8F4F9F4FF9CFAB01C7
:10257000FC010E944413641775078E079F07C8F378
:1025800008958F929F92AF92BF92CF92DF92EF9277
:10259000FF920F931F93CF93DF936C017B018A010E
:1025A00080910B01882309F45AC080912A0788235F
:1025B00009F455C08091050380FF05C08091E000BB
:1025C00082608093E000E801B12C8AEFA82E93E0AE
:1025D000892E2AE3922E209711F4BB20C9F10E9484
:1025E0004811811108C0AA94AA20C9F181E090E0A5
:1025F0000E94AD12F0CF8C171D0611F00CF08C2F3D
:102600009FB7F8948092E9002091E80025FD02C070
:102610009FBFE1CF282F30E0C21BD30BF7018150C1
:1026200020F041914093F100FACFE20EF31EBB205F
:1026300021F09092E800B12CEBCF8091E80085FD6D
:10264000E7CF9092E800BB24B394209709F3F3CF2F
:102650005D9884E680930403101611063CF081E037
:1026600090E0F6019383828310E000E0C801DF91DF
:10267000CF911F910F91FF90EF90DF90CF90BF907F
:10268000AF909F908F900895ABEFB2E02FB7F89482
:102690007D918D919C9166B52FBFA89B05C06F3F22
:1026A00018F47F5F8F4F9F4F22E0660F771F881FC0
:1026B000991F2A95D1F7089520911203E0911003F4
:1026C000F0911103CF0102969093110380931003B0
:1026D000222319F085919491089580819181089524
:1026E000E1E7F0E080818D7F808310929100469831
:1026F00047981092F2020895CF92DF92EF92FF92E4
:10270000CF93DF930E945C13811520E8920741F478
:10271000DF91CF91FF90EF90DF90CF900C947013EA
:1027200021E02093F202813020E8920751F4809159
:102730000E0390910F0390931103809310030E9456
:102740005C1397FD05C02091F102222309F45BC0C0
:102750002091F002211157C021E02093F302EC01F7
:10276000DF77209709F052C081E08093F402469809
:102770003FE9C32E3FE0D32EE12CF12CCAEFD0E08D
:10278000E0911208F09113080995811103C081E0CE
:102790008093F4028091F302882329F08091F4025F
:1027A000882309F446C047980E945C13009709F4F7
:1027B00044C09C01DE010E94DB32DC01CB0129E038
:1027C000B595A795979587952A95D1F71092900082
:1027D0002AE020939100D0929900C09298008093B3
:1027E000F5029093F602A093F702B093F80280915D
:1027F0007100826080937100DF91CF91FF90EF9024
:10280000DF90CF9008951092F302A9CF9E0150E07F
:1028100040E060E472E48FE090E00E94873269015A
:102820007A0181E0C81AD108E108F1081092F40297
:10283000A7CF4699B8CF479AB7CF8FEF9FEFDC016C
:10284000C5CF9C01E1E7F0E090819D7F908381E01E
:1028500080931203309311032093100330930F03DE
:1028600020930E030C947C136F927F928F929F9211
:10287000AF92BF92CF92DF92EF92FF920F931F938E
:10288000CF93DF934C01DB0158017C2D411551059D
:1028900009F4A0C0FA016491319684914E5F5F4FB4
:1028A000C62FD0E0211102C0EE2009F1E1E0F0E0F6
:1028B000982F977011F4F0E0E0E0082F0695069548
:1028C00006950E0F1F2F111D0C9FF0010D9FF00D8F
:1028D0001C9FF00D1124733009F08BC0EE0FFF1F09
:1028E0002E9F80012F9F100D1124400F511F840136
:1028F0000C0F1D1F101611060CF06CC0F0E88F169F
:1029000091040CF067C09D01280F311D12161306AB
:102910000CF060C0A034B1050CF05CC0411551054D
:1029200009F458C03A2F3770FD01B7FD379693E090
:10293000F595E7959A95E1F72E2FB7FF04C033235D
:1029400011F02FEF2E0FEE27FF27E819F90997FC5A
:1029500002C0F0E0E0E090E89819003811050CF4AE
:10296000962F9E1BA22F022E000CBB0B1A2F109528
:102970002F3F0CF010E0DD24D394082F077009F4EA
:10298000D12C869586958695D80EAD0DB11D1997DB
:102990001CF0A8E0DA2ED21AD11A210F00E8200389
:1029A000D0011124A80DB91DAE0FBF1F619FE00D0E
:1029B000F11D11244E0F5F1FE32E032E000CFF08A4
:1029C000733009F424C108F5713009F4D6C07230AF
:1029D00009F484C0DF91CF911F910F91FF90EF9088
:1029E000DF90CF90BF90AF909F908F907F906F902F
:1029F0000895A114B10409F473CFEE9E8001EF9EF7
:102A0000100D1124A00EB11E6BCF7A3FB1F10D2D28
:102A1000020F7B3FF9F62017E9F2BD01685E7C4F9B
:102A2000D12CC12CC91608F0A2C0FA01EC0DFD1D75
:102A3000E491F0E04F010E2C02C0880C991C0A941E
:102A4000E2F727FD06C0FB018081182D1095812338
:102A50008083332361F0273054F45B01F0E8AF0E3C
:102A6000B11C192D1095F501808181238083FFEF22
:102A7000CF1ADF0A6F5F7F4FD5CF0D2D020F2017C2
:102A800009F4A8CFBD01685E7C4FD12CC12CC916BA
:102A900008F067C0FA01EC0DFD1DE491F0E04F0174
:102AA0000E2C02C0880C991C0A94E2F727FD04C082
:102AB000FB01808188298083332351F0273044F43F
:102AC0005B01F0E8AF0EB11CF5018081892980839C
:102AD000FFEFCF1ADF0A6F5F7F4FD9CF6FEF70E044
:102AE000032E02C0660F771F0A94E2F76095709577
:102AF000972E8D2C820E281509F46CCF8D01085E5F
:102B00001C4FD12CC12CC91630F5FA01EC0DFD1D5E
:102B1000E491F0E03F010E2C02C0660C771C0A9491
:102B2000E2F727FD05C0F80180818623862980838E
:102B3000332359F027304CF45801F0E8AF0EB11CA4
:102B4000F5018081892187298083FFEFCF1ADF0A71
:102B50000F5F1F4FD8CF2F5F4C0F5D1FA058BF4F87
:102B6000CACF2F5F4C0F5D1FA058BF4F88CF2F5F7C
:102B70004C0F5D1FA058BF4F4ECF85010E0F1F1F7A
:102B80008D2D820F281709F425CFBD01685E7C4F7B
:102B9000D12CC12CC91698F5F801EC0DFD1DA4909F
:102BA000B12C0E2C02C0AA0CBB1C0A94E2F7A09414
:102BB000B094FA01EC0DFD1D8490912C0E2C02C0F6
:102BC000880C991C0A94E2F727FD08C0FB0170806D
:102BD000E72DEA217E2E7828FB017082332349F00D
:102BE00027303CF4FB01E058FF4FA080BA20B92801
:102BF000B082FFEFCF1ADF0A6F5F7F4FCBCF2F5F1F
:102C00004C0F5D1F0C0F1D1FA058BF4FBBCFE92EEF
:102C1000F12CE40FF51FA85EBC4F60E870E06E1960
:102C20007F09CE19DF09AE01440F551FC1E0D0E086
:102C30007E01032E01C0EE0C0A94EAF7192F0D2D28
:102C4000892E932ECF93DF93ED01EF96EF96229688
:102C5000A590C590992059F0AE9C5001CE9C600182
:102C600027302CF4F880D094FD20FB28F992222301
:102C70003AF0FC90C094FC20FA28FD920C94411686
:102C800011961A9529F70A9551F0182D23951124BC
:102C9000E40FF11DA60FB11DC60FD11DD9CFDF91D5
:102CA000CF91112497CECF92EF920F931F933AEFCB
:102CB000C32EE12C10E000E00E9434141F910F910C
:102CC000EF90CF900895CF92EF920F931F9332E041
:102CD000C32EE12C10E000E00E9434141F910F91EC
:102CE000EF90CF90089590E00C94AD128FB1809545
:102CF000807F669B88601C9B846008955C988EBD75
:102D000000000DB407FEFDCF5C9A0895480F592FBF
:102D1000511D14161506D4F580389105BCF597FFA2
:102D200002C090E080E04138510514F040E850E0E6
:102D3000481BFB0177FD379633E0F595E7953A950B
:102D4000E1F7F695FE2FEE27F795E795E80FF91FC7
:102D5000E85EFC4F6770772781E090E001C0880F44
:102D60006A95EAF7382F213041F4415078F081918B
:102D7000DF011197832B8C93F8CF8095415030F071
:102D80009191DF01119798239C93F8CF08950F93A9
:102D90001F93CF93DF93D0E0C0E000E810E020E085
:102DA00040910E01BE0190E080E00E948616809165
:102DB0000E01BE016F5F7F4F20E0482FF801E81B36
:102DC000F109CF010E9486162296C034D10539F749
:102DD000DF91CF911F910F91089590E1282F81E00D
:102DE00061FD84E060FD880F62FD8295687F969F9B
:102DF000D0011124A20FA85EBC4F0C90082A40FFFE
:102E000008260C92089590911807982329F4909120
:102E10001907982381E009F480E00895CF93C82F23
:102E20000E947616982F9C2381E09C1380E0CF911E
:102E300008958038910528F46034710510F40C94DD
:102E4000ED1608956F927F928F929F92AF92BF92EC
:102E5000CF92DF92EF92FF920F931F93CF93DF9366
:102E60004C016B018B0197E7692E712CC7E7D0E00D
:102E70006815790549F03401EB016815790514F0FE
:102E80003B01E40107E710E05301AC1ABD0A7501EC
:102E9000B7FE03C08FEFE81AF80AF594E7946C16B2
:102EA0007D0694F040E0BE01C801C814D90411F4B5
:102EB000B801CE010E941917F7FE04C00150110994
:102EC000EA0CFB1C2196EBCFDF91CF911F910F9164
:102ED000FF90EF90DF90CF90BF90AF909F908F903A
:102EE0007F906F9008958F929F92AF92BF92CF92F2
:102EF000DF92EF92FF920F931F93CF93DF936D308A
:102F000089F0C090EC02D090ED026A30D1F41092BA
:102F1000EF021092EE0288E0C80ED11CD092ED02B2
:102F2000C092EC0281E090E0DF91CF911F910F9170
:102F3000FF90EF90DF90CF90BF90AF909F908F90D9
:102F400008950091EE021091EF02E5E06E9FE0011E
:102F50001124C458D04F4801F12CF5E0E12CFF16A4
:102F600029F0CE010196FE01E490EC01B12CA12CD8
:102F70004E2D4170B6016A0D7B1DC4010E941917C8
:102F8000E694FFEFAF1ABF0A88E0A816B10481F7F4
:102F9000F394EFEF8E1A9E0AF6E0FF12DECF0A5F7F
:102FA0001F4F1093EF020093EE02BCCFDF92EF921F
:102FB000FF920F931F93CF93DF937C01EB01D22EEF
:102FC0008B01040F111DC8010134110514F080E4B8
:102FD00090E0C817D9073CF44D2DBE01C7010E94EF
:102FE00019172196F0CFDF91CF911F910F91FF908C
:102FF000EF90DF900895CF92DF92EF92FF920F93C0
:103000001F93CF93DF936B01122FEC017C01E40E31
:10301000F11CCE15DF0544F4202F412FB601CE015F
:103020000E94D6172196F5CFDF91CF911F910F9176
:10303000FF90EF90DF90CF900895089590E080E0AA
:103040000895FC0183818A3334F4843354F4883145
:1030500064F480E00895803434F08B37D4F78DE049
:10306000089585E0089587E0089581E00895FC01C2
:1030700083818A3334F4843354F4883164F480E0F7
:103080000895803434F08B37D4F789E0089585E0D3
:10309000089588E0089581E00895FC0183818033DC
:1030A00010F08053089580E00895FC012381418150
:1030B00052812403C001259F900D112460E670E029
:1030C0000E940A33CB01C99620342CF42A334CF4E5
:1030D000243324F408952B373CF00895CB01C79690
:1030E0000895CB01C6960895CB01C39608950F931A
:1030F0001F93CF93DF938C010E945518EC01C801F8
:103100000E9437188C0F9D2F911D97FD04C081E000
:10311000C837D1050CF080E0DF91CF911F910F915E
:103120000895FC019481907F67FD04C06F70692B46
:103130006483089598606770FACFFC01948180E100
:103140006802900111249F7067FD03C0922B948345
:10315000089590682077FACFFC01848183FF02C034
:10316000806F08958F700895FC019481892F829556
:103170008F7097FD806F0895CF92DF92EF92FF924C
:103180000F931F93CF93DF93EB017B0124E0E20EBB
:10319000F11C8B016C01C61AD70AC601800F911F62
:1031A0000E945F32F80181938F01EE15FF05A9F7A8
:1031B000CE01DF91CF911F910F91FF90EF90DF90A3
:1031C000CF9008950C945F32EF92FF920F931F936C
:1031D000CF93DF9300D000D0CDB7DEB78B0198E05E
:1031E000899F70011124C701825C9E4F0E94E218E2
:1031F000F8018083C701815C9E4F0E94E218F801AC
:103200008183C701805C9E4F0E94E218F80182838F
:10321000C7018F5B9E4F0E94E218F80183831982D9
:103220001A821B821C82BE016F5F7F4FC7018E5BBB
:103230009E4F0E94BC1889819A81AB81BC81F801A4
:1032400084839583A683B7830F900F900F900F9080
:10325000DF91CF911F910F91FF90EF900895ECE4D3
:10326000F7E08CEA97E01582168238968E179F0752
:10327000D1F710922F071092320710923507109253
:10328000380710923B0710923E07109241071092A8
:1032900044071092470710924A0710922C07109289
:1032A0001F0882E0809319081092240810922608C3
:1032B000109225080E94073223E030E040E050E001
:1032C0000E9487326E5F7F4F8F4F9F4F6093280819
:1032D000109229080895FC0101900020E9F7319728
:1032E000AF01481B590BBC0184EB97E00C94C11251
:1032F0008F929F92AF92BF920F931F93CF93DF93C2
:10330000CDB7DEB7A1970FB6F894DEBF0FBECDBF25
:1033100019A2423008F44AE08E010F5D1F4F842E3F
:10332000912CB12CA12CA50194010E94B932E62F59
:10333000B901CA01EA30F4F4E05DD801EE938D01E1
:10334000232B242B252B79F790E080E0109719F0A0
:10335000CD010E946B19A1960FB6F894DEBF0FBE87
:10336000CDBFDF91CF911F910F91BF90AF909F90F4
:103370008F900895E95CE1CFAF92BF92CF92DF9238
:10338000EF92FF920F931F93CF93DF9360912808E2
:1033900070E090E080E04AE00E9478198DED92E0C4
:1033A0000E946B196091290870E090E080E04AE08B
:1033B0000E947819809129088F5F80932908909145
:1033C0002808891381C00E94073222E030E040E0E3
:1033D00050E00E94873224E3C22EC60E8DED92E0AB
:1033E0000E946B196C2D70E090E080E04AE00E9432
:1033F00078198FED92E00E946B19EC2DF0E0EE0F42
:10340000FF1FEF5AFD4FE080F180F701A4908091FB
:103410001F088A0D80931F0880912708863330F497
:103420008E5F873309F486E380932708B12C01E08F
:1034300010E08CEAC82E87E0D82EAB1409F45DC0EA
:10344000CCE4D7E08D81811152C0F701E00FF11F6C
:103450008491E881E07FE82BE883F8013196EE0D56
:10346000FF1DE4910E2E000CFF0BFA83E983F80197
:103470003296EE0DFF1DE491EB83F8013396EE0DCD
:10348000FF1D6491CE010E949D18F8013496EE0D47
:10349000FF1D6491CE010E949118F8013596EE0D42
:1034A000FF1D849198819F7120E2829FF001112479
:1034B000E92BE883F8013696EE0DFF1D095F1F4FDB
:1034C000E491ED83B394B9CFC0902708D12CF12CAF
:1034D000E12CC114D104E104F10409F47FCF0E946E
:1034E0000732A70196010E9487326B0177CF289699
:1034F000CC16DD0609F0A6CFE5CF80911A0896EF2D
:10350000899F802D11248C598536B8F084E690E08F
:103510009093210880932008809124088B0D80933C
:1035200024088B2DDF91CF911F910F91FF90EF9089
:10353000DF90CF90BF90AF900895823340F782E341
:10354000E6CF2F923F924F925F926F927F928F922F
:103550009F92AF92BF92CF92DF92EF92FF920F9322
:103560001F93CF93DF93CDB7DEB7EB970FB6F894E9
:10357000DEBF0FBECDBF86EA0E947E1685E0E3E186
:10358000F1E0DE019F9601900D928A95E1F720917E
:103590000D012CAB2D3009F4D8C02091B207822F39
:1035A000022E000C990B97FF03C09195819591090C
:1035B000FE01E80FF11D87FDFA959091EB0287A5BA
:1035C00098133DC081E012160CF08FEF309119086E
:1035D000082E000C990B830F911D37FD9A9565E01D
:1035E00070E00E940A3387FD8BC080931908109207
:1035F000EB02822F27FD8F5F8595ECE4F7E0958144
:10360000953041F49381980F99370CF098E797FD26
:1036100090E09383389637E0EC3AF30781F7EEE2D7
:10362000F7E02CE437E09181992329F0980F913449
:1036300008F068C0918333962E173F07A1F7809159
:10364000EB028F5F8093EB028CA98D7F843009F4AD
:103650007CC08091250890912608009729F0019759
:1036600090932608809325082091160390911703C4
:10367000822F6CE370E00E94F632892B39F480913E
:10368000B007882319F081508093B00720FD5DC0FA
:103690000CE417E0D80115968C911597853009F048
:1036A0004DC016968C911697882319F08150169666
:1036B0008C93F801808190E0B5E095958795BA9557
:1036C000E1F7813009F4AEC1F8F0823009F4EBC1C2
:1036D000833009F423C2C8010E94B418F801218183
:1036E0003281280F311D87FD3A9532832183C8012D
:1036F0000E94AC18D80113969C911397890F8FC123
:103700008B5F73CF118297CFC8010E94B41887FFD7
:1037100057C1D80111962D913C91213B3F4F0CF49C
:1037200058C1D80111962D913C911297280F311D47
:1037300087FD3A9512963C932E931197085F1F4F81
:10374000B7E00C3A1B0709F0A5CF83E2E8E1F1E00E
:10375000DE01119601900D928A95E1F7A09019086B
:10376000E7E0AE9E5001112402E010E0F501E00F09
:10377000F11F329721E030E02C0F3D1FE20FF31FC5
:1037800020812C5FE02EC80195958795F82EC22EDA
:10379000D12C41E0B6018F2D90E00E941917FE0C4C
:1037A00030E83F15B0F70F5F1F4F09301105F1F6F4
:1037B0006CE477E07FAB6EAB5B01FEE12F2E312C2A
:1037C000D50115960C9115970023A1F013961C9125
:1037D0001851183508F0E3C2C5010E9477188823F4
:1037E00009F4DDC2053009F415C208F0DDC101306D
:1037F00008F078C2F8E0AF0EB11C2CEA37E02A15C9
:103800003B05F1F685E0EBE3F1E0DE019A960190ED
:103810000D928A95E1F7E091B307EF3009F0D2C33A
:103820008091B207282F082E000C330B37FF03C0FE
:10383000319521953109FE01E20FF11D27FDFA9521
:1038400022A5882309F4AAC30CF066C38C3F0CF0B0
:1038500080C360912C07662341F070E080912B07B4
:1038600021E045E090E00E94D6176EE277E079AF64
:1038700068AF3CE4632E37E0732E6B01D6011196DE
:103880008C911197882321F1882E912C0C9110E0B6
:10389000803430F421E042E0B401C8010E94861671
:1038A000B4016F5F7F4F603471052CF421E042E07A
:1038B000C8010E94861621E042E0B401C8010E94BE
:1038C000D61721E042E0B401C80101960E94D61744
:1038D000B3E0CB0ED11C6C147D0481F6ECA9E7306B
:1038E00049F48091160380FD05C080911B078F5F0E
:1038F00080931B0720E046E658E070E060E082E736
:1039000090E00E946316FE01B49686E0DF011D92EE
:103910008A95E9F760911B0870911C0880911D0839
:1039200090911E088F014E01BAE28B0E911C2AE085
:10393000422E512C612C712CA30192010E94B932AC
:10394000F80161938F01B901CA018E169F06A1F794
:10395000840188248394912CD8012E918D0142E317
:1039600058E0B4018BE790E00E946316B5E08B0E3F
:10397000911CEFE18E16910479F71091AC078CA998
:103980008D7F843009F04BC380911C0780FF2FC3CB
:10399000812F880F880F012F081B000F005C111664
:1039A0000CF055C3602F002E000C770B20E04BE28B
:1039B00058E08BE790E00E94631611500A5FEFCF4A
:1039C000882339F0F80121813281203531050CF44A
:1039D000A8CE682F6195C8010E949D18C8010E9459
:1039E000AC1887FF0AC0F801938119166CF0682F94
:1039F0006195C8010E949118A1CE8823C1F3D80116
:103A000013969C9198379CF7F80163819091B207C7
:103A100019161CF487FD8F5F8595860FD8011396C4
:103A20008C938CCEC8010E94B41887FF0CC0F8019B
:103A300021813281213B3F4F7CF4682F6195C80181
:103A40000E949D1812C08823C1F3D80111962D91B0
:103A50003C91203531058CF7F80121813281280F06
:103A6000311D87FD3A9532832183C8010E94AC182D
:103A700087FF0AC0D80113966C9116160CF0B7CFC9
:103A8000860FF80183835ACE882309F4B0CFD8017A
:103A900013966C9168370CF0AACF9091B207191663
:103AA0007CF78595EDCFC8010E94B41887FF0DC043
:103AB000D80111962D913C91213B3F4F74F4682F12
:103AC0006195C8010E949D1815C08823C1F3F801B3
:103AD000218132812035310594F7D80111962D913D
:103AE0003C911297280F311D87FD3A9512963C9311
:103AF0002E931197C8010E94AC18181624F4F801EF
:103B00009381983724F0D80113961C9217CE2091F8
:103B1000B20712160CF48595890FB3CF87818F5F9A
:103B20008330B9F08783D80117968C91811106CE26
:103B3000C8010E94B41887FF0EC0F80121813281AC
:103B4000213B3F4F8CF4682F6195C8010E949D185E
:103B500014C01782E8CF8823B1F3D80111962D91B4
:103B60003C91203531057CF7F80121813281280F05
:103B7000311D87FD3A9532832183C8010E94AC181C
:103B800087FF06C0D80113969C911397191644F02D
:103B9000F801158280911F08815080931F08CECDB7
:103BA000980F13969C93CACD0E3008F023CE8AEF5F
:103BB000F82EF00EF50180818F70D82E183258F44F
:103BC000E12FF0E0E05CFE4F8081823009F4A2C07A
:103BD000833009F0BDC08091160390911703B101A5
:103BE0000E94F632E1E16E2EEAE07E2EF9E48F2E9D
:103BF000FBE09F2E0CE71CE070E7472E7AE1572E82
:103C00008F3008F4ADC008E41DE052ED452E59E1B7
:103C1000552EA6C0183208F04BC0E12FF0E0E05C52
:103C2000FE4F8081F12C04E11EE0EDE18E2EEFE0ED
:103C30009E2E813091F0F12C09E11EE05EE7852E89
:103C40005EE0952E813048F08230C1F0833081F102
:103C5000F12C10E000E0912C812CC5010E944D1840
:103C6000E82EC5010E9455186E2D70E0CC24C39437
:103C7000EF2C2F2DA4010E943414BCCDF5018081BE
:103C80008F70F82E8091160390911703B1010E9456
:103C9000F63208E11DE07AE1872E7EE0972E8F3024
:103CA000E0F204EE1DE04CE4842E4EE0942ED5CFDD
:103CB000D5018C918F70F82E809116039091170387
:103CC000B1010E94F6320CE71CE060E7862E6AE143
:103CD000962E8F3010F208E41DE032ED832E39E18C
:103CE000932EBBCFC5010E944D18182FC5010E940D
:103CF0005518FF24FA94F00EEF2DF0E0EE0FFF1FA1
:103D0000E859FE4F40815181612F70E020E00E9410
:103D1000531670CD8091160390911703B1010E9444
:103D2000F632B1E06B2EBBE07B2E1BE3812E1CE054
:103D3000912E08E11DE0AAE14A2EAEE05A2E8F3006
:103D400078F004EE1DE06CE4462E6EE0562E08C0BE
:103D5000712C612C912C812C10E000E0512C412C15
:103D6000C5010E944D18E82EC5010E9455186E2D00
:103D700070E0CC24C394ED2C2D2DA2010E943414AC
:103D8000C5010E944D18182FC5010E945518612FBA
:103D900070E0EF2C83012F2DA40101976CCF05302B
:103DA00009F028CDC5010E944D18182FC5010E94A9
:103DB000551820EC210F223308F046C097FF1EC093
:103DC00040E06BE370E090E080E00E94ED1621E0BF
:103DD00043E06CE370E090E080E00E94D61721E0C1
:103DE00043E06FE370E090E080E00E94861640E0E0
:103DF0006FE370E084E090E00E94ED16C5010E9440
:103E0000551840E0823791050CF46DC06BE370E00B
:103E100081E790E00E94ED1621E043E06CE370E062
:103E200081E790E00E94D61721E043E06FE370E065
:103E30008EE690E00E94861640E06FE370E08DE62B
:103E400090E00E94ED16D6CC97FF22C0612F70E063
:103E50006E5F7F4F40E090E080E00E941917C5013F
:103E60000E944D18682F70E06D5F7F4F21E046E0A3
:103E700090E080E00E94D617C5010E944D18682F7F
:103E800070E0675F7F4F40E090E080E00E9419178C
:103E9000C5010E945518823791050CF4ABCCC501C1
:103EA0000E944D18682F70E06E5F7F4F40E081E701
:103EB00090E00E941917C5010E944D18682F70E00C
:103EC0006D5F7F4F21E046E081E790E00E94D617CA
:103ED000C5010E944D18682F70E0675F7F4F40E07A
:103EE00081E790E016C06FE370E002960E94191718
:103EF000C5010E94551821E046E06FE370E003968B
:103F00000E948616C5010E94551840E06FE370E0DC
:103F100009960E9419176ECC85300CF09ACCE0916E
:103F2000AD07F0E0622F70E08091160390911703C7
:103F30000E94F632622F0E94EA322695CC24C39466
:103F4000E12C9217C8F509E119E020E047E359E0B8
:103F500019C0E091AD07F0E0622F70E08091160388
:103F6000909117030E94F632622F0E94EA32269542
:103F7000CC24C394E12C921758F403ED19E020E00F
:103F800041EF59E060E370E0CF010E94341461CC4E
:103F900005E919E020E043EB59E0F4CF8091AD074B
:103FA000CC24C394E12C07E519E020E045E759E073
:103FB00060E370E090E0E9CF0BED18E020E049EF1E
:103FC00058E0E0CFEB5048ED58E0E43038F4F0E052
:103FD000EE0FFF1FE859FE4F408151818091AD07E0
:103FE00020E060E370E090E00E94531632CC115064
:103FF000812F880F880F012F081B000F005C1116FE
:1040000034F5602F002E000C770B20E04BE258E0D7
:104010008BE790E00E94631611500A5FF0CF1150B9
:10402000812F880F880F012F081B000F005C1116CD
:1040300074F4602F002E000C770B20E04BE258E068
:104040008BE790E00E94631611500A5FF0CF20E0EA
:104050004DE058E070E060E084E790E00E94631675
:104060006091B00770E06A5F7F4F8CE190E00E9442
:1040700022176091AE07162F110F20E04FEE57E088
:1040800067E270E084E790E00E946316612F70E0C1
:10409000625D7F4F8DE390E00E942217FCA9F6300D
:1040A00009F0F7C080911603909117036CE070E05F
:1040B0000E94F632892BE9F480911A079091EA0266
:1040C0008917B8F48F5F80931A0780911B0890912D
:1040D0001C08A0911D08B0911E088C509E4FAF4F38
:1040E000BF4F80931B0890931C08A0931D08B093AA
:1040F0001E0800E026E14EE462E170E083E190E01A
:104100000E94FB1720E049E057E063E170E084E1A2
:1041100090E00E94531610911A07212F30E0359538
:1041200027954EE05BE16EE170E08AE490E00E944A
:10413000531625E0129FC00111246AE070E00E942E
:104140000A33282F4EE05BE16EE170E08FE490E0EF
:104150000E94531620E04EE05BE16EE170E084E5E2
:1041600090E00E94531620E04EE05BE16EE170E0CB
:1041700089E590E00E94531610910D011D3091F4D5
:1041800000E02DE041E265E170E08CE290E00E9409
:10419000FB1720E04FEE55E066E170E089E290E029
:1041A0000E9453168091E9028F5F813608F0D7C0D4
:1041B0008093E9028091250890912608892B09F4C3
:1041C000D6C00091E902003308F0CCC0602F70E047
:1041D0006E5F7F4F7595679580E00E940A110033EE
:1041E00048F420E042EE55E06FE170E085E790E0B2
:1041F0000E9453168091B3078F3009F0E1C01D3043
:1042000009F4C5C480E80E940E17882329F00E9493
:10421000E81081111092EB0280E10E940E178823B2
:1042200029F00E94C61081111092EB0280E40E94D6
:104230000E17882339F08091AD07882319F081503B
:104240008093AD0780E20E940E17882339F0809199
:10425000AD07863618F48F5F8093AD071D7F14304D
:1042600009F495C088E00E940317882309F484C0EC
:1042700080912C0781118BC08DE280932C07809157
:10428000AD07895F80932B078EE69FE00E94211483
:104290007EC03CA9343009F06FCF80911C0782307A
:1042A00009F44DC0982F9D7F943009F451C0883097
:1042B00009F44EC080911A0800E02DE0813021F40D
:1042C0008091AC07843061F14EE265E170E083E2F9
:1042D00090E00E94FB1720E04FEA56E066E170E0B4
:1042E00084E290E00E94531680911A081AE0612F30
:1042F0000E94EA32282F4EE05BE169E170E083E43E
:1043000090E00E94531680911A08612F0E94EA32B1
:10431000292F4EE05BE169E170E088E490E02ACF6C
:1043200045E365E170E08EE190E00E94FB1720E03C
:1043300047E456E066E170E08FE190E01BCF8091AA
:10434000F202811119CF8DE396E00E94211414CF5F
:104350008091F202811110CF83E396E0F6CF1092A4
:10436000E90228CF802F869562E3681B35CF60E095
:1043700080E00E940A113ECF809125089091260886
:10438000892B29F088E00E940E17811171CF80E8F7
:104390000E940E17811114C080E10E940E17811136
:1043A0000FC080911603909117038F709927892B66
:1043B00039F48091B20718160CF0BBC00E94E810C7
:1043C00010910D01812F8D7F843059F084E00E947F
:1043D0000317882331F08DE0173009F087E08093D0
:1043E0000D0180910D01982F9D7F943009F44FC3EA
:1043F0008D3009F44CC390912C079B3008F49FC07A
:10440000955090932C074091B207EEE26E2EE7E0B4
:104410007E2ED30111962C9111972223E1F0129652
:104420008C911297382F35953595359535955C914A
:10443000350F3C93382F387014160CF484C0332396
:1044400009F47FC0806F820FF3018183F3018181C2
:10445000813408F01182F3E06F0E711CC614D7048A
:10446000C1F6992309F418C140902B07512C9201F1
:10447000215031093DAB2CAB292E312C610135E0A7
:10448000C31AD1080CE417E0B2016E5F7F4F7BAF17
:104490006AAFD80115968C911597853009F0C2C086
:1044A00016968C918111BEC0C8010E9455184C010E
:1044B000C8010E944D18E82EC8010E943718F82E36
:1044C000C8010E942118EAADFBAD8E169F060CF0C4
:1044D000A9C08F0C911C2CA93DA9281539050CF0F9
:1044E000A1C0F12CE214F3040CF09CC0E80EF11C06
:1044F000CE14DF040CF096C0E4E0D8011596EC93DE
:1045000084E29FE00E942114209125083091260822
:10451000D8018C91982F9F70923009F464C000F5F7
:10452000992309F454C0913009F458C090E080E018
:1045300065C0882309F444CF0E94C61041CF90E0A3
:1045400060CF8F7080CF332349F0806F87FD8F5FFE
:104550008595820FD30111968C9378CF8F70F6CF0B
:10456000933009F447C0ECE4F7E0912C812C9430AF
:10457000E9F695819111CEC173E0880C991C7A956A
:10458000E1F7F401E45BF84F4F01808180718566AB
:10459000808325E02583D80111968D919C911297F7
:1045A0009283818313968C9183836FEFCF010E9456
:1045B00091182AE0F4012683809124088F5F80936C
:1045C000240880911F088F5F80931F0810C086E920
:1045D00090E0232B99F08CE291E010C0232BD9F3CB
:1045E00088E592E00BC084E893E0232B39F482EC59
:1045F00091E004C080EB94E0232B91F340911B08E1
:1046000050911C0860911D0870911E08480F591F99
:10461000611D711D40931B0850931C0860931D0879
:1046200070931E08085F1F4FA016B10609F031CF26
:104630000EE217E022E0420E511CD80111962C9197
:104640001197222321F18C9190E084159505FCF4BB
:10465000AC014E5F5F4FECA9FDA9E417F507BCF470
:1046600030E0221533059CF42E5F3F4FC216D3066F
:1046700074F411961C9220E04DE15FE06EEF7FEF45
:1046800002970E94531687E19FE00E9421140D5F5C
:104690001F4F6016710689F68091B3078F3009F0BD
:1046A0008FC08090AD07912C6401FFEFCF1ADF0A15
:1046B0000CE417E014012EE0220E311CD8011596EF
:1046C000FC901597FF2009F440C013968C918851F7
:1046D0008835D8F5C8010E9477188823B1F1B5E074
:1046E000FB1233C0C8010E944D18E82EE4E1E81720
:1046F00060F5C8010E94551801962C01C8010E945E
:104700003718F82EC8010E942118D8019C91FA94FC
:10471000FA9492012F0D311DC216D3069CF4421457
:10472000530484F42E2D30E02F5F3F4F4EEF480F9F
:10473000420F532F511D4533510524F02C333105C1
:104740000CF401C19F7EF8019083085F1F4FA016F3
:10475000B10609F0B3CF0EE217E0FEE08F0E911C18
:1047600050E1F52E6EE0E62ED80111968C9111974E
:10477000882309F12C9130E0A9014E5F5F4FC416E8
:10478000D506CCF428153905B4F48353893098F450
:1047900087EA0E947E16F0928A008091AE07F801A7
:1047A0001182882309F407C181508093AE078FE8F6
:1047B0009EE00E9421140D5F1F4F60167106A1F646
:1047C0004091160350911703CA0183709927892BD2
:1047D00051F520911F08ECE4F7E095819150943059
:1047E00020F49583911101C021503896AE16BF0672
:1047F000A1F720931F089091B30791509E3098F431
:104800009093B30791110FC09091AC07992319F0C1
:1048100091509093AC078091AC07882309F4D0C0E5
:1048200083E080930D01CA0163E070E00E94F632DC
:10483000892B91F4AEA9BFA915968C911597863056
:1048400018F0815015968C93EEA9FFA93896FFAB0E
:10485000EEABAE16BF0671F780911A08835E880F23
:10486000C82ED12CF12CE12C09F0ACC0F12CE12C9C
:104870003CE0432E512C612C712C4CE0842E912C69
:10488000A8ADB9AD11968C91811135C00E94073247
:10489000A30192010E948732D12CC12CA62EB12CEB
:1048A000C5018C0D9D1DB4010E940A338C0123E0CB
:1048B000000F111F2A95E1F7045B184FF801808162
:1048C0008F70843088F4C8010E94AC1887FD0CC03A
:1048D000D80115968C911597853031F413968C91EB
:1048E0008B538D3108F4ECC0BFEFCB1ADB0AECE040
:1048F000CE16D104A9F6FFEFEF1AFF0A28AD39ADA5
:104900002D5F3F4F39AF28AF3AE0E316F10409F0CD
:10491000B7CF63C03FEF831A930A38966CE08616D0
:10492000910409F026CE80718566D8018C93E5E06C
:104930001596EC931597F5E01696FC936FEFC8016A
:104940000E94911854CE892F8F708530A8F0853041
:1049500009F0FBCE15961C9281EA9EE00E9421147C
:10496000E4EFF1E0F0932608E093250880911F081A
:10497000815080931F08E9CE94FDE7CE90619C930F
:10498000E4E01596EC9387EA0E947E16F0E1F0933E
:104990008A008091AE07882341F081508093AE0752
:1049A00085E09FE00E942114D0CE2EE02093B30733
:1049B0008BEB9EE0F7CFE092B3078BEB9EE0F9CE56
:1049C00088E02FCF0E940732A70196010E9487320C
:1049D000672B682B692B09F449CF8091B0078111AF
:1049E0000BC08091B3078F3039F48EE08093B3070A
:1049F0008BEB9EE00E942114809120089091210869
:104A0000009729F0019790932108809320088091C6
:104A1000200890912108892BD1F480911F088930BA
:104A2000B0F480911A088B5F880F90912408981732
:104A300070F40E94BC19682F6150770BFB01EE0FD8
:104A4000FF1FE059FE4F808191810E9421148091C7
:104A50000D018730E1F480911F08811118C0809109
:104A60001A0895E0980F990F20912408291778F0DB
:104A70009091B0079A3008F099E09093EA02109272
:104A80001A078F5F80931A0885E080930D01EB96DB
:104A90000FB6F894DEBF0FBECDBFDF91CF911F914F
:104AA0000F91FF90EF90DF90CF90BF90AF909F90CD
:104AB0008F907F906F905F904F903F902F900895D0
:104AC000C8010E945518B82EC8010E943718869553
:104AD000B80E6701CC0CDD1CC6018E0D9F1D9C011C
:104AE000225D384F4901D901BC92C8010E944D187E
:104AF000A82EC8010E9421188A0DF4018183C801E3
:104B00000E94AC188F5FD40112969C9187FD30C033
:104B1000907F8F70792E782AC6018E0D9F1DFC0123
:104B2000E25DF84F4F0172828091AD0790E00796E9
:104B30009C012B1931095901C8010E944D18272DDC
:104B40002F7060E370E0681B7109C5010E940A3391
:104B50006115710589F077FD03C067307140A4F0DD
:104B6000F601EE0DFF1DE25DF84F206F228307C0B6
:104B7000977098608770CECFD40112962C9381E8FD
:104B80009EE00E94211429CF2061F401EFCF109103
:104B90000D011CCC1F93CF93DF93EC01162F0E94C5
:104BA0005F32181739F0612FCE01DF91CF911F913D
:104BB0000C947932DF91CF911F9108959F92AF921B
:104BC000BF92CF92DF92EF92FF920F931F93CF93FA
:104BD000DF935C017B018B01D0E0C0E0F801919094
:104BE0008F016501CC0EDD1EC6010E945F32981652
:104BF00021F0692DC6010E9479322196C430D10579
:104C000069F7C701DF91CF911F910F91FF90EF904E
:104C1000DF90CF90BF90AF909F900895CF92DF929A
:104C2000EF92FF920F931F93CF93DF9300D000D0AA
:104C3000CDB7DEB7082F8CE391E00E94E218182F61
:104C40008DE391E00E94E218011105C01A3419F4B5
:104C5000863409F43DC019821A821B821C826AE4E0
:104C60008CE391E00E94CA2566E48DE391E00E9406
:104C7000CA2588E8C82E83E1D82EE12CF12C0EE35A
:104C800011E060E0C8010E94CA2560E0C8010196F9
:104C90000E94CA2560E0C80102960E94CA2560E011
:104CA000C80103960E94CA25C982DA82EB82FC827F
:104CB000BE016F5F7F4FC80104960E94DE25085F2A
:104CC0001F4F88EEC81A83E0D80AE108F108C9F638
:104CD0000F900F900F900F90DF91CF911F910F9138
:104CE000FF90EF90DF90CF9008951F920F920FB634
:104CF0000F9211248F939F938091E1009091E10096
:104D0000937F9093E10083FF0FC01092E90091E040
:104D10009093EB001092EC0092E39093ED001092D0
:104D20002A0798E09093F00082FF22C093E09093CE
:104D3000E9009091F200992319F09AE39093E8002A
:104D400090910403992341F0909104039150909322
:104D50000403911101C05D9A90912907992341F0B4
:104D600090912907915090932907911101C0289A99
:104D700084FF18C08091E2008E7E81608093E20003
:104D80008091E1008F7E8093E100809105038E7E0B
:104D90008061809305039F918F910F900FBE0F90BC
:104DA0001F90189580FFF7CF8091E2008E7E806182
:104DB0008093E2008091E1008E7E8093E1008091FB
:104DC00005038E7E8160E5CF1F920F920FB60F9282
:104DD0001124CF92DF92EF92FF920F931F932F93A4
:104DE0003F934F935F936F937F938F939F93AF9373
:104DF000BF93EF93FF93CF93DF93CDB7DEB76C975D
:104E0000DEBFCDBF1092E9008091E80083FF25C08E
:104E100068E0CE0145960E94F21182EF8093E8008F
:104E20008D8987FF39C09091E80090FFFCCF982FC3
:104E3000907609F034C19E894F89588D2F89F88C5E
:104E4000911131C0803861F5809106038093F100A3
:104E50001092F1008EEF8093E8006C960FB6F894F4
:104E6000DEBF0FBECDBFDF91CF91FF91EF91BF911C
:104E7000AF919F918F917F916F915F914F913F91F2
:104E80002F911F910F91FF90EF90DF90CF900F9097
:104E90000FBE0F901F9018959EEF9093E800C7CF1C
:104EA0001092F100D5CF913059F48111D3CF413018
:104EB000510581F6809106038D7F80930603CACF4A
:104EC000933049F48111C6CF4130510519F68091D4
:104ED00006038260F2CF953041F48091E80080FFB4
:104EE000FCCF20682093E300B5CF963009F0A9C02D
:104EF0000B8D1C8D22E01092E9001092020310929B
:104F00000103F2122EC0109200031092FF020E94C1
:104F1000C1111F8299E09983FA8291E09E8390EA01
:104F200098879AEF99872091010330910203275FB8
:104F30003F4F3C832B838D831092E9001092020334
:104F400010920103109300030093FF0249E050E028
:104F5000BE016F5F7F4F80E00E949B110E94C111D4
:104F600079CF109300030093FF020E945911DC01D6
:104F700012960D911C910115110509F451C1D8012A
:104F8000ED91FC910480F581E02DBE016B5E7F4FB9
:104F9000C8010995009709F03EC1F8010085118507
:104FA000EACFF3E0FF120EC08F89882309F440C0D6
:104FB000823061F440E869E080EE94E10E94C1290A
:104FC000811148CF81E28093EB0047CF813029F4F3
:104FD00040E86BE084ED94E1F1CF833099F70E94D3
:104FE0005911DC011296ED90FC908E010F5F1F4F5E
:104FF0006801E114F10479F0D701ED91FC9106808C
:10500000F781E02DB801C7010995080F111DF701BF
:10501000E084F184EECFD8011C92F60101900020CB
:10502000E9F73197BF016C197D0940E0C601C6CF91
:105030006EEB74E1FB01449150E080E80E949B110B
:1050400009CF973009F4BECF983021F481E08093E6
:10505000F10000CF993009F0FDCE837009F0B2CF96
:10506000E9E7F1E081E031E096E32191222371F05C
:105070008093E9003093EB00DF0111972C9120938E
:10508000EC009093ED008F5F873079F78EE7809387
:10509000EA001092EA008F8980932A07DBCE8B8D7D
:1050A0009C8D1092E90010920203109201039093DC
:1050B00000038093FF02898D811192C08E899D89A2
:1050C000913A49F4813209F07DCF47E050E064E045
:1050D00071E080E0B3CF913209F074CF833269F48C
:1050E0008F89988DB0E0A0E080930001909301013A
:1050F000A0930201B0930301ADCE803269F4809198
:10510000E80082FFFCCF67E084E091E00E94F211AA
:105110008BEF8093E8009ECE823209F09BCE8F8980
:1051200080930B01EEEFFFE7859194918B3F9C4DAF
:1051300051F1E0E0F8E08091040190910501A09127
:105140000601B0910701803B9440A105B105F1F43F
:1051500080910B0180FD1AC0EE3F8AE0F80789F5C7
:1051600087E797E7918380838091600080930303B2
:1051700088E19BE00FB6F894A895809360000FBE7D
:105180009093600067CEEEEFFAE0D5CF80819181F9
:105190008737974709F05ECEA895809160008861B7
:1051A000809360008091030380936000EE3F2AE0CB
:1051B000F20789F08091FE0A9091FF0A9183808323
:1051C00049CE808191818737980751F29093FF0AE9
:1051D0008093FE0AC5CF1092FF0A1092FE0A3ACEC3
:1051E0000E945911DC0112960D911C9101151105B7
:1051F00009F4E8CED801ED91FC910190F081E02D09
:10520000BE016B5E7F4FC8010995811123CEF80165
:1052100000851185EBCF181619060CF41BCED2CEE3
:10522000F1E0FF12BECE62EC74E104CF0F920FB634
:105230008F939F93EF93FF938091FA028D5F8D3749
:1052400008F08D578093FA02EAE0F3E080818E4FF8
:10525000808391819F4F918382818F4F828383814D
:105260008F4F8383EBEFF2E080818F5F80838181BA
:105270008F4F818382818F4F828383818F4F83837E
:105280008FB18F6066991C9B88278F3681F480913F
:10529000F902981B963068F0E0E0F8E087E7808339
:1052A000818388E180936000F0936000FFCF90934A
:1052B000F902FF91EF919F918F910FBE0F9018957A
:1052C0001F920F920FB60F9211242F933F934F937B
:1052D0005F936F937F938F939F93AF93BF93EF935E
:1052E000FF938091F5029091F602A091F702B091A0
:1052F000F802892B8A2B8B2B09F440C08091F40291
:1053000081110BC088B190E4892788B98091F3029C
:10531000882319F088B1805888B98091F50290915E
:10532000F602A091F702B091F802181619061A06B3
:105330001B069CF48091F5029091F602A091F70271
:10534000B091F8020197A109B1098093F5029093F9
:10535000F602A093F702B093F802FF91EF91BF918C
:10536000AF919F918F917F916F915F914F913F91FD
:105370002F910F900FBE0F901F9018950E947C13D5
:10538000ECCFEF92FF920F931F93CF93DF93F82E02
:10539000192FE62E042F81E0860F880F0E946D11D1
:1053A00083E00E946D11CF2DD12FEC0EFD2EF11C4C
:1053B000CE15DF05B9F007FF13C0FE0184910E94EE
:1053C0006D11182F80E00E946D11812321968111AB
:1053D000EFCFDF91CF911F910F91FF90EF90089544
:1053E0008881EDCF81E0F5CFE4EBF7E01382128204
:1053F00088EE93E0A0E0B0E084839583A683B78332
:1054000083EC92E0918380838FEF9FEF9587848771
:10541000EAE2F8E01382128285ED92E091838083C4
:1054200083EC90E1909313088093120880E090E859
:10543000909311088093100846983E9A47983F9A97
:105440001092260810922508E4E1F8E08FEF80839F
:1054500011821282138214820895CDB7DEB763974A
:10546000DEBFCDBF789483E084BD83E085BD81E05D
:1054700080936E00E1E8F0E083E08083E0E881E083
:105480008083E1E983E08083E0E981E08083E1ECEF
:1054900087E08083E3EC81E08083E0EC82E080833E
:1054A000E2EC81E08083EAE787E0808380688083A4
:1054B00010922A0710920603109205038091D700DC
:1054C00081608093D70080EA8093D80089B580619D
:1054D00089BD89B5826089BD09B400FEFDCF81E038
:1054E00090E00E94AD128091D8008F7C8061809303
:1054F000D8008091E000807F8093E0008091E100FF
:105500008E7E8093E1008DE08093E200559A209A90
:1055100081EC80937C0081E185B987E684B984E3DE
:105520008BB98FE38AB9769A6E9880EF81BB10BAF7
:1055300080E58CBD81E08DBD85E00E947316599A8F
:1055400085E00E9473165C98EAEEF4E185918EBDC9
:1055500000000DB407FEFDCFE73FC1F75C9A81E87C
:105560008093640081E08093650080E10E940E17C3
:10557000882381F085EA0E947E162E9858982D98EF
:105580008091640080628093640081E083BF88958D
:1055900013BEFCCF84E00E940E178823C9F12E9A17
:1055A000589A2D9884E10E940E178823A1F02D9A15
:1055B00088EC0E94731658986FEF82E090E00E948A
:1055C000673284EF91E00E94AD12589A84E10E9404
:1055D0000E178111FBCF84E80E940E178823A1F0DB
:1055E0002D9A88EC0E9473162E9860E082E090E07D
:1055F0000E94673284EF91E00E94AD122E9A84E8F7
:105600000E940E178111FBCF88EC0E947316C2CF47
:105610002E9858982D9884E180930C018091640015
:105620008E7F8093640080917A00806480937A00FA
:1056300080917A0086FDFCCF00917800109179006E
:105640000E944413AB01BC01C801B0E0A0E0DC0142
:10565000992788278C019D01040F151F261F371FCE
:10566000C901B80120916400216020936400611594
:1056700071058105910511F00E94563282E090E09B
:105680000E94E218882309F13E9A579A81E080939C
:10569000070380E00E940E265E0119E0A10EB11CF6
:1056A0001E012FE0220E311C84E0482E88E0582E87
:1056B00080910803882371F01092080380E090E045
:1056C000892BB1F30E940000EFCF109207033E98A0
:1056D0005798DFCF90910A0380910903392F381B27
:1056E000832F20910C01321740F48F5F821730F71F
:1056F00081E083BF889513BEE1CF81E080930803EA
:1057000090930903E6E1F3E0808191810196808323
:10571000918310911907109318070E9476168093B1
:105720001907E0910D01E031C0F4F0E0E656F44DC8
:105730000C941E33F32B002CA42C062E2F2E4A2E55
:105740005F2E472E742E852EA72E492F4F31472EC0
:10575000AA2BBD2B8FE080930D01E8E1F3E081E0FF
:10576000A0E0B8E000800EBC8111012C1197A0FDD3
:10577000FDCF0192B9F70DB4A1CF1095812311F09F
:1057800010920D0120E045EE5EE160E170E080E204
:1057900090E00E946316809116039091170360E5D4
:1057A00070E00E94F6328832C8F411E1843108F0CA
:1057B00011E300E027E045E068E170E08BE590E070
:1057C0000E94FB171093CC04107A09F0C6CF85EA2B
:1057D0008093C50485E98093C604BFCF11E58C335F
:1057E00088F311E9EFCF84E180930C0180E8809386
:1057F0000E0181E080930D0181E390E20E9421146B
:1058000020E04FEA5CE161E070E082E190E00E941C
:10581000631680910E01882349F00E94C71680917B
:105820000E01882319F0815080930E0180911C078E
:105830008C33C8F58F5F80931C0780E40E940317A8
:10584000882339F080911503882319F081508093C3
:10585000150380E20E940317882339F08091150315
:10586000823018F48F5F8093150388E00E9403173D
:10587000882351F080911503813009F458C008F451
:1058800050C0823009F457C080E80E940E17882368
:1058900009F457C080911403803108F04EC08F5F27
:1058A000809314035ACF20E046E95CE167E370E09F
:1058B0008CE090E00E94631620E04FE65CE167E335
:1058C00070E08DE290E00E94631620E040E55CE12C
:1058D00067E370E088E590E00E946316809115030D
:1058E00081110AC020E047E35CE16EE370E08CE0E8
:1058F00090E00E946316A1CF813041F420E040E1A6
:105900005CE16EE370E08DE290E0F3CF823009F06D
:1059100094CF20E041EF5BE16EE370E088E590E03A
:10592000E8CF82E080930D0110921C07ADCF8BE091
:1059300080930D01A9CF8CE0FBCFF8940C944C29F7
:105940000CCF1092140309CF0E94701380911B0793
:105950008F5F8D3608F04AC180931B0780911B072B
:1059600064E20E94EA32192F20E045E45BE161E045
:1059700070E084E190E00E94631600E7E02E0AE107
:10598000F02E123120F0B2EDEB2EB9E1FB2E20E02B
:10599000A70165E170E08AE090E00E94631620E0D4
:1059A00048E35BE164E170E08DE190E00E94631602
:1059B00021E04EE05BE167E170E08CE290E00E9464
:1059C000631625E04EE05BE167E170E081E390E083
:1059D0000E94631620E04EE05BE167E170E086E341
:1059E00090E00E946316123108F003C102ED19E144
:1059F00021E0A8016FE170E08AE090E00E94631668
:105A000020E048E35BE16EE170E08DE190E00E9410
:105A1000631623E04EE05BE161E270E08CE290E02F
:105A20000E94631620E04EE05BE161E270E081E3FA
:105A300090E00E94631620E04EE05BE161E270E0DE
:105A400086E390E00E94631624E040E75AE169E2B1
:105A500070E08AE090E00E94631620E048E35BE19A
:105A600068E270E08DE190E00E94631624E04EE071
:105A70005BE16BE270E08CE290E00E94631625E04F
:105A80004EE05BE16BE270E081E390E00E94631620
:105A900020E04EE05BE16BE270E086E390E00E9484
:105AA000631622E0A70165E170E086E490E00E94C1
:105AB000631620E048E35BE164E170E089E590E093
:105AC0000E94631626E04EE05BE167E170E088E645
:105AD00090E00E94631620E04EE05BE167E170E039
