:100000000C94AE140C94D6140C94D6140C94D614F0
:100010000C94D6140C94D6140C94D6140C94D614B8
:100020000C94D6140C94D6140C945B1E0C94CA1E1B
:100030000C94D6140C94D6140C94D6140C94D61498
:100040000C94D6140C94D6140C94D6140C94D61488
:100050000C94D6140C94D6140C94D6140C94FC2046
:100060000C94D6140C94D6140C94D6140C94D61468
:100070000C94D6140C94D6140C94D6140C94D61458
:100080000C94D6140C94D6140C94D6140C94D61448
:100090000C94D6140C94D6140C94D6140C94D61438
:1000A0000C94D6140C94D6140C94D614060F525DEE
:1000B000D96F75EA5D9D4A7145173D060792534910
:1000C00026AB52A5011A0F76CAA6D3E9BC92DB99DA
:1000D0002653442955B276CE39E99C93CE3927B7B9
:1000E0009D8D2F782C3A1B0F9CDBA6A34DA7D3E93F
:1000F000D8D3DBADB25B259574CE29BB8D28BE74F9
:10010000DA39E7A4924A2AA9A4924A2AA91CCE4223
:10011000537CD9340C0FE4CE299B8E359D4E6797C6
:100120004E71A6D3E9D0070B0F74CE29B90D6BD948
:10013000D3E9B4924A2AA9643A1D2D0D0FEC4A86E0
:10014000AEB4923A1D9D9352492595544A2AA97AF4
:100150002557B79D2D0D0D0FECCE2939B6D25BE793
:10016000EC7E2B955452492595924A2AA9E476BBF8
:10017000CE02170FE8B23BA7E4361DDAD25BE7ECFC
:10018000784B6FB7DBED76ABA4924A2AA9A4924ACA
:100190003AE79C734E2AA9A4225B020F0FEC4A8611
:1001A000AEB454F8DA6E9554D239E7A4924A2A29AB
:1001B0009554524945B6030A0FA4DA86AEB4725E6E
:1001C00059E79C73CE39E79C73CE71F50A0F0FEC9B
:1001D000CE29B94D87B6AD9DCD59E79C73CE39E791
:1001E000B6DBED564925959C150D17D09492DBE8AA
:1001F000D3692559777244399776BBC9D4C88A57D1
:1002000049279DD201080F96A32BADA45733A7D33E
:100210003129050C0F940C5DB94BBF4A293275DAB0
:1002200039E7A4924A2AA9A4924A5203201768B334
:100230004B259554CE39279554763B99924A4925BA
:10024000B74B2595734E49E59C73CA39E7B8665B91
:100250002B27955DA7B3334DA6C814573882AAD271
:10026000DBED76BBDD6EB7E9A0211D0F7476A99496
:10027000DC86AE743A9DCE39E79C7352492595547D
:1002800052492515D96CBBF45649E79C934A2ABBC1
:10029000DD6EB7DBEDA11F1D0F7476A994DCA6A35C
:1002A0004FA7D3E9EDD239279D734E2AA9EC3A1D09
:1002B0009ED25B259D734E2AA9EC76BBDD6EB78777
:1002C000A6747ABB55D2392527CA5636071E17A4FD
:1002D000724EC96D3A1DD93EE7F44A5AFB369DDE8F
:1002E0006E9574CE39A9EC761DBED25B2595DC4A9D
:1002F00065B7DBED76BBDD6E974AAAE8D2E9ED562D
:1003000049E7949C285BD9E03E2017D897CA39E783
:100310009454524925955452492595DC2E955452B2
:1003200039E79454CE39E79C924A2AAED9F64BA7C6
:10033000EC3A1D2EE1B4743A9D4E073D01220FA404
:10034000724EC96D3A1DD93EE7F44A5AFB369D4EAE
:10035000A793CA39279554524925955452492515D2
:1003600099225354E9AD924A6EA5B2DBED76BBDD1E
:100370006EB74B2555D0101717A02795543AA9A44E
:10038000549F92EA5376BBDD6EB7DBEDF6ED769BBC
:100390008E79AB9C5374E9ED76BB55524925957423
:1003A000CE39E79C734E2AA9A4924A2AA914291986
:1003B0000F96A3299D6E25978A3AE7A4734E2AE9E2
:1003C0009C73CE51CD36573A9D4E2BE99C73CE4946
:1003D0002595545249E56C4805180F94DC6ED3E915
:1003E000747ACEED52F9747A573BA9A4924A2AAE98
:1003F000D9E64A6FB7DBED564965974A2AA9E476F4
:100400001B3A01190F9C5372BBDD6E15B1924BC59F
:10041000944EA572B5734E2AA9A4928A4B914DB6FB
:1004200055D239E79C53524925955452C96D6806F7
:10043000160F96A3A9945C2AEE745649E79C74CED5
:1004400039AED9664CA7D35B259574CE39E7945461
:10045000721B1A01160F96EB68D36925D32955EA4A
:100460005B9DDE6E9594CA392595CC4AF5C7B4BD1F
:100470009C73524925955452492595738E339D0E90
:100480005D152FD87E7B2A255DE79C4E6F95B4A322
:10049000DA295D2B955255AFCAEE73D88D6EAEDA60
:1004A0004574A976959C4D493BF211B452CAA6D326
:1004B000E9743ABAF0B724964E2A9DDE6E95745CC4
:1004C00015F6A24BC7964E87460E2F30B43D959237
:1004D000AE734EA7B74ADA71B4744EAECB57A9AA21
:1004E00094B5EB1C6B7473D539A73E55BB52CA8EBD
:1004F0004404AD64685C124B65476074E9D8D2E986
:10050000D0042817B8D2C9AA5455AA2A5595AA6466
:10051000D557A5B2AA5DBAE64BA7A492E9743A9D55
:10052000DE6EB7DBAD924A9552A55429554A9552D5
:10053000E5D2E974F495AC6CE73A97AB5DADFAAAF5
:100540005BDD4A3A752B7C6EB7AB52AA949295ACA0
:10055000643AB456B292DB743ABDDD6ED3E9743AB4
:100560009D4E2BA9A45D49259594727BC974B8054D
:1005700018173074E9D46D57E79CAB9D73DBED76AB
:10058000ABA492524985B364E752BDEA5521B473D6
:100590005DD7755DD7E99454CEE1512AE79CDBAE77
:1005A000D3F16F934A2AA94A392E2217A8D3E94BCF
:1005B00056B29295AC747AFB769B4EA7D3E9ED7652
:1005C000BB555249259574CE39B95DA723DD6667C1
:1005D000534C55AA4A96AA4A291D3AD3E9542A955A
:1005E0002A773927955CA7D3E9F09C4E3B57954A6B
:1005F0003BA74AE6C3392017A8B6B1CDA6D894EBDD
:100600009CAB743A9D4EA7D3DBAD924A2AA9A47342
:100610004ED9ED3ABD4E874BE7DE6E67DB6ED749AC
:1006200025955476E79C73CEC1A51727B0BA734AB7
:100630006ED3D1A7734896954EAFD3E9AD73769B31
:10064000AE6C65436E5A49A9F8B752C1444AE99C59
:10065000D339E73A05D9011D27D016593AABA4730F
:100660004E492595DC8EA85E4925F3E94A8725E7A2
:10067000DCFCE9F47EA6ACC250161A4A6795734EAC
:100680006EB39145BE84849297AB645A49259DB35D
:100690003BA7732E37840A231FB0B45D2AA9ECAAA6
:1006A0005FDDCED9743A9D8F2CBB737625ED4A2A37
:1006B000A9A4934A2ABB8D2859C9C8A5B2EBB05545
:1006C0004965D331669583AEB24BA76CD44B27678F
:1006D0009BED65F054BA92DBED36B44517B4041FB8
:1006E000174895734A2AB9DD2AA964ED7AADB0B4EA
:1006F0005D3BA9AC9252D975F8DB2A69674EA7ED2C
:100700007687A71DF75649E7A4924EBA4FE6C3D2A3
:100710004A6EB74BE55CB469E7D2CE4534CE0115DD
:100720001768B34B25955DF5EADBD5369D0E5DE97F
:100730001CF556492595740E4D4B37978E2E8F47D5
:1007400025955452C9B1155DF41817B0B4544A6ECA
:1007500043533AED9C5D874CA5747ABB5D6FB75BE4
:10076000B94D6F95744E3AE99C9C2859C9A8B7DBDE
:10077000ED76BBDD6EC73A2B0FE8B24B2595544E94
:1007800039A79C734A2A9D4EA7D3E9747AABA45427
:10079000A595944A2AABEC76ABA47352D9ED76BBFF
:1007A0009D2EBAF8B74A2AA9E8D3E974524925958B
:1007B00054524925D311A6B7BBDAD5CE39E79C737D
:1007C000CE39E76A57BBCE752EA264C755F9B8007B
:1007D0002C0FB89C924A2AA9634AA7D376BB5DDD49
:1007E000EACE75EA536F7784BD55D2A6D3E9743A41
:1007F0009D4EA7934A5652B95B49C536DBD4E9747E
:100800003ABDDD2AA9A4924A2AA9A4924A2AA9E4B7
:100810007C4965B74B2595DC6EB7DBED763B5B74A9
:10082000A10F2717A894B3DBEDD84AA7954E49F539
:1008300029A94AA9D2A94FA73E9D4E070FA5D35B70
:10084000259554D23925B7A9ECD229A9A473CE6D28
:10085000B7DBED76FBD6EE9C554A2AA9A4924A2A2C
:10086000B2D9864C011F17B8DC76BB754EC96D3AFC
:100870009D4EA795EB9454DF5239E79C535CB38DA2
:10088000CD9C53524925955472BBDD6E97CA39E70A
:100890003EA5A42AE5A492CE39A9A492CA6EA78B3C
:1008A0002EFE743A9D4EA7D3E9E8A38B369D4EA742
:1008B000D3E9E8A28B0E200FA8763ABDDD6E95B481
:1008C000979FCC39A7A4B24A2AABA4B24A2AE99C82
:1008D0005452D9ED3A1DDED25BE7B6CE6D436F3A86
:1008E0009DDE6EB74A5E2E5DF9B8001F0FA8949387
:1008F000D3A7D36E2A6527EB9CDC6ED7EBF4564961
:10090000259D934A87B7F45649D53B677736A4A609
:10091000B74A3AE79C73AA943A35513E260917BC68
:100920009DB19295ACA8F895D4F16FF1E45CDAB979
:1009300074CD050917BC9DB19295ACA8F895D4F17A
:100940006FF1E45CDAB974CD051517489592B3A63A
:100950006B2577CA39A9F4AA5DB45BE7EC7C522118
:100960000A7DE8629C4C9129A42A32C536191E17CB
:10097000C8D5ACE9DA39A59C7252E95CAFE43A9F7C
:10098000DE2AE99C5D87471D9A1AAB6925A5B2EB63
:10099000FC5649E7A4B2314EA6C814E4349B629BCE
:1009A0000C2217D094544A6EA34DD74AEE9473523A
:1009B000E955AF6C7CE9AD9252D97548DCC990B469
:1009C000544A86D6F45649E7A4B2EBF55649E7A453
:1009D000B2314EA6C814E4A5C814DB641017889D74
:1009E000C2D776ABA4543AF6A41B69D9A572CE3906
:1009F00025E7CD663BA7E4F672A1131C17F0E8C605
:100A0000503A9D4EA7D369259D93CAAE43533ABB36
:100A1000545239A76458CA2E95734A6ED3DBAD730E
:100A2000FC69DECE29F929E79454A5B6DB74E8DD2C
:100A30003AB7752EA6A900131708B7CE39E73A259D
:100A40007552E974F45B1DDAD2D9ED5295C250FCAF
:100A50005251E72AF929E79454A5B6E974B45BA981
:100A6000B6524D3415201FD0EB46553A9D4EA7D3B4
:100A70004A4AA5435E252B5939E79C73CE29A964C0
:100A800058CA2E95734AA6B75B25A5B2F3A5B7CE73
:100A9000D989D3C15AE9AD73DB5B6D7B281110177F
:100AA00088E57CE9743A9D4E4B654757232D9DDDC3
:100AB0002E9593F3E62AF929E79454A5B6A11118C7
:100AC0001770E9C6DF5686B34A56B2725249259569
:100AD0005438CB39FEB492FCE9D0BE956A2BD5448C
:100AE0005302201FD0EBC6D15291A7D34A4AA54347
:100AF0005E252B5939E79C73CE29A96458CA2E95D7
:100B0000734AA6B75B25A5B2F3A5B7CED989D3C1E1
:100B10005AE9AD73DB5B6D7B28111C17F0E846D1F9
:100B20005291A7D34A3A27955D87A67476A9A472F5
:100B30004EC9B0945D2AE794DCA6B75BE7F8D3BC56
:100B40009D53F253CE29A94A6DB7E9D0BB756EEB20
:100B50005C4C5301140FE8729553CEE5D3E9EC5287
:100B60004DB8239B6DB9936329DAD0185DF4101743
:100B7000F8D7BA76CE6DD35BE76A17D10E494A2A09
:100B800027E7CEAE235E3AC53CD96C63499129B6BE
:100B9000C9000917BC9276A2743A461C912932A268
:100BA000F10B1E17B0B873B3A6D3E9ECBDEAA5727A
:100BB0005259E79C53D239A97468CA2E9592DBC862
:100BC00097CA3925B7A16F2B157FDA39BECE29799F
:100BD0003925B7DBA023E7D2CE4534172317B0BBA6
:100BE00073D1A7D3D9A56A752B27D3E9AD92CE4986
:100BF00065475F76A99C5372BBCDA6B3DBA5724E49
:100C0000C96DE84B6F9DB3F3A59594334FA6645A15
:100C100041628A4CB14D061D27D0974E67B7DBED78
:100C20005249E59C73CE29A9A4724A2AB954D255D7
:100C3000AA2A551573763BD7AA6D7675ABA592CACD
:100C4000392595DC6ED3A1196770189AB61058ED46
:100C5000F28ACBC15D1817D85632FADA39B75C3A46
:100C6000A557ADE24B6F9DB3E3CB39BB0E41CAD95B
:100C7000F19456522ADEAD7318DBA59D4B3B173A13
:100C80009D4B3B17D15C1F1FC89454CE396757BD8D
:100C9000D2B95EDD6ABBDE6E9554D239E7A492CA42
:100CA0006ED7E9F02715BE74784BA7D3DBAD924A17
:100CB0003AE79C73CA7636A26CD44ACAF56C934163
:100CC00069D1451734061117489592D1A56BE7767F
:100CD000CAE9AD73B58B8ED7393BBF92527925F1F6
:100CE00084A8C9661B4B8A4CB14D061017BC553AF7
:100CF0005D3BE7B6E9AD733517DE94B4A32B9D7564
:100D00004E5EB6B261683245A690091C1FD8B6CBBC
:100D100074AE5C6757FDDBED76BB54524925957385
:100D2000CE39E79C73CE39E75C252B59913A87275A
:100D30001DFC25155D7410D76CB30D6B011117B830
:100D4000B6CE39E7ECAA57B2B6DB53D2C94A3AA9B4
:100D5000A452D4697CF1873E7749A5934AE770098C
:100D60001D17C8D5ACE9DA39B7DC2A295DEDA24DEB
:100D70006F9574CEAE43A01C4D3917BAD25BE7A471
:100D8000B2EB78D35BE7E4CC9329320509E5B39560
:100D9000CD67F391012217D096DD3925674DD7CE67
:100DA000B9E55649E96A17ED5649E7EC3AEC65951D
:100DB000732329BB54CE6D435F7AEB9C54761DEFB1
:100DC000D639A96C8C93293205792932C536191583
:100DD0002FA44A87BEF4562A3CA6D3ED42262E9570
:100DE00054D239A7A492CA8E2F25A5C235DE926EA1
:100DF000BBDD6EB7DBEDF8520A575B25A5934A4A77
:100E0000259554CE395C29A9A4924A2AA9E476BB37
:100E10001D7B0E2F889D435F7A2B15A5533A943A7C
:100E2000259574CE2994E5A4C219CA726EAC2985A1
:100E300029E7A4D2E14949259554524925B7DBED6C
:100E4000EC281794924AE9743A9D4EA7A3DF6EED01
:100E5000DBB1974EA7D3E9ED76BBDD6EB74A4925E6
:100E60009554645249A5D3C159D9EDCE39E7DC7602
:100E70009B0E6DCE39E79C734A6E95545249259569
:100E8000DC6EB7DBAD73CEE9743AE7EC76BDDD2AF4
:100E900025154A01181788ED36BCA5D3E9747ABB2D
:100EA00075CE399D8E52293B65188F5F4925F19487
:100EB0004EDBED76A9A452524925954C4BE794544C
:100EC000CED9ED76A9002217189554D26EB74A2ACA
:100ED000A9A49252A5435F3A9D4E6FB7DBAD924AEB
:100EE0003AE79C545229E79C92CA39A96430D576D6
:100EF000ABA45276BBDD8ED7ED562ABBDD6EB7DBD9
:100F0000A52A85A2743A9D4EA7D3E934201776CE40
:100F100039A79C734E2AA9EC7674A6D3DBED56490B
:100F2000259574CE39A9A4B2DB51271567F4B1AF6A
:100F3000D3E9A4924A2A49994EA7D3A12F9D8E2E78
:100F40009D0E7A021727B0B9734A6E435FEE302ABE
:100F5000435D5A49E99C5476E9142ED34A4A85AF39
:100F6000AD5498570A75901C1D27D0955D2AE79CB3
:100F700053524925B7DB6DC8DB3925A5924A3A475C
:100F8000EA940D06CAA23B9D5E2A27B72372897395
:100F9000E5A4924A2AE79C934AA7439072F028233B
:100FA0001F68B34B259573CE29B94DA7C35E769DB7
:100FB0004EA7734E2AA9A492CE39A9A4924A2AC553
:100FC00025955D87E9AC72D05376E9940D5761CCD5
:100FD0000D2FA59D73CE392595DC469B4E6FB7DB53
:100FE000EDB0111F17C894734A6EB7E9743AF4A6AE
:100FF000B74A4A65D7E16BABA41D75236EE7D25B98
:10100000259D93CA6EF7E9AD725291AE6C3A9DCEB2
:101010002E9573DBAD545249259554D23954460F61
:101020001517E8B24BE59C734A6EB7E9704BB5559E
:10103000D239E79C435B761D9EF0E69C73CE39E780
:101040009C738A7CBBDD6E67051817D8974AC96DFB
:10105000E84B3B67D7214F29843A2595744E2ABB2C
:10106000DE2AABA4924A2AC5A4A4924A2AA9A49231
:101070004A2AA9A4920AD92B0F7476A99C73CE3957
:1010800025B7E9A0A3743ABD55D239A9A4924A2A3A
:10109000A9A4B2DBED76BEAD92CE39E79C924A2A86
:1010A000E99C73CE39E79C73CE39E79C73CE39E760
:1010B0009C7352492595545249259554524925957A
:1010C000545249E59C5452492595944A012C0F9C51
:1010D0005372BBDD6EB7E9743A9D4EA7D3E9743AFB
:1010E0009D4EA7D3E9D09D4E2AE99C73CE39C79473
:1010F000DE6EB75B259574CE39E79C73CE39E79CDD
:1011000073CE39E79C73CE39E79C73CE392595545D
:101110005249259554524925B7DBED580327174FFF
:101120000D7339E79C54524965B7DBED76BBDD6E34
:10113000B7B3A6B75B259D73CE39A99C93CA6ED76A
:10114000E9743A9D4EA7D3E9743A9D4EA7934A2A73
:10115000A9A4924A2AE79C73CEC1A11F179CDBA6C3
:10116000D3DB6D3A1DD6D2D9ED76BB54CE29A9A4D6
:10117000920A79391B52B3DBED76BB555249259D56
:1011800073CE39A9A4B2DBED763B5F7ABBDD6EB7D7
:10119000DBED769B4E6FB7DBED36BDDD6EB7DBED7D
:1011A00036BDDD6EB7200FD40E87692595DD6ED76D
:1011B000E97C3ABDDD2AE99C73524965B7EB74FCC2
:1011C000E9AD545249259554DBD0984E6FB75B2555
:1011D00095744E2AA9A4924A4AA5001F0F947272D0
:1011E000242E955452D9753A1D6F7ABB55D239A920
:1011F00074784A6F95D4E9743A9DB32131BD55D2C4
:1012000039A9A4B2EB747AEB9C54010917EDF8E309
:10121000535287AF2DAF5452492595545249050971
:1012200017EDF8E3535287AF2DAF5452492595542B
:101230005249051517C89492232DBBDD8EAFAD73AF
:10124000562BC4A10B7D39E79C73CE39E79CC3A113
:1012500073CE39E79C73CE39071E1748D5C8CB6EBD
:10126000B7EB74BCE9AD92CED97578435F632F9D1F
:1012700056522ABB8E77ABA47352D972CE39E79CF3
:1012800073CE39071729A9A473CE39E79C732217A7
:10129000E8934AC96D58CB6EB7EB74FCE9AD925236
:1012A000D97548DBC990B6544A86C6F45649E7A4B6
:1012B000B2EBF8D25B259D93CA9673CE39E79C7347
:1012C000CE39B8CA39E79C73CE39E79C03101708AA
:1012D0009DC25F7AABA4543AB69D1B89D9A592CA28
:1012E0003925D7CA392795545249259554A1111C3F
:1012F00017F0E7C6705A49E7A4B2EB68B3DBA572F2
:10130000CE3925C35A76A99C5372ABA473F84A7B95
:10131000A9A4B2DBED76BB5DC9ED36742A299554DC
:10132000524965B7CE0D1317BC9252D9F1BBD5A166
:1013300029ABA472CED9702A15935252D9ED76BB3F
:10134000DDBEDD6ED35BBBDD6EB75BE706201FD075
:101350008AE8B49252E970E59C73CE3925955452CF
:10136000C96D58CB2E95734A2AA9A45476FEF4D69B
:1013700039BB57524925954CA7D3E9743A9D4E87FE
:10138000D6F4562AA9EC76BBBD1C4C08101708E50C
:10139000F894CA4EDFC84C6797CAC9B55252D9ED06
:1013A00076BBDDBE0D7D181770E8C6AB0C45524903
:1013B00025B7DBED766CA795E4DB6EB7DB743A9D61
:1013C0004EA7D3E9743A9D56D26EB7DBEDD63926D7
:1013D000201FD08AE8B49252E970E59C73CE39257B
:1013E000955452C96D58CB2E95734A2AA9A45476A8
:1013F000FEF4D639BB57524925954CA7D3E9743A28
:101400009D4E87D6F4562AA9EC76BBBD1C4C081C11
:1014100017F0E7C6705A49E7A4B2EB68B3DBA572D0
:10142000CE3925C35A76A99C5372ABA473F84AFBF4
:10143000524A2ABBDD6EB7DB95DC6E43A792524958
:10144000259554F672CE0D140FECCE2939B2B24B5D
:101450002515D292729B4E6FB7DBED762CA5D3DBB0
:10146000ED763B2B101778B798DD713AE79C1C5747
:10147000216AE9149173CE39A7A4924A2A52E79CB3
:1014800073CE39E79C730E091795B4E38E135F5240
:10149000F1A6D3E9743A1D1D1E17B0B77323319D11
:1014A0000E4F4A3A27958E36BB544A6E43D6523970
:1014B000A7E436746DA5C257DAC994924A2AA9A442
:1014C0005252C96DE8974A2AA9A4924A3AA7002322
:1014D00017B0BA7361313CA5B74A3A27951D5DD95B
:1014E000A5724EC96D3AF67476A99C53721B9AD2B6
:1014F000E9AD7376FEB4927222E79C73CE39E79C15
:10150000732E1D34E59C73CE39E79C73CE011D27E5
:10151000B0B6DD6E974A2AA9A472CE3925955472C9
:10152000BBDDA6634B67B7DBAD5F2AA9A452B8CA7F
:101530006E97CA39E7945472BB4D874E1CC25978D6
:10154000CB42585249259554524925A12C1817ECE5
:101550004A86C5EC3AFEF4D6393BBF73761DC29479
:10156000B3F3A695940A4F5BE710E49454524925CF
:10157000955452853EA9A4924A2AA9A4730A1F1F12
:101580009C73CE392595DC8EB5747ABB555249E7EC
:101590009C934A2ABB5DA7C39354F8D3F1A5D3E922
:1015A000F476BB555249E79C934A2AA9EC56592533
:1015B0009D738A494919DAA0B0ED76BBDD6E87BD0F
:1015C000001117C89492A1DB3B67475858E475CEC9
:1015D00039E79454524925D369E79C73CE39E79C87
:1015E000730E1017EDF8C593927634A69555522ACE
:1015F0001BA173CE39E79C73CE395C450B1C1FECE5
:101600005249E5DC36F6743A9DCE6EB7DBA5924AB8
:101610002AA9A4924A2AA99C73CE39E79CC39B0E9F
:10162000BAB2E30BA25252492595545249055901C9
:101630001117DC522AA9A4924A6E435B3A9D558A3F
:101640002A8D3F9FDE6EC7960B6D38041D1748D557
:10165000D84F6F9574CEAE43981C6D39176D3ABD57
:10166000754E2ABB0E4FE9AD737222E79C73CE39DB
:10167000E79C73384F6F9D73CE39E79C73523922C4
:1016800017D095DD3925C7FE5649E7EC3A6C6595CC
:1016900073232DBB54CE6DD3D1A7D35BE7A4B2EB9C
:1016A000F0B4754E2A5BCE39E79C73CE39E75CD037
:1016B00053DA39E79C73CE39E79C030207A553360A
:1016C000090D3F4043A5D3E9B0B5CCE692DD5FD923
:1016D000EAAACA554D9C8D371B5F36BA340D3FC1FF
:1016E000BF012F0FABAAABEAAABAAAAEAAABEAAA6D
:1016F000BA72D5A9AAAE4E55B9B25575555D5557B2
:10170000D55575555D5557D55575555D5557D555B5
:1017100075555D5557D55575555D5557D555755505
:101720005D5557D55575555D5557D55575555D550D
:1017300057D55575555D55D55DA9AAEE4A557557CE
:10174000AAAABB5215EFBB9295AAEAAE545577A54B
:10175000AABA2B55D55DA9AAEE4A557557AAAABBB8
:101760005255DD95AAEAAE545577A5AABA2B55D5A0
:101770005DA9AAEE4A557557AAAABB5255DD95AA8E
:10178000EAAE54052727D0974C06252693C920BFDB
:10179000989795CF75EE53AA94BA5DED2E594927C7
:1017A00095745249E79C934A2ABB5DA743673299D7
:1017B0000CEBE97C3A9FAC64E72EF729554ADDAE85
:1017C0007697ACE4252BE99C5B2593A94A29E7A4ED
:1017D00092CA6ED7E9E0B5743EBAE8A28B2EBA2C55
:1017E000272741E3A5D3E9743A9D4EA7D3E9743A7C
:1017F0009D4EA7D3E9743AF808FE4AA7B75B259532
:10180000545249259554524925955452491327302D
:10181000B93D9592AE734EA7B74ADA71B9744EAE20
:10182000CB57A9AA94B5EB1CFE6ABBABADEA9C539F
:101830009FAA5DEDA4B26348AEE3565239E79C73AC
:10184000CE29A9A492DB70D5CEB9DAD54E3AA974C7
:10185000A805132710E81CFAD25BA950E7940EA53F
:10186000184AA7A4924A2AE439271521F2B64B2533
:1018700095545239E79C734ACEACD2E9743A9DDD57
:101880002A291546013A0F543A6BD32A9D4EE7D2C6
:101890007C2E9D4DA7A57364CA3975B9CE75AE73FC
:1018A000EBF0A69C5397EB5CE73AB78E2D2D957421
:1018B000E96C3A2D9D635BAA6BE5A4B2CA3AA9F81C
:1018C000B64AA7B3DBD89454EC4B252BB2F47A9DDF
:1018D0004E67B7612DBD5EA7D3D96DAC4A2AF6A578
:1018E0009215597ABD4EA793DB2D7F3FA1E5A472D7
:1018F0004E49F5A96C68CFA7A573CE49A5033FB69D
:1019000093AADCD649259D7365B7DBFF556FB7DB1E
:10191000EDAAFFB7CB4AE69454CE39E796AA768370
:10192000DADAAA7297734ED9A572576EE594949538
:10193000AC745249252B9DACEECA75AE53BDEA5D21
:10194000E73A59C94A77575249A59395AC94744ED2
:10195000BFBAA4B24B259DBB942A35646A9D73CE51
:10196000AED341704A3AA9EC76BBDDAED4ADEE9C65
:1019700073CE39E79CAC6425AB73DD95ACAECE7508
:101980002A954A75AE57A95457E73A59B9CE752AE0
:10199000D5AB74AF7A95EB5C27AB73C9EAAEEECAF0
:1019A00039E79C73CE397BAB93DBED76BB54CE39F4
:1019B00005C5A5B33BE7DC762CA6B75B259574CEB1
:1019C00039E7A492CA6EB7EB743A1D8694745249F3
:1019D00065B7CA39572A95EAEDAEB6DB4F7D39FBBC
:1019E000A9ED76FBA9FF557F6AD54A2AB95DF5A90D
:1019F000B7A752F656B36D4FA5ECA9577DABED5680
:101A0000DD4AFEAFFA539FDA6EB75FCE7EEA53BB74
:101A1000DAAE7A954AA952CA4925974A2AE79CC262
:101A2000503A9DCE6EB74B259573CE39A7A492DB65
:101A30006DB05868CBAEA472729BEEF4AE76B5ABC7
:101A40005D6DD5AD4E6F95545249255529554A497E
:101A5000554A49259554A55429255529259554526B
:101A60004925D5A7A4FA94549F924A2AA93E25D580
:101A7000A7A4FA94545249255529255529554A4970
:101A8000259554A59454A554A9ED36DDE964254B5C
:101A9000A9DAD5AA57BDDA6E9554D229A9A45D87D3
:101AA000B6E0BFE8D2E9743ADA74BA57E974BA57C3
:101AB000E974BA5731CF3AFBCCA94FA7A39A3C6D32
:101AC0002FF736BD4D6FD3DB72DBE39D7DF6D95723
:101AD000E974BA57E974BA57E974BA57314E954E5A
:101AE000A7D3E9E882F5B24BE59C925BE7DCEA56C6
:101AF000D7AE2B995E3AE5A4AA5DE7EA72579FFA42
:101B000056AA2AA54AA952AA949272A9A45AF5568D
:101B1000FDFF9793DB6DB256F7AA57CE392795BCD8
:101B200064757ABBDA6EB7DBED769F4E2AE95C2DE1
:101B300095ABCB5DEEAEEED5AAD4E7BAEBBA6A7739
:101B4000AFFA73A99473AA94EA5DAD4AB9DAD5AA3B
:101B500094ABBFAAD55D9DAABAEAAF3AD755ABAA56
:101B60007EBD4A7D57A72AAB6427B795CD87577F9F
:101B70003F40662EA56A55AAD42969950E434ED9D1
:101B800076CA6ED55DED6A47B694AA55A952A7A448
:101B9000557ACD5736BDF511D9F4EEF4AE989CB216
:101BA0005DAB539FFA9472970B51691F51A94F7DFA
:101BB000CA76A7ECA5B7CE3ABBBD9453BB6DE08DFA
:101BC000B2DB60DBF456E96C10643A6DB75C4EC969
:101BD000739D4EAFB7D239A6B4DDAA54E73AD7B950
:101BE000FE9C738A6FA9EADC259555D6494597FD79
:101BF00054EA92CA3A1D53DA6E553A9B4E5B253130
:101C000095B65B954D6FAD926FD36BE91C9753F210
:101C1000CB75AE739D5BC7E7947C9B4EAF52A93CDE
:101C20009FCBA6D369E91C53DA6E553A9B4E5B25D0
:101C3000B99C925FAE739DEBDC3AB6B4DDAA54E773
:101C40003AD7B9FE9C738A2BBDCE39A748D3E97524
:101C50003A9D8D7E3B6B3ABD4EC79A5EA7D3D9683D
:101C6000D3EB74369D5EC7B69D7DBB0E6BDBD9B7DB
:101C7000B36ED7B1A6D7E974761B6D7A9DCE6EA3ED
:101C8000DBCEBE4EC7BA9D7DBB8E35BD4EA7B3DB46
:101C900068B7B3A6D3EB7450587ABD8E34ADA4B2F6
:101CA000E96C3AADECDC9DBBA4B2EBD095DD3925F7
:101CB00055AF22AC644599964A92A69554369BDE60
:101CC0002ABBDCA6D7EBE8B2CB743ABDDEAE7369B3
:101CD000E79C4DA7E3CD2EB7E9747A1DD4BA74AE54
:101CE00053A954E79C553A2AA924FB4A2A555C4B30
:101CF000A7D7E9542AE59C42584A2AC7ED9CD451FB
:101D00003A27759452496AA924EB4A2A55544A3A0B
:101D1000BB5EA7D329E71499734EAFD3D9B8947497
:101D2000AE57A9542A95CA6E0367097F3F804D2894
:101D3000BD5476E83BD82BABEC76F89497369BCD28
:101D400066B3A129BB555659E99C1D53599DDE9E8A
:101D50004DA7D3E9B5DD3A87A1EC565965A5737651
:101D60000C65694FA7D3A168A9945CDDB9DA55B2B7
:101D70009295AC64ED3A955AAFA3E4A5CB2EB3D9B6
:101D80006C68CA6E9555563A6787BF68CFAEB7CABA
:101D90002AABACB2CA46B674AA3F77C9ED56B9525F
:101DA000AAAC93D2C909695D3ABD55AE76A55ADD94
:101DB0004AD96D644BA7FA7397DC6E952BA5CA3A86
:101DC000299D9CC8AED37A9DCE6697DBD4D639EBDD
:101DD0009C5EA7D7E974769B5D6EA3A43DABACB2C5
:101DE000CA2AABACB2912D9DEACF5D72BB55AE94C1
:101DF0002AEBA47472082AE82D683BA04502401F14
:101E0000F2BA9229A9A4922A952AA56E554AA552FA
:101E10005255A5AA5255A9AA5455AA2A5595AA4A77
:101E200055A5AA5255A9AA5455AA22F47C3A5DE7B1
:101E30003AE7E4643A5DAF5AEDFA55443A5D777596
:101E400057B292317DBBAEBBBAEBDC3DD5B7EBBA36
:101E5000ABBBCEDDEFF978A38BAE6CBBEA55D5D723
:101E600075AF76A553A9542A954AB7DDEA683D9F18
:101E70004ED7B9CE3939994EEB743A1D95DC76B907
:101E80004B5A25899474DA3997738A4CA7974ED99F
:101E9000B83C9F5476FBFFFFFFFFAFA4BAD5ADA4BB
:101EA000BA9554B792EA56B792EA56B792EA66F4F0
:101EB00084725DB292A5974C3ABDB24AE93444654A
:101EC0007DB2D2E974CEBDAA6425ABAFFA2A59C956
:101ED0004A56B2FAAAAF9295AC64252B59C94A5614
:101EE00032424D984EEB74E908E5B6CB5DD22A49F3
:101EF000A4D375AE734E4EA6D3755777252B19E232
:101F0000007A7A6A7A7A5E7AB27A7A7A7A7A7A5EBB
:101F10007A7A7A7A7A7A7A7A7A7A7A7A7A7A7A7A21
:101F20007A7A7A7A7A7A7A7A7A7A7A8D8D5D8D81EE
:101F3000A98DA98D8D8D8D8D8D8D8D8D8D8D8D8D99
:101F40008D8D8D8D8D8D8D8D8D8D8D8D8D8D8D8DC1
:101F50008D8D8D8D956B6F676F6FB36FB36F6F6F77
:101F60006F6F6F6F386B6B6B6B6B6B6BC7C7C7C774
:101F7000C7C7C7C7C76F6F6F6F6F6F6F6F6F6F7EAA
:101F80007E667E7EB27EB27E7E7E7E7E7E6A7E7E35
:101F90007E7E7E7E7E7E7E7E7E7E7E7E7E7E7E7E61
:101FA0007E7E7E7E7E7E7E7E7E7B7F477F7FB37F52
:101FB000B37F7F7F7F7F7F737F7F7F7F7F7F7F7F09
:101FC0007F7F7F7F7F7F7F7F7F7F7F7F7F7F7F7F21
:101FD0007F7F7F75756D7575B175B1757575757523
:101FE00075657575757575757575757575757575B1
:101FF00075757575757575757575757575D5F08D9E
:1020000014A1C881CFD9F1AF2000281B131A1708DB
:10201000E35BA755B9CBB9524A2AA994923B27ED65
:10202000D66ED3A9547AA9E4765731A652D9AD72A7
:10203000EEAA2A5595AA5455AA5CAF4AD9753AA971
:10204000A4EAFFAFEEEA964A2A9DCE85C590B4DD9C
:102050003AFA70081A17B473CED9CB5D7A3B716E19
:102060003B7B3A2D552A954AA59D736EBB5D76EA5A
:10207000D3F9E1A4A592DBED8A2A9D4EA7F34A2A63
:10208000A95C3AADA49252492555BA945452A10E76
:10209000153F94924B25974AEE9C73AA76A509ADFD
:1020A0004D6789542A954AA52461AFFA7BD5AB5E6A
:1020B0006EB7D9ADE663B2DB2D910ECD9ECFF37A2C
:1020C0007C7B3ECFEBF1EDF93CAFC7B7E7F3BC1E2D
:1020D000DF9ECFF37A7CEFF339A7D3E99CC31515C4
:1020E0003FB6E9D0BFDD6EBD4EA7B3DBED524985EB
:1020F00051BB0D9DF8C42F3EF18B4FFCE213BFF88E
:10210000C4AF92CE49259554524925955412451095
:102110003FE8D2D974369D4D6753A954A73E75291F
:1021200055EA52AAD44C4E67B7A9FB946494AF3ACF
:10213000D5ABB67FAFFA5323689DD67C44B41E8FCF
:102140009ECFF37A3C7A3ECFEBF1E8F93CAFC7A3E0
:10215000F2F994D4E9744A4251103FEC76A9A47282
:10216000CE392595DC6ED3E14C492515BE799554C1
:10217000129F78C327DEF089377CE2CD39A9EC764F
:10218000BBDD6EB75B98090F37989493AA57AD4E95
:10219000A952EACE75AED5A955AF7AD5AB5EA5C228
:1021A000131F9FE74F872E3E3E8F573E3E8F573E71
:1021B0003E8F573E3E8F57BBD6E9D208030F37F10B
:1021C000964EA7D3DBED763B82A5924A2AA9245EE0
:1021D000F184573CE1154F78C5135EF1040E2F7B57
:1021E000D5AB5EB53AB5EA55BBDAD5AB54AED5BD85
:1021F000EA9DC21C1F9FC7271F9FC7271F9FC72776
:102200001F9FC7A75DEB746904010E2F753A9D4EA1
:1022100087AF743ABD4414DEF08737FCE10D7F7858
:10222000C39F0E5FBC0B0FA452721BBD0D416925ED
:102230009D93CAAED3297B95AB6CE5721607CA672E
:102240002B9BAD6C5649E5EC761D6D3A9DDD2E9DC0
:10225000734E2A9B03263760A16C5AC9CA39E75CC2
:10226000ED3A6C65ABBAEAAA6CE52A5BCBE28C2E40
:10227000BAD96653648A4CB155DEA5BCF754D22551
:10228000A92AC6AAAEAAABEAAABAAAAEEAAAEAAA3A
:10229000AE6CB642A6239354DA7B9F532F5DE79C26
:1022A000EB7739E53DDD552E57A9AC72369D4E6F63
:1022B0009574CE8EE5FD3BAF565EADBC5A79B5F256
:1022C000EF7C7297AF5CA5AE4A39DAEC52393732FF
:1022D00063B2DE7BEF4FFA93FEA43FE9BDF74C9665
:1022E0002E8CABF6E7885CCACBF6B6BC26D2449AF5
:1022F000481369225B5EB63F47A51ADB8E4AA59854
:10230000548AAA1CD329A6534CA7984E319D622A01
:1023100045748A48728D371C0FE1392EBB0D55DB91
:10232000ED76BBDD6EB7DBED763B86D23BE73C005E
:102330000000000000010F00000000020F0000007C
:10234000000F000000010005190000010008000056
:1023500000000005000001008208000000000005E8
:10236000000001007D0D00040100000519030000BC
:10237000780800000000000500000100730800005C
:1023800000000005000001006E08000000000005CC
:1023900000000100690D0002000000110F000001A3
:1023A000000300000000000500000200000500001E
:1023B00002000005000001006405000002000005A5
:1023C000000001005F05000002000005000002009F
:1023D000000500000100500500000200000D000291
:1023E00000004B1200000000000C0000000000087C
:1023F0000B000202020000090400000102020000BA
:10240000052400100105240101010424020605240D
:102410000600010705810310004009040100020ABB
:10242000000000070502024000000705830240008B
:10243000000403090412010002EF020140412336A7
:102440008000010102030141726475696E6F204CC6
:102450004C43006D6963726F636164650000EE0058
:1024600001FFEE010109EA020106EE010008ED0795
:1024700001FBE70301F7E80601FADD0801FEEE09BA
:1024800001FFEE0901FFEE0901FFEE0901FFEE0970
:1024900001FFEE090103ED0A0118F10B0109EE0538
:1024A0000109EE0C0107EE0500FEEE1601FEEE1727
:1024B0000107EE1801FEEE16010EF80D0106EC0EF6
:1024C0000105EC0F0109EC100109EC110106EC12F9
:1024D0000109ED150105EC14010FEC13010DF10BD1
:1024E00000FFF80D00FFEC0E00FCEC0F0000EC10FC
:1024F0000008EC1100FBEC120008ED150000EC14D4
:102500000009EC13000CED19000CED1A0003F31B8D
:102510000102F51C0103EF1D01FFF31E01FDF61F73
:1025200001FEF5200100007F0000007F0000007F19
:102530000000007F0000007F0000007F00FEFE27FB
:1025400000FEF52800FEF52900FEF52A00FEFE2714
:1025500001FEF528010000290000002A0000002BE0
:102560000000002C0000002D0002E1000102E1004B
:10257000010BE1010102E1000108E0040108E102B0
:102580000109E0030113D60501F8DF0601FBDF0AAC
:1025900001F8DD0701FADB0B01FCDF0801FBDF09B5
:1025A000010BE00C0119E10D0102E1000102E10063
:1025B0000102E1000102E1000102E1000102E1008B
:1025C0000102E100010FE00E010AE00F010AE00F35
:1025D000010BE0100106E0110104E0120108E01413
:1025E0000104E0120114E013010DE10D0005E00EFD
:1025F0000008E00F0008E00F000CE010000CE011F4
:102600000006E012000CE0140006E012000AE013DD
:10261000000DE215000DE4160004E5170109ED18A0
:10262000010DD801010DD8010118D801010DD80103
:102630000116D8010119DA010118D801011EDC01C7
:10264000010BD801010CD801010CD801010BD801F4
:10265000010BD801010BD801010ED8010119D801D5
:10266000010DD801010DD801010DD801010DD801CE
:10267000010DD801010DD801010DD801010FD801BC
:10268000010CD801010CD801010CD801010CD801B2
:10269000010CD801010CD801010CD8010115D80199
:1026A000010FD801000BD801000FD801000FD8018D
:1026B000000FD801000FD801000FD801000FD8017A
:1026C000000FD801000FD8010014DA010014DC015A
:1026D0000015DD010119E7010119EA01011FEE01F1
:1026E00001FFEE000005EE010007EA0200FEEE0128
:1026F0000101ED07000AE7030009E806000ADD080A
:1027000000FFEE0900FFEE0900FFEE0900FFEE09F1
:1027100000FFEE0900FFEE090000ED0A0000F10BDA
:102720000007EE050008EE0C0009EE050101EE16AB
:102730000005EE170005EE1800FDEE1601FFF80D7E
:1027400000FFEC0E00FCEC0F0000EC100008EC1198
:1027500000FBEC120008ED150000EC1400FFEC1378
:102760000000007F0000007F0000007F0000007F6D
:102770000000007F0000007F0000007F0000007F5D
:102780000000007F0000007F00FFED1900FFED1A40
:1027900000FFF31B00FFF51C00FFEF1D00FBF31E05
:1027A00000F8F61F00F8F52000F4F12100F6F02201
:1027B00000F6ED2300F6E82400F6E22500F6E22616
:1027C0000009E1000009E1000000E1010009E10069
:1027D0000000E0040000E1020000E00300F7D6057D
:1027E0000007DF060009DF0A0009DD070007DB0B31
:1027F0000007DF080009DF09000AE00C0000E10D16
:102800000009E1000009E1000009E1000009E10020
:102810000009E1000009E1000009E1000005E00E07
:102820000008E00F0008E00F000CE010000CE011C1
:102830000006E012000CE0140006E0120000E013B5
:102840000000007F0000007F0000007F0000007F8C
:102850000000007F0000007F0000007F0000007F7C
:102860000000007F0000007F0000E2150000E41679
:102870000002E51700FEED18000ED900000ED90089
:102880000003D900000ED9000005D9000002DB00CA
:102890000003D90000FDDD000010D900000FD900B1
:1028A000000FD9000010D9000010D9000010D90085
:1028B000000CD9000002D900000ED900000ED9008A
:1028C000000ED900000ED900000ED900000ED9006C
:1028D000000ED900000BD900000FD900000FD9005D
:1028E000000FD900000FD900000FD900000FD90048
:1028F000000FD9000005D9000000007F0000007F14
:102900000000007F0000007F0000007F0000007FCB
:102910000000007F0000007F0000007F0000007FBB
:102920000007DB000007DD000006DE000002E80013
:102930000002EB0000FCEF000000007F0000007FC1
:1029400000FFEB000007EB000007EA000000007F3B
:102950000000007F0007DC000000462111241FBE9C
:10296000CFEFDAE0DEBFCDBF12E0A0E0B1E0EAECED
:10297000F1E602C005900D92A437B107D9F727E020
:10298000A4E7B2E001C01D92A634B207E1F714E15A
:10299000CEEAD4E104C02197FE010E94DD30CD3A99
:1029A000D107C9F70E9475210C94E3300C94000004
:1029B0009C01480F592F511D4115510541F1803897
:1029C00091052CF54138510514F040E850E0421BC8
:1029D000CB018770992791E001C0990F8A95EAF79A
:1029E000FB0183E0F595E7958A95E1F7F695FE2FD3
:1029F000EE27F795E795E20FF31FE854FD4F41509E
:102A000030F08191DF011197892B8C93F8CF0895D5
:102A1000E8EBF2E080E0A0E0B8E000800EBC8111BD
:102A2000012C1197A0FDFDCF0192B9F70DB40895C7
:102A3000FC018091B702882311F13FB7F89482E03E
:102A40008093E9002091F200822F90E01816190679
:102A500014F481E090E0882339F0289844E640930C
:102A6000B6024091F1004083222339F02091F20018
:102A7000211103C02BE62093E8003FBF08958FEF9C
:102A80009FEF08952FB7F89483E08093E900909129
:102A9000E800892F807295FF04C09091F20080E4D5
:102AA000891B2FBF08958091AE0281110DC082E075
:102AB0008093AA0284E08093AB021092AD02109240
:102AC000AC0281E08093AE028AEA92E00895CF934F
:102AD000DF931F92CDB7DEB76983DC01ED91FC91E6
:102AE0000280F381E02D41E050E0BE016F5F7F4F37
:102AF00009950F90DF91CF91089583E08093E900CD
:102B00008091F200882319F08AE38093E800089509
:102B10000E94421590E00895CF93DF931F92CDB7A6
:102B2000DEB7FC018485958597FD08C02FEF3FEF48
:102B3000358724870F90DF91CF910895CE010196BC
:102B40000E941815019719F4898190E0F3CF8FEF57
:102B50009FEFF0CF0F931F93CF93DF931F92CDB7CB
:102B6000DEB78C01FC018485958597FF0BC0CE01F3
:102B700001960E941815019771F4898190E0F8017F
:102B800095878487F801848595850F90DF91CF9193
:102B90001F910F9108958FEF9FEFF1CFFC01848576
:102BA000958597FD0BC09FB7F89482E08093E9006C
:102BB0008091F2009FBF90E0019608959FB7F8942E
:102BC00082E08093E9008091F2009FBF90E0089539
:102BD0004091A4025091A5022091A2023091A3023B
:102BE00042175307B4F49091E8009570E1F3909187
:102BF000E80092FD19C08093F1008091A4029091A9
:102C0000A50201968F739927892B19F48EEF809373
:102C1000E8008091A4029091A50201969093A502EC
:102C20008093A40281E0089580E00895EF92FF92DE
:102C30000F931F93CF93DF93F82E192FE62E042FB7
:102C400081E0860F880F0E94E81583E00E94E81556
:102C5000CF2DD12FEC0EFD2EF11CCE15DF05B9F0D6
:102C600007FF13C0FE0184910E94E815182F80E031
:102C70000E94E815812321968111EFCFDF91CF913A
:102C80001F910F91FF90EF9008958881EDCF81E023
:102C9000F5CFDF92EF92FF920F931F93CF93DF93C5
:102CA000D82E8A01EB017B01E40EF51ECE15DF055F
:102CB00059F0D7FE12C0FE0184910E94E8152196BA
:102CC0008111F4CF0FEF1FEFC801DF91CF911F915A
:102CD0000F91FF90EF90DF9008958881EECF0F93D2
:102CE0001F93CF93DF931F92CDB7DEB782E0898326
:102CF00042E450E06FEE73E280E80E9449160E94C1
:102D00005315DC0112960D911C910115110589F0E6
:102D1000D801ED91FC910280F381E02DBE016F5F3F
:102D20007F4FC801099597FD04C0F8010085118502
:102D3000ECCF89810F90DF91CF911F910F91089572
:102D4000615030F02091F100FC0120830196F8CF12
:102D5000289884E68093B6020895FC010E944817E3
:102D6000319728F068517C4F8F4F9F4FF9CFAB01BF
:102D7000FC010E944817641775078E079F07C8F368
:102D8000089585E090E00C94AD168F929F92AF92DB
:102D9000BF92CF92DF92EF92FF920F931F93CF9348
:102DA000DF936C017B018A0180912D01882309F456
:102DB0005AC08091B702882309F455C08091A902B6
:102DC00080FF05C08091E00082608093E000E80110
:102DD000B12C8AEFA82E93E0892E2AE3922E209719
:102DE00011F4BB20C9F10E944215811108C0AA94B8
:102DF000AA20C9F181E090E00E94AD16F0CF8C17B7
:102E00001D0611F00CF08C2F9FB7F8948092E9000A
:102E10002091E80025FD02C09FBFE1CF282F30E0C0
:102E2000C21BD30BF701815020F041914093F10078
:102E3000FACFE20EF31EBB2021F09092E800B12CF5
:102E4000EBCF8091E80085FDE7CF9092E800BB24AE
:102E5000B394209709F3F3CF5D9884E68093A8029A
:102E6000101611063CF081E090E0F6019383828316
:102E700010E000E0C801DF91CF911F910F91FF900A
:102E8000EF90DF90CF90BF90AF909F908F9008957C
:102E9000AEE7B2E02FB7F8947D918D919C9166B525
:102EA0002FBFA89B05C06F3F18F47F5F8F4F9F4FC8
:102EB00022E0660F771F881F991F2A95D1F7089582
:102EC0008FB18095807F669B88601C9B846008958D
:102ED00090919102982329F490919202982381E095
:102EE00009F480E0089580389105B8F460347105E4
:102EF000A0F490E121E061FD24E060FD220F62FD7D
:102F00002295687F969FD0011124A80FA854BD4F29
:102F10000C90022A40FF02260C92089590E0E8EB04
:102F2000F2E091119FEF8FEF919391939193919391
:102F30008150D0F708951F93CF93DF93DC0130E0E9
:102F400020E050E040E011E0C1E0D0E02617370774
:102F500091F114968C911497811115C014961C93BD
:102F6000149712968D919C911397ED91FC91119766
:102F7000E80FF91FE4911596EC93159701961396B7
:102F80009C938E93129714969C91149715968C91FE
:102F90001597892349F0FE01022E02C0EE0FFF1F94
:102FA0000A94E2F74E2B5F2B990F14969C9314977B
:102FB0002F5F3F4FCBCFCA01DF91CF911F91089573
:102FC0002F923F924F925F926F927F928F929F9239
:102FD000AF92BF92CF92DF92EF92FF920F931F9327
:102FE000CF93DF93CDB7DEB72F970FB6F894DEBF40
:102FF0000FBECDBF4C017B012C870D875A834983BF
:103000001C821B821D821E8268E070E0CE01019648
:103010000E949B171C019C012F5F3F4F3B872A8713
:1030200068E070E0CE0101960E949B178C0161E080
:1030300070E0CE0101960E949B172A853B85280DE2
:10304000391D37FDF5C030E8831691040CF0F0C04F
:103050000F5F1F4F98012E0D3F1D37FDE9C040E463
:10306000E416F1040CF0E4C06701F7FE04C0CC24C0
:10307000DD24CE18DF0857E0C522DD242701F7FE46
:1030800003C097E0490E511C73E0559447947A951C
:10309000E1F7F7FE09C021E0421A510828E030E0CC
:1030A000A9014C195D096A01980117FF02C0295F47
:1030B0003F4FA90163E0559547956A95E1F7588719
:1030C0004F8307701127012B21F04F5F5F4F588707
:1030D0004F830D857101011102C0F12CE12C89870C
:1030E00001E010E0B12CA12C88E090E09C012C19AB
:1030F0003D093F872E874F815885A416B5060CF0F1
:1031000097C066246394712C61E070E0CE01019653
:103110000E949B17892B21F452E0650E711CF4CF9D
:10312000B301CE0101960E949B1701963C0170E00D
:1031300060E06615770508F071C089858111102B54
:10314000A02FAA0F09F067C0A2014A0D5B1DCA019A
:1031500001960997D0F5C4018E0D9F1D8038910509
:10316000A0F5CA019695982F882797958795880D81
:10317000991D8E0D9F1D4F3F540709F454C0212FF8
:103180000C2C01C0220F0A94EAF7FC01E854FD4F11
:10319000B0810C85002371F12B2B2083C114D10445
:1031A000A1F04730510589F0212F30E00E8402C094
:1031B000359527950A94E2F7FC01E85CFC4F1081F5
:1031C0004C854423D1F0212B20830D85011118C09B
:1031D0002FEFE21AF20A4A855B85E416F506CCF079
:1031E0005FEFA51AB50A01E0F12CE12C6F5F7F4F6C
:1031F0001A2F9FCF20952B23D0CF20952123E4CFCA
:1032000081E0E81AF108F7FE04C09FEFA91AB90A95
:10321000710101E0EBCF0A2FA12FE8CF298531E022
:103220002327298768CFC114D10409F0BDCFCDCFA2
:103230002F960FB6F894DEBF0FBECDBFDF91CF91B2
:103240001F910F91FF90EF90DF90CF90BF90AF90C4
:103250009F908F907F906F905F904F903F902F90B6
:1032600008952F923F924F925F926F927F928F922A
:103270009F92AF92BF92CF92DF92EF92FF920F9305
:103280001F93CF93DF93482E362E24E0429FC00138
:1032900011249C012F5F3F4FEC012296483308F028
:1032A000B4C0DC01A758B74DFD015490F901E758AF
:1032B000F74DB490FE01E758F74DD490FD013396D9
:1032C000E49151E0E13009F050E0752E4E3208F003
:1032D000A1C0AC014F53584DFA016490F901EF536E
:1032E000F84DC490FE01EF53F84D1491FA01339656
:1032F000E49141E0E13009F040E0A42E8F51994D76
:10330000FC018490F901EF51F94DE490CF51D94D72
:10331000FE01C491FC013396E491CF3751F1222490
:103320002394E13009F0212CD0E00E2C000CFF0892
:10333000E30CF11C37FCFA94082C000C9908840C5F
:10334000911C47FC9A94CC0FDD1FFE01EA5FFD4FF4
:1033500040815181022D20E0B701C4010E94E01795
:10336000C655DE4F4881598121E0B701C4010E9452
:10337000E0171F37D1F0E12FF0E0EE0FFF1FE85804
:10338000FE4F408151816C2DCC0C770B630D711D6C
:1033900037FC7A95862D660C990B0A2D21E0840D59
:1033A000911D47FC9A950E94E017FFE7DF16D1F0C8
:1033B000ED2DF0E0EE0FFF1FEC58FE4F40815181E4
:1033C0006B2DBB0C770B630D711D37FC7A95852D2A
:1033D000550C990B072D21E0840D911D47FC9A9502
:1033E0000E94E017DF91CF911F910F91FF90EF9016
:1033F000DF90CF90BF90AF909F908F907F906F9015
:103400005F904F903F902F900895512CB12C712CCC
:103410004FE7D42EA12C1FE7C12C612C6FCF2F9228
:103420003F924F925F926F927F928F929F92AF9254
:10343000BF92CF92DF92EF92FF920F931F93CF93A1
:10344000DF93482E362E24E0429FC00111249C01B8
:103450002F5F3F4FEC012296403308F0B4C0DC01EF
:10346000AF5DB94DFD015490F901EF5DF94DB49098
:10347000FE01EF5DF94DD490FD013396E49151E0EA
:10348000E13009F050E0752E4E3208F0A1C0AC01D9
:1034900047595A4DFA016490F901E759FA4DC49021
:1034A000FE01E759FA4D1491FA013396E49141E097
:1034B000E13009F040E0A42E835A9B4DFC0184903A
:1034C000F901E35AFB4DE490C35ADB4DFE01C49170
:1034D000FC013396E491CF3751F122242394E1305B
:1034E00009F0212CD0E00E2C000CFF08E30CF11C9D
:1034F00037FCFA94082C000C9908840C911C47FCAA
:103500009A94CC0FDD1FFE01EA5FFD4F408151818F
:10351000022D20E0B701C4010E94E017C655DE4F1E
:103520004881598121E0B701C4010E94E0171F378B
:10353000D1F0E12FF0E0EE0FFF1FE858FE4F408181
:1035400051816C2DCC0C770B630D711D37FC7A9576
:10355000862D660C990B0A2D21E0840D911D47FCE8
:103560009A950E94E017FFE7DF16D1F0ED2DF0E00D
:10357000EE0FFF1FEC58FE4F408151816B2DBB0CAD
:10358000770B630D711D37FC7A95852D550C990BC2
:10359000072D21E0840D911D47FC9A950E94E017AC
:1035A000DF91CF911F910F91FF90EF90DF90CF901F
:1035B000BF90AF909F908F907F906F905F904F9053
:1035C0003F902F900895512CB12C712C4FE7D42EA1
:1035D000A12C1FE7C12C612C6FCFFC011082089534
:1035E000CF93DF93FC01968D9E3121F480E0DF9133
:1035F000CF910895DB018C91DF01A90FB11D8C9350
:10360000A1E0A90FA68FAE3189F3EA018881AE0F40
:10361000BF2FB11D8C939E5F968F81E0E8CFCF9333
:10362000DF93EC019E8D80E09E3189F0FE01E90F71
:10363000F11DEC17FD0729F0DF018E918083FD015C
:10364000F8CFDB018C9180839F5F968F81E0DF91C3
:10365000CF910895FC01968D9E3151F0DB018C9144
:10366000DF01A90FB11D8C939F5F968F81E00895B4
:1036700080E00895CF93DF93FC01868D8E3121F495
:1036800080E0DF91CF910895DB019C91DF01A80FCD
:10369000B11D9C93A1E0A80FA68FAE3189F3EA017A
:1036A0009881AE0FBF2FB11D9C93A2E0A80FA68FEB
:1036B000AE3131F3E9019881AE0FBF2FB11D9C935C
:1036C0008D5F868F81E0DDCF8550893098F4E82FBB
:1036D000F0E0E359F44E0C94DD307D1B7D1B7D1B27
:1036E0007C1B7C1B761B761B781B781B84E0089563
:1036F00085E0089589E0089583E00895CF93DF93EE
:1037000000D01F92CDB7DEB7663041F0673059F177
:103710000F900F900F90DF91CF9108958330A8F014
:103720008630B0F78EE08B8383E08A8319829E0116
:103730002D5F3F4FAE014E5F5F4FBE016F5F7F4F0A
:1037400088E097E00E943A1BE3CF83E08A831982E6
:10375000AE014E5F5F4FBE016F5F7F4F88E097E025
:103760000E94F01AD5CF833020F0863088F68EE0A4
:1037700001C082E08983BE016F5F7F4F88E097E0E0
:103780000E942A1BC5CF0F931F93061B170B17FF11
:1037900003C01195019511094130C9F4E22FF0E001
:1037A0009AE2899FE00DF11D1124EF5FF04E249104
:1037B000849130E035952795359527952017310769
:1037C000A4F0837009F48FEF1F910F910895853055
:1037D00039F0045211090730110538F483E0F4CFB1
:1037E0000F51110905301105C8F380E0EDCF0F939B
:1037F000CF9388E00E946817811105C084E00E9481
:103800006817882339F08091A10280939D0286E099
:103810008093A1020E948E1700E021E04EEF5DE14F
:1038200060E170E080E290E00E94E01780918F02FA
:103830009091900264E270E00E94C930823191055B
:1038400078F4CCE1099708F0CDE11092930410923E
:10385000940410929504109296041092970404C058
:10386000CEE14B9708F0CFE16C2F70E041E084E3AC
:1038700090E00E947317C0FD06C085EA809365043E
:1038800085E980936604CF910F9108950F9300E02E
:1038900020E04DEB51E263E070E090E080E00E94B8
:1038A000E01721E047E851E263E070E090E080E05B
:1038B0000E94E0170F9108950F931F93CF93DF930A
:1038C000C2E3D0E018E400E8402F411BBE01812F85
:1038D00090E00E94D81484E1C833D1050CF48CEE3A
:1038E000180F2296C034D10579F700E020E04AE0B5
:1038F00052E267E070E080E190E00E94E01721E092
:103900004DED51E267E070E080E190E00E94E01749
:1039100020E040EE57E163E170E089E590E00E942D
:10392000E01721E044E857E163E170E089E590E0C9
:103930000E94E017DF91CF911F910F910895FF92A0
:103940000F931F93CF93DF9340E86FE270E090E016
:1039500080E00E94D814C1E3D0E08E0101701127ED
:1039600041E0BE01C8010E9473170E5F1F4F01386E
:103970001105B4F32196CA33D10579F780919A02E3
:103980008823C1F0C0911601D0911701D195C1953E
:10399000D10900E020E04DED56E170E060E0CE019D
:1039A0000E94E01721E041EC56E170E060E0CE01BA
:1039B0000E94E01780910101882359F1C0918B0288
:1039C0000C2E000CDD0B00E021E042EE56E16EEF24
:1039D0007FEFCE010E94E01721E042EE56E16EEF4C
:1039E0007FEFCE01C0960E94E01721E042EE56E143
:1039F0006EEF7FEFCE01805A9F4F0E94E01721E0CB
:103A000042EE56E16EEF7FEFCE0180579F4F0E944E
:103A1000E01780918F02909190026CE070E00E941C
:103A2000C930892B31F480917B0291E08927809302
:103A30007B0280911B018531A8F06AE00E94BD30B5
:103A4000F82ED0E0C0E010E0F11681F000E021E0B7
:103A50004BEB56E16BE370E0CE010E94E0171F5F75
:103A60002496F2CF90917B029111E7CF8091990239
:103A7000813001F580910B01853120F490917B021A
:103A80009923C1F06AE00E94BD30C1E8D0E094E023
:103A9000899FC019D1091124C138D10559F001E01D
:103AA00021E04BEB56E16BE370E0CE010E94E017A2
:103AB0002496F2CFDF91CF911F910F91FF9008953F
:103AC0000F931F93CF93DF9388E00E946817C091F4
:103AD000A1028823A1F0CC3021F41092A002109210
:103AE0009F0286E297E00E94ED1AC0939D0286E055
:103AF0008093A102DF91CF911F910F910895C23061
:103B000009F490C0F0F4CC2309F45FC0C13009F48B
:103B100067C080918F029091900265E070E00E94F2
:103B2000C930892B39F780919602882319F3815087
:103B3000809396028111DECF8091A10280939D0235
:103B4000D6CFCC3009F473C0C13109F479C0C93083
:103B500001F70E949F1C80918F029091900265E076
:103B600070E00E94C930892B71F4E0912607EE23A2
:103B700009F47CC0E150E0932607F0E0E85FF84FDD
:103B800080818093020180911501882379F09091C2
:103B90008B02890F803D0CF471C080938B02809161
:103BA0008B0218161CF4805380938B0280910301C2
:103BB00090910401803891050CF0ABCF4091020147
:103BC000609108010E940F1AA4CF00E021E04BE2AF
:103BD0005DE170E060E090E080E00E94E01799CF46
:103BE00000E021E04FE65BE170E060E090E080E023
:103BF0000E94E01780919602893008F48ACFD0E0C5
:103C0000C0E008E210E040E0B801CE010E94731766
:103C10000F5F1F4F00341105B1F72196C038D10551
:103C200081F777CF00E021E04AEE58E1D2CF00E003
:103C300021E045E858E16AE170E082E290E0CDCF12
:103C40000E945C1C0E94461C00E020E042E558E116
:103C500063E170E08DE590E00E94E01721E04DE027
:103C600058E163E170E08DE590E0B7CF1092150167
:103C7000C0939D0286E08093A10285CF10928B02B3
:103C80008ECFCF92DF92EF92FF926B017C01C11435
:103C9000D104E104F10441F00E940230A701960131
:103CA0000E945A306B017C01C701B601FF90EF9072
:103CB000DF90CF9008951F920F920FB60F921124AC
:103CC0008F939F938091E1009091E100937F909377
:103CD000E10083FF0FC01092E90091E09093EB00A8
:103CE0001092EC0092E39093ED001092B70298E0EE
:103CF0009093F00082FF22C093E09093E9009091AE
:103D0000F200992319F09AE39093E8009091A802A9
:103D1000992341F09091A80291509093A80291119B
:103D200001C05D9A9091B602992341F09091B6023C
:103D300091509093B602911101C0289A84FF18C047
:103D40008091E2008E7E81608093E2008091E100AC
:103D50008F7E8093E1008091A9028E7E80618093A6
:103D6000A9029F918F910F900FBE0F901F901895F1
:103D700080FFF7CF8091E2008E7E80618093E20029
:103D80008091E1008E7E8093E1008091A9028E7E79
:103D90008160E5CF1F920F920FB60F921124CF9240
:103DA000DF92EF92FF920F931F932F933F934F93C6
:103DB0005F936F937F938F939F93AF93BF93EF9393
:103DC000FF93CF93DF93CDB7DEB76C97DEBFCDBF48
:103DD0001092E9008091E80083FF25C068E0CE01E1
:103DE00045960E94A01682EF8093E8008D8987FF98
:103DF00039C09091E80090FFFCCF982F907609F0A1
:103E000034C19E894F89588D2F89F88C911131C00A
:103E1000803861F58091A7028093F1001092F10043
:103E20008EEF8093E8006C960FB6F894DEBF0FBE5D
:103E3000CDBFDF91CF91FF91EF91BF91AF919F9156
:103E40008F917F916F915F914F913F912F911F9132
:103E50000F91FF90EF90DF90CF900F900FBE0F90DB
:103E60001F9018959EEF9093E800C7CF1092F10035
:103E7000D5CF913059F48111D3CF4130510581F61E
:103E80008091A7028D7F8093A702CACF933049F417
:103E90008111C6CF4130510519F68091A702826089
:103EA000F2CF953041F48091E80080FFFCCF20688C
:103EB0002093E300B5CF963009F0A9C00B8D1C8D7F
:103EC00022E01092E9001092A5021092A402F212D0
:103ED0002EC01092A3021092A2020E946F161F829F
:103EE00099E09983FA8291E09E8390EA98879AEF0D
:103EF00099872091A4023091A502275F3F4F3C8310
:103F00002B838D831092E9001092A5021092A402D7
:103F10001093A3020093A20249E050E0BE016F5F3C
:103F20007F4F80E00E9449160E946F1679CF109350
:103F3000A3020093A2020E945315DC0112960D9178
:103F40001C910115110509F451C1D801ED91FC91A5
:103F50000480F581E02DBE016B5E7F4FC80109959D
:103F6000009709F03EC1F80100851185EACFF3E022
:103F7000FF120EC08F89882309F440C0823061F49B
:103F800040E869E083E594E20E941616811148CF6B
:103F900081E28093EB0047CF813029F440E86BE069
:103FA00087E494E2F1CF833099F70E945315DC0146
:103FB0001296ED90FC908E010F5F1F4F6801E11487
:103FC000F10479F0D701ED91FC910680F781E02DA5
:103FD000B801C7010995080F111DF701E084F184AC
:103FE000EECFD8011C92F60101900020E9F731973D
:103FF000BF016C197D0940E0C601C6CF61E374E2E0
:10400000FB01449150E080E80E94491609CF9730A7
:1040100009F4BECF983021F481E08093F10000CF05
:10402000993009F0FDCE837009F0B2CFEEE6F1E0F1
:1040300081E031E096E32191222371F08093E90041
:104040003093EB00DF0111972C912093EC009093BB
:10405000ED008F5F873079F78EE78093EA0010924A
:10406000EA008F898093B702DBCE8B8D9C8D1092F6
:10407000E9001092A5021092A4029093A3028093EB
:10408000A202898D811192C08E899D89913A49F44D
:10409000813209F07DCF47E050E066E271E080E0D8
:1040A000B3CF913209F074CF833269F48F89988D40
:1040B000B0E0A0E08093220190932301A09324011B
:1040C000B0932501ADCE803269F48091E80082FF83
:1040D000FCCF67E086E291E00E94A0168BEF809310
:1040E000E8009ECE823209F09BCE8F8980932D010D
:1040F000EEEFFFE7859194918B3F9C4D51F1E0E00D
:10410000F8E08091260190912701A0912801B091BB
:104110002901803B9440A105B105F1F480912D0166
:1041200080FD1AC0EE3F8AE0F80789F587E797E738
:1041300091838083809160008093A60288E19BE058
:104140000FB6F894A895809360000FBE909360001E
:1041500067CEEEEFFAE0D5CF808191818737974720
:1041600009F05ECEA8958091600088618093600020
:104170008091A60280936000EE3F2AE0F20789F06A
:104180008091FE0A9091FF0A9183808349CE8081BD
:1041900091818737980751F29093FF0A8093FE0A26
:1041A000C5CF1092FF0A1092FE0A3ACE0E94531514
:1041B000DC0112960D911C910115110509F4E8CE50
:1041C000D801ED91FC910190F081E02DBE016B5E74
:1041D0007F4FC8010995811123CEF8010085118513
:1041E000EBCF181619060CF41BCED2CEF1E0FF125D
:1041F000BECE65E374E204CF0F920FB68F939F9308
:10420000EF93FF9380917D028D5F8D3708F08D577E
:1042100080937D02E4E8F2E080818E4F808391817B
:104220009F4F918382818F4F828383818F4F8383BE
:10423000EEE7F2E080818F5F808381818F4F818301
:1042400082818F4F828383818F4F83838FB18F6071
:1042500066991C9B88278F3681F480917C02981B7D
:10426000963068F0E0E0F8E087E78083818388E1BA
:1042700080936000F0936000FFCF90937C02FF91E9
:10428000EF919F918F910FBE0F9018951092BB06E2
:104290001092BA0688EE93E0A0E0B0E08093BC06EE
:1042A0009093BD06A093BE06B093BF0686E692E04B
:1042B0009093B9068093B8068FEF9FEF9093C50651
:1042C0008093C406E7E2F7E0119287E0E534F8074F
:1042D000D9F710924507E8E0F7E0119287E0E6325F
:1042E000F807D9F7109226070895CDB7DEB7A39740
:1042F000DEBFCDBF789483E084BD83E085BD81E0DF
:1043000080936E00E1E8F0E083E08083E0E881E004
:104310008083E1E983E08083E0E981E08083E1EC70
:1043200087E08083E3EC81E08083E0EC82E08083BF
:10433000E2EC81E08083EAE787E080838068808325
:104340001092B7021092A7021092A9028091D70092
:1043500081608093D70080EA8093D80089B580611E
:1043600089BD89B5826089BD09B400FEFDCF81E0B9
:1043700090E00E94AD168091D8008F7C8061809380
:10438000D8008091E000807F8093E0008091E10080
:104390008E7E8093E1008DE08093E200559A209A12
:1043A00081EC80937C0081E185B987E684B984E360
:1043B0008BB98FE38AB9769A6E9880EF81BB10BA79
:1043C00080E58CBD81E08DBD0E94C116599A0E9486
:1043D000C1165C98EDEFFFE185918EBD00000DB434
:1043E00007FEFDCFEA30C1F75C9A81E88093640054
:1043F00081E0809365000E946017803111F42E984F
:10440000FFCF8BE280930001809164008E7F8093C8
:10441000640080917A00806480937A0080917A00B1
:1044200086FDFCCF00917800109179000E9448171A
:10443000AB01BC01C801B0E0A0E0DC0199278827EE
:104440008C019D01040F151F261F371FC901B801DC
:10445000209164002160209364006115710581053D
:10446000910511F00E9451308091A10280939D022C
:1044700083E18093A10265E0A62EB12C7DE5272E75
:10448000312CE0ED8E2E99249A948091820288231B
:1044900049F01092820280E090E0892BB1F30E94F3
:1044A0000000E9CF9091840280918302192F181B9C
:1044B000812F20910001121740F48F5F821758F767
:1044C00081E083BF889513BEE6CF81E080938202AE
:1044D00090938302EFE8F2E08081918101968083DE
:1044E000918380919202809391020E946017F82E2E
:1044F00080939202E091A102E53120F5F0E0ED57C2
:10450000FD4D0C94DD30A522B722B72223233F2393
:104510005225BC22AB25FA2DB722A222A222B72215
:10452000512E18250025A222B722672E98229E22FE
:1045300083E180939D0284E18093A1020E94F71B96
:104540000E9408150E940815A6CF80E1E2E3F1E081
:10455000A2E1B1E001900D928A95E1F780E1E2E4F9
:10456000F1E0A2E0B1E001900D928A95E1F70E949E
:104570008E170E94601DE6CF40919F025091A002CD
:1045800086E0849F9001859F300D1124F901E15D43
:10459000FC4DE49180939D02E093A102F901E05D5E
:1045A000FC4D649160939602F901EF5CFC4D84919F
:1045B000982F833008F090E090939702982F8230E4
:1045C00008F492E0925090939802F901EE5CFC4D51
:1045D000811124C010929C0210929B02E491E093FE
:1045E0009902F901ED5CFC4DE49181E0E13009F0C4
:1045F00080E080939A0281E0611101C080E08093A5
:104600009502F901EC5CFC4DE491E0939E024F5F52
:104610005F4F5093A00240939F0294CF1092990253
:1046200080FF07C0E491F0E0F0939C02E0939B02CE
:10463000D8CFE49180E890E08E1B910990939C0282
:1046400080939B02CECF85E497E00E94ED1A86E22C
:1046500097E00E94ED1A1092940280E1E2E4F1E00A
:10466000A2E0B1E001900D928A95E1F783E080939A
:104670009D0284E08093A1021092010163CF0E9409
:104680008E1788E00E946817882351F086E297E031
:104690000E94ED1A84E080939D0286E00C94632EC4
:1046A00040E864E370E090E080E00E94D81406E304
:1046B00010E0F12CE12C41E0B801C7010E94731712
:1046C00022E0E20EF11C32E8E316F104A1F70E5FDE
:1046D0001F4F0034110569F710919402809126074D
:1046E000811160C0173008F05DC0E12FF0E0E5589F
:1046F000FC4D0C94DD308223582469247A249424C0
:104700007A24B02489E28983BE016F5F7F4F88E0FD
:1047100097E00E942A1B02E0E02EF12C85E2C82ED1
:1047200098E2D92E26E2722E32E2632E43E2542E14
:1047300004E257E2452ECB8ADA8679829E012D5E0D
:104740003F4FAE01465F5F4FBE016F5F7F4F88E016
:1047500097E00E943A1B6B8A5A8609839E012D5E60
:104760003F4FAE01465F5F4FBE016F5F7F4F88E0F6
:1047700097E00E943A1B0A874982AE01465F5F4F6D
:10478000BE016F5F7F4F88E097E00E94F01AEA94C5
:10479000EF2809F089C085E080930501909204011B
:1047A0008092030180918F0290919002B5010E9446
:1047B000C930892B49F52091030130910401809182
:1047C0002607815080932607E82FF0E0E85FF84F36
:1047D00090819093020190910501290F311D97FD61
:1047E0003A95309304012093030181110DC010927A
:1047F00005011F5F10939402173030F084E080931E
:104800009D0286E08093A10200E020E047E153E2B0
:104810006DE270E08CE590E00E94E01721E045E554
:1048200052E264E070E087E590E00E94E01780913A
:1048300094028250843008F0DAC021E04CE352E266
:1048400063E170E086E490E00E94E01700E020E081
:104850004AE052E267E070E080E190E00E94E017F9
:1048600021E04DED51E267E070E080E190E00E94D0
:10487000E0174091020160910801809103010E94BC
:104880000F1A20E04DEB51E263E070E090E080E031
:104890000E94E01721E047E851E263E070E090E019
:1048A00080E00E94E0174ECEEE24E394F12C43CF3B
:1048B000A5E0EA2EF12C00E20983BE016F5F7F4F75
:1048C00088E097E00E942A1B51E0E51AF108A1F761
:1048D00069CFF9E0EF2EF12C00E20983BE016F5F92
:1048E0007F4F88E097E00E942A1B81E0E81AF108D8
:1048F000A1F758CF00E20983BE016F5F7F4F88E0C8
:1049000097E00E942A1B0983BE016F5F7F4F88E0FA
:1049100097E00E942A1B0983BE016F5F7F4F88E0EA
:1049200097E00E942A1B3ECF0BE20A87EAE2FE2EA6
:10493000F982AE01465F5F4FBE016F5F7F4F88E037
:1049400097E00E94F01AFA860983AE01465F5F4F36
:10495000BE016F5F7F4F88E097E00E94F01A22CF80
:1049600092E0E92EF12C2BE1C22E3EE1D32E4CE158
:10497000742E58E1652E69E1562E0AE17DE1472E3D
:10498000CB8ADA8679829E012D5E3F4FAE01465F6B
:104990005F4FBE016F5F7F4F88E097E00E943A1B38
:1049A0006B8A5A8609839E012D5E3F4FAE01465F9A
:1049B0005F4FBE016F5F7F4F88E097E00E943A1B18
:1049C0000A874982AE01465F5F4FBE016F5F7F4F2E
:1049D00088E097E00E94F01AEA94EF2821F48BEF28
:1049E00080930501DFCEEE24E394F12CC9CF00E0E3
:1049F00021E045E252E265E170E087E590E024CFF6
:104A000085E497E00E94ED1A86E297E00E94ED1A95
:104A10008FE080939D028EE08093A10282E38093D9
:104A200012018CE890E090930401809303018ACDF9
:104A30000E948E178EE080939D0286E08093A102F3
:104A400012E31093120186E38B8B87E38A878FE052
:104A500089839E012D5E3F4FAE01465F5F4FBE01D1
:104A60006F5F7F4F87E297E00E943A1B83E38B8B57
:104A700084E38A8785E389839E012D5E3F4FAE01E3
:104A8000465F5F4FBE016F5F7F4F87E297E00E94F6
:104A90003A1B1983BE016F5F7F4F87E297E00E9448
:104AA0002A1B50CD85E080939D0287E08093A10270
:104AB0008AE090E090931401809313011092170103
:104AC0001092160190919902913071F480911B011E
:104AD0008A3A18F4865F80931B0180911B018A3A01
:104AE00018F4865F80931B0120911B0180910B01BC
:104AF00087FD2CC080E2820F80931D01923041F52A
:104B00008AEA90E030E1E2E0F1E0DF011D923A95BF
:104B1000E9F7909304018093030187E380930801F0
:104B200081E080930E0180930F0180E491E0821B6D
:104B30009109813F910514F080EF90E080930B0183
:104B400080930D0181E080939302FCCC80EAD4CF66
:104B50008CE890E0D7CF0E948E170E949F1C909106
:104B6000950280914507992309F4B5C0909196026A
:104B70009111B1C08111AFC087E080939D0286E0A2
:104B80008093A10280919902813009F4B3C28230EE
:104B900009F485C489E0E2E5F1E0DE015396019075
:104BA0000D928A95E1F789E0EBE5F1E0DE011A96D6
:104BB00001900D928A95E1F789E0E4E6F1E0DE01EB
:104BC000119601900D928A95E1F780918F02909154
:104BD0009002B5010E94C930892B09F05EC0109285
:104BE0008E0210928D0280919502882339F0809177
:104BF0009602882319F0815080939602E091450730
:104C0000EE2309F439C5E150E0934507F0E0E95D92
:104C1000F84F808180931201E0912607EE2309F47A
:104C20002EC5E150E0932607F0E0E85FF84F808161
:104C300080930201D0909902DD2079F170901201E9
:104C4000E0901301F090140110928C026090020128
:104C50008BEF870D893070F40091030110910401EE
:104C6000872D0E94641B262D4D2DB7010E94C31B6A
:104C700080938E028BEF860D893078F4C09003010B
:104C8000D0900401862D0E94641B8701272D41E0EE
:104C9000B6010E94C31B80938D02209115011091D3
:104CA0009802F0909702222309F43CC580919B0260
:104CB00090919C024091160150911701622F022E93
:104CC000000C770B1111DEC4FF2009F405C5B2E01A
:104CD000FB12E0C4F6C4D0909902BFE06B2EB7E29D
:104CE0007B2EDD2081F000910301109104012091C1
:104CF000130130911401021B130B17FF03C0119510
:104D000001951109380181113DCF109215011091C3
:104D10001201F3FE7FC0183058F5153008F069C055
:104D2000112309F441C0123009F02CCF1F2D10724D
:104D30008F2D807311F4F7FE25CF80911E018F5FB8
:104D400080931E01853078F083E089831A86AE0156
:104D50004F5F5F4FBE01665F7F4F87E297E00E9423
:104D6000F01A10921E01112309F44DC085E024C0F1
:104D70001E3009F007CF10911F01F5FEA5C089E094
:104D8000111188E089838EE08A87AE014F5F5F4F03
:104D9000BE01665F7F4F87E297E00E94F01A81E0D4
:104DA000182710931F01EECE8F2D80729F2D9073C8
:104DB00039F4F7FC05C081E0898382E08A873AC133
:104DC000882339F081E0898384E08A8785E08B8BB2
:104DD00018C1F4FE06C081E0898384E08A8787E0F9
:104DE000F6CFF7FECFCE81E0898384E08A8786E024
:104DF000EECF82E08983BE016F5F7F4F87E297E04D
:104E00000E942A1BBFCE87E0F4FCD6CF86E0F7FCD9
:104E1000D3CFB8CE1230C9F020F08BEF810F8330A2
:104E200020F1F2FE61C01E30A8F5183008F04AC02B
:104E30001111A8CE8F2D80729F2D907399F5F7FCDC
:104E400031C081E089838EE0B9CF10921E0183E0EA
:104E500089831A86AE014F5F5F4FBE01665F7F4F49
:104E600087E297E00E94F01ADCCF10921E0182E0E8
:104E7000898383E08A871B8A9E012F5F3F4FAE01A3
:104E8000465F5F4FBE016D5E7F4F87E297E00E94F5
:104E90003A1BC7CF1E3009F46ECF1F3009F072CE17
:104EA00081E0C6C0882331F081E089838EE08A8763
:104EB00088E08DCFF4FE66CE81E089838EE08A871C
:104EC0008AE085CF8EE096CFF4FE06C08BE01123FA
:104ED00009F458CF8AE056CFF7FE61CF8DE0112359
:104EE00009F450CF8CE04ECF183030F01E3080F1F6
:104EF00083E01E3009F49CC01F3009F4CAC0D8F505
:104F0000111140CE81E0F4FCF2C0F5FE9EC0B1E587
:104F10006B16710410F4D11062C08EEF80931501EE
:104F200082E1898381E08A871B8A9E012F5F3F4F40
:104F3000AE01465F5F4FBE016D5E7F4F87E297E037
:104F40000E943A1B83E0898380E18A8781E13FCF19
:104F50008EE0898383E08A871B8A9E012F5F3F4F03
:104F6000AE01465F5F4FBE016D5E7F4F87E297E007
:104F70000E943A1BC1CF193119F01C3109F002CE41
:104F8000F5FEB1C025E66216710408F4ACC01091BC
:104F900020018EEF8093150111119FC08DE189834F
:104FA00088E18A8789E18B8B9E012F5F3F4FAE019D
:104FB000465F5F4FBE016D5E7F4F87E297E00E94C4
:104FC0003A1B8AE18983BE016F5F7F4F87E297E0DA
:104FD0000E942A1B81E0182710932001D3CDE8E31B
:104FE0006E16710410F08FEF99CFF4E26F16710412
:104FF000B0F08FEF8093150180E1898381E18A878A
:105000001B8A9E012F5F3F4FAE01465F5F4FBE017F
:105010006D5E7F4F87E297E00E943A1BB3CD0AE1B5
:105020006016710408F4AECD8FEF8093150180E116
:1050300089831A86AE014F5F5F4FBE01665F7F4F67
:1050400087E297E00E94F01A9DCDF6FE9BCD8091FD
:105050001601909117010D970CF494CD81E0809387
:10506000150183E0898386E18A871B8A9E012F5F71
:105070003F4FAE01465F5F4FBE016D5E7F4F87E2DF
:1050800097E00E943A1B83E1898384E18A8785E166
:105090009ECEF7FC05CFF5FE75CD15E661167104C1
:1050A00008F470CD81E0809320018EEF809315018C
:1050B0008BE189838EE18A878CE18B8B9E012F5F48
:1050C0003F4FAE01465F5F4FBE016D5E7F4F87E28F
:1050D00097E00E943A1B87E18DCE8BE189838EE1B8
:1050E0008A878CE160CF8EEF809315018FE18983F1
:1050F0008FE064CE809126078111A9C0C090030182
:10510000D0900401209113013091140110920501F7
:1051100080910201823009F40EC18E3009F456C12B
:10512000811195C0C21AD30AD7FE03C0D194C1948D
:10513000D108809112018F3009F46EC020F08751A0
:10514000893008F489C052E3C516D1040CF088C038
:1051500080918C02F12C81110CC060919E0270E054
:105160006B5F7F4F072E000C880B990B0E94411E2E
:10517000F62E62E070E080E090E00E94411E2B017C
:105180003C0164E070E080E090E00E94411E6F8F7F
:1051900078A389A39AA385E08F1508F075C0809144
:1051A0008A0281110BC06BE070E080E090E00E9409
:1051B000411E672B682B692B09F049C01EE1C116FF
:1051C000D1040CF0B2C083E0898386E18A871B8A10
:1051D0009E012F5F3F4FAE01465F5F4FBE016D5E88
:1051E0007F4F88E097E00E943A1B83E1898384E146
:1051F0008A8785E18B8B9E012F5F3F4FAE01465F13
:105200005F4FBE016D5E7F4F88E097E00E943A1BC2
:1052100081E0809305011BC031E1C316D10404F580
:1052200066E082E00E947E1B81E0898384E08A87B9
:1052300087E08B8B9E012F5F3F4FAE01465F5F4F34
:10524000BE016D5E7F4F88E097E00E943A1B10928E
:105250008C0210928A029ECC4FE4C416D10404F34F
:1052600080E1898382E18A871B8A9E012F5F3F4FFD
:10527000AE01465F5F4FBE016D5E7F4F88E097E0F5
:105280000E943A1B8FEFC5CF0091130110911401BA
:1052900060910301709104012091120141E08F2D72
:1052A0000E94C31B811109C00F8D18A129A13AA129
:1052B000012B022B032B09F072CFC301B2016A5FED
:1052C0007F4F8F4F9F4F8F2D0E947E1B23E0F21642
:1052D00031F12F1568F031E0F316B1F042E0F41629
:1052E00009F4A2CF81E0898384E08A8785E0A1CF99
:1052F00054E0F51671F085E0F812F4CF81E089836F
:105300008EE08A878CE095CFF98284E08A8786E0F8
:1053100090CF81E089838EE08A878AE08ACF81E01E
:1053200089838EE08A8788E084CF97E2C916D1040A
:105330000CF48DCF95CF80918C02F12C811107C098
:1053400063E070E080E090E00E94411EF62E62E093
:1053500070E080E090E00E94411E2B013C01009132
:1053600013011091140160910301709104012091C7
:10537000120141E08F2D0E94C31B882309F480C0D5
:10538000C301B2016A5F7F4F8F4F9F4F8F2D0E94E5
:105390007E1BA1E0FA16C1F0FA1688F0B2E0FB120B
:1053A00056CF87E08983FA86AE014F5F5F4FBE011B
:1053B000665F7F4F88E097E00E94F01A48CF85E053
:1053C000898382E08A87F0CF86E0FACF80918C02D1
:1053D000F3E07F2E811109C063E070E080E090E08F
:1053E0000E94411EA3E07A2E760E62E070E080E01B
:1053F00090E00E94411E6B017C010091130110910D
:10540000140160910301709104012091120141E0A7
:10541000872D0E94C31B882399F1C701B6016A5FDB
:105420007F4F8F4F9F4F872D0E947E1B10910F0142
:10543000E4E07E1659F0F5E07F16E9F003E0701223
:1054400015C089E0112329F088E003C08BE0111119
:105450008AE089838EE08A87AE014F5F5F4FBE018D
:10546000665F7F4F88E097E00E94F01A81E018277E
:1054700010930F01ECCE8DE0112359F38CE0E9CFAE
:1054800061E070E080E090E00E94411E672B682B95
:10549000692B09F0DCCE83E089831A8685CF809161
:1054A0002607811177CB109193021630B8F4133090
:1054B00008F095C0113091F1123009F453C081E029
:1054C0008093930280914507811164CB8091A10262
:1054D00080939D0286E08093A1025CCB163079F721
:1054E00005E010E07CE3E72EEDE3FE2EE982BE014D
:1054F0006F5F7F4F88E097E00E942A1BF982BE0110
:105500006F5F7F4F88E097E00E942A1B01501109CE
:1055100069F784E08093050187E021C063E070E0D3
:1055200080E090E00E94411E665F7F4DFB01649128
:105530006093080188E38983BE016F5F7F4F88E035
:1055400097E00E942A1B8CEF8093050186E990E08A
:105550009093040180930301809193028F5F809365
:10556000930218CB809103019091040120911301C3
:1055700030911401821B930B97FF03C09195819585
:105580009109209112012F3031F1203221F1223086
:1055900011F028E207C0209108012B31D1F3283205
:1055A000C1F328E128171906C4F41091890288E391
:1055B000111101C089E38983BE016F5F7F4F88E0CD
:1055C00097E00E942A1B81E01827109389028CEF34
:1055D00080930501DFCA2EE1E5CF83E0C0CF2091A3
:1055E0000801809112018F3079F0803269F08230A9
:1055F000D9F52B31C9F12832B9F185E090E023319A
:1056000029F090E080E002C089E090E04091130131
:1056100050911401840F951F90930401809303010E
:105620002B3119F08BE3283209F48AE38983BE0118
:105630006F5F7F4F88E097E00E942A1B143071F45F
:1056400080911B01909108019B3111F0983279F4FF
:105650008E3108F48EE18E5180931B01109205016A
:105660001F5F1093930296CA84E190E0CFCF8233FC
:1056700008F482E38253F0CF10921501CDCA109244
:105680000501D8CA1230D1F4813691052CF5A2E07B
:10569000FA1619F001E0F016E1F0809113019091F3
:1056A0001401861B970B9093140180931301461BE2
:1056B000570B509317014093160134C0F2E0FF12CC
:1056C00006C08136910544F4113019F0E6CF11304F
:1056D00009F78E3191050CF730918B02230F20933F
:1056E0008B02461B570B50931701409316014091B4
:1056F000030150910401460F571F5093040140933A
:105700000301860F971F90939C0280939B02203D7C
:1057100014F410928B0280918B0218161CF48053A3
:1057200080938B02C0909B02D0909C0200E01230CC
:1057300051F01130C1F4C0909B02D0909C0220E146
:10574000C20ED11C01E020E049E551E26EEF7FEF8F
:10575000C6010E94E01721E04FE051E26EEF7FEFBB
:10576000C6010E94E01732E0F31218C0C0909B02FD
:10577000D0909C0242E0C40ED11C01E020E04AE03F
:1057800052E267E070E0C6010E94E01721E04DEDB3
:1057900051E267E070E0C6010E94E0172091050128
:1057A000222361F08091030190910401820F911DE9
:1057B00027FD9A9590930401809303015091120163
:1057C0005F8F5090180140901301452F652D842D57
:1057D0000E943119809199028BA3882369F08091EE
:1057E0000301909104018038910534F44091020145
:1057F000609108010E940F1A80919D028D3039F44A
:1058000041E360910801809103010E940F1A123058
:1058100009F069C0C0909B02D0909C0291E1C90E32
:10582000D11C00E020E04FED50E26EEF7FEFC601AB
:105830000E94E01721E040E950E26EEF7FEFC601E1
:105840000E94E017B2E0FB1218C0C0909B02D090FB
:105850009C02E0E1CE0ED11C01E020E04DEB51E2D4
:1058600063E070E0C6010E94E01721E047E851E2E2
:1058700063E070E0C6010E94E017E0908D02F090B6
:105880008E02E1103CC0F11078C080911C018F5F46
:1058900080931C01863978F080911B0190E0209163
:1058A0001D0130E00396281739070CF4C9018093D5
:1058B0001B0110921C0180910C018F5F80930C01E1
:1058C000863908F4B3C080910B0190E020910D015E
:1058D00030E00396281739070CF4C90180930B01B7
:1058E00010920C01A3C0113009F0ACCFC0909B0204
:1058F000D0909C02A6E0CA1AD10801E093CF809113
:1059000002018550990BEAE0F0E0EC0FFD1FE80F73
:10591000F91FC090030120812C0D213808F020E0F0
:1059200001E010E00C0F1D1F800F911F6090080117
:10593000DC018C91680E712CC22ED12C00E020E08D
:1059400044E550E2B301C6010E94E01721E04DE0BA
:1059500050E2B301C6010E94E01780911B01E82FBD
:10596000EE19FF0B8E193A970CF480E080931B011F
:1059700010921C01FF2009F459C00F8D0550110B26
:10598000C801E1E0F0E0EC0FFD1FE00FF11FC08067
:105990005C0CC52CD12C23E130E02C0F3D1F820F75
:1059A000931FDC016C90460C512C00E020E044E594
:1059B00050E2B601C2010E94E01721E04DE050E242
:1059C000B601C2010E94E0171BA1113009F00EC1FF
:1059D00080910B01482F4F19550B8F194A305105F3
:1059E0000CF480E080930B0110920C01809126074B
:1059F00081111CC062E070E080E090E00E94411ED6
:105A000021E0672B682B692B09F020E020938C02A2
:105A100063E070E080E090E00E94411E21E0672B8F
:105A2000682B692B09F020E020938A0280912101E4
:105A3000811150C080911B0181114CC085E497E019
:105A40000E94ED1A8FE28C8F80E38D8F81E38E8F21
:105A50009E01245E3F4FAE01435E5F4FBE01625E1A
:105A60007F4F87E297E00E943A1B8CE28C8F8DE299
:105A70008D8F8EE28E8F9E01245E3F4FAE01435E7E
:105A80005F4FBE01625E7F4F87E297E00E943A1B44
:105A900081E080932101909193029230C8F48C8F21
:105AA000BE01645E7F4F88E097E00E940F1B04E117
:105AB00010E06FE0F62EFC8EBE01645E7F4F88E042
:105AC00097E00E940F1B01501109A9F710920501E0
:105AD000109215018091110181114CC080910B0130
