:100000000C94BD0D0C94E50D0C94E50D0C94E50DD0
:100010000C94E50D0C94E50D0C94E50D0C94E50D98
:100020000C94E50D0C94E50D0C940F1E0C947E1EA3
:100030000C94E50D0C94E50D0C94E50D0C94E50D78
:100040000C94E50D0C94E50D0C94E50D0C94E50D68
:100050000C94E50D0C94E50D0C94E50D0C94B0207A
:100060000C94E50D0C94E50D0C94E50D0C94E50D48
:100070000C94E50D0C94E50D0C94E50D0C94E50D38
:100080000C94FA200C94E50D0C94E50D0C94E50D00
:100090000C94E50D0C94E50D0C94E50D0C94E50D18
:1000A0000C94E50D0C94E50D0C94E50D526F636B0B
:1000B00020416E6420466C790050686172617073F3
:1000C00020526576656E676500467269656E646C80
:1000D0007920496E76616465720054686520466FC8
:1000E0007265737400466C6F6174696E6720497342
:1000F0006C616E647300476F74205370696B657335
:100100003F00417420546865204265616368005374
:10011000686970777265636B205261727200476F15
:100120006C64656E2041726368657300556E64652A
:100130007267726F756E64004669727374204375DE
:1001400073746F6D657273008F85738571547182DE
:10015000D4810981327101F1017133810681D10F9E
:1001600083038604820F0B8204820F0F028205A193
:100170000441A30F02A18204A181A103140F0283F1
:100180005483038409A541A283A1038303D403A15B
:1001900005188404820A81558C0581A1098105D73F
:1001A0008505820981A10C84058222B12204820C7A
:1001B00084A44182617361A482A741A38F8F8700C9
:1001C0006E7155716D0F0F0F0F08A141A6078506BF
:1001D000A1F1A4B1A11781068105810581178706C8
:1001E0008102C101C1028105880551068101C20158
:1001F000C20181055104830551068101C201C2017A
:1002000081055105820551068102C101C1028105A6
:1002100051058204850481058104840482048108D7
:1002200081018101810181078104820481088101AA
:10023000810181018107810482048108870781048B
:1002400082A141A28121412F23412181A241A18F7D
:100250008F85006E7153716F610F076C0F086B41D2
:100260002505C105C10B657606C103C10E63D60520
:10027000C70E620AC201C301C20D6209CB04412349
:10028000046221B12106C101C701C1047454627323
:1002900006C101C105C101C10471D30462D309C201
:1002A00001C2077107620F086171076206620D6380
:1002B000710762214124627125F125716371214129
:1002C000256276627D6378610069546F660F0F0165
:1002D000A10F0F02A18107A109A10E1181A2051191
:1002E0000981A10E81120581A207811109A4418112
:1002F00005A2811205A281A30715810512810712AB
:1003000081130C81078109810F81A2058141A3021C
:10031000A3810CA1B1A1811201A341811402138117
:1003200041A40713810314810981150A81078109FA
:10033000810F8102A581A981AF81A26F6F640061E5
:1003400054667A6E0461055108710DD104D10551CE
:1003500008710F0951087103A441A30D51264121D1
:100360007103180D7A04860F0E8404A141A40F0DA9
:10037000158105A541A40D8505811A810C83088A84
:1003800004A2B1A1F1A1037101710A710471068186
:100390001481037131713A71347137843471017190
:1003A0000A710471077102710471E171EA71E471FB
:1003B000E771E271E4006E7154716F0862D37104E9
:1003C00071DA65096103D104D10AD1644124046161
:1003D000210F04647504622109230664096321085E
:1003E0007322046408216437647221046303257155
:1003F00064E766710463037562D96804630F056678
:100400000421630F0E2171630925B1240921716450
:10041000E97A2107217165796A71E7716F6F690067
:100420006F546F0F0F0F0F0F0E2541210F21412326
:100430000782650FC507D2816409210F04D171635A
:100440000981210F047181620A81210F0371D18218
:100450000B81234125097101D20C892207710F817B
:10046000068101822106710D22812681238124B11A
:1004700021712141230434CFCB34E4CFCBE400817C
:1004800071817181718171817181718171817181DC
:100490007181718171817181718171817153710F6C
:1004A0000E7103710F0E7103710F0E7153710E8176
:1004B0000F0522B12109812141220F016409850F15
:1004C0000923412181D40F09860F0DD5810F0F0318
:1004D000810F01F102812341298121412A81037188
:1004E0000231819C819B813471348F89357132E373
:1004F0008F87E671E2006E7154716801C101C1011C
:10050000610F0DC101C101C10F0EC101C101C103C4
:10051000C101C10A22B12108C105C101C101C10146
:10052000C109740721C125C101C101C101C10F0564
:1005300078C105C10F0CC125C1210F0B78072141DE
:1005400022072141260F7407680F0B5106610F0B1C
:100550005106612141260821F12107510669A72191
:100560007321A6512441216917751668006F536FD6
:10057000610F0F0F0F08A441A905A641A203A31EF6
:10058000051933138E058F8104510D86088204519D
:100590000F0C8204510422F1210DA20482A141A278
:1005A0008104740D820487A10BA103A241A28204DD
:1005B000880B81038704880B8101B101870488A51A
:1005C00041A5816387A141A28F85638C006F536F22
:1005D000610F0F0F0F0F0F0F0A41260F0C770F0E31
:1005E0006171610F0141250A710B2541760A710184
:1005F000B1097601617161096371630A6171610119
:1006000032713D713E713202710D710E7104710DC6
:10061000710E7104710D710E7102E271ED71EE7166
:10062000E2005F510F0F0F0F0F0841A84103338AFB
:100630003300060D0B051B0D1D070103020D070DF1
:100640001A0D1F0D0103020D19071B0D040A0609DF
:10065000100A1E050107120410081C0301030A04F6
:1006600009091A031A0C040B0C071005100B010CD6
:1006700010081B081F0D040302090C0D1903180AAA
:100680001E0D00070D04210703060C06050D0C05C1
:100690001A0D1C070003010D060D1B0D200D020392
:1006A000010D1A071C0D030A0709110A1D05000791
:1006B00011040F081D030203090408091903190C8A
:1006C000030B0B070F050F0B000C0F081A081E0D6C
:1006D000030301090B0D1803170A1D0D01070E0472
:1006E000200704060B060808FFFFFFFFFFFFFFFFC0
:1006F00000010000EC006100B500B5006100EC00F5
:10070000000000019FFFEC004BFFB50014FF6100EB
:1007100000FF000014FF9FFF4BFF4BFF9FFF14FFE4
:10072000000000FF610014FFB5004BFFEC009FFFCD
:1007300004083E09093E3F25251A1E2121123F21AA
:10074000211E3F2525213F0505011E21293A3F0491
:10075000043F213F21001021211F3F040A313F2087
:1007600020203F02023F3F02043F1E21211E3F097D
:1007700009061E21112E3F09093622252519013FA0
:1007800001011F20201F0F10201F3F10103F3B04AE
:10079000043B03043807312D2321102A2A3C3F242F
:1007A00024181C2222141824243F1C2A2A2C043E1C
:1007B00005014C52523E3F040438243D2000404085
:1007C000443D3F081422213F20003E04043E3E04E5
:1007D000023C1C22221C7E22221C1C22227E3E0461
:1007E0000204242A2A12021F22201E20201E0E107C
:1007F000201E3E10103E360808364E50503E322A1B
:1008000026221E29251E223F2000322929261221B8
:10081000251A0C0A3F08172525191E252518013908
:1008200005031A25251A0629291E002F000000207D
:1008300000000229050200040400D5F08D14A1C8AF
:1008400081CFD9F1AF2000E8031E000000C800B03E
:10085000041E000000C8004C041E000000C8000078
:10086000800108FF480BFFFFFF3030FFFFFF00FF54
:10087000FFFF00F8FEFF0763E3E300FFFFFF3030F8
:10088000FFFFFF00000000000E1F3FF3E3C000F871
:10089000FEFF07030300F8FEFF0303FFFEF800FF5F
:1008A000FFFF73FFDF0E00FFFFFF33333333070714
:1008B00007000007070700070707000103070706EF
:1008C00003070007070700000707070000000000F4
:1008D00007060607030100000307070606000003DA
:1008E00007060607030000070707000707070007BA
:1008F00007070606060653434F52453A004B0D00C4
:10090000F0FCFE0EC6C6C6000080F8FE0EFEF880A3
:100910000000FEFEFE7CE07CFEFEFE00FEFEFE66AB
:100920006666660000000000F0FCFE0606FEFCF0B5
:10093000023EFEF800F8FE3E0200FEFEFE6666661F
:100940006600FEFEFEE6FEBE1C000003070F0E0C56
:10095000070F000C0F0F0303030F0F0C000F0F0FF7
:100960000003000F0F0F000F0F0F0C0C0C0C0000FA
:1009700000000001070F0C0C0F07010000030F0F10
:100980000F010000000F0F0F0C0C0C0C000F0F0FCD
:10099000000F0F0E00181800400000103810000261
:1009A0008040B088F474F408F082878290000000E0
:1009B00000FC02AAFAFA0253FCFCFFFFAA0192B65D
:1009C00092B692B600FF0000001F20222F2F202594
:1009D000222523252220242524252425100F0061EB
:1009E0006C6C206C6576656C732100596F752063A3
:1009F0006F6D706C657465640010002D003E0023FF
:100A0000001600190010002D0016000F0010002D18
:100A10000057000F003700050010002D003E000FAA
:100A20000010002D0016002D00370014007B000F71
:100A30000010002D003E00230010002D0041000595
:100A40000010002D0016000F0057000F00008080DE
:100A500008FF0301B1A9FDA96901A101010101017B
:100A60000101010101010101010101010101010176
:100A700001010101010101010183EF83013149FD00
:100A800085D5F9050901A10101010101010101015A
:100A90000101010101010101010183EF830101D184
:100AA00061B179C9C9D161A161C101A1010101018E
:100AB000010101010183EF83010111C93DC9050154
:100AC000A101010101010101010101010101010374
:100AD000FF00000000000000000000000000000017
:100AE0000000000000000000000000000000000006
:100AF000000000000000E8FCFFFFFF7E2E00000069
:100B000000000000000000000000000000000000E5
:100B1000808080E0E0E080808080000000000000B5
:100B2000000000000000000000747EFFFFFF3F3F58
:100B30007F7FFFFFFF3F1700000000000000000064
:100B400000008080800000A0F0FCFCFCF8B80000F1
:100B50008080800000000000000000747EFFFFFF26
:100B60003F1703030707070100747EFFFFFF3F17CE
:100B700000000000000000808080000000D0F8FE2F
:100B8000FEFEFC5C00000080808000000000000091
:100B9000747EFFFFFF3F1700010103030300000005
:100BA000747EFFFFFF3F1700000000808080000080
:100BB000000000E8FCFFFFFF7E2E00000000008028
:100BC00080800000747EFFFFFF3F170000000000E0
:100BD0000101010000000000747EFFFFFF3F171BB2
:100BE00010000000000000000000000000000000F5
:100BF00000000000000000000000000000000000F5
:100C0000000000000000004854FE542400000000D2
:100C100000000000000000000000000000000000D4
:100C200000000080C0808000000000000000000084
:100C3000000000000000000000242A7F2A110A1F83
:100C40000A242A7F2A120000000000000000000091
:100C500000000000000000002050F850900000004C
:100C6000000000000000000000000000242A7F2A8D
:100C700012000001010301000000242A7F2A120053
:100C8000000000000000000000000000000090A82C
:100C9000FCA8480000000000000000000000000068
:100CA00000242A7F2A12000000000001000000003A
:100CB00000242A7F2A12000000000000000000002B
:100CC000000000004854FE54240000000000000012
:100CD0000000000000242A7F2A120000000000000B
:100CE000000000000000000000242A7F2A120008F3
:100CF0000818247E42467C020418247E62667C0228
:100D00000418247E72767C020418247E7E7E7C0287
:100D1000040808000200000000000000000040007D
:100D20000002000000004000000000010000000080
:100D300000000038012C011E010F010201F600E540
:100D400000DA00C900B900AC00240F00F8FCFEFE78
:100D5000FEFE1EEEEE1EFE1EFEFE1EFE3EDEDEBE93
:100D6000FE0EBEBE7EFEFE0EFEFEFEFEFCF8000087
:100D700003070F0F3F1F0E0D0F0E0F0E0D0D0E0F61
:100D80000E0D0D0E0F0C0F0F0C0F0F0D0F0F0F0F81
:100D900007030003051F111F001F001D1517111564
:100DA0001F07041F17151D1F151D01011F1F151FEC
:100DB00017151F080800400000000002000D9F2DBD
:100DC000970D9F2D974040404040404040280404EC
:100DD000484804042840404F09ED094F40050205EA
:100DE0000205020502A54299B5A59942A5BD188143
:100DF0004A528118BD5A8739D6D639875A825A9AAB
:100E000042985A9A58405040604050406018247EA2
:100E1000426A7C0204EEDD9D71EFDE9D7BFA3F00AD
:100E20001FFA1F003F5FFC00F85FF800FC817E00A6
:100E30006A64007E81000055AA55000000817E0092
:100E40005626007E81472A040A050A05080508057A
:100E500000000000040A050AE5FAFDFE1E0F070760
:100E6000070F00000002F0FFFF1FFFFFF0820000ED
:100E700000FFFFFFFF87C7FFFF7E3C000408000064
:100E80000102050A05080508050804080408000011
:100E90000000000000000000000000000000000F43
:100EA0003565DFB060404040E00080780F854F2B13
:100EB000282B4F850F788000FF05057F4343651F72
:100EC00086E63C000000000000000000000000007A
:100ED0000000000000000000000000000000000012
:100EE00000000000000000000000010101010101FC
:100EF00000010101010000000000010101010001E9
:100F000001010101010101000000000000000000DA
:100F10000000000000000000000000008018FAFA45
:100F20000202020202FAFAFAFAFA0202020202FAD1
:100F3000FAFAFAFA0202020202FAFAFAFAFA0000DD
:100F400000E0F8F8FC9C1C1C1C38000000FCFCFCB9
:100F5000FC1C1C1CFCFCF8F00000C0FCFC7CFCFC35
:100F6000C000000080E0F0F8783C1C1C1C3C000035
:100F7000FCFCFCFC1C1C1C1C1C1C000000FAFAFAEB
:100F8000FAFA0202020202FAFAFAFAFA0202020279
:100F900002FAFAFAFAFA0202020202FAFAFAE0E0B5
:100FA0001F1F1F1F1FE0E0E0E0E01F1F1F1F1FE0CB
:100FB000E0E0E0E01F1F1F1F1FE0E0E0E0E00000B6
:100FC00000808103070F9EFEFCF8F00000FFFFFF8A
:100FD000FF0E0E0F0F070701E0FCFFFFEFE0EFFF32
:100FE000FFFEE0003FFFFFFFC08000000080000028
:100FF000FFFFFFFF0E0E0E0E0E0E000000E0E0E001
:10100000E0E01F1F1F1F1FE0E0E0E0E01F1F1F1FA9
:101010001FE0E0E0E0E01F1F1F1F1FE0E0E00B0B00
:1010200008080808080B0B0B0B0B08080808080B2E
:101030000B0B0B0B08080808080B0B0B0B0B0040E5
:1010400020432747A747A747A341008040A747A7BA
:10105000070000000000002647A7470140004001AC
:1010600047A7472600004123472747274727400037
:10107000072747A747A7472747274000000B0B0B29
:101080000B0B08080808080B0B0B0B0B08080808CB
:10109000080B0B0B0B0B08080808080B0B0B441E66
:1010A0000828A8A28E3EFEFEFEF8C00000FEFEFE4E
:1010B000FEFEAE16EE30FA6C7878786CFA30E0000E
:1010C00000000000000C70C03C00C020C000F020F8
:1010D000C020C000E020C000D000E04000E800C018
:1010E000200060A0000000020A2A28A38F1F7FFEB4
:1010F000F0FFFFFFFFFFFE05C0E0F0F9198C291D8E
:1011000018FA3C8F2308020000006091E000F021F3
:10111000E100E1A0F900010003010000010001006D
:1011200000010000010001010000000000000000BB
:10113000020A28A1871F7FFFFF7F0100C7CFCF8F43
:101140008C8AC87880A00000000000000000F848E9
:1011500008A800F800E0408040800080408010F83F
:10116000108040C0000000000000000000000000EF
:101170000000000000000000020A08010300000651
:1011800007030B0105000200000000000000000042
:10119000000003000003000300030003000300013C
:1011A0000201000300010202000000000000000034
:1011B0004907FA00E006FA007D06FA00E006FA00A8
:1011C0000000FA00AA08FA002D08FA000000FA0050
:1011D000E006FA004907FA000000FA00B909FA002F
:1011E0002D09FA000000F4017D06F4010000FA0068
:1011F000E006FA000080BA02A600E006A60070032E
:10120000A6000000A600BA02A6000000A600750510
:10121000A6003F03A6009704A6000000A60027052D
:10122000A6003F03A6002006A600BA02A600C80535
:10123000A6007D06A6000000E8030180080B00025E
:10124000020200000904000001020200000524005F
:1012500010010524010101042402060524060001F1
:101260000705810310004009040100020A00000084
:101270000705020240000007058302400000040346
:10128000090412010002EF020140412336800001EF
:101290000102030141726475696E6F204C4C43007A
:1012A0006D6963726F63616465001008000000007F
:1012B0001C2DC80000000206090000220FADFFFF30
:1012C000FF381CC8000406030E120000220F9DFF09
:1012D00000003815C8000310060F11F401220F009A
:1012E00000C8FF1825C800040C040F125802220F72
:1012F00095FFC8FF381DC800040A041E2090012273
:101300000FDCFFD7FF381CC800030C040F120000CD
:10131000220F000000001D15C8000010010F120070
:1013200000220FD9FFDFFF381CC8000405040104A8
:101330005802220F70FFC8FF3B2DC800041004099B
:101340000C0000220FC6FFFFFF381CC80004050474
:101350000F115802220FB5FF0000380DC800040617
:10136000050F115802220F74FFE7FF381CC8000454
:1013700010041D2058020505050505050505000793
:101380000707077F7F7F0000000000FFFFFF00F0DE
:10139000F0F0F0FFFFFFF0F0F0F0F0F0F0F0FFFF02
:1013A000FFF0F0F0F000FFFFFF00000000007F7F83
:1013B0007F0707070700080800010101010101007C
:1013C000000000010101011F000000000000007E7C
:1013D000000000404040407C004040404040400011
:1013E0007C404040400000007E0000000000000003
:1013F0001F0101010100000040EC7E7FFE6800003B
:101400000C7EFF7E0000070800402C1E68000000D4
:10141000000C7E0000000068FE7F7EEC4000007E35
:10142000FF7E0C0007080000681E2C400000000032
:101430007E0C0000087CFE7FFE6702087CFE7FFEBB
:101440006E0407080008641E6402000008641E643D
:101450000400E0F0E0E0F0E0E007084020404060F9
:10146000404074FEFCFEFFFFFFFFFFFEFCFCFCFCA7
:10147000F8F0600000020707070200000000000209
:101480000707070260F0F8FCFCFCFCFEFFFFFFFF13
:10149000FFFEFCFE740207070702000000000002C6
:1014A00007070702000074FEFCFEFFFFFFFFFFFEC0
:1014B000FCFCFCFCF8F06060F0F8FCFCFCFCFEFFBF
:1014C000FFFFFFFFFEFCFE740000000ECEFEF8F8EA
:1014D000F8F8F8F8F8F0F0E7E7E7FCFC7C7070004B
:1014E000000000000E0EEEE1EF0F7F7F7F0F0F0F69
:1014F0001F1F1F1FDFDFDF1F1E1C0000000000007A
:1015000000000000000000000000000000000001DA
:101510000101000000000000000000000070707C6D
:10152000FCFCE7E7E7F0F0F8F8F8F8F8F8F8FECE9A
:101530000E000000000000001C1E1FDFDFDF1F1F69
:101540001F1F0F0F0F7F7F7F0FEFE1EE0E0E0000CA
:101550000000000000000101010000000000000088
:1015600000000000000000000000000007E7F7FC9A
:10157000FCFCFCF8F8F8E0E7F7FFFCFCA00E8EBEE0
:10158000F8F8E0000000EEEEEF8F8F7F7FFFEFEFC7
:101590000F07071D1F1FFFF8FC1F3F3F3C00000007
:1015A0000000000303030000000000000000000032
:1015B00000010101000000000000000000E0F8F858
:1015C000BE8E0EA0FCFCFFF7E7E0F8F8F8FCFCFC90
:1015D000FCF7E70700000000003C3F3F1FFCF8FF5E
:1015E0001F1F1D07070FEFEFFF7F7F8F8FEFEEEEBF
:1015F00000000000000000000101010000000000E8
:101600000000000000000303030000000000E0F8F9
:10161000F8BE8E8EE0FCFCFFC7F770F0D0F0F83C0F
:10162000FEFEF7E3031C1C000000787F7F3FF1F112
:10163000C70E0F0F7F76778F8FEFEEEE8E80EEEE78
:10164000EE000000000000000001010100000000A9
:10165000000003030300000303030000000000E098
:10166000E7E70700000E0E0E0707070000000E0E4A
:101670000E00707077071F1C003838380ECECEC0B1
:10168000000000808080000000808080000000EE6C
:10169000EEEE000000000000010101000000030365
:1016A0000300000003030303030300000000110B09
:1016B0000074186C1EDE1272767C186818D81060E0
:1016C000000000000203020000000000000002030E
:1016D0000200006010D81868187C767212DE1E6C4A
:1016E0001874000002030200000000000000020362
:1016F0000200000011080074186C1E5E1272767CE5
:1017000018681858106000006010581868187C7627
:1017100072125E1E6C1874001B1200000000048020
:10172000C070F0F090002060C080A2E0A00800200F
:101730000000000000000004004000040026000437
:10174000000707000E020C820A020C0000000000D5
:101750000000000000000000000000000000000089
:101760000000000000000000000000000000000079
:10177000200008A0E0A280C060200090F0F070C0BF
:1017800080040000000000000000000C020A820C2F
:10179000020E0007070004002600040040000400B9
:1017A0000000000000000000000000000000000039
:1017B0000000000000000000000000001B120000FC
:1017C00000024060387800F090002060C280A8E0FD
:1017D000A0000400104000000000004400000004CD
:1017E00020064004000707000E02009804140518A4
:1017F00000000000000000000100000000000000E8
:1018000000000000000000000000000000000000D8
:1018100000004010000400A0E0A880C260200090FA
:10182000F000783860400200000000000000180559
:1018300014049800020E000707000440062004006C
:101840000000440000000000000000000000000054
:101850000000000000000000000000010000000087
:101860001B120800000140600C1800B0900020001E
:1018700082002860A0000400104000000000004426
:10188000000000044006000400220600060200805A
:1018900020000930000000000000000001000000EE
:1018A0000001000000000000000000000000000037
:1018B0000000001B120800020020000000040000CD
:1018C00000000002000004000000000240000000D0
:1018D00000004400000000000000000000000000C4
:1018E0000000000080040000100000000000000064
:1018F00002000001000000000001000000000000E4
:101900000000000000000002070E070200000002B5
:10191000070E07020000000000020702000000009E
:10192000000207020000000011040000020402008F
:10193000000000000204020000000000000002009D
:101940000000000000000200000000000000000293
:10195000070E070200000002070E07020000000049
:10196000000207020000000000020702000011044C
:101970000000000002040200000000000204020057
:101980000000000000000200000000000000020053
:10199000000004083E09093E3F25251A1E21211298
:1019A0003F21211E3F2525213F0505011E21293A02
:1019B0003F04043F213F21001021211F3F040A3131
:1019C0003F2020203F02023F3F02043F1E21211EF4
:1019D0003F0909061E21112E3F0909362225251926
:1019E000013F01011F20201F0F10201F3F10103F3B
:1019F0003B04043B03043807312D2321102A2A3CE1
:101A00003F2424181C2222141824243F1C2A2A2C88
:101A1000043E05014C52523E3F040438243D200050
:101A20004040443D3F081422213F20003E04043E34
:101A30003E04023C1C22221C7E22221C1C22227EEE
:101A40003E040204242A2A12021F22201E20201EE5
:101A50000E10201E3E10103E360808364E50503EE6
:101A6000322A26221E29251E223F2000322929261D
:101A70001221251A0C0A3F08172525191E2525189D
:101A8000013905031A25251A0629291E002F0000F1
:101A9000002000000229050200040400240F00F8C1
:101AA000FCFE1EEE6E5EFE3EDEDE3EFEFEDE0EDE68
:101AB000FE3EDEDE3EFEFEFEFEFEFEFEFE0EFEFCF8
:101AC000F8000003070F0E3D1D0C0F0E0D0D0E0F3D
:101AD0000F0F0E0D0F0E0D0D0E0F0F0F0F0F0F0F1F
:101AE0000F0D0F070300F8FCFEFFFFFFFFFFFFFFD6
:101AF000FFFFFFFFFFFFFFFFFFFFFFFFFFFFFFFFF6
:101B0000FFFFFFFFFFFFFFFEFCF803070F1F3F7FF4
:101B10003F1F1F1F1F1F1F1F1F1F1F1F1F1F1F1FB5
:101B20001F1F1F1F1F1F1F1F1F1F1F0F0703240F14
:101B300000F8FCDE0EDEFE3EDEDE3EFEFEFE1EEEAB
:101B40006E5EFEFE5E5E3EFEDE0EDEFEFE3E5E5E15
:101B50003EFCF8000003070F0E3D1F0E0D0D0E0F8B
:101B60000F0F0E0D0D0C0F0E0D0D0C0F0F0E0D0D9A
:101B70000F0E0D0D0D0703008E2111241FBECFEF98
:101B8000DAE0DEBFCDBF11E0A0E0B1E0E0EBF9E6C6
:101B900002C005900D92AE38B107D9F728E0AEE843
:101BA000B1E001C01D92AC30B207E1F71DE0CDEB12
:101BB000DDE004C02197FE010E948E34CC3BD107AA
:101BC000C9F70E9490220C94D6340C9400008091A6
:101BD000E70108958F929F92AF92BF92CF92DF92CA
:101BE000EF92FF92CF93DF934091F4075091F50766
:101BF0006091F6077091F707C090F807D090F90749
:101C0000E090FA07F090FB078091080828E0811126
:101C10002BE08091840690918506A0918606B09174
:101C20008706E091160638E0E39FF0011124EA0FE1
:101C3000FB1FDF011796A738B105D8F580908806FD
:101C400090908906A0908A06B0908B068091170626
:101C500038E0839FC00111248A0D9B1D883F3FEF10
:101C600093073CF18034910524F5AB01772757FDAC
:101C70007095672FEA014F5E5F4FE417F507CCF4CC
:101C8000CA17DB07B4F46701FF24D7FCF094EF2CEC
:101C900030E02C0D3D1D821793075CF40896C816A2
:101CA000D9063CF488E780931E0610921B0610921A
:101CB0000A08DF91CF91FF90EF90DF90CF90BF9017
:101CC000AF909F908F900895209193063091940645
:101CD00045E050E5813011F040E050E0A1EDB7E083
:101CE000ED91FD919281992399F060819181929F6C
:101CF000F001939FF00D1124E60FF11DF695E79585
:101D0000EC57F94F918960FD14C09F70952B918B12
:101D100097E0A53EB90721F78093A00781110CC079
:101D200080919C0790919D0790939F0780939E07B9
:101D30000895907F942BEBCF90E080E0F5CF982F23
:101D400070E0209191063091920626173707B0F087
:101D50002091930630919406629FF001639FF00DED
:101D6000729FF00D1124E80FF11DF695E795EC57E1
:101D7000F94F818990FF82958F70089589E00895C9
:101D80001F93CF93DF93182FD62F0E949F0EC82F3B
:101D9000853091F4DD23B9F06FEF6D0F812F0E9434
:101DA0009F0E853039F061E06D0F812F0E949F0EEC
:101DB000853049F4C0E107C08F3029F48091A00735
:101DC000813009F0C1E18C2FDF91CF911F910895EF
:101DD000E3E1F2E0A0E0B8E000800EBC8111012C4C
:101DE0001197A0FDFDCF0192B9F70DB40895FC0144
:101DF00080910D02882311F13FB7F89482E080931F
:101E0000E9002091F200822F90E01816190614F4D0
:101E100081E090E0882339F0289844E640930C0252
:101E20004091F1004083222339F02091F2002111EA
:101E300003C02BE62093E8003FBF08958FEF9FEF8C
:101E400008952FB7F89483E08093E9009091E8001B
:101E5000892F807295FF04C09091F20080E4891B65
:101E60002FBF08958091040281110DC082E08093FC
:101E7000000284E080930102109203021092020299
:101E800081E08093040280E092E00895CF93DF9395
:101E90001F92CDB7DEB76983DC01ED91FC91028022
:101EA000F381E02D41E050E0BE016F5F7F4F099567
:101EB0000F90DF91CF91089583E08093E9008091A6
:101EC000F200882319F08AE38093E80008950E94C5
:101ED000210F90E00895CF93DF931F92CDB7DEB727
:101EE000FC018485958597FD08C02FEF3FEF35876E
:101EF00024870F90DF91CF910895CE0101960E9423
:101F0000F70E019719F4898190E0F3CF8FEF9FEFDF
:101F1000F0CF0F931F93CF93DF931F92CDB7DEB710
:101F20008C01FC018485958597FF0BC0CE0101963D
:101F30000E94F70E019771F4898190E0F80195876E
:101F40008487F801848595850F90DF91CF911F914B
:101F50000F9108958FEF9FEFF1CFFC018485958558
:101F600097FD0BC09FB7F89482E08093E9008091C1
:101F7000F2009FBF90E0019608959FB7F89482E029
:101F80008093E9008091F2009FBF90E00895409116
:101F9000FA015091FB012091F8013091F9014217AB
:101FA0005307B4F49091E8009570E1F39091E80044
:101FB00092FD19C08093F1008091FA019091FB018C
:101FC00001968F739927892B19F48EEF8093E8007F
:101FD0008091FA019091FB0101969093FB0180930F
:101FE000FA0181E0089580E00895DF92EF92FF9278
:101FF0000F931F93CF93DF93D82E8A01EB017B01C0
:10200000E40EF51ECE15DF0559F0D7FE12C0FE0115
:1020100084910E94C70F21968111F4CF0FEF1FEF1B
:10202000C801DF91CF911F910F91FF90EF90DF904A
:1020300008958881EECF0F931F93CF93DF931F9264
:10204000CDB7DEB782E0898342E450E06CE372E111
:1020500080E80E94F50F0E94320FDC0112960D916C
:102060001C910115110589F0D801ED91FC910280B8
:10207000F381E02DBE016F5F7F4FC801099597FD89
:1020800004C0F80100851185ECCF89810F90DF91A4
:10209000CF911F910F910895615030F02091F10080
:1020A000FC0120830196F8CF289884E680930C02E7
:1020B0000895AF92BF92CF92DF92EF92FF920F936B
:1020C0001F93CF93DF936C017B018B01040F151FCE
:1020D000EB015E01AE18BF08C017D10759F0699136
:1020E000D601ED91FC910190F081E02DC60109959A
:1020F000892B79F7C501DF91CF911F910F91FF9047
:10210000EF90DF90CF90BF90AF900895FC010E94B8
:102110001D11319728F068517C4F8F4F9F4FF9CF99
:10212000AB01FC010E941D11641775078E079F0704
:10213000C8F308958F929F92AF92BF92CF92DF9291
:10214000EF92FF920F931F93CF93DF936C017B016C
:102150008A0180911201882309F45AC080910D02EE
:10216000882309F455C08091FF0180FF05C080914C
:10217000E00082608093E000E801B12C8AEFA82E95
:1021800093E0892E2AE3922E209711F4BB20C9F107
:102190000E94210F811108C0AA94AA20C9F181E0F0
:1021A00090E00E948610F0CF8C171D0611F00CF005
:1021B0008C2F9FB7F8948092E9002091E80025FDCC
:1021C00002C09FBFE1CF282F30E0C21BD30BF70125
:1021D000815020F041914093F100FACFE20EF31EBE
:1021E000BB2021F09092E800B12CEBCF8091E80069
:1021F00085FDE7CF9092E800BB24B394209709F3C4
:10220000F3CF5D9884E68093FE01101611063CF032
:1022100081E090E0F6019383828310E000E0C80142
:10222000DF91CF911F910F91FF90EF90DF90CF90B2
:10223000BF90AF909F908F900895A3EEB1E02FB71D
:10224000F8947D918D919C9166B52FBFA89B05C098
:102250006F3F18F47F5F8F4F9F4F22E0660F771F0D
:10226000881F991F2A95D1F7089520912306E091A0
:102270002106F0912206CF010296909322068093C8
:102280002106222319F085919491089580819181EE
:102290000895CF92DF92EF92FF92CF93DF930E9447
:1022A0003511811520E8920791F4809171008D7F9E
:1022B0008093710010929100469847981092DA012D
:1022C000DF91CF91FF90EF90DF90CF90089521E0C4
:1022D0002093DA01813020E8920751F480911F06A3
:1022E0009091200690932206809321060E9435113A
:1022F00097FD05C02091D901222309F454C02091F3
:10230000D801211150C021E02093DB01EC01DF77DF
:10231000209709F04BC081E08093DC0146983FE9AB
:10232000C32E3FE0D32EE12CF12CCAEFD0E0E09198
:102330008206F09183060995811103C081E08093A4
:10234000DC018091DB01882329F08091DC01882366
:1023500009F43FC047980E9435110097F1F19C01A4
:10236000DE010E944B34DC01CB0129E0B595A79535
:10237000979587952A95D1F7109290002AE020939F
:102380009100D0929900C09298008093DD019093C3
:10239000DE01A093DF01B093E001809171008260C3
:1023A000809371008DCF1092DB01B0CF9E0150E081
:1023B00040E060E472E48FE090E00E94F73369014E
:1023C0007A0181E0C81AD108E108F1081092DC0115
:1023D000AECF4699BFCF479ABECF8FEF9FEFDC01BC
:1023E000CBCF0F931F93DC01E1E7F0E090819D7F5D
:1023F000908310922306E4E7F6E0F0932206E09340
:102400002106F0932006E0931F06B183A083738317
:1024100062835583448382E390E097838683318788
:102420002087138702871F910F910C9449119C01FB
:10243000E1E7F0E090819D7F908381E08093230627
:1024400030932206209321063093200620931F0606
:102450000C9449116F927F928F929F92AF92BF928C
:10246000CF92DF92EF92FF920F931F93CF93DF9360
:102470004C01DB0158017C2D4115510509F4A0C028
:10248000FA016491319684914E5F5F4FC62FD0E080
:10249000211102C0EE2009F1E1E0F0E0982F9770E1
:1024A00011F4F0E0E0E0082F0695069506950E0F72
:1024B0001F2F111D0C9FF0010D9FF00D1C9FF00DA3
:1024C0001124733009F08BC0EE0FFF1F2E9F800187
:1024D0002F9F100D1124400F511F84010C0F1D1F41
:1024E000101611060CF06CC0F0E88F1691040CF079
:1024F00067C09D01280F311D121613060CF060C035
:10250000A034B1050CF05CC04115510509F458C068
:102510003A2F3770FD01B7FD379693E0F595E795B3
:102520009A95E1F72E2FB7FF04C0332311F02FEF58
:102530002E0FEE27FF27E819F90997FC02C0F0E0FB
:10254000E0E090E89819003811050CF4962F9E1BD6
:10255000A22F022E000CBB0B1A2F10952F3F0CF050
:1025600010E0DD24D394082F077009F4D12C869550
:1025700086958695D80EAD0DB11D19971CF0A8E073
:10258000DA2ED21AD11A210F00E82003D00111242B
:10259000A80DB91DAE0FBF1F619FE00DF11D1124E5
:1025A0004E0F5F1FE32E032E000CFF08733009F45B
:1025B00024C108F5713009F4D6C0723009F484C022
:1025C000DF91CF911F910F91FF90EF90DF90CF900F
:1025D000BF90AF909F908F907F906F900895A114BF
:1025E000B10409F473CFEE9E8001EF9E100D11240B
:1025F000A00EB11E6BCF7A3FB1F10D2D020F7B3FC4
:10260000F9F62017E9F2BD016D5E7D4FD12CC12C8A
:10261000C91608F0A2C0FA01EC0DFD1DE491F0E02E
:102620004F010E2C02C0880C991C0A94E2F727FD7A
:1026300006C0FB018081182D1095812380833323F0
:1026400061F0273054F45B01F0E8AF0EB11C192D96
:102650001095F501808181238083FFEFCF1ADF0A77
:102660006F5F7F4FD5CF0D2D020F201709F4A8CF34
:10267000BD016D5E7D4FD12CC12CC91608F067C01D
:10268000FA01EC0DFD1DE491F0E04F010E2C02C0AB
:10269000880C991C0A94E2F727FD04C0FB01808195
:1026A00088298083332351F0273044F45B01F0E81C
:1026B000AF0EB11CF501808189298083FFEFCF1A0D
:1026C000DF0A6F5F7F4FD9CF6FEF70E0032E02C03C
:1026D000660F771F0A94E2F760957095972E8D2C00
:1026E000820E281509F46CCF8D010D5E1D4FD12C83
:1026F000C12CC91630F5FA01EC0DFD1DE491F0E096
:102700003F010E2C02C0660C771C0A94E2F727FDED
:1027100005C0F8018081862386298083332359F000
:1027200027304CF45801F0E8AF0EB11CF501808160
:10273000892187298083FFEFCF1ADF0A0F5F1F4FA0
:10274000D8CF2F5F4C0F5D1FA058BF4FCACF2F5F50
:102750004C0F5D1FA058BF4F88CF2F5F4C0F5D1FE0
:10276000A058BF4F4ECF85010E0F1F1F8D2D820F1A
:10277000281709F425CFBD016D5E7D4FD12CC12CEA
:10278000C91698F5F801EC0DFD1DA490B12C0E2C86
:1027900002C0AA0CBB1C0A94E2F7A094B094FA0100
:1027A000EC0DFD1D8490912C0E2C02C0880C991C00
:1027B0000A94E2F727FD08C0FB017080E72DEA21AB
:1027C0007E2E7828FB017082332349F027303CF4B9
:1027D000FB01E058FF4FA080BA20B928B082FFEF7C
:1027E000CF1ADF0A6F5F7F4FCBCF2F5F4C0F5D1F7C
:1027F0000C0F1D1FA058BF4FBBCFE92EF12CE40FCB
:10280000F51FAD5EBD4F60E870E06E197F09CE190F
:10281000DF09AE01440F551FC1E0D0E07E01032E59
:1028200001C0EE0C0A94EAF7192F0D2D892E932E74
:10283000CF93DF93ED01EF96EF962296A590C5908A
:10284000992059F0AE9C5001CE9C600127302CF4A9
:10285000F880D094FD20FB28F99222233AF0FC90D6
:10286000C094FC20FA28FD920C94371411961A9506
:1028700029F70A9551F0182D23951124E40FF11D25
:10288000A60FB11DC60FD11DD9CFDF91CF91112455
:1028900097CECF92EF920F931F933BEFC32EE12C75
:1028A00010E000E00E942A121F910F91EF90CF904C
:1028B0000895CF92EF920F931F9332E0C32EE12C35
:1028C00010E000E00E942A121F910F91EF90CF902C
:1028D0000895CF92EF920F931F93F901202FCC24EC
:1028E000C3948F010E942A121F910F91EF90CF90F5
:1028F0000895CF92DF92EF920F93CF93DF93EB0186
:102900006D50710920911D062F5F6C01C20ED11C04
:1029100027FDDA949091060880919507E12C00E05C
:1029200026EE3AE1981760F04EE25BE1C6010E94A4
:102930006914DF91CF910F91EF90DF90CF900895C0
:102940004CE95AE1C6010E946914209118062B5CDB
:10295000BE016950710942E959E1C6014996DF910A
:10296000CF910F91EF90DF90CF900C9449148F92FC
:102970009F92AF92BF92EF920F930091FE078091CA
:102980000508863270F48F31B8F48823B9F18831A4
:1029900008F042C00F91EF90BF90AF909F908F9042
:1029A00008958D3208F43FC08433A0F78BEF28ECF4
:1029B00034E148E157E106C000E08BEF2CE036E15E
:1029C00040E658E1082E000C990B8090F807909093
:1029D000F907A090FA07B090FB07BC016A0D7B1DB8
:1029E0008090F4079090F507A090F607B090F70755
:1029F000E02E8A0D9B1D0E946914CCCF809108089F
:102A000026EA34E144EF56E18823E1F280E022E651
:102A100034E14EEA56E1D6CF00E08BEF2DE536E10A
:102A200043EB58E1CFCF8BEF2AE635E14CEB57E192
:102A3000C9CF4F925F926F927F928F929F92AF9287
:102A4000BF92CF92DF92EF92FF920F931F93CF939B
:102A5000DF9320910708211129C0AC01495F5F4F26
:102A60004738510518F5AB01485F5F4F48345105B1
:102A7000E8F40091130620911B06213009F4A6C04A
:102A800008F49BC0223009F4BBC0DF91CF911F91A5
:102A90000F91FF90EF90DF90CF90BF90AF909F90FD
:102AA0008F907F906F905F904F9008958091120269
:102AB000883059F7222321F0809118068E3F29F3A0
:102AC00080910E02843108F721111CC180911606F5
:102AD00098E0899FE00111242091170688E0289F43
:102AE000F00111240091840610918506209186063C
:102AF00030918706409088065090890660908A063B
:102B000070908B06A901495F5F4F4C0F5D1F4738DE
:102B1000510558F4AF01460D571D483F9FEF590727
:102B200024F0403451050CF4B0CF8090F40790901D
:102B3000F507A090F607B090F707C501BB2797FDF2
:102B4000B095AB2FC090F807D090F907E090FA0746
:102B5000F090FB07A701772757FD7095672F801A24
:102B6000910AA20AB30ACA19DB09C418D508E608F3
:102B7000F708EE19FF09282F30E000E810E068019F
:102B8000C21AD30A319521953109C217D3070CF027
:102B9000D2C0E42EF12C28E330E02E193F09F19445
:102BA000E194F108EE15FF050CF4BEC0E217F3073F
:102BB0000CF4B1C005E030E3B2C0E12C00E022E546
:102BC00034E149E554E10E9469145FCFE02E24E32B
:102BD00034E142E454E10E94691480911002909122
:102BE00011026FE070E00E946634892B09F04DCF2E
:102BF00081E090911306911180E08093130645CFF8
:102C0000C0901D060C2C000CDD088C0D9D1D209124
:102C10001C06E02E263009F042C026E134E144E2F1
:102C200054E10E9469148091100290911102877002
:102C30009927892B09F029CF8091160628E0829FD9
:102C4000C001112423E0C20ED11CC80ED91E8091F0
:102C5000F4079091F507A091F607B091F707CD0121
:102C60000896409184065091850660918606709181
:102C70008706861B970BC816D906C1F081E0909194
:102C80001306911180E08093130680911D069091A8
:102C90001C06963049F4815080931D06F6CE28EF2D
:102CA00033E146E054E1BDCF8F5FF6CF81E0809302
:102CB000070810920A0890910608809195079817C6
:102CC000A0F09091980720919907291770F0E92FAB
:102CD000E695F0E0EC57F94F818990FD04C08F70C4
:102CE000818B9F5FF2CF807FFBCF02E310E022E574
:102CF00030E045EA50E062E370E087E295E00E9450
:102D0000F111C3CE8091190698E0899FE00111244A
:102D100020911A06E3CE3CEF340F3E0F06E0CC15AF
:102D2000DD0504F580E00FC0E217F3070CF042CF99
:102D300007E030E0F4CFCC15DD05A4F4F7FF0CC0BC
:102D40008C0F00E030E0632F70E0E02E26E733E1E7
:102D500046EB53E190E037CFEF2B09F18C0F04E005
:102D600030E3F1CF242F30E088E390E0821B930B17
:102D7000319521953109E217F3074CF0E817F9076F
:102D80005CF43CEF340F3E0F02E088E7DCCF01E05B
:102D900030E0E817F907CCF303E030E3F6CF00E0CA
:102DA00030E0C0CF90E00C9486108FB18095807F8A
:102DB000669B88601C9B84600895480F592F511DA5
:102DC00014161506D4F580389105BCF597FF02C09E
:102DD00090E080E04138510514F040E850E0481B95
:102DE000FB0177FD379633E0F595E7953A95E1F7E6
:102DF000F695FE2FEE27F795E795E80FF91FED5EA4
:102E0000FD4F6770772781E090E001C0880F6A95D9
:102E1000EAF7382F213041F4415078F08191DF01F9
:102E20001197832B8C93F8CF8095415030F091917E
:102E3000DF01119798239C93F8CF08959091F301A7
:102E4000982329F49091F401982381E009F480E01B
:102E50000895CF93C82F0E94D516982F9C2381E008
:102E60009C1380E0CF91089580389105B8F46034C8
:102E70007105A0F490E121E061FD24E060FD220FE6
:102E800062FD2295687F969FD0011124A80FAD5E48
:102E9000BD4F0C90022A40FF02260C9208959F928B
:102EA000AF92BF92CF92DF92EF92FF920F931F9358
:102EB000CF93DF938C01942E6B01C81AD90AD7FEE9
:102EC00003C0D194C194D1088FEF061717070CF4F3
:102ED00081E0C0E4D0E0F12CE12CA82E880FBB08E3
:102EE000492DB801C7010E943417CC19DD09D7FF5D
:102EF00004C00A0D1B1DC058DF4F8FEFE81AF80AF7
:102F000081E8E816F10461F7DF91CF911F910F91ED
:102F1000FF90EF90DF90CF90BF90AF909F9008957B
:102F20008F929F92AF92BF92CF92DF92EF92FF92D9
:102F30000F93CF93DF935B01EC014C01840E911C46
:102F40006B01C20ED11CC815D905D4F47501B7FEAA
:102F500002C0F12CE12CC60121E4C216D10414F008
:102F600080E490E0E816F9064CF4402FB701CE015A
:102F70000E9434178FEFE81AF80AEDCF2196E3CFBD
:102F8000DF91CF910F91FF90EF90DF90CF90BF90A6
:102F9000AF909F908F900895CF92EF920F931F93D1
:102FA000CF93DF93EC019E816A3071F48D818C8325
:102FB0006985960F9E8381E090E0DF91CF911F910C
:102FC0000F91EF90CF900895262F6F3389F130F550
:102FD0006E32A1F140F4613279F198859C5F8C8169
:102FE000890F8C83E8CF80ED860F2C5F8A30A8F79D
:102FF00061E0690F062E000C770B8C81082E000C07
:10300000990B3F813130E1F43AEFC32EE12C10E00F
:1030100000E040E357E00E942A12DFCF6134E8F27B
:103020006B3540F08FE9860F27548A3108F3D5CFEE
:1030300020E4DECF2154DCCF2EE3DACF2FE3D8CF4C
:1030400040E357E00E944914C8CFEF92FF920F93DC
:103050001F93CF93DF938C017B01D0E0C0E0F70199
:10306000EC0FFD1F6491662339F0C8010E94CC1754
:10307000892B11F02196F3CFCE01DF91CF911F91D3
:103080000F91FF90EF900895089590E080E00895EB
:10309000FC019081992361F01CF49C3F34F4089565
:1030A000913049F099304CF00895990F908308952C
:1030B0008FEF80830895108208959595F7CFFC01D6
:1030C00090819F3F71F01CF4983F34F40895992348
:1030D00051F095305CF0089597FD9F5F9595908332
:1030E00008951082089581E080830895990FF7CFA5
:1030F000EF920F931F9380910A08811115C0809160
:1031000012028730A9F084E00E941E17882381F004
:103110008091000890910108892B51F08091080856
:1031200091E08927809308081F910F91EF900895EF
:10313000809110029091110283709927892BA1F739
:103140008091090881110DC080E40E94291788230D
:1031500009F474C08CEF97E00E94481881E08093D6
:10316000FE0788E00E942917882371F180910008EA
:1031700090910108892B41F18091FE07882309F481
:103180006AC0813009F480C08091100290911102D0
:1031900065E070E00E946634892B31F480910F0263
:1031A0008F5F817080930F028DEF97E00E94481827
:1031B00002E310E021E230E041E450E062E370E03D
:1031C00081E290E00E94F111809110029091110231
:1031D00087709927892B71F40E94D51683FF06C04A
:1031E0008091000890910108892B21F48DEF97E0E0
:1031F0000E945F1880911002909111028F709927A0
:10320000892B09F091CF0E94D51686FD8DCF0E94A3
:10321000D51685FD89CF8091FC07181624F48CEF14
:1032200097E00E9448188091FC0787FF7DCF8CEFC4
:1032300097E01F910F91EF900C945F1880E20E942D
:103240002917882309F48DCF8CEF97E00E945F182F
:103250001092FE0786CF00910F028091F80790919F
:10326000F907A091FA07B091FB07BD01685F7F4F96
:10327000E02E2CE439E14EE659E18091F607909179
:10328000F7070E94691480CF00910F028091F80720
:103290009091F907A091FA07B091FB07BD01685F13
:1032A0007F4FE02E26E039E148E259E1E6CFCF93A7
:1032B000DF93C8E9D1E06B81762F770F770B998187
:1032C00041E0892F990F990B0E943417249681E0D1
:1032D000C83DD80781F7DF91CF910895CF92DF9253
:1032E000EF92FF9280EF96E0A8E9B1E0C0901D0157
:1032F000D0901E01E0901F01F0902001FC0145914B
:1033000054912D913C911197420F531F11965C934C
:103310004E93FC0132962591349157FD17C01296B9
:103320004D915C911397240F351F37FD0FC01396F5
:103330003C932E9312970496149621E0A83DB20771
:10334000E9F6FF90EF90DF90CF900895CD92DD9257
:10335000ED92FC921397EFCFE8E9F1E080911D0127
:1033600090911E01A0911F01B09120018193919332
:10337000A193B19321E0E83DF207C1F781E080938A
:10338000F2010895AF92BF92CF92DF92EF92FF9237
:103390000F931F93CF93DF93B82E21E040E870E0A6
:1033A00060E090E080E00E94DD16C0919601D0912F
:1033B00097018E01E12C003811050CF584E0C82E30
:1033C000D12CF12C8E2D8170A82E8F2D8170A11003
:1033D0000CC069F0F39488E0C80ED11C87E0F812A5
:1033E000F4CFE394085F1F4FE6CF882399F320E0E2
:1033F00046EE56E0B601C8010E945914EBCF21E019
:1034000040E86FE370E090E080E00E94DD1680917C
:10341000100280FD10C0BB20C9F02197C1388FEF8A
:10342000D8072CF0D0939701C093960104C0109256
:10343000970110929601DF91CF911F910F91FF900C
:10344000EF90DF90CF90BF90AF9008952196D7FD79
:10345000E9CF80E89FEF9093970180939601EBCF9F
:103460008A3030F4853010F4813031F481E00895F1
:103470008C30E1F38031D1F380E00895FF920F9317
:103480001F93CF93DF93F42E9EE09417E8F09DE016
:10349000491708F08CC09BE0491749F18091080852
:1034A00081110CC08091FD07181644F48F2D0E94E5
:1034B000301A882319F083E380930508DF91CF91B8
:1034C0001F910F91FF9008958FE04813E7CF80E0A0
:1034D0000E94640E00E510E025E735E043E950E086
:1034E00060E570E081E290E00E94F111D7CF91E0B9
:1034F00090930B082091130130911401232B31F488
:1035000028EC30E0309314012093130190911002C5
:10351000937021F6EBECF7E0C191D191988189137A
:1035200003C09981691731F097E0E13DF907A1F7F0
:10353000D0E0C0E08A818823A9F120910008309171
:10354000010880919A0790919B072817390750F539
:1035500023E131E080911301909114010A96909338
:10356000140180931301809171008D7F809371000D
:1035700010922306309322062093210630932006D2
:1035800020931F060E944911809100089091010824
:10359000019690930108809300088A8181118150DF
:1035A0008A837CCF109214011092130177CF83E3AA
:1035B0008093050873CFCF92DF92EF92FF920F9323
:1035C0001F93CF93DF93082FD62F109197071230B8
:1035D000C8F0C82F8F3F49F40E946E33212F30E08E
:1035E00050E040E00E94F733C62FDF3F09F45FC090
:1035F000DEEF66C00E946E33A70196010E94F7338A
:10360000C62F65C0DEEFC0E080918C0690E0880F89
:10361000991FFC01E85AFE4F208131814C2F50E068
:10362000440F551FF901E40FF51FE491E0931606CE
:10363000FA013196E20FF31FE491E0931706C0936D
:103640001506D0931806DE3FB1F0805C9E4FFC015A
:10365000808191816D2F70E0660F771FFC01E60F6E
:10366000F71FE491E0931906FB013196E80FF91F6B
:10367000E491E0931A061092130681E080931B06F2
:103680000E946E3324E130E040E050E00E94F733C6
:10369000665F7F4F8F4F9F4F60931406DF91CF91EE
:1036A0001F910F91FF90EF90DF90CF9008950E94AF
:1036B0006E33212F30E050E040E00E94F733D62FE8
:1036C000C12ED12CF12CE12C0F3F09F09DCF809120
:1036D00015068C1709F48ECF80911806C81709F4C7
:1036E00089CFC12ED12CF12CE12CCD138DCF0E948E
:1036F0006E33A70196010E94F733D62FF6CF2F9293
:103700003F924F925F926F927F928F929F92AF9271
:10371000BF92CF92DF92EF92FF920F931F93CF93BE
:10372000DF93CDB7DEB762970FB6F894DEBF0FBE5A
:10373000CDBF80938C0691E09093A00791E1899F83
:10374000B001112466557D4E41E150E0CE01019655
:103750000E94C633298130E030939406209393066B
:103760008A8190E0909392068093910673E0220FF5
:10377000331F7A95E1F73093900620938F06E3E0AC
:10378000880F991FEA95E1F790938E0680938D0636
:103790008B819C81092E000CAA0BBB0BDC019927A5
:1037A00088278093840690938506A0938606B0931D
:1037B00087068D819E81092E000CAA0BBB0BDC01B4
:1037C000992788278093880690938906A0938A0674
:1037D000B0938B068B85809395078C858093960795
:1037E0008D85809397078E85809398078F8580932A
:1037F000990789859A8590939B0780939A07888972
:10380000998990939D0780939C07ABECB7E081ED7D
:1038100097E0ED91FD9110821182128213828A1736
:103820009B07B9F7E0918C06F0E0EE0FFF1FE85D13
:10383000FE4F80809180D12CC12C612C712C68E2CC
:10384000262E312C412C512CF4011491012F02957C
:103850000F701F7009F464C0F02FF295F07FFA8B9F
:103860007601970136952795F901EC57F94F818933
:10387000E0FC3AC08F709A89892B818B0530B9F1B1
:103880000B3009F56091930670919406C7010E9470
:103890006634E72DF0E0EE0FFF1FE553F84FA080F0
:1038A000B180F501808361830E946E33A201910192
:1038B0000E94F733DC01CB018896A11DB11DF501F3
:1038C0008283838373949FEFE91AF90A8E2D8C19F2
:1038D000811738F21150812F90E00196C80ED91E41
:1038E000EFEF8E1A9E0AB0CF807F802BC6CF6091FB
:1038F0009306709194066217730728F7C7010E9418
:103900006634E62DF0E0EE0FFF1FEF52F84F019006
:10391000F081E02D8083618381E082836394D3CF43
:1039200062960FB6F894DEBF0FBECDBFDF91CF9188
:103930001F910F91FF90EF90DF90CF90BF90AF90CD
:103940009F908F907F906F905F904F903F902F90BF
:103950000895CF93DF93CDB7DEB761970FB6F89494
:10396000DEBF0FBECDBF0E947F1B60918C0681E140
:10397000689FB001112466557D4E41E150E0CE01B3
:1039800001960E94C633E4EFF7E010861186128696
:10399000138A81E0848B858B168A178A118A898520
:1039A0009A85958784878F8190E0B0E0A0E0DC0164
:1039B0009927882780839183A283B383888590E0A9
:1039C000B0E0A0E0DC019927882784839583A68353
:1039D000B7838FEF8093150661960FB6F894DEBF1C
:1039E0000FBECDBFDF91CF9108958F929F92AF927E
:1039F000BF92EF92FF920F931F93CF93DF93CDB7B8
:103A0000DEB7A1970FB6F894DEBF0FBECDBF7C0125
:103A1000262F30E050E040E019A28E010F5D1F4FCD
:103A20008AE0882E912CA12CB12CCA01B901A501E4
:103A300094010E942934605DF80162938F01211581
:103A400031054105510589F790E080E0309759F044
:103A5000C70101900020E9F73197AF01401B510BDE
:103A6000B8010E945910A1960FB6F894DEBF0FBEA0
:103A7000CDBFDF91CF911F910F91FF90EF90BF903D
:103A8000AF909F908F9008950C94CF33DF92EF9278
:103A9000FF920F931F93CF93DF9300D000D000D0FD
:103AA0001F92CDB7DEB795E0899F80011124C80130
:103AB00088559F4F0E94441DD82EC80187559F4F9F
:103AC0000E94441DE82EC80186559F4F0E94441D48
:103AD000F82EC80185559F4F0E94CF338E83C801B1
:103AE00084559F4F0E94CF335E81682F2D2D3E2D30
:103AF0004F2D70E080E090E027960FB6F894DEBF7F
:103B00000FBECDBFDF91CF911F910F91FF90EF902E
:103B1000DF9008951F93CF93DF93EC01162F0E943F
:103B2000CF33181739F0612FCE01DF91CF911F915C
:103B30000C94E933DF91CF911F910895FF920F9379
:103B40001F93CF93DF93EC018B01FB01F0800E9468
:103B5000CF33F81621F06F2DCE010E94E933F80122
:103B6000F1802196CE010E94CF33F81621F06F2DFF
:103B7000CE010E94E933C801DF91CF911F910F91CF
:103B8000FF9008950F931F93CF93DF9300D0CDB78D
:103B9000DEB7082F86EA90E00E94441D182F87EABE
:103BA00090E00E94441D011104C0133511F48334C8
:103BB00079F18AE090E09A83898363E586EA90E070
:103BC0000E948A1D63E487EA90E00E948A1D08EA49
:103BD00010E060E0C8010E948A1D60E0C801019603
:103BE0000E948A1D60E0C80102960E948A1DBE01E3
:103BF0006F5F7F4FC80103960E949E1D89819A8145
:103C000002979A8389830B5F1F4F013C110509F7C7
:103C10000F900F90DF91CF911F910F9108951F92F8
:103C20000F920FB60F9211248F939F938091E10012
:103C30009091E100937F9093E10083FF0FC0109279
:103C4000E90091E09093EB001092EC0092E39093E6
:103C5000ED0010920D0298E09093F00082FF22C0D8
:103C600093E09093E9009091F200992319F09AE380
:103C70009093E8009091FE01992341F09091FE010C
:103C800091509093FE01911101C05D9A90910C02A8
:103C9000992341F090910C02915090930C02911154
:103CA00001C0289A84FF18C08091E2008E7E816056
:103CB0008093E2008091E1008F7E8093E10080910B
:103CC000FF018E7E80618093FF019F918F910F9005
:103CD0000FBE0F901F90189580FFF7CF8091E200E4
:103CE0008E7E80618093E2008091E1008E7E8093E1
:103CF000E1008091FF018E7E8160E5CF1F920F92DF
:103D00000FB60F921124CF92DF92EF92FF920F9392
:103D10001F932F933F934F935F936F937F938F9353
:103D20009F93AF93BF93EF93FF93CF93DF93CDB761
:103D3000DEB76C97DEBFCDBF1092E9008091E8003E
:103D400083FF25C068E0CE0145960E944C1082EFAB
:103D50008093E8008D8987FF39C09091E80090FF3B
:103D6000FCCF982F907609F034C19E894F89588DE9
:103D70002F89F88C911131C0803861F58091FD0157
:103D80008093F1001092F1008EEF8093E8006C9622
:103D90000FB6F894DEBF0FBECDBFDF91CF91FF917C
:103DA000EF91BF91AF919F918F917F916F915F91B3
:103DB0004F913F912F911F910F91FF90EF90DF90C6
:103DC000CF900F900FBE0F901F9018959EEF90937D
:103DD000E800C7CF1092F100D5CF913059F481118E
:103DE000D3CF4130510581F68091FD018D7F8093C5
:103DF000FD01CACF933049F48111C6CF413051053E
:103E000019F68091FD018260F2CF953041F48091E6
:103E1000E80080FFFCCF20682093E300B5CF963008
:103E200009F0A9C00B8D1C8D22E01092E9001092C0
:103E3000FB011092FA01F2122EC01092F9011092B9
:103E4000F8010E941B101F8299E09983FA8291E089
:103E50009E8390EA98879AEF99872091FA01309192
:103E6000FB01275F3F4F3C832B838D831092E9003A
:103E70001092FB011092FA011093F9010093F801DE
:103E800049E050E0BE016F5F7F4F80E00E94F50F78
:103E90000E941B1079CF1093F9010093F8010E9442
:103EA000320FDC0112960D911C910115110509F4D8
:103EB00051C1D801ED91FC910480F581E02DBE0146
:103EC0006B5E7F4FC8010995009709F03EC1F8016C
:103ED00000851185EACFF3E0FF120EC08F89882399
:103EE00009F440C0823061F440E869E080EA92E180
:103EF0000E945B21811148CF81E28093EB0047CF84
:103F0000813029F440E86BE084E992E1F1CF83301D
:103F100099F70E94320FDC011296ED90FC908E0111
:103F20000F5F1F4F6801E114F10479F0D701ED91A3
:103F3000FC910680F781E02DB801C7010995080FB3
:103F4000111DF701E084F184EECFD8011C92F60137
:103F500001900020E9F73197BF016C197D0940E01D
:103F6000C601C6CF6EE772E1FB01449150E080E8E4
:103F70000E94F50F09CF973009F4BECF983021F495
:103F800081E08093F10000CF993009F0FDCE83707D
:103F900009F0B2CFE2E2F1E081E031E096E3219175
:103FA000222371F08093E9003093EB00DF01119739
:103FB0002C912093EC009093ED008F5F873079F780
:103FC0008EE78093EA001092EA008F8980930D02B9
:103FD000DBCE8B8D9C8D1092E9001092FB0110922C
:103FE000FA019093F9018093F801898D811192C0B3
:103FF0008E899D89913A49F4813209F07DCF47E05D
:1040000050E06BE071E080E0B3CF913209F074CF03
:10401000833269F48F89988DB0E0A0E08093070126
:1040200090930801A0930901B0930A01ADCE8032AC
:1040300069F48091E80082FFFCCF67E08BE091E0BB
:104040000E944C108BEF8093E8009ECE823209F0E4
:104050009BCE8F8980931201EEEFFFE785919491BB
:104060008B3F9C4D51F1E0E0F8E080910B01909185
:104070000C01A0910D01B0910E01803B9440A1056F
:10408000B105F1F48091120180FD1AC0EE3F8AE083
:10409000F80789F587E797E791838083809160002F
:1040A0008093FC0188E19BE00FB6F894A89580937B
:1040B00060000FBE9093600067CEEEEFFAE0D5CFC0
:1040C000808191818737974709F05ECEA8958091CE
:1040D00060008861809360008091FC0180936000A3
:1040E000EE3F2AE0F20789F08091FE0A9091FF0AE4
:1040F0009183808349CE808191818737980751F2DF
:104100009093FF0A8093FE0AC5CF1092FF0A109287
:10411000FE0A3ACE0E94320FDC0112960D911C91DC
:104120000115110509F4E8CED801ED91FC9101903B
:10413000F081E02DBE016B5E7F4FC80109958111B2
:1041400023CEF80100851185EBCF181619060CF463
:104150001BCED2CEF1E0FF12BECE62E872E104CFF8
:104160000F920FB68F939F93EF93FF938091E2018D
:104170008D5F8D3708F08D578093E201EAEEF1E014
:1041800080818E4F808391819F4F918382818F4F59
:10419000828383818F4F8383E3EEF1E080818F5FA1
:1041A000808381818F4F818382818F4F828383813E
:1041B0008F4F83838FB18F6066991C9B88278F36C2
:1041C00081F48091E101981B963068F0E0E0F8E01E
:1041D00087E78083818388E180936000F0936000AB
:1041E000FFCF9093E101FF91EF919F918F910FBECF
:1041F0000F9018951F920F920FB60F9211242F93C4
:104200003F934F935F936F937F938F939F93AF935E
:10421000BF93EF93FF938091DD019091DE01A09118
:10422000DF01B091E001892B8A2B8B2B09F440C070
:104230008091DC0181110BC088B190E4892788B995
:104240008091DB01882319F088B1805888B980916A
:10425000DD019091DE01A091DF01B091E00118161F
:1042600019061A061B069CF48091DD019091DE016F
:10427000A091DF01B091E0010197A109B1098093FC
:10428000DD019093DE01A093DF01B093E001FF9187
:10429000EF91BF91AF919F918F917F916F915F91BE
:1042A0004F913F912F910F900FBE0F901F90189537
:1042B0000E944911ECCFEF92FF920F931F93CF937F
:1042C000DF93F82E192FE62E042F81E0860F880F3A
:1042D0000E94C70F83E00E94C70FCF2DD12FEC0E95
:1042E000FD2EF11CCE15DF05B9F007FF13C0FE014E
:1042F00084910E94C70F182F80E00E94C70F81236E
:1043000021968111EFCFDF91CF911F910F91FF90F7
:10431000EF9008958881EDCF81E0F5CF10922706C8
:104320001092260688EE93E0A0E0B0E08093280685
:1043300090932906A0932A06B0932B0684E791E078
:1043400090932506809324068FEF9FEF909331067C
:104350008093300687EE9DE09093830680938206DB
:1043600080E090E8909381068093800646983E9A7C
:1043700047983F9A1092F4071092F5071092F607AB
:104380001092F7071092F8071092F9071092FA07A7
:104390001092FB071092FC071092FD071092FE0787
:1043A0001092FF0710920108109200081092030863
:1043B0001092020810920408109207081092080840
:1043C00081E08093090810920A0810920B0810925D
:1043D000ED071092EC0726E831E03093EB072093CD
:1043E000EA071092F3078093F2071092EF071092FA
:1043F000F0071092EE078093F1071092E6071092F3
:10440000E7071092E8071092E9079FEF9093E507FE
:1044100010928406109285061092860610928706E6
:10442000109288061092890610928A0610928B06C6
:1044300010928E0610928D061092900610928F06A2
:104440001092920610929106109294061092930682
:1044500010929B0710929A0710929D0710929C074A
:1044600010929F0710929E078093A00781EA97E021
:104470009093CC078093CB0785EA97E09093CE0783
:104480008093CD0789EA97E09093D0078093CF0778
:104490008DEA97E09093D2078093D10780EB97E065
:1044A0009093D4078093D30783EB97E09093D6073C
:1044B0008093D50786EB97E09093D8078093D70732
:1044C00089EB97E09093DA078093D9078CEB97E01C
:1044D0009093DC078093DB078FEB97E09093DE07E8
:1044E0008093DD0782EC97E09093E0078093DF07ED
:1044F00085EC97E09093E2078093E10788EC97E0E2
:104500009093E4078093E307E1EDF7E085EE97E011
:10451000A191B19112961C928E179F07C9F7089529
:10452000CDB7DEB7A797DEBFCDBF789483E084BD5B
:1045300083E085BD81E080936E00E1E8F0E083E0F8
:104540008083E0E881E08083E1E983E08083E0E943
:1045500081E08083E1EC87E08083E3EC81E080838D
:10456000E0EC82E08083E2EC81E08083EAE787E0B0
:1045700080838068808310920D021092FD0110925A
:10458000FF018091D70081608093D70080EA8093FB
:10459000D80089B5806189BD89B5826089BD09B4BB
:1045A00000FEFDCF81E090E00E9486108091D8004F
:1045B0008F7C80618093D8008091E000807F809321
:1045C000E0008091E1008E7E8093E1008DE0809399
:1045D000E200559A209A81EC80937C0081E185B9B4
:1045E00087E684B984E38BB98FE38AB9769A6E98AB
:1045F00080EF81BB10BA80E58CBD81E08DBD85E088
:104600000E94D216599A85E00E94D2165C98EAE37D
:10461000F8E085918EBD00000DB407FEFDCFE734B4
:10462000C1F75C9A81E88093640081E08093650023
:1046300080E00E94E80E80E10E9429178823A9F0FB
:104640005C9885EA8EBD00000DB407FEFDCF5C9A34
:104650002E9858982D988091640080628093640011
:1046600081E083BF889513BEFCCF84E00E942917A8
:104670008823C9F12E9A589A2D9884E10E9429170F
:104680008823A1F02D9A88EC0E94D21658986FEFDB
:1046900082E090E00E94D73384EF91E00E94861080
:1046A000589A84E10E9429178111FBCF84E80E9467
:1046B00029178823A1F02D9A88EC0E94D2162E98F3
:1046C00060E082E090E00E94D73384EF91E00E94A6
:1046D00086102E9A84E80E9429178111FBCF88EC5E
:1046E0000E94D216C2CF2E9858982D9882E090E062
:1046F0000E94441D882371F13E9A579A81E080936D
:10470000E70190E0E3E1F2E091119FEF8FEF9193E9
:104710009193919391938150D0F780E18093000120
:1047200080E00E94C21D8E010D5E1F4F1B8F0A8FFD
:104730009E012A5F3F4F3D8F2C8F8091E801882397
:1047400071F01092E80180E090E0892BB1F30E94B3
:104750000000EECF1092E7013E985798D2CF90918B
:10476000EA018091E901392F381B832F2091000144
:10477000321740F48F5F821730F781E083BF88954E
:1047800013BEE1CF81E08093E8019093E901E0E17D
:10479000F2E0808191810196808391838091F40180
:1047A0008093F3010E94D5168093F401E0911202E8
:1047B000EE3008F07CC0F0E0E052FC4D0C948E34FA
:1047C000EE2355266B26862793279E27E527F3277A
:1047D000F327902BE02BE72B672CDD2C20E04EE914
:1047E00050E161E170E08EE190E00E945914809107
:1047F0000501882339F0813009F44EC0815080933F
:10480000050155C08091010187FD44C080910301DD
:1048100090910201891B990B97FD019695958795BB
:10482000B82E10E000E0B0E8CB2ED12C4091010171
:104830000B1538F57801EE0CFF1C609102016E0D2E
:104840007F2D711D603471052CF420E090E080E034
:104850000E94DD16609102016E0D7F2D711D6F5F4C
:104860007F4F6034710554F48091010120E0482F9E
:10487000D601A81BB109CD010E94DD160F5F1F4FA5
:10488000D5CF47FD07C080910401480F4093010137
:1048900047FF0DC081E091C6109201011092020104
:1048A00090E490930301809304011092050181E04C
:1048B0000E94E80E80911202823019F0883009F0CF
:1048C00042CFB091FD078B2E0B2E000C9908AA0841
:1048D000BB0854019924882475016401FF0CCC089D
:1048E000DC2C76019401A5016C2D7C2D8C2D9C2D4A
:1048F00000E10E94943479018A01F62FE72F6C01C0
:10490000A0E00E94CA346CF421503109484F5F4F37
:104910006F4F7F4F8F4F9F4F79018A01F62FE72FFF
:104920006C019701A8016F2F7E2FC60103E10E9441
:10493000AD3449015A014090FC07042C000C550885
:104940006608770832015524442473016201FF0C84
:10495000CC08DC2C76019201A3016C2D7C2D8C2DD2
:104960009C2D00E10E94943479018A01F62FE72FF3
:104970006C01A0E00E94CA346CF421503109484F08
:104980005F4F6F4F7F4F8F4F9F4F79018A01F62FF7
:10499000E72F6C019701A8016F2F7E2FC60103E15D
:1049A0000E94AD342E8F3F8F48A359A30091F40786
:1049B0001091F5072091F6073091F7078901332709
:1049C00017FD3095232F4091840650918506609104
:1049D000860670918706AB01772757FD7095672F84
:1049E000041B150BC090F807D090F907E090FA0768
:1049F000F090FB076701FF24D7FCF094EF2C409068
:104A000088065090890660908A0670908B06A301F4
:104A1000772757FD7095672F1601241A350AB7FFBF
:104A20006FC0C10187709927892B99F52114310432
:104A300011F40C94982FC10173E0969587957A959F
:104A4000E1F7BFEFB80FBAA3F801A3E0F695E79539
:104A5000AA95E1F7FDA3ECA36B2F8CA10E94C00ED9
:104A60000E94301A81110C94982F6AA18CA18F5F3B
:104A70000E94C00E0E94301A81110C94982F6AA1D6
:104A80008CA18E5F0E94C00E0E94301A81110C947E
:104A9000982F8091FF07882339F081508093FF077A
:104AA000811102C010920808109209081092140196
:104AB000109213018091F8079091F907A091FA07DD
:104AC000B091FB0777FC02C00C94742F0097FCE1B7
:104AD000AF07B10514F00C94072F481459046A0469
:104AE0007B0414F00C942B2F481859086A087B0893
:104AF000409288065092890660928A0670928B06D0
:104B00008091FD0718160CF06DC08091080888236D
:104B100011F40C94C82F3BE03AA3EAA04E2C512C80
:104B20003101640C751CC30187709927892B91F59D
:104B300080918D0690918E066816790611F40C947A
:104B40008530630153E0D694C7945A95E1F7780114
:104B500063E0F694E7946A95E1F76C2D8E2D0E9440
:104B6000C00E0E94301A81110C9485306C2D81E0AA
:104B70008E0D0E94C00E0E94301A81110C94853057
:104B80006C2D82E08E0D0E94C00E0E94301A8111A1
:104B90000C9485308091F8079091F907A091FA075D
:104BA000B091FB0700972CE1A207B10514F00C941B
:104BB000FE2FAC01BD01480D591D6A1D7B1D41151D
:104BC00051053CE16307710514F00C94CC2F409320
:104BD000F8075093F9076093FA077093FB0784E195
:104BE0008093FF078091FC0787FD02C00C941B3265
:104BF000C80187709927892B21F583E016950795C1
:104C00008A95E1F7FF24FA94F00E810193E016955E
:104C100007959A95E1F7602F8F2D0E94C00E0E9494
:104C2000301A811190CDB7E02B223324232849F08C
:104C300061E0600F8F2D0E94C00E0E94301A81111A
:104C400082CD8091840690918506A0918606B091D0
:104C500087064091F4075091F5076091F60770912F
:104C6000F707B7FD02C00C94EF3141155105E8E399
:104C70006E07710514F00C947631EE8CFF8C08A150
:104C800019A18E159F05A007B10714F00C94AB3144
:104C90008E199F09A00BB10B809384069093850613
:104CA000A0938606B09387064ECD1092F70110921E
:104CB0001E061092F60181E08093060180E00E94BA
:104CC000A91C6EEF809106010E94DB1A1092FE076C
:104CD00082E0809312024091840650918506609193
:104CE00086067091870680911606B8E08B9F40017A
:104CF0001124860E971E8091880690918906A091B6
:104D00008A06B0918B0660911706E8E06E9F30012D
:104D100011246A0E7B1E8091F701882319F08150BF
:104D20008093F70180911E06882379F09091060107
:104D3000815080931E06811108C081E0911180E0AE
:104D4000809306016EEF0E94DB1A20E04CE15FE0E9
:104D500067E070E090E080E00E94591420E045E4B4
:104D60005EE06FE170E08DE190E00E9459143090B8
:104D7000060110E0E12EF12C8091910690919206AF
:104D8000E816F90608F07BC0E3E0EE0CFF1CEA959C
:104D9000E1F7512C9701225031093DA32CA3A70123
:104DA000415051095FA34EA3C52CD12C809193068D
:104DB00090919406C816D90608F05FC073E0CC0C39
:104DC000DD1C7A95E1F7612F852D0E94C00E8823A6
:104DD00009F449C0843009F048C020909707E09159
:104DE0008C06F0E0EE0FFF1FE05CFE4FA080B1806C
:104DF00090E080E0D6011296BF8FAE8FF601339619
:104E0000FBA3EAA3281661F1F50124913196E49100
:104E100044244394480E52121EC01E131CC0381264
:104E20001AC024E043EB5DE0B701C6010E945914AB
:104E300001E027E045E06CA17DA18E8D9F8D0E9451
:104E40009017242D43E95DE06EA17FA18AA19BA16B
:104E50000E94491491E0F2E0AF0EB11C842DD2CF34
:104E60002AE0992319F053949FCF282F43EB5DE05C
:104E7000B701C6010E945914F6CF1F5F7BCF0E9475
:104E8000B714B301C4010E9419150E9478188091CB
:104E90000708811105C080911B0681110E94EA0D4F
:104EA0008091F701882321F0B301C4010E94791495
:104EB00080911E068823A1F0B3016D507109809185
:104EC0001D067401E80EF11C87FDFA94C701E12C60
:104ED00000E026EE3AE149E45DE001960E946914A3
:104EE0008091F8079091F907A091FA07B091FB071C
:104EF0000097A942B1050CF4DACC8091FD07181691
:104F00000CF0D5CC81E080930808D1CC81E080936F
:104F1000F60185E0809304081092030810920208BD
:104F200084E0809312028091F6010E947F1B86EF3D
:104F300091E10E94171285E0809312028091F201A4
:104F4000811102C00E94AC190E946E190E9457196B
:104F500000E021E14EE567E170E082E190E00E942F
:104F6000901721E04CE569E170E083E190E00E9458
:104F7000DD1621E04CE566E270E083E190E00E94FE
:104F8000DD16809196078A5E8093EF078093EE0787
:104F90008CE18093F007E0918C06E150F0E0EE0F99
:104FA000FF1FED5CF24F659174918AEE97E00E94CD
:104FB000251888E00E941E17882319F086E0809348
:104FC000120287E08093F50172CC10920F0280915B
:104FD000F6010E94A91C6FEF8FEF0E94DB1A8091EF
:104FE000F5018093120280910E028F5F68E20E94A9
:104FF0005A3490930E024091840650918506609138
:105000008606709187068091160618E0819F200120
:105010001124460E571E8091880690918906A09112
:105020008A06B0918B062090170628E0229E100178
:1050300011242A0E3B1E8091F701882319F081501C
:105040008093F70180911E06882349F08150809358
:105050001E06811104C06FEF8FEF0E94DB1A809152
:105060009E0790919F07009751F0019790939F079B
:1050700080939E07892B19F481E00E94640E10E052
:10508000A12EB12C8091910690919206A816B90696
:1050900008F0D9C0750143E0EE0CFF1C4A95E1F71A
:1050A000FF8EEE8E712C872C912C8091930690911F
:1050B00094068816990608F0C4C0809184069091E1
:1050C0008506A0918606B0918706740133E0EE0C48
:1050D000FF1C3A95E1F7EA0EFB1EC70108968838D7
:1050E000910508F04EC08091880690918906A091A4
:1050F0008A06B0918B06CE8CDF8CCA0EDB1EC601F1
:10510000089688349105E8F5612F872D0E94C00E1E
:105110008430C9F18B3009F473C0282F43EB5DE074
:1051200081112BC02091910630919206A29EC00160
:10513000A39E900DB29E900D1124880E991EC4015D
:1051400003966BE170E00E9466349C012770332760
:10515000232BB9F42091100230911102822693265C
:1051600003E080229924892861F023E096958795B1
:105170002A95E1F7282F41E15DE0B601C7010E94C1
:105180005914739490CF24E043EB5DE0B601C7015E
:105190000E94591401E027E045E0B6016250710910
:1051A000C70102960E94901780910E02843148F741
:1051B00060909707E0918C06F0E0EE0FFF1FE05C37
:1051C000FE4F8080918000E021E0C21AD10833E0D8
:1051D000E30EF11C6016A9F2F40184913196E4917A
:1051E0000F5F781209C01E1307C0202F43E95DE04E
:1051F000B601C7010E944914F2E08F0E911CEACF5C
:10520000ABECB7E0ED91FD918081781203C0818114
:10521000181739F021ED37E02A173B0799F7F0E02E
:10522000E0E0828134E0839FC0011124638170E05B
:105230000E947A34262F643008F023E04FEE5CE0C1
:105240009CCF1F5F1DCF80910508AE014F5F5F4F60
:105250006A018111D7C00E947818809107088111D6
:1052600005C080911B0681110E94EA0D80911202F7
:10527000883009F0C7C010920B08F60111928A8D90
:105280009B8D8E179F07D1F74091F8075091F90732
:105290006091FA077091FB07AB01772757FD709576
:1052A000672F8091880690918906A0918A06B09117
:1052B0008B06CD01BB2797FDB095AB2F5A01A81ADD
:1052C000B90A8091F4079091F507A091F607B09183
:1052D000F707CD01BB2797FDB095AB2F4091840612
:1052E000509185066091860670918706AB017727FD
:1052F00057FD7095672F841B950B7C01F3E0F694A6
:10530000E794FA95E1F7662463946E0CA2E07A2E96
:105310007E0C8501B3E016950795BA95E1F7602FED
:105320008E2D0E94C00E4601880E911CD4019C91C6
:10533000911108C0482F602F8E2D0E943E1A81E0E7
:10534000F4018083602F862D0E94C00E4601880ED6
:10535000911CD4019C91911108C0482F602F862D7B
:105360000E943E1A81E0F4018083602F872D0E9405
:10537000C00E4601880E911CD4019C91911108C069
:10538000482F602F872D0E943E1A81E0F401808310
:10539000F8E0AF16B104B0F10F5F602F8E2D0E94C0
:1053A000C00E5601A80EB11CD5019C91911108C0E8
:1053B000482F602F8E2D0E943E1A81E0F5018083D8
:1053C000602F862D0E94C00E7601E80EF11CD701D9
:1053D0009C91911108C0482F602F862D0E943E1A83
:1053E00081E0F7018083602F872D0E94C00EF601B7
:1053F000E80FF11D9081911105C0482F602F872D76
:105400000E943E1A80911202873021F480910E0290
:10541000843110F40E94B7141091F101112361F14D
:1054200087E290E0811B910997FD07969C0103E0BC
:10543000359527950A95E1F78091F8079091F9073E
:10544000A091FA07B091FB07BD016A5071098091E4
:10545000F4079091F507A091F607B091F707E22EB7
:10546000022F21ED3AE04FED5BE0CD0105970E9460
:10547000691411501093F101B101C2010E94191574
:1054800020E04FE45AE068E370E090E080E00E94A2
:1054900059148DE08093EF078093EE0789E38093A2
:1054A000F0078091020890910308F6012AE030E0AD
:1054B000B9010E9466348193CB01EC8CFD8CEE1611
:1054C000FF06B1F78E010A5F1F4FD8016E918D0163
:1054D0008AEE97E00E94F51CC016D106B1F7E09065
:1054E0000008F0900108C7010197439708F068C0D1
:1054F00080910E02843108F063C000E028E04EE1A4
:1055000069E370E08CE290E00E9490178EE5809352
:10551000EF078093EE0709E30093F00780910408FA
:105520001AE0612F0E945A34692F8AEE97E00E9498
:10553000F51C83E78093EF078093EE070093F00755
:1055400080911406612F0E945A34092F0E945A3408
:10555000692F8AEE97E00E94F51C602F8AEE97E093
:105560000E94F51C8091F701882321F0B101C2014E
:105570000E94791480911E068823A1F0B1016D501C
:10558000710980911D06F201E80FF11D87FDFA9562
:10559000CF01E12C00E026EE3AE149E45DE001961E
:1055A0000E946914809112028730A9F588E00E9458
:1055B0001E17882309F47BC988E08093120277C9FB
:1055C00089E38093EF078093EE078093F007C7018C
:1055D00064E670E00E946634CB010AE010E0B80196
:1055E0000E946634682F8AEE97E00E94F51CC7017E
:1055F000B8010E946634F82ECB01B8010E946634CF
:10560000682F8AEE97E00E94F51C6F2D8AEE97E0D6
:105610000E94F51C7BCF8091050890910B0899237F
:1056200039F18333C8F48330F8F4823009F452C07E
:1056300080911002909111026FE070E00E94663438
:10564000892B09F034C98091F0018F5F8B3008F00D
:105650005CC08093F0012BC9833351F789EF99E047
:105660000E94171280910508815080930508E0CFB1
:105670008111D7CF6091FD07209110023091110266
:1056800067FF0CC0062E000C770B80EC9FEF0E948A
:105690007A34C9010E946634892B39F0C90168E166
:1056A00070E00E946634892B19F680910008909171
:1056B0000108009729F00197909301088093000852
:1056C0008091000890910108892B09F0B1CF1092C8
:1056D0000808AECF81E080930508809104088150CE
:1056E00080930408882369F080918C060E947F1BB8
:1056F0001092050886E08093120287E08093F501FE
:1057000097CF8AE08093120293CF1092F00180919C
:1057100014068B3008F4CBC8815080931406C7C898
:105720008091F201811102C00E94AC190E946E1991
:105730000E94571900E02EE142E662E170E08FE03E
:1057400090E00E94901721E040E663E170E080E184
:1057500090E00E94DD1621E040E66EE270E080E11C
:1057600090E00E94DD168BE28093EF078093EE07B6
:1057700088E18093F0076BEE79E08AEE97E00E9473
:10578000251881E38093EF078093EE0782E28093F0
:10579000F0076FED79E08AEE97E00E94251820E08F
:1057A00045E959E065E170E082E190E00E9459141A
:1057B00088E00E941E17882309F479C88AE0FDCE8C
:1057C00080EB91E10E9417128BE08093120281E03E
:1057D0000E94C21900E02FE140E860E170E090E033
:1057E00080E00E94901740E06DE070E08DE090E076
:1057F0000E944F1740E06FE070E08FE090E00E9461
:105800004F1741E061E170E081E190E00E944F17A5
:1058100041E06DE270E08DE290E00E944F1740E0C1
:105820006FE270E08FE290E00E944F1740E061E38A
:1058300070E081E390E00E944F1720E04DEF58E0C8
:1058400064E170E089E190E00E94591484E2809361
:10585000EF078093EE0783E28093F00766EF78E02E
:105860008AEE97E00E942518809102089091030823
:105870008E010F5F1F4F7801F8012AE030E0B90177
:105880000E9466348193CB014C8D5D8D4E175F076E
:10589000B1F78E010A5F1F4FD8016E918D018AEE1C
:1058A00097E00E94F51CE016F106B1F788E00E942F
:1058B0001E17811105C084E00E941E17882319F06D
:1058C0008CE0809312021092F6010C9457248FEF13
:1058D0008093E5071092E6071092E7071092E80719
:1058E0001092E9078091020890910308998F888FA0
:1058F000F12C8F2D0E94461D29833A834B835C83B4
:105900006D832C813D81888D998D2817390758F535
:105910000CEB10E0B4E0EB2EFE1460F5EA948E2D53
:105920000E94461D29833A834B835C836D83622FDB
:10593000C8010E948A1D6A81C80101960E948A1DC1
:105940006B81C80102960E948A1D8C819D819C8B6F
:105950008B8BBE016D5E7F4FC80103960E949E1D1A
:1059600005501109D9CFF394B5E0FB12C2CFFF2443
:10597000FA941EC0E5E0FE9E8001112460E0C8019B
:1059800088559F4F0E948A1D60E0C80187559F4F30
:105990000E948A1D60E0C80186559F4F0E948A1DA3
:1059A000BE01685E7F4FC80185559F4F0E949E1DB6
:1059B000F092E5078DE08093120280E00E94C21908
:1059C00000E020E442E570E060E087E190E00E94C2
:1059D000901710E000E041E0B80188E190E00E94FB
:1059E00034170F5F1F4F00341105A9F710E000E0D6
:1059F00041E0B80187E690E00E9434170F5F1F4F27
:105A000000341105A9F720E044E658E066E070E0B4
:105A10008CE190E00E94591405E110E0512CF6E071
:105A20004F2E9E012F5F3F4F69013E0137E0630E0D
:105A3000711CAAE08A2E912C852D0E94461D2B8B6D
:105A40003C8B4D8B5E8B6F8B42E959E1B80183E251
:105A500090E00E9459142C8942E959E1B80189E289
:105A600090E00E9459142D8942E959E1B8018FE272
:105A700090E00E945914D601E42D1D92EA95E9F7B1
:105A80008E899F895601F601B4010E946634819384
:105A9000CB016E167F06C1F7E9E5EE2EF12CD5019C
:105AA0002D915D012C5C42E959E1B801C7010E94CA
:105AB0005914B5E0EB1AF108EBE3EE16F10479F7AF
:105AC0005394085F1F4FF5E05F12B6CF1091E507C2
:105AD0001F3F09F418C18091EF018F5F8093EF01A0
