:100000000C9424090C944C090C944C090C944C0944
:100010000C944C090C944C090C944C090C944C090C
:100020000C944C090C944C090C944C090C944C09FC
:100030000C944C090C944C090C944C090C944C09EC
:100040000C944C090C944C090C944C090C944C09DC
:100050000C944C090C944C090C944C090C942B22D4
:100060000C944C090C944C090C944C090C944C09BC
:100070000C944C090C944C090C944C090C944C09AC
:100080000C9475220C944C090C944C090C944C095A
:100090000C944C090C944C090C944C090C944C098C
:1000A0000C944C090C944C090C944C09D5F08D140B
:1000B000A1C881CFD9F1AF20000B0BF8FCFE03DB08
:1000C000DBDB27FEFCF8000103060606060703013A
:1000D000007E436F6E6669726D007E4162616E6480
:1000E0006F6E7E67616D650A7E616E647E72657497
:1000F00075726E3F0020596F757E63616E7E6E6F04
:10010000740A20706C61797E617E626F6E650A2070
:10011000616E647E706173732E007E497E63616ED2
:1001200027747E676F2E7E490A7E77696C6C7E68C5
:100130006176657E746F0A7E706173732E007E49EE
:100140007E63616E27747E676F2E7E490A7E7769B3
:100150006C6C7E647261777E616E0A7E6578747203
:10016000617E626F6E652E00506C61796572200051
:100170003E0B01FFFFFF21233F3E1C03FFFFFF015A
:100180000080400080E07E4F7FFCF0C0010387FFCD
:10019000FFFC0703010001FFFFFF113983C201FFCC
:1001A000FFFF117FFFEEC080C49E3F3FF9FBF3626B
:1001B0000103050505060400000103050505050505
:1001C00006050305050605030505070403050505E2
:1001D00007000004070505050503010605050503DD
:1001E00001060505030204050505030100000503DA
:1001F000010307030105030406070604320031006A
:100200004E756D6265727E6F667E706C6179657227
:10021000737E3F00210BFE12120C00F00808100044
:1002200070A8A8300090A8A8480090A8A84800008E
:100230007CFE87DB87FE7C000000000000000000E1
:1002400000000000000000000000000000000000AE
:10025000000102050505020105050E191D1F0E5BB3
:100260002F0000000000000000000000000000005F
:10027000000000000000000000000000000000007E
:100280000000F80402E191D1F1E101010101010155
:1002900001E191D1F1E10204F8D0A0C0000000001A
:1002A000000000000000000000000000000000004E
:1002B000000000000000000000000000000000003E
:1002C00000000000000000E01008844444C48404DE
:1002D000040404040404844444C4840810FF00009B
:1002E0000001010100003864747C38000001010144
:1002F000000000EF170B874444C484040404040482
:100300000404844444C4840810E0408000000000D9
:1003100000000000000000C0C0C0C0C0C0C0C0C01D
:1003200080800F00000386C7C7C3C0C080000000E4
:10033000C0C3C6C7C70300008FC0C0CEC90DCFCE93
:10034000C0C0C0C000C0C0CEC98D0F0E00C0CFC09D
:10035000C003060787C3C0C0C0C080000003C6C773
:10036000C7C3C0C0CFCFCE0F000080C0C0C0C0C0C8
:10037000C08080FFFFFFFF8080C1FFFFFF3E003E87
:100380007FFFFFE08083FFFF7F3E0080FFFF0F7F46
:10039000FEF81FFFFFFFFF800080FFFFFFFF8000D0
:1003A00080FFFF8F0F1F3E7CF8FFFF00003E7FFFA6
:1003B000FFE08083FFFF7FBE0080FFFFFFFF8CBE5A
:1003C000BEC1E000E7CF9F9FBEFCFDFB73010305AC
:1003D0000909090909090A040201000000010305CD
:1003E00009090A04020081C345CA8401C2C509097A
:1003F00009C9C90A05090909C9C94A4D01C9C90A72
:10040000CDC204C8C907C0C142440A89C949C985C7
:100410000201040A09090909090909050302040A74
:1004200009090905030100000000000000000000A8
:1004300000000000000000000000000000000000BC
:10044000007F7F107F7F007F7F4040007F7F4040A4
:100450000000007F7F0404007F7F001F7F607F1FFC
:10046000007F7F4444003377447D3D00000000005E
:10047000000000000000000000000000000000007C
:100480000000004120FE0105F1F1F111D1B1D111BF
:10049000F1515151515151515151515151515100FD
:1004A00000FF00007F7F09090F06007F7F19396F69
:1004B00046007F7F4949414100266F49497B320010
:1004C000266F49497B32FF0000FFFFFFFEFFFEFF62
:1004D0000279CD95A5CD790111111101F9F901012B
:1004E0000000FF00007F7F09090F06007F7F40406A
:1004F0004040007C7E0B0B7E7C00070F78780F0756
:10050000007F7F3E1C0800FF00001F3F3F33333356
:1005100033333E36363E363E363E36363E36363E51
:10052000360000FF00003E7F41417F3E007F7F0E8E
:100530001C7F7F00000000000000000000000000A1
:1005400000000000000000003F405040404078465E
:10055000414159594141414159594141414141412B
:10056000414100007F000001017F7F0101007C7E8E
:100570000B0B7E7C007F7F09090F06007F7F4949B6
:100580004141000000000000004974737E796F75DE
:10059000727E7475726E00596F757E63616E7E73C4
:1005A000746172740A7468657E6E65777E67616DCA
:1005B000652C001A40FF00808E93979F8E8080806C
:1005C0008080808080808080800000FFAA55FFFFAF
:1005D00000007098B8F870000000000000007098EB
:1005E000B8F8700000FFAA55FFFF0000008080806F
:1005F00000001C262E3E1C0000808080000000FFB2
:10060000AA55FF1F204087898B8F8780808080803C
:10061000808087898B8F8740201F2A4583FC0201B9
:10062000384C5C7C3800000000000000384C5C7CDA
:10063000380102FCAA55FFFF000080C0C0C0800046
:1006400000000000000080C0C0C0800000FFAA556C
:10065000FFFF004043444547434040404040404046
:1006600043444547430000FFAA55FFFF0000000038
:10067000000000000080808000001C262E3E1C0030
:1006800000FFAA55FF1A40FF00000E13171F0E00AF
:100690000000000000000E13171F0E0000FFAA55F7
:1006A000FFFF00010101010101010101010101013F
:1006B0007199B9F9710000FFAA55FFFF0000008091
:1006C000808000001C262E3E1C0000000000000060
:1006D00000FFAA55FF1F204087898B8F878080806D
:1006E00080808080808080808040201F2A4583FC1D
:1006F0000201384C5C7C3800000000000000384CDF
:100700005C7C380102FCAA55FFFF000080C0C0C01D
:1007100080000E13171F0E0080C0C0C0800000FFB5
:10072000AA55FFFF00202324252723202020202056
:10073000202023242527230000FFAA55FFFF0000C7
:100740001C262E3E1C000080808000001C262E3EB1
:100750001C0000FFAA55FF420B030F3FFFF87B1F51
:100760007FFFF0790FC301FFFFFF010003FFFF1EB2
:100770003C78F9FFFF0103FFFF1E3C78F9FFFF0102
:100780000001FFFFFF113983C201FFFFFF117FFF4F
:10079000EEC080C49E3F3FF9FBF3620000000103FE
:1007A000040300010304030001030505070401031A
:1007B00005050604000305060505050700020405F6
:1007C00007000205050505050503060505050305E2
:1007D000040503010204050505030100004618F89D
:1007E00004FAFDFDFDFDFDFDFDFDFDFDFDFDFDFD35
:1007F000FDFDFDFDFDFDFDFDFDFDFDFDFDFDFDFD29
:10080000FDFDFDFDFDFDFDFDFDFDFDFDFDFDFDFD18
:10081000FDFDFDFDFDFDFDFDFDFDFDFDFDFDFDFD08
:10082000FDFDFA04F8FF00FFFFFFFFFFFFFFFFFFE2
:10083000FFFFFFFFFFFFFFFFFFFFFFFFFFFFFFFFC8
:10084000FFFFFFFFFFFFFFFFFFFFFFFFFFFFFFFFB8
:10085000FFFFFFFFFFFFFFFFFFFFFFFFFFFFFFFFA8
:10086000FFFFFFFFFFFFFFFFFF00FFFF00FFFFFF96
:10087000FFFFFFFFFFFFFFFFFFFFFFFFFFFFFFFF88
:10088000FFFFFFFFFFFFFFFFFFFFFFFFFFFFFFFF78
:10089000FFFFFFFFFFFFFFFFFFFFFFFFFFFFFFFF68
:1008A000FFFFFFFFFFFFFFFFFFFFFFFFFFFFFF0057
:1008B000FFFF00FFFFFFFFFFFFFFFFFFFFFFFFFF47
:1008C000FFFFFFFFFFFFFFFFFFFFFFFFFFFFFFFF38
:1008D000FFFFFFFFFFFFFFFFFFFFFFFFFFFFFFFF28
:1008E000FFFFFFFFFFFFFFFFFFFFFFFFFFFFFFFF18
:1008F000FFFFFFFFFF00FF3F40BF7F7F7F7F7F7FC6
:100900007F7F7F7F7F7F7F7F7F7F7F7F7F7F7F7FF7
:100910007F7F7F7F7F7F7F7F7F7F7F7F7F7F7F7FE7
:100920007F7F7F7F7F7F7F3FDFDFDFDFDF3F7F7F77
:100930007F7F7F7F7F7F7F7F7F7FBF403F00000083
:100940000101010101010101010101010101010197
:100950000101010101010101010101010101010187
:1009600001010101010101010101010103040B0B5E
:100970000B0B0B043349B5B54931010101010101EC
:10098000000000492077696C6C20706C61790A74F2
:100990006865202020207E626F6E652E001A200080
:1009A000000000000FF909498949894989498949A5
:1009B00009F90F000000000000000000000000071F
:1009C0000C1932E5CA15CAE532190C0700000000FF
:1009D000000000000000000000F80C060301000009
:1009E000000103060CF800000000000000000000F9
:1009F00000003C27242424242424242424242427E1
:100A00003C00000000000000000000000FF9090990
:100A1000890989098909890909F90F00000000007D
:100A200000000000000000070C1932E5CA55CAE5B5
:100A300032190C0700000000000000000000000058
:100A400000F80C0603010055000103060CF8000035
:100A5000000000000000000000003C2724242424A3
:100A600024242424242424273C0000000000000027
:100A7000000000000FF90909090909090909090914
:100A800009F90F000000000000000000000000074E
:100A90000C1932E5CA95CAE532190C0700000000AE
:100AA000000000000000000000F80C06030100AA8E
:100AB000000103060CF80000000000000000000028
:100AC00000003C272424242624262426242424270A
:100AD0003C00000000000000000000000FF90909C0
:100AE000090909090909090909F90F0000000000AD
:100AF00000000000000000070C1832E4CA54CAE4E9
:100B000032180C0700000000000000000000000088
:100B100000F80C0603810095008103060CF8000024
:100B2000000000000000000000003C2724262526CD
:100B300025262526252624273C000000000000004D
:100B4000000000000FF90909090909090909090943
:100B500009F90F000000000000000000000000077D
:100B60000C1830E4C894C8E430180C0700000000EA
:100B7000000000000000000000F80C060381408A1D
:100B8000408103060CF80000000000000000000097
:100B900000003C2724262526252625262526242731
:100BA0003C00000000000000000000000FF90909EF
:100BB000090909090909090909F90F0000000000DC
:100BC00000000000000000070C1830E0C850C8E02A
:100BD00030180C07000000000000000000000000BA
:100BE00000F80C8643814085408143860CF8000064
:100BF000000000000000000000003C2724262526FD
:100C000025262526252624273C000000000000007C
:100C1000000000000FF90909090909090909090972
:100C200009F90F00000000000000000000000007AC
:100C30000C1830E0C090C0E030180C070000000035
:100C4000000000000000000000F80C8643A140AA4C
:100C500040A143860CF800000000000000000000E6
:100C600000003C2724262526252625262526242760
:100C70003C00000000000000000000000FF909091E
:100C8000090909090909090909F90F00000000000B
:100C900000000000000000070C1830E0C040C0E079
:100CA00030180C07000000000000000000000000E9
:100CB00000F80C8643A150A150A143860CF8000017
:100CC000000000000000000000003C27242625262C
:100CD00025262526252624273C00000000000000AC
:100CE000000000000FF909090909090909090909A2
:100CF00009F90F00000000000000000000000007DC
:100D00000C1830E0C000C0E030180C0700000000F4
:100D1000000000000000000000F80C8643A150A86D
:100D200050A143860CF80000000000000000000005
:100D300000003C272426252625262526252624278F
:100D40003C000000000000000000008040A050288F
:100D50001C2840800000000000000000000000008F
:100D600000081C0A152241808080808000003F60BE
:100D700040404040800000000000000000000000F3
:100D80000000000000013F40942854289448A451DA
:100D90002A140E0400000000000000000000000003
:100DA000000000050E0502010000000000000080A8
:100DB00080808000000000000000000000000000B3
:100DC000000000000080808080FF0000FF01010122
:100DD0000103060C18B0B0180C8643A151A151FFB5
:100DE0000000FF3F20203F10101010180C060301D8
:100DF0000103060C19121512153F20203F000000B8
:100E000000000000000000000000000000000000E2
:100E100000000000000000000000000000000000D2
:100E20000000008040281C2850A0408000000000E6
:100E30000000000000008040404040603F002894D7
:100E4000A894A8944922150A1C0800040E142A51DB
:100E5000A0408000000080403F0100000000000032
:100E600000000000000000000000000102050E0567
:100E7000000000000000000000000000000000046E
:100E8000041C22221C00243E2024322A2414222A5C
:100E9000140C0A3E082E2A2A121C2A2A1002320A90
:100EA00006142A2A14242A120C0509FF8244A85089
:100EB0000100010000FFFE7CB850010001000005A8
:100EC0000950A84482FF000001000150B87CFEFFD9
:100ED00000000100011109FE01552955295529017C
:100EE00029552955295501FE000101010101010182
:100EF0000101010101010101000911FE01FDFDFDDA
:100F0000FDFD01FEFF007E7E7E7E7E00FF00010172
:100F10000101010101000911FE0155A955A9550161
:100F2000FEFF002A542A542A00FF0001010101019A
:100F30000101000911FEFFFFFFFFFFFFFFFEFFFFA2
:100F4000FEFEFEFEFEFFFF000101010101010100A6
:100F50000911FE01010101010101FEFF0001010172
:100F6000010100FF0001010101010101000505006F
:100F7000000000000000040000010000001001005B
:100F800004001011000000111100040011150000F0
:100F900000151109FEFFFFFFFFFFFFFF01FFFFFF2D
:100FA000FFFFFFFFFE00010101010101010101013D
:100FB000010101010100050740404040404040441C
:100FC00040404140404050414044405051404040EA
:100FD00051514044405155404040551109FE0101D6
:100FE00001010101017D01010101010101FE000179
:100FF000010101010101010101010101010100479C
:10100000726561747E776F726B000A2020492077C9
:101010006F6E202100596F757E686176657E7573ED
:1010200065640A75707E616C6C7E6F667E796F7523
:10103000720A626F6E65732100596F757E68617602
:10104000657E757365640A75707E616C6C7E6F6613
:101050007E796F75720A626F6E657321007E497EBC
:10106000686176657E757365640A7E75707E616CF5
:101070006C7E6F667E6D790A7E626F6E657321008D
:1010800004083E09093E3F25251A1E2121123F2151
:10109000211E3F2525213F0505011E21293A3F0438
:1010A000043F213F21001021211F3F040A313F202E
:1010B00020203F02023F3F02043F1E21211E3F0924
:1010C00009061E21112E3F09093622252519013F47
:1010D00001011F20201F0F10201F3F10103F3B0455
:1010E000043B03043807312D2321102A2A3C3F24D6
:1010F00024181C2222141824243F1C2A2A2C043EC3
:1011000005014C52523E3F040438243D200040402B
:10111000443D3F081422213F20003E04043E3E048B
:10112000023C1C22221C7E22221C1C22227E3E0407
:101130000204242A2A12021F22201E20201E0E1022
:10114000201E3E10103E360808364E50503E322AC1
:1011500026221E29251E223F20003229292612215F
:10116000251A0C0A3F08172525191E2525180139AF
:1011700005031A25251A0629291E002F0000002024
:1011800000000229050200040400000201000040E2
:10119000200009061A202020202020201A060900FD
:1011A00001000101FE0001000101000609FE01012C
:1011B0000001000001010001000906160101010102
:1011C000010101161109AA01542954295429005575
:1011D000285528552801AA0001000100010001003E
:1011E00001000100010001001109AA010001000134
:1011F00000010001000100010001AA00010001003E
:101200000100010001000100010001000911AA0113
:1012100054A954A95401AAAA002A542A542A00AA5B
:101220000001000100010001000911AA01000100F4
:10123000010001AAAA00000000000000AA000100AD
:10124000010001000100D62211241FBECFEFDAE019
:10125000DEBFCDBF12E0A0E0B1E0E2E4F8E602C0FC
:1012600005900D92AC30B107D9F727E0ACE0B2E0C1
:1012700001C01D92A334B207E1F719E0C4E2D9E03E
:1012800004C02197FE010E942732C332D107C9F75B
:101290000E9424230C941F340C9400006F927F92C0
:1012A0008F929F92AF92BF92CF92DF92EF92FF9276
:1012B0000F931F93CF93DF93DC01FA0114913196C2
:1012C00054913196C12FD0E0222309F1CC24C3944C
:1012D000D12C852F877011F4D12CC12CE52EE694EA
:1012E000E694E694EC0CFD2CF11CEC9EC001ED9E06
:1012F000900DFC9E900D1124033011F4880F991F5E
:10130000289F7001299FF00C1124EE0DFF1D7D0117
:10131000EC0EFD1E1E141F040CF06BC0A038B105AE
:101320000CF067C0CB01850F911D181619060CF043
:1013300060C0603471050CF05CC0309709F459C08E
:10134000362F3770CB0177FD079623E0959587956B
:101350002A95E1F7282F77FF04C0332311F02FEFF0
:10136000280F662777276A1B7B0BB7FD02C070E04A
:1013700060E090E89A1B40E8E416F1040CF4912F29
:10138000961BE22E022E000CFF08DE2CD0942F3F7D
:101390000CF0D12C41E0852F877009F440E0B52E88
:1013A000B694B694B6944B0DE40EF11C89E0E816A1
:1013B000F10414F048E0421BB42EBD182D0D40E896
:1013C000240370011124AE0DBF1DA60FB71F1D9D74
:1013D000600D711D1124AF01460F571FC32E032E40
:1013E000000CDD08033009F4C7C090F4023009F4A2
:1013F00074C0DF91CF911F910F91FF90EF90DF901C
:10140000CF90BF90AF909F908F907F906F900895F6
:101410000A3FA1F1B20E0B3F61F72B1551F3BD014D
:10142000615C7C4F10E000E0091708F09FC0FA01F2
:10143000E00FF11FE491F0E04F010C2C02C0880C8A
:10144000991C0A94E2F727FD06C0FB018081F82C65
:10145000F0948F218083332361F0273054F47B0193
:10146000F0E8EF0EF11CA92CA094F70180818A21ED
:1014700080830F5F1F4F6F5F7F4FD6CFB20E2B154C
:1014800009F4B7CFBD01615C7C4F10E000E00917A3
:1014900008F066C0FA01E00FF11FE491F0E04F019F
:1014A0000C2C02C0880C991C0A94E2F727FD04C09A
:1014B000FB01808188298083332351F0273044F455
:1014C0007B01F0E8EF0EF11CF70180818929808310
:1014D0000F5F1F4F6F5F7F4FDACF6FEF70E0032E0C
:1014E00002C0660F771F0A94E2F760957095972EF9
:1014F0008B2C820E281509F47CCF8D01015C1C4FCA
:10150000F12CE12CE91630F5FA01EE0DFF1DE49106
:10151000F0E03F010C2C02C0660C771C0A94E2F745
:1015200027FD05C0F8018081862386298083332327
:1015300059F027304CF45801F0E8AF0EB11CF5011A
:101540008081892187298083FFEFEF1AFF0A0F5FCF
:101550001F4FD8CF2F5F4C0F5D1FA058BF4FCACF72
:101560002F5F4C0F5D1FA058BF4F89CF2F5F4C0FCF
:101570005D1FA058BF4F51CFE92EF12CFA01E60FA5
:10158000F71FA15CBC4F60E870E06E197F09CE19AF
:10159000DF098E01000F111F41E050E07A01032E98
:1015A00001C0EE0C0A94EAF7592F4B2D892E932E89
:1015B000CF93DF93ED01EF96EF962296A590C5901D
:1015C000992059F0AE9C5001CE9C600127302CF43C
:1015D000F880D094FD20FB28F99222233AF0FC9069
:1015E000C094FC20FA28FD920C94F70A11965A95A3
:1015F00029F74A9551F0582D23951124E00FF11D3C
:10160000A60FB11DC60FD11DD9CFDF91CF911124E7
:10161000F0CEEFE3F3E0A0E0B8E000800EBC811173
:10162000012C1197A0FDFDCF0192B9F70DB40895DB
:1016300090E0EFE3F3E091119FEF8FEF919391939F
:10164000919391938150D0F70895982F962B69F03C
:1016500090E023E224BD609568BD21EF20938000D7
:101660009093880080938A0008959FEF6FEF8FEF2B
:10167000F0CFCF93DF93A82FFB01E9013091110147
:1016800080910901380F80910E018F3FA9F0809160
:101690000C013150380F832F65E00E940732911101
:1016A00008C08081831728F4308382E08883FA01A0
:1016B000A083DF91CF91089580E0EBCFCF93DF93AC
:1016C000A82FFB01E9013091110180910901380F28
:1016D000809107018F3FE1F0809106013150909198
:1016E0000E019F3FB9F090910C01380F390F832FF5
:1016F00065E00E940732911108C08081831728F4A9
:10170000308381E08883FA01A083DF91CF9108952F
:1017100080E0E4CF90E0E9CF1F93CF93DF93182FC1
:10172000FB01DA01E90180912103823009F148F4DB
:101730003091100132508130F1F0DF91CF911F9143
:101740000895833031F18430C1F780910E0190917A
:101750000C018F3F09F490E0809107018F3FE1F089
:1017600080910601309109013150390F380F03C0C3
:10177000309110013150832F65E00E9407329111A2
:10178000DCCF80818317C8F6308384E088831C9384
:10179000D4CF30910901EECF80E0E4CF1F93CF93F7
:1017A000DF93182FFB01DA01E90150912103533037
:1017B00059F05430C9F030910F013250513031F1AD
:1017C000DF91CF911F910895309111013150832FF6
:1017D00065E00E9407329111F3CF8081831780F773
:1017E000308358831C93ECCF80910E0190910C01B3
:1017F0008F3F09F490E0809107018F3FA1F0809125
:101800000601309111013150390F380F832F65E0F7
:101810000E9407329111D4CF8081831788F63083DC
:1018200083E08883DFCF80E0ECCFCF93DF93A82FD6
:10183000FB01E9013091100180910F01380F315007
:10184000832F65E00E940732911108C080818317C1
:1018500028F4308384E08883FA01A083DF91CF915C
:101860000895AF92BF92CF92DF92EF92FF920F93C3
:101870001F93CF93DF936C017B018B01040F151F26
:10188000EB015E01AE18BF08C017D10759F069918E
:10189000D601ED91FC910190F081E02DC6010995F2
:1018A000892B79F7C501DF91CF911F910F91FF909F
:1018B000EF90DF90CF90BF90AF900895FC010E9411
:1018C000720C319728F068517C4F8F4F9F4FF9CFA2
:1018D000AB01FC010E94720C641775078E079F070D
:1018E000C8F30895ACE1B3E02FB7F8947D918D91E2
:1018F0009C9166B52FBFA89B05C06F3F18F47F5F12
:101900008F4F9F4F22E0660F771F881F991F2A95E0
:10191000D1F70895AB01FC010E94720C41505109AE
:10192000E109F10928F068517C4F8F4F9F4FF6CFA6
:10193000AB01FC010E94720C641775078E079F07AC
:10194000C8F3089520913E03E0913C03F0913D03DC
:10195000CF01029690933D0380933C03222319F01C
:10196000859194910895808191810895CF92DF921D
:10197000EF92FF92CF93DF930E94A20C811520E893
:10198000920791F4809171008D7F80937100109285
:1019900091004698479810920F03DF91CF91FF90E6
:1019A000EF90DF90CF90089521E020930F038130D6
:1019B00020E8920751F480912C0390912D0390938D
:1019C0003D0380933C030E94A20C97FD05C020912B
:1019D0000E03222309F454C020910D03211150C09D
:1019E00021E020931003EC01DF77209709F04BC032
:1019F00081E08093110346983FE9C32E3FE0D32E48
:101A0000E12CF12CCAEFD0E0E0910B03F0910C0334
:101A10000995811103C081E0809311038091100327
:101A2000882329F080911103882309F43FC0479847
:101A30000E94A20C0097F1F19C01DE010E94F83196
:101A4000DC01CB0129E0B595A795979587952A9557
:101A5000D1F7109290002AE020939100D092990043
:101A6000C09298008093120390931303A0931403E1
:101A7000B0931503809171008260809371008DCFC7
:101A800010921003B0CF9E0150E040E060E472E499
:101A90008FE090E00E946D3169017A0181E0C81AFF
:101AA000D108E108F10810921103AECF4699BFCFDB
:101AB000479ABECF8FEF9FEFDC01CBCF9C01E1E7D0
:101AC000F0E090819D7F908310923E03EEE2F3E080
:101AD000F0933D03E0933C03F0932D03E0932C033C
:101AE000318320838EE190E09383828380E090E8CD
:101AF000958384830C94B60C0F930AEF0E944E09D1
:101B00000F9108950F930BEF0E944E090F910895C6
:101B10000F9302E00E944E090F910895962F682FAF
:101B200070E020E04CE052E1911102C049E252E144
:101B300087E190E00C94880D90E020E044EC51E1C6
:101B4000611102C048EE51E167E170E00C94880D2C
:101B500090E00C945E0C8FB18095807F669B8860CE
:101B60001C9B8460089580910A0308958091090365
:101B7000809308030E94AB0D809309030895CF93CF
:101B8000C82F0E94AB0D982F9C2381E09C1380E00E
:101B9000CF91089580E00C94090B80389105B8F43A
:101BA00060347105A0F490E121E061FD24E060FD66
:101BB000220F62FD2295687F969FD0011124A80F05
:101BC000A15CBC4F0C90022A40FF02260C920895A3
:101BD0008F929F92AF92BF92CF92DF92EF92FF923D
:101BE0000F93CF93DF934B01EC015C01A40EB11C6A
:101BF0007B01E20EF11CCA15DB05B4F46401C701D8
:101C000021E4E216F10414F080E490E0C816D9064D
:101C10004CF4402FB601CE010E94CD0D8FEFC81AB3
:101C2000D80AEDCF2196E7CFDF91CF910F91FF90AA
:101C3000EF90DF90CF90BF90AF909F908F900895DE
:101C400080910603882321F01092060380E0089516
:101C50009091180320910703392F321B303138F44B
:101C60003F3091F091E093BF889513BE089581E0D5
:101C70008093060390930703E4E0F3E08081918171
:101C800001968083918381E00895DC011196FC0127
:101C90009C01265F3F4F4D9119964C931997A217BF
:101CA000B307C9F79C01285031094389403229F410
:101CB000138A3197E217F307C1F70B960895CF9374
:101CC000DF93EC016A3059F48D818C838E81998584
:101CD000890F8E8381E090E0DF91CF9108958C8110
:101CE0006E3719F48D5F8C83F5CF262F6E816F5F71
:101CF0002A33A0F4203388F52C3259F148F42132EC
:101D000081F1273281F198859C5F8C81890FEBCF1F
:101D10002D3229F12E32B9F72FE30DC02B3530F4D7
:101D20002134C8F42F3379F720E405C09FE9920FDE
:101D300027549A3140F7062E000C770B082E000C22
:101D4000990B3F8140E850E1313079F40E947C0DDD
:101D5000DACF23E4F0CF2154EECF2C5FECCF21E497
:101D6000EACF2EE3E8CF22E4E6CF0E94820DCBCF6C
:101D70000F931F93CF93DF938C01D0E0C0E0F80165
:101D8000EC0FFD1F6491662341F082E293E00E9414
:101D90005F0E892B11F02196F2CFCE01DF91CF910A
:101DA0001F910F910895089590E080E0089530917B
:101DB0000F0120911001321701F140911201909111
:101DC000110180910B0149131AC090910A019F3FA4
:101DD000B1F45091040150930A013093080120930B
:101DE00009018093040140930F01409310019093E7
:101DF0000B01909312019093110181E0089590914D
:101E0000080140910901941319C08F3F79F5409161
:101E1000040140930B012093120130931101209192
:101E20000A012093040190930F0190931001809375
:101E30000A018093080180930901DFCF8F3FB1F43D
:101E40005091040150930B01309311012093120122
:101E500020910A012093040190930F0140931001F7
:101E600080930A01809308018093090180E008951E
:101E70000E94B60D88E00E94BF0D81110AC084E067
:101E80000E94BF0D811107C084E690E00E945E0CA5
:101E9000F1CF88E0089584E00895CF93DF93D82FA1
:101EA000C0E088E00E94BF0D81110CC084E00E9458
:101EB000BF0D811107C084E690E00E945E0CCF5FE9
:101EC000DC13EFCFDF91CF91089569E180E00E94AC
:101ED000250B84E690E00E945E0C60E080E00C94AC
:101EE000250B60E089E10E94250B84E690E00E94CA
:101EF0005E0C60E080E00C94250B5091210355238B
:101F000059F1E82FF0E0E45AFE4F9081892F829535
:101F10008F709F702091100130910F0123131EC00C
:101F2000281711F0291310C0409109014F3FA1F06B
:101F3000409111014F3F81F040910C014F3F61F002
:101F4000409106014F3F41F0409109014F3FA9F4F4
:101F5000281711F0291315C081E03FC0381711F080
:101F6000391304C0409111014F3FB1F3281711F00C
:101F70002913EACF40910901E5CF481769F34917C2
:101F800059F3409111014F3FC9F4381729F339171C
:101F900019F3543089F430910C013F3FA1F4281714
:101FA000D9F22917C9F2309106013F3F89F4281769
:101FB00099F281E0291789F080E00895481761F2CD
:101FC0004913E7CFC9CF381739F23913ECCFC4CF53
:101FD000381711F281E03913EFCF0895FF920F9374
:101FE0001F93CF93DF9390E0FC01E454FD4FF0800A
:101FF0002CE1289F8001299F100D1124D0E0C0E022
:10200000CF1588F4FE01E00FF11FED59FD4F8081DF
:102010000E947D0F2196882399F3DF91CF911F9124
:102020000F91FF90089580E0F8CF90E0FC01E45418
:10203000FD4F70812CE1289FA001299F500D112494
:1020400030E020E080E0271798F4F901E40FF51F55
:10205000ED59FD4FE081F0E0E45AFE4F9081692F89
:102060006F7092959F70960F890F2F5F3F4FEBCF48
:1020700065E00E940732933028F4982F990F990F4A
:10208000890F089591E0980F892F880F880FF8CF56
:1020900090E0FC01E45AFD4F20818B5A9D4FFC01DA
:1020A0008081280F3327331F81E02730310509F065
:1020B00080E00895E62FF0E0E45AFE4F2081922F51
:1020C0009F70981303C0922F92959F70892F089547
:1020D000E62FF0E0E45AFE4F9081292F2F70929561
:1020E0009F70921719F090E0890F0895982FFCCFF8
:1020F0000F931F93CF93DF9310910E01D0910A019C
:1021000060910B01809104018F3F81F41F3FF1F436
:10211000809107018F3FD1F4DF3FD1F46F3FD9F5B4
:10212000862FDF91CF911F910F9108951F3F71F47A
:10213000809107018F3F51F4DF3F51F46F3F59F514
:1021400060910F0180911001680FEACFDF3FC9F164
:102150006F3F41F1809111010E946810C82F6D2FCF
:10216000809109010E946810082FD0E01F3F31F0D4
:10217000612F80910C010E946810D82F6091070197
:1021800080E06F3F21F0809106010E9468106C2F63
:10219000600F6D0FD9CF809111010E946810C82F78
:1021A00080E006C0C0E06D2F809109010E94681098
:1021B00090910F0160911001961301C0660F8C0F72
:1021C000C3CF6F3F41F7C0E0EBCFBF92CF92DF921A
:1021D000EF92FF920F931F93CF93DF93B82E162F9A
:1021E000622F70E0842F90E0EB0122966C0122E0D8
:1021F000C20ED11C7C012AE0E20EF11C20E000237B
:10220000D9F042E95FE00E947C0D2B2D4DE65FE0A6
:10221000BE01C6010E94820D212F4DE65FE0BE0186
:10222000C701DF91CF911F910F91FF90EF90DF9049
:10223000CF90BF900C94820D4BED5FE00E947C0D1F
:102240002B2D46EB5FE0BE01C6010E94880D212FB9
:1022500046EB5FE0BE01C701DF91CF911F910F9167
:10226000FF90EF90DF90CF90BF900C94880DBF92BD
:10227000CF92DF92EF92FF920F931F93CF93DF9352
:10228000B82E162F622F70E0842F90E06B0122E0B1
:10229000C20ED11CEC0122967B012AE0E20EF11C59
:1022A00020E00023D9F043E35FE00E947C0D2B2D5A
:1022B0004DE65FE0B601CE010E94820D212F4DE672
:1022C0005FE0B701CE01DF91CF911F910F91FF9099
:1022D000EF90DF90CF90BF900C94820D40E55FE0CF
:1022E0000E947C0D2B2D46EB5FE0B601CE010E94D3
:1022F000880D212F46EB5FE0B701CE01DF91CF9132
:102300001F910F91FF90EF90DF90CF90BF900C94B2
:10231000880D6F927F928F929F92AF92BF92CF92D1
:10232000DF92EF92FF920F931F93CF93DF93C82F0B
:10233000762E642E811105C080913702C1E0811193
:10234000C2E000E020E440E867E370E090E080E075
:102350000E94E80D10913602D0E08C2F90E09C0195
:1023600024543D4F5901E12EF12CC2E14CE1489F2C
:102370009001499F300D1124C9018D599D4F4C0189
:102380009D2F910FF5018081981708F5C92ED12C4A
:1023900061104AC0F401EC0DFD1DE081F0E0E45A4B
:1023A000FE4F808101E0971100E0DC9F402D112459
:1023B000465F682F6F7027E382958F700E94E5104B
:1023C000DF5FCE18DF08F5E0CF16D104CCF221E0B4
:1023D000111101C020E04FEB5EE067E370E090E098
:1023E00080E00E94880D8091BD0290E08E199F09C7
:1023F00021E007970CF420E049EA5EE067E370E033
:102400008AE790E00E94880DDF91CF911F910F9194
:10241000FF90EF90DF90CF90BF90AF909F908F9004
:102420007F906F900C94CA0DDC9FC001112420E0B6
:1024300045ED5EE067E370E00A960E94880DC0CF2C
:10244000BF92CF92DF92EF92FF920F931F93CF93A1
:10245000DF93E82EB62ED42EC22E00E025E34FE700
:1024600070E060E08AE390E00E94E80DF12C11E05A
:10247000D0E0CAE38091B702F816A8F46D2F70E09F
:102480008C2F90E020E049EF5EE0FB1411F046E174
:102490005FE00E94880DC65FC73718F0DE5E1F5FE1
:1024A000CAE3F394E7CFF12C80915402F816E0F4DC
:1024B000EF2DF0E0E85CFD4FE081F0E0E45AFE4FE4
:1024C0008081682F6F7000E02D2F4C2F82958F70C8
:1024D0000E943711C65FC73718F0DE5E1F5FCAE380
:1024E000143010F4F394E0CF4C2D6D2D8E2D0E94FE
:1024F0008911DF91CF911F910F91FF90EF90DF90A5
:10250000CF90BF900C94CA0DEF92FF920F931F9340
:10251000CF93DF93E82F262F30E0D901A754BD4F8A
:102520005C91852F64E60E940732C82F852F9CE9B5
:10253000C99F800D11249AE0F92E6F2D0E94073259
:10254000D82F192FE111F5C0411147C024543D4F38
:10255000F901E08000E02FE040E170E060E090E011
:1025600080E00E94E80D2C2F4FE75EE070E060E015
:1025700081E090E00E94880D2D2F4FE75EE070E033
:1025800060E086E090E00E94880D212F4FE75EE03A
:1025900070E060E08BE090E00E94880D8E2D6F2D42
:1025A0000E940732C92F282F4FE75EE068E070E0F5
:1025B00081E090E00E94880D2C2F4FE75EE068E0FC
:1025C00070E086E090E00E94880DDF91CF911F912E
:1025D0000F91FF90EF900C94CA0D809171008D7F48
:1025E0008093710010923E038EE293E090933D033E
:1025F00080933C0390932D0380932C0383E890E019
:1026000090932F0380932E0382E390E09093310305
:102610008093300323E930E0309333032093320377
:10262000909335038093340325EA30E030933703E9
:102630002093360390933903809338030E94B60C9D
:1026400001E027E040E170E060E090E080E00E947F
:10265000E80D2C2F4FE75EE070E060E081E090E055
:102660000E94820D2D2F4FE75EE070E060E086E073
:1026700090E00E94820D212F4FE75EE070E060E065
:102680008BE090E00E94820DA0CF809171008D7F41
:102690008093710010923E038EE293E090933D038D
:1026A00080933C0390932D0380932C0386E091E06C
:1026B00090932F0380932E038EE190E0909331034B
:1026C0008093300326E231E03093330320933203CA
:1026D00090933503809334032AE431E03093370339
:1026E0002093360390933903809338030E94B60CED
:1026F00001E027E040E16CE270E090E080E00E94C1
:10270000E80D2C2F4FE75EE06CE270E081E090E096
:102710000E94820D2D2F4FE75EE06CE270E086E0B4
:1027200090E00E94820D212F4FE75EE06CE270E0A6
:10273000A7CF4111AACF00E027E040E16CE270E0B2
:1027400090E080E00E94E80D2C2F4FE75EE06CE205
:1027500070E081E090E00E94880D2D2F4FE75EE051
:102760006CE270E086E090E00E94880D212F4FE738
:102770005EE06CE270E08BE090E025CFCF92DF92DC
:10278000EF92FF920F931F93CF93DF93182FC62FD3
:10279000D42F00E022E347E370E060E090E080E0C7
:1027A0000E94E80DC11128C040E060E080E00E9476
:1027B000841261E0111162E040E081E00E94841225
:1027C00010912103EE24E394D111E12C111122C0C8
:1027D0006E2D83E10E949C0D40E0609120038C2FC0
:1027E0000E948911DF91CF911F910F91FF90EF907F
:1027F000DF90CF900C94CA0D60E0112321F061E0CE
:10280000C23009F062E040E080E00E94841240E0C3
:102810006C2FD3CFC0901001D0900F01FF24F39400
:10282000D43009F0F12C123089F40F2D27E149E062
:1028300060911201809111010E94E5100E2D27E197
:102840004CE16C2D8D2D0E94E510C6CF143069F43B
:10285000E0910E0101E0D13009F000E0EF3F09F016
:1028600062C0602F85E00E948E0DE0910B01EF3F6A
:1028700009F06CC06F2D81E00E949C0D0E2D27E1A8
:1028800043E16C2D8D2D0E94E510E0910A0101E0DD
:10289000D33009F000E0EF3F09F06DC0602F85E212
:1028A0000E949C0D143009F097CFE091070101E0E0
:1028B000D23009F000E0EF3F09F071C0602F81E2F3
:1028C0000E948E0D89CF26E043E10E94E51020E0B2
:1028D00049EB51E160E170E087E190E00E947C0DFE
:1028E000C4CF0F2D23E141E00E94371120E04BEAD5
:1028F00051E167E170E08BE090E00E947C0DBECF7B
:1029000023E14CE20E94371120E04DE951E167E1FB
:1029100070E085E290E00E947C0DC4CF21E247E1A7
:102920000E94371159CFF0E0E45AFE4F9081609138
:102930000D0180910C01292F22952F709F7029176E
:1029400011F225E047E10E9437118FCFF0E0E45A01
:10295000FE4F90816091120180911101292F2295E3
:102960002F709F70291709F4BCCF0F2D27E141E08C
:102970000E94E51083CFF0E0E45AFE4F9081609111
:10298000090180910801292F22952F709F70291726
:1029900009F4B6CF27E145E20E94E51083CFF0E0CD
:1029A000E45AFE4F90816091060180910501292F24
:1029B00022952F709F702913B1CF28E243E10E9426
:1029C000E51020E042E951E161E270E087E190E04A
:1029D0000E947C0D01CF1F93CF93DF93D62F8111DF
:1029E00023C060E0D11127C0C1E040E060E080E09A
:1029F0000E94841240E06C2F81E00E948412C1E0AA
:102A0000D0E04C2F417060E080E00E9484128AEF99
:102A100090E00E945E0CDF5FCF5FC170D63089F717
:102A2000DF91CF911F91089561E0D23021F0C2E093
:102A3000DD23D9F262E040E080E00E94841240E0B1
:102A40006D2F81E00E948412C1E010E04C2F417094
:102A50006D2F81E00E9484128AEF90E00E945E0C4C
:102A60001F5FCF5FC170163089F7DACFFF920F93E7
:102A70001F93CF93DF93082F162FF42EC62FD0E08D
:102A8000842F90E0223009F4A8C028F5222309F40D
:102A900045C0213009F478C09E0124543D4FF9010E
:102AA0008081682F6150770BAB019CE19C9FB00146
:102AB0009D9F700D11246D597D4FAF2DB0E0A4176F
:102AC000B5070CF0F7C0A60FB71F11969C91119790
:102AD0009C93F394F2CF233009F4A8C02430E1F69C
:102AE00020910B013CE13C9FF0013D9FF00D112432
:102AF000ED59FD4FE80FF91F60812F3F09F0CBC062
:102B000060930B01809104018F3F09F0BFC0809159
:102B100012010E945A1080931101BECF209104012E
:102B20003CE13C9FF0013D9FF00D1124ED59FD4F1C
:102B3000E80FF91F60812F3FA1F460930401E62F95
:102B4000F0E0E45AFE4F8081282F30E094E0359584
:102B500027959A95E1F720930F018F7080931001CC
:102B60009BCF80915402E82FF0E0E85CFD4F20837A
:102B70008F5F8093540260930401809110018093D1
:102B80000F010E945A10EACF20910E013CE13C9FB8
:102B9000F0013D9FF00D1124ED59FD4FE80FF91F95
:102BA00060812F3F59F460930E0180911001809352
:102BB0000D010E945A1080930C016ECF8091540237
:102BC000E82FF0E0E85CFD4F20838F5F8093540294
:102BD00060930E0180910C01EACF209107013CE146
:102BE0003C9FF0013D9FF00D1124ED59FD4FE80F82
:102BF000F91F60812F3F59F4609307018091100104
:102C0000809305010E945A108093060145CF809160
:102C10005402E82FF0E0E85CFD4F20838F5F809343
:102C200054026093070180910601EACF20910A01C6
:102C30003CE13C9FF0013D9FF00D1124ED59FD4F0B
:102C4000E80FF91F60812F3F91F460930A01809192
:102C500004018F3F39F4809108010E945A1080933B
:102C600009011ACF8091100180930801F6CF80915D
:102C70005402E82FF0E0E85CFD4F20838F5F8093E3
:102C8000540260930A0180910901EECF80910F01F7
:102C9000809312013ECF80915402E82FF0E0E85C6F
:102CA000FD4F20838F5F8093540260930B018091CE
:102CB0001101EECF9CE19C9FF0019D9FF00D11242E
:102CC000ED59FD4FE40FF51F10828150F90180830B
:102CD00080912103813009F43EC088F18230D9F11E
:102CE000833009F43EC04FEF612F802F0E94BE1346
:102CF0000E947810282F65E00E94073291113FC092
:102D00002223E9F120E0409120036FEF812F0E9400
:102D100020120E947810C754DD4F9881890F888354
:102D2000612F802F0E94EB1440E060912003812FDF
:102D3000DF91CF911F910F91FF900C948911909189
:102D40000F0180911001981302C083E001C081E05F
:102D500080932103C8CF0E94D70E8111F6CF82E065
:102D6000F7CF80910B018F3F81F3809104018F3F5A
:102D700061F380910A018F3F41F384E0E9CF20E0C5
:102D8000409120036FEF812FDF91CF911F910F9121
:102D9000FF900C942012BF92CF92DF92EF92FF929D
:102DA0000F931F93CF93DF93B82ED62FC42F6901B3
:102DB00080912103833041F1843009F43DC081309A
:102DC000B9F4842F0E94481081111CC091E0B11009
:102DD00092E080910F019C9F800D1124F60190815B
:102DE000891730F4808383E0F7018083F801D08372
:102DF000DF91CF911F910F91FF90EF90DF90CF90D7
:102E0000BF90089580E0EACF842F0E94481081117E
:102E10002CC080910B018F3F61F480911001909143
:102E20000F01890FC80FF6018081C81708F7C0830A
:102E3000DACF80911101F6CF842F0E9448108111C2
:102E400014C080910E0190910C018F3F09F490E025
:102E5000809107018F3F39F0809106012091110187
:102E6000C20FC90FDFCF80E0F9CFC0E0DCCFBF9247
:102E7000CF92DF92EF92FF920F931F93CF93DF9346
:102E8000B82ED62FC42F690180912103823051F1D1
:102E900060F48130A9F1DF91CF911F910F91FF90E4
:102EA000EF90DF90CF90BF900895833009F443C036
:102EB000843089F7842F0E944810811150C080917E
:102EC0000E0190910C018F3F09F490E08091070171
:102ED0008F3F09F442C08091060120910901C20F81
:102EE000C90F07C0842F0E944810811138C08091FB
:102EF0001001C80FF6018081C81768F6C08313C09F
:102F0000842F0E944810811114C091E0B11092E00A
:102F1000809110019C9F800D1124F60190818917EA
:102F200008F0B9CF808384E0F7018083F801D08373
:102F3000B2CF80E0F2CF842F0E94481081110FC0E1
:102F400080910A018F3F31F48091100190910F011F
:102F5000890FCFCF80910901CCCF80E0BECFC0E0F8
:102F6000C9CFCF92DF92EF92FF920F931F93CF932F
:102F7000DF93D82FC62F7A016901862F0E9448104F
:102F800060E081110DC06091110180910901680F0D
:102F900080910E018F3FB9F080910C016C0F680F8A
:102FA000F7018081681730F4608382E0F801808344
:102FB000F601D083DF91CF911F910F91FF90EF9099
:102FC000DF90CF90089580E0E9CFCF92DF92EF922B
:102FD000FF920F931F93CF93DF93D82FC62F7A01C1
:102FE0006901862F0E94481060E081110DC0609138
:102FF000110180910901680F809107018F3FB9F09D
:10300000809106016C0F680FF7018081681730F41A
:10301000608381E0F8018083F601D083DF91CF9156
:103020001F910F91FF90EF90DF90CF90089580E077
:10303000E9CF0F93CF93C82F00E025E34FE770E06F
:1030400060E08AE390E00E94E80DC230A9F463E0FA
:10305000C7E170E020E04DED57E08AE390E00E9488
:103060007C0D6C2F70E021E04DED57E08AE390E09D
:10307000CF910F910C947C0D62E0CAE1EACF1F93CF
:10308000CF93DF93EC01162F862F0E941918109210
:10309000290387E0123009F48AE09EE39093270326
:1030A00090932603809328034C815D816881798108
:1030B00082E293E00E94310C81E080932903DF914A
:1030C000CF911F910895FF920F931F93CF93DF939A
:1030D0008C01F62EC42FD22F84EF91E00E945E0C5B
:1030E0008F2D0E9419181092290382E0F81639F1E9
:1030F00087E09EE390932703909326038093280311
:10310000F801448155816081718182E293E00E94DF
:10311000310C81E0809329030E94CA0DD33089F0DD
:103120006D2F809137020E94EB1485E0CC2361F073
:10313000DF91CF911F910F91FF900C94380F8AE08F
:10314000D8CF84E1C111F4CFDF91CF911F910F91BE
:10315000FF900C944D0FEF92FF920F931F93CF931C
:10316000DF93C82F00E025E34FE770E060E08AE3DB
:1031700090E00E94E80DD2E093E0E92EF12C0E944D
:10318000200E882341F183E00E9419181091350226
:10319000212F4DE959E067E070E081E590E00E9461
:1031A000820D8091040390910503B7010E941332B0
:1031B000892B19F41F5F10933502809135028C30F2
:1031C00028F4D13009F05BC0893019F4D150109245
:1031D00035020E94CA0D88E00E94BF0D811107C010
:1031E00084E00E94BF0D811102C0D111C8CF10929E
:1031F000350283E00E941918109229038EE3809310
:103200002703809326038AE08093280383E899E0CC
:103210000E94B80EEC2FF0E0E45AFE4FC08120E08F
:103220004BED5FE065E170E080E590E00E94820D8B
:103230002C2F30E084E0359527958A95E1F746EB11
:103240005FE067E170E082E590E00E94820D2C2F44
:103250002F7046EB5FE067E170E08AE590E00E9446
:10326000820D81E0809329030E94CA0D84E1DF91E1
:10327000CF911F910F91FF90EF900C944D0FD2E0E2
:10328000A8CF20E045E856E070E060E081E090E003
:103290000E94880D20E043EB55E070E060E085E699
:1032A00090E00C94880D8F929F92AF92BF920F93F3
:1032B0001F93CF93DF93CDB7DEB7A1970FB6F894E6
:1032C000DEBF0FBECDBF19A2423008F44AE08E0126
:1032D0000F5D1F4F842E912CB12CA12CA5019401C0
:1032E0000E94D631E62FB901CA01EA3044F5E05D0B
:1032F000D801EE938D01232B242B252B79F790E019
:1033000080E0109769F0FD0101900020E9F7319706
:10331000AF014A1B5B0BBD0182E293E00E94310CBE
:10332000A1960FB6F894DEBF0FBECDBFDF91CF914F
:103330001F910F91BF90AF909F908F900895E95C7F
:10334000D7CF009769F0FC0101900020E9F7319791
:10335000AF01481B590BBC0182E293E00C94310C85
:1033600090E080E00895EF92FF920F931F93CF9328
:10337000DF9300D01F92CDB7DEB7062F9C0197FFD9
:1033800003C0319521953109EAE0F0E0C901BF01A0
:103390000E9413328983CB01BF010E9413328A83BA
:1033A000C90164E670E00E941332CB01BF010E94A4
:1033B00013328B837E0184E0E80EF11C12E510933A
:1033C00027031093260300932803F70162917F01DE
:1033D00070E090E080E04AE00E9453191B5F1136D4
:1033E00071F70F900F900F90DF91CF911F910F9178
:1033F000FF90EF9008951F93CF93DF93182F40E035
:10340000682F81E00E948412C1E0D0E04C2F41700F
:10341000612F81E00E9484128AEF90E00E945E0C8E
:10342000DF5FCF5FC170D63089F7DF91CF911F91F9
:1034300008950F931F93CF93DF93EC0188819981B7
:10344000009759F02A813B812617370730F081E039
:10345000DF91CF911F910F9108958B016F5F7F4F87
:103460000E945233009759F0998388831B830A8303
:103470002C813D81232B59F7FC011082E8CF80E09D
:10348000E7CFCF93DF93EC0188819981009711F00A
:103490000E94C932198218821D821C821B821A82E4
:1034A000DF91CF910895FC0180819181009711F007
:1034B0000C94C9320895EF92FF920F931F93CF930C
:1034C000DF93EC018B01198218821B821A821D8204
:1034D0001C82CB010E943C317C01BC01CE010E94C8
:1034E000191A811109C0CE01DF91CF911F910F915F
:1034F000FF90EF900C94411AFD82EC82B801888114
:103500009981DF91CF911F910F91FF90EF900C94D3
:1035100035311F93CF93DF9300D000D000D0CDB7CB
:10352000DEB7182F80910301813009F460C081E07B
:10353000809303019091370260E0992321F062E0CB
:10354000823009F461E040E080E00E94841240E0B3
:103550006091030181E00E94841241E06FEF80914D
:1035600003010E948911112309F443C067E975E042
:10357000CE0101960E945B1A63E0CE0101960E9483
:103580003F18CE0101960E94531A8FE380932703C0
:10359000809326038FE18093280310922903E09102
:1035A0000301F0E0EE0FFF1FEE5DFE4F8081918181
:1035B0000E94450E0E94A11980EC91E00E94A11981
:1035C00081E0809329030E94CA0D0E94B60D88EC09
:1035D0000E944D0F88E08093B80226960FB6F894AB
:1035E000DEBF0FBECDBFDF91CF911F91089582E066
:1035F0009FCF69E875E0CE0101960E945B1A62E0F8
:10360000CE0101960E943F18CE0101960E94531AE6
:103610008FE3809327038093260387E1BCCFCF926B
:10362000DF92EF92FF920F931F93CF93DF9300D01F
:1036300000D000D0CDB7DEB7D62EC42E1A821982A4
:103640001C821B821E821D82FC01008111810115DA
:10365000110569F0E480F580B701CE0101960E9462
:10366000191A81111EC0CE0101960E94411A23E051
:103670004C2D6D2DCE0101960E946318CE0101964E
:103680000E94531A26960FB6F894DEBF0FBECDBF28
:10369000DF91CF911F910F91FF90EF90DF90CF902E
:1036A0000895FE82ED82B80189819A810E941834C2
:1036B000DECFCF93DF9300D000D000D0CDB7DEB700
:1036C000E1E0882311F081E0E2E0A82FB0E0A75408
:1036D000BD4F9C91953680F4F0E0E754FD4F80811A
:1036E000853618F580E026960FB6F894DEBF0FBE3B
:1036F000CDBFDF91CF910895811117C06AE070E1CD
:10370000CE0101960E945B1A41E063E0CE01019672
:103710000E940F1BCE0101960E94531A0E94B60D03
:1037200088EC0E944D0F81E0DECF6FEF7FE0CE018D
:1037300001960E945B1A63E0CE0101960E943F1839
:10374000CE0101960E94531A8FE380932703809342
:10375000260384E18093280310922903E09103015A
:10376000F0E0EE0FFF1FEE5DFE4F808191810E9421
:10377000450E0E94A11988E791E00E94A11981E0FD
:10378000809329030E94CA0DC9CFEF92FF920F9335
:103790001F93CF93DF93EC017B01198218821B8268
:1037A0001A821D821C82FB0101900020E9F73197EB
:1037B0008F01061B170BB8010E94191A811109C04D
:1037C000CE01DF91CF911F910F91FF90EF900C945C
:1037D000411A1D830C83B70188819981DF91CF91B4
:1037E0001F910F91FF90EF900C941834EF92FF927D
:1037F0000F931F93CF93DF93CDB7DEB7A9970FB683
:10380000F894DEBF0FBECDBFF12CEE24E3948823E5
:1038100021F0FF24F39482E0E82E0F2D10E0F80150
:10382000E454FD4F8F2D91919111C7C093E2E4E8CC
:10383000F1E0DE01119601900D929A95E1F7811168
:103840002BC08E2D0E941510F801E754FD4F90817A
:10385000890F80836DE570E1CE0184960E945B1A2A
:1038600020E041E063E0CE0184960E946318CE011F
:1038700084960E94531A84E08093B80281E0A9964E
:103880000FB6F894DEBF0FBECDBFDF91CF911F9171
:103890000F91FF90EF900895813009F04BC0E8162A
:1038A000C1F182E00E941510082F10E069E370E179
:1038B000CE0184960E945B1A41E063E0CE018496BB
:1038C0000E940F1BCE0184960E94531AC801043631
:1038D000110508F56AE070E00E941332605D688FA0
:1038E000805D898F80E28A8F81E0F81202C0EE2429
:1038F000E394EE2DF0E0E754FD4F8081080F008344
:10390000BE016F5F7F4FCE0184960E94C51B21E0F0
:10391000A8CF8F2DC7CF64E670E00E941332605DA0
:10392000688F8C016AE070E00E941332605D698FDD
:10393000805DD9CF8F2D0E941510082F10E065E112
:1039400070E1CE0184960E945B1A22E041E063E0C0
:10395000CE0184960E946318CE0184960E94531A69
:10396000C80104361105D0F46AE070E00E941332F9
:10397000605D6A8F805D8B8F80E28C8FEE2DF0E032
:10398000E754FD4F8081080F0083BE016F5F7F4FBA
:10399000CE0184960E94C51B22E063CF64E670E0EE
:1039A0000E941332605D6A8F8C016AE070E00E94B1
:1039B0001332605D6B8F805DE0CF8F5FE81608F09B
:1039C00032CF80E05CCFEF92FF920F931F93CF93A3
:1039D000DF93CDB7DEB7A1970FB6F894DEBF0FBE69
:1039E000CDBF00E0EE24E394882319F001E082E0EB
:1039F000E82E8091B702811169C0802F0E94EE0FDE
:103A0000182F811129C08E2D0E94EE0F182F8111C1
:103A100023C0802F0E941510F82E8E2D0E941510A5
:103A20009BE1E7EAF1E0DE01119601900D929A9593
:103A3000E1F7F8121FC0BE016F5F7F4FCE014C96B9
:103A40000E94C51B41E062E0CE014C960E940F1B14
:103A5000CE014C960E94531A812FA1960FB6F8946E
:103A6000DEBF0FBECDBFDF91CF911F910F91FF90B1
:103A7000EF9008958F15B8F4EE2DF0E0E754FD4F68
:103A80009081F90EF81AF082BE016F5F7F4FCE0170
:103A90004C960E94C51B2E2D41E062E0CE014C9653
:103AA0000E946318D5CFF81688F4E02FF0E0E754B1
:103AB000FD4F9081890F8F198083BE016F5F7F4F0B
:103AC000CE014C960E94C51B202FE6CF11E0C4CF3B
:103AD0000C9445318F929F92AF92BF92CF92DF921A
:103AE000EF92FF920F931F93CF93DF93CDB7DEB783
:103AF0002A970FB6F894DEBF0FBECDBF5C01CE0192
:103B000001967C014E019AE0890E911C87016B01A0
:103B1000CE18DF08C601800F911F0E94681DF801B2
:103B200081938F01E815F905A9F71A868AE0F70154
:103B3000D50101900D928A95E1F72A960FB6F89477
:103B4000DEBF0FBECDBFDF91CF911F910F91FF90D0
:103B5000EF90DF90CF90BF90AF909F908F9008959F
:103B60000F931F93CF93DF938C01EB010E9445319C
:103B70008883C80101960E9445318983CE01DF9177
:103B8000CF911F910F910895CF93DF9300D0CDB7C0
:103B9000DEB71A821982BE016F5F7F4F0E94B01D8F
:103BA00089819A810F900F90DF91CF9108950F93A3
:103BB0001F93CF93DF93809164008E7F8093640086
:103BC00080917A00806480937A0080917A0086FDEB
:103BD000FCCFC0917800D09179000E94720CAB01AB
:103BE000BC01CE01B0E0A0E0DC01992788278C0160
:103BF0009D01040F151F261F371FC901B801209111
:103C000064002160209364006115710581059105B0
:103C100031F0DF91CF911F910F910C942C31DF91F6
:103C2000CF911F910F9108951F93CF93DF93EC01D4
:103C3000162F0E944531181739F0612FCE01DF9100
:103C4000CF911F910C945F31DF91CF911F91089517
:103C5000EF92FF920F931F93CF93DF937C0129E0A4
:103C6000E20EF11CEC018B01081B190B6981C801E4
:103C70008C0F9D1F0E94141E2196CE15DF05B1F7F3
:103C8000DF91CF911F910F91FF90EF900895AF9228
:103C9000BF92CF92DF92EF92FF920F931F93CF9339
:103CA000DF93EC017B017E8B6D8B18826C0189E0C8
:103CB000C80ED11C8E015B01AC1ABD0AC501800F74
:103CC000911F0E94681DF80181830F5F1F4F0C1523
:103CD0001D05A1F78A818032D9F08F7D81548A3108
:103CE000B8F0FE013196CE010A9620E221938E179C
:103CF0009F07E1F7B701CE01DF91CF911F910F919F
:103D0000FF90EF90DF90CF90BF90AF900C94281E63
:103D1000DF91CF911F910F91FF90EF90DF90CF90A7
:103D2000BF90AF900895FF920F931F93CF93DF93AF
:103D3000EC018B01FB01F0800E944531F81621F067
:103D40006F2DCE010E945F31F801F1802196CE01E6
:103D50000E944531F81621F06F2DCE010E945F318F
:103D6000C801DF91CF911F910F91FF9008954F925D
:103D70005F926F927F928F929F92AF92BF92CF92FB
:103D8000DF92EF92FF920F931F93CF93DF9300D0B8
:103D900000D000D01F92CDB7DEB7082F81E991E0A7
:103DA0000E94681D182F82E991E00E94681D011190
:103DB00005C0143419F4813409F46AC064E481E95B
:103DC00091E00E94141E61E482E991E00E94141EB9
:103DD00003E911E060E0C8010E94141E0F5F1F4F4D
:103DE000083F81E01807B1F794E5892E91E0992EFC
:103DF0002CE4A22E21E0B22E34E4C32E31E0D32EE7
:103E00004CE3E42E41E0F42E54E5652E51E0752E8E
:103E100064E3462E61E0562E0EE911E060E2C8012F
:103E20000E94141E60E2C8010A960E94141EF4014A
:103E300061914F01C8010B970E94141EF501619119
:103E40005F01C8014D960E94141EF60161916F0139
:103E5000C80187960E94141EF70161917F01C80175
:103E6000C1960E94141EF30161913F01C801CB96D7
:103E70000E94141EF20161912F01C8018B5B9F4FBC
:103E80000E94141E0F5F1F4F063AF1E01F0731F624
:103E900085E0EDE1F1E0DE01119601900D928A9549
:103EA000E1F78E010F5F1F4F8DEEE82EFF24F39494
:103EB000F80181918F0190E09F838E83BE016A5F3C
:103EC0007F4FC7010E94931EF2E0EF0EF11C87EFB7
:103ED000E81681E0F80661F727960FB6F894DEBF82
:103EE0000FBECDBFDF91CF911F910F91FF90EF904B
:103EF000DF90CF90BF90AF909F908F907F906F900A
:103F00005F904F9008952F923F924F925F926F92E1
:103F10007F928F929F92AF92BF92CF92DF92EF9259
:103F2000FF920F931F93CF93DF93CDB7DEB7E29746
:103F30000FB6F894DEBF0FBECDBF8C0160E080E00D
:103F40000E94250B55245A940115110509F417C137
:103F5000C8010E94450E6C0118A21F8E0DEE11E0E3
:103F60007BEBE72EFF24F39455245A94412C5C01FB
:103F70008AE0A80EB11CB701CE0101960E946A1D0D
:103F8000C8010E94C41D98A38F8FDE0111961601EF
:103F9000F60121E04D913191431320E0EA15FB0534
:103FA000C9F7222309F470C0019698A38F8FBE0130
:103FB000615E7F4FC8010E94931E042D10E0000F28
:103FC000111F03511E4FEAE04E9E30011124542C64
:103FD000442009F4D4C0C8010E94C41D7C016801BA
:103FE000F2E0CF1AD108C6010E94C41DE816F906F6
:103FF00008F444C0730185E4E81A8EEFF80A43011F
:10400000EBE38E1AEEEF9E0AC7010E94681D382E60
:104010005701FAE0AF1AB108C5010E94681D682F68
:10402000C7010E94141E632DC5010E94141E8FEF4C
:10403000E81AF80A8E149F0439F71E8A1D8A1C8616
:104040001B86BE016B5E7F4FC8010E94B01DBE0182
:10405000655F7F4FC6010E94B01DBE01655F7F4F47
:10406000C8010E94931EBE016B5E7F4FC6010E9475
:10407000931E451003C055245A94540C4A9486014B
:10408000EAE06E1A7108A4CF029720F4FFEF5F12E6
:1040900001C0542C43948AE0E80EF11C0E5F1F4FC0
:1040A000E5E04E1268CFFFEF5F1609F468C03EE10D
:1040B000A32EB12C08E210E043EFC42EDD24D394EC
:1040C00054E0452E5414A8F578018FE4E81A8EEFD9
:1040D000F80A3801E5E46E1AEEEF7E0A48018A1804
:1040E0009B08C7010E94681D682FC4018E0D9F1D8B
:1040F0000E94141EFFEFEF1AFF0AE614F70489F777
:104100001C861B86BE01655F7F4FC6010E94B01DE5
:10411000BE01655F7F4FC60102960E94931E4A94BE
:1041200082E0C81AD1080A501109EAE0AE1AB108B3
:10413000C9CFFAE05F9E80011124780185E4E81A76
:104140008EEFF80A0C531E4FF10161911F01C70158
:104150000E94141EFFEFEF1AFF0AE016F106A1F706
:1041600081E090E098A38F8F852D90E0880F991FB4
:10417000BE01615E7F4F83519E4F0E94931E6BEB89
:1041800071E0CE0101960E946A1D65EC71E0CE01DE
:104190000B960E946A1D6FEC71E0CE0145960E945D
:1041A0006A1D69ED71E0CE014F960E946A1D63EEB3
:1041B00071E0CE0189960E946A1D8DEE91E00E9409
:1041C000C41D8C018FEE91E00E94C41D7C0181EF23
:1041D00091E00E94C41D6C0183EF91E00E94C41D18
:1041E0005C0185EF91E00E94C41D4C0133243A9498
:1041F000612C80E2782E9DE1292E8091B8028730D3
:1042000009F010C10E94200E811106C064E170E027
:1042100080E090E00E948A0C0E94B60D8091090314
:1042200040900803409448228076803609F0CAC046
:10423000639485E1681640F0ECE3E61508F077C07A
:10424000FDE36F1609F47CC043FE03C081E0809358
:10425000B802809104039091050368E370E00E9426
:104260001332482E332029F0882329F03A94311054
:1042700002C055245A940E94411920E047E557E0B6
:1042800063E070E08FE190E00E94880D8CE184157E
:1042900008F4A1C051109FC07092270370922603AA
:1042A00020922803CE010B960E94A1196DE1C7014F
:1042B0000E94B319ECE1E41508F0A5C07092270341
:1042C00070922603F6E2F0932803CE0145960E94F1
:1042D000A11966E2C6010E94B3198CE1841508F0A9
:1042E00097C07092270370922603FFE2F093280391
:1042F000CE014F960E94A1196FE2C5010E94B31929
:104300008CE1841508F089C070922703709226030F
:10431000F8E3F0932803CE0189960E94A11968E37F
:10432000C4010E94B31981E00E94090B66CF60E0CE
:1043300080E490E086199109880F0E94250B84CFB4
:1043400060E080E00E94250B81E00E94B71E6BEBCD
:1043500071E0CE0101960E946A1D65EC71E0CE010C
:104360000B960E946A1D6FEC71E0CE0145960E948B
:104370006A1D69ED71E0CE014F960E946A1D63EEE1
:1043800071E0CE0189960E946A1D8DEE91E00E9437
:10439000C41D8C018FEE91E00E94C41D7C0181EF51
:1043A00091E00E94C41D6C0183EF91E00E94C41D46
:1043B0005C0185EF91E00E94C41D4C01612C5524E5
:1043C0005A9442CF662009F43FCF60E080E00E941B
:1043D000250B612C39CF7092270370922603F4E1EC
:1043E000F0932803CE0101960E94A11964E1C8014F
:1043F0000E94B3198CE1841508F44ECFE1E05E16FB
:1044000009F45CCF49CFE2E05E1609F46ACF56CFDB
:10441000E3E05E1609F478CF64CF84E0581609F41F
:1044200082CF72CFE2960FB6F894DEBF0FBECDBF3B
:10443000DF91CF911F910F91FF90EF90DF90CF9080
:10444000BF90AF909F908F907F906F905F904F90B4
:104450003F902F9008950F920FB68F939F93EF93F5
:10446000FF93809117038D5F8D3708F08D578093F0
:104470001703E8E1F3E080818E4F808391819F4FA5
:10448000918382818F4F828383818F4F8383ECE17D
:10449000F3E080818F5F808381818F4F8183828170
:1044A0008F4F828383818F4F83838FB18F60669913
:1044B0001C9B88278F3681F480911603981B9630B9
:1044C00068F0E0E0F8E087E78083818388E180930B
:1044D0006000F0936000FFCF90931603FF91EF917F
:1044E0009F918F910FBE0F9018951F920F920FB64C
:1044F0000F9211242F933F934F935F936F937F936A
:104500008F939F93AF93BF93EF93FF938091120389
:1045100090911303A0911403B0911503892B8A2B5A
:104520008B2B09F440C08091110381110BC088B11D
:1045300090E4892788B980911003882319F088B105
:10454000805888B98091120390911303A0911403AD
:10455000B0911503181619061A061B069CF48091D3
:10456000120390911303A0911403B09115030197C6
:10457000A109B1098093120390931303A09314032C
:10458000B0931503FF91EF91BF91AF919F918F91E0
:104590007F916F915F914F913F912F910F900FBE3F
:1045A0000F901F9018950E94B60CECCF1092250327
:1045B000109224038CE291E09093230380932203D2
:1045C0008BE080932B0381E080932A0310922703D2
:1045D0001092280310922603809329031092ED0273
:1045E0001092F702EEEEF2E080E2819392E0E73F74
:1045F000F907D9F71092D6021092E002E7EDF2E047
:1046000080E2819392E0E03EF907D9F71092BF0271
:104610001092C902E0ECF2E089EC92E020E22193F2
:104620008E179F07E1F783EB9DE090930C03809337
:104630000B0380E090E890933B0380933A03469805
:104640003E9A47983F9A0895CDB7DEB7E097DEBF10
:10465000CDBF91E09093E0001092E2001092E10053
:1046600080E28093D8001092D70080916500806826
:1046700080936500789483E084BD83E085BD90934A
:104680006E00E1E8F0E083E08083E0E881E0808391
:10469000E1E983E08083E0E981E08083E1EC87E089
:1046A0008083E3EC81E08083E0EC82E08083E2ECD5
:1046B00081E08083EAE787E080838068808381EC03
:1046C00080937C0081E185B987E684B984E38BB966
:1046D0008FE38AB9769A6E9880EF81BB10BA80E535
:1046E0008CBD9DBD85E00E94A80D599A85E00E9471
:1046F000A80D5C98ECEAF0E085918EBD00000DB449
:1047000007FEFDCFE93BC1F75C9A81E88093640026
:1047100081E08093650080E10E94BF0D8823A9F0AD
:104720005C9885EA8EBD00000DB407FEFDCF5C9A53
:104730002E9858982D988091640080628093640030
:1047400081E083BF889513BEFCCF84E00E94BF0D3B
:104750008823C9F12E9A589A2D9884E10E94BF0DA2
:104760008823A1F02D9A88EC0E94A80D58986FEF2D
:1047700082E090E00E944D3184EF91E00E945E0C57
:10478000589A84E10E94BF0D8111FBCF84E80E94FA
:10479000BF0D8823A1F02D9A88EC0E94A80D2E98B9
:1047A00060E082E090E00E944D3184EF91E00E9451
:1047B0005E0C2E9A84E80E94BF0D8111FBCF88EC1D
:1047C0000E94A80DC2CF2E9858982D980E94D71DF0
:1047D00080E00E94B71E83E48093EE028FE6809310
:1047E000EF028DE68093F00280E78093F10285E787
:1047F0008093F20284E78093F30285E68093F402CB
:1048000082E78093F5021092F60282E090E00E9427
:10481000681D8823F9F03E9A579A81E080930A0335
:104820000E94200E582E8823D9F30E94B60DE091E5
:10483000B802E83010F00C94C02CF0E0EE5DFB4DB7
:104840000C9427320D257025A32C74262F24BF2706
:104850009E2C6F2610920A033E985798E1CF0CE1E8
:10486000A3E6EA2EA2E0FA2EBCEBCB2EB2E0DB2EC2
:1048700013E0B12E1FEF8091B802843089F6E6E193
:10488000F2E0202F11922A95E9F7A8E3B2E0E02F99
:104890001D92EA95E9F7109221031092B702109247
:1048A000540210923602D701E02F1D92EA95E9F7E3
:1048B000D601EB2D1D92EA95E9F710922003109393
:1048C000010110930E011093070110930A01109338
:1048D0000B011093040110930D0110930501109327
:1048E00008011093120110930C011093060110930C
:1048F00009011093110110930F01109310010E94F0
:10490000D71D26E1822E22E0922EE8E3F2E0D401C8
:1049100080E08D9311928F5F8C31D9F79CE1492E05
:10492000512C612C712C0E94DD30A30192010E9458
:104930006D31E62FF0E0EA5EFD4F8081D4015B9699
:104940009C915B9790835B968C93B1E04B1A5108D6
:1049500061087108E1E08E1A9108F1E04F165104E8
:104960006104710401F710925402A090370261E0D3
:1049700082E0882EA11003C060E088248394D701D0
:10498000E02F1D92EA95E9F7D601EB2D1D92EA95ED
:10499000E9F7262F30E0D901A454BD4F029FC00192
:1049A000039F900D11248D599D4F7BE19D9030E028
:1049B00020E0AC01420F531FE72FE21BF0E0EA5E5C
:1049C000FD4F7080FA0170822F5F3F4F2730310515
:1049D00081F77750FD01319727E0290D20836F5F24
:1049E0004C96861618F77093B7020E94180B909099
:1049F000030121E0409120036FEF892D0E942012D6
:104A000085E0911088E08093B802A110B4C24FEF06
:104A1000692D80E00E94BE132ECF10E001E070E609
:104A2000E72EF12CE5EADE2EF5E9CF2E8091B802D3
:104A30008111F6CE0E94200E811106C065E070E063
:104A400080E090E00E948A0C0E94B60D80910803DD
:104A5000809590910903892311F40C945D30112302
:104A600011F40C94523014E18091040380FD05C0D0
:104A70001F5F153111F40093B80220E043E854E0C1
:104A800060E170E080E290E00E94880D8091040374
:104A900090910503B7010E941332803320F48831CE
:104AA00088F081E310C08834C8F481E58093F30472
:104AB000807A21F4D092EC04C092ED0481E00E944F
:104AC000090BB4CF81E110921A0510921B051092C8
:104AD0001C0510921D0510921E05E8CF81E9E6CF56
:104AE000E9EBF2E083E0DF011D928A95E9F700E04F
:104AF000C12CE12CF12C27E0722E9924939430E103
:104B0000832E44E3B42E53E0652E6CE6D62E8091BE
:104B1000B802813009F084CE0E94200E811106C0B7
:104B200064E170E080E090E00E948A0C0E94B60D83
:104B30001091080310958091090318230E94180B07
:104B400020E04FE552E062E070E083E190E00E94F7
:104B50007C0D80913402882361F0813009F45FC0BC
:104B60000E94CA0D002399F2015089F6C12CE12C54
:104B7000CECFB6E3BF1508F050C020E048E552E0C4
:104B80006AE270E083E290E00E947C0D20E048E55C
:104B900052E06AE270E08AE590E00E947C0DEDE66A
:104BA000EF15D8F520E048E552E06AE270E08BE1CD
:104BB00090E00E947C0D20E048E552E06AE270E05F
:104BC00082E690E00E947C0DF4EAFF1530F520E0CB
:104BD00048E552E06AE270E083E190E00E947C0DDB
:104BE00020E048E552E06AE270E08AE690E00E9448
:104BF0007C0D2FEAF21211C020E044E152E064E3A0
:104C000070E081E390E00E947C0D13FD90923402ED
:104C100012FFA6CF7092B802A3CFF394F6CF809282
:104C2000270380922603B092280380E092E00E943E
:104C3000B80EA0903702AA2069F131E0A316A9F1BD
:104C400061E370E06E19710920E045EF51E08BE6F9
:104C500090E00E947C0D6C2D70E0645C7F4F20E042
:104C60004EEE51E08BE690E00E947C0D13FD6092C9
:104C7000B80212FD1092340214FF20C0A1101EC011
:104C80009092370217FD02C00C9463300AE092E064
:104C9000E92E16C0D0922703D0922603B0922803A3
:104CA0008EEF91E00E94B80ECBCFD0922703D09226
:104CB0002603B09228038CEF91E0F4CF17FF50CF7A
:104CC00080913702813009F04BCF10923702109259
:104CD0000803109209030AE082E0C82E41CF90E059
:104CE00080E00E94831F9CCD80913702811163C0B8
:104CF00081E08093030181E0809302016DE971E01E
:104D000086ED92E00E94471E67EA71E08FEB92E029
:104D10000E94471E86ED92E0909333028093320208
:104D20006AE5962E70E2E72EE1E68E2EF1E47F2E04
:104D300066246394AFEBCA2EA2E0DA2EB8E3AB2E62
:104D4000B12C15E0412E8091B802833009F068CD76
:104D50000E94200E811106C065E070E080E090E0C6
:104D60000E948A0C0E94B60D109108031095809144
:104D700009031823A0913202B0913302EC9116FF7F
:104D800005C0EE2319F08FEF8E0F8C9315FF05C031
:104D90008C91883010F48F5F8C9314FFB7C0EA0FAA
:104DA000FB2FF11D81818A3589F03CF4813464F058
:104DB0008F5F81830CC082E09CCF81362CF08A37D4
:104DC000BCF38A3709F4B7C0718201C0818255965D
:104DD0006D917C915697CD010E94281E12FF13C041
:104DE000E0910201E23008F4AAC0E150E093020130
:104DF000F0E0EE0FFF1FEE5DFE4F808191819093FA
:104E000033028093320213FF22C0809132029091CC
:104E10003302FC0131960A96352D21912F7D09F040
:104E200030E0E817F907C9F7311111C0809102018C
:104E3000813009F087C080913702813009F082C04B
:104E400082E080930201D0923302C09232028091BC
:104E5000040390910503B5010E941332F82E0E94BD
:104E6000411920E040E751E065E070E081E290E028
:104E70000E94880D8DE280932703809326038EE1A4
:104E80008093280388E691E00E94B80E60910201A9
:104E900070E090E080E04AE00E9453190AE210E0DE
:104EA00041E066E370E0C8010E94CD0D0E5F1F4F28
:104EB00006351105A9F73AE2332E10E000E04EE284
:104EC000242E30922703309226032092280340910B
:104ED0003202509133029CE19F15C0F5DA019C919A
:104EE000901334C0409EF001419EF00D1124CF017B
:104EF0008E968319E759F94F815040F191919F01A6
:104F0000215031099064D9019C93F6CF17FF66CFE9
:104F1000EA0FFB2FF11D81818B3534F482344CF480
:104F2000813449F08AE745CF813639F0DCF38B379D
:104F3000CCF781503ECFE1824ACF918248CF609238
:104F4000B80261CF84E08093B80281CFDA01A00F6C
:104F5000B11F11966C9182E293E00E945F0E0F5F89
:104F60001F4FB5E03B0E0930110509F0AACF81E0D3
:104F70000E94090BE8CE81E00E94891A7CCC8FEF59
:104F80008FA78EA710922003109236028093010102
:104F9000A5E06A2EBCE52B2EB2E03B2E15E5412E96
:104FA00012E0512E8091B802853009F0C2C41982F6
:104FB00010E08091BC02181708F046C1309121031F
:104FC000323009F4C1C028F4313009F483C01F5FC6
:104FD000F0CF333009F4D7C03430C9F780910901DC
:104FE0008F3FC1F49E01225D3F4FAE01415D5F4F97
:104FF000BE016F5F7F4F812F0E94CE0B9E01225D0D
:105000003F4FAE01415D5F4FBE016F5F7F4F812F0C
:105010000E94CE0B809111018F3FC1F49E01225D51
:105020003F4FAE01415D5F4FBE016F5F7F4F812FEC
:105030000E948C0B9E01225D3F4FAE01415D5F4F90
:10504000BE016F5F7F4F812F0E948C0B80910E01FC
:105050008F3F09F4F3C080910C018F3FC1F49E0192
:10506000225D3F4FAE01415D5F4FBE016F5F7F4FDD
:10507000812F0E945E0B9E01225D3F4FAE01415D7C
:105080005F4FBE016F5F7F4F812F0E945E0B80914B
:1050900007018F3F09F4D5C0809106018F3F09F0C9
:1050A00096CF9E01225D3F4FAE01415D5F4FBE0135
:1050B0006F5F7F4F812F0E94390B9E01225D3F4F12
:1050C000AE01415D5F4FBE016F5F7F4F812F0E9438
:1050D000390B7DCF809110018F3FC1F49E01225D7D
:1050E0003F4FAE01415D5F4FBE016F5F7F4F812F2C
:1050F0000E94CE0B9E01225D3F4FAE01415D5F4F8E
:10510000BE016F5F7F4F812F0E94CE0B80910F01F8
:105110008F3F09F05CCF9E01225D3F4FAE01415DA4
:105120005F4FBE016F5F7F4F812F0E948C0B9E01EE
:10513000225D3F4FAE01415D5F4FBE016F5F7F4F0C
:10514000812F0E948C0B43CF809110018F3FC1F4BF
:105150009E01225D3F4FAE01415D5F4FBE016F5F1B
:105160007F4F812F0E94390B9E01225D3F4FAE0180
:10517000415D5F4FBE016F5F7F4F812F0E94390BF2
:1051800080911101C5CF00910A0180910B010F3F61
:10519000A9F48F3F91F50F3F09F019CF80911001CD
:1051A0008F3F09F014CF9E01225D3F4FAE01415D5C
:1051B0005F4FBE016F5F7F4F812F31C0909109011A
:1051C0009F3F39F78F3F09F485C79E01225D3F4F0E
:1051D000AE01415D5F4FBE016F5F7F4F812F0E9427
:1051E000CE0B9E01225D3F4FAE01415D5F4FBE0180
:1051F0006F5F7F4F812F0E94CE0B809111018F3FF7
:1052000009F0E5CE9E01225D3F4FAE01415D5F4F4B
:10521000BE016F5F7F4F812F0F3F09F086CF0E9445
:10522000150C9E01225D3F4FAE01415D5F4FBE01F7
:105230006F5F7F4F812F0E94150CC9CE80911001A6
:105240000CCF809110012ACFEFA5EF3F81F0F0E065
:10525000ED59FD4F80810E94AB182EA54FA560E04F
:10526000809137020E9436158FEF8FA7F9C2E9832C
:1052700097E0D101E92F1D92EA95E9F7D2011D923D
:105280009A95E9F7A3E6B2E090E0891326C0309141
:105290005402A8E3B2E020E03217F1F1ED91F0E022
:1052A000E45AFE4F6081862F90E0E4E09595879563
:1052B000EA95E1F7AC01445A5D4FFA0190819F5F96
:1052C0009083E62FEF70E81731F0F0E0E45AFD4FDD
:1052D00080818F5F80832F5FDFCFED91F0E0E45A14
:1052E000FE4F6081262F30E0F4E035952795FA9542
:1052F000E1F7A9014B5A5D4FFA0130813F5F3083DE
:10530000E62FEF70E21731F0F0E0EB5AFD4F20810D
:105310002F5F20839F5FB9CF809104018F3F99F069
:1053200090910F01E92FF0E0E45AFD4F80818F5FEB
:105330008083E09110019E1731F0F0E0E45AFD4FB8
:1053400080818F5F808380910E018F3F99F09091D3
:105350000D01E92FF0E0E45AFD4F80818F5F8083DB
:10536000E0910C019E1731F0F0E0E45AFD4F80818E
:105370008F5F8083809107018F3F99F090910501A5
:10538000E92FF0E0E45AFD4F80818F5F8083E09148
:1053900006019E1731F0F0E0E45AFD4F80818F5FE7
:1053A000808380910A018F3F99F090910801E92F45
:1053B000F0E0E45AFD4F80818F5F8083E091090126
:1053C0009E1731F0F0E0E45AFD4F80818F5F8083BB
:1053D00080910B018F3F99F090911201E92FF0E03D
:1053E000E45AFD4F80818F5F8083E09111019E1709
:1053F00031F0F0E0E45AFD4F80818F5F8083C12C53
:10540000E091BC02CE1608F0D6C1EC2DF0E0ED59CB
:10541000FD4FE081F0E0E45AFE4F8081A82EB12CD0
:1054200074E0B594A7947A95E1F78A2C8F70D82E02
:1054300099249394A812912C80912103823009F42D
:10544000E1C040F4882309F49AC0813009F4A0C077
:10545000C394D6CF833009F41CC18430C9F770904F
:10546000090187100EC09E01225D3F4F79018E0118
:10547000015D1F4F2D5231094D2D6C2D892D0E943C
:10548000CB16D7100EC0CE018E967C018E01015D29
:105490001F4F9E012F5F3F4F4A2D6C2D892D0E947B
:1054A000CB167090110187100EC0DE019E967D0113
:1054B0008E01015D1F4F9E012F5F3F4F4D2D6C2DC3
:1054C000892D0E943717D7100EC0FE01BE967F01AE
:1054D0008E01015D1F4F9E012F5F3F4F4A2D6C2DA6
:1054E000892D0E94371780910E01F0900C018F3F9B
:1054F00011F4F09010018F100DC08E01025D1F4F4E
:105500009E01215D3F4FAE014F5F5F4F6D2D8C2D92
:105510000E94E517DF100DC08E01025D1F4F9E0136
:10552000215D3F4FAE014F5F5F4F6A2D8C2D0E9472
:10553000E517809107018F3F09F41CC1F090060127
:105540008F100DC08E01025D1F4F9E01215D3F4FE8
:10555000AE014F5F5F4F6D2D8C2D0E94B117DF1094
:1055600077CF8E01025D1F4F9E01215D3F4FAE013F
:105570004F5F5F4F6A2D8C2D0E94B11769CFDA0CF7
:105580008981D81608F064CFD9821EA6CFA660CF35
:105590007090100187100EC09E01225D3F4F79016F
:1055A0008E01015D1F4F2D5231094D2D6C2D892D1E
:1055B0000E94CB16D7100EC0CE018E967C018E01B4
:1055C000015D1F4F9E012F5F3F4F4A2D6C2D892D8E
:1055D0000E94CB1670900F0187100EC0DE019E96C0
:1055E0007D018E01015D1F4F9E012F5F3F4F4D2DAD
:1055F0006C2D892D0E943717D7102ACFFE01BE9639
:105600007F0137C0109110017090110181120DC0FF
:105610008D2D0E944810811138C08D2D870D9981E4
:10562000891718F489831EA6CFA6D1120DC08A2D22
:105630000E94481081112BC0872D8A0D99818917EE
:1056400018F489831EA6CFA687100EC09E01225D86
:105650003F4F79018E01015D1F4F2D5231094D2DB4
:105660006C2D892D0E943717CE018E967C01D710A4
:10567000EFCE8E01015D1F4F9E012F5F3F4F4A2DE0
:105680006C2D892D0E943717E3CE80E0C8CF80E0D3
:10569000D5CF80910A018F3F09F449C0709009016C
:1056A00087100EC0DE019E967D018E01015D1F4FA9
:1056B0009E012F5F3F4F4D2D6C2D892D0E94CB16E3
:1056C000FE01BE967F01D71409F448C080910B01FA
:1056D000709011018F3F09F07FCF709010018710FB
:1056E0000EC09E01225D3F4F79018E01015D1F4F6B
:1056F0002D5231094D2D6C2D892D0E943717D71051
:105700000EC0CE018E967C018E01015D1F4F9E0161
:105710002F5F3F4F4A2D6C2D892D0E9437178091A6
:105720000A018F3F09F094CE7090100155CF709010
:10573000100187100EC09E01225D3F4F79018E013E
:10574000015D1F4F2D5231094D2D6C2D892D0E9469
:10575000CB16D710BBCFCE018E967C018E01015D9A
:105760001F4F9E012F5F3F4F4A2D6C2D892D0E94A8
:10577000CB16ACCFF09010018F100DC08E01025DE2
:105780001F4F9E01215D3F4FAE014F5F5F4F6D2D5B
:105790008C2D0E94E517DF105BCE8E01025D1F4F3E
:1057A0009E01215D3F4FAE014F5F5F4F6A2D8C2DF3
:1057B0000E94E5174DCE1FA51F3F11F0E12F47CDE9
:1057C000A091B702AA2399F1F0E0ED59FD4FB0E0A6
:1057D000AA5EBD4F8C9180836EE371E0CE0101968D
:1057E0000E945B1A40E063E0CE0101960E940F1B0D
:1057F000CE0101960E94531A8091BC028F5F809364
:10580000BC028091B70281508093B70240E060E013
:1058100080E00E94841220E04FEF6FEF80E00E9452
:1058200020121FA784E690E00E945E0CBBCB81E0B3
:105830000E94EE0F882349F1F5E0F093B8026AE187
:1058400071E0CE0101960E945B1A41E063E0CE0157
:1058500001960E940F1BCE0101960E94531A1FA7AA
:10586000809137020E94F61B811153C08091B802CB
:105870008093B802809137020E94591B882309F453
:105880004AC082E08093B802CDCF84E08093B80212
:1058900087E2E2ECF1E0DE01119601900D928A952B
:1058A000E1F781E00E941510182F80E00E9415108A
:1058B0001817E8F49091BA02890F811B8093BA02FD
:1058C000BE016F5F7F4FCE0188960E94C51B40E0EE
:1058D00063E0CE0188960E940F1BCE0188960E943D
:1058E000531A81E00E94FB190E94380FBDCCBE0103
:1058F0006F5F7F4FCE0188960E94C51B41E063E039
:10590000CE0188960E940F1BCE0188960E94531AE2
:10591000ABCC84E0ADCF1091B802153009F082CF46
:10592000809137020E94E31C811118E01093B802A5
:1059300079CF81E0809303010C94102480E00E94D1
:10594000891A0C94102487E08093B80210923402D4
:10595000E09103018091370281110EC081E090E057
:10596000EE2311F090E080E0880F991FFC01EE5DBE
:10597000FE4F80819181B5C9F0E0EE0FFF1FF7CF98
:10598000109103018091370281115BC066246394FA
:105990001111612C109220031092360220E040E099
:1059A0006FEF812F0E942012862D90E09C012754DA
:1059B0003D4F6901812F90E0DC01A754BD4F4D019F
:1059C00025E0422E36E0332EFC01E454FD4F5F010A
:1059D0004CE1489F9001499F300D1124C9018D5918
:1059E0009D4F7C018091B802883008F452C30E9418
:1059F000B60D209008039091090398AB812F0E9467
:105A0000EE0F81115AC07090B702711056C0862DEA
:105A10000E94EE0F882301F1809137028823C9F09C
:105A20003092B80265EF70E0CE0101960E945B1AD9
:105A300041E063E0CE0101960E940F1BCE0101966A
:105A40003BC166246394123009F4A4CF42E0642E73
:105A5000A1CF4092B802E6CFA4E0A093B80283E2BF
:105A6000E9EEF1E0DE01119601900D928A95E1F7E1
:105A7000812F0E941510082F862D0E9415100817DF
:105A800008F0DCC0F4019081890F801B8083BE0187
:105A90006F5F7F4FCE0188960E94C51B40E063E098
:105AA000CE0188960E940F1BCE0188960E94531A41
:105AB000812F0E94FB190E94380F8091B802883014
:105AC00008F4A3C0022D0095E8A90E23893009F43B
:105AD00014C18A3009F493C1883009F096C006FFDA
