:100000000C94C4060C94EC060C94EC060C94EC06D0
:100010000C94EC060C94EC060C94EC060C94EC0698
:100020000C94EC060C94EC060C94571D0C94C61D15
:100030000C94EC060C94EC060C94EC060C94EC0678
:100040000C94EC060C94EC060C94EC060C94EC0668
:100050000C94EC060C94EC060C94EC060C94F81F33
:100060000C94EC060C94EC060C94EC060C94EC0648
:100070000C94EC060C94EC060C94EC060C94EC0638
:100080000C94EC060C94EC060C94EC060C94EC0628
:100090000C94EC060C94EC060C94EC060C94EC0618
:1000A0000C94EC060C94EC060C94EC0603051F056E
:1000B0001F03051F041B03050F190F030508100F6D
:1000C00005051F001F111F030507051F03051F1549
:1000D0001F030519050303051F151D030517151D2E
:1000E000030507041F030511151F03051D1517033D
:1000F000081F051F1F151B1F11111F110E1F1511A2
:100100001F05011F111D1F041F001F0010101F1FBE
:10011000041B1F10101F061F1F011F1F111F1F058B
:10012000071F311F1F051B17151D011F011F101F62
:100130000F100F1F0C1F1B041B071C071915130C96
:10014000121E1F120C1E12120C121F0C1A14041F66
:10015000052E2A1E1F021C001D00201D001F041A50
:10016000011F001E041E1E021E1E121E3E120C0C3B
:10017000123E1E020614120A020F121E101E0E104C
:100180000E1E081E1A041A2E281E1A12161F111FE0
:10019000121F101D151711151F07041F17151D1FFE
:1001A000151D01011F1F151F17151F001700001037
:1001B00000040404040E040229060A0000100010C2
:1001C0000080F8FCFEFFFEFCF8F8F8F8F0E0C0074D
:1001D0000F1F3F7FFFFFFFFFFF7F3F1F0F070F1026
:1001E0000000807804FA04D810D010D020C000009D
:1001F0000708172C5F5F5B5F5B2F17080700020281
:10020000030320204E69636520776F726B21002005
:10021000596F752062656174206D652100436C6FB4
:1002200073652067616D65210049206A75737420CC
:100230006265617420796F75210044697361707023
:100240006F696E74696E6720726F756E64402066A8
:100250006F7220796F752100436C6F736520676141
:100260006D6520627574204920776F6E2100436FA1
:100270006E67726174756C6174696F6E734020791A
:100280006F7520776F6E21002020202020204D697F
:100290006E652E002020202020596F7572732E006D
:1002A000407468697320636172642E004920776925
:1002B0006C6C20706C61794000496E2074686973C1
:1002C00020726F756E6420776520706C61790A66A4
:1002D0006F7220747269636B7320746F207365652D
:1002E0002077686F0A202077696E73207468652014
:1002F00067616D652E20205573650A20796F7572D0
:10030000207472756D707320776973656C79210044
:100310002054686174732074686520656E640A20D7
:100320006F66207068617365206F6E652E002020F7
:10033000202020204D696E652E002020202020598D
:100340006F7572732E004074686973206361726404
:100350002E00492077696C6C20706C617940004DEB
:1003600079207475726E20746F207374617274409A
:1003700000596F7572207475726E20746F207374DB
:100380006172744000496E207468697320726F75E1
:100390006E6420776520706C61790A746F207769CC
:1003A0006E207468652075702D7475726E65640AB0
:1003B0006361726420616E64206275696C6420619F
:1003C0002067726561740A68616E6420666F7220CE
:1003D00070686173652074776F21004120FE01050C
:1003E000F1F1F111D1B1D111F1515151515151519D
:1003F000515151515151510000FF00007F7F0909B7
:100400000F06007F7F19396F46007F7F49494141C0
:1004100000266F49497B3200266F49497B32FF0035
:1004200000FFFFFFFEFFFEFF0279CD95A5CD79010C
:1004300011111101F9F901010000FF00007F7F098E
:10044000090F06007F7F40404040007C7E0B0B7E02
:100450007C00070F78780F07007F7F3E1C0800FFA5
:1004600000001F3F3F33333333333E36363E363E94
:10047000363E36363E36363E360000FF00003E7FC2
:1004800041417F3E007F7F0E1C7F7F000000000007
:10049000000000000000000000000000000000005C
:1004A0003F405040404078464141595941414141C7
:1004B0005959414141414141414100007F00000102
:1004C000017F7F0101007C7E0B0B7E7C007F7F091A
:1004D000090F06007F7F49494141000000000000EC
:1004E000008040000000000000000000000000004C
:1004F00000000000000000000000000000000000FC
:1005000000000000000000000000000000000000EB
:10051000000000000001010202030505070B0B0F9C
:1005200017171F2F2F3F5F5F5FBFBFBF7F7F7FFF0B
:10053000FFFFFFFFFFFFFFFFFFFFFFFFFFFFFFFFCB
:10054000FFFFFFFFFFFFFFFFFFFFFFFFFFFFFFFFBB
:10055000FFFFFFFFFFFFFFFFFFFFFFFFFFFFFFFFAB
:10056000FFFFFF000000000000000000000000008E
:1005700000000000000000000000008080404040BB
:10058000404040404040C0E018E4FAFD3D9D1DFA67
:10059000FAFAFAF4F4F4F4E8E8E8D0D0D0D0A0A065
:1005A000A0A0404040808080800000000101010246
:1005B0000202040505090B0B13171727272F4F4FAE
:1005C0005F9F9FBFBF3F3F7F7F7FFFFFFFFFFFFF1B
:1005D000FFFFFFFFFFFFFFFFFFFFFFFFFFFFFFFF2B
:1005E000FFFFFF000000000000000000000000000E
:1005F000000000000000000000F807F8FEFE07B74A
:1006000007FFFFFFFFFF0FF1FECF870286CEFCFF43
:10061000FFFFFFFFFFFFFFFFFFFFFFFFFFFFFFFFEA
:10062000FFFFFFFFFFFEFEFEFEFDFDFA7A8478006D
:1006300000000000000000000000000000000000BA
:100640000000000000010101020202040404090983
:1006500009131313272727474F4F8F9F9F1F3F3F94
:100660003F3F7F000000000000000000000000008D
:10067000000000000000000000FF00FFFFE7E3C1F2
:10068000E3E7FF7F87F8FFFFFFFFFFFFFFFFFFFFAD
:10069000FFFFFF7F7F3F1F0F0F070F3FFFFFFFFF92
:1006A000FFFFFFFFFFFFFFFFFFFFFF1FE01F000037
:1006B00000F0980848C800F8282800F848C830001A
:1006C000F838C0C038F80000F088F00000F810607A
:1006D00080F800000000000000000000000101019F
:1006E0000202020000000000000000000000000004
:1006F00000000000000000000061709151D1D1D1D4
:10070000F1610160F19151D1D1D1F1610161F191BA
:10071000D1F1600060F09050D0F07060000161F1A4
:1007200091D1F1F161010121719151D0D1F070208D
:10073000000081E121B1D0D1515150D1F0F0E180E0
:1007400001C060B0D05150D1D0D0D0D15051F0F0D4
:10075000E0C10000000000000000000000000000F8
:100760000000000000000000000000000000000089
:100770000000000000000000000000030F7FFFFFEA
:10078000FFFEF8F8FF3F1FFFFFFFFFFCF8F8FF1F19
:100790000700000000FFFFFFFFFF3838383838FF40
:1007A000FFFFFFFF0000000000FFFFFFFFFF000052
:1007B0000080CF1F3F7F7F7FFEFEFCFCF8F9F1E059
:1007C00000010303010000FFFFFFFFFF0000010322
:1007D0000301000000000000000000000000000015
:1007E000000000F9FAF2F2F4E4E4E8E8C8D0D090AE
:1007F000A0A0204040408080800000000000010F49
:100800001F1F1F0701000000030F1F1F0F03000021
:10081000000000081C1F1F1F1F1F1C0800081C1FB2
:100820001F1F1F1F1C0800081C1F1F1F1F1F1C0845
:1008300000030F0F1E1C1C1C1C1F1F1F0F0F070186
:1008400000000000000C1E1F1F1F1F1F1E0C0000B9
:100850000000000000000000000000000000000098
:10086000000000FFFFFFFFFFFFFFFFFFFFFFFFFF95
:10087000FFFFFFFFFFFFFEFEFEFDFDFDFAFAFAFCA3
:10088000F4F4F8E8E8F0D0D0E0A0A0C040408080C8
:100890000000000000000000000000000000000058
:1008A0000000000000000000000000000000000048
:1008B0000000000000000000000000000000000038
:1008C0000000000000000000000000000000000028
:1008D0000000000000000000000000000000000018
:1008E000000000080B0002020200000904000001E1
:1008F0000202000005240010010524010101042466
:1009000002060524060001070581031000400904C2
:100910000100020A0000000705020240000007056E
:1009200083024000000403090412010002EF0201E7
:100930004041233680000101020301417264756960
:100940006E6F204C4C43006D6963726F6361646528
:1009500000D5F08D14A1C881CFD9F1AF20000817C0
:10096000F80452AA52AA5202FF0055AA55AA5500ED
:100970000F10252A252A25200080F8FCFEFFFEFC0A
:10098000F8F8F8F8F0E0C0070F1F3F7FFFFFFFFF08
:10099000FF7F3F1F0F070F100000807804FA04D874
:1009A00010D010D020C000000708172C5F5F5B5FDD
:1009B0005B2F1708070005060E1122110E0C2E3FA3
:1009C0002E0C0C1221120C0C2F372F0CFCFEFFFFEB
:1009D000FFFFFFFFFFFFFFFFFFFFFFFEFCFFFFFF2B
:1009E000FFFFFFFFFFFFFFFFFFFFFFFFFFFF1F3FB7
:1009F0007F7F7F7F7F7F7F7F7F7F7F7F7F3F1F1115
:100A00001700F804F2FAFAFAFAFAFAFAFAFAF20421
:100A1000F80000FF00FFFFFFFFFFFFFFFFFFFFFFEA
:100A200000FF00000F10272F2F2F2F2F2F2F2F2FDA
:100A300027100F000C083B3B3B6B6B4B4B6B6B3B2E
:100A40003BBB3D3B3B6B6B4B4B6B6B3B3BBD373B16
:100A50003B6B6B4B4B6B6B3B3BB73D393575755502
:100A60005575753539BD3D393575755555797939B2
:100A700039BD3D39397979595575753539BD1508FF
:100A8000D0D6F4F6F4F4F6F496707B7076F4F6F4BF
:100A9000F4F6F4D6D0D0D6F4F4F4F4F4F496707BF3
:100AA0007076F4F4F4F4F4F4D6D00000000000C042
:100AB000E0F0F8FCFEFFFFFFFFFFFFFFFFFFFFFF7F
:100AC000FFFFFFFFFFFFFFFFFFFFFFFFFEFCF8F050
:100AD000E0C000000000000000000000FFFFFFFF7A
:100AE000FFFFFFFFFFFFFFFFFFFFFFFFFFFFFFFF16
:100AF000FFFFFFFFFFFFFFFFFFFFFFFFFFFFFF0005
:100B00000000000000000000FCFFFFFFFFFFFFFFF0
:100B1000FFFFFFFFFFFFFFFFFFFFFFFFFFFFFFFFE5
:100B2000FFFFFFFFFFFFFFFFFFFFFFFFFC000000D5
:100B3000000000000003070F8F9FFFFFFFFFFFFF74
:100B4000FFFFFFFFFFFFFFFFFFFFFFFFFFFFFFFFB5
:100B5000FFFFFFFFFF9F8F0F070300000000C0E0B3
:100B6000F0F8FCFEFFFFFFFFFFFFFFFFFFFFFFFFAF
:100B7000FFFFFFFFFFFFFFFFFFFFFFFFFFFFFFFF85
:100B8000FFFFFFFFFFFEFCF8F0E0C00303030303D9
:100B90000303030303030303030303030303030325
:100BA0000303030303030303030303030303030315
:100BB00003030303030303032D2A000000000000C6
:100BC000C0201008040282C282820202020A0A0ABB
:100BD0000A0A0A0A0A0A0A0A0A0A0A12A40850A0F9
:100BE000C0000000000000000000000000FF408086
:100BF0000000FEFFFFFF7B3F3F3B3B7BFBFBFB7BA4
:100C00003B3B3F3F7FFBFEFC003F80552AFF00003F
:100C1000000000000000000000FC03F95A81FCFD08
:100C200001010101010101010101010101010101B4
:100C30000101010101FCFD8259F803FC00000000E4
:100C40000000000000000304050990A7DF3E7EFEBF
:100C5000FEFE020000000000000000000002FEFE98
:100C60007E3EDFA79009050403000000000000C0DD
:100C700020D0E8F4FA79B95204022C5ABC79F978F8
:100C8000B81840B07070B04018B878F979BC5A2CD8
:100C90004AA47BF1FAF4E8D020C00000000303036B
:100CA000010201000000000000000102010000003C
:100CB0000003030000000001020100000000000129
:100CC00002010303030300000309FEFFFE0001000D
:100CD0000703020707070707023F06DBCF666DFD24
:100CE00007FFE7FFFFFFFFFFFFFFFFFFFFFFFFFF24
:100CF000FFFFFFFFFFFFFFFFFFFF7F3F1F0101031C
:100D0000070F0F0F0F0F1F3F7FFFFF7F3D190101DF
:100D1000010101000000001A10BFBFBF1FEFEFEF7D
:100D2000EFEF1FBFBFBFBFBFBFBFBFBFBFBFBF5F73
:100D3000201F000000010205050505050219245ABF
:100D40005A2418000000000000000000000F1F3FA0
:100D50007FFFFFFFFF0808000F102F5F5F5F5FFF3F
:100D6000FFFFFFFEFCF8F00808FAFAFAFAF408F0C0
:100D700000F0F8FCFEFFFFFFFF080800F008F4FA9F
:100D8000FAFAFA008920102311241FBECFEFDAE00F
:100D9000DEBFCDBF11E0A0E0B1E0E0E5FDE402C0C0
:100DA00005900D92AA3CB107D9F727E0AAECB1E073
:100DB00001C01D92AF33B207E1F716E0C3ECD6E0F5
:100DC00004C02197FE010E949C24C23CD107C9F7B0
:100DD0000E9431210C949B260C9400002F923F928C
:100DE0004F925F926F927F928F929F92AF92BF923B
:100DF000CF92DF92EF92FF920F931F93CF93DF93E7
:100E000000D000D000D0CDB7DEB7DB0141155105D1
:100E100009F43AC1FA019490319674914E5F5F4F94
:100E2000A92CB12CBA82A982222321F1E1E0F0E0C1
:100E3000372F377011F4F0E0E0E0C72EC694C69467
:100E4000C694CE0EDF2ED11CA980BA80CA9CF001B8
:100E5000CB9CF00DDA9CF00D112463E0B62EEB1064
:100E600002C0EE0FFF1F2E9F60012F9FD00C112498
:100E70004C0D5D1D29813A81280F391F3A83298342
:100E8000121613060CF000C1803891050CF0FCC05E
:100E90009D01270F311D121613060CF0F5C0A0346A
:100EA000B1050CF0F1C04115510509F4EDC03A2F20
:100EB0003770632E9D01B7FF02C0295F3F4FE3E00B
:100EC00035952795EA95E1F7F22FB7FF04C0662024
:100ED00011F0FFEFF20F22273327281B390B97FD64
:100EE00002C030E020E0A981BA8160E8F62EF81A4D
:100EF000A038B1050CF4F92CF21AAF2F0F2E000C0C
:100F0000BB0BFF3F0CF0A1C0EA2FE095E983E1E0C5
:100F1000672F677009F4E0E0769576957695E70F90
:100F2000AE0FB11D199714F0E8E0EF1B79807F0E2A
:100F3000772D60E87603D00111248A0F9B1F820F62
:100F4000931F262C062C000C330873E0A2E0E71256
:100F5000A1E0B92DBF19BA9FB02D1124AA2EB12C32
:100F60006981969E200D311D11242A9DB0012B9D73
:100F7000700D3A9D700D11246A01C60ED71E011521
:100F8000110509F48A01950121503109620F731F7F
:100F9000060F171F6FEF70E0062C02C0660F771F59
:100FA0000A94E2F79B01209530953A8329834E2ECF
:100FB0004F0E4B2F50E0AF9D400D511D1124741466
:100FC00009F462C0DC01AB5FBD4F1E821D82512C53
:100FD000F51409F451C0ED81FE81EC0DFD1D249145
:100FE00030E0022C02C0220F331F0A94E2F762E0C5
:100FF000E61609F43EC07BEFE71229C0F901E0953F
:10100000F095FC83EB8330E020E077FC05C09C90FA
:101010007B819722922A9C92662071F0E6E0E71588
:101020005CF04D01F0E88F0E911CF4012081FC81F1
:101030002F23232BF401208353942D813E812A0DED
:101040003B1D3E832D831196C3CF198260CFED8166
:10105000FE81E00FF11FE491F0E0022C02C0EE0FE0
:10106000FF1F0A94E2F7BF01609570957C836B8344
:10107000CCCF69817A81FACF7394C40ED51E040F48
:10108000151F80589F4F9BCF26960FB6F894DEBF52
:101090000FBECDBFDF91CF911F910F91FF90EF90C9
:1010A000DF90CF90BF90AF909F908F907F906F9088
:1010B0005F904F903F902F900895EF920F931F9362
:1010C000FC0186818C30C8F48FEF082E000C990B40
:1010D000FAE06F9F800D911D1124EE24E39408E740
:1010E00019E020E046E959E063E370E001960E94D0
:1010F000EE061F910F91EF9008958EEFE6CFFC0161
:1011000080910202882311F13FB7F89482E0809326
:10111000E9002091F200822F90E01816190614F4CD
:1011200081E090E0882339F0289844E6409301025A
:101130004091F1004083222339F02091F2002111E7
:1011400003C02BE62093E8003FBF08958FEF9FEF89
:1011500008952FB7F89483E08093E9009091E80018
:10116000892F807295FF04C09091F20080E4891B62
:101170002FBF08958091F90181110DC082E0809305
:10118000F50184E08093F6011092F8011092F701C6
:1011900081E08093F90185EF91E0089522E0FC0160
:1011A00026870895089508954091E7015091E80138
:1011B0002091E5013091E60142175307B4F4909174
:1011C000E8009570E1F39091E80092FD19C08093DA
:1011D000F1008091E7019091E80101968F739927C2
:1011E000892B19F48EEF8093E8008091E7019091AC
:1011F000E80101969093E8018093E70181E008956A
:1012000080E00895DF92EF92FF920F931F93CF93A8
:10121000DF93D82E8A01EB017B01E40EF51ECE157B
:10122000DF0559F0D7FE12C0FE0184910E94D40858
:1012300021968111F4CF0FEF1FEFC801DF91CF91FD
:101240001F910F91FF90EF90DF9008958881EECF6E
:101250000F931F93CF93DF931F92CDB7DEB782E03A
:10126000898342E450E063EE78E080E80E9402095E
:101270000E94BA08DC0112960D911C91011511050E
:1012800089F0D801ED91FC910280F381E02DBE013F
:101290006F5F7F4FC801099597FD04C0F801008575
:1012A0001185ECCF89810F90DF91CF911F910F9124
:1012B0000895615030F02091F100FC0120830196E7
:1012C000F8CF289884E6809301020895AF92BF92E8
:1012D000CF92DF92EF92FF920F931F93CF93DF9302
:1012E0006C017B018B01040F151FEB015E01AE1831
:1012F000BF08C017D10759F06991D601ED91FC9153
:101300000190F081E02DC6010995892B79F7C5017F
:10131000DF91CF911F910F91FF90EF90DF90CF90D1
:10132000BF90AF900895CF93DF931F92CDB7DEB7F4
:101330006983DC01ED91FC910280F381E02D41E0B5
:1013400050E0BE016F5F7F4F09950F90DF91CF9105
:10135000089583E08093E9008091F200882319F0DA
:101360008AE38093E80008950E94A90890E0089518
:10137000CF93DF931F92CDB7DEB7FC0184859585AF
:1013800097FD08C02FEF3FEF358724870F90DF913F
:10139000CF910895CE0101960E947F08019719F41C
:1013A000898190E0F3CF8FEF9FEFF0CF0F931F93E2
:1013B000CF93DF931F92CDB7DEB78C01FC018485FC
:1013C000958597FF0BC0CE0101960E947F0801977B
:1013D00071F4898190E0F80195878487F80184850C
:1013E00095850F90DF91CF911F910F9108958FEF09
:1013F0009FEFF1CFFC018485958597FD0BC09FB7CA
:10140000F89482E08093E9008091F2009FBF90E021
:10141000019608959FB7F89482E08093E900809147
:10142000F2009FBF90E00895FC010E94AB0A319743
:1014300028F068517C4F8F4F9F4FF9CFAB01FC01D3
:101440000E94AB0A641775078E079F07C8F30895BB
:101450008F929F92AF92BF92CF92DF92EF92FF92C4
:101460000F931F93CF93DF936C017B018A018091CF
:101470000B01882309F45AC080910202882309F4E1
:1014800055C08091EB0180FF05C08091E000826033
:101490008093E000E801B12C8AEFA82E93E0892E1A
:1014A0002AE3922E209711F4BB20C9F10E94A908CB
:1014B000811108C0AA94AA20C9F181E090E00E949D
:1014C000140AF0CF8C171D0611F00CF08C2F9FB76B
:1014D000F8948092E9002091E80025FD02C09FBFAA
:1014E000E1CF282F30E0C21BD30BF701815020F051
:1014F00041914093F100FACFE20EF31EBB2021F0A0
:101500009092E800B12CEBCF8091E80085FDE7CF09
:101510009092E800BB24B394209709F3F3CF5D9831
:1015200084E68093EA01101611063CF081E090E019
:10153000F6019383828310E000E0C801DF91CF9130
:101540001F910F91FF90EF90DF90CF90BF90AF90E1
:101550009F908F900895A1EEB1E02FB7F8947D9100
:101560008D919C9166B52FBFA89B05C06F3F18F465
:101570007F5F8F4F9F4F22E0660F771F881F991F55
:101580002A95D1F70895EF920F931F933AEFE32E28
:1015900010E000E00E94EE061F910F91EF90089579
:1015A000CF93DF93D82FE62FF0E0E752F34FC491AB
:1015B000C0FF09C090E020E040ED5CE067E170E032
:1015C00003960E94C30AC1FF0AC08D2F90E020E05D
:1015D00048EC5CE069E170E00A960E94C30AC2FF31
:1015E0000AC08D2F90E020E048EC5CE063E270E000
:1015F0000A960E94C30AC3FF0AC08D2F90E020E024
:1016000040ED5CE06BE270E003960E94C30AC4FF09
:1016100009C020E048EC5CE063E270E08D2F90E0D0
:101620000E94C30AC5FF09C020E048EC5CE069E104
:1016300070E08D2F90E00E94C30AC6FF0CC08D2F72
:1016400090E020E040ED5CE061E270E00396DF9125
:10165000CF910C94C30ADF91CF910895EF920F932D
:101660001F933BEFE32E10E000E00E94EE061F9177
:101670000F91EF900895AF92BF92CF92DF92EF92C9
:10168000FF920F931F93CF93DF93C82EC62F842F03
:101690006DE00E947C24A82E32E0F32EF90E94E037
:1016A000B92E211102C026E0B22ED0E00C2C000C85
:1016B000DD08EE24E3940CEC19E020E04FEF59E054
:1016C000BE01C6010E94EE06CB0CD11CBE01645FB8
:1016D0007F4F2A2D46EB59E0C6010E942E0B8F2D1D
:1016E0008250990BFC01EE0FFF1FE65CFE4F40811C
:1016F0005181BE016B5F7F4F81E090E02AE0F212E2
:1017000002C090E080E020E08C0D9D1DDF91CF9124
:101710001F910F91FF90EF90DF90CF90BF90AF900F
:101720000C942E0BCF93DF938F3FC9F16DE00E9495
:101730007C24D82FC2E0C90F20E04EE559E06DE0CF
:1017400070E090E080E00E94C30A20E04FEF59E093
:101750006DE070E087E090E00E94C30A2D2F46EB19
:1017600059E069E170E08DE090E00E942E0B8C2F33
:101770008250990BFC01EE0FFF1FE65CFE4F40818B
:10178000518181E090E0CA3011F490E080E020E0E7
:1017900062E170E00D96DF91CF910C942E0BDF91FA
:1017A000CF91089590E00C94140A8FB18095807FBA
:1017B000669B88601C9B84600895480F592F511DBB
:1017C00041155105B1F1803891059CF5413851051D
:1017D00014F040E850E0481BFB0177FD379633E0FA
:1017E000F595E7953A95E1F7F695FE2FEE27F795F3
:1017F000E795E80FF91FEB5FFD4F6770772781E0F2
:1018000090E001C0880F6A95EAF7382F213041F443
:10181000415078F08191DF011197832B8C93F8CFA1
:101820008095415030F09191DF01119798239C935E
:10183000F8CF089580389105B8F460347105A0F4AC
:1018400090E121E061FD24E060FD220F62FD229520
:10185000687F969FD0011124A80FAB5FBD4F0C90FD
:10186000022A40FF02260C9208958F929F92AF9217
:10187000BF92CF92DF92EF92FF920F93CF93DF93BD
:101880005B01EC014C01840E911C6B01C20ED11C5A
:10189000C815D905D4F47501B7FE02C0F12CE12CAE
:1018A000C60121E4C216D10414F080E490E0E816E9
:1018B000F9064CF4402FB701CE010E941A0C8FEFAD
:1018C000E81AF80AEDCF2196E3CFDF91CF910F917F
:1018D000FF90EF90DF90CF90BF90AF909F908F9050
:1018E00008952F923F924F925F926F927F928F92C4
:1018F0009F92AF92BF92CF92DF92EF92FF920F939F
:101900001F93CF93DF936C012B01722E013039F0BE
:1019100080E8682E621A023039F0612C05C0822FEF
:10192000869590E4692E681A142F110F110F110F6C
:1019300033243394310EC62DD0E022E0210F00E095
:10194000472D63E070E0CE010E94350C7E0184E0FB
:10195000E80EF11C2AE0210F38EFB32EB70C4B2D07
:101960006FEF7FEFC7010E94350C23E0210F01E0EC
:101970004EEF470D63E070E0CE0101960E94350CFA
:1019800028E0210F4B2D70E060E0C7010E94350C6C
:1019900046E0F42EF10E5CEF252E270C8E010E5F33
:1019A0001F4F20E0422D61E070E0C8010E94DD0B76
:1019B0006F2D70E04B01EFEF8E1A9E0AFFE3FF15CB
:1019C00028F020E0422DC8010E94DD0BEE24E394B4
:1019D000F12C540181E4881691041CF090E4A92EA6
:1019E000B12CEA14FB044CF440E0B701C8010E949A
:1019F0001A0CEFEFEE1AFE0AECCF020D111D01508A
:101A00001109EE24E394F12CEA14FB0449F040E0C0
:101A1000B701C8010E941A0CFFEFEF1AFF0AF4CFBA
:101A2000EE24E39401E71DE020E049E75DE06FEF7D
:101A30007FEFCE010E94EE065E01A70CB11C0FE500
:101A40001DE020E047E65DE06FEF7FEFC5010897FE
:101A50000E94EE06832C912C0DE41DE020E045E56C
:101A60005DE0B401CE010E94EE06B401615071093F
:101A700003EE1CE020E047E15DE0C5014A970E94CB
:101A8000EE0686E0860DF6018683878384E08087F4
:101A9000F2014481558160817181C6010296DF9116
:101AA000CF911F910F91FF90EF90DF90CF90BF905B
:101AB000AF909F908F907F906F905F904F903F90EE
:101AC0002F900C9466090F93CF93DF9300E020E4EE
:101AD00040E86CE370E090E080E00E94350C21E08B
:101AE00040E86DE370E090E080E00E94DD0BD0E024
:101AF000C0E041E06FE370E0CE010E941A0C229634
:101B0000C038D105B1F7DF91CF910F910895AF9211
:101B1000BF92CF92DF92EF92FF920F931F93CF93DA
:101B2000DF93F42E5901C0900302D0900402C62F17
:101B3000660FDD0BEE24E3940AEA1AE020E048EB9E
:101B40005BE06CE070E0CE010E94EE06C6018F778C
:101B5000992721E0843008F020E04EE75AE06DE15B
:101B600070E0CE010C960E94C30A6196F501838550
:101B70002F2D882359F0C60160E370E00E9488246D
:101B80006CE00E947C2481118E5F282F44E35AE090
:101B900067E270E0CE010E94C30A01E02BE340E857
:101BA00067E370E090E080E00E94350CDF91CF9118
:101BB0001F910F91FF90EF90DF90CF90BF90AF906B
:101BC00008956F927F929F92AF92BF92CF92DF92D1
:101BD000EF92FF920F931F93CF93DF93EC0150E0AE
:101BE000262F30E0790161E0E61AF1088DE0B82E89
:101BF00044E1852F90E08E159F059CF5D12CD901ED
:101C0000A81BB90B3D0181E0681A71088D2D90E089
:101C10008615970524F58E01080F191FD801AC9081
:101C20000196FE01E80FF91F9080892D6B2D0E940F
:101C30007C24C42E849FC00C11249E5FC90E8A2D63
:101C40000E947C24B42F849FB00D11249E5F9B0FB3
:101C5000C91618F4D8019C92A082D394D7CF5F5FA5
:101C6000C8CFDF91CF911F910F91FF90EF90DF9040
:101C7000CF90BF90AF909F907F906F900895EF921C
:101C80000F931F9382E0E82E10E000E020E041EE89
:101C900054E070E060E090E080E00E94EE061F916A
:101CA0000F91EF9008958091ED0180959091EE0154
:101CB000892383FF05C0FB01E756FF4F82E0808345
:101CC0000895EF920F931F93CF9382E0E82E10E0D8
:101CD00000E020E04BED53E060E170E080E290E056
:101CE0000E94EE06809103029091040260E670E08B
:101CF0000E948824803370F4C1E1883108F0C1E388
:101D000000E027E045E068E170E08BE590E00E94AC
:101D1000350C04C0C1E5883408F0C1E9C093B903AB
:101D2000C07A31F485EA8093B20385E98093B303E6
:101D3000CF911F910F91EF900895FC018091ED01DB
:101D400080959091EE01892399F08485882311F084
:101D500084E18487948591110EC081E0848780E4BA
:101D60008093900081E49FE0909399008093980085
:101D700094859923C1F09F5F9487953059F09531F0
:101D800061F0923081F480E596E49093990080931D
:101D90009800089510929000089567567F4F81E053
:101DA000FB01808308950895CF93DF93FC01DB014D
:101DB000878D8F3F49F16DE00E947C24382F169665
:101DC0004C911697ED01289620E05DE0241741F034
:101DD0008991652F0E947C243817A1F02F5FF6CFE0
:101DE00090E0E38DEA0FFB2FF11D8085992361F0D0
:101DF0006DE00E947C24982F81E0931380E0DF91B6
:101E0000CF91089591E0EDCF81E0F9CFFC019B01E6
:101E1000868DADE06A2F0E947C24582F492F878D34
:101E20000E947C24851307C09E5F4E5F81E094175B
:101E300070F480E0089592A19517D9F3981741F0B6
:101E400029563F4F81E0F90190819111F2CF089519
:101E500081E0FDCFFC019091ED0190958091EE0124
:101E6000982393FD428F08958F929F92AF92BF92D5
:101E7000CF92DF92EF92FF920F931F93CF93DF9356
:101E80005C017B01FB01D681CEEFDC3008F4CFEFA3
:101E90006701F8E0CF0ED11C10E000E08D2F8150DB
:101EA000990B4C01802F0D1700F5F60141916F0140
:101EB000F501948D0815190524F0F70126812D30C0
:101EC00061F469E2981301C065E221E08C2F0E9461
:101ED0003B0B0F5F1F4FC65FE5CF69E2901301C058
:101EE00065E220E081E08C0FF2CFDF91CF911F916E
:101EF0000F91FF90EF90DF90CF90BF90AF909F90A9
:101F00008F900895CF93DF93EC01FB01E956FF4FCB
:101F10008081811111C04F8D4F3F29F020E06FE08B
:101F20008BE30E943B0B4E8D20E061E180E34F3F4D
:101F300089F4DF91CF9108954E8D4F3F29F020E035
:101F400061E180E30E943B0B4F8D4F3F91F320E016
:101F50006FE08BE3DF91CF910C943B0BFC01809100
:101F6000ED0180959091EE0189232091030230913B
:101F7000040227703327232B61F495859F5F9C31E2
:101F800001F1958795859A3021F49685923009F470
:101F9000168686FF04C09685913009F4168685FF63
:101FA00005C09685911102C091E0968783FF08C015
:101FB0008685811108C067567F4F82E0FB018083D0
:101FC00008951586DFCF8130D9F767567F4FF6CF5A
:101FD000CF93DF93EC016A3059F48D818C838E812D
:101FE0009985890F8E8381E090E0DF91CF910895EC
:101FF0009C81603219F49E5F9C83F5CF6E37D9F3D4
:10200000262F6E816F5F2A33E9F198F42D32A1F10A
:1020100050F42132A9F12B3269F198859D5F8C81B2
:10202000890F8C83E0CF2E3249F12033B0F32C5F3F
:102030000FC02B3540F42134C8F42F33C9F02034BD
:1020400061F724E405C08FE9820F27548A3128F70D
:10205000062E000C770B892F990F990B3F814FEEBD
:1020600050E0313089F40E94C30AD7CF2154F0CF19
:1020700022E4EECF21E4ECCF20E4EACF2FE3E8CF57
:102080002EE3E6CF23E4E4CF0E942E0BC6CF0895C3
:1020900090E080E00895FC0152817E9620E08FEF71
:1020A00030E0521769F09191961740F0491730F0DF
:1020B000931720F0DF015B978C91392F2F5FF1CFC1
:1020C0000895BF92CF92DF92EF92FF920F931F93EA
:1020D000CF93DF93EC01162F842F5DE0652F0E94D4
:1020E0007C24082F32E0390FCC24CA9493E0B92E17
:1020F0002F3F39F0822F0E947C2442E0C42EC90E6B
:10210000B82E46E0101340E0430FFB80DE015196ED
:1021100050E08DE0E82EF51661F08D916E2D0E9455
:102120007C249E5F391718F4081301C04F5F5F5F6E
:10213000F2CF2F3F31F1DA8024967E01A0E02FEF1D
:102140003FEF0DE0DA1609F474C0F701B1917F0199
:102150008B2F602F0E947C2452E0590F5C1508F0F1
:1021600057C0B81262C03F3F09F4C2C0832F0E941B
:102170007C249E5F591708F4BBC0C51608F055C0F3
:102180004BC0483030F14E30A8F549E064E0CE0154
:102190000E944B10382F8F3F09F09DC044E060E053
:1021A000CE010E944B10382F8F3F09F094C04A8116
:1021B0006E962FEF80E0481709F48DC09991993001
:1021C00030F0291720F0FE017B973081292F8F5F97
:1021D000F2CF9A814C2FEC2FFD2F3FEF8E2F841BD7
:1021E000891708F078C0868D281710F03481282FC1
:1021F0003196F4CF4FEF60E0CE01DF91CF911F9188
:102200000F91FF90EF90DF90CF90BF900C944B1008
:10221000C51658F4B81209C02F3F49F0822F602F1D
:102220000E947C249E5F591710F0AF5F8BCF2B2F3D
:10223000FCCF413138F02F3F09F058C03F3F09F043
:102240004AC008C0473000F53F3F09F044C02F3F67
:1022500009F04CC0B1121FC020E03FEFEDE0A21723
:10226000D1F149913F3F69F0832F6E2F0E947C246A
:1022700052E0590F842F0E947C249E5F951708F02E
:10228000432F2F5F342FEBCF4F30A8F64930E0F2C9
:102290004D3088F6D9CF4830F8F2FE0140E03FEFEC
:1022A000BDE0A417A9F02191822F6B2F0E947C24FE
:1022B00018130AC03F3F49F052E0590F832F0E9484
:1022C0007C249E5F591708F0232F4F5F322FE9CFF0
:1022D00020E03F3F19F2832FDF91CF911F910F91A3
:1022E000FF90EF90DF90CF90BF900895322FF3CF03
:1022F0003B2F43CFCF93DF93DC01E62FF0E0EC01DF
:10230000CE0FDF1F8C813496EA0FFB1F6C3020F458
:10231000918191936F5FFACF9FEF50969C93509766
:1023200012969C911297915012969C93DF91CF91A7
:102330000895FC019281DF01A90FB11D14966C93E1
:1023400061E0690F6283CF0104960C94E10DFC01FA
:10235000349680E09191961721F08F5F8D30D1F700
:102360008FEF0895089508950895089508958F9220
:102370009F92AF92BF92EF92FF920F931F93CF93D2
:10238000DF93CDB7DEB7A1970FB6F894DEBF0FBECF
:10239000CDBF7C01FA01CB0119A2223008F42AE05A
:1023A0008E010F5D1F4F822E912CB12CA12CBF01ED
:1023B000A50194010E944B24F901CA016A304CF531
:1023C000605DD8016E938D01232B242B252B79F78B
:1023D00090E080E0109761F0FD0101900020E9F7A6
:1023E0003197AF014A1B5B0BBD01C7010E94660913
:1023F000A1960FB6F894DEBF0FBECDBFDF91CF918F
:102400001F910F91FF90EF90BF90AF909F908F9092
:102410000895695CD6CFFB0101900020E9F7319760
:10242000AF01461B570B0C946609EF92FF920F9376
:10243000CF93DF93EC017C0182E0E80EF11C8AA1CE
:102440008430D9F001E028E042E270E060E090E002
:1024500080E00E94350C81E08E838F8318866EEABF
:1024600071E0C7010E940B122AA146EB59E061E01E
:1024700070E08BE190E00E942E0B01E028E042E248
:1024800070E060E08DE590E00E94350C80E68E8380
:102490008F831886898D8A3028F465EB71E0C70137
:1024A0000E940B12498D50E070E060E02AE0C70105
:1024B0000E94B71167EB71E0C701DF91CF910F91D7
:1024C000FF90EF900C940B12EF92FF920F931F93DB
:1024D000CF93DF9300D01F92CDB7DEB79B838A8363
:1024E0007B01809103028F718983EA81FB8182A144
:1024F000843001F101E028E042E270E060E090E029
:1025000080E00E94350C81E0EA81FB81868387832D
:1025100010866EEA71E0CF0102960E940B12EA81EA
:10252000FB8122A146EB59E061E070E08BE190E095
:102530000E942E0BEA81FB81808D882319F0878908
:10254000823099F101E028E042E270E060E08DE540
:1025500090E00E94350CEA81FB8184858F010E5F3B
:102560001F4F893061F5F981F13148F1EA81FB8132
:1025700081A1882321F19BE6968397831086815061
:1025800081A36EEB71E0C8010E940B12EA81FB810E
:102590008485893069F5F981F13150F1EA81FB8157
:1025A00080A1882329F1815080A30F900F900F9074
:1025B000DF91CF911F910F91FF90EF90089583E6E7
:1025C000EA81FB81868387831086F70183A98A309D
:1025D00028F465EB71E0C8010E940B12F70143A9D2
:1025E00050E070E060E02AE0C8010E94B711C9CF56
:1025F000F70184818A3028F465EB71E0C8010E94FC
:102600000B12F701448150E070E060E02AE0C8015D
:102610000F900F900F90DF91CF911F910F91FF902E
:10262000EF900C94B7116F927F929F92AF92BF92EE
:10263000CF92DF92EF92FF920F931F93CF93DF938E
:10264000FC01A62FC2809C012C5F3F4F4F3FF9F445
:102650008901C0E02DE0A80FB92FB11D3D018BE22B
:10266000680E711CCC1241C02E2FDF0180E09A2F22
:10267000921B9C1708F0C9C05E969C915E979817B4
:1026800020F014964C911497892F1196F0CF842F37
:102690006DE00E947C24A82E82E0B82EB90E89013C
:1026A0007901B0E0EFEF4FEF9DE0D92ECB1609F4A2
:1026B00070C0E701F9917E018F2F6D2D0E947C245F
:1026C00052E0590F5B1508F053C0A8125EC04F3F8F
:1026D00009F4AAC0842F0E947C249E5F591708F435
:1026E000A3C0B51608F051C047C0D801DD908D01D8
:1026F0008D2D622F0E947C24982E52E0590F5E305F
:10270000A9F133E0390FA3807F01B1E1EB0EF11C99
:10271000D0E0B12CAD1679F0D7018D917D01622FFB
:102720000E947C249E5F931304C0981202C0BB24B5
:10273000B394DF5FEFCFBB2021F03F5F3F3021F745
:102740005EE0D3018C9181110CC08D2D622F0E940F
:102750007C248E0F9F2F911DDC019B968C91811103
:1027600050E0D80159965C93CF5F7CCF5CE1E9CF14
:10277000B51658F4A81209C0EF3F49F08E2F6D2D01
:102780000E947C249E5F591710F0BF5F8FCFEF2F00
:10279000FCCFEF3FC9F54F3FC1F5AA15E1F0E901C4
:1027A00050E02DE0B517A9F03991832F622F0E94D8
:1027B0007C24A8130AC04F3F49F0E2E0E90F842FC0
:1027C0000E947C249E5F9E1708F0342F5F5F432F8A
:1027D000E9CF4F3FD1F420E0EDE0B217B1F0E801CE
:1027E00039918E014F3F69F0842F6E2F0E947C2417
:1027F00052E0590F832F0E947C249E5F951708F0AA
:10280000342F2F5F432FE9CF4E2F842FDF91CF91AD
:102810001F910F91FF90EF90DF90CF90BF90AF90FE
:102820009F907F906F9008954F2F5BCF0F931F93D2
:10283000CF93DF93EC0188819981009759F02A8129
:102840003B812617370730F081E0DF91CF911F9150
:102850000F9108958B016F5F7F4F0E94C7250097EE
:1028600059F0998388831B830A832C813D81232B14
:1028700059F7FC011082E8CF80E0E7CFCF93DF93D8
:10288000EC0188819981009711F00E943E25198200
:1028900018821D821C821B821A82DF91CF910895BB
:1028A000EF92FF920F931F93CF93DF93EC017B0185
:1028B0008A01BA010E94161481110BC0CE010E9438
:1028C0003E14CE01DF91CF911F910F91FF90EF90B9
:1028D00008951D830C83B701888199810E949426F5
:1028E000F0CFCF93DF93EC01FB018617970749F0F8
:1028F000608171816115710541F0448155810E94AB
:102900005014CE01DF91CF9108950E943E14F9CF6B
:10291000EF92FF920F931F93CF93DF93EC01F42E6E
:10292000122F0D960E947114FB8A1C8B0E8BEF8A5E
:1029300081E0888FDF91CF911F910F91FF90EF90F1
:1029400008950F931F93CF93DF93EC018B011982AE
:1029500018821B821A821D821C820E947114F80147
:1029600086818E8387818F8380858887818589870B
:1029700082858A8783858B87DF91CF911F910F9105
:102980000895FC0180819181009711F00C943E25FF
:102990000895AF92BF92CF92DF92EF92FF920F9382
:1029A0001F93CF93DF93CDB7DEB72C970FB6F89474
:1029B000DEBF0FBECDBF7C016B01DC011C96EC912C
:1029C000EB3008F040C0F0E0E551FB4E8C01035FB6
:1029D0001F4F0C949C24F614091557157D157D1571
:1029E000AD15D415E015E01503161F16B801CE017C
:1029F00001960E94A1149E012F5F3F4FF701468967
:102A000068E5C6010E94870DCE0101960E94C1149F
:102A100017C0B801CE0101960E94A1149E012F5F3C
:102A20003F4FD70156964C9168E5C6010E94870D2D
:102A3000CE0101960E94C114B601C7010E94340F55
:102A4000C6010E94630DF701808D8823F9F0078984
:102A5000D48813891A8219821C821B821E821D82CD
:102A6000B701635F7F4FCE0101960E9471142D2D37
:102A7000412FBE016F5F7F4FC7010E94710CCE01D5
:102A800001960E94C114D70158961C922C960FB63D
:102A9000F894DEBF0FBECDBFDF91CF911F910F9194
:102AA000FF90EF90DF90CF90BF90AF900895FC0122
:102AB000828D8C3018F4C7010E941512B801CE0126
:102AC00001960E94A1149E012F5F3F4FD701569699
:102AD0004C9168E5C6010E94870DCE0101960E94C7
:102AE000C114B601C7010E94340FC6010E94630DD4
:102AF000F701858D0E94920BA6CF0E941512B80196
:102B0000CE0101960E94A1149E012F5F3F4FD70175
:102B100056964C9168E5C6010E94870DCE0101963C
:102B20000E94C114B601C7010E94340FC6010E9461
:102B3000630DF701858D0E94920BD7011C968C9135
:102B40001C97833029F45B966C91C6010E945D0846
:102B5000B601C7010E94820F76CFFC01828D8235BB
:102B600018F4C7010E941512B801CE0101960E9407
:102B7000A1149E012F5F3F4FD70156964C9168E5F7
:102B8000C6010E94870DCE0101960E94C114B601B4
:102B9000C7010E94340FC6010E94630DF701828DA8
:102BA000823508F050CFD4CFB801CE0101960E94F3
:102BB000A1149E012F5F3F4FD70156964C9120CF15
:102BC0000E946412B801CE0101960E94A1149E01D8
:102BD0002F5F3F4FF701468968E5C6010E94870DC8
:102BE000CE0101960E94C114B601C7010E94340FA4
:102BF000C6010E94630DD7011C968C911C978730EB
:102C000009F0A6CFA0CF0E946412B801CE010196B0
:102C10000E94A1149E012F5F3F4FF701468968E58E
:102C2000C6010E94870DCE0101960E94C114B60113
:102C3000C7010E94340FC6010E94630D89CFB801FD
:102C4000CE0101960E94A1149E012F5F3F4FD70134
:102C500056964C9168E5C6010E94870DCE010196FB
:102C60000E94C114C6010E94630D01E027E040E20A
:102C70006CE070E088E090E00E94350C85E1F7019F
:102C8000868387831CE0108762EC71E05701F2E0D5
:102C9000AF0EB11CC5010E940B1227E040E26CE0B0
:102CA00070E08CE290E00E94350C86E3D701169626
:102CB0008C93169717968C93179718961C9365EC20
:102CC00071E0C5010E940B12F60184A91AE0612F80
:102CD0000E947C24682F8AE00E94D00AD601D496F4
:102CE0008C91612F0E947C24692F89E10E94D00A77
:102CF00020E04EEF51E06FE170E089E290E00E9449
:102D0000C30A20E04EEF51E064E270E089E290E017
:102D10000E94C30AF6018581612F0E947C24682FDE
:102D20008EE20E94D00AD60115968C91612F0E94E6
:102D30007C24692F8DE30E94D00A85CEAF92BF928A
:102D4000CF92DF92EF920F931F93CF93DF93CDB784
:102D5000DEB768970FB6F894DEBF0FBECDBF6C012B
:102D60005B011E861D86188A1F861A8A198A50E002
:102D700040E061EC71E0CE010D960E9450141E8A75
:102D800083E08F8B188EF6018685823080F488234D
:102D900009F45BC088E290E0EE24E39400EC11E0DB
:102DA00020E04EED51E06FE170E00E94EE06F6018A
:102DB000868511E0882321F012E0813009F010E0CF
:102DC000BE01635F7F4FCE0101960E94A1149E0158
:102DD0002F5F3F4F412F6EE4C5010E94870DCE014A
:102DE00001960E94C11400E02FE340E86CE370E01C
:102DF00090E080E00E94350C21E040E86DE370E057
:102E000090E080E00E94DD0B10E000E041E06FE325
:102E100070E0C8010E941A0C0E5F1F4F00381105A8
:102E2000A9F7CE010D960E94C11468960FB6F894CA
:102E3000DEBF0FBECDBFDF91CF911F910F91EF90FD
:102E4000DF90CF90BF90AF90089589E090E0A4CF3D
:102E50002AE731E0FC01318320830D960C94C114E4
:102E60002AEA31E0FC01318320838D549F4F0C947A
:102E70002817CF93DF93EC010E943017CE01DF912A
:102E8000CF910C943E250C943E25CF93DF93EC011B
:102E90000E942817CE01DF91CF910C943E250C940F
:102EA0003E250C943E250C943E25EF92FF920F9305
:102EB0001F93CF93DF93EC018B01198218821B8241
:102EC0001A821D821C82CB010E94BF237C01BC019F
:102ED000CE010E941614811109C0CE01DF91CF915D
:102EE0001F910F91FF90EF900C943E14FD82EC82A5
:102EF000B80188819981DF91CF911F910F91FF9047
:102F0000EF900C94B8231F93CF93DF93EC01162F0F
:102F10001A821B8218824DE050E06FEF70E0049639
:102F20000E948D264DE050E06FEF70E0CE0141969B
:102F30000E948D264DE050E06FEF70E0CE014E967E
:102F40000E948D26FE01BB9684E0DF011D928A95CA
:102F5000E9F711111982DF91CF911F910895CF9256
:102F6000DF92EF92FF920F931F93CF93DF93EC01C9
:102F7000FC01319680E081938F5F8433E1F78E010D
:102F800084E3C82ED12CE12CF12C0E946023A701F0
:102F900096010E94E223FE01E60FF11D8181D80116
:102FA000D4969C91D4979183D4968C93B1E0CB1A0C
:102FB000D108E108F10801501109E1E0CE16D10471
:102FC000E104F10411F71882DF91CF911F910F9165
:102FD000FF90EF90DF90CF9008956F927F928F9245
:102FE0009F92AF92BF92CF92DF92EF92FF920F9398
:102FF0001F93CF93DF9300D000D000D0CDB7DEB7C2
:103000004B0124E0820E911C8B010D5C1F4F7B0154
:1030100032E6E30EF11C7090ED0170942091EE0108
:103020007222DC011C96EC911C97EB3008F075C005
:103030005B016C01F0E0E15EF74E0C949C242A18D1
:103040004718A51809195C19C219B11AE21A411BCF
:103050008E1B1E1C65E873E0CE0101960E94551779
:10306000E12C00E02CE544E0BE016F5F7F4FC6011C
:103070000E948814CE0101960E94C11473FE4DC0B7
:10308000F601128E8FEF848F81E0848746C0809195
:103090000302909104028F709927892BC9F4DB01F8
:1030A00016968C91811114C060E0C4010E948317B0
:1030B00060E0C8010E948317C7010E94AF17F501A5
:1030C000E956FF4F81E09081913009F480E08083E0
:1030D000F50186818D30B0F5809103029091040254
:1030E00087709927892BC9F4D701EC9181E08E0F65
:1030F0008C93EE0DFF2DF11D6181C4010E94991189
:10310000F701808191E0980F9083E80EF11CD701C0
:1031100011966C91C8010E94991126960FB6F894E9
:10312000DEBF0FBECDBFDF91CF911F910F91FF90FA
:10313000EF90DF90CF90BF90AF909F908F907F9057
:103140006F90089582E0F601A0CFDC015A968C9131
:103150005A978F5F5A968C935A978335C0F48C3068
:1031600040F58B30D1F6F701808191E0980F908384
:10317000E80EF11CD70111968C91F601858F92A172
:10318000943059F66DE00E947C2482A3C6CF83352B
:1031900021F65B961C925B9793961C9293975A9696
:1031A0001C92FB01E956FF4F8081813069F583E075
:1031B000CACF42E5C6010E942A0FF501E956FF4F2A
:1031C00080818130B1F461E773E0CE0101960E9405
:1031D0005517EE24E39400E021E541E0BE016F5F66
:1031E0007F4FC6010E948814CE0101960E94C1142F
:1031F00094CF6FE573E0CE0101960E945517EE243F
:10320000E39400E027E4E9CF84E0D6011C968C9398
:1032100084CFFC01828D863408F046C08F5F828F98
:1032200076FE06C0F601838D882311F08150838FCE
:1032300075FE0EC0D6015B968C915B97F5012681D9
:103240002150330B821713061CF48F5F5B968C930F
:1032500073FE63CFB501C6010E94D40E882309F422
:103260005CCF8FEFD6015C968C935C975B966C91EC
:10327000C4010E947A11F601868F128EF501E9567B
:10328000FF4F8081811114C085E0D6011C968C937C
:10329000D6015B968C915B97F501968189133DCFA2
:1032A00081505B968C9339CF8FEF5C968C93B8CF1F
:1032B00084E0F6018487ECCFDC015A968C915A9712
:1032C0008F5F5A968C938432D9F190F48F3108F045
:1032D00024CF46E4C6010E942A0F62E573E0CE01C6
:1032E00001960E945517EE24E39400E028E375CF81
:1032F0008B3208F412CF8734B0F1873409F00DCF48
:10330000F601878D8F3F89F4268D458D62A1C80116
:103310000E946110D6015F968C93682FC8010E94AD
:10332000A711682FC8010E947A11F601128EF501CB
:10333000E956FF4F8081813009F039CF85E065CFB4
:10334000F601268D458D62A1C8010E946110D6014B
:103350005F968C93682FC8010E94A711682FC8013F
:103360000E947A11DACE46E4C6010E942A0F66E472
:1033700073E0CE0101960E945517EE24E39400E01D
:1033800026E32BCFFC01828D8F5F828F813509F47C
:1033900049C038F58B3008F4C0CE40E5CD010E941D
:1033A0002A0FB501C6010E94060F811122C06AE3EF
:1033B00073E0CE0101960E945517EE24E39400E0DD
:1033C00028E341E0BE016F5F7F4FC6010E94881471
:1033D000CE0101960E94C11480E8D60190968C938C
:1033E0009CCE8C3908F485C08C3909F096CE86E0E5
:1033F000AACE6EE273E0CE0101960E945517EE242C
:10340000E39400E026E341E0BE016F5F7F4FC60119
:103410000E948814CE0101960E94C11480E8F60132
:1034200081A37BCE5E968C91FB0166A9E60FF11D10
:10343000EC5BFF4F80836F5FD501D6966C933801AC
:10344000B1E16B0E711CC3010E94E10DF601878D85
:10345000D501D6966C91F501E60FF11DEC5BFF4F9F
:1034600080836F5FF50166ABC3010E94E10DB5017A
:10347000C6010E94060F950129563F4F390181115F
:1034800053C0D6015D966C91C4010E949911F6015A
:10349000658DC4010E94A711D6015C968C93F7013B
:1034A000808191E0980F9083E80EF11CD70111966E
:1034B0006C91C8010E94991181E0F3018083D601CB
:1034C00059968C9159978D30A0F45A961C925A9720
:1034D0009FEF5E969C935E975F969C935F975D9639
:1034E0009C935D978F5F59968C93599782E01C96B9
:1034F0008C9360E173E0CE0101960E945517EE2493
:10350000E39400E021E442E0BE016F5F7F4FC6011B
:103510000E948814CE0101960E94C1144BE9B501A6
:10352000C6010E942A0FF9CDD7018C9191E0980F26
:103530009C93E80EF11CF701F1806F2DC4010E94ED
:1035400099116F2DC4010E94A711D6015C968C932E
:103550005C975D966C91C8010E949911F3011082ED
:10356000AECF69EB72E0CE0101960E945517E12CB7
:1035700000E028E544E0BE016F5F7F4FC6010E9476
:103580008814CE0101960E94C11473FEC6CD81E05D
:10359000D60159968C9359975A961C925A978FEF49
:1035A0005C968C935C975E968C935E975F968C93FB
:1035B000F501E956FF4F8081813011F487E0C3CDDA
:1035C00088E023CEFC01828D863408F056C08F5FE0
:1035D000828F76FE06C0F601838D882311F081501C
:1035E000838F75FE0EC0D6015B968C915B97F501BB
:1035F00026812150330B821713061CF48F5F5B96D4
:103600008C9373FE8ACDB501C6010E94D40E882327
:1036100009F483CD8FEFD6015C968C935C975B9613
:103620006C91C4010E947A11382FF601868F128E98
:10363000838DD50116969C91891302C08150838F8A
:10364000F601878D8F3F89F02DE0622F0E947C2448
:10365000E82F832F0E947C24E81739F0EA0DFB2D18
:10366000F11DE25AFF4F81E08083F501E956FF4FDB
:1036700080818111A5CF89E0C8CD8FEF5C968C93B6
:10368000A8CFFC01828D8F5F828F8432A9F150F424
:103690008F3108F042CD46E4CD010E942A0F6CEA3A
:1036A00072E01DCE8B3208F438CD873480F1873438
:1036B00009F033CD5F968C915F978F3F91F45E96C2
:1036C0004C915E9792966C91C8010E941313F6017B
:1036D000878F682FC8010E94A711682FC8010E9418
:1036E0007A11D6015A961C92F501E956FF4F808156
:1036F000813009F063CFBFCF5E964C915E97929672
:103700006C91C8010E941313F601878F23CE46E403
:10371000CD010E942A0F60EA72E02BCEFC01828D5F
:103720008F5F828F813588F58C3008F07EC08B30BA
:1037300009F0F3CC40E5CD010E942A0FB501C60186
:103740000E94060F811151C064E972E0CE0101961A
:103750000E945517EE24E39400E028E341E0BE0107
:103760006F5F7F4FC6010E948814CE0101960E94B0
:10377000C114D50114968C9114978F5F14968C9375
:1037800080E8F60180A311A2C8CC813509F0C5CC30
:10379000818D8F5F818FCD010E94060FF501E95663
:1037A000FF4F811146C081E0808387E0D6011C96DF
:1037B0008C93D6015A961C925A978FEF5E968C93F3
:1037C0005E975F968C935F975D968C935D979096CE
:1037D0001C92909791961C92919759968C9159971B
:1037E0008E3008F49ACC8AE011CDD501D3968C9115
:1037F000D3978F5FD3968C9368E872E0CE010196E1
:103800000E945517EE24E39400E026E341E0BE0158
:103810006F5F7F4FC6010E948814CE0101960E94FF
:10382000C114F60110A280E8FBCD81E058968C937C
:1038300074CC108288E0F6018487BBCFFC01828DB6
:103840008A3091F068F0893C08F067CC803508F048
:1038500091C091E058969C938F5FF601828F8DC046
:103860008F5F5A968C9359CCFB0144812581E42FBC
:10387000F0E02E0F3F2F311DDB01D4968C91D497B1
:10388000D3969C91890F9927991F233331059CF476
:10389000C39774F54A3008F062C0EF5AF34E0C94A7
:1038A0009C24831C831C831C831C8E1C8E1C991CD3
:1038B000991CA41CA41C82179307D4F46EE672E032
:1038C000CE0101960E945517EE24E39402E02EE605
:1038D00041E0BE016F5F7F4FC6010E948814CE0198
:1038E00001960E94C114F601828D8F5F828F15CCE4
:1038F00068E572E0CE0101960E945517EE24E3942C
:1039000002E024E6E5CF6AE372E0CE0101960E9470
:103910005517EE24E39401E028E7DACF69E272E07C
:10392000CE0101960E945517EE24E39401E026E4AF
:10393000CFCF6DE172E0CE0101960E945517EE24C3
:10394000E39400E02EE3C4CF6FE072E0CE01019675
:103950000E945517EE24E39402E020E4B9CF62E020
:1039600072E0CE0101960E945517EE24E39402E026
:1039700028E3AECF883C09F06FCFD50114968C9127
:103980001497811104C0D3969C91992301F1209141
:103990000302309104022F703327232BC1F48823B4
:1039A00031F08150F501848385818F5F8583D50156
:1039B000D3968C91D397882351F08150D3968C93D2
:1039C000D397D4968C91D4978F5FD4968C9373FEB3
:1039D000A4CBF50185819481890F858384A993A95E
:1039E000890F84AB148213AAD6015A961C92858142
:1039F000823318F484A9823330F0F501E756FF4F83
:103A000081E080838ACBC7010E94AF1760E0C401C8
:103A10000E94831760E0C8010E94831784E0F601CA
:103A200082A381E0818F9FEF948F2FCBAF92BF92C3
:103A3000CF92DF92EF92FF920F931F93CF93DF937A
:103A40008C01EB016B0184E0C80ED11C7B01E3E328
:103A5000EE0EF11C5B01F2E6AF0EB11CC5010E9437
:103A6000AF1760E0C6010E94831760E0C7010E94A3
:103A70008317C5010E94AF1761E0C6010E9483173A
:103A800061E0C7010E948317F801148681E083A3D7
:103A9000818FC956DF4F8883DF91CF911F910F919E
:103AA000FF90EF90DF90CF90BF90AF9008951F925E
:103AB0000F920FB60F9211248F939F938091E10084
:103AC0009091E100937F9093E10083FF0FC01092EB
:103AD000E90091E09093EB001092EC0092E3909358
:103AE000ED001092020298E09093F00082FF22C055
:103AF00093E09093E9009091F200992319F09AE3F2
:103B00009093E8009091EA01992341F09091EA01A5
:103B100091509093EA01911101C05D9A9091010238
:103B2000992341F0909101029150909301029111DB
:103B300001C0289A84FF18C08091E2008E7E8160C7
:103B40008093E2008091E1008F7E8093E10080917C
:103B5000EB018E7E80618093EB019F918F910F909E
:103B60000FBE0F901F90189580FFF7CF8091E20055
:103B70008E7E80618093E2008091E1008E7E809352
:103B8000E1008091EB018E7E8160E5CF1F920F9264
:103B90000FB60F921124CF92DF92EF92FF920F9304
:103BA0001F932F933F934F935F936F937F938F93C5
:103BB0009F93AF93BF93EF93FF93CF93DF93CDB7D3
:103BC000DEB76C97DEBFCDBF1092E9008091E800B0
:103BD00083FF25C068E0CE0145960E94590982EF17
:103BE0008093E8008D8987FF39C09091E80090FFAD
:103BF000FCCF982F907609F034C19E894F89588D5B
:103C00002F89F88C911131C0803861F58091EC01D9
:103C10008093F1001092F1008EEF8093E8006C9693
:103C20000FB6F894DEBF0FBECDBFDF91CF91FF91ED
:103C3000EF91BF91AF919F918F917F916F915F9124
:103C40004F913F912F911F910F91FF90EF90DF9037
:103C5000CF900F900FBE0F901F9018959EEF9093EE
:103C6000E800C7CF1092F100D5CF913059F48111FF
:103C7000D3CF4130510581F68091EC018D7F809347
:103C8000EC01CACF933049F48111C6CF41305105C0
:103C900019F68091EC018260F2CF953041F4809169
:103CA000E80080FFFCCF20682093E300B5CF96307A
:103CB00009F0A9C00B8D1C8D22E01092E900109232
:103CC000E8011092E701F2122EC01092E601109264
:103CD000E5010E9428091F8299E09983FA8291E008
:103CE0009E8390EA98879AEF99872091E701309117
:103CF000E801275F3F4F3C832B838D831092E900BF
:103D00001092E8011092E7011093E6010093E5019B
:103D100049E050E0BE016F5F7F4F80E00E940209E2
:103D20000E94280979CF1093E6010093E5010E94D3
:103D3000BA08DC0112960D911C910115110509F4C8
:103D400051C1D801ED91FC910480F581E02DBE01B7
:103D50006B5E7F4FC8010995009709F03EC1F801DD
:103D600000851185EACFF3E0FF120EC08F8988230A
:103D700009F440C0823061F440E869E087E499E0EA
:103D80000E944220811148CF81E28093EB0047CF0F
:103D9000813029F440E86BE08BE399E0F1CF833088
:103DA00099F70E94BA08DC011296ED90FC908E0102
:103DB0000F5F1F4F6801E114F10479F0D701ED9115
:103DC000FC910680F781E02DB801C7010995080F25
:103DD000111DF701E084F184EECFD8011C92F601A9
:103DE00001900020E9F73197BF016C197D0940E08F
:103DF000C601C6CF65E279E0FB01449150E080E85E
:103E00000E94020909CF973009F4BECF983021F4FF
:103E100081E08093F10000CF993009F0FDCE8370EE
:103E200009F0B2CFE4E3F1E081E031E096E32191E3
:103E3000222371F08093E9003093EB00DF011197AA
:103E40002C912093EC009093ED008F5F873079F7F1
:103E50008EE78093EA001092EA008F898093020235
:103E6000DBCE8B8D9C8D1092E9001092E8011092B0
:103E7000E7019093E6018093E501898D811192C05D
:103E80008E899D89913A49F4813209F07DCF47E0CE
:103E900050E064E071E080E0B3CF913209F074CF7C
:103EA000833269F48F89988DB0E0A0E0809300019F
:103EB00090930101A0930201B0930301ADCE803233
:103EC00069F48091E80082FFFCCF67E084E091E034
:103ED0000E9459098BEF8093E8009ECE823209F050
:103EE0009BCE8F8980930B01EEEFFFE78591949134
:103EF0008B3F9C4D51F1E0E0F8E0809104019091FE
:103F00000501A0910601B0910701803B9440A105F5
:103F1000B105F1F480910B0180FD1AC0EE3F8AE0FB
:103F2000F80789F587E797E79183808380916000A0
:103F30008093E90188E19BE00FB6F894A8958093FF
:103F400060000FBE9093600067CEEEEFFAE0D5CF31
:103F5000808191818737974709F05ECEA89580913F
:103F600060008861809360008091E9018093600027
:103F7000EE3F2AE0F20789F08091FE0A9091FF0A55
:103F80009183808349CE808191818737980751F250
:103F90009093FF0A8093FE0AC5CF1092FF0A1092F9
:103FA000FE0A3ACE0E94BA08DC0112960D911C91CD
:103FB0000115110509F4E8CED801ED91FC910190AD
:103FC000F081E02DBE016B5E7F4FC8010995811124
:103FD00023CEF80100851185EBCF181619060CF4D5
:103FE0001BCED2CEF1E0FF12BECE69E279E004CF63
:103FF0000F920FB68F939F93EF93FF938091E00101
:104000008D5F8D3708F08D578093E001E1EFF1E08F
:1040100080818E4F808391819F4F918382818F4FCA
:10402000828383818F4F8383E1EEF1E080818F5F14
:10403000808381818F4F818382818F4F82838381AF
:104040008F4F83838FB18F6066991C9B88278F3633
:1040500081F48091DF01981B963068F0E0E0F8E091
:1040600087E78083818388E180936000F09360001C
:10407000FFCF9093DF01FF91EF919F918F910FBE42
:104080000F901895EF92FF920F931F93CF93DF93AA
:10409000F82E192FE62E042F81E0860F880F0E943C
:1040A000D40883E00E94D408CF2DD12FEC0EFD2E32
:1040B000F11CCE15DF05B9F007FF13C0FE01849196
:1040C0000E94D408182F80E00E94D40881232196F2
:1040D0008111EFCFDF91CF911F910F91FF90EF9062
:1040E00008958881EDCF81E0F5CFFC0187E291E072
:1040F00091838083158214828BE191E09383828384
:1041000088E0838781E08287178210861682118675
:104110000895CF93DF93109208061092070688EE59
:1041200093E0A0E0B0E08093090690930A06A09384
:104130000B06B0930C0688E591E0909306068093F9
:1041400005068FEF9FEF9093120680931106109251
:104150005B0610925C06EDE5F6E08193848796E0BD
:10416000EA36F907D1F710928A0610928B06ECE82E
:10417000F6E089E996E0CFEFC193C4878E179F07D9
:10418000D9F7D1E0D093EC068AEA91E090935606F5
:10419000809355068FEE96E00E9475208AE991E0A3
:1041A0009093F0068093EF068BEF96E00E947520C7
:1041B0008AE891E09093FC068093FB061092070733
:1041C00088E097E00E9475208AE791E090930907C4
:1041D0008093080710921407109216071092150783
:1041E000109218071092170710921A0710921907C9
:1041F00050E040E061EC71E085E197E00E945014EE
:1042000010921E0783E080931F07109220071092E0
:1042100021071092220710922307C0932407C0930E
:104220002507C0932607C0932707109228071092EE
:10423000290784E080932A07D0932B078CE297E02C
:104240000E9475208AE691E090932D0780932C07B9
:10425000109238071092390710923A07DF91CF91E8
:104260000895789483E084BD83E085BD81E08093E8
:104270006E00E1E8F0E083E08083E0E881E08083A5
:10428000E1E983E08083E0E981E08083E1EC87E09D
:104290008083E3EC81E08083E0EC82E08083E2ECE9
:1042A00081E08083EAE787E08083806880831092E2
:1042B00002021092EC011092EB018091D700816014
:1042C0008093D70080EA8093D80089B5806189BD4A
:1042D00089B5826089BD09B400FEFDCF81E090E020
:1042E0000E94140A8091D8008F7C80618093D8004E
:1042F0008091E000807F8093E0008091E1008E7EDD
:104300008093E1008DE08093E200559A209A81EC41
:1043100080937C0081E185B987E684B984E38BB919
:104320008FE38AB9769A6E9880EF81BB10BA80E5E8
:104330008CBD81E08DBD85E00E94D20B599A85E04D
:104340000E94D20B5C98E1E5F9E085918EBD0000FA
:104350000DB407FEFDCFEE35C1F75C9A81E880937E
:10436000640081E0809365000E94D50B84FF15C036
:104370005C9885EA8EBD00000DB407FEFDCF5C9A07
:104380002E9858982D9880916400806280936400E4
:1043900081E083BF889513BEFCCF0E94D50B82FFBE
:1043A00039C02E9A589A2D980E94D50B8471843169
:1043B000A1F42D9A88EC0E94D20B58986FEF82E0FE
:1043C00090E00E94D02384EF91E00E94140A589A52
:1043D0000E94D50B84718431D9F30E94D50B847867
:1043E0008438A1F42D9A88EC0E94D20B2E9860E0BC
:1043F00082E090E00E94D02384EF91E00E94140AB2
:104400002E9A0E94D50B84788438D9F388EC0E94C8
:10441000D20BC3CF2E9858982D9882E090E00E943E
:10442000C823882309F454C03E9A579A80E18093A8
:104430000C01809164008E7F8093640080917A00EB
:10444000806480937A0080917A0086FDFCCFC091D1
:104450007800D09179000E94AB0AAB01BC01CE017B
:10446000B0E0A0E0DC01992788278C019D01040FB2
:10447000151F261F371FC901B80120916400216054
:1044800020936400611571058105910511F00E946A
:10449000AF231092EE06BB24B39483E0C82E82E0D3
:1044A000D82E05E012E0D0E090E0E92E90E0F92E61
:1044B000AA24A39422E0922EC091EF01CC2359F0BC
:1044C0001092EF01E114F104B9F30E940000F4CF5F
:1044D0003E985798ABCF9091F1018091F001292F30
:1044E000281B822F20910C01821738F48F5F8217CE
:1044F00048F7B3BE889513BEE5CFA092EF01909325
:10450000F001F601808191810196808391838091F1
:10451000EE018093ED010E94D50B8093EE01F8012E
:10452000C111CFEF8FEFC193C193C193C19381505C
:10453000D0F78091EE06813051F1A0F0823009F47D
:104540003BC0833009F455C0F80180E098E000805A
:104550000EBCD111012C019780FDFDCF0192B9F75E
:104560000DB4B0CF8091ED06882321F0109257064C
:104570001092ED0665E576E08BEF96E00E949D0EC9
:1045800065E576E08BEF96E00E94610EDDCF9091BD
:10459000ED06913021F0809357068093ED0665E596
:1045A00076E08FEE96E00E94530E65E576E08FEEA2
:1045B00096E00E943F0EC8CF9091ED06923061F0D8
:1045C0008093570665E576E088E097E00E94161D27
:1045D0008091EE068093ED0665E576E088E097E051
:1045E0000E94ED1765E576E088E097E00E94C91427
:1045F000ABCF9091ED06933031F0809357069092B7
:104600003A078093ED0665E576E08CE297E00E943C
:10461000AE0F65E576E08CE297E00E949E1694CF9F
:1046200085E596E00C9430178F929F92AF92BF92DF
:10463000CF92DF92EF92FF92CF93DF93EC016881EC
:1046400079818A819B81611571058105910521F42C
:1046500064E279ED8BE597E02DE133EF41E050E046
:104660000E94E22349015A019B01AC01A7EAB1E48F
:104670000E9401246B017C01ACEEB4EFA501940112
:104680000E940F24C60ED71EE81EF91EF7FE06C0B4
:1046900081E0C81AD108E10880E8F80AC882D98206
:1046A000EA82FB82C701B6019F77DF91CF91FF902D
:1046B000EF90DF90CF90BF90AF909F908F90089534
:1046C0008F929F92AF92BF92CF92DF92EF92FF9222
:1046D00060910D0170910E0180910F019091100178
:1046E000611571058105910521F464E279ED8BE591
:1046F00097E02DE133EF41E050E00E94E2234901D1
:104700005A019B01AC01A7EAB1E40E9401246B01AC
:104710007C01ACEEB4EFA50194010E940F24C60EFB
:10472000D71EE81EF91EF7FE06C081E0C81AD108A0
:10473000E10880E8F80AC0920D01D0920E01E092E3
:104740000F01F0921001C701B6019F77FF90EF9023
:10475000DF90CF90BF90AF909F908F90089560931F
:104760000D0170930E0180930F0190931001089535
:10477000FB01DC0105900D920020E1F70895FC019A
:1047800005900020E9F7809590958E0F9F1F089562
:10479000F999FECF92BD81BDF89A992780B5089509
:1047A000262FF999FECF92BD81BDF89A019700B4EA
:1047B000021639F01FBA20BD0FB6F894FA9AF99A8A
:1047C0000FBE0895052E97FB1EF400940E94F92356
:1047D00057FD07D00E944B2407FC03D04EF40C94E5
:1047E000F92350954095309521953F4F4F4F5F4F9E
:1047F000089590958095709561957F4F8F4F9F4F4D
:1048000008950E946D24A59F900DB49F900DA49FC4
:10481000800D911D11240895B7FF0C9401240E946E
:104820000124821B930B08952F923F924F925F9227
:104830006F927F928F929F92AF92BF92CF92DF92B0
:10484000EF92FF920F931F93CF93DF93CDB7DEB715
:10485000CA1BDB0B0FB6F894DEBF0FBECDBF0994A9
:104860002A88398848885F846E847D848C849B8400
:10487000AA84B984C884DF80EE80FD800C811B810E
:10488000AA81B981CE0FD11D0FB6F894DEBF0FBE3D
:10489000CDBFED010895A1E21A2EAA1BBB1BFD019D
:1048A0000DC0AA1FBB1FEE1FFF1FA217B307E4070F
:1048B000F50720F0A21BB30BE40BF50B661F771F67
:1048C000881F991F1A9469F7609570958095909547
:1048D0009B01AC01BD01CF010895A29FB001B39F20
:1048E000C001A39F700D811D1124911DB29F700DF9
:1048F000811D1124911D0895991B79E004C0991F11
:10490000961708F0961B881F7A95C9F78095089529
:10491000AA1BBB1B51E107C0AA1FBB1FA617B707E5
:1049200010F0A61BB70B881F991F5A95A9F7809501
:104930009095BC01CD010895EE0FFF1F0590F491F5
:10494000E02D09940F931F93CF93DF93823091054D
:1049500010F482E090E0E0913D07F0913E0730E0F6
:1049600020E0B0E0A0E0309799F42115310509F47A
:104970004AC0281B390B24303105D8F58A819B8128
:104980006115710589F1FB0193838283FE0111C0DA
:10499000408151810281138148175907E0F048177F
:1049A000590799F4109761F012960C931297139689
:1049B0001C933296CF01DF91CF911F910F910895F3
:1049C00000933D0710933E07F4CF2115310551F0B8
:1049D0004217530738F0A901DB019A01BD01DF013D
:1049E000F801C1CFEF01F9CF90933E0780933D07C7
:1049F000CDCFFE01E20FF31F819391932250310935
:104A000039832883D7CF20913B0730913C07232B54
:104A100041F4209113013091140130933C0720930D
:104A20003B0720911101309112012115310541F40C
:104A30002DB73EB74091150150911601241B350B3F
:104A4000E0913B07F0913C07E217F307A0F42E1B1F
:104A50003F0B2817390778F0AC014E5F5F4F2417E2
:104A6000350748F04E0F5F1F50933C0740933B07BC
:104A7000819391939FCFF0E0E0E09CCFCF93DF93C1
:104A80000097E9F0FC01329713821282A0913D0752
:104A9000B0913E07ED0130E020E01097A1F42081B5
:104AA0003181820F931F20913B0730913C072817DB
:104AB000390709F061C0F0933C07E0933B07DF91B1
:104AC000CF910895EA01CE17DF07E8F54A815B81AF
:104AD0009E0141155105B1F7E901FB83EA83499134
:104AE0005991C40FD51FEC17FD0761F480819181A6
:104AF0000296840F951FE9019983888382819381AF
:104B00009B838A83F0E0E0E012968D919C9113974D
:104B10000097B9F52D913C911197CD010296820F26
:104B2000931F20913B0730913C072817390739F62E
:104B3000309751F510923E0710923D07B0933C0715
:104B4000A0933B07BCCFD383C28340815181840FA4
:104B5000951FC817D90761F44E5F5F4F888199810F
:104B6000480F591F518340838A819B81938382839D
:104B70002115310509F0B0CFF0933E07E0933D07D2
:104B80009ECFFD01DC01C0CF13821282D7CFB0E0EF
:104B9000A0E0EDECF5E20C9416248C01009751F4A2
:104BA000CB010E94A2248C01C801CDB7DEB7E0E1A1
:104BB0000C943224FC01E60FF71F9C0122503109AE
:104BC000E217F30708F49DC0D901CD91DC9111974C
:104BD000C617D70798F0C530D10530F3CE0104973A
:104BE0008617970708F3C61BD70B2297C193D1935B
:104BF0006D937C93CF010E943E25D6CF5B01AC1A0A
:104C0000BD0A4C018C0E9D1EA0913D07B0913E0740
:104C1000512C412CF12CE12C109731F580913B0760
:104C200090913C078815990509F05CC04616570617
:104C300008F058C08091110190911201009741F441
:104C40008DB79EB74091150150911601841B950BAD
:104C5000E817F90708F055C0F0933C07E0933B07CD
:104C6000F90171836083A0CF8D919C911197129669
:104C70006C90129713967C901397A815B90559F567
:104C80006C0142E0C40ED11CCA14DB0420F1AC015B
:104C90004A195B09DA011296159780F062827382D5
:104CA00051834083D9016D937C93E114F10471F039
:104CB000D7011396FC93EE93129776CF22968C0F22
:104CC0009D1FF90191838083F301EFCFF0933E079D
:104CD000E0933D0769CF4816590608F42C017D0181
:104CE000D3019ACFCB010E94A2247C01009749F006
:104CF000AE01B8010E948426C8010E943E258701AA
:104D000053CF10E000E050CFFB01DC0102C0019066
:104D10000D9241505040D8F70895DC0101C06D93C9
:104D200041505040E0F70895FB01DC0101900D92E5
:104D30000020E1F7089516E0C3ECD6E004C0FE01C0
:104D40000E949C242196C43CD107C9F7F894FFCF58
:104D5000FFFFFFFF00E10000000000001001000065
:104D60000000003F07800000000000E80F660948CF
:104D70001047100000000000000000B211B211D373
:104D800008D30800C18081000000EA00E500E000CF
:104D9000DB00D600D100CC00C700C000BB00B600CD
:104DA000B100AC00000000009309280AB409A90969
:104DB000FA09B809D60900000000B3114317CE085C
:104DC000B211AE0F9E160000000028174517161DE1
:104DD000B211ED17C91400000000B4114F17D2082A
:104DE000B2119D0E610E00000000B5115117D208DE
:104DF000B211530E3F0E00000000301739175472E5
:104E0000756D7073003000206F6620313300202DE7
:0A4E100020004D6500596F75000089
:00000001FF
