:100000000C94450F0C946D0F0C946D0F0C946D0FA8
:100010000C946D0F0C946D0F0C946D0F0C946D0F70
:100020000C946D0F0C946D0F0C946D0F0C946D0F60
:100030000C946D0F0C946D0F0C946D0F0C946D0F50
:100040000C946D0F0C946D0F0C946D0F0C946D0F40
:100050000C946D0F0C946D0F0C946D0F0C94C62ABC
:100060000C946D0F0C946D0F0C946D0F0C946D0F20
:100070000C946D0F0C946D0F0C946D0F0C946D0F10
:100080000C94102B0C946D0F0C946D0F0C946D0F41
:100090000C946D0F0C946D0F0C946D0F0C946D0FF0
:1000A0000C946D0F0C946D0F0C946D0F4A010A00A7
:1000B00000000A00008006010A0000000A0000801B
:1000C000B8010A0000000A000080A5000A00000034
:1000D0000A00008083000A0000000A000080DC00A3
:1000E0000A0000000A00008052000A0000000A0016
:1000F000008041000A0000000A0000806E000A0033
:1001000000000A0000800A09000000F070FE7EFF77
:100110001EFF4EFF2EFF50FE00F000000001000108
:1001200000010001000100010001000100010001C7
:1001300007070040007E1E7F067F167F007E00407E
:1001400005050010001F021F001F0010030300061A
:10015000000700061017808040C020E020E07CFCF3
:1001600002FE01FFF1FFF9FFDAFE04FC78F880805F
:100170000000000000007F7F80FF00FF37FFFEFFD0
:10018000C0FF80FFFFFFFFFFBBFF00FF0FFFE4FC8E
:10019000F2FE04FCF8F800000000010142433C7F3D
:1001A000017F727F7F7F7F7F6F7F387F1C7F267FFD
:1001B0005B5F040703030F14808040C020E020E051
:1001C0007CFC02FE01FFF9FFDAFE04FC78F8808077
:1001D0000000000000000F0F101F203F4F7F98FF0E
:1001E00030FF50FFFFFFFBFF00FF1FFF84FC62FE9C
:1001F00084FC78780000000000000808070F000F5A
:10020000000F0F0F0D0F070F030F040F0B0B000054
:1002100000000B10C0C020E09CFC02FEF1FFE9FFD3
:1002200002FEBCFCC0C000000000030384877BFF0B
:1002300006FFFBFF5EFF30FF51FFACBF111F0E0E2C
:10024000090BC0C020E0DCFC82FEF1FF02FEACFC2A
:1002500050D080800000050502070107070703074B
:1002600001070207050509081010A8B854FC22FE72
:10027000F9FF42FE2CFCD0F0202007050606090FEE
:100280000B0F05070B0F090F06060606090F090FCE
:100290000507090F090F06060A050C0C121E171F89
:1002A0000B0F0B0F0B0F0B0F171F121E0C0C0C0C50
:1002B000121E151F090F090F090F090F151F121E16
:1002C0000C0C1008787884FC86FE96FE657F657FAE
:1002D000757F657F657F757F657F657F96FE86FE8E
:1002E00084FC7878787884FC82FE92FE517F417F8E
:1002F000417F417F417F417F417F517F92FE86FE5A
:1003000084FC7878140AF0F008F814FC0AFE2AFE3F
:1003100049FF49FF49FF69FF49FF49FF69FF49FF5D
:1003200049FF49FF2AFE0AFE14FC08F8F0F001011B
:1003300002030203020302030101010101010101A1
:100340000101010101010101010101010203020397
:10035000020302030101F0F008F804FC02FE32FE81
:1003600031FF01FF01FF09FF01FF01FF09FF01FF4D
:1003700001FF31FF32FE02FE04FC08F8F0F001013B
:100380000203020302030203010101010101010151
:100390000101010101010101010101010203020347
:1003A0000203020301011B0D606090F048F8A4FCF9
:1003B00012FE59FF55FF15FF15FF15FF15FF55FFDD
:1003C00095FF55FF95FF55FF15FF15FF15FF15FF0D
:1003D00055FF59FF12FEA4FC48F890F060600F0F23
:1003E000101F101F101F111F111F0D0F05070507EC
:1003F0000707050707070507070705070707050795
:100400000707050705070D0F111F111F101F101FEC
:10041000101F0F0F606090F008F804FC02FE61FFEF
:1004200061FF69FF01FF09FF01FF09FF01FF09FFEC
:1004300001FF09FF01FF09FF01FF69FF61FF61FF84
:1004400002FE04FC08F890F060600F0F101F101FF0
:10045000101F101F101F0C0F0407040704070407C8
:100460000407040704070407040704070407040734
:1004700004070C0F101F101F101F101F101F0F0F4D
:100480002311808040C030F088F844FC5AFE4DFFB4
:1004900055FF51FF55FF55FF55FF55FF55FF55FFC0
:1004A00055FF55FF55FF55FF55FF55FF55FF55FFAC
:1004B00055FF55FF55FF51FF55FF4DFF5AFE44FCB8
:1004C00088F830F040C08080FDFD02FF51FF12FF30
:1004D00004FF05FF15FF15FFD4FF547F547F547FA1
:1004E000447F447F547F457F467F557F467F457FCD
:1004F000547F447F447F547F547F547FD4FF15FF43
:1005000015FF05FF04FF12FF51FF02FFFDFD000074
:1005100001010101010101010101010101010000CD
:1005200000000000000000000000000000000000CB
:1005300000000000000000000000000000000000BB
:10054000000000000101010101010101010101019F
:1005500001010000808040C030F008F804FC82FEF9
:1005600081FF91FF81FF91FF01FF11FF01FF11FF4B
:1005700001FF11FF01FF11FF01FF11FF01FF11FF3B
:1005800001FF11FF01FF91FF81FF91FF81FF82FEBB
:1005900004FC08F830F040C08080FDFD02FF40FF01
:1005A00000FF00FF01FF01FF01FFC1FF417F407F0E
:1005B000407F407F407F407F407F407F407F407F43
:1005C000407F407F407F407F407F407F417FC1FF31
:1005D00001FF01FF01FF00FF00FF40FF02FFFDFDE3
:1005E00000000101010101010101010101010101FD
:1005F00000000000000000000000000000000000FB
:1006000000000000000000000000000000000000EA
:1006100000000000000001010101010101010101D0
:10062000010101010000D5F08D14A1C881CFD9F1DD
:10063000AF2000F0F89C8E8783878E9CF8F0000036
:10064000FEFF0303030303070EFCF80000FEFF0395
:1006500003030303070EFCF80000FFFF0000000087
:10066000000000FFFF0000FEFF8383838383C7EE4B
:100670007C380000F8FC0E07030303070EFCF800AB
:10068000003F7FE0C08080C0E07F3FFFFF010101AD
:1006900001010101FFFF0000FFFF0C0C0C0C1C3ED0
:1006A00077E3C100007FFFC0C0C0C0C0E0703F1F43
:1006B00000001F3F70E0C0C0C0E0703F1F00007F1F
:1006C000FFC1C1C1C1C1E3773E1C00001F3F70E004
:1006D000C0C0C0E0703F1F000000000001FFFF012C
:1006E0000000000108FF601000000C0C0CFCFC0C6A
:1006F0000C0CF0F81C0C0C0C1CF8F00000FCFCCCF2
:10070000CCCCFC7800000000000000FCFC0C0C0CC1
:100710001CF8F00000FCFCCCCCCCCC7C380000FCFD
:10072000FC00043CF8C000C0F83C0400FCFCCCCC4D
:10073000CCCCCC0000FCFCCCCCCCCC7C3800007801
:10074000FCCCCCCCDC98000000408080808A8A8081
:10075000808082828A8888888A828280808A8A8051
:1007600080808080808080808080808A8A8888885D
:100770008A828280808A8A808080828A8888808A31
:100780008A808080808A8A8A808080808A8A88881D
:1007900088888880808A8A808080828A888880820F
:1007A0008A8888888A824000B801770193027D0098
:1007B00093027701B8017D00B801770193027D00B3
:1007C00093027701B8017D00B80177019302FA0026
:1007D00093027D0000007D0093027D000000F40183
:1007E0009302F4015D0177010B027D000B0277019A
:1007F0005D017D005D0177010B027D000B02770139
:100800005D017D005D0177010B02FA000B027D00A6
:1008100000007D000B027D000000F4010B02F401DA
:10082000B801770193027D009302770101800E08E1
:100830003F21211E00102A2A3C004E50503E040841
:1008400000010103010300015C081CE311313AD0EF
:10085000C3232332304606CEC089381C196000B04D
:10086000810E30C000000000000000000000000009
:100870000000000000000000000000000000000078
:10088000000000000000000000000000C0300E81E9
:10089000B00060191C3889C0CE064630322323C30D
:1008A000D03A3111E31C5A0820F010F890F828FCD7
:1008B00028FC28FC28FC90F810F810F830F820F0FC
:1008C00020F0D0F8D0F890FC0CFE82FFC2FF0CFEA6
:1008D00030FCC0F000C080C080C080C080C080C03C
:1008E00080C080C080C080C080C080C080C080C008
:1008F00080C080C080C080C080C080C080C080C0F8
:1009000080C080C080C080C080C080C080C080C0E7
:1009100080C080C080C080C080C080C080C080C0D7
:1009200080C080C080C080C080C080C080C000C047
:10093000C0F030FC0CFEC2FF82FF0CFE90FCD0F831
:10094000D0F820F020F030F810F810F890F828FCDB
:1009500028FC28FC28FC90F810F820F0000303077E
:10096000040F040F0207020701030103010301033F
:100970000103010F0A1F0A1F0A1F0A1F091F091F6F
:10098000091F091F081F011F0E3F30FFC1FF0EFF87
:1009900030FFC8FF08DF081F081F081F081F081FB7
:1009A000081F081F081F081F081F081F081F081F0F
:1009B000081F081F081F081F081F081F081F081FFF
:1009C000081F081F081F081F081F081F081F081FEF
:1009D000081F081F081F08DFC8FF30FF0EFFC1FFF8
:1009E00030FF0E3F011F081F091F091F091F091FA4
:1009F0000A1F0A1F0A1F0A1F010F01030103010337
:100A00000103010302070207040F040F0307000399
:100A10000508001C1CFEE2FF1CFE001C75052C01D5
:100A20000080BA023C00008070F8F8FEFEFEFFFF76
:100A3000FFFFFFFFFEFEFEFCF8F8701CBEFFFFFF8D
:100A4000FFFFFFFFFFFFFFFFFFFFFFFFBE1C070FC2
:100A50001FFFFFFFFFFFFFFFFFFFFFFFFFFF1F0F56
:100A60000700000000010303030303030303030162
:100A700000000000131A7088286EE21AFB29551531
:100A80001529FA1AE26C2888701CA2CB9A38C7FF85
:100A90008A1404048AFFC7389ACBA21C070812E6FE
:100AA0000E71FFE2C9C1C1E2FF710EE61208070034
:100AB0000000000102020202020202020201000022
:100AC0000000BA022C0110032C01008097043C00A6
:100AD00017043C00008009090B0F10080B101417B5
:100AE000231B14100A07110D0A080504808080904A
:100AF000B8B8FCFCFCFCB81080C0E0C0E0F0E0C07E
:100B000080C0E0E0F0F8FCF8F8F0F0E0F0F8F8F081
:100B1000F0E0E0C0C080800080C0E0F0E0800080B5
:100B200080808080808080808080808080808080C5
:100B300080808090B8B8FCFCFCFCB81080C0E0C09D
:100B4000E0F0E0C080C0E0E0F0F8FCF8F8F0F0E0A1
:100B5000F0F8F8F0F0E0E0C4CE8E9E1F9FBFBFBF5C
:100B6000BEBE9C88808080808080808003030303D9
:100B70000303030303030303030303030303030345
:100B80000303030303030303030303030303030335
:100B90000303030303030303030303030303030325
:100BA0000303030303030303030303030303030315
:100BB0000303030303030303030303030303030305
:100BC00003030303030303030303030303030303F5
:100BD00003030303030303030303030303030303E5
:100BE00003030303030303030303030300000000E1
:100BF00000000000000000000080000080E0808015
:100C00000480C080E0F0F8F0F0E0E0C0E0F0F0E058
:100C1000E0C0800C9E120000008080E08000000098
:100C200000000000000000002000000000000000A4
:100C30000000000000000000000000000080C080F4
:100C4000800100800080C080E0F0F8F0F0E0E4E097
:100C5000E0F0F0E0E0C08000800000000000040050
:100C60000000000000000000000010000303030368
:100C70000303030303030303030303030303030344
:100C80000303030303030303030303030303030334
:100C90000303030303030303030303030303030324
:100CA0000303030303030303030303030303030314
:100CB0000303030303030303030303030303030304
:100CC00003030303030303030303030303030303F4
:100CD00003030303030303030303030303030303E4
:100CE000030303030303030303030303800A808056
:100CF0008090A8A8D4D4D4D4A810804020C060107C
:100D0000E0408040A06090E87408089050A0D0288F
:100D1000081010202040408080008040E01060805B
:100D20000080808080808080808080808080808043
:100D3000808080808090A8A8D4D4D4D4A81080408B
:100D400020C06010E0408040A06090E874080890E7
:100D500050A0D0280810102020444A8A921596AE40
:100D6000AAADAAAA948880808080808080800202B8
:100D70000202020202020202020302020202020252
:100D8000020202030203030202020302030302023D
:100D9000020302030203020202030202020202022F
:100DA0000302020202020202020202020202020222
:100DB0000202020202020202020202020203020212
:100DC00002020202020202030203030202020302FF
:100DD00003030202020202020202020202030202F0
:100DE00002020202020202020202020202020000E7
:100DF0000000000000000000000000800000806093
:100E0000008004804080601088F0F060A040205096
:100E1000B040A040800C9E12000000800060800066
:100E200000000000000000000000200000000000A2
:100E30000000000000000000000000000000008032
:100E400040008001008000804080601008A0D060D9
:100E5000A4402050B040A04080008000000000006E
:100E6000040000000000000000000000100001016C
:100E70000101010101010101010001000001010066
:100E8000010001000100000101010001000000015A
:100E9000000000000000010101000100010000014C
:100EA0000001010101010101010101010101010133
:100EB0000101010101010101010101010100010024
:100EC000000100000100010001000000010100011B
:100ED000000000010001000100010001000001010B
:100EE00001010101010101010101010101011704D9
:100EF0007D000080171200FCFCFE02FFFAFFFAFFE3
:100F0000FAFFFAFFFAFF02FFFAFFFAFFFAFFFAFF11
:100F1000FAFF02FFFAFFFAFFFAFFFAFFFAFF02FFF9
:100F2000FCFE00FC00FFFFFF00FF03FF7BFF4BFF09
:100F30006BFF03FF78FF4BFF7BFF03FF7BFF2BFF64
:100F400078FF03FF7BFF43FF43FF03FF00FFFFFF2B
:100F500000FF00000001010301030103010301037D
:100F60000103010301030103010301030103010361
:100F70000103010301030103010301030001000058
:100F80000708000038443800000000487C4000009A
:100F90000000645448000000005454280000000081
:100FA00030287C000000005C54240000000038540D
:100FB000200000000004740C0000000028542800E9
:100FC0000000000854380000060800FEC6BAC6FE3D
:100FD00000FEB682BEFE00FE9AAAB6FE00FEAAAAD7
:100FE000D6FE00FECED682FE00FEA2AADAFE00FEEB
:100FF000C6AADEFE00FEFA8AF2FE00FED6AAD6FEE1
:1010000000FEF6AAC6FE1B0800FEAABEFEAABEFE91
:10101000AABEFEAABEFEAABEFEAABEFEAABEFEAA28
:10102000BEFE000408121F1000121915120A111535
:101030000A0C0A1F08171515091708007047410107
:1010400000607170787918492010496007044443A2
:101050007000170800F810F8D0FC48FC48FC88FE27
:1010600004FEF4FE54FE54FEA4FE04FEF4FE24FE30
:1010700044FEF4FE04FEC8FE48FC48FC90FC10F858
:1010800000F80005050B0B110608000C0C1E1A3F9A
:10109000123F0C1E000C121100FEFCFF02FF02FFAB
:1010A000FCFF80FE80FEFCFF02FF02FFFCFF80FED3
:1010B00080FEFCFF02FF02FFFCFF00FE00FF7FFF3F
:1010C00080FF80FF7CFF04FF04FF7CFF80FF80FF28
:1010D0007CFF04FF040F040F040F020F010700033D
:1010E00000000001000100010001000000000001FB
:1010F00000010001000100000000000000000000ED
:101100000000000012060020203030383038203037
:101110003038383C383C3C3E3C3E383C183C0018AB
:1011200000000000000000000000000000000000BF
:1011300000101038383C3C3E3C3E3E3F3E3F3C3E7B
:101140003C3E2A3F1A3F363F0C3E103C0010000048
:10115000000000000000000000303038303820303F
:1011600030383038383C283C183C303800300000EB
:10117000000012060000000000000000000000183F
:10118000183C383C3C3E3C3E383C383C3038203003
:1011900030383038203000200010103C0C3E363FF4
:1011A0001A3F2A3F3C3E3C3E3E3F3E3F3C3E3C3E9B
:1011B000383C103800100000000000000000000063
:1011C00000303038183C283C383C3038303820303B
:1011D000303830380030000000000000000000000F
:1011E0002511C0C020E050F034F48AFE45FF55FFC1
:1011F00052FE51FF51FF55FF55FF52FE55FF75FF3F
:1012000055FF51FF55FF51FF55FF51FF55FF75FF2A
:1012100055FF52FE51FF51FF55FF55FF52FE55FF3E
:1012200045FF8AFE34F450F020E0C0C00303FEFF07
:1012300000FF51FF52FF44FF45FF54FF15FFD4FF4D
:10124000547F547FD4FFA4FFA4FFB4FFA5FFA5FFE4
:10125000B5FFA5FFA5FFB4FFA4FFA4FFD4FF547FF3
:10126000547FD4FF15FF54FF45FF44FF52FF51FF49
:1012700000FFFEFF03030000000001010101010166
:101280000101010101010101000000000000000056
:10129000000000000000000000000000000000004E
:1012A000000000000000000000000000000001013C
:1012B0000101010101010101010101010000000022
:1012C000C0C020E050F034F48AFE45FF55FF52FEC6
:1012D00051FF51FF55FF55FF52FE55FF75FF55FF5A
:1012E00051FF55FF51FF55FF51FF55FF75FF55FF4A
:1012F00052FE51FF51FF55FF55FF52FE55FF45FF6E
:101300008AFE34F450F020E0C0C00303FEFF00FF6B
:1013100029FF22FF24FF05FF14FF15FFD4FF547F90
:10132000547FD4FFA4FFA4FFB4FFA5FFA5FFB5FF22
:10133000A5FFA5FFB4FFA4FFA4FFD4FF547F547FF3
:10134000D4FF15FF14FF05FF24FF22FF29FF00FF34
:10135000FEFF030300000000010101010101010182
:101360000101010101010000000000000000000077
:10137000000000000000000000000000000000006D
:101380000000000000000000000000000101010159
:1013900001010101010101010101000000003B17F1
:1013A000000000000000000000F0F0FCFCFEFEFF6A
:1013B000FEFFFEFF1EFFEEFFFEFFFEFFFEFFFEFF35
:1013C0001EFFE0FE38FCC0FEFEFFFEFFFEFFFEFF3C
:1013D0001EFF80FFE0FCFCFEFEFFFEFF7EFF8EFF97
:1013E00002FFF0FFFEFFFEFFFEFF7EFF8EFFF6FF17
:1013F00036FF163F183F08FCF0FEFEFFFEFFFEFF23
:10140000FEFF1EFFEEFFFEFFFEFFFEFFFEFF1EFFC4
:10141000E0FE78FC0078000000C0C0F8B8FFBFFF15
:10142000BFFFFFFF3FFFC7FFB8FFBFFFBFFFBFFF0B
:101430007FFF8FFFF0FF3FFF03FFF8FFBFFFBFFFFE
:10144000BFFFBFFFA3FFBCFFBFFFFFFF3FFFC7FF03
:1014500039FFC6FFB8FFBFFFBFFFFFFF3FFFCFFF52
:10146000EEFF2EFF227F38FFC0FCB8FFBFFFBFFF9B
:10147000BFFFBFFFA7FFB8FFBFFFBFFFFFFF1FFFFB
:10148000EFFF70FF3F7F033F000300000006060FE1
:10149000091F083F287F287F297F2A7F297F287FEF
:1014A000287F347F3B7F1C3F0F1F010F001F0E1F43
:1014B000097F287F287F287F287F287F2E7F337F02
:1014C0003C7F0F3F011F0E1F097F287F287F287F49
:1014D000297F2A7F2D7F307F3078003E0E1F097FC5
:1014E000287F287F2C7F237F2C7F0B7F287F287FDE
:1014F0002C7F237F3C7F0F7F000F00000000000047
:1015000000004017000000000000000000F0F0FCA8
:10151000FCFEFEFFFEFFFEFF0EFFD6FFD6FFD6FF4E
:10152000D6FFD6FF16FF16BF18BF18FCC0FCF0FE92
:10153000FEFFFEFFFEFFFEFFFEFFFEFFFEFF7EFF43
:1015400080FFF8FD00FCF0FEFEFFFEFFFEFFFEFF49
:10155000FEFFFEFF3EFFC0FFF0FCFCFEFEFFFEFFB5
:10156000FEFFFEFFFEFF1EFFE0FF08FDF0FEFEFF98
:10157000FEFFFEFF7EFF8EFFF6FF36FF163F183F91
:10158000183C001C000000C0C0F8B8FFBFFFBFFF40
:10159000FFFF3FFFC7FFB8FFBFFFBFFFBFFF7FFFDA
:1015A0008FFF70FF9FFFE3FFB8FFBFFFBFFF7FFF0D
:1015B0001FFFE3FFBCFFBFFFBFFFFFFF0FFF30FFB9
:1015C000C7FFB8FFBFFFBFFFFFFF3FFFFFFFBFFF2A
:1015D000BFFFBFFF7FFFBFFFFFFFBFFFBFFFFFFFDB
:1015E0003FFFC7FF38FFC7FFB8FFBFFFBFFFFFFFC9
:1015F0003FFFCFFFEEFF2EFF227F387F087C0008E1
:10160000000000000006060F091F083F287F287F02
:10161000297F2A7F2B7F287F287F2C7F237F2C7F89
:10162000037F0C5F0B7F287F287F2C7F357F257FF2
:10163000093F087F287F287F2C7F237F207F0C7F16
:101640000B7F287F287F287F377F287F0F3F287FC9
:10165000267F217F0E7F097F287F287F2C7F337F85
:101660003C7F013F0E1F097F287F287F287F297F2D
:101670002A7F2D7F307F3078003800000000000086
:10168000000000004120FE0105F1F1F111D1B1D1BE
:1016900011F15151515151515151515151515151DA
:1016A0000000FF00007F7F09090F06007F7F1939C6
:1016B0006F46007F7F4949414100266F49497B328F
:1016C00000266F49497B32FF0000FFFFFFFEFFFE4F
:1016D000FF0279CD95A5CD790111111101F9F9011B
:1016E000010000FF00007F7F09090F06007F7F4097
:1016F000404040007C7E0B0B7E7C00070F78780F0B
:1017000007007F7F3E1C0800FF00001F3F3F333370
:101710003333333E36363E363E363E36363E36364A
:101720003E360000FF00003E7F41417F3E007F7F4C
:101730000E1C7F7F00000000000000000000000081
:101740000000000000000000003F40504040407892
:101750004641415959414141415959414141414114
:1017600041414100007F000001017F7F0101007CB9
:101770007E0B0B7E7C007F7F09090F06007F7F496F
:10178000494141000000000000000B10F0F0F0E0C3
:10179000C080C0E0F0F0F0FFFFFF03070F0703FF7A
:1017A000FFFF202000FCFCFE02FF02FF82FFC2FFC1
:1017B000C2FFC2FFC2FFC2FFC2FFC2FFC2FFC2FF21
:1017C00082FF02FF02FFC2FFC2FFC2FFC2FFC2FFD1
:1017D000C2FFC2FFC2FFC2FFC2FFC2FF02FF02FF81
:1017E000FCFE00FC00FFFFFF00FF00FFFFFFFFFF0C
:1017F000FFFF71FF71FF71FF71FF71FFFFFFFFFFBF
:10180000FFFF00FF00FF01FF01FF01FF01FFFFFFDE
:10181000FFFFFFFF01FF01FF01FF01FF00FF00FFCE
:10182000FFFF00FF00FFFFFF00FF00FFFFFF8BFF38
:10183000FFFF00FF00FF00FF00FF00FFFFFF8BFF27
:10184000FFFF00FF00FF00FF00FF00FF00FFFFFFA2
:101850008BFFFFFF00FF00FF00FF00FF00FF00FF06
:10186000FFFF00FF003F3F7F40FF50FF50FF50FF52
:1018700050FF50FF50FF50FF50FF50FF50FF50FFF0
:1018800050FF50FF50FF50FF50FF50FF50FF50FFE0
:1018900050FF50FF50FF50FF50FF50FF50FF40FFE0
:1018A0003F7F003F080800FF00FFFF00FF00240803
:1018B000003C187E24FF42FF5AE75AE75AE75AE7EE
:1018C0005AE75AE75AE75AE75AE75AE75AE75AE710
:1018D0005AE75AE75AE75AE75AE75AE75AE75AE700
:1018E0005AE75AE75AE75AE75AE75AE75AE75AE7F0
:1018F00042FF24FF187E003C49200000001C701CA1
:10190000007848780078407800780818000000B81F
:10191000A8F8007848780030487800027E0000007F
:101920007400504828000000083C480078487800BF
:101930000000F848300030487800504828005048EF
:10194000280000083C48007C087000306850000007
:10195000007808780078487800781078007400786B
:1019600008780030487800083C4800306850003063
:10197000487C00000078087800784078007810787B
:10198000007C48300030685000780818000000786B
:10199000487800107C1400000078484800304878EF
:1019A00000780818005048280000003068500030C7
:1019B000487800784848007C087000000030487C77
:1019C0000030487800B8A078000000083C48007853
:1019D000487800000000000000000000007848483F
:1019E000007848780078087800083C48007400784F
:1019F00008780078407800306850000000780818B7
:101A0000003048780078484800740078087800B8BA
:101A1000A878005C0000000000000000000003083F
:101A2000403F80030802FD030308803F4003080392
:101A3000FD0225051F041F00111F11001F111900B1
:101A40001F041F000017151D001F1111001F111F7B
:101A5000001F051B001F151100130517151D0001A0
:101A60001F01001F051F001F051B00011F01421859
:101A700000000000001E0C7F2EFFCEFFFEFFFEFFC9
:101A8000FEFFFEFFFEFF3EFFCEFF2EFF2E7F267FD6
:101A9000187F00FCC0FEFCFFFEFFFEFFFEFFFEFF06
:101AA0007EFF8EFFFEFFFEFFFEFFFEFFFEFFFEFF3E
:101AB0000CFFF0FE00FE0C0F0E0FEEEFFEFFFEFF20
:101AC000FEFFFEFFFEFF1EFFEEFF2EFF2E7F327F8A
:101AD0000CFFC0FEFCFFFEFFFEFFFEFFFEFF7EFFD1
:101AE0008EFFFEFFFEFFFEFFFEFFFEFFFEFF0CFF70
:101AF000F0FE00F80000008000F0E0FF7EFF7FFFB6
:101B00007FFF7FFFFFFF1FFFE3FF1CFF033F000777
:101B1000008000F8F0FF7EFF7FFF7FFFFFFFFFFFE9
:101B2000FFFF63FF7CFF7FFF7FFFFFFF7FFFBFFFA4
:101B3000C7FF38FF077F000FC0C178F87FFF7FFF26
:101B40007FFFFFFFFFFF0FFFF1FF0EFF011F00836D
:101B500000F8F0FF7EFF7FFF7FFF7FFF7FFF5FFFCB
:101B600043FF7CFF7FFF7FFF7FFFFFFF3FFFC7FF3C
:101B700038FF077F000F0001003C18FF57FF51FF9F
:101B800051FF51FF59FF4FFF31FF0E7F011F00032F
:101B90000000003C18FF57FF51FF51FF51FF59FF54
:101BA0004FFF10FF5FFF51FF51FF51FF51FF5FFFDC
:101BB00060FF17FF18FF54FD54FC53FF51FF51FF06
:101BC00051FF51FF51FF57FF54FF5DFF60FF00F1D0
:101BD000003C18FF57FF51FF51FF51FF51FF4DFFD0
:101BE00033FF0D7F051F050F050F050F050F060FAE
:101BF000030F000700010000000000004A18000069
:101C0000000000000000008000F0E0FCF8FFFEFF94
:101C1000FEFFFEFFFEFF1EFFEEFFFEFFFEFFFEFFCC
:101C2000FEFFFEFF3EFFCCFF30FE80F8E0FCF8FE3A
:101C3000FCFFFEFFFEFFFEFF1EFFEEFFFEFFFEFFAE
:101C4000FEFFFEFFFEFF3EFFCCFF30FE00F880F0FF
:101C5000E0FCF8FFFEFFFEFFFEFFFEFFFEFFFEFFC3
:101C6000FEFFFEFFFEFF1EFFE0FF00F000C080F061
:101C7000E0FEFCFFFEFFFEFFFEFFFEFF1EFFEEFF8D
:101C8000FEFFFEFFFEFFFEFFFEFF7CFF88FE70FCF6
:101C900000780000008000E0C0FC78FF7FFF7FFF3D
:101CA0007FFFFFFFFFFF47FF78FF7FFF7FFFFFFF03
:101CB0007FFF9FFF67FF19FF06FFE1FF7CFF7FFFAC
:101CC0007FFF7FFFFFFF3FFFC7FF78FF7FFF7FFFA3
:101CD0007FFFFFFF7FFF8FFF71FF8EFF61FF78FFA8
:101CE0007EFF7FFFFFFF3FFF1FFFE3FF7CFF7FFFC4
:101CF0007FFF7FFFFFFF3FFFC1FF3EFF01FFE0FFD0
:101D00007CFF7FFF7FFF7FFFFFFF3FFFC7FF78FF65
:101D10007FFF7FFF7FFFFFFF7FFF8FFF71FF0EFFC2
:101D2000011F00030000003C18FF57FF51FF51FF47
:101D300051FF51FF4FFF10FF5FFF51FF51FF51FF58
:101D400051FF5FFF60FF1FFF003F003F1FFF51FF7C
:101D500051FF51FF51FF57FF55FF56FF53FF51FFF2
:101D600059FF69FF2DFF137F043F19FF5EFF53FFEB
:101D700051FF51FF59FF65FF15FF053F19FF51FF47
:101D800051FF51FF51FF5DFF43FF3CFF037F18FFF1
:101D90005FFF51FF51FF51FF51FF57FF55FF56FFA6
:101DA00053FF51FF51FF69FF2DFF337F0C7F031F4E
:101DB0000007000000000000000041005A0052002F
:101DC0000F00490050006E001A00008006011A043E
:101DD0004A01AF0000005E014A015E010000AF0051
:101DE0000601BC02F7000D020601BC0200800408D7
:101DF0003E09093E3F25251A1E2121123F21211EA1
:101E00003F2525213F0505011E21293A3F04043FB6
:101E1000213F21001021211F3F040A313F202020B3
:101E20003F02023F3F02043F1E21211E3F090906D7
:101E30001E21112E3F09093622252519013F0101D6
:101E40001F20201F0F10201F3F10103F3B04043B9A
:101E500003043807312D23211E29251E223F20008F
:101E6000322929261221251A0C0A3F08172525197F
:101E70001E252518013905031A25251A0629291EAC
:101E8000002F000000200000712B11241FBECFEF97
:101E9000DAE0DEBFCDBF12E0A0E0B1E0E6EAFAE6AC
:101EA00002C005900D92A033B107D9F727E0A0E357
:101EB000B2E001C01D92AD33B207E1F71FE0C5E407
:101EC000DFE004C02197FE010E948234C434D107B0
:101ED000C9F70E94AE2C0C9451350C940000982F39
:101EE000962B69F090E023E224BD609568BD21EF58
:101EF000209380009093880080938A0008959FEF3C
:101F00006FEF8FEFF0CFE0913B07E11102C080E06F
:101F10000895E150E0933B07409136075091370711
:101F20006091380770913907F0E0EE0FFF1FEC5D0C
:101F3000FD4F80819181B0E0A0E0DC0199278827E6
:101F400084179507A607B70710F780933607909375
:101F50003707A0933807B093390781E0089580913F
:101F6000360790913707A0913807B0913907CD0116
:101F7000AA27BB2740913B07423061F138F4442344
:101F800001F14130B1F060E0862F08954430E1F175
:101F900070F14530C1F7883042E5940708F441C03C
:101FA000813543EC940768F4885092456CE37FE0F8
:101FB0000DC0811544E09407A0F1813049E19407F8
:101FC00010F068E0E1CF945060E273E00E945A3470
:101FD0006E5FDACF803A4FE0940718F1813C4BE214
:101FE000940778F7805A9F4064E175E0EFCF803422
:101FF0004FE19407B0F0893042E5940710F7805420
:102000009F4160E679E0E2CF803B46E3940748F0E9
:1020100081344CE99407A8F6805B964368EB7BE03B
:10202000D5CF61E0B1CFCF93DF93CDB7DEB72C979B
:102030000FB6F894DEBF0FBECDBF8F7096E0899FBC
:10204000F0011124E053F94F86E0DE01179601906C
:102050000D928A95E1F786E0FE013796DE01119632
:1020600001900D928A95E1F729813A814B815C813B
:102070006D817E8180E090E02C960FB6F894DEBFF3
:102080000FBECDBFDF91CF910895CF93DF93CDB732
:10209000DEB72C970FB6F894DEBF0FBECDBFE8ECCD
:1020A000F6E030E020E044855585841795075CF51F
:1020B0006417750744F186E0829FF001839FF00D5D
:1020C0001124E053F94FDE01179601900D928A9585
:1020D000E1F786E0FE013796DE01119601900D9240
:1020E0008A95E1F729813A814B815C816D817E81FE
:1020F00080E090E02C960FB6F894DEBF0FBECDBF07
:10210000DF91CF9108952F5F3F4F369620313105F3
:1021100051F6DFCFCF92DF92EF92FF920F931F9392
:10212000CF93DF9300D000D000D0CDB7DEB77C01D5
:102130008C0197FF02C0015C1F4F36E01595079593
:102140003A95E1F7C8010E9413104B835C83CB8062
:10215000DC80C80101960E9413104B835C832B81A5
:102160003C81C70160E470E00E946E34A9014C1903
:102170005D09849F9001859F300D949F300D11243F
:1021800037FF02C0215C3F4FC90126E09595879536
:102190002A95E1F78C0D9D1D26960FB6F894DEBFAB
:1021A0000FBECDBFDF91CF911F910F91FF90EF90A8
:1021B000DF90CF900895E8ECF2E0A0E0B8E0008076
:1021C0000EBC8111012C1197A0FDFDCF0192B9F732
:1021D0000DB408951F93CF93DF93CDB7DEB72E973D
:1021E0000FB6F894DEBF0FBECDBF182F8EE0ECE126
:1021F000F1E0DE01119601900D928A95E1F780E001
:102200000E94DB10812F90E0880F991FE1E0F0E041
:10221000EC0FFD1FE80FF91F20818C0F9D1FFC01A3
:102220008281E8ECF2E020838183329695E0E83405
:10223000F907C9F72E960FB6F894DEBF0FBECDBFD3
:10224000DF91CF911F910895AF92BF92CF92DF920D
:10225000EF92FF920F931F93CF93DF93E82F60913C
:1022600036077091370780913807909139078C01B4
:1022700022273327A801E13009F44FC070F0E23083
:1022800009F471C0DF91CF911F910F91FF90EF90F2
:10229000DF90CF90BF90AF900895413526E452076C
:1022A000A0F4413020E2520770F541155840C8F4BF
:1022B00080E090E0A0E0B8E0809336079093370785
:1022C000A0933807B0933907DDCF413A2CE8520785
:1022D000F8F041385B4BB0F62FE832E041E050E0D7
:1022E00004C026E636E241E050E00E94883400E176
:1022F0000E942D35209336073093370740933807D7
:1023000050933907BFCF2CEC3CE041E050E0EDCFDB
:102310002EE135E041E050E0E8CF01501109011510
:10232000144048F41092360710923707109238077D
:1023300010923907A7CFDC019B01AD0160E070E08E
:1023400080E090E000E10E941235A9E9AA2EB9E1EF
:10235000BB2ECC24C394D12CE12CF12C00E010E056
:102360000E94B534C7CF0150110901151440D0F2B5
:10237000DC019B01AD0160E070E080E090E000E1F5
:102380000E941235E6E6AE2EF6E6BF2EE2CFFC0145
:102390000E94DB11319728F068517C4F8F4F9F4F7F
:1023A000F9CFAB01FC010E94DB11641775078E07A2
:1023B0009F07C8F30895AFEBB2E02FB7F8947D9173
:1023C0008D919C9166B52FBFA89B05C06F3F18F4F7
:1023D0007F5F8F4F9F4F22E0660F771F881F991FE7
:1023E0002A95D1F708952091B202E091B002F091C0
:1023F000B102CF0102969093B1028093B0022223E2
:1024000019F0859194910895808191810895E1E773
:10241000F0E080818D7F80831092910046984798EC
:102420001092AF020895CF92DF92EF92FF92CF9376
:10243000DF930E94F311811520E8920741F4DF91A8
:10244000CF91FF90EF90DF90CF900C94071221E096
:102450002093AF02813020E8920751F48091AD02C1
:102460009091AE029093B1028093B0020E94F3115A
:1024700097FD05C02091AC02222309F45BC0209196
:10248000AB02211157C021E02093B302EC01DF77AA
:10249000209709F052C081E08093B40246983FE94A
:1024A000C32E3FE0D32EE12CF12CCAEFD0E0E09117
:1024B000A902F091AA020995811103C081E08093DD
:1024C000B4028091B302882329F08091B40288235A
:1024D00009F446C047980E94F311009709F444C0DC
:1024E0009C01DE010E94A132DC01CB0129E0B595FF
:1024F000A795979587952A95D1F7109290002AE095
:1025000020939100D0929900C09298008093B502D8
:102510009093B602A093B702B093B8028091710075
:10252000826080937100DF91CF91FF90EF90DF90F8
:10253000CF9008951092B302A9CF9E0150E040E0E1
:1025400060E472E48FE090E00E944D3269017A010C
:1025500081E0C81AD108E108F1081092B402A7CFAF
:102560004699B8CF479AB7CF8FEF9FEFDC01C5CF21
:102570009C01E1E7F0E090819D7F908381E0809372
:10258000B2023093B1022093B0023093AE02209396
:10259000AD020C9413126F927F928F929F92AF9222
:1025A000BF92CF92DF92EF92FF920F931F93CF9340
:1025B000DF934C01DB0158017C2D4115510509F4D5
:1025C000A0C0FA016491319684914E5F5F4FC62F8F
:1025D000D0E0211102C0EE2009F1E1E0F0E0982FF7
:1025E000977011F4F0E0E0E0082F06950695069547
:1025F0000E0F1F2F111D0C9FF0010D9FF00D1C9F42
:10260000F00D1124733009F08BC0EE0FFF1F2E9FC9
:1026100080012F9F100D1124400F511F84010C0FBA
:102620001D1F101611060CF06CC0F0E88F169104F7
:102630000CF067C09D01280F311D121613060CF017
:1026400060C0A034B1050CF05CC04115510509F41F
:1026500058C03A2F3770FD01B7FD379693E0F595D6
:10266000E7959A95E1F72E2FB7FF04C0332311F0B9
:102670002FEF2E0FEE27FF27E819F90997FC02C06C
:10268000F0E0E0E090E89819003811050CF4962F7E
:102690009E1BA22F022E000CBB0B1A2F10952F3F52
:1026A0000CF010E0DD24D394082F077009F4D12C2E
:1026B000869586958695D80EAD0DB11D19971CF09F
:1026C000A8E0DA2ED21AD11A210F00E82003D00197
:1026D0001124A80DB91DAE0FBF1F619FE00DF11DA4
:1026E00011244E0F5F1FE32E032E000CFF087330E2
:1026F00009F424C108F5713009F4D6C0723009F428
:1027000084C0DF91CF911F910F91FF90EF90DF90E8
:10271000CF90BF90AF909F908F907F906F900895D3
:10272000A114B10409F473CFEE9E8001EF9E100D49
:102730001124A00EB11E6BCF7A3FB1F10D2D020F07
:102740007B3FF9F62017E9F2BD0168537D4FD12C8C
:10275000C12CC91608F0A2C0FA01EC0DFD1DE491D0
:10276000F0E04F010E2C02C0880C991C0A94E2F78D
:1027700027FD06C0FB018081182D109581238083E1
:10278000332361F0273054F45B01F0E8AF0EB11C45
:10279000192D1095F501808181238083FFEFCF1AD9
:1027A000DF0A6F5F7F4FD5CF0D2D020F201709F481
:1027B000A8CFBD0168537D4FD12CC12CC91608F09C
:1027C00067C0FA01EC0DFD1DE491F0E04F010E2C05
:1027D00002C0880C991C0A94E2F727FD04C0FB0193
:1027E000808188298083332351F0273044F45B01B2
:1027F000F0E8AF0EB11CF501808189298083FFEFDD
:10280000CF1ADF0A6F5F7F4FD9CF6FEF70E0032ED3
:1028100002C0660F771F0A94E2F760957095972EB5
:102820008D2C820E281509F46CCF8D0108531D4F95
:10283000D12CC12CC91630F5FA01EC0DFD1DE49127
:10284000F0E03F010E2C02C0660C771C0A94E2F700
:1028500027FD05C0F80180818623862980833323E4
:1028600059F027304CF45801F0E8AF0EB11CF501D7
:102870008081892187298083FFEFCF1ADF0A0F5FCC
:102880001F4FD8CF2F5F4C0F5D1FA058BF4FCACF2F
:102890002F5F4C0F5D1FA058BF4F88CF2F5F4C0F8D
:1028A0005D1FA058BF4F4ECF85010E0F1F1F8D2DEE
:1028B000820F281709F425CFBD0168537D4FD12C15
:1028C000C12CC91698F5F801EC0DFD1DA490B12C92
:1028D0000E2C02C0AA0CBB1C0A94E2F7A094B09480
:1028E000FA01EC0DFD1D8490912C0E2C02C0880C79
:1028F000991C0A94E2F727FD08C0FB017080E72DC0
:10290000EA217E2E7828FB017082332349F027309C
:102910003CF4FB01E058FF4FA080BA20B928B082F8
:10292000FFEFCF1ADF0A6F5F7F4FCBCF2F5F4C0FC8
:102930005D1F0C0F1D1FA058BF4FBBCFE92EF12C00
:10294000E40FF51FA853BD4F60E870E06E197F09D2
:10295000CE19DF09AE01440F551FC1E0D0E07E0162
:10296000032E01C0EE0C0A94EAF7192F0D2D892EC3
:10297000932ECF93DF93ED01EF96EF962296A590DD
:10298000C590992059F0AE9C5001CE9C6001273033
:102990002CF4F880D094FD20FB28F99222233AF001
:1029A000FC90C094FC20FA28FD920C94D814119647
:1029B0001A9529F70A9551F0182D23951124E40F43
:1029C000F11DA60FB11DC60FD11DD9CFDF91CF913B
:1029D000112497CECF92EF920F931F9333E0C32E23
:1029E000E12C10E000E00E94CB121F910F91EF90BC
:1029F000CF900895CF92EF920F931F9332E0C32EA2
:102A0000E12C10E000E00E94CB121F910F91EF909B
:102A1000CF90089590E00C94C7118FB18095807F7E
:102A2000669B88601C9B846008958091A80208952D
:102A300080389105B4F5480F592F511D4138510583
:102A400014F040E850E0481BFB0177FD379633E077
:102A5000F595E7953A95E1F7F695FE2FEE27F79570
:102A6000E795E80FF91FE853FD4F6770772781E07E
:102A700090E001C0880F6A95EAF7382F213041F4C1
:102A8000415078F08191DF011197832B8C93F8CF1F
:102A90008095415030F09191DF01119798239C93DC
:102AA000F8CF08959091A702982329F49091A60257
:102AB000982381E009F480E00895CF93C82F0E9405
:102AC0000D15982F9C2381E09C1380E0CF910895F1
:102AD00080389105B8F460347105A0F490E121E0EC
:102AE00061FD24E060FD220F62FD2295687F969FC4
:102AF000D0011124A80FA853BD4F0C90022A40FF0B
:102B000002260C9208952F923F924F925F926F92FD
:102B10007F928F929F92AF92BF92CF92DF92EF926D
:102B2000FF920F931F93CF93DF93EC018B017A01F8
:102B30006901C61AD70AD7FE03C0D194C194D1083F
:102B400047018C1A9D0A97FE03C0919481949108C5
:102B50008C149D0454F49E2D8F2D7901292F382F2C
:102B60009C2F8D2FE801092F182FEC16FD0654F429
:102B7000902F812F8901292F382F9C2F8D2FE7012E
:102B8000E92EF82E17012C1A3D0A2901401A510A84
:102B900057FE03C0519441945108310137FE03C0E0
:102BA0008FEF681A780A759467948FEF02171307EE
:102BB0000CF481E0A82E880FBB08EC16FD06A4F0EB
:102BC00041E0BE01C8018C149D0414F0B801CE018F
:102BD0000E9468156418750877FE04C00A0D1B1D55
:102BE000620C731C2196E9CFDF91CF911F910F9159
:102BF000FF90EF90DF90CF90BF90AF909F908F901D
:102C00007F906F905F904F903F902F900895DF924C
:102C1000EF92FF920F931F93CF93DF937C01D22EFD
:102C20008B01040F111DEB0177FF02C0D0E0C0E063
:102C3000C8010134110514F080E490E0C817D907E9
:102C40003CF44D2DBE01C7010E9468152196F0CFBE
:102C5000DF91CF911F910F91FF90EF90DF9008953A
:102C6000EF92FF920F931F93CF93DF937C018B0121
:102C7000C42FD22F20E00E941815B8016D0F711DCE
:102C80006150710920E04C2FC7010E94181520E007
:102C90004D2FB801C7010E940716C7018C0F911D67
:102CA00020E04D2FB8010197DF91CF911F910F9137
:102CB000FF90EF900C940716CF92DF92EF92FF9265
:102CC0000F931F93CF93DF936B01122FEC017C01C5
:102CD000E40EF11CCE15DF0544F4202F412FB60180
:102CE000CE010E9407162196F5CFDF91CF911F915B
:102CF0000F91FF90EF90DF90CF900895AF92BF9229
:102D0000CF92EF92FF920F931F93CF93DF93C82F31
:102D100083ECE82E82E0F82ED7016C91D9E06D9F0C
:102D2000B00111246E5E7F4F12962C914EEE5DE144
:102D300083E290E00E94FA14F70160816D9FB00178
:102D400011246E5E7F4F23814EEE5DE189E290E0BB
:102D50000E94FA14F6E0CF9F50011124D7016C9124
:102D60006D9FB00111246F5E7F4F01E028E046E0C7
:102D7000C50182960E945C16EC2FF0E0ED53FD4FEA
:102D8000D7016C916D9FB00111246E5E7F4F9BEF58
:102D9000C92EE12C10E000E022814EEE5DE1C5017C
:102DA00083960E94CB12DF91CF911F910F91FF90DC
:102DB000EF90CF90BF90AF9008958D3627E09207A7
:102DC000C8F4893027E0920790F5813426E0920715
:102DD00060F48D3D25E0920708F58130910548F1BA
:102DE0008937954000F586E00895853A9640E8F4E5
:102DF00082E0089585352BE0920748F4813F2AE070
:102E0000920798F48D389A4090F485E008958D31BA
:102E10002CE0920728F4893B9B4050F383E008950F
:102E200081389C4030F484E0089581E0089580E08A
:102E300008950895853328E0920728F4853A96404E
:102E400050F081E00895813F2AE0920730F0813808
:102E50009C40B8F3089580E0089582E00895E6E488
:102E6000F2E081E090E09183808325E832E03583D1
:102E70002483178216822AE733E0338722879587D7
:102E800084878FE694E0918B808B08958091440233
:102E90009091450220911301813038E293070CF4A0
:102EA00044C090529093450280934402809134072D
:102EB0009091350790529093350780933407E8EC52
:102EC000F6E048E257E0848595859052958784879F
:102ED00036964E175F07B9F780910A0190910B0162
:102EE000905290930B0180930A01E6E6F2E080E0B5
:102EF00082135DC080914A0290914B029052909350
:102F00004B0280934A02809150029091510290525C
:102F100090935102809350028091560290915702F3
:102F2000905290935702809356028091150181111F
:102F30001BC0809144029091450240910A0150913A
:102F40000B01BC01641B750B6134710568F0909333
:102F50000B0180930A01809106019091070101966F
:102F6000909307018093060180910F0190911001C9
:102F7000019681387CE0970710F5909310018093BB
:102F80000F0180910F0190911001889759F5809160
:102F90000D0190910E01019690930E0180930D0109
:102FA0008330910589F42F5F2093130110C0448171
:102FB00055815052558344838F5F709699CF1092FC
:102FC000100110920F01DDCF8730910561F3209140
:102FD0001401222379F081E0809315018CEC9DE1AE
:102FE0000E94B81280910C01882319F081508093BF
:102FF0000C01089594E690930C01982F990F990F66
:10300000890F825E80931401EDCF8091A702809595
:103010009091A602892319F082E080933F0220E07C
:1030200044E856E160E170E080E290E00E94FA142A
:1030300080913D0290913E0260E370E00E945A341C
:10304000883170F48C30D0F081E31092A304109298
:10305000A4041092A5041092A6041092A70403C021
:10306000843270F081E980937C04807A31F485EABF
:103070008093750485E980937604089581E1E5CF16
:1030800081E5F1CFCF93DF93C0913B02D0E020E008
:1030900042E055E16DE070E080E890E08C1B9D0B14
:1030A0000E94EA1420E04EE953E165E270E0CE01AF
:1030B000CB97DF91CF910C94EA14EF92FF920F938C
:1030C0001F93CF93DF93EC017B018A01FA0157FD37
:1030D000379683E0F595E7958A95E1F7F695FE2F0B
:1030E000EE27F795E795C80168E070E00E946E341E
:1030F00061E070E0AB0102C0440F551F8A95E2F712
:10310000CA01342F8095CE15DF05A4F4C038D1054F
:1031100068F40034110550F4DF01AC0FBD1FA85353
:10312000BD4F9C91222321F0932B9C932196EBCFB2
:103130009823FBCFDF91CF911F910F91FF90EF90DC
:103140000895CF92DF92EF92FF920F931F93CF9348
:10315000DF93EC017B018A01FA0157FD379683E08A
:10316000F595E7958A95E1F76F01D694DC2CCC2490
:10317000D794C794C80168E070E00E946E3461E0A3
:1031800070E0AB0102C0440F551F8A95E2F7CA01F7
:10319000542F809541E0CE15DF05D4F4C038D10519
:1031A00078F40034110560F4D601AC0FBD1FA853AC
:1031B000BD4F9C91F9016081662341F0952B9C9352
:1031C000F9019081942790832196E5CF9823F7CF3A
:1031D000DF91CF911F910F91FF90EF90DF90CF90F3
:1031E0000895EF92FF920F931F93CF93DF937C018B
:1031F000EB01FC0180819181F9012081222369F09A
:1032000098010E94A118F701D183C083DF91CF916B
:103210001F910F91FF90EF90089520E00E945D189C
:10322000F2CFCF92DF92EF92FF920F931F93CF9343
:10323000DF9300D000D01F92CDB7DEB780913C075E
:10324000813009F0F8C000913D0210913E0220E06B
:1032500046E950E161E070E085E090E00E94EA1408
:10326000E0913B07E111D8C007701127802F8695A8
:1032700063E00E944E34892F90E0BC016A5F7F4F6B
:1032800020E048E850E10A960E94EA140E94AF0F3D
:10329000F82E20E046E050E161E070E08CE190E043
:1032A0000E94FA1420E04BE169E070E08CE190E0CC
:1032B0000E94181521E00EE110E0F212DAC08091B0
:1032C0003D0290913E028F719927803140F025E0B8
:1032D00042E063E070E08EE190E00E9430168E01E3
:1032E0000F5F1F4F85E0F80111928A95E9F78091F1
:1032F0000601909107016AE070E00E945A3468016B
:103300009E012A5F3F4FF8014AE0E42EF12CCB01E9
:10331000B7010E945A3481932E173F07C1F794E5F5
:10332000E92EF12CF60121916F0148EC5FE061E09C
:1033300070E0C7010E94FA14F6E0EF1AF10826E3E4
:10334000E216F10479F780910601909107016AE095
:1033500070E00E945A34282F40E85FE061E070E09E
:103360008AE590E00E94FA1420E045E269E070E00E
:103370008CE390E00E94181580910F01909110014C
:103380000E941A17882341F021E047E062E070E0D4
:1033900080E690E00E94071620E044EF5EE061E0E6
:1033A00070E088E690E00E94EA148091140188237E
:1033B00079F080910F0190911001893B9B4040F082
:1033C00080913D028F7121F48EEE9EE00E94B81232
:1033D0002091140180910F0190911001222309F492
:1033E0005FC0893B9B4008F45FC080913D02909193
:1033F0003E028F719927803108F056C00F900F90D0
:103400000F900F900F90DF91CF911F910F91FF9030
:10341000EF90DF90CF9008956DE070E0E0FF02C084
:1034200061E070E0F0E0EE57FF4E849120E048E864
:1034300050E190E029CF20E042E550E170E060E00B
:1034400081E090E00E94EA1420E049E350E168E066
:1034500070E081E090E00E94FA1420913B07215037
:1034600043E250E166E070E082E190E00E94FA14ED
:103470000DCF1F1509F433CF802F90E0163048F49C
:1034800020E045E063E070E00E9407161F5F0D5FDB
:10349000F0CF25E042E063E070E00E943016F6CF06
:1034A000893B9B4008F0AACF3AE0822F632F0E940D
:1034B0004E3499830E944E349A83822F64E60E9490
:1034C0004E348B8386E7E82EF12CF80121918F0191
:1034D00048EC5FE063E070E0C7010E94FA14F6E098
:1034E000EF1AF10824E6E216F10479F787CFFC0120
:1034F0008181823009F443C028F4813069F190E081
:1035000080E008958330A9F08430C9F7A381B0E04A
:10351000AA0FBB1FAC53BE4FE2818D919C91E80F67
:10352000F92FF11D3197208130EF3203C0011124B2
:103530000895A381B0E0AA0FBB1FAC53BE4FE28138
:103540008D919C91E80FF92FF11D3197808120E139
:10355000829FC00111240895A381B0E0AA0FBB1F70
:10356000A654BE4FE2818D919C91E80FF92FF11D79
:103570003197808130E1839FC00111240895A38198
:10358000B0E0AA0FBB1FA654BE4FC6CFAF92BF92EA
:10359000CF92DF92EF92FF920F931F93CF93DF931F
:1035A000FC0186819781A085B1859C01AD0160E019
:1035B00070E080E090E000E10E941235A12CB12C77
:1035C000E8E0CE2EF7E0DF2EE12CF12C00E010E059
:1035D0000E94B534842FDF91CF911F910F91FF90FE
:1035E000EF90DF90CF90BF90AF900895AF92BF92D1
:1035F000CF92DF92EF92FF920F931F93CF93DF93BF
:10360000E0901301A0903007B0903107A80EB91ECA
:10361000E0913407F0913507E60FF71F26E6C22E3A
:1036200022E0D22EE60110E000E0F12CEF1409F4C4
:10363000C0C0288139814E855F85240F351FA501C3
:10364000421B530B9A01475B5F4F4339510508F00A
:10365000ABC04C815D81DF01A41BB50BAD01DB96D6
:10366000A737B10508F0A0C00097C9F04F5C5F4FC5
:1036700043365105A0F48091AF02811104C08AEB5A
:103680009DE10E94B8128F2DDF91CF911F910F9174
:10369000FF90EF90DF90CF90BF90AF9008956115AD
:1036A000710509F481C0205C3F4F2138310508F0D5
:1036B0007BC08091AF02811104C08AEB9DE10E9422
:1036C000B812AC80BD8080913407909135078A157F
:1036D0009B05CCF6CE010E94C61A8A0D9B2D911D2A
:1036E000AC01465F5F4F288139818E859F85280F09
:1036F000391F94E0000F111F9A95E1F7F801EA597C
:10370000FD4F8485882329F08385833021F0843020
:1037100039F190E003C095859195990F290F311DDE
:1037200097FD3A951091130180E090E0181799F1F8
:10373000F81689F0F601608171810684F785E02D25
:103740006E0F7F1FFB01E21BF30B1E161F0654F4C6
:10375000EA34F1056CF08F5FB0E1CB0ED11CE6CFFF
:103760009585DBCFD901A61BB70BAA34B1059CF711
:10377000F60164817581FB01E41BF50B1E161F0623
:1037800024F4FC9744F791E0E6CFDA01A61BB70BCF
:10379000DC97CCF3E0CF911176CFEAE0AE0EB11C0E
:1037A000BD82AC82F1946FCFF3940F5F1F4F609690
:1037B0003DCF8FE7F82E67CFCF9380E397E00E944D
:1037C000C61A21E0823030F022E08F3018F486955E
:1037D00029E0281B622F70E080913D0290913E020B
:1037E0000E945A342695C1E0821708F4C0E0809107
:1037F000400290914102909331078093300780916D
:103800003407909135070E948A1090933307809374
:1038100032072C2F40EE51E16FE270E08EE290E033
:103820000E94EA1480911601882319F18150809337
:103830001601869563E00E944E34C92F80911701CE
:10384000843049F0292F42E751E16AE370E088E2D1
:1038500090E00E94EA1480911701833051F02C2FE0
:1038600044E051E16AE370E087E490E0CF910C948A
:10387000EA14CF910895CF92DF92EF92FF926B01FD
:103880007C01C114D104E104F10441F00E94CD3166
:10389000A70196010E944D326B017C01C701B60160
:1038A000FF90EF90DF90CF900895E8ECF6E090E085
:1038B00080E0118610861386128695878487369657
:1038C000805C9F4F811524E0920799F71092C906FA
:1038D0006FE070E080E090E00E943B1C6B5F7F4FE8
:1038E0008F4F9F4F6093CA061092CD066FE070E035
:1038F00080E090E00E943B1C6B5F7F4F8F4F9F4F9B
:103900006093CE0608950F931F93CF93DF93C6E481
:10391000D2E00091440210914502980122533109EE
:103920008C819D8182179307B4F46CE271E080E092
:1039300090E00E943B1C685A7D4F8F4F9F4F600F55
:10394000711F7D836C8362E070E080E090E00E94F4
:103950003B1C79836883269682E0C835D807C9F670
:10396000DF91CF911F910F910895CF93DF93EC01D9
:103970009A8191509A83911105C08881882329F0FA
:10398000813081F1DF91CF91089589818350823018
:1039900068F4198261E170E080E090E00E943B1CD5
:1039A0006D5F7F4F8F4F9F4F6A83ECCF62E070E077
:1039B00080E090E00E943B1C672B682B692B81F014
:1039C00084E0898362E070E080E090E00E943B1C2C
:1039D0006B83E62FF0E0E353FE4F80818A83D2CFE2
:1039E00083E0EFCF89818150823098F262E070E00D
:1039F00080E090E00E943B1C672B682B692B71F0E4
:103A000082E0898365E070E080E090E00E943B1CEA
:103A10006B83E62FF0E0E853FE4FDFCF81E0F1CF7C
:103A20002F923F924F925F926F927F928F929F92CE
:103A3000AF92BF92CF92DF92EF92FF920F931F93BC
:103A4000CF93DF93CDB7DEB7CE54D1090FB6F8943C
:103A5000DEBF0FBECDBF2E968FAF2E97762E8091F4
:103A600044029091450297FDCF969C01F6E0359572
:103A70002795FA95E1F7388F2F8B265F3F4F3EA3AE
:103A80002DA3CF88D88C3FE0C30ED11C80910801B4
:103A9000909109018C159D0509F441C0022F0B5F1F
:103AA000802F8F7010E00F5F1F4F0F70112746E0BF
:103AB000849FC0011124FC01E853F94FA084B18414
:103AC0008053994FDC011496ED90FC90B0E4EB0E1E
:103AD000F11C88EC96E00E94771A4C01711005C029
:103AE0008CEC96E00E94771A5C0188EC96E00E94CC
:103AF000B51C8CEC96E00E94B51C86E0809FF0011E
:103B0000819FF00D1124E053F94FB182A08293827E
:103B10008282F582E482D0920901C09208012DA030
:103B20003EA0E6EFFFEFFE8FED8F2F89388D2C5FE3
:103B30003F4F3AAF29AF4F89588D4E5F5F4F279661
:103B40005FAF4EAF27978F89988D06969EA78DA75A
:103B5000AF89B88D1896B8ABAFA7EF89F88DE2158D
:103B6000F30508F0AEC4C1010E9413102F833887FB
:103B700049875A876B877C872F8138853EAF2DAF69
:103B80004B855C855EAB4DABC10101960E94131065
:103B90002D873E874F87588B698B7A8B8D859E85C5
:103BA0009CAF8BAFA989BA89BCABABAB409040024C
:103BB00050904102A0904202B0904302C090440253
:103BC000D09045028DAD9EAD84199509E985FA85A1
:103BD000EA19FB092DA93EA92C193D0911F421E090
:103BE00030E076E0880F991F7A95E1F7B9010E94DD
:103BF0006E347B01B0E4EB0EF11C80E090E2B90181
:103C00000E946E347A8F698F4D8D5E8D4F5F5F4F4E
:103C100025965FAF4EAF2597CF01E6E0880F991F3D
:103C2000EA95E1F7B9010E946E3425960EAD1FADFD
:103C30002597061B170BC80180969E8B8D8B8F8551
:103C400098898A199B096BA87CA86C187D0819F4BF
:103C500066246394712C56E0880F991F5A95E1F7FA
:103C6000B3010E946E348D8D9E8D861B970BDC01F7
:103C70009096BCA3ABA3E98DFA8DBF01FF0F880B13
:103C8000990B0E9455334B015C01B701FF0C880B67
:103C9000990B0E9455336B017C0120E030E040EA33
:103CA0005FE3C501B4010E94E1339B01AC01C70190
:103CB000B6010E94B0320E941D336F8F78A389A392
:103CC0009AA32F8D38A121963FAF2EAF2197B9012E
:103CD000330F880B990B0E9455336B017C0120E058
:103CE00030E040E250E4C501B4010E94E1339B01A1
:103CF000AC01C701B6010E94B1320E941D336FA30F
:103D000078A789A79AA78FA198A523969FAF8EAF72
:103D10002397ADA1BEA12A163B0609F041C08F89A9
:103D2000988D0E94131029833A834B835C836D83A3
:103D30007E83A980BA80B7FE03C0B3E0AB0EB11C8E
:103D4000B594A794B594A794E0E4AE0EB11CB092DC
:103D50001201A092110180910F01909110010E9417
:103D60001A17FF24F394811101C0F12CBA948BA08F
:103D70009CA029E0821A910830E8A316B10484F4CB
:103D8000CC24C394EF2C0CEE1AE02F2D4CEE5CE00B
:103D9000B401C5010E94CB1240E8A40EB11CECCFC7
:103DA000C101817099279AAB89ABAD89BE89EBA11E
:103DB000FCA1EA17FB070CF036C1298D3A8D1216CB
:103DC00013060CF030C180E090E2B3010E946E3423
:103DD000161617060CF027C1072E000C880B990B3E
:103DE0000E9455336B017C018BAD9CAD8419950904
:103DF00036E0880F991F3A95E1F7B3010E946E34BF
:103E0000605C7F4F072E000C880B990B0E94553386
:103E10002B013C0120E030E040EA5FE3C701B6013E
:103E20000E94E1339B01AC01C301B2010E94B03298
:103E30000E941D33698F7A8F8B8F9C8F498D5A8D8D
:103E4000BA01550F880B990B0E9455332B013C0189
:103E500020E030E040E250E4C701B6010E94E133C7
:103E60009B01AC01C301B2010E94B1320E941D331B
:103E70002B018D889E888BA19CA1881A990AA98DF7
:103E8000BA8DEF8DF8A1AE1BBF0B2D96BFAFAEAFB5
:103E90002D9792014FA158A5241B350B2B963FAFB0
:103EA0002EAF2B978D899E898819990929969FAFE6
:103EB0008EAF2997ED88FE88A12C1CA61BA618AEF4
:103EC0001FAA9D8991702F969FAF2F97A0E4EA16A5
:103ED000F104F4F58FA998ADB4010E946E342196D7
:103EE0000EAD1FAD2197060F171F17FF02C010E080
:103EF00000E08BA59CA5B4010E946E342396CEAC45
:103F0000DFAC2397C60ED71EB1E8CB16D1041CF048
:103F100020E8C22ED12CEA2DE170BE2EEC8B2F961C
:103F20008FAD2F978A0D81708B8B80910F019091AF
:103F300010010E941A1729A93AA9232B09F478C164
:103F4000813009F447C108F42CC1823009F455C10D
:103F500031E0E31AF1084FA958AD2D968EAD9FAD13
:103F60002D97480F591F58AF4FABABA5BCA52B964B
:103F7000EEADFFAD2B97AE0FBF1FBCA7ABA7A394B1
:103F8000FA2DF170AF2E29962EAD3FAD29972E1543
:103F90003F0509F09BCF49A95AA9452B09F043C019
:103FA00026E030E08FA198A5AF8DB8A18A1B9B0BAE
:103FB000B9010E946E347B01C201E98DFA8D8E1B1E
:103FC0009F0BB9010E946E348B014E0E5F1E57FE8F
:103FD00003C0FFEF4F1A5F0A55944794CFA0D8A4AF
:103FE0002F8D38A1C20ED31ED7FE03C03FEFC31AD8
:103FF000D30AD594C794A201401B510B2BA13CA11D
:104000006D897E89C6018E199F090E948315A801BA
:10401000440D551D2BA13CA16D897E89C7018C0DD6
:104020009D1D0E9483152E964FAD2E97442309F4B3
:1040300054C18BAC9CAC8DAD9EAD880E991E97FE85
:1040400003C09FEF891A990A95948794B12C00E2D6
:10405000402E512C80911301B81608F03EC1A0E10A
:10406000BA9E60011124F601EA59FD4F7F010481D7
:1040700015812DA93EA9201731070CF090C04BA93E
:104080005CA9401751070CF48AC080910F019091F0
:1040900010010E941A17A82ED7011F969C928E928B
:1040A0001E97C8010E948A10F70193838283809132
:1040B0004402909145027801E81AF90A19F4EE24B5
:1040C000E394F12C081B190BC801C1968B3B92405D
:1040D00008F065C0083621E012070CF0F1C083E05B
:1040E000023231E013074CF4043B11050CF4F3C029
:1040F00082E00C3D11050CF481E090E0FC01EA51F6
:10410000F54F3491FC01E052F54FE49121E0A2E03B
:10411000AA1220E0880F991FDC01A85EBD4F6D90A8
:104120007C90A6014A595D4F6A01DA0112968D9181
:104130009C914091420250914302841B950BF6E002
:10414000880F991FFA95E1F7B7010E946E3482013A
:10415000061B170B4D8D5E8D040F151F031B1109D8
:104160000F5F1F4FD6018D919C91880D991D409135
:10417000400250914102841B950BA6E0880F991FC5
:10418000AA95E1F7B7010E946E34CB01805C9F4F86
:10419000E695A301B8018E1B91090E94EA14B3941D
:1041A00059CF0F5F1F4F21E0A701B80190E080E0D9
:1041B0000E945D189E012D5E3F4FA701B601C80108
:1041C0000E94A11821E0A70161E870E0C6010E94E9
:1041D0005D18BECE0F5F1F4F20E0A701B80190E031
:1041E00080E00E945D189E012D5E3F4FA701B60141
:1041F000C8010E94A11820E0E6CF0F5F1F4F9E016B
:104200002D5E3F4FA701B80190E080E00E94A11809
:1042100020E0A701B601C8010E945D189E012D5E35
:104220003F4FA70161E870E0C6010E94A11890CE3F
:104230001A821982813019F110F1823009F088CE8A
:104240000F5F1F4F20E0A701B80190E080E00E94BF
:104250005D181A830983BC8A8E010D5E1F4F9E0173
:104260002C5E3F4FA701B601CE0101960E94F118C6
:1042700020E0A70161E870E089819A81A8CF0F5FF3
:104280001F4F9E012D5E3F4FA701B80190E080E0D7
:104290000E94A1181A830983BC8A8E010D5E1F4FEC
:1042A0009E012C5E3F4FA701B601CE0101960E94F0
:1042B000F1189801A70161E870E089819A81B5CF72
:1042C00084E00C3C41E014070CF417CF85E00A3879
:1042D00012400CF412CF80E010CF06E412E068E543
:1042E000A62E62E0B62E2396CEACDFAC2397BDE0BF
:1042F000CB0ED11C2196EEACFFAC2197ECE0EE1A70
:10430000F108D80114968D919C91EDA9FEA9E817AA
:10431000F9070CF05FC02BA93CA9281739070CF44A
:1043200059C027964EAD5FAD27974215530528F427
:1043300089AD9AAD28163906F8F080E0A9ADBAAD7E
:104340002A163B0630F0EDA5FEA52E163F0608F412
:1043500083E02DA53EA52216330680F04FA558A96F
:104360002416350608F49EC081E0EDA1FEA12E16AC
:104370003F0670F080E00CC084E0E0CFAFA5B8A9A4
:104380002A163B0688F72DA13EA12216330690F788
:1043900090E0FC01EE0FFF1FE25FFD4F4081518175
:1043A000FC01E552F54F8A52954FD8012D913C9171
:1043B000232B09F079C02491FC0184916D897E89B9
:1043C000621B7109869520E0D701A81BB109CD01B8
:1043D0000E94EA140A5F1F4FA016B10609F091CFA0
:1043E000E9A9FAA9EF2B09F453C027962EAD3FADEA
:1043F00027972215330508F04BC049AD5AAD83E02D
:104400002416350668F08F89988DAD8DBE8D8A1B78
:104410009B0BEDA5FEA58E179F0708F450C080E00A
:104420002DA53EA52216330660F02F89388D4D8DBF
:104430005E8D241B350BAFA5B8A92A173B0708F4DE
:1044400081E0EFA5F8A92E163F0608F080E090E085
:10445000FC01E65FFD4F208130E0880F991FFC01D1
:10446000EE5FFD4FE080F1800D891E89021B130B6A
:104470008F8D98A1821B930B20E0A701B8010E94A9
:10448000EA1420E0A701B8018FA198A50E94EA14C0
:10449000F1E02F1A310825962EAD3FAD25973E8FBE
:1044A0002D8F5BCB82E06FCF2491FC0184916D89CD
:1044B0007E89621B7109869520E0D60186CF82E055
:1044C000AFCFC25BDF4F0FB6F894DEBF0FBECDBFDC
:1044D000DF91CF911F910F91FF90EF90DF90CF90E0
:1044E000BF90AF909F908F907F906F905F904F9014
:1044F0003F902F900895CF92EF92FF920F931F93CA
:10450000CF93DF938091020190910301992309F4E5
:104510006FC1883718F48D5F8093020161E080E0FD
:104520000E94101D80910401813009F49DC0E8F1C2
:10453000823009F4F9C00E9446170E94831C8091C2
:104540004402909145029C012A5F3F4F30934502FF
:10455000209344028A579F4F0E948A10805C9F4F8D
:1045600090934302809342028CEB92E0909310016F
:1045700080930F01DF91CF911F910F91FF90EF90EA
:10458000CF9008958350C8CF80910501882339F0DA
:1045900082E08093040181E080930301BFCF81E03A
:1045A0008093040180930501F6CFC09102010C2F86
:1045B00010E020E04CEF5BE168E070E080E890E024
:1045C000801B910B0E94EA1420E04EE65AE162E261
:1045D00070E0C801855491090E94EA14C83709F0B7
:1045E000AACF88E00E94521581111092030180E148
:1045F0000E94521581111092010180E80E9452150B
:10460000882319F081E08093010101E02FE04CE262
:1046100068E070E084E590E00E945C168091010102
:1046200061E170E0813011F06AE070E023E043E086
:1046300085E590E00E9430168BEFC82EE12C10E04B
:1046400000E020E049E55AE169E070E08AE590E0A9
:104650000E94CB1220E042E35AE160E170E08AE57B
:1046600090E00E94CB1267CF00E02AE244E56CE0C4
:1046700070E086E190E00E945C1620E04DE25AE195
:104680006CE070E086E190E00E94FA1420E048E2DD
:104690005AE16EE270E086E190E00E94FA1420E0B8
:1046A00043E25AE16CE070E087E690E00E94FA1481
:1046B00020E04EE15AE16EE270E087E690E00E9471
:1046C000FA1421E04EE46DE070E089E190E00E9490
:1046D000181521E04EE464E370E089E190E00E9467
:1046E000181521E040E264E170E087E190E00E946B
:1046F000071621E040E264E170E088E690E00E9465
:10470000071620E048EF58E160E170E08CE190E0AE
:104710000E94FA1488E00E945215882309F40BCFF6
:1047200082E08093040107CF80913C07CAE2813088
:1047300009F0C0E0D0E07E0189E1E80EF11C20E044
:104740004EEA58E16EE070E0C7010E94EA1420E0F2
:104750004EEA58E16AE270E0C7010E94EA1402E101
:1047600010E0E59620E044EA58E1B801C7010E9454
:10477000FA1420E044EA58E1B801CE010E94FA148C
:10478000095F1F4F0E32110569F720E042EA57E139
:1047900060E170E08BE190E00E94EA1420E042EAE0
:1047A00057E160E170E085E490E00E94EA1420E0C7
:1047B0004AE857E162E170E089E490E00E94FA146F
:1047C00088E00E945215882319F084E080933F020C
:1047D00080E40E945215811110923C0780E20E94F1
:1047E0005215882309F4A7CE81E080933C07A3CE1D
:1047F0008111C8CE80910101882309F4C5CE813092
:1048000009F08CCE89E080933F0288CE2F923F92B0
:104810004F925F926F927F928F929F92AF92BF92D0
:10482000CF92DF92EF92FF920F931F93CF93DF937C
:10483000CDB7DEB76D970FB6F894DEBF0FBECDBF14
:1048400080913B07882381F08091AF0281110CC0D9
:104850000E94AF0FE82FF0E0EE0FFF1FE051FE4F78
:10486000808191810E94B81280913C07882309F4CD
:104870007EC1813031F580E10E945215882391F08C
:1048800080910C018B3338F080910D0190910E01D5
:10489000029708F461C180913B07853018F48F5F5F
:1048A00080933B0780E80E945215882351F00E94B4
:1048B000830F882331F08AE08093160185E080938E
:1048C000170160E081E00E94101D0E94DC1B0E9425
:1048D000111920910D0130910E0180910C012230AF
:1048E000310508F474C1882309F489C020E040E14F
:1048F0005AE06DE070E080E190E00E94EA1420E070
:1049000040E15AE06DE070E08BE690E00E94EA142E
:1049100020E046EA58E068E070E083E190E00E9421
:10492000EA1421E046EA58E068E170E083E190E0B3
:104930000E94EA1420E048E458E060E170E082E17F
:1049400090E00E94FA1420E04EE358E060E270E04C
:104950008BE290E00E94EA1420E04EE358E060E22F
:1049600070E081E590E00E94EA1480910D01909141
:104970000E0103E3F02E0B9710F485E3F82E20E0F0
:104980004EE258E062E170E08F2D90E00E94FA1450
:1049900002E10F0D10910D011436A8F0812F64E68D
:1049A0000E944E34E82E2AE1280F4EEE5DE162E1CE
:1049B00070E0802F90E00E94FA142CE9E29E100D26
:1049C000112407E10F0D1A3080F0812F6AE00E9458
:1049D0004E34192F2AE1280F4EEE5DE162E170E0BE
:1049E000802F90E00E94FA140B5F2AE1210F4EEE17
:1049F0005DE162E170E0802F90E00E94FA140E9475
:104A000046170E94831C80E397E00E94C61AB82EC6
:104A100080910C018C3338F080910D0190910E0142
:104A2000019709F4B12CEB2CF12CF701EF52FE4F5A
:104A3000C0800091340710913507B80190E080E004
:104A40000E944510298B3A8B4B8B5C8B6D8B7E8B38
:104A5000B801605C7F4FC8010E9445102F8B388FD2
:104A6000498F5A8F6B8F7C8F29893A898F89988DCE
:104A7000280F391F37FF02C02F5F3F4F359527950D
:104A80000091300710913107021B130B80E40E9444
:104A90005D15882321F1053D3EEF130704F18C2CB1
:104AA000912C70E060E088279927881999090E9465
:104AB000F61A8F37A1F48091400290914102881933
:104AC0009909909341028093400280913007909120
:104AD000310788199909909331078093300780E254
:104AE0000E945D15882301F10C3281E01807E4F47F
:104AF000D12C70E060E0C6010E94F61A8F37A1F455
:104B000080914002909141028C0D9D1D9093410235
:104B1000809340028091300790913107C80ED91ED2
:104B2000D0923107C0923007BB2009F4BBC08091FE
:104B300016018111B7C00F37AFEF1A070CF09EC0F6
:104B40000234BFEF1B070CF0D8C008311C4F0CF02B
:104B5000A0C010923A07A6C0809116018111A2CE82
:104B60008AE08093160185E0809317019BCE0E9416
:104B7000AF0F813031F480913B07823010F00E94FA
:104B8000830F80913A0781119CCE0E94AF0F88302D
:104B900009F097CE80913B07882309F492CE90913B
:104BA0000C019B3338F020910D0130910E01223021
:104BB000310538F0853008F084CE8F5F80933B0755
:104BC00080CE80911601882309F475CE7ACE882391
:104BD00009F415CFCC24C394E12C08E21AE020E0BC
:104BE00044E75AE062E170E083E090E00E94CB127B
:104BF00080910C01803560F4833360F5823380F559
:104C00008431B8F101E023E043E064E270E009C0E0
:104C10008E3660F48135B0F001E023E043E068E1D6
:104C200070E08BE090E00E945C16E9CE8E3609F0D1
:104C3000E6CE60E080E20E946F0F82E29AE00E947E
:104C4000B812EACF68E188E10E946F0F82E29AE031
:104C50000E94B81201E023E043E06EE170E0E1CF92
:104C600060E380E00E946F0F8CE19AE00E94B8122E
:104C7000C9CF60E080E00E946F0FC4CF02381105F9
:104C80000CF467CF0F3B1105ECF1093E13400CF01B
:104C900060CF84E08093160185E08093170181E066
:104CA00080933A0780913D0290913E02837099274C
:104CB000892B09F0FCC00E94AF0F082FB70190E0CC
:104CC00080E00E94F61A182F8F3709F04EC08091AD
:104CD0003A078823D9F080913B078130B9F011E081
:104CE0000E940D1583FD05C084E00E945D158111B1
:104CF00012E0812F0E94241159C084E08093160194
:104D000083E0CBCF84E080931601C7CF10E088E02A
:104D10000E945D15882351F080913B07813019F086
:104D20000230110518F00830110588F088E00E9463
:104D30005D158823A1F20830110539F080913B07F9
:104D4000823068F20130110551F613E0C9CF80912D
:104D5000380790913907892B31F48AE08093160146
:104D600085E08093170110E0BBCF87FD1FC088E06E
:104D70000E945D15882309F492C020E11202F0011F
:104D80001124EA59FD4F86819781A085B1858093D2
:104D9000360790933707A0933807B093390780916F
:104DA000340790913507CC969583848380910D01CB
:104DB00090910E0120910C012B3318F48130910554
:104DC00019F0029708F4BDC280E397E00E94C61A6A
:104DD00090E02091340730913507280F391F309328
:104DE0003507209334072091440230914502820F09
:104DF000931F909345028093440280589F4F0E94D6
:104E00008A10805C9F4F90934302809342022091CE
:104E1000130140E030E0790181E0E81AF108842FC5
:104E200090E08E159F050CF07AC050E0B901681B28
:104E3000790B61507109852F90E0861797070CF068
:104E40006CC0A4E0880F991FAA95E1F78C010A595C
:104E50001D4F8A589D4FF801A481B581FC01C48083
:104E6000D580AC15BD05CCF4E0E1DE2EF801DE0105
:104E7000119601900D92DA94E1F7F0E1DF2EFC013A
:104E8000D80101900D92DA94E1F710E1FE0131961C
:104E9000DC0101900D921A95E1F75F5FCCCF809114
:104EA0003A07811102C083E025CF81E023CFB7010B
:104EB00090E080E00E94F61A8F3709F477CF282F10
:104EC000082E000C330B37FF03C0319521953109B3
:104ED000B4E0220F331FBA95E1F7F901EA59FD4F0B
:104EE00020913407309135074481558124173507C7
:104EF0000CF05CCF46815781608571854093360701
:104F000050933707609338077093390787FD4ECF6A
:104F1000245C3F4F3583248349CF4F5F80CFB12C32
:104F20006CEB262E62E0362E40901301B41408F08C
:104F3000D8C1F0E1BF9E7001112487010A591D4FAD
:104F4000D801CD90DC9011971E968D919C911F9762
:104F5000C80ED91E1C968C911C97882341F01B9675
:104F60008C911B97833029F0843009F4DCC080E0F9
:104F700004C0F80185858195880FC80ED11C87FD76
:104F8000DA94552453945B0CB0E15B9EC00111246C
:104F9000FC01EA59FD4F4F01AB2C1D8EA3944A1022
:104FA000C5C080913007909131079C012C193D09B3
:104FB000121613060CF0F8C02A3431050CF4FBC0AD
:104FC000BD8DB11116C1C8010E94C61AF801248115
:104FD0003581820F932F911D95838483C090440265
:104FE000D0904502960122533109821793070CF0A5
:104FF00067C0F1E0FA1508F017C1E0E0EB1509F41D
:105000000FC18C199D09181619060CF0F9C020E182
:10501000E29FF0011124EA59FD4FC480D58040EB96
:1050200054E0481B590B052E000C660B770B410111
:10503000881A990A092C000CAA08BB088416950640
:10504000A606B70664F4CB01BA01681979098A0982
:105050009B090E943B1C860E971EA81EB91EC80CF9
:10506000D91CD8011596DC92CE92149765E070E0B9
:1050700080E090E00E943B1C9B01AC01275F3F4F0A
:105080004F4F5F4FA8E0B7E00E946C32CB0177270B
:105090006627F80166837783808791878091140162
:1050A000882371F09091150191110AC0815080936D
:1050B0001401882309F4CAC08CEC9AE00E94B8124B
:1050C000F701EA59FD4F24852150248783858330D9
:1050D00009F4BFC0843009F4DDC021118AC0D801B1
:1050E0008D919C91843191050CF0E0C08D3EBFEF15
:1050F0009B070CF0E4C08C399F4F0CF0DDC062E0E0
:1051000070E080E090E00E943B1CD701AA59BD4F9F
:105110001D966C931D97E62FF0E0E153FE4F8081C2
:105120001C968C9366C01D968C9126CFBA1491F074
:10513000D4018D919C9111971E962D913C91820FD7
:10514000931F9C012C193D09121613063CF42A34B6
:10515000310554F030E1830E911C20CFF601E81B9D
:10516000F90BEA34F105B4F7D40114966D907C90F4
:10517000C8010E94C61AF80124813581820F932F3D
:10518000911D9301281B390B1216130634F42C338E
:10519000310504F7F1E0FD8FDDCF86199709CC9733
:1051A000CCF621E02D8FD6CFC81AD90A8AE4C816CA
:1051B000D1040CF005CFC0903407D090350780E3C0
:1051C00097E00E94C61AC80ED11CC8010E94C61AD8
:1051D000D80114962D913C91820F932F911D960129
:1051E000281B390B1216130634F42C3331050CF03E
:1051F000E7CEB52C99CE8C199D09CC97D4F3E0CE8F
:1052000064EF71E080E090E00E943B1C64547D4FAD
:105210008F4F9F4F6C0D7D1DF8017583648326CFE2
:10522000EF5FAE12EBCE22CF64EF71E080E090E052
:105230000E943B1C64547D4F8F4F9F4F6C0D7D1D12
:10524000D80115967C936E93149710CF82EC9AE058
:1052500035CF858590E0880F991FD8014D915C91DD
:105260001197481B590B4D935C932111C2CF8701B5
:105270000A591D4FD8011B961C9266E970E080E028
:1052800090E00E943B1C6E5C7F4F8F4F9F4FF80158
:105290006487AFCF858590E0880F991FF801408122
:1052A0005181840F951F91838083DFCF85369105CF
:1052B0000CF025CF83E011C034E0338720CF62E0CB
:1052C00070E080E090E00E943B1C672B682B692B0C
:1052D00031F483E0F701EA59FD4F838710CF84E072
:1052E000F9CF80911501882361F180913B028C36C2
:1052F000E8F48D5F80933B026D960FB6F894DEBFA5
:105300000FBECDBFDF91CF911F910F91FF90EF9016
:10531000DF90CF90BF90AF909F908F907F906F90D5
:105320005F904F903F902F900C9442180E9442182B
:1053300080E397E00E94C61A80933C0286E0809347
:105340003F026D960FB6F894DEBF0FBECDBFDF9162
:10535000CF911F910F91FF90EF90DF90CF90BF9072
:10536000AF909F908F907F906F905F904F903F9005
:105370002F90089561E080E00E94101D0E94DC1BC8
:105380000E9411190E94421888E00E945215882339
:1053900019F088E080933F020E9446170E94831C08
:1053A00080913C022091440230914502820F932F5C
:1053B000911D909345028093440280589F4F0E9414
:1053C0008A10805C9F4F90934302809342028CEB43
:1053D00092E09093100180930F0108950C94253270
:1053E00082E090E00E94EE29882331F03E9A579A9D
:1053F00081E08093A80208951092A8023E985798E1
:105400000895DF92EF92FF920F931F93CF93DF9354
:1054100000D000D000D01F92CDB7DEB795E0899FB5
:1054200080011124C80188559F4F0E94EE29D82E73
:10543000C80187559F4F0E94EE29E82EC801865566
:105440009F4F0E94EE29F82EC80185559F4F0E945C
:1054500025328E83C80184559F4F0E9425325E817C
:10546000682F2D2D3E2D4F2D70E080E090E0279687
:105470000FB6F894DEBF0FBECDBFDF91CF911F9165
:105480000F91FF90EF90DF9008951F93CF93DF93DC
:10549000EC01162F0E942532181739F0612FCE012A
:1054A000DF91CF911F910C943F32DF91CF911F91EB
:1054B0000895FF920F931F93CF93DF93EC018B011D
:1054C000FB01F0800E942532F81621F06F2DCE01ED
:1054D0000E943F32F801F1802196CE010E942532D0
:1054E000F81621F06F2DCE010E943F32C801DF91E6
:1054F000CF911F910F91FF9008950F931F93CF931A
:10550000DF9300D0CDB7DEB7082F86EA90E00E9487
:10551000EE29182F87EA90E00E94EE29011104C0BD
:10552000133511F4833459F18AE090E09A8389832A
:1055300063E586EA90E00E94452A63E487EA90E00A
:105540000E94452A08EA10E060E0C8010E94452A4E
:105550000F5F1F4F013C1105B9F70BEA10E0BE01C8
:105560006F5F7F4FC8010E94592A89819A810297F3
:105570009A8389830B5F1F4F043C110581F70F90BD
:105580000F90DF91CF911F910F9108950F920FB659
:105590008F939F93EF93FF938091BA028D5F8D3726
:1055A00008F08D578093BA02EBEBF2E080818E4FCA
:1055B000808391819F4F918382818F4F82838381EA
:1055C0008F4F8383EFEBF2E080818F5F8083818157
:1055D0008F4F818382818F4F828383818F4F83831B
:1055E0008FB18F6066991C9B88278F3681F48091DC
:1055F000B902981B963068F0E0E0F8E087E7808316
:10560000818388E180936000F0936000FFCF9093E6
:10561000B902FF91EF919F918F910FBE0F90189556
:105620001F920F920FB60F9211242F933F934F9317
:105630005F936F937F938F939F93AF93BF93EF93FA
:10564000FF938091B5029091B602A091B702B091FC
:10565000B802892B8A2B8B2B09F440C08091B402AD
:1056600081110BC088B190E4892788B98091B30279
:10567000882319F088B1805888B98091B50290913B
:10568000B602A091B702B091B802181619061A0610
:105690001B069CF48091B5029091B602A091B702CE
:1056A000B091B8020197A109B1098093B502909316
:1056B000B602A093B702B093B802FF91EF91BF91E9
:1056C000AF919F918F917F916F915F914F913F919A
:1056D0002F910F900FBE0F901F9018950E941312DC
:1056E000ECCF85E195E19093AA028093A90280E036
:1056F00090E8909365028093640246983E9A47989A
:105700003F9A10923607109237071092380710927E
:10571000390710923A0710923B0710923C07E6E6D1
:10572000F2E086EA92E016821782108611861286CF
:1057300013861486158670968E179F07A1F76FE063
:1057400070E080E090E00E943B1C21E02093C806BE
:105750001092C9066B5F7F4F8F4F9F4F6093CA06B1
:105760001092CB066FE070E080E090E00E943B1C5E
:105770001092CC061092CD066B5F7F4F8F4F9F4FDC
:105780006093CE061092CF061092D1061092D006EA
:105790001092D3061092D2061092D5061092D4061B
:1057A0001092D7061092D6061092D9061092D806FB
:1057B00080E490E09093DB068093DA061092DD0699
:1057C0001092DC061092DF061092DE0680E890E070
:1057D0009093E1068093E0061092E3061092E206B1
:1057E0001092E5061092E40680EC90E09093E706B4
:1057F0008093E6061092E9061092E8061092EB06F6
:105800001092EA0680E091E09093ED068093EC061A
:105810001092EF061092EE061092F1061092F0062A
:1058200080E491E09093F3068093F2061092F506DF
:105830001092F4061092F7061092F60680E891E0B6
:105840009093F9068093F8061092FB061092FA06E0
:105850001092FD061092FC0680EC91E09093FF06FA
:105860008093FE0610920107109200071092030722
:105870001092020780E092E090930507809304075E
:105880001092070710920607109209071092080756
:1058900080E492E090930B0780930A0710920D0723
:1058A00010920C0710920F0710920E0780E892E0FA
:1058B000909311078093100710921307109212070C
:1058C000109215071092140780EC92E0909317073E
:1058D00080931607109219071092180710921B0751
:1058E00010921A0780E093E090931D0780931C07A5
:1058F00010921F0710921E07109221071092200786
:1059000080E493E090932307809322071092250769
:1059100010922407109227071092260780E893E040
:10592000909329078093280710922B0710922A073B
:1059300010922D0710922C0780EC93E090932F0784
:1059400080932E078FEF8093C3021092C4021092AF
:10595000C5021092C6021092C7020895CDB7DEB7F5
:105960002F97DEBFCDBF91E09093E0001092E20050
:105970001092E10080E28093D8001092D7008091CD
:105980006500806880936500789483E084BD83E03F
:1059900085BD90936E00E1E8F0E083E08083E0E86D
:1059A00081E08083E1E983E08083E0E981E0808336
:1059B000E1EC87E08083E3EC81E08083E0EC82E04F
:1059C0008083E2EC81E08083EAE787E0808380687F
:1059D000808381EC80937C0081E185B987E684B97E
:1059E00084E38BB98FE38AB9769A6E9880EF81BB96
:1059F00010BA80E58CBD9DBD85E00E940A15599ABC
:105A000085E00E940A155C98E6E2F6E085918EBD7D
:105A100000000DB407FEFDCFE333C1F75C9A81E8C7
:105A20008093640081E08093650080E00E94DB1039
:105A300080E10E945D158823A9F05C9885EA8EBDFF
:105A400000000DB407FEFDCF5C9A2E9858982D9853
:105A50008091640080628093640081E083BF8895B8
:105A600013BEFCCF84E00E945D158823C9F12E9AF5
:105A7000589A2D9884E10E945D158823A1F02D9AF3
:105A800088EC0E940A1558986FEF82E090E00E941F
:105A90002D3284EF91E00E94C711589A84E10E9450
:105AA0005D158111FBCF84E80E945D158823A1F06C
:105AB0002D9A88EC0E940A152E9860E082E090E012
:105AC0000E942D3284EF91E00E94C7112E9A84E843
:105AD0000E945D158111FBCF88EC0E940A15C2CF90
